{
  "contractName": "Organizations",
  "abi": [
    {
      "constant": true,
      "inputs": [
        {
          "name": "",
          "type": "bytes32"
        }
      ],
      "name": "serviceClaimsMap",
      "outputs": [
        {
          "name": "",
          "type": "address"
        }
      ],
      "payable": false,
      "stateMutability": "view",
      "type": "function",
      "signature": "0x2470d25e"
    },
    {
      "constant": true,
      "inputs": [
        {
          "name": "",
          "type": "bytes32"
        }
      ],
      "name": "providerMap",
      "outputs": [
        {
          "name": "id",
          "type": "bytes32"
        },
        {
          "name": "name",
          "type": "string"
        }
      ],
      "payable": false,
      "stateMutability": "view",
      "type": "function",
      "signature": "0x2bde2a86"
    },
    {
      "constant": true,
      "inputs": [
        {
          "name": "",
          "type": "bytes32"
        }
      ],
      "name": "insurerMap",
      "outputs": [
        {
          "name": "id",
          "type": "bytes32"
        },
        {
          "name": "name",
          "type": "string"
        }
      ],
      "payable": false,
      "stateMutability": "view",
      "type": "function",
      "signature": "0x39160aa7"
    },
    {
      "constant": true,
      "inputs": [
        {
          "name": "",
          "type": "bytes32"
        }
      ],
      "name": "patientMap",
      "outputs": [
        {
          "name": "id",
          "type": "bytes32"
        },
        {
          "name": "name",
          "type": "string"
        }
      ],
      "payable": false,
      "stateMutability": "view",
      "type": "function",
      "signature": "0x92398fbb"
    },
    {
      "anonymous": false,
      "inputs": [
        {
          "indexed": false,
          "name": "ID",
          "type": "bytes32"
        },
        {
          "indexed": false,
          "name": "addr",
          "type": "address"
        }
      ],
      "name": "SCID",
      "type": "event",
      "signature": "0x2cdb195d7226065901c0e37d742237ac3e30d6dc0ce7faf49701f6ec9f0bd1ed"
    },
    {
      "anonymous": false,
      "inputs": [
        {
          "indexed": false,
          "name": "id",
          "type": "uint256"
        },
        {
          "indexed": false,
          "name": "amount",
          "type": "uint256"
        }
      ],
      "name": "ClaimCreated",
      "type": "event",
      "signature": "0x96e3875898071e5d91932eb150a3914f9fe70e473f6faeaad697e99a48937c9c"
    },
    {
      "anonymous": false,
      "inputs": [
        {
          "indexed": false,
          "name": "id",
          "type": "bytes32"
        },
        {
          "indexed": false,
          "name": "name",
          "type": "string"
        }
      ],
      "name": "PatientCreated",
      "type": "event",
      "signature": "0x86ec8adc6f97da0327b3e1dcc24fa25aea5eb7afcf6af08792e4b2d4d799fad8"
    },
    {
      "anonymous": false,
      "inputs": [
        {
          "indexed": false,
          "name": "id",
          "type": "bytes32"
        },
        {
          "indexed": false,
          "name": "name",
          "type": "string"
        }
      ],
      "name": "ProviderCreated",
      "type": "event",
      "signature": "0x7dd222c7de5c7ba42d121aa7e2acc9d5d4a47c2eb31f55385cf51cbe459c5c9b"
    },
    {
      "anonymous": false,
      "inputs": [
        {
          "indexed": false,
          "name": "id",
          "type": "bytes32"
        },
        {
          "indexed": false,
          "name": "name",
          "type": "string"
        }
      ],
      "name": "InsurerCreated",
      "type": "event",
      "signature": "0xf73cee28a98c20f23a903356ab57dc8c514e66b0488c994b09dec06f978c839b"
    },
    {
      "anonymous": false,
      "inputs": [
        {
          "indexed": false,
          "name": "ids",
          "type": "bytes32[]"
        }
      ],
      "name": "idList",
      "type": "event",
      "signature": "0x1c7aaf504355c6134470b4070ca50bf276d45d0205aa86ef6bd15c684ae710c4"
    },
    {
      "anonymous": false,
      "inputs": [
        {
          "indexed": false,
          "name": "services",
          "type": "address[]"
        }
      ],
      "name": "serviceList",
      "type": "event",
      "signature": "0xa1c275d9147cd4bbf3a6fc6b01df2bdad7272d62a5bea8ea5f90e20e7c3f48e9"
    },
    {
      "constant": false,
      "inputs": [
        {
          "name": "_name",
          "type": "string"
        },
        {
          "name": "_providerID",
          "type": "bytes32"
        }
      ],
      "name": "addPatient",
      "outputs": [
        {
          "name": "pID",
          "type": "bytes32"
        }
      ],
      "payable": false,
      "stateMutability": "nonpayable",
      "type": "function",
      "signature": "0x740044b4"
    },
    {
      "constant": false,
      "inputs": [
        {
          "name": "_name",
          "type": "string"
        },
        {
          "name": "_insurerID",
          "type": "bytes32"
        }
      ],
      "name": "addProvider",
      "outputs": [
        {
          "name": "pID",
          "type": "bytes32"
        }
      ],
      "payable": false,
      "stateMutability": "nonpayable",
      "type": "function",
      "signature": "0x3e7e072e"
    },
    {
      "constant": false,
      "inputs": [
        {
          "name": "_name",
          "type": "string"
        }
      ],
      "name": "addInsurer",
      "outputs": [
        {
          "name": "pID",
          "type": "bytes32"
        }
      ],
      "payable": false,
      "stateMutability": "nonpayable",
      "type": "function",
      "signature": "0xdd238925"
    },
    {
      "constant": false,
      "inputs": [
        {
          "name": "_name",
          "type": "string"
        },
        {
          "name": "_providerID",
          "type": "bytes32"
        },
        {
          "name": "_patientID",
          "type": "bytes32"
        }
      ],
      "name": "newServiceClaim",
      "outputs": [
        {
          "name": "serviceContractHash",
          "type": "bytes32"
        }
      ],
      "payable": false,
      "stateMutability": "nonpayable",
      "type": "function",
      "signature": "0xd23c7c5d"
    },
    {
      "constant": false,
      "inputs": [
        {
          "name": "_serviceClaimID",
          "type": "bytes32"
        },
        {
          "name": "_amount",
          "type": "uint256"
        }
      ],
      "name": "addClaim",
      "outputs": [
        {
          "name": "ClaimID",
          "type": "uint256"
        }
      ],
      "payable": false,
      "stateMutability": "nonpayable",
      "type": "function",
      "signature": "0x01f92fc9"
    },
    {
      "constant": false,
      "inputs": [
        {
          "name": "_serviceClaimID",
          "type": "bytes32"
        }
      ],
      "name": "verifyClaim",
      "outputs": [],
      "payable": false,
      "stateMutability": "nonpayable",
      "type": "function",
      "signature": "0x35b73510"
    },
    {
      "constant": false,
      "inputs": [
        {
          "name": "_id",
          "type": "bytes32"
        }
      ],
      "name": "insurerUnpaidClaims",
      "outputs": [],
      "payable": false,
      "stateMutability": "nonpayable",
      "type": "function",
      "signature": "0x34340858"
    },
    {
      "constant": false,
      "inputs": [
        {
          "name": "_id",
          "type": "bytes32"
        }
      ],
      "name": "providerUnpaidClaims",
      "outputs": [],
      "payable": false,
      "stateMutability": "nonpayable",
      "type": "function",
      "signature": "0xde46d100"
    },
    {
      "constant": false,
      "inputs": [
        {
          "name": "_id",
          "type": "bytes32"
        }
      ],
      "name": "providerPaidClaims",
      "outputs": [],
      "payable": false,
      "stateMutability": "nonpayable",
      "type": "function",
      "signature": "0x4c222039"
    },
    {
      "constant": false,
      "inputs": [
        {
          "name": "_id",
          "type": "bytes32"
        }
      ],
      "name": "patientsOfProvider",
      "outputs": [
        {
          "name": "",
          "type": "bytes32[]"
        }
      ],
      "payable": false,
      "stateMutability": "nonpayable",
      "type": "function",
      "signature": "0xa46bfff9"
    },
    {
      "constant": false,
      "inputs": [
        {
          "name": "_id",
          "type": "bytes32"
        }
      ],
      "name": "providersOfInsurer",
      "outputs": [
        {
          "name": "",
          "type": "bytes32[]"
        }
      ],
      "payable": false,
      "stateMutability": "nonpayable",
      "type": "function",
      "signature": "0x9c860b8a"
    },
    {
      "constant": false,
      "inputs": [
        {
          "name": "_id",
          "type": "bytes32"
        }
      ],
      "name": "patientUnverifiedServices",
      "outputs": [
        {
          "name": "",
          "type": "address[]"
        }
      ],
      "payable": false,
      "stateMutability": "nonpayable",
      "type": "function",
      "signature": "0xef5bff9e"
    },
    {
      "constant": false,
      "inputs": [
        {
          "name": "_id",
          "type": "bytes32"
        }
      ],
      "name": "patientVerifiedServices",
      "outputs": [
        {
          "name": "",
          "type": "address[]"
        }
      ],
      "payable": false,
      "stateMutability": "nonpayable",
      "type": "function",
      "signature": "0xebc3a05b"
    }
  ],
  "bytecode": "0x608060405234801561001057600080fd5b50611a75806100206000396000f3fe60806040523480156200001157600080fd5b506004361062000141576000357c010000000000000000000000000000000000000000000000000000000090048063740044b411620000ce578063d23c7c5d1162000098578063d23c7c5d146200028b578063dd23892514620002a2578063de46d10014620001c2578063ebc3a05b14620002b9578063ef5bff9e14620002df5762000141565b8063740044b4146200022057806392398fbb14620002375780639c860b8a146200024e578063a46bfff914620002745762000141565b806335b73510116200011057806335b7351014620001db57806339160aa714620001f25780633e7e072e14620002095780634c22203914620001c25762000141565b806301f92fc914620001465780632470d25e14620001755780632bde2a86146200019b5780633434085814620001c2575b600080fd5b6200015d62000157366004620010c9565b620002f6565b6040516200016c919062001561565b60405180910390f35b6200018c62000186366004620010a8565b620003ee565b6040516200016c919062001505565b620001b2620001ac366004620010a8565b62000409565b6040516200016c929190620015dc565b620001d9620001d3366004620010a8565b620004b4565b005b620001d9620001ec366004620010a8565b620004b7565b620001b262000203366004620010a8565b620005b0565b6200015d6200021a36600462001141565b62000625565b6200015d6200023136600462001141565b6200073c565b620001b262000248366004620010a8565b6200087a565b620002656200025f366004620010a8565b620008ed565b6040516200016c91906200153b565b6200026562000285366004620010a8565b6200099a565b6200015d6200029c3660046200117b565b620009e2565b6200015d620002b336600462001108565b62000b2e565b620002d0620002ca366004620010a8565b62000c18565b6040516200016c919062001515565b620002d0620002f0366004620010a8565b62000cce565b6000828152600560205260408082205490517f745c25f6000000000000000000000000000000000000000000000000000000008152600160a060020a03909116908290829063745c25f6906200035190879060040162001561565b602060405180830381600087803b1580156200036c57600080fd5b505af115801562000381573d6000803e3d6000fd5b505050506040513d601f19601f82011682018060405250620003a79190810190620011e7565b90507f96e3875898071e5d91932eb150a3914f9fe70e473f6faeaad697e99a48937c9c8185604051620003dc92919062001612565b60405180910390a19150505b92915050565b600560205260009081526040902054600160a060020a031681565b6003602090815260009182526040918290208054600180830180548651600293821615610100026000190190911692909204601f810186900486028301860190965285825291949293909290830182828015620004aa5780601f106200047e57610100808354040283529160200191620004aa565b820191906000526020600020905b8154815290600101906020018083116200048c57829003601f168201915b5050505050905082565b50565b60008181526005602090815260408083205481517f844cdf090000000000000000000000000000000000000000000000000000000081529151600160a060020a0390911693849363844cdf09936004808201949293918390030190829087803b1580156200052457600080fd5b505af115801562000539573d6000803e3d6000fd5b505050506040513d601f19601f820116820180604052506200055f91908101906200107f565b620005a1576040517f08c379a0000000000000000000000000000000000000000000000000000000008152600401620005989062001600565b60405180910390fd5b620005ac8162000d83565b5050565b6004602090815260009182526040918290208054600180830180548651600293821615610100026000190190911692909204601f810186900486028301860190965285825291949293909290830182828015620004aa5780601f106200047e57610100808354040283529160200191620004aa565b600080836040516020016200063b9190620014be565b60405160208183030381529060405280519060200120905060606200065f62000e16565b50604080516060810182528381526020808201888152828401859052600086815260038352939093208251815592518051929384939092620006a992600185019291019062000e3a565b5060408201518051620006c791600284019160209091019062000ebf565b50505060008581526004602090815260408083208451600290910180546001810182559085529290932090910191909155517f7dd222c7de5c7ba42d121aa7e2acc9d5d4a47c2eb31f55385cf51cbe459c5c9b906200072a9085908990620015dc565b60405180910390a15090949350505050565b60008083604051602001620007529190620014be565b6040516020818303038152906040528051906020012090506060806200077762000efc565b5060408051608081018252848152602080820189815282840186905260608301859052600087815260028352939093208251815592518051929384939092620007c892600185019291019062000e3a565b5060408201518051620007e691600284019160209091019062000f27565b50606082015180516200080491600384019160209091019062000f27565b50505060008681526003602090815260408083208451600290910180546001810182559085529290932090910191909155517f86ec8adc6f97da0327b3e1dcc24fa25aea5eb7afcf6af08792e4b2d4d799fad890620008679086908a90620015dc565b60405180910390a1509195945050505050565b60026020818152600092835260409283902080546001808301805487519281161561010002600019011695909504601f8101859004850282018501909652858152909491939092909190830182828015620004aa5780601f106200047e57610100808354040283529160200191620004aa565b600081815260046020526040908190209051606091907f1c7aaf504355c6134470b4070ca50bf276d45d0205aa86ef6bd15c684ae710c490620009359060028401906200154e565b60405180910390a1806002018054806020026020016040519081016040528092919081815260200182805480156200098d57602002820191906000526020600020905b81548152602001906001019080831162000978575b5050505050915050919050565b600081815260036020526040908190209051606091907f1c7aaf504355c6134470b4070ca50bf276d45d0205aa86ef6bd15c684ae710c490620009359060028401906200154e565b600080848484604051602001620009fc93929190620014cc565b60405160208183030381529060405280519060200120905060008484838860405162000a289062000f9a565b62000a37949392919062001590565b604051809103906000f08015801562000a54573d6000803e3d6000fd5b50905060008160405160200162000a6c9190620014a7565b60408051601f1981840301815282825280516020918201206000818152600583528381208054600160a060020a03891673ffffffffffffffffffffffffffffffffffffffff1991821681179092558b8352600280865295832095860180546001810182559084529490922090930180549091169092179091559250907f2cdb195d7226065901c0e37d742237ac3e30d6dc0ce7faf49701f6ec9f0bd1ed9062000b19908490869062001571565b60405180910390a150925050505b9392505050565b6000808260405160200162000b449190620014be565b604051602081830303815290604052805190602001209050606062000b6862000e16565b5060408051606081018252838152602080820187815282840185905260008681526004835293909320825181559251805192938493909262000bb292600185019291019062000e3a565b506040820151805162000bd091600284019160209091019062000ebf565b509050507ff73cee28a98c20f23a903356ab57dc8c514e66b0488c994b09dec06f978c839b838660405162000c07929190620015dc565b60405180910390a150909392505050565b600081815260026020526040908190209051606091907fa1c275d9147cd4bbf3a6fc6b01df2bdad7272d62a5bea8ea5f90e20e7c3f48e99062000c6090600384019062001528565b60405180910390a1806003018054806020026020016040519081016040528092919081815260200182805480156200098d57602002820191906000526020600020905b8154600160a060020a0316815260019091019060200180831162000ca3575050505050915050919050565b6000818152600260208190526040918290209151606092917fa1c275d9147cd4bbf3a6fc6b01df2bdad7272d62a5bea8ea5f90e20e7c3f48e99162000d169184019062001528565b60405180910390a1806002018054806020026020016040519081016040528092919081815260200182805480156200098d57602002820191906000526020600020908154600160a060020a0316815260019091019060200180831162000ca3575050505050915050919050565b80600160a060020a03166398d6a3736040518163ffffffff167c0100000000000000000000000000000000000000000000000000000000028152600401602060405180830381600087803b15801562000ddb57600080fd5b505af115801562000df0573d6000803e3d6000fd5b505050506040513d601f19601f82011682018060405250620005ac91908101906200107f565b60405180606001604052806000801916815260200160608152602001606081525090565b828054600181600116156101000203166002900490600052602060002090601f016020900481019282601f1062000e7d57805160ff191683800117855562000ead565b8280016001018555821562000ead579182015b8281111562000ead57825182559160200191906001019062000e90565b5062000ebb92915062000fa8565b5090565b82805482825590600052602060002090810192821562000ead579160200282018281111562000ead57825182559160200191906001019062000e90565b6040518060800160405280600080191681526020016060815260200160608152602001606081525090565b82805482825590600052602060002090810192821562000f8c579160200282015b8281111562000f8c578251825473ffffffffffffffffffffffffffffffffffffffff1916600160a060020a0390911617825560209092019160019091019062000f48565b5062000ebb92915062000fc8565b61028f80620017a483390190565b62000fc591905b8082111562000ebb576000815560010162000faf565b90565b62000fc591905b8082111562000ebb57805473ffffffffffffffffffffffffffffffffffffffff1916815560010162000fcf565b8051620003e88162001781565b8035620003e88162001798565b600082601f8301126200102857600080fd5b81356200103f620010398262001659565b62001631565b915080825260208301602083018583830111156200105c57600080fd5b62001069838284620016ce565b50505092915050565b8051620003e88162001798565b6000602082840312156200109257600080fd5b6000620010a0848462000ffc565b949350505050565b600060208284031215620010bb57600080fd5b6000620010a0848462001009565b60008060408385031215620010dd57600080fd5b6000620010eb858562001009565b9250506020620010fe8582860162001009565b9150509250929050565b6000602082840312156200111b57600080fd5b813567ffffffffffffffff8111156200113357600080fd5b620010a08482850162001016565b600080604083850312156200115557600080fd5b823567ffffffffffffffff8111156200116d57600080fd5b620010eb8582860162001016565b6000806000606084860312156200119157600080fd5b833567ffffffffffffffff811115620011a957600080fd5b620011b78682870162001016565b9350506020620011ca8682870162001009565b9250506040620011dd8682870162001009565b9150509250925092565b600060208284031215620011fa57600080fd5b6000620010a0848462001072565b60006200121683836200122c565b505060200190565b6000620012168383620013d7565b6200123781620016bc565b82525050565b620012376200124c82620016bc565b62001735565b60006200125f8262001694565b6200126b8185620016a2565b9350620012788362001682565b8060005b83811015620012ac57815162001293888262001208565b9750620012a08362001682565b9250506001016200127c565b509495945050505050565b6000620012c48262001698565b620012d08185620016a2565b9350620012dd8362001688565b8060005b83811015620012ac57620012f58262001749565b62001301888262001208565b97506200130e836200169c565b925050600101620012e1565b6000620013278262001694565b620013338185620016a2565b9350620013408362001682565b8060005b83811015620012ac5781516200135b88826200121e565b9750620013688362001682565b92505060010162001344565b6000620013818262001698565b6200138d8185620016a2565b93506200139a8362001688565b8060005b83811015620012ac57620013b28262001757565b620013be88826200121e565b9750620013cb836200169c565b9250506001016200139e565b620012378162000fc5565b62001237620013f18262000fc5565b62000fc5565b6000620014048262001694565b620014108185620016a2565b935062001422818560208601620016da565b6200142d8162001765565b9093019392505050565b6000620014448262001694565b620014508185620016ab565b935062001462818560208601620016da565b9290920192915050565b60006200147b601683620016a2565b7f436c61696d20776173206e6f7420766572696669656400000000000000000000815260200192915050565b6000620014b582846200123d565b50601401919050565b600062000b27828462001437565b6000620014da828662001437565b9150620014e88285620013e2565b602082019150620014fa8284620013e2565b506020019392505050565b60208101620003e882846200122c565b6020808252810162000b27818462001252565b6020808252810162000b278184620012b7565b6020808252810162000b2781846200131a565b6020808252810162000b27818462001374565b60208101620003e88284620013d7565b60408101620015818285620013d7565b62000b2760208301846200122c565b60808101620015a08287620013d7565b620015af6020830186620013d7565b620015be6040830185620013d7565b8181036060830152620015d28184620013f7565b9695505050505050565b60408101620015ec8285620013d7565b8181036020830152620010a08184620013f7565b60208082528101620003e8816200146c565b60408101620016228285620013d7565b62000b276020830184620013d7565b60405181810167ffffffffffffffff811182821017156200165157600080fd5b604052919050565b600067ffffffffffffffff8211156200167157600080fd5b506020601f91909101601f19160190565b60200190565b60009081526020902090565b5190565b5490565b60010190565b90815260200190565b919050565b600160a060020a031690565b6000620003e882620016b0565b151590565b82818337506000910152565b60005b83811015620016f7578181015183820152602001620016dd565b8381111562001707576000848401525b50505050565b6000620003e86200171e8362000fc5565b620016b0565b6000620003e8620013f18362000fc5565b6000620003e8826000620003e8826200176f565b6000620003e882546200170d565b6000620003e8825462001724565b601f01601f191690565b6c010000000000000000000000000290565b6200178c81620016c9565b8114620004b457600080fd5b6200178c8162000fc556fe608060405234801561001057600080fd5b5060405161028f38038061028f8339818101604052608081101561003357600080fd5b815160208301516040840151606085018051939592949193918301929164010000000081111561006257600080fd5b8201602081018481111561007557600080fd5b815164010000000081118282018710171561008f57600080fd5b505060018790556002869055600385905580519093506100b892506004915060208401906100c2565b505050505061015d565b828054600181600116156101000203166002900490600052602060002090601f016020900481019282601f1061010357805160ff1916838001178555610130565b82800160010185558215610130579182015b82811115610130578251825591602001919060010190610115565b5061013c929150610140565b5090565b61015a91905b8082111561013c5760008155600101610146565b90565b6101238061016c6000396000f3fe6080604052348015600f57600080fd5b50600436106062577c01000000000000000000000000000000000000000000000000000000006000350463745c25f681146067578063844cdf0914609357806398d6a3731460ad578063d321fe291460b3575b600080fd5b608160048036036020811015607b57600080fd5b503560b9565b60408051918252519081900360200190f35b609960c1565b604080519115158252519081900360200190f35b609960d4565b608160e8565b600581905590565b6006805460ff1916600190811790915590565b6006805461ff001916610100179055600190565b6005549056fea265627a7a723058207bc6221471501376ac1dde6d21648ee9e3378a63634d2a4ff4b96324fd2b066564736f6c634300050a0032a365627a7a72305820ed89f4ecbc749ea7e226ed29775614a653aadac1d92bab0eb869b7dea62f41366c6578706572696d656e74616cf564736f6c634300050a0040",
  "source": "pragma solidity ^0.5.0;\npragma experimental ABIEncoderV2;\n\n\nimport \"./SafeMath.sol\";\nimport \"./ServiceClaim.sol\";\n\ncontract Organizations {\n\n    uint256 claimId; //Max value of the number of claims made\n    uint storedData; //Miscellaneous data\n\n    mapping (bytes32=>Patient) public patientMap; //ID of patient to specific provider -\n    mapping (bytes32=>Provider) public providerMap; //ID of provider to specific provider -\n    mapping (bytes32=>Insurer) public insurerMap; //ID of insurance provider to specific insurer\n    mapping (bytes32=>address) public serviceClaimsMap; //ID of serviceClaim to the specific ServiceClaim contract instance\n\n    //Events for organization creation    event ServiceCreated(address serviceClaimAddr);\n    event SCID(bytes32 ID, address addr);\n    event ClaimCreated(uint256 id, uint256 amount);\n    event PatientCreated(bytes32 id, string name);\n    event ProviderCreated(bytes32 id, string name);\n    event InsurerCreated(bytes32 id, string name);\n\n\n    //event patientList(Patient[] patients);\n    //event providerList(Provider[] providers);\n    //event insurerList(Insurer[] insurers);\n\n    event idList(bytes32[] ids);\n    event serviceList(address[] services);\n\n    struct Patient {\n        bytes32 id;\n        string name;\n        address[] unverifiedServiceClaims;\n        address[] verifiedServiceClaims;\n    }\n\n    struct Provider {\n        bytes32 id;\n        string name;\n        bytes32[] patients;\n    }\n\n    struct Insurer {\n        bytes32 id;\n        string name;\n        bytes32[] providers;\n    }\n\n    // ------------------------------ Adds Users to Network --------------------------- //\n\n    /** @dev add a patient to the network\n    @param _name is the name of the patient\n    @param _providerID is the current provider of the patient\n    @return pID is a bytes32 represented id number for the patient\n    */\n    function addPatient(string memory _name, bytes32 _providerID) public returns(bytes32 pID) {\n        bytes32 id = keccak256(abi.encodePacked(_name));\n        address[] memory uClaimList;\n        address[] memory vClaimList;\n        Patient memory newPatient = Patient(id, _name, uClaimList, vClaimList);\n        //bytes32 patientHash = keccak256(abi.encodePacked(newPatient));\n        patientMap[id] = newPatient;\n        providerMap[_providerID].patients.push(newPatient.id);\n        emit PatientCreated(id, _name);\n        return id;\n    }\n\n    /** @dev add a provider to the network\n    @param _name name of the provider\n    @param _insurerID id of insurance provider\n    @return the pID of the health provider -\n     */\n    function addProvider(string memory _name, bytes32 _insurerID) public returns(bytes32 pID) {\n        bytes32 id = keccak256(abi.encodePacked(_name));\n        bytes32[] memory emptyList;\n        Provider memory newProvider = Provider(id, _name, emptyList);\n        //bytes32 providerHash = keccak256(abi.encodePacked(newProvider));\n        providerMap[id] = newProvider;\n        insurerMap[_insurerID].providers.push(newProvider.id);\n        emit ProviderCreated(id, _name);\n        return id;\n    }\n\n    /** @dev add an insurnace provider to the network\n    @param _name the name of the insurance provider\n    @return pID of the insurance provider\n    */\n    function addInsurer(string memory _name) public returns(bytes32 pID) {\n        bytes32 id = keccak256(abi.encodePacked(_name));\n        bytes32[] memory emptyList;\n        Insurer memory newInsurer = Insurer(id, _name, emptyList);\n        //bytes32 insurerHash = keccak256(abi.encodePacked(newInsurer));\n        insurerMap[id] = newInsurer;\n        emit InsurerCreated(id, _name);\n        return id;\n    }\n\n    // ------------------------------ Functionality of the Network --------------------------- //\n\n    /** @dev create an instance of a ServiceClaim contract\n    @param _name name of the service\n    @param _providerID provider ID\n    @param _patientID patient ID\n    @return serviceContractHash is the id of the ServiceClaim contract\n    */\n    function newServiceClaim(string memory _name, bytes32 _providerID, bytes32 _patientID) public returns(bytes32 serviceContractHash) {\n        bytes32 id = keccak256(abi.encodePacked(_name, _providerID, _patientID));\n        ServiceClaim serviceClaim = new ServiceClaim(_providerID, _patientID, id, _name);\n        bytes32 serviceClaimID = keccak256(abi.encodePacked(address(serviceClaim)));\n        serviceClaimsMap[serviceClaimID] = address(serviceClaim);\n        Patient storage patient = patientMap[_patientID];\n        patient.unverifiedServiceClaims.push(address(serviceClaim));\n        emit SCID(serviceClaimID, address(serviceClaim));\n        return serviceClaimID;\n    }\n\n    /** @dev add a claim to a ServiceClaim contract i.e. the provider wants to file a claim for a service rendered\n    @param _serviceClaimID the ID of the ServiceClaim contract\n    @param _amount the amount to be claimed by the provider\n    @return ClaimID the ID of the claim\n    */\n    function addClaim(bytes32 _serviceClaimID, uint256 _amount) public returns(uint256 ClaimID) {\n        //Patient storage cPatient = patientMap[_patient];\n        ServiceClaim myServiceClaim = ServiceClaim(serviceClaimsMap[_serviceClaimID]);\n        uint256 newClaimID = myServiceClaim.addClaim(_amount);\n        emit ClaimCreated(newClaimID, _amount);\n        return newClaimID;\n    }\n\n    \n    /** @dev invoke the verifyClaim function in the ServiceClaim contract\n    @param _serviceClaimID the id of the ServiceClaim contract\n    */\n    function verifyClaim(bytes32 _serviceClaimID) public {\n        ServiceClaim myServiceClaim = ServiceClaim(serviceClaimsMap[_serviceClaimID]);\n        require(myServiceClaim.verifyClaim(), \"Claim was not verified\");\n        payProvider(myServiceClaim);\n    }\n\n    /** @dev invoke the payProvider function in the ServiceClaim contract, may only be called from within Organizations.sol\n    @param _serviceClaim an instance of the ServiceClaim contract\n    */\n    function payProvider(ServiceClaim _serviceClaim) internal {\n        //require(_serviceClaim.claim().verified == true, \"User has not verified service\");\n        _serviceClaim.payProvider();\n    }\n\n\n\n    // ------------------------------ Getters of Network Data --------------------------- //\n\n    function insurerUnpaidClaims(bytes32 _id) public {\n\n    }\n\n    function providerUnpaidClaims(bytes32 _id) public {\n\n    }\n\n     function providerPaidClaims(bytes32 _id) public {\n        \n    }\n\n    function patientsOfProvider(bytes32 _id) public returns (bytes32[] memory) {\n        Provider storage cP = providerMap[_id];\n        emit idList(cP.patients);\n        return(cP.patients);\n    }\n\n    function providersOfInsurer(bytes32 _id) public returns (bytes32[] memory) {\n        Insurer storage cI = insurerMap[_id];\n        emit idList(cI.providers);\n        return(cI.providers);\n    }\n\n    function patientUnverifiedServices(bytes32 _id) public returns (address[] memory){\n        Patient storage cP = patientMap[_id];\n        emit serviceList(cP.unverifiedServiceClaims);\n        return(cP.unverifiedServiceClaims);\n    }\n\n    function patientVerifiedServices(bytes32 _id) public returns (address[] memory){\n        Patient storage cP = patientMap[_id];\n        emit serviceList(cP.verifiedServiceClaims);\n        return(cP.verifiedServiceClaims);\n    }\n\n\n\n}",
  "sourcePath": "/Users/kenmiyachi/BlockLAB/Medicare-Claim-Verification/contracts/Organizations.sol",
  "compiler": {
    "name": "solc",
    "version": "0.5.10+commit.5a6ea5b1.Emscripten.clang"
  },
  "schemaVersion": "3.0.8",
  "updatedAt": "2019-07-26T22:13:51.470Z",
  "devdoc": {
    "methods": {
      "addClaim(bytes32,uint256)": {
        "details": "add a claim to a ServiceClaim contract i.e. the provider wants to file a claim for a service rendered",
        "params": {
          "_amount": "the amount to be claimed by the provider",
          "_serviceClaimID": "the ID of the ServiceClaim contract"
        },
        "return": "ClaimID the ID of the claim"
      },
      "addInsurer(string)": {
        "details": "add an insurnace provider to the network",
        "params": {
          "_name": "the name of the insurance provider"
        },
        "return": "pID of the insurance provider"
      },
      "addPatient(string,bytes32)": {
        "details": "add a patient to the network",
        "params": {
          "_name": "is the name of the patient",
          "_providerID": "is the current provider of the patient"
        },
        "return": "pID is a bytes32 represented id number for the patient"
      },
      "addProvider(string,bytes32)": {
        "details": "add a provider to the network",
        "params": {
          "_insurerID": "id of insurance provider",
          "_name": "name of the provider"
        },
        "return": "the pID of the health provider -"
      },
      "newServiceClaim(string,bytes32,bytes32)": {
        "details": "create an instance of a ServiceClaim contract",
        "params": {
          "_name": "name of the service",
          "_patientID": "patient ID",
          "_providerID": "provider ID"
        },
        "return": "serviceContractHash is the id of the ServiceClaim contract"
      },
      "verifyClaim(bytes32)": {
        "details": "invoke the verifyClaim function in the ServiceClaim contract",
        "params": {
          "_serviceClaimID": "the id of the ServiceClaim contract"
        }
      }
    }
  },
  "userdoc": {
    "methods": {}
  }
}