{
  "contractName": "Organizations",
  "abi": [
    {
      "constant": true,
      "inputs": [
        {
          "internalType": "bytes32",
          "name": "",
          "type": "bytes32"
        }
      ],
      "name": "serviceClaimsMap",
      "outputs": [
        {
          "internalType": "address",
          "name": "",
          "type": "address"
        }
      ],
      "payable": false,
      "stateMutability": "view",
      "type": "function"
    },
    {
      "constant": true,
      "inputs": [
        {
          "internalType": "bytes32",
          "name": "",
          "type": "bytes32"
        }
      ],
      "name": "providerMap",
      "outputs": [
        {
          "internalType": "bytes32",
          "name": "id",
          "type": "bytes32"
        },
        {
          "internalType": "string",
          "name": "name",
          "type": "string"
        }
      ],
      "payable": false,
      "stateMutability": "view",
      "type": "function"
    },
    {
      "constant": true,
      "inputs": [
        {
          "internalType": "address",
          "name": "",
          "type": "address"
        }
      ],
      "name": "serviceName",
      "outputs": [
        {
          "internalType": "string",
          "name": "",
          "type": "string"
        }
      ],
      "payable": false,
      "stateMutability": "view",
      "type": "function"
    },
    {
      "constant": true,
      "inputs": [
        {
          "internalType": "bytes32",
          "name": "",
          "type": "bytes32"
        }
      ],
      "name": "insurerMap",
      "outputs": [
        {
          "internalType": "bytes32",
          "name": "id",
          "type": "bytes32"
        },
        {
          "internalType": "string",
          "name": "name",
          "type": "string"
        }
      ],
      "payable": false,
      "stateMutability": "view",
      "type": "function"
    },
    {
      "constant": true,
      "inputs": [
        {
          "internalType": "bytes32",
          "name": "",
          "type": "bytes32"
        }
      ],
      "name": "patientMap",
      "outputs": [
        {
          "internalType": "bytes32",
          "name": "id",
          "type": "bytes32"
        },
        {
          "internalType": "string",
          "name": "name",
          "type": "string"
        }
      ],
      "payable": false,
      "stateMutability": "view",
      "type": "function"
    },
    {
      "inputs": [],
      "payable": false,
      "stateMutability": "nonpayable",
      "type": "constructor"
    },
    {
      "anonymous": false,
      "inputs": [
        {
          "indexed": false,
          "internalType": "bytes32",
          "name": "ID",
          "type": "bytes32"
        },
        {
          "indexed": false,
          "internalType": "address",
          "name": "addr",
          "type": "address"
        }
      ],
      "name": "SCID",
      "type": "event"
    },
    {
      "anonymous": false,
      "inputs": [
        {
          "indexed": false,
          "internalType": "uint256",
          "name": "id",
          "type": "uint256"
        },
        {
          "indexed": false,
          "internalType": "uint256",
          "name": "amount",
          "type": "uint256"
        }
      ],
      "name": "ClaimCreated",
      "type": "event"
    },
    {
      "anonymous": false,
      "inputs": [
        {
          "indexed": false,
          "internalType": "bytes32",
          "name": "id",
          "type": "bytes32"
        }
      ],
      "name": "ClaimVerified",
      "type": "event"
    },
    {
      "anonymous": false,
      "inputs": [
        {
          "indexed": false,
          "internalType": "bytes32",
          "name": "id",
          "type": "bytes32"
        },
        {
          "indexed": false,
          "internalType": "string",
          "name": "name",
          "type": "string"
        }
      ],
      "name": "PatientCreated",
      "type": "event"
    },
    {
      "anonymous": false,
      "inputs": [
        {
          "indexed": false,
          "internalType": "bytes32",
          "name": "id",
          "type": "bytes32"
        },
        {
          "indexed": false,
          "internalType": "string",
          "name": "name",
          "type": "string"
        }
      ],
      "name": "ProviderCreated",
      "type": "event"
    },
    {
      "anonymous": false,
      "inputs": [
        {
          "indexed": false,
          "internalType": "bytes32",
          "name": "id",
          "type": "bytes32"
        },
        {
          "indexed": false,
          "internalType": "string",
          "name": "name",
          "type": "string"
        }
      ],
      "name": "InsurerCreated",
      "type": "event"
    },
    {
      "anonymous": false,
      "inputs": [
        {
          "components": [
            {
              "internalType": "bytes32",
              "name": "id",
              "type": "bytes32"
            },
            {
              "internalType": "string",
              "name": "name",
              "type": "string"
            },
            {
              "internalType": "address[]",
              "name": "unclaimedServices",
              "type": "address[]"
            },
            {
              "internalType": "address[]",
              "name": "unverifiedClaims",
              "type": "address[]"
            },
            {
              "internalType": "address[]",
              "name": "verifiedClaims",
              "type": "address[]"
            }
          ],
          "indexed": false,
          "internalType": "struct Organizations.Patient",
          "name": "patient",
          "type": "tuple"
        }
      ],
      "name": "PatientRetrieval",
      "type": "event"
    },
    {
      "anonymous": false,
      "inputs": [
        {
          "components": [
            {
              "internalType": "bytes32",
              "name": "id",
              "type": "bytes32"
            },
            {
              "internalType": "string",
              "name": "name",
              "type": "string"
            },
            {
              "internalType": "bytes32[]",
              "name": "patients",
              "type": "bytes32[]"
            }
          ],
          "indexed": false,
          "internalType": "struct Organizations.Provider",
          "name": "provider",
          "type": "tuple"
        }
      ],
      "name": "ProviderRetrieval",
      "type": "event"
    },
    {
      "anonymous": false,
      "inputs": [
        {
          "indexed": false,
          "internalType": "bytes32[]",
          "name": "ids",
          "type": "bytes32[]"
        }
      ],
      "name": "idList",
      "type": "event"
    },
    {
      "anonymous": false,
      "inputs": [
        {
          "indexed": false,
          "internalType": "address[]",
          "name": "services",
          "type": "address[]"
        }
      ],
      "name": "serviceList",
      "type": "event"
    },
    {
      "anonymous": false,
      "inputs": [
        {
          "indexed": false,
          "internalType": "string",
          "name": "name",
          "type": "string"
        }
      ],
      "name": "SCName",
      "type": "event"
    },
    {
      "anonymous": false,
      "inputs": [
        {
          "components": [
            {
              "internalType": "string",
              "name": "name",
              "type": "string"
            },
            {
              "internalType": "address",
              "name": "addr",
              "type": "address"
            }
          ],
          "indexed": false,
          "internalType": "struct Organizations.SC",
          "name": "",
          "type": "tuple"
        }
      ],
      "name": "SCEvent",
      "type": "event"
    },
    {
      "constant": false,
      "inputs": [],
      "name": "preLoadInfo",
      "outputs": [],
      "payable": false,
      "stateMutability": "nonpayable",
      "type": "function"
    },
    {
      "constant": false,
      "inputs": [
        {
          "internalType": "string",
          "name": "_name",
          "type": "string"
        },
        {
          "internalType": "bytes32",
          "name": "_providerID",
          "type": "bytes32"
        }
      ],
      "name": "addPatient",
      "outputs": [
        {
          "internalType": "bytes32",
          "name": "pID",
          "type": "bytes32"
        }
      ],
      "payable": false,
      "stateMutability": "nonpayable",
      "type": "function"
    },
    {
      "constant": false,
      "inputs": [
        {
          "internalType": "string",
          "name": "_name",
          "type": "string"
        },
        {
          "internalType": "bytes32",
          "name": "_insurerID",
          "type": "bytes32"
        }
      ],
      "name": "addProvider",
      "outputs": [
        {
          "internalType": "bytes32",
          "name": "pID",
          "type": "bytes32"
        }
      ],
      "payable": false,
      "stateMutability": "nonpayable",
      "type": "function"
    },
    {
      "constant": false,
      "inputs": [
        {
          "internalType": "string",
          "name": "_name",
          "type": "string"
        }
      ],
      "name": "addInsurer",
      "outputs": [
        {
          "internalType": "bytes32",
          "name": "pID",
          "type": "bytes32"
        }
      ],
      "payable": false,
      "stateMutability": "nonpayable",
      "type": "function"
    },
    {
      "constant": false,
      "inputs": [
        {
          "internalType": "string",
          "name": "_name",
          "type": "string"
        },
        {
          "internalType": "bytes32",
          "name": "_providerID",
          "type": "bytes32"
        },
        {
          "internalType": "bytes32",
          "name": "_patientID",
          "type": "bytes32"
        }
      ],
      "name": "provideService",
      "outputs": [
        {
          "internalType": "bytes32",
          "name": "serviceContractHash",
          "type": "bytes32"
        }
      ],
      "payable": false,
      "stateMutability": "nonpayable",
      "type": "function"
    },
    {
      "constant": false,
      "inputs": [
        {
          "internalType": "bytes32",
          "name": "_serviceClaimID",
          "type": "bytes32"
        },
        {
          "internalType": "uint256",
          "name": "_amount",
          "type": "uint256"
        }
      ],
      "name": "fileClaim",
      "outputs": [
        {
          "internalType": "uint256",
          "name": "ClaimID",
          "type": "uint256"
        }
      ],
      "payable": false,
      "stateMutability": "nonpayable",
      "type": "function"
    },
    {
      "constant": false,
      "inputs": [
        {
          "internalType": "bytes32",
          "name": "_serviceClaimID",
          "type": "bytes32"
        }
      ],
      "name": "verifyClaim",
      "outputs": [],
      "payable": false,
      "stateMutability": "nonpayable",
      "type": "function"
    },
    {
      "constant": false,
      "inputs": [
        {
          "internalType": "bytes32",
          "name": "_serviceClaimID",
          "type": "bytes32"
        }
      ],
      "name": "payProvider",
      "outputs": [],
      "payable": false,
      "stateMutability": "nonpayable",
      "type": "function"
    },
    {
      "constant": false,
      "inputs": [
        {
          "internalType": "bytes32",
          "name": "_id",
          "type": "bytes32"
        }
      ],
      "name": "patientsOfProvider",
      "outputs": [
        {
          "internalType": "bytes32[]",
          "name": "",
          "type": "bytes32[]"
        }
      ],
      "payable": false,
      "stateMutability": "nonpayable",
      "type": "function"
    },
    {
      "constant": false,
      "inputs": [
        {
          "internalType": "bytes32",
          "name": "_id",
          "type": "bytes32"
        }
      ],
      "name": "providersOfInsurer",
      "outputs": [
        {
          "internalType": "bytes32[]",
          "name": "",
          "type": "bytes32[]"
        }
      ],
      "payable": false,
      "stateMutability": "nonpayable",
      "type": "function"
    },
    {
      "constant": false,
      "inputs": [
        {
          "internalType": "bytes32",
          "name": "_id",
          "type": "bytes32"
        }
      ],
      "name": "getPatient",
      "outputs": [
        {
          "internalType": "bool",
          "name": "",
          "type": "bool"
        }
      ],
      "payable": false,
      "stateMutability": "nonpayable",
      "type": "function"
    },
    {
      "constant": false,
      "inputs": [
        {
          "internalType": "bytes32",
          "name": "_id",
          "type": "bytes32"
        }
      ],
      "name": "getProvider",
      "outputs": [
        {
          "components": [
            {
              "internalType": "bytes32",
              "name": "id",
              "type": "bytes32"
            },
            {
              "internalType": "string",
              "name": "name",
              "type": "string"
            },
            {
              "internalType": "bytes32[]",
              "name": "patients",
              "type": "bytes32[]"
            }
          ],
          "internalType": "struct Organizations.Provider",
          "name": "",
          "type": "tuple"
        }
      ],
      "payable": false,
      "stateMutability": "nonpayable",
      "type": "function"
    },
    {
      "constant": false,
      "inputs": [
        {
          "internalType": "bytes32",
          "name": "_id",
          "type": "bytes32"
        }
      ],
      "name": "patientUnclaimedServices",
      "outputs": [
        {
          "internalType": "address[]",
          "name": "",
          "type": "address[]"
        }
      ],
      "payable": false,
      "stateMutability": "nonpayable",
      "type": "function"
    },
    {
      "constant": false,
      "inputs": [
        {
          "internalType": "bytes32",
          "name": "_id",
          "type": "bytes32"
        }
      ],
      "name": "patientUnverifiedClaims",
      "outputs": [
        {
          "internalType": "address[]",
          "name": "",
          "type": "address[]"
        }
      ],
      "payable": false,
      "stateMutability": "nonpayable",
      "type": "function"
    },
    {
      "constant": false,
      "inputs": [
        {
          "internalType": "bytes32",
          "name": "_id",
          "type": "bytes32"
        }
      ],
      "name": "patientVerifiedClaims",
      "outputs": [
        {
          "internalType": "address[]",
          "name": "",
          "type": "address[]"
        }
      ],
      "payable": false,
      "stateMutability": "nonpayable",
      "type": "function"
    },
    {
      "constant": false,
      "inputs": [
        {
          "internalType": "uint256",
          "name": "_num",
          "type": "uint256"
        }
      ],
      "name": "setAdmin",
      "outputs": [],
      "payable": false,
      "stateMutability": "nonpayable",
      "type": "function"
    },
    {
      "constant": true,
      "inputs": [],
      "name": "getAdmin",
      "outputs": [
        {
          "internalType": "uint256",
          "name": "",
          "type": "uint256"
        }
      ],
      "payable": false,
      "stateMutability": "view",
      "type": "function"
    }
  ],
  "bytecode": "0x60806040523480156200001157600080fd5b50620000256001600160e01b036200002b16565b620007e2565b6000620000736040518060400160405280600381526020017f434d530000000000000000000000000000000000000000000000000000000000815250620001a060201b60201c565b90506000620000be6040518060400160405280600c81526020017f55435344204d65646963616c0000000000000000000000000000000000000000815250836200028a60201b60201c565b9050620001076040518060400160405280600381526020017f4b656e000000000000000000000000000000000000000000000000000000000081525082620003a160201b60201c565b5060408051808201909152600581527f44616e6e7900000000000000000000000000000000000000000000000000000060208201526200015190826001600160e01b03620003a116565b5060408051808201909152600781527f416e746f6e696f0000000000000000000000000000000000000000000000000060208201526200019b90826001600160e01b03620003a116565b505050565b60008082604051602001620001b6919062000752565b6040516020818303038152906040528051906020012090506060620001da62000507565b50604080516060810182528381526020808201878152828401859052600086815260058352939093208251815592518051929384939092620002249260018501929101906200052b565b506040820151805162000242916002840191602090910190620005b0565b509050507ff73cee28a98c20f23a903356ab57dc8c514e66b0488c994b09dec06f978c839b83866040516200027992919062000767565b60405180910390a150909392505050565b60008083604051602001620002a0919062000752565b6040516020818303038152906040528051906020012090506060620002c462000507565b506040805160608101825283815260208082018881528284018590526000868152600483529390932082518155925180519293849390926200030e9260018501929101906200052b565b50604082015180516200032c916002840191602090910190620005b0565b50505060008581526005602090815260408083208451600290910180546001810182559085529290932090910191909155517f7dd222c7de5c7ba42d121aa7e2acc9d5d4a47c2eb31f55385cf51cbe459c5c9b906200038f908590899062000767565b60405180910390a15090949350505050565b60008083604051602001620003b7919062000752565b6040516020818303038152906040528051906020012090506060806060620003de620005ed565b506040805160a08101825285815260208082018a81528284018790526060830186905260808301859052600088815260038352939093208251815592518051929384939092620004369260018501929101906200052b565b5060408201518051620004549160028401916020909101906200061f565b5060608201518051620004729160038401916020909101906200061f565b5060808201518051620004909160048401916020909101906200061f565b50505060008781526004602090815260408083208451600290910180546001810182559085529290932090910191909155517f86ec8adc6f97da0327b3e1dcc24fa25aea5eb7afcf6af08792e4b2d4d799fad890620004f39087908b9062000767565b60405180910390a150929695505050505050565b60405180606001604052806000801916815260200160608152602001606081525090565b828054600181600116156101000203166002900490600052602060002090601f016020900481019282601f106200056e57805160ff19168380011785556200059e565b828001600101855582156200059e579182015b828111156200059e57825182559160200191906001019062000581565b50620005ac92915062000685565b5090565b8280548282559060005260206000209081019282156200059e57916020028201828111156200059e57825182559160200191906001019062000581565b6040518060a0016040528060008019168152602001606081526020016060815260200160608152602001606081525090565b82805482825590600052602060002090810192821562000677579160200282015b828111156200067757825182546001600160a01b0319166001600160a01b0390911617825560209092019160019091019062000640565b50620005ac929150620006a5565b620006a291905b80821115620005ac57600081556001016200068c565b90565b620006a291905b80821115620005ac5780546001600160a01b0319168155600101620006ac565b620006d781620006a2565b82525050565b6000620006ea8262000793565b620006f6818562000797565b935062000708818560208601620007a5565b6200071381620007d8565b9093019392505050565b60006200072a8262000793565b620007368185620007a0565b935062000748818560208601620007a5565b9290920192915050565b60006200076082846200071d565b9392505050565b60408101620007778285620006cc565b81810360208301526200078b8184620006dd565b949350505050565b5190565b90815260200190565b919050565b60005b83811015620007c2578181015183820152602001620007a8565b83811115620007d2576000848401525b50505050565b601f01601f191690565b612de180620007f26000396000f3fe60806040523480156200001157600080fd5b5060043610620001605760003560e01c80636e9960c311620000c95780639c860b8a11620000875780639c860b8a1462000330578063a46bfff91462000356578063dd238925146200036d578063e0e87b1a1462000384578063ece7ac2b146200039b578063ee3d52b314620003b25762000160565b80636e9960c314620002bb578063740044b414620002c55780637899a34e14620002dc57806392398fbb14620003025780639594c99e14620003195762000160565b806333fc83f7116200012357806333fc83f7146200022d57806335b73510146200025357806339160aa7146200026c5780633e7e072e14620002835780633f1e172d146200029a57806340f1065314620002a45762000160565b8063085683ff146200016557806321dd828514620001945780632470d25e14620001ba5780632bde2a8614620001e057806333c0950a1462000207575b600080fd5b6200017c6200017636600462001f66565b620003c9565b6040516200018b919062002562565b60405180910390f35b620001ab620001a536600462001e39565b62000525565b6040516200018b919062002506565b620001d1620001cb36600462001e39565b62000668565b6040516200018b9190620024f6565b620001f7620001f136600462001e39565b62000683565b6040516200018b929190620025dd565b6200021e6200021836600462001e39565b6200072e565b6040516200018b91906200264c565b620002446200023e36600462001def565b620009d5565b6040516200018b919062002601565b6200026a6200026436600462001e39565b62000a74565b005b620001f76200027d36600462001e39565b62000d1f565b6200017c6200029436600462001f2c565b62000d94565b6200026a62000ead565b6200017c620002b536600462001e7b565b62000f8d565b6200017c62001222565b6200017c620002d636600462001f2c565b62001229565b620002f3620002ed36600462001e39565b6200138f565b6040516200018b919062002552565b620001f76200031336600462001e39565b620015d9565b620001ab6200032a36600462001e39565b6200164e565b620003476200034136600462001e39565b6200178f565b6040516200018b91906200252c565b620003476200036736600462001e39565b6200183b565b6200017c6200037e36600462001ef3565b62001883565b6200026a6200039536600462001e39565b6200196d565b620001ab620003ac36600462001e39565b620019fc565b6200026a620003c336600462001e39565b62001b3d565b600080848484604051602001620003e393929190620024bd565b6040516020818303038152906040528051906020012090506000848483886040516200040f9062001b42565b6200041e949392919062002591565b604051809103906000f0801580156200043b573d6000803e3d6000fd5b50905060008160405160200162000453919062002498565b60408051601f19818403018152918152815160209283012060008181526006845282812080546001600160a01b0388166001600160a01b031991821681179092558a8352600386528483206002810180546001810182559085528785200180549092168317909155908252600785529290208a519194509192620004dc9291908b019062001b50565b507f2cdb195d7226065901c0e37d742237ac3e30d6dc0ce7faf49701f6ec9f0bd1ed82846040516200051092919062002572565b60405180910390a150925050505b9392505050565b6000818152600360208190526040918290209151606092917fa1c275d9147cd4bbf3a6fc6b01df2bdad7272d62a5bea8ea5f90e20e7c3f48e9916200056d9184019062002519565b60405180910390a160005b600382015481101562000600577f35b7f39ce99df9443c69ab69269e1ae96c0add252abdcce625838b4c386c623660086000846003018481548110620005ba57fe5b60009182526020808320909101546001600160a01b0316835282019290925260409081019091209051620005ef919062002614565b60405180910390a160010162000578565b50806003018054806020026020016040519081016040528092919081815260200182805480156200065b57602002820191906000526020600020905b81546001600160a01b031681526001909101906020018083116200063c575b5050505050915050919050565b6006602052600090815260409020546001600160a01b031681565b6004602090815260009182526040918290208054600180830180548651600293821615610100026000190190911692909204601f810186900486028301860190965285825291949293909290830182828015620007245780601f10620006f85761010080835404028352916020019162000724565b820191906000526020600020905b8154815290600101906020018083116200070657829003601f168201915b5050505050905082565b6200073862001bd5565b6200074262001bd5565b6004600084815260200190815260200160002060405180606001604052908160008201548152602001600182018054600181600116156101000203166002900480601f016020809104026020016040519081016040528092919081815260200182805460018160011615610100020316600290048015620008075780601f10620007db5761010080835404028352916020019162000807565b820191906000526020600020905b815481529060010190602001808311620007e957829003601f168201915b50505050508152602001600282018054806020026020016040519081016040528092919081815260200182805480156200086157602002820191906000526020600020905b8154815260200190600101908083116200084c575b50505050508152505090507f8c6b3078bf6d713aeae5b1ccc2dfea387cbb876de1a5c9d81a4e22d4e832c546816040516200089d91906200264c565b60405180910390a16004600084815260200190815260200160002060405180606001604052908160008201548152602001600182018054600181600116156101000203166002900480601f0160208091040260200160405190810160405280929190818152602001828054600181600116156101000203166002900480156200096a5780601f106200093e576101008083540402835291602001916200096a565b820191906000526020600020905b8154815290600101906020018083116200094c57829003601f168201915b5050505050815260200160028201805480602002602001604051908101604052809291908181526020018280548015620009c457602002820191906000526020600020905b815481526020019060010190808311620009af575b505050505081525050915050919050565b60076020908152600091825260409182902080548351601f60026000196101006001861615020190931692909204918201849004840281018401909452808452909183018282801562000a6c5780601f1062000a405761010080835404028352916020019162000a6c565b820191906000526020600020905b81548152906001019060200180831162000a4e57829003601f168201915b505050505081565b600081815260066020908152604080832054815163844cdf0960e01b815291516001600160a01b0390911693849363844cdf09936004808201949293918390030190829087803b15801562000ac857600080fd5b505af115801562000add573d6000803e3d6000fd5b505050506040513d601f19601f8201168201806040525062000b03919081019062001e18565b62000b2b5760405162461bcd60e51b815260040162000b229062002627565b60405180910390fd5b6000816001600160a01b031663f680a7bd6040518163ffffffff1660e01b815260040160206040518083038186803b15801562000b6757600080fd5b505afa15801562000b7c573d6000803e3d6000fd5b505050506040513d601f19601f8201168201806040525062000ba2919081019062001e5a565b60008181526003602052604081209192505b600382015481101562000c2f57836001600160a01b031682600301828154811062000bdb57fe5b6000918252602090912001546001600160a01b0316141562000c265781600301818154811062000c0757fe5b600091825260209091200180546001600160a01b031916905562000c2f565b60010162000bb4565b506060836001600160a01b03166306fdde036040518163ffffffff1660e01b815260040160006040518083038186803b15801562000c6c57600080fd5b505afa15801562000c81573d6000803e3d6000fd5b505050506040513d6000823e601f3d908101601f1916820160405262000cab919081019062001eba565b600483018054600181018255600091825260209091200180546001600160a01b0319166001600160a01b0387161790556040519091507fbb7f69e49157b8f7bbfd20ddd9be754be60972bae5723181eca78ea390fdf8569062000d1090879062002562565b60405180910390a15050505050565b6005602090815260009182526040918290208054600180830180548651600293821615610100026000190190911692909204601f810186900486028301860190965285825291949293909290830182828015620007245780601f10620006f85761010080835404028352916020019162000724565b6000808360405160200162000daa9190620024af565b604051602081830303815290604052805190602001209050606062000dce62001bd5565b5060408051606081018252838152602080820188815282840185905260008681526004835293909320825181559251805192938493909262000e1892600185019291019062001b50565b506040820151805162000e3691600284019160209091019062001bf9565b50505060008581526005602090815260408083208451600290910180546001810182559085529290932090910191909155517f7dd222c7de5c7ba42d121aa7e2acc9d5d4a47c2eb31f55385cf51cbe459c5c9b9062000e999085908990620025dd565b60405180910390a150909150505b92915050565b600062000ed560405180604001604052806003815260200162434d5360e81b81525062001883565b9050600062000f096040518060400160405280600c81526020016b1550d4d1081359591a58d85b60a21b8152508362000d94565b905062000f326040518060400160405280600381526020016225b2b760e91b8152508262001229565b5062000f5c6040518060400160405280600581526020016444616e6e7960d81b8152508262001229565b5062000f8860405180604001604052806007815260200166416e746f6e696f60c81b8152508262001229565b505050565b60008281526006602052604080822054905163d61909f960e01b81526001600160a01b03909116908290829063d61909f99062000fcf90879060040162002562565b602060405180830381600087803b15801562000fea57600080fd5b505af115801562000fff573d6000803e3d6000fd5b505050506040513d601f19601f8201168201806040525062001025919081019062001e5a565b90506000826001600160a01b031663f680a7bd6040518163ffffffff1660e01b815260040160206040518083038186803b1580156200106357600080fd5b505afa15801562001078573d6000803e3d6000fd5b505050506040513d601f19601f820116820180604052506200109e919081019062001e5a565b60008181526003602052604081209192505b60028201548110156200112b57846001600160a01b0316826002018281548110620010d757fe5b6000918252602090912001546001600160a01b0316141562001122578160020181815481106200110357fe5b600091825260209091200180546001600160a01b03191690556200112b565b600101620010b0565b506060846001600160a01b03166306fdde036040518163ffffffff1660e01b815260040160006040518083038186803b1580156200116857600080fd5b505afa1580156200117d573d6000803e3d6000fd5b505050506040513d6000823e601f3d908101601f19168201604052620011a7919081019062001eba565b600383018054600181018255600091825260209091200180546001600160a01b0319166001600160a01b0388161790556040519091507f96e3875898071e5d91932eb150a3914f9fe70e473f6faeaad697e99a48937c9c906200120e9086908a906200265f565b60405180910390a150919695505050505050565b6000545b90565b600080836040516020016200123f9190620024af565b60405160208183030381529060405280519060200120905060608060606200126662001c36565b506040805160a08101825285815260208082018a81528284018790526060830186905260808301859052600088815260038352939093208251815592518051929384939092620012be92600185019291019062001b50565b5060408201518051620012dc91600284019160209091019062001c68565b5060608201518051620012fa91600384019160209091019062001c68565b50608082015180516200131891600484019160209091019062001c68565b50505060008781526004602090815260408083208451600290910180546001810182559085529290932090910191909155517f86ec8adc6f97da0327b3e1dcc24fa25aea5eb7afcf6af08792e4b2d4d799fad8906200137b9087908b90620025dd565b60405180910390a150929695505050505050565b60006200139b62001c36565b600360008481526020019081526020016000206040518060a001604052908160008201548152602001600182018054600181600116156101000203166002900480601f016020809104026020016040519081016040528092919081815260200182805460018160011615610100020316600290048015620014605780601f10620014345761010080835404028352916020019162001460565b820191906000526020600020905b8154815290600101906020018083116200144257829003601f168201915b5050505050815260200160028201805480602002602001604051908101604052809291908181526020018280548015620014c457602002820191906000526020600020905b81546001600160a01b03168152600190910190602001808311620014a5575b50505050508152602001600382018054806020026020016040519081016040528092919081815260200182805480156200152857602002820191906000526020600020905b81546001600160a01b0316815260019091019060200180831162001509575b50505050508152602001600482018054806020026020016040519081016040528092919081815260200182805480156200158c57602002820191906000526020600020905b81546001600160a01b031681526001909101906020018083116200156d575b50505050508152505090507f7822df68ea6ba88fa17a55a6c6fe1f7207c1653493392725ce9da7f61f8b601d81604051620015c8919062002639565b60405180910390a150600192915050565b6003602090815260009182526040918290208054600180830180548651600293821615610100026000190190911692909204601f810186900486028301860190965285825291949293909290830182828015620007245780601f10620006f85761010080835404028352916020019162000724565b600081815260036020526040908190209051606091907fa1c275d9147cd4bbf3a6fc6b01df2bdad7272d62a5bea8ea5f90e20e7c3f48e9906200169690600284019062002519565b60405180910390a160005b600282015481101562001729577f35b7f39ce99df9443c69ab69269e1ae96c0add252abdcce625838b4c386c623660086000846002018481548110620016e357fe5b60009182526020808320909101546001600160a01b031683528201929092526040908101909120905162001718919062002614565b60405180910390a1600101620016a1565b50806002018054806020026020016040519081016040528092919081815260200182805480156200065b576020028201919060005260206000209081546001600160a01b031681526001909101906020018083116200063c575050505050915050919050565b600081815260056020526040908190209051606091907f1c7aaf504355c6134470b4070ca50bf276d45d0205aa86ef6bd15c684ae710c490620017d79060028401906200253f565b60405180910390a1806002018054806020026020016040519081016040528092919081815260200182805480156200065b57602002820191906000526020600020905b8154815260200190600101908083116200181a575050505050915050919050565b600081815260046020526040908190209051606091907f1c7aaf504355c6134470b4070ca50bf276d45d0205aa86ef6bd15c684ae710c490620017d79060028401906200253f565b60008082604051602001620018999190620024af565b6040516020818303038152906040528051906020012090506060620018bd62001bd5565b506040805160608101825283815260208082018781528284018590526000868152600583529390932082518155925180519293849390926200190792600185019291019062001b50565b50604082015180516200192591600284019160209091019062001bf9565b509050507ff73cee28a98c20f23a903356ab57dc8c514e66b0488c994b09dec06f978c839b83866040516200195c929190620025dd565b60405180910390a150909392505050565b60008181526006602090815260408083205481516398d6a37360e01b815291516001600160a01b039091169384936398d6a373936004808201949293918390030190829087803b158015620019c157600080fd5b505af1158015620019d6573d6000803e3d6000fd5b505050506040513d601f19601f8201168201806040525062000f88919081019062001e18565b600081815260036020526040908190209051606091907fa1c275d9147cd4bbf3a6fc6b01df2bdad7272d62a5bea8ea5f90e20e7c3f48e99062001a4490600484019062002519565b60405180910390a160005b600482015481101562001ad7577f35b7f39ce99df9443c69ab69269e1ae96c0add252abdcce625838b4c386c62366008600084600401848154811062001a9157fe5b60009182526020808320909101546001600160a01b031683528201929092526040908101909120905162001ac6919062002614565b60405180910390a160010162001a4f565b50806004018054806020026020016040519081016040528092919081815260200182805480156200065b576020028201919060005260206000209081546001600160a01b031681526001909101906020018083116200063c575050505050915050919050565b600055565b6105ac80620027f383390190565b828054600181600116156101000203166002900490600052602060002090601f016020900481019282601f1062001b9357805160ff191683800117855562001bc3565b8280016001018555821562001bc3579182015b8281111562001bc357825182559160200191906001019062001ba6565b5062001bd192915062001cce565b5090565b60405180606001604052806000801916815260200160608152602001606081525090565b82805482825590600052602060002090810192821562001bc3579160200282018281111562001bc357825182559160200191906001019062001ba6565b6040518060a0016040528060008019168152602001606081526020016060815260200160608152602001606081525090565b82805482825590600052602060002090810192821562001cc0579160200282015b8281111562001cc057825182546001600160a01b0319166001600160a01b0390911617825560209092019160019091019062001c89565b5062001bd192915062001ceb565b6200122691905b8082111562001bd1576000815560010162001cd5565b6200122691905b8082111562001bd15780546001600160a01b031916815560010162001cf2565b803562000ea781620027c2565b805162000ea781620027dc565b803562000ea781620027e7565b805162000ea781620027e7565b600082601f83011262001d5857600080fd5b815162001d6f62001d6982620026a6565b6200267e565b9150808252602083016020830185838301111562001d8c57600080fd5b62001d9983828462002727565b50505092915050565b600082601f83011262001db457600080fd5b813562001dc562001d6982620026a6565b9150808252602083016020830185838301111562001de257600080fd5b62001d998382846200271b565b60006020828403121562001e0257600080fd5b600062001e10848462001d12565b949350505050565b60006020828403121562001e2b57600080fd5b600062001e10848462001d1f565b60006020828403121562001e4c57600080fd5b600062001e10848462001d2c565b60006020828403121562001e6d57600080fd5b600062001e10848462001d39565b6000806040838503121562001e8f57600080fd5b600062001e9d858562001d2c565b925050602062001eb08582860162001d2c565b9150509250929050565b60006020828403121562001ecd57600080fd5b815167ffffffffffffffff81111562001ee557600080fd5b62001e108482850162001d46565b60006020828403121562001f0657600080fd5b813567ffffffffffffffff81111562001f1e57600080fd5b62001e108482850162001da2565b6000806040838503121562001f4057600080fd5b823567ffffffffffffffff81111562001f5857600080fd5b62001e9d8582860162001da2565b60008060006060848603121562001f7c57600080fd5b833567ffffffffffffffff81111562001f9457600080fd5b62001fa28682870162001da2565b935050602062001fb58682870162001d2c565b925050604062001fc88682870162001d2c565b9150509250925092565b600062001fe0838362001ff6565b505060200190565b600062001fe0838362002260565b620020018162002709565b82525050565b62002001620020168262002709565b62002782565b60006200202982620026e1565b620020358185620026ef565b93506200204283620026cf565b8060005b83811015620020765781516200205d888262001fd2565b97506200206a83620026cf565b92505060010162002046565b509495945050505050565b60006200208e82620026e1565b6200209a8185620026ef565b9350620020a783620026cf565b8060005b8381101562002076578151620020c2888262001fd2565b9750620020cf83620026cf565b925050600101620020ab565b6000620020e882620026e5565b620020f48185620026ef565b93506200210183620026d5565b8060005b838110156200207657620021198262002796565b62002125888262001fd2565b97506200213283620026e9565b92505060010162002105565b60006200214b82620026e1565b620021578185620026ef565b93506200216483620026cf565b8060005b83811015620020765781516200217f888262001fe8565b97506200218c83620026cf565b92505060010162002168565b6000620021a582620026e1565b620021b18185620026ef565b9350620021be83620026cf565b8060005b8381101562002076578151620021d9888262001fe8565b9750620021e683620026cf565b925050600101620021c2565b6000620021ff82620026e5565b6200220b8185620026ef565b93506200221883620026d5565b8060005b8381101562002076576200223082620027a4565b6200223c888262001fe8565b97506200224983620026e9565b9250506001016200221c565b620020018162002716565b620020018162001226565b620020016200227a8262001226565b62001226565b60006200228d82620026e1565b620022998185620026ef565b9350620022ab81856020860162002727565b620022b681620027b2565b9093019392505050565b6000620022cd82620026e1565b620022d98185620026f8565b9350620022eb81856020860162002727565b9290920192915050565b6000815460018116600081146200231557600181146200233e5762002383565b607f6002830416620023288187620026ef565b60ff198416815295505060208501925062002383565b600282046200234e8187620026ef565b95506200235b85620026d5565b60005b828110156200237c578154888201526001909101906020016200235e565b8701945050505b505092915050565b60006200239a601683620026ef565b7510db185a5b481dd85cc81b9bdd0815995c9a599a595960521b815260200192915050565b805160009060a0840190620023d5858262002260565b5060208301518482036020860152620023ef828262002280565b915050604083015184820360408601526200240b828262002081565b9150506060830151848203606086015262002427828262002081565b9150506080830151848203608086015262002443828262002081565b95945050505050565b8051600090606084019062002462858262002260565b50602083015184820360208601526200247c828262002280565b9150506040830151848203604086015262002443828262002198565b6000620024a6828462002007565b50601401919050565b60006200051e8284620022c0565b6000620024cb8286620022c0565b9150620024d982856200226b565b602082019150620024eb82846200226b565b506020019392505050565b6020810162000ea7828462001ff6565b602080825281016200051e81846200201c565b602080825281016200051e8184620020db565b602080825281016200051e81846200213e565b602080825281016200051e8184620021f2565b6020810162000ea7828462002255565b6020810162000ea7828462002260565b6040810162002582828562002260565b6200051e602083018462001ff6565b60808101620025a1828762002260565b620025b0602083018662002260565b620025bf604083018562002260565b8181036060830152620025d3818462002280565b9695505050505050565b60408101620025ed828562002260565b818103602083015262001e10818462002280565b602080825281016200051e818462002280565b602080825281016200051e8184620022f5565b6020808252810162000ea7816200238b565b602080825281016200051e8184620023bf565b602080825281016200051e81846200244c565b604081016200266f828562002260565b6200051e602083018462002260565b60405181810167ffffffffffffffff811182821017156200269e57600080fd5b604052919050565b600067ffffffffffffffff821115620026be57600080fd5b506020601f91909101601f19160190565b60200190565b60009081526020902090565b5190565b5490565b60010190565b90815260200190565b919050565b6001600160a01b031690565b600062000ea782620026fd565b151590565b82818337506000910152565b60005b83811015620027445781810151838201526020016200272a565b8381111562002754576000848401525b50505050565b600062000ea76200276b8362001226565b620026fd565b600062000ea76200227a8362001226565b600062000ea782600062000ea782620027bc565b600062000ea782546200275a565b600062000ea7825462002771565b601f01601f191690565b60601b90565b620027cd8162002709565b8114620027d957600080fd5b50565b620027cd8162002716565b620027cd816200122656fe608060405234801561001057600080fd5b506040516105ac3803806105ac8339818101604052608081101561003357600080fd5b81516020830151604080850151606086018051925194969395919493918201928464010000000082111561006657600080fd5b90830190602082018581111561007b57600080fd5b825164010000000081118282018810171561009557600080fd5b82525081516020918201929091019080838360005b838110156100c25781810151838201526020016100aa565b50505050905090810190601f1680156100ef5780820380516001836020036101000a031916815260200191505b506040525050506001849055600283905560038290558051610118906004906020840190610122565b50505050506101bd565b828054600181600116156101000203166002900490600052602060002090601f016020900481019282601f1061016357805160ff1916838001178555610190565b82800160010185558215610190579182015b82811115610190578251825591602001919060010190610175565b5061019c9291506101a0565b5090565b6101ba91905b8082111561019c57600081556001016101a6565b90565b6103e0806101cc6000396000f3fe608060405234801561001057600080fd5b50600436106100ea5760003560e01c8063844cdf091161008c578063cdb73ac011610066578063cdb73ac014610219578063d321fe2914610236578063d61909f91461023e578063f680a7bd1461025b576100ea565b8063844cdf091461020157806398d6a37314610209578063b95e216c14610211576100ea565b80633a50ed13116100c85780633a50ed13146101b75780633f02907a146101d4578063596ada67146101f157806380007e83146101f9576100ea565b806306fdde03146100ef578063209ebc081461016c57806334d6093d14610188575b600080fd5b6100f7610263565b6040805160208082528351818301528351919283929083019185019080838360005b83811015610131578181015183820152602001610119565b50505050905090810190601f16801561015e5780820380516001836020036101000a031916815260200191505b509250505060405180910390f35b6101746102f1565b604080519115158252519081900360200190f35b6101a56004803603602081101561019e57600080fd5b50356102ff565b60408051918252519081900360200190f35b6101a5600480360360208110156101cd57600080fd5b5035610307565b6101a5600480360360208110156101ea57600080fd5b503561030f565b6101a5610317565b61017461031d565b610174610326565b610174610339565b6101a561034d565b6101a56004803603602081101561022f57600080fd5b5035610353565b6101a561035b565b6101a56004803603602081101561025457600080fd5b5035610361565b6101a56103a5565b6004805460408051602060026001851615610100026000190190941693909304601f810184900484028201840190925281815292918301828280156102e95780601f106102be576101008083540402835291602001916102e9565b820191906000526020600020905b8154815290600101906020018083116102cc57829003601f168201915b505050505081565b600654610100900460ff1690565b600581905590565b600081905590565b600181905590565b60015481565b60065460ff1690565b6006805460ff1916600190811790915590565b6006805461ff001916610100179055600190565b60005481565b600281905590565b60055490565b60058190556040805182815290516000917f7da274c7907a6e3fe48918a914c8a93c400713daffcd99eaa4a9ae6e99322204919081900360200190a1505060055490565b6002548156fea265627a7a72315820d8e0334b44eb6de19207d1d8a1eadd841b54226cbf6e0d40434031b91633829564736f6c634300050b0032a365627a7a723158205347d353efe3460e4f904d3ebb5b9e4c6898106708fe35093d61d67001c916486c6578706572696d656e74616cf564736f6c634300050b0040",
  "source": "pragma solidity ^0.5.0;\npragma experimental ABIEncoderV2;\n\n\nimport \"./SafeMath.sol\";\nimport \"./ServiceClaim.sol\";\n\ncontract Organizations {\n\n    uint admin;\n\n\n    uint256 claimId; //Max value of the number of claims made\n    uint storedData; //Miscellaneous data\n\n    mapping (bytes32=>Patient) public patientMap; //ID of patient to specific provider -\n    mapping (bytes32=>Provider) public providerMap; //ID of provider to specific provider -\n    mapping (bytes32=>Insurer) public insurerMap; //ID of insurance provider to specific insurer\n    mapping (bytes32=>address) public serviceClaimsMap; //ID of serviceClaim to the specific ServiceClaim contract instance\n    mapping (address=>string) public serviceName;\n\n    //Events for organization creation    event ServiceCreated(address serviceClaimAddr);\n    event SCID(bytes32 ID, address addr);\n    event ClaimCreated(uint256 id, uint256 amount);\n    event ClaimVerified(bytes32 id);\n    event PatientCreated(bytes32 id, string name);\n    event ProviderCreated(bytes32 id, string name);\n    event InsurerCreated(bytes32 id, string name);\n    event PatientRetrieval(Patient patient);\n    event ProviderRetrieval(Provider provider);\n\n    //event patientList(Patient[] patients);\n    //event providerList(Provider[] providers);\n    //event insurerList(Insurer[] insurers);\n\n    event idList(bytes32[] ids);\n    event serviceList(address[] services);\n    event SCName(string name);\n    event SCEvent(SC);\n\n    struct SC {\n        string name;\n        address addr;\n    }\n\n    mapping (address=>string) SCMap;\n\n    struct Patient {\n        bytes32 id;\n        string name;\n        //mapping (address=>string) SCMap;\n        address[] unclaimedServices;\n        address[] unverifiedClaims;\n        address[] verifiedClaims;\n    }\n\n    struct Provider {\n        bytes32 id;\n        string name;\n        bytes32[] patients;\n    }\n\n    struct Insurer {\n        bytes32 id;\n        string name;\n        bytes32[] providers;\n    }\n\n    constructor() public {\n        preLoadInfo();\n    }\n\n    // function stringToBytes32(string memory source) public returns (bytes32 result) {\n    //     bytes memory tempEmptyStringTest = bytes(source);\n    //     if (tempEmptyStringTest.length == 0) {\n    //         return 0x0;\n    //     }\n\n    //     assembly {\n    //         result := mload(add(source, 32))\n    //     }\n    // }\n\n\n\n    function preLoadInfo() public{\n        bytes32 insurerID = addInsurer(\"CMS\");\n        bytes32 providerID = addProvider(\"UCSD Medical\", insurerID);\n        addPatient(\"Ken\", providerID);\n        addPatient(\"Danny\", providerID);\n        addPatient(\"Antonio\", providerID);\n    }\n    // ------------------------------ Adds Users to Network --------------------------- //\n\n    /** @dev add a patient to the network\n    @param _name is the name of the patient\n    @param _providerID is the current provider of the patient\n    @return pID is a bytes32 represented id number for the patient\n    */\n    function addPatient(string memory _name, bytes32 _providerID) public returns(bytes32 pID) {\n        bytes32 id = keccak256(abi.encodePacked(_name));\n        address[] memory uServiceList;\n        address[] memory uClaimList;\n        address[] memory vClaimList;\n        Patient memory newPatient = Patient(id, _name, uServiceList, uClaimList, vClaimList);\n        //bytes32 patientHash = keccak256(abi.encodePacked(newPatient));\n        patientMap[id] = newPatient;\n        providerMap[_providerID].patients.push(newPatient.id);\n        emit PatientCreated(id, _name);\n        return id;\n    }\n\n    /** @dev add a provider to the network\n    @param _name name of the provider\n    @param _insurerID id of insurance provider\n    @return the pID of the health provider -\n     */\n    function addProvider(string memory _name, bytes32 _insurerID) public returns(bytes32 pID) {\n        bytes32 id = keccak256(abi.encodePacked(_name));\n        bytes32[] memory emptyList;\n        Provider memory newProvider = Provider(id, _name, emptyList);\n        //bytes32 providerHash = keccak256(abi.encodePacked(newProvider));\n        providerMap[id] = newProvider;\n        insurerMap[_insurerID].providers.push(newProvider.id);\n        emit ProviderCreated(id, _name);\n        return id;\n    }\n\n    /** @dev add an insurnace provider to the network\n    @param _name the name of the insurance provider\n    @return pID of the insurance provider\n    */\n    function addInsurer(string memory _name) public returns(bytes32 pID) {\n        bytes32 id = keccak256(abi.encodePacked(_name));\n        bytes32[] memory emptyList;\n        Insurer memory newInsurer = Insurer(id, _name, emptyList);\n        //bytes32 insurerHash = keccak256(abi.encodePacked(newInsurer));\n        insurerMap[id] = newInsurer;\n        emit InsurerCreated(id, _name);\n        return id;\n    }\n\n    // ------------------------------ Functionality of the Network --------------------------- //\n\n    /** @dev create an instance of a ServiceClaim contract\n    @param _name name of the service\n    @param _providerID provider ID\n    @param _patientID patient ID\n    @return serviceContractHash is the id of the ServiceClaim contract\n    */\n    function provideService(string memory _name, bytes32 _providerID, bytes32 _patientID) public returns(bytes32 serviceContractHash) {\n        bytes32 id = keccak256(abi.encodePacked(_name, _providerID, _patientID));\n        ServiceClaim serviceClaim = new ServiceClaim(_providerID, _patientID, id, _name);\n        bytes32 serviceClaimID = keccak256(abi.encodePacked(address(serviceClaim)));\n        serviceClaimsMap[serviceClaimID] = address(serviceClaim);\n        Patient storage patient = patientMap[_patientID];\n        //patient.unverifiedClaims.push(address(serviceClaim));\n        //SC memory newSC = SC(_name, address(serviceClaim));\n        patient.unclaimedServices.push(address(serviceClaim));\n        serviceName[address(serviceClaim)] = _name;\n        emit SCID(serviceClaimID, address(serviceClaim));\n        return serviceClaimID;\n    }\n\n    /** @dev add a claim to a ServiceClaim contract i.e. the provider wants to file a claim for a service rendered\n    @param _serviceClaimID the ID of the ServiceClaim contract\n    @param _amount the amount to be claimed by the provider\n    @return ClaimID the ID of the claim\n    */\n    function fileClaim(bytes32 _serviceClaimID, uint256 _amount) public returns(uint256 ClaimID) {\n        //Patient storage cPatient = patientMap[_patient];\n        ServiceClaim myServiceClaim = ServiceClaim(serviceClaimsMap[_serviceClaimID]);\n        uint256 newClaimID = myServiceClaim.fileClaim(_amount);\n\n        bytes32 patID = myServiceClaim.patientID();\n        Patient storage cP = patientMap[patID];\n\n        for(uint i = 0; i < cP.unclaimedServices.length; i++){\n            if(cP.unclaimedServices[i] == address(myServiceClaim)){\n                delete(cP.unclaimedServices[i]);\n                break;\n            }\n        }\n        string memory name = myServiceClaim.name();\n        //SC memory newSC = SC(name, address(myServiceClaim));\n        cP.unverifiedClaims.push(address(myServiceClaim));\n        emit ClaimCreated(newClaimID, _amount);\n        //emit SCEvent(newSC);\n        return newClaimID;\n    }\n \n    /** @dev invoke the verifyClaim function in the ServiceClaim contract\n    @param _serviceClaimID the id of the ServiceClaim contract\n    */\n    /** @dev invoke the verifyClaim function in the ServiceClaim contract\n    @param _serviceClaimID the id of the ServiceClaim contract\n    */\n    function verifyClaim(bytes32 _serviceClaimID) public {\n        ServiceClaim myServiceClaim = ServiceClaim(serviceClaimsMap[_serviceClaimID]);\n        require(myServiceClaim.verifyClaim(), \"Claim was not Verified\");\n        // Add the claim address to verified list\n        // Delete the claim address from unverified list\n        bytes32 patID = myServiceClaim.patientID();\n        Patient storage cP = patientMap[patID];\n\n        for(uint i = 0; i < cP.unverifiedClaims.length; i++){\n            if(cP.unverifiedClaims[i] == address(myServiceClaim)){\n                delete(cP.unverifiedClaims[i]);\n                break;\n            }\n        }\n        string memory name = myServiceClaim.name();\n        //SC memory newSC = SC(name, address(myServiceClaim));\n        cP.verifiedClaims.push(address(myServiceClaim));\n        emit ClaimVerified(_serviceClaimID);\n    }\n\n    /** @dev invoke the payProvider function in the ServiceClaim contract\n    @param _serviceClaimID the id of the ServiceClaim contract\n    */\n    function payProvider(bytes32 _serviceClaimID) public {\n        //require(_serviceClaim.claim().verified == true, \"User has not verified service\");\n        ServiceClaim myServiceClaim = ServiceClaim(serviceClaimsMap[_serviceClaimID]);\n        myServiceClaim.payProvider();\n    }\n\n\n\n    // ------------------------------ Getters of Network Data --------------------------- //\n\n\n    function patientsOfProvider(bytes32 _id) public returns (bytes32[] memory) {\n        Provider storage cP = providerMap[_id];\n        emit idList(cP.patients);\n        return(cP.patients);\n    }\n\n    function providersOfInsurer(bytes32 _id) public returns (bytes32[] memory) {\n        Insurer storage cI = insurerMap[_id];\n        emit idList(cI.providers);\n        return(cI.providers);\n    }\n\n    function getPatient(bytes32 _id) public returns (bool){\n        Patient memory patient = patientMap[_id];\n        emit PatientRetrieval(patient);\n        return true;\n    }\n\n    function getProvider(bytes32 _id) public returns (Provider memory){\n        Provider memory provider = providerMap[_id];\n        emit ProviderRetrieval(provider);\n        return providerMap[_id];\n    }\n\n\n    function patientUnclaimedServices(bytes32 _id) public returns (address[] memory){\n        Patient storage cP = patientMap[_id];\n        emit serviceList(cP.unclaimedServices);\n        for(uint i = 0; i < cP.unclaimedServices.length; i++){\n            emit SCName(SCMap[cP.unclaimedServices[i]]);\n        }\n        return(cP.unclaimedServices);\n        // address[] memory a;\n        // return a;\n    }\n\n    function patientUnverifiedClaims(bytes32 _id) public returns (address[] memory){\n        Patient storage cP = patientMap[_id];\n        //bytes32[] memory claimNames = new bytes32[](cP.unverifiedClaims.length);\n        emit serviceList(cP.unverifiedClaims);\n        for(uint i = 0; i < cP.unverifiedClaims.length; i++){\n            emit SCName(SCMap[cP.unverifiedClaims[i]]);\n        }\n\n        return(cP.unverifiedClaims);\n        // address[] memory a;\n        // return a;\n\n    }\n\n    function patientVerifiedClaims(bytes32 _id) public returns (address[] memory){\n        Patient storage cP = patientMap[_id];\n        emit serviceList(cP.verifiedClaims);\n\n        for(uint i = 0; i < cP.verifiedClaims.length; i++){\n            emit SCName(SCMap[cP.verifiedClaims[i]]);\n        }\n        return(cP.verifiedClaims);\n        // address[] memory a;\n        // return a;\n    }\n\n\n\n    function setAdmin(uint _num) public {\n        admin = _num;\n    }\n\n\n    function getAdmin() public view returns (uint) {\n        return admin;\n    }\n\n\n\n// TODO\n    // function insurerUnpaidClaims(bytes32 _id) public {\n    // }\n    // function insurerPaidClaims(bytes32 _id) public {\n\n    // }\n\n    // function providerUnpaidClaims(bytes32 _id) public {\n\n    // }\n\n    //  function providerPaidClaims(bytes32 _id) public {\n    // }\n}\n",
  "sourcePath": "/Users/kenmiyachi/BlockLAB/Medicare-Claim-Verification/contracts/Organizations.sol",
  "compiler": {
    "name": "solc",
    "version": "0.5.11+commit.c082d0b4.Emscripten.clang"
  },
  "schemaVersion": "3.0.12",
  "updatedAt": "2019-09-10T10:29:02.506Z",
  "devdoc": {
    "methods": {
      "addInsurer(string)": {
        "details": "add an insurnace provider to the network",
        "params": {
          "_name": "the name of the insurance provider"
        },
        "return": "pID of the insurance provider"
      },
      "addPatient(string,bytes32)": {
        "details": "add a patient to the network",
        "params": {
          "_name": "is the name of the patient",
          "_providerID": "is the current provider of the patient"
        },
        "return": "pID is a bytes32 represented id number for the patient"
      },
      "addProvider(string,bytes32)": {
        "details": "add a provider to the network",
        "params": {
          "_insurerID": "id of insurance provider",
          "_name": "name of the provider"
        },
        "return": "the pID of the health provider -"
      },
      "fileClaim(bytes32,uint256)": {
        "details": "add a claim to a ServiceClaim contract i.e. the provider wants to file a claim for a service rendered",
        "params": {
          "_amount": "the amount to be claimed by the provider",
          "_serviceClaimID": "the ID of the ServiceClaim contract"
        },
        "return": "ClaimID the ID of the claim"
      },
      "payProvider(bytes32)": {
        "details": "invoke the payProvider function in the ServiceClaim contract",
        "params": {
          "_serviceClaimID": "the id of the ServiceClaim contract"
        }
      },
      "provideService(string,bytes32,bytes32)": {
        "details": "create an instance of a ServiceClaim contract",
        "params": {
          "_name": "name of the service",
          "_patientID": "patient ID",
          "_providerID": "provider ID"
        },
        "return": "serviceContractHash is the id of the ServiceClaim contract"
      },
      "verifyClaim(bytes32)": {
        "details": "invoke the verifyClaim function in the ServiceClaim contract",
        "params": {
          "_serviceClaimID": "the id of the ServiceClaim contract"
        }
      }
    }
  },
  "userdoc": {
    "methods": {}
  }
}