{
  "contractName": "Organizations",
  "abi": [
    {
      "constant": true,
      "inputs": [
        {
          "internalType": "bytes32",
          "name": "",
          "type": "bytes32"
        }
      ],
      "name": "serviceClaimsMap",
      "outputs": [
        {
          "internalType": "address",
          "name": "",
          "type": "address"
        }
      ],
      "payable": false,
      "stateMutability": "view",
      "type": "function"
    },
    {
      "constant": true,
      "inputs": [
        {
          "internalType": "bytes32",
          "name": "",
          "type": "bytes32"
        }
      ],
      "name": "providerMap",
      "outputs": [
        {
          "internalType": "bytes32",
          "name": "id",
          "type": "bytes32"
        },
        {
          "internalType": "string",
          "name": "name",
          "type": "string"
        }
      ],
      "payable": false,
      "stateMutability": "view",
      "type": "function"
    },
    {
      "constant": true,
      "inputs": [
        {
          "internalType": "address",
          "name": "",
          "type": "address"
        }
      ],
      "name": "serviceName",
      "outputs": [
        {
          "internalType": "string",
          "name": "",
          "type": "string"
        }
      ],
      "payable": false,
      "stateMutability": "view",
      "type": "function"
    },
    {
      "constant": true,
      "inputs": [
        {
          "internalType": "bytes32",
          "name": "",
          "type": "bytes32"
        }
      ],
      "name": "insurerMap",
      "outputs": [
        {
          "internalType": "bytes32",
          "name": "id",
          "type": "bytes32"
        },
        {
          "internalType": "string",
          "name": "name",
          "type": "string"
        }
      ],
      "payable": false,
      "stateMutability": "view",
      "type": "function"
    },
    {
      "constant": true,
      "inputs": [
        {
          "internalType": "bytes32",
          "name": "",
          "type": "bytes32"
        }
      ],
      "name": "patientMap",
      "outputs": [
        {
          "internalType": "bytes32",
          "name": "id",
          "type": "bytes32"
        },
        {
          "internalType": "string",
          "name": "name",
          "type": "string"
        }
      ],
      "payable": false,
      "stateMutability": "view",
      "type": "function"
    },
    {
      "inputs": [],
      "payable": false,
      "stateMutability": "nonpayable",
      "type": "constructor"
    },
    {
      "anonymous": false,
      "inputs": [
        {
          "indexed": false,
          "internalType": "bytes32",
          "name": "ID",
          "type": "bytes32"
        },
        {
          "indexed": false,
          "internalType": "address",
          "name": "addr",
          "type": "address"
        }
      ],
      "name": "SCID",
      "type": "event"
    },
    {
      "anonymous": false,
      "inputs": [
        {
          "indexed": false,
          "internalType": "uint256",
          "name": "id",
          "type": "uint256"
        },
        {
          "indexed": false,
          "internalType": "uint256",
          "name": "amount",
          "type": "uint256"
        }
      ],
      "name": "ClaimCreated",
      "type": "event"
    },
    {
      "anonymous": false,
      "inputs": [
        {
          "indexed": false,
          "internalType": "address",
          "name": "addr",
          "type": "address"
        }
      ],
      "name": "ClaimVerified",
      "type": "event"
    },
    {
      "anonymous": false,
      "inputs": [
        {
          "indexed": false,
          "internalType": "bytes32",
          "name": "id",
          "type": "bytes32"
        },
        {
          "indexed": false,
          "internalType": "string",
          "name": "name",
          "type": "string"
        }
      ],
      "name": "PatientCreated",
      "type": "event"
    },
    {
      "anonymous": false,
      "inputs": [
        {
          "indexed": false,
          "internalType": "bytes32",
          "name": "id",
          "type": "bytes32"
        },
        {
          "indexed": false,
          "internalType": "string",
          "name": "name",
          "type": "string"
        }
      ],
      "name": "ProviderCreated",
      "type": "event"
    },
    {
      "anonymous": false,
      "inputs": [
        {
          "indexed": false,
          "internalType": "bytes32",
          "name": "id",
          "type": "bytes32"
        },
        {
          "indexed": false,
          "internalType": "string",
          "name": "name",
          "type": "string"
        }
      ],
      "name": "InsurerCreated",
      "type": "event"
    },
    {
      "anonymous": false,
      "inputs": [
        {
          "components": [
            {
              "internalType": "bytes32",
              "name": "id",
              "type": "bytes32"
            },
            {
              "internalType": "string",
              "name": "name",
              "type": "string"
            },
            {
              "internalType": "address[]",
              "name": "unclaimedServices",
              "type": "address[]"
            },
            {
              "internalType": "address[]",
              "name": "unverifiedClaims",
              "type": "address[]"
            },
            {
              "internalType": "address[]",
              "name": "verifiedClaims",
              "type": "address[]"
            }
          ],
          "indexed": false,
          "internalType": "struct Organizations.Patient",
          "name": "patient",
          "type": "tuple"
        }
      ],
      "name": "PatientRetrieval",
      "type": "event"
    },
    {
      "anonymous": false,
      "inputs": [
        {
          "components": [
            {
              "internalType": "bytes32",
              "name": "id",
              "type": "bytes32"
            },
            {
              "internalType": "string",
              "name": "name",
              "type": "string"
            },
            {
              "internalType": "bytes32[]",
              "name": "patients",
              "type": "bytes32[]"
            }
          ],
          "indexed": false,
          "internalType": "struct Organizations.Provider",
          "name": "provider",
          "type": "tuple"
        }
      ],
      "name": "ProviderRetrieval",
      "type": "event"
    },
    {
      "anonymous": false,
      "inputs": [
        {
          "indexed": false,
          "internalType": "address",
          "name": "addr",
          "type": "address"
        },
        {
          "indexed": false,
          "internalType": "string",
          "name": "patientname",
          "type": "string"
        },
        {
          "indexed": false,
          "internalType": "string",
          "name": "providername",
          "type": "string"
        },
        {
          "indexed": false,
          "internalType": "string",
          "name": "claimname",
          "type": "string"
        },
        {
          "indexed": false,
          "internalType": "bytes32",
          "name": "id",
          "type": "bytes32"
        },
        {
          "indexed": false,
          "internalType": "bytes32",
          "name": "provider",
          "type": "bytes32"
        },
        {
          "indexed": false,
          "internalType": "bytes32",
          "name": "patient",
          "type": "bytes32"
        },
        {
          "indexed": false,
          "internalType": "uint256",
          "name": "amount",
          "type": "uint256"
        },
        {
          "indexed": false,
          "internalType": "bool",
          "name": "confirmed",
          "type": "bool"
        },
        {
          "indexed": false,
          "internalType": "uint256",
          "name": "timeProvided",
          "type": "uint256"
        },
        {
          "indexed": false,
          "internalType": "uint256",
          "name": "timeFiled",
          "type": "uint256"
        },
        {
          "indexed": false,
          "internalType": "uint256",
          "name": "timeVerified",
          "type": "uint256"
        }
      ],
      "name": "ServiceClaimInfo",
      "type": "event"
    },
    {
      "anonymous": false,
      "inputs": [
        {
          "indexed": false,
          "internalType": "bytes32[]",
          "name": "ids",
          "type": "bytes32[]"
        }
      ],
      "name": "idList",
      "type": "event"
    },
    {
      "anonymous": false,
      "inputs": [
        {
          "indexed": false,
          "internalType": "address[]",
          "name": "services",
          "type": "address[]"
        }
      ],
      "name": "serviceList",
      "type": "event"
    },
    {
      "anonymous": false,
      "inputs": [
        {
          "indexed": false,
          "internalType": "string",
          "name": "name",
          "type": "string"
        }
      ],
      "name": "SCName",
      "type": "event"
    },
    {
      "anonymous": false,
      "inputs": [
        {
          "components": [
            {
              "internalType": "address",
              "name": "scAddr",
              "type": "address"
            },
            {
              "internalType": "bytes32",
              "name": "id",
              "type": "bytes32"
            },
            {
              "internalType": "bytes32",
              "name": "insurerID",
              "type": "bytes32"
            },
            {
              "internalType": "bytes32",
              "name": "providerID",
              "type": "bytes32"
            },
            {
              "internalType": "bytes32",
              "name": "patientID",
              "type": "bytes32"
            },
            {
              "internalType": "string",
              "name": "name",
              "type": "string"
            },
            {
              "internalType": "uint256",
              "name": "amount",
              "type": "uint256"
            },
            {
              "internalType": "bool",
              "name": "verified",
              "type": "bool"
            },
            {
              "internalType": "bool",
              "name": "paid",
              "type": "bool"
            }
          ],
          "indexed": false,
          "internalType": "struct Organizations.SC",
          "name": "",
          "type": "tuple"
        }
      ],
      "name": "SCEvent",
      "type": "event"
    },
    {
      "constant": false,
      "inputs": [],
      "name": "preLoadInfo",
      "outputs": [],
      "payable": false,
      "stateMutability": "nonpayable",
      "type": "function"
    },
    {
      "constant": false,
      "inputs": [
        {
          "internalType": "string",
          "name": "_name",
          "type": "string"
        },
        {
          "internalType": "bytes32",
          "name": "_providerID",
          "type": "bytes32"
        }
      ],
      "name": "addPatient",
      "outputs": [
        {
          "internalType": "bytes32",
          "name": "pID",
          "type": "bytes32"
        }
      ],
      "payable": false,
      "stateMutability": "nonpayable",
      "type": "function"
    },
    {
      "constant": true,
      "inputs": [],
      "name": "getPatients",
      "outputs": [
        {
          "internalType": "bytes32[]",
          "name": "nice",
          "type": "bytes32[]"
        }
      ],
      "payable": false,
      "stateMutability": "view",
      "type": "function"
    },
    {
      "constant": false,
      "inputs": [
        {
          "internalType": "string",
          "name": "_name",
          "type": "string"
        },
        {
          "internalType": "bytes32",
          "name": "_insurerID",
          "type": "bytes32"
        }
      ],
      "name": "addProvider",
      "outputs": [
        {
          "internalType": "bytes32",
          "name": "pID",
          "type": "bytes32"
        }
      ],
      "payable": false,
      "stateMutability": "nonpayable",
      "type": "function"
    },
    {
      "constant": true,
      "inputs": [],
      "name": "getProviders",
      "outputs": [
        {
          "internalType": "bytes32[]",
          "name": "nice",
          "type": "bytes32[]"
        }
      ],
      "payable": false,
      "stateMutability": "view",
      "type": "function"
    },
    {
      "constant": false,
      "inputs": [
        {
          "internalType": "string",
          "name": "_name",
          "type": "string"
        }
      ],
      "name": "addInsurer",
      "outputs": [
        {
          "internalType": "bytes32",
          "name": "pID",
          "type": "bytes32"
        }
      ],
      "payable": false,
      "stateMutability": "nonpayable",
      "type": "function"
    },
    {
      "constant": true,
      "inputs": [],
      "name": "getInsurers",
      "outputs": [
        {
          "internalType": "bytes32[]",
          "name": "nice",
          "type": "bytes32[]"
        }
      ],
      "payable": false,
      "stateMutability": "view",
      "type": "function"
    },
    {
      "constant": false,
      "inputs": [
        {
          "internalType": "string",
          "name": "_name",
          "type": "string"
        },
        {
          "internalType": "bytes32",
          "name": "_providerID",
          "type": "bytes32"
        },
        {
          "internalType": "bytes32",
          "name": "_patientID",
          "type": "bytes32"
        },
        {
          "internalType": "uint256",
          "name": "_timeProvided",
          "type": "uint256"
        }
      ],
      "name": "provideService",
      "outputs": [
        {
          "internalType": "bytes32",
          "name": "serviceContractHash",
          "type": "bytes32"
        }
      ],
      "payable": false,
      "stateMutability": "nonpayable",
      "type": "function"
    },
    {
      "constant": false,
      "inputs": [
        {
          "internalType": "bytes32",
          "name": "_serviceClaimID",
          "type": "bytes32"
        },
        {
          "internalType": "uint256",
          "name": "_amount",
          "type": "uint256"
        },
        {
          "internalType": "uint256",
          "name": "_timeProvided",
          "type": "uint256"
        }
      ],
      "name": "fileClaim",
      "outputs": [
        {
          "internalType": "uint256",
          "name": "ClaimID",
          "type": "uint256"
        }
      ],
      "payable": false,
      "stateMutability": "nonpayable",
      "type": "function"
    },
    {
      "constant": false,
      "inputs": [
        {
          "internalType": "address",
          "name": "_serviceClaimAddress",
          "type": "address"
        },
        {
          "internalType": "uint256",
          "name": "_timeVerified",
          "type": "uint256"
        },
        {
          "internalType": "bool",
          "name": "_confirmed",
          "type": "bool"
        }
      ],
      "name": "verifyClaim",
      "outputs": [],
      "payable": false,
      "stateMutability": "nonpayable",
      "type": "function"
    },
    {
      "constant": false,
      "inputs": [
        {
          "internalType": "bytes32",
          "name": "_serviceClaimID",
          "type": "bytes32"
        }
      ],
      "name": "payProvider",
      "outputs": [],
      "payable": false,
      "stateMutability": "nonpayable",
      "type": "function"
    },
    {
      "constant": false,
      "inputs": [
        {
          "internalType": "bytes32",
          "name": "_id",
          "type": "bytes32"
        }
      ],
      "name": "patientsOfProvider",
      "outputs": [
        {
          "internalType": "bytes32[]",
          "name": "",
          "type": "bytes32[]"
        }
      ],
      "payable": false,
      "stateMutability": "nonpayable",
      "type": "function"
    },
    {
      "constant": false,
      "inputs": [
        {
          "internalType": "bytes32",
          "name": "_id",
          "type": "bytes32"
        }
      ],
      "name": "providersOfInsurer",
      "outputs": [
        {
          "internalType": "bytes32[]",
          "name": "",
          "type": "bytes32[]"
        }
      ],
      "payable": false,
      "stateMutability": "nonpayable",
      "type": "function"
    },
    {
      "constant": false,
      "inputs": [
        {
          "internalType": "bytes32",
          "name": "_id",
          "type": "bytes32"
        }
      ],
      "name": "getPatient",
      "outputs": [
        {
          "internalType": "bool",
          "name": "",
          "type": "bool"
        }
      ],
      "payable": false,
      "stateMutability": "nonpayable",
      "type": "function"
    },
    {
      "constant": false,
      "inputs": [
        {
          "internalType": "bytes32",
          "name": "_id",
          "type": "bytes32"
        }
      ],
      "name": "getProvider",
      "outputs": [
        {
          "components": [
            {
              "internalType": "bytes32",
              "name": "id",
              "type": "bytes32"
            },
            {
              "internalType": "string",
              "name": "name",
              "type": "string"
            },
            {
              "internalType": "bytes32[]",
              "name": "patients",
              "type": "bytes32[]"
            }
          ],
          "internalType": "struct Organizations.Provider",
          "name": "",
          "type": "tuple"
        }
      ],
      "payable": false,
      "stateMutability": "nonpayable",
      "type": "function"
    },
    {
      "constant": false,
      "inputs": [
        {
          "internalType": "bytes32",
          "name": "_id",
          "type": "bytes32"
        }
      ],
      "name": "patientUnclaimedServices",
      "outputs": [
        {
          "internalType": "address[]",
          "name": "",
          "type": "address[]"
        }
      ],
      "payable": false,
      "stateMutability": "nonpayable",
      "type": "function"
    },
    {
      "constant": false,
      "inputs": [
        {
          "internalType": "bytes32",
          "name": "_id",
          "type": "bytes32"
        }
      ],
      "name": "patientUnverifiedClaims",
      "outputs": [
        {
          "internalType": "address[]",
          "name": "",
          "type": "address[]"
        }
      ],
      "payable": false,
      "stateMutability": "nonpayable",
      "type": "function"
    },
    {
      "constant": false,
      "inputs": [
        {
          "internalType": "bytes32",
          "name": "_id",
          "type": "bytes32"
        }
      ],
      "name": "patientVerifiedClaims",
      "outputs": [
        {
          "internalType": "address[]",
          "name": "",
          "type": "address[]"
        }
      ],
      "payable": false,
      "stateMutability": "nonpayable",
      "type": "function"
    },
    {
      "constant": false,
      "inputs": [
        {
          "internalType": "uint256",
          "name": "_num",
          "type": "uint256"
        }
      ],
      "name": "setAdmin",
      "outputs": [],
      "payable": false,
      "stateMutability": "nonpayable",
      "type": "function"
    },
    {
      "constant": true,
      "inputs": [],
      "name": "getAdmin",
      "outputs": [
        {
          "internalType": "uint256",
          "name": "",
          "type": "uint256"
        }
      ],
      "payable": false,
      "stateMutability": "view",
      "type": "function"
    },
    {
      "constant": false,
      "inputs": [],
      "name": "getAllServices",
      "outputs": [],
      "payable": false,
      "stateMutability": "nonpayable",
      "type": "function"
    },
    {
      "constant": false,
      "inputs": [],
      "name": "getAllVerifiedServices",
      "outputs": [],
      "payable": false,
      "stateMutability": "nonpayable",
      "type": "function"
    },
    {
      "constant": false,
      "inputs": [],
      "name": "getAllUnverifiedServices",
      "outputs": [],
      "payable": false,
      "stateMutability": "nonpayable",
      "type": "function"
    }
  ],
  "bytecode": "0x60806040523480156200001157600080fd5b50620000256001600160e01b036200002b16565b62000874565b6000620000736040518060400160405280600381526020017f434d530000000000000000000000000000000000000000000000000000000000815250620001a060201b60201c565b90506000620000be6040518060400160405280600c81526020017f55435344204d65646963616c000000000000000000000000000000000000000081525083620002bf60201b60201c565b9050620001076040518060400160405280600381526020017f4b656e0000000000000000000000000000000000000000000000000000000000815250826200040460201b60201c565b5060408051808201909152600581527f44616e6e7900000000000000000000000000000000000000000000000000000060208201526200015190826001600160e01b036200040416565b5060408051808201909152600781527f416e746f6e696f0000000000000000000000000000000000000000000000000060208201526200019b90826001600160e01b036200040416565b505050565b60008082604051602001620001b69190620007e4565b6040516020818303038152906040528051906020012090506060620001da62000599565b5060408051606081018252838152602080820187815282840185905260008681526005835293909320825181559251805192938493909262000224926001850192910190620005bd565b50604082015180516200024291600284019160209091019062000642565b5050600e80546001810182556000919091527fbb7b4a454dc3493923482f07822329ed19e8244eff582cc204f8554c3620c3fd01849055506040517ff73cee28a98c20f23a903356ab57dc8c514e66b0488c994b09dec06f978c839b90620002ae9085908890620007f9565b60405180910390a150909392505050565b60008083604051602001620002d59190620007e4565b6040516020818303038152906040528051906020012090506060620002f962000599565b5060408051606081018252838152602080820188815282840185905260008681526004835293909320825181559251805192938493909262000343926001850192910190620005bd565b50604082015180516200036191600284019160209091019062000642565b50505060008581526005602090815260408083208451600290910180546001818101835591865293852090930155600d805492830181559092527fd7b6990105719101dabeb77144f2a3385c8033acd3af97e9423a695e81ad1eb501849055517f7dd222c7de5c7ba42d121aa7e2acc9d5d4a47c2eb31f55385cf51cbe459c5c9b90620003f29085908990620007f9565b60405180910390a15090949350505050565b600080836040516020016200041a9190620007e4565b6040516020818303038152906040528051906020012090506060806060620004416200067f565b506040805160a08101825285815260208082018a8152828401879052606083018690526080830185905260008881526003835293909320825181559251805192938493909262000499926001850192910190620005bd565b5060408201518051620004b7916002840191602090910190620006b1565b5060608201518051620004d5916003840191602090910190620006b1565b5060808201518051620004f3916004840191602090910190620006b1565b5050600c805460018181019092557fdf6966c971051c3d54ec59162606531493a51404a002842f56009d7e5cf4a8c7018790556000898152600460209081526040808320865160029091018054958601815584529190922090920191909155517f86ec8adc6f97da0327b3e1dcc24fa25aea5eb7afcf6af08792e4b2d4d799fad89150620005859087908b90620007f9565b60405180910390a150929695505050505050565b60405180606001604052806000801916815260200160608152602001606081525090565b828054600181600116156101000203166002900490600052602060002090601f016020900481019282601f106200060057805160ff191683800117855562000630565b8280016001018555821562000630579182015b828111156200063057825182559160200191906001019062000613565b506200063e92915062000717565b5090565b8280548282559060005260206000209081019282156200063057916020028201828111156200063057825182559160200191906001019062000613565b6040518060a0016040528060008019168152602001606081526020016060815260200160608152602001606081525090565b82805482825590600052602060002090810192821562000709579160200282015b828111156200070957825182546001600160a01b0319166001600160a01b03909116178255602090920191600190910190620006d2565b506200063e92915062000737565b6200073491905b808211156200063e57600081556001016200071e565b90565b6200073491905b808211156200063e5780546001600160a01b03191681556001016200073e565b620007698162000734565b82525050565b60006200077c8262000825565b62000788818562000829565b93506200079a81856020860162000837565b620007a5816200086a565b9093019392505050565b6000620007bc8262000825565b620007c8818562000832565b9350620007da81856020860162000837565b9290920192915050565b6000620007f28284620007af565b9392505050565b604081016200080982856200075e565b81810360208301526200081d81846200076f565b949350505050565b5190565b90815260200190565b919050565b60005b83811015620008545781810151838201526020016200083a565b8381111562000864576000848401525b50505050565b601f01601f191690565b614a2c80620008846000396000f3fe60806040523480156200001157600080fd5b5060043610620001f05760003560e01c806373b1b2bf1162000111578063dcabfc9011620000a5578063e4595936116200007b578063e45959361462000453578063ece7ac2b146200045d578063edc922a91462000474578063ee3d52b3146200047e57620001f0565b8063dcabfc90146200040e578063dd2389251462000425578063e0e87b1a146200043c57620001f0565b806392398fbb11620000e757806392398fbb14620003b25780639594c99e14620003c95780639c860b8a14620003e0578063a46bfff914620003f757620001f0565b806373b1b2bf146200035e578063740044b414620003755780637899a34e146200038c57620001f0565b80632bde2a86116200018957806339160aa7116200015f57806339160aa7146200031c5780633e7e072e14620003335780633f1e172d146200034a5780636e9960c3146200035457620001f0565b80632bde2a8614620002a957806333c0950a14620002d057806333fc83f714620002f657620001f0565b806321dd828511620001cb57806321dd8285146200022d57806321fe0f3014620002535780632470d25e146200025d578063291d7cdb146200028357620001f0565b80631156958614620001f557806312ad1c3714620002175780631bf78b351462000221575b600080fd5b620001ff62000495565b6040516200020e9190620040d5565b60405180910390f35b620001ff620004f0565b6200022b62000548565b005b620002446200023e366004620038c4565b62000d50565b6040516200020e9190620040af565b6200022b62000e8e565b620002746200026e366004620038c4565b62001614565b6040516200020e919062003fbf565b6200029a6200029436600462003a19565b6200162f565b6040516200020e91906200410b565b620002c0620002ba366004620038c4565b62001944565b6040516200020e92919062004197565b620002e7620002e1366004620038c4565b620019ef565b6040516200020e919062004206565b6200030d6200030736600462003826565b62001c96565b6040516200020e9190620041bb565b620002c06200032d366004620038c4565b62001d35565b6200029a62000344366004620039c2565b62001daa565b6200022b62001ef1565b6200029a62001fd1565b6200029a6200036f36600462003906565b62001fd7565b6200029a62000386366004620039c2565b62002224565b620003a36200039d366004620038c4565b620023b9565b6040516200020e9190620040fb565b620002c0620003c3366004620038c4565b62002603565b62000244620003da366004620038c4565b62002678565b620001ff620003f1366004620038c4565b620027b9565b620001ff62000408366004620038c4565b62002865565b6200022b6200041f3660046200384f565b620028ad565b6200029a6200043636600462003989565b62002ad4565b6200022b6200044d366004620038c4565b62002bf3565b6200022b62002bfd565b620002446200046e366004620038c4565b62003383565b620001ff620034c4565b6200022b6200048f366004620038c4565b6200351c565b6060600e805480602002602001604051908101604052809291908181526020018280548015620004e557602002820191906000526020600020905b815481526020019060010190808311620004d0575b505050505090505b90565b6060600c805480602002602001604051908101604052809291908181526020018280548015620004e55760200282019190600052602060002090815481526020019060010190808311620004d0575050505050905090565b60005b600b5481101562000d4d576000600b82815481106200056657fe5b9060005260206000200160009054906101000a90046001600160a01b03169050606060036000836001600160a01b031663f680a7bd6040518163ffffffff1660e01b815260040160206040518083038186803b158015620005c657600080fd5b505afa158015620005db573d6000803e3d6000fd5b505050506040513d601f19601f82011682018060405250620006019190810190620038e5565b81526020019081526020016000206001018054600181600116156101000203166002900480601f016020809104026020016040519081016040528092919081815260200182805460018160011615610100020316600290048015620006aa5780601f106200067e57610100808354040283529160200191620006aa565b820191906000526020600020905b8154815290600101906020018083116200068c57829003601f168201915b50505050509050606060046000846001600160a01b031663596ada676040518163ffffffff1660e01b815260040160206040518083038186803b158015620006f157600080fd5b505afa15801562000706573d6000803e3d6000fd5b505050506040513d601f19601f820116820180604052506200072c9190810190620038e5565b81526020019081526020016000206001018054600181600116156101000203166002900480601f016020809104026020016040519081016040528092919081815260200182805460018160011615610100020316600290048015620007d55780601f10620007a957610100808354040283529160200191620007d5565b820191906000526020600020905b815481529060010190602001808311620007b757829003601f168201915b505050505090506000836001600160a01b031663bb90ebac6040518163ffffffff1660e01b815260040160206040518083038186803b1580156200081857600080fd5b505afa1580156200082d573d6000803e3d6000fd5b505050506040513d601f19601f82011682018060405250620008539190810190620038e5565b118015620008d35750826001600160a01b031663763032896040518163ffffffff1660e01b815260040160206040518083038186803b1580156200089657600080fd5b505afa158015620008ab573d6000803e3d6000fd5b505050506040513d601f19601f82011682018060405250620008d19190810190620038e5565b155b1562000d41577f04653ea398522e1f547b141c4f7c0274d3527ae0b221c0cebf77651997c809e1838383866001600160a01b03166306fdde036040518163ffffffff1660e01b815260040160006040518083038186803b1580156200093757600080fd5b505afa1580156200094c573d6000803e3d6000fd5b505050506040513d6000823e601f3d908101601f1916820160405262000976919081019062003950565b876001600160a01b0316631be37f406040518163ffffffff1660e01b815260040160206040518083038186803b158015620009b057600080fd5b505afa158015620009c5573d6000803e3d6000fd5b505050506040513d601f19601f82011682018060405250620009eb9190810190620038e5565b886001600160a01b031663596ada676040518163ffffffff1660e01b815260040160206040518083038186803b15801562000a2557600080fd5b505afa15801562000a3a573d6000803e3d6000fd5b505050506040513d601f19601f8201168201806040525062000a609190810190620038e5565b896001600160a01b031663f680a7bd6040518163ffffffff1660e01b815260040160206040518083038186803b15801562000a9a57600080fd5b505afa15801562000aaf573d6000803e3d6000fd5b505050506040513d601f19601f8201168201806040525062000ad59190810190620038e5565b8a6001600160a01b031663aa8c217c6040518163ffffffff1660e01b815260040160206040518083038186803b15801562000b0f57600080fd5b505afa15801562000b24573d6000803e3d6000fd5b505050506040513d601f19601f8201168201806040525062000b4a9190810190620038e5565b8b6001600160a01b031663a968991b6040518163ffffffff1660e01b815260040160206040518083038186803b15801562000b8457600080fd5b505afa15801562000b99573d6000803e3d6000fd5b505050506040513d601f19601f8201168201806040525062000bbf9190810190620038a3565b8c6001600160a01b0316634a86d8c56040518163ffffffff1660e01b815260040160206040518083038186803b15801562000bf957600080fd5b505afa15801562000c0e573d6000803e3d6000fd5b505050506040513d601f19601f8201168201806040525062000c349190810190620038e5565b8d6001600160a01b031663bb90ebac6040518163ffffffff1660e01b815260040160206040518083038186803b15801562000c6e57600080fd5b505afa15801562000c83573d6000803e3d6000fd5b505050506040513d601f19601f8201168201806040525062000ca99190810190620038e5565b8e6001600160a01b031663763032896040518163ffffffff1660e01b815260040160206040518083038186803b15801562000ce357600080fd5b505afa15801562000cf8573d6000803e3d6000fd5b505050506040513d601f19601f8201168201806040525062000d1e9190810190620038e5565b60405162000d389c9b9a9998979695949392919062003fcf565b60405180910390a15b5050506001016200054b565b50565b60008181526003602052604081206060915b600382015481101562000dea577f35b7f39ce99df9443c69ab69269e1ae96c0add252abdcce625838b4c386c6236600a600084600301848154811062000da457fe5b60009182526020808320909101546001600160a01b031683528201929092526040908101909120905162000dd99190620041ce565b60405180910390a160010162000d62565b507fa1c275d9147cd4bbf3a6fc6b01df2bdad7272d62a5bea8ea5f90e20e7c3f48e98160030160405162000e1f9190620040c2565b60405180910390a18060030180548060200260200160405190810160405280929190818152602001828054801562000e8157602002820191906000526020600020905b81546001600160a01b0316815260019091019060200180831162000e62575b5050505050915050919050565b60005b600b5481101562000d4d576000600b828154811062000eac57fe5b9060005260206000200160009054906101000a90046001600160a01b03169050606060036000836001600160a01b031663f680a7bd6040518163ffffffff1660e01b815260040160206040518083038186803b15801562000f0c57600080fd5b505afa15801562000f21573d6000803e3d6000fd5b505050506040513d601f19601f8201168201806040525062000f479190810190620038e5565b81526020019081526020016000206001018054600181600116156101000203166002900480601f01602080910402602001604051908101604052809291908181526020018280546001816001161561010002031660029004801562000ff05780601f1062000fc45761010080835404028352916020019162000ff0565b820191906000526020600020905b81548152906001019060200180831162000fd257829003601f168201915b50505050509050606060046000846001600160a01b031663596ada676040518163ffffffff1660e01b815260040160206040518083038186803b1580156200103757600080fd5b505afa1580156200104c573d6000803e3d6000fd5b505050506040513d601f19601f82011682018060405250620010729190810190620038e5565b81526020019081526020016000206001018054600181600116156101000203166002900480601f0160208091040260200160405190810160405280929190818152602001828054600181600116156101000203166002900480156200111b5780601f10620010ef576101008083540402835291602001916200111b565b820191906000526020600020905b815481529060010190602001808311620010fd57829003601f168201915b505050505090506000836001600160a01b0316634a86d8c56040518163ffffffff1660e01b815260040160206040518083038186803b1580156200115e57600080fd5b505afa15801562001173573d6000803e3d6000fd5b505050506040513d601f19601f82011682018060405250620011999190810190620038e5565b111562001608577f04653ea398522e1f547b141c4f7c0274d3527ae0b221c0cebf77651997c809e1838383866001600160a01b03166306fdde036040518163ffffffff1660e01b815260040160006040518083038186803b158015620011fe57600080fd5b505afa15801562001213573d6000803e3d6000fd5b505050506040513d6000823e601f3d908101601f191682016040526200123d919081019062003950565b876001600160a01b0316631be37f406040518163ffffffff1660e01b815260040160206040518083038186803b1580156200127757600080fd5b505afa1580156200128c573d6000803e3d6000fd5b505050506040513d601f19601f82011682018060405250620012b29190810190620038e5565b886001600160a01b031663596ada676040518163ffffffff1660e01b815260040160206040518083038186803b158015620012ec57600080fd5b505afa15801562001301573d6000803e3d6000fd5b505050506040513d601f19601f82011682018060405250620013279190810190620038e5565b896001600160a01b031663f680a7bd6040518163ffffffff1660e01b815260040160206040518083038186803b1580156200136157600080fd5b505afa15801562001376573d6000803e3d6000fd5b505050506040513d601f19601f820116820180604052506200139c9190810190620038e5565b8a6001600160a01b031663aa8c217c6040518163ffffffff1660e01b815260040160206040518083038186803b158015620013d657600080fd5b505afa158015620013eb573d6000803e3d6000fd5b505050506040513d601f19601f82011682018060405250620014119190810190620038e5565b8b6001600160a01b031663a968991b6040518163ffffffff1660e01b815260040160206040518083038186803b1580156200144b57600080fd5b505afa15801562001460573d6000803e3d6000fd5b505050506040513d601f19601f82011682018060405250620014869190810190620038a3565b8c6001600160a01b0316634a86d8c56040518163ffffffff1660e01b815260040160206040518083038186803b158015620014c057600080fd5b505afa158015620014d5573d6000803e3d6000fd5b505050506040513d601f19601f82011682018060405250620014fb9190810190620038e5565b8d6001600160a01b031663bb90ebac6040518163ffffffff1660e01b815260040160206040518083038186803b1580156200153557600080fd5b505afa1580156200154a573d6000803e3d6000fd5b505050506040513d601f19601f82011682018060405250620015709190810190620038e5565b8e6001600160a01b031663763032896040518163ffffffff1660e01b815260040160206040518083038186803b158015620015aa57600080fd5b505afa158015620015bf573d6000803e3d6000fd5b505050506040513d601f19601f82011682018060405250620015e59190810190620038e5565b604051620015ff9c9b9a9998979695949392919062003fcf565b60405180910390a15b50505060010162000e91565b6006602052600090815260409020546001600160a01b031681565b600080858585604051602001620016499392919062003f86565b60405160208183030381529060405280519060200120905060008585838987604051620016769062003521565b620016869594939291906200413a565b604051809103906000f080158015620016a3573d6000803e3d6000fd5b509050600081604051602001620016bb919062003f61565b604051602081830303815290604052805190602001209050620016dd6200352f565b604051806101200160405280846001600160a01b0316815260200183815260200160085481526020018981526020018881526020018a8152602001600081526020016000151581526020016000151581525090506009819080600181540180825580915050906001820390600052602060002090600802016000909192909190915060008201518160000160006101000a8154816001600160a01b0302191690836001600160a01b031602179055506020820151816001015560408201518160020155606082015181600301556080820151816004015560a0820151816005019080519060200190620017d29291906200357a565b5060c082015160068281019190915560e0830151600792830180546101009586015160ff199091169215159290921761ff0019169115159094021790925560008581526020928352604080822080546001600160a01b03199081166001600160a01b038b169081179092558d845260038652828420600281018054600181018255908652878620018054909216831790915590835292845290208c5191935062001882929091908d01906200357a565b506001600160a01b0384166000908152600a602090815260409091208b51620018ae928d01906200357a565b50600b80546001810182556000919091527f0175b7a638427703f0dbe7bb9bbf987a2551717b34e79f33b5b1008d1fa01db90180546001600160a01b0319166001600160a01b0386161790556040517f2cdb195d7226065901c0e37d742237ac3e30d6dc0ce7faf49701f6ec9f0bd1ed906200192e90859087906200411b565b60405180910390a1509098975050505050505050565b6004602090815260009182526040918290208054600180830180548651600293821615610100026000190190911692909204601f810186900486028301860190965285825291949293909290830182828015620019e55780601f10620019b957610100808354040283529160200191620019e5565b820191906000526020600020905b815481529060010190602001808311620019c757829003601f168201915b5050505050905082565b620019f9620035ff565b62001a03620035ff565b6004600084815260200190815260200160002060405180606001604052908160008201548152602001600182018054600181600116156101000203166002900480601f01602080910402602001604051908101604052809291908181526020018280546001816001161561010002031660029004801562001ac85780601f1062001a9c5761010080835404028352916020019162001ac8565b820191906000526020600020905b81548152906001019060200180831162001aaa57829003601f168201915b505050505081526020016002820180548060200260200160405190810160405280929190818152602001828054801562001b2257602002820191906000526020600020905b81548152602001906001019080831162001b0d575b50505050508152505090507f8c6b3078bf6d713aeae5b1ccc2dfea387cbb876de1a5c9d81a4e22d4e832c5468160405162001b5e919062004206565b60405180910390a16004600084815260200190815260200160002060405180606001604052908160008201548152602001600182018054600181600116156101000203166002900480601f01602080910402602001604051908101604052809291908181526020018280546001816001161561010002031660029004801562001c2b5780601f1062001bff5761010080835404028352916020019162001c2b565b820191906000526020600020905b81548152906001019060200180831162001c0d57829003601f168201915b505050505081526020016002820180548060200260200160405190810160405280929190818152602001828054801562001c8557602002820191906000526020600020905b81548152602001906001019080831162001c70575b505050505081525050915050919050565b60076020908152600091825260409182902080548351601f60026000196101006001861615020190931692909204918201849004840281018401909452808452909183018282801562001d2d5780601f1062001d015761010080835404028352916020019162001d2d565b820191906000526020600020905b81548152906001019060200180831162001d0f57829003601f168201915b505050505081565b6005602090815260009182526040918290208054600180830180548651600293821615610100026000190190911692909204601f810186900486028301860190965285825291949293909290830182828015620019e55780601f10620019b957610100808354040283529160200191620019e5565b6000808360405160200162001dc0919062003f78565b604051602081830303815290604052805190602001209050606062001de4620035ff565b5060408051606081018252838152602080820188815282840185905260008681526004835293909320825181559251805192938493909262001e2e9260018501929101906200357a565b506040820151805162001e4c91600284019160209091019062003623565b50505060008581526005602090815260408083208451600290910180546001818101835591865293852090930155600d805492830181559092527fd7b6990105719101dabeb77144f2a3385c8033acd3af97e9423a695e81ad1eb501849055517f7dd222c7de5c7ba42d121aa7e2acc9d5d4a47c2eb31f55385cf51cbe459c5c9b9062001edd908590899062004197565b60405180910390a150909150505b92915050565b600062001f1960405180604001604052806003815260200162434d5360e81b81525062002ad4565b9050600062001f4d6040518060400160405280600c81526020016b1550d4d1081359591a58d85b60a21b8152508362001daa565b905062001f766040518060400160405280600381526020016225b2b760e91b8152508262002224565b5062001fa06040518060400160405280600581526020016444616e6e7960d81b8152508262002224565b5062001fcc60405180604001604052806007815260200166416e746f6e696f60c81b8152508262002224565b505050565b60005490565b600083815260066020526040808220549051631bf4a39360e11b81526001600160a01b0390911690829082906337e94726906200201b908890889060040162004238565b602060405180830381600087803b1580156200203657600080fd5b505af11580156200204b573d6000803e3d6000fd5b505050506040513d601f19601f82011682018060405250620020719190810190620038e5565b90506000826001600160a01b031663f680a7bd6040518163ffffffff1660e01b815260040160206040518083038186803b158015620020af57600080fd5b505afa158015620020c4573d6000803e3d6000fd5b505050506040513d601f19601f82011682018060405250620020ea9190810190620038e5565b6000818152600360205260408120600f80546001810182559083527f8d1108e10bcb7c27dddfc02ed9d693a074039d026cf4ea4240b40f7d581ac802018a90559192505b6002820154811015620021a957846001600160a01b03168260020182815481106200215557fe5b6000918252602090912001546001600160a01b03161415620021a0578160020181815481106200218157fe5b600091825260209091200180546001600160a01b0319169055620021a9565b6001016200212e565b50600381018054600181018255600091825260209091200180546001600160a01b0319166001600160a01b0386161790556040517f96e3875898071e5d91932eb150a3914f9fe70e473f6faeaad697e99a48937c9c906200220e9085908a9062004238565b60405180910390a15090925050505b9392505050565b600080836040516020016200223a919062003f78565b60405160208183030381529060405280519060200120905060608060606200226162003660565b506040805160a08101825285815260208082018a81528284018790526060830186905260808301859052600088815260038352939093208251815592518051929384939092620022b99260018501929101906200357a565b5060408201518051620022d791600284019160209091019062003692565b5060608201518051620022f591600384019160209091019062003692565b50608082015180516200231391600484019160209091019062003692565b5050600c805460018181019092557fdf6966c971051c3d54ec59162606531493a51404a002842f56009d7e5cf4a8c7018790556000898152600460209081526040808320865160029091018054958601815584529190922090920191909155517f86ec8adc6f97da0327b3e1dcc24fa25aea5eb7afcf6af08792e4b2d4d799fad89150620023a59087908b9062004197565b60405180910390a150929695505050505050565b6000620023c562003660565b600360008481526020019081526020016000206040518060a001604052908160008201548152602001600182018054600181600116156101000203166002900480601f0160208091040260200160405190810160405280929190818152602001828054600181600116156101000203166002900480156200248a5780601f106200245e576101008083540402835291602001916200248a565b820191906000526020600020905b8154815290600101906020018083116200246c57829003601f168201915b5050505050815260200160028201805480602002602001604051908101604052809291908181526020018280548015620024ee57602002820191906000526020600020905b81546001600160a01b03168152600190910190602001808311620024cf575b50505050508152602001600382018054806020026020016040519081016040528092919081815260200182805480156200255257602002820191906000526020600020905b81546001600160a01b0316815260019091019060200180831162002533575b5050505050815260200160048201805480602002602001604051908101604052809291908181526020018280548015620025b657602002820191906000526020600020905b81546001600160a01b0316815260019091019060200180831162002597575b50505050508152505090507f7822df68ea6ba88fa17a55a6c6fe1f7207c1653493392725ce9da7f61f8b601d81604051620025f29190620041f3565b60405180910390a150600192915050565b6003602090815260009182526040918290208054600180830180548651600293821615610100026000190190911692909204601f810186900486028301860190965285825291949293909290830182828015620019e55780601f10620019b957610100808354040283529160200191620019e5565b600081815260036020526040908190209051606091907fa1c275d9147cd4bbf3a6fc6b01df2bdad7272d62a5bea8ea5f90e20e7c3f48e990620026c0906002840190620040c2565b60405180910390a160005b600282015481101562002753577f35b7f39ce99df9443c69ab69269e1ae96c0add252abdcce625838b4c386c6236600a60008460020184815481106200270d57fe5b60009182526020808320909101546001600160a01b0316835282019290925260409081019091209051620027429190620041ce565b60405180910390a1600101620026cb565b508060020180548060200260200160405190810160405280929190818152602001828054801562000e81576020028201919060005260206000209081546001600160a01b0316815260019091019060200180831162000e62575050505050915050919050565b600081815260056020526040908190209051606091907f1c7aaf504355c6134470b4070ca50bf276d45d0205aa86ef6bd15c684ae710c49062002801906002840190620040e8565b60405180910390a18060020180548060200260200160405190810160405280929190818152602001828054801562000e8157602002820191906000526020600020905b81548152602001906001019080831162002844575050505050915050919050565b600081815260046020526040908190209051606091907f1c7aaf504355c6134470b4070ca50bf276d45d0205aa86ef6bd15c684ae710c49062002801906002840190620040e8565b604051635a324c0360e11b815283906001600160a01b0382169063b464980690620028df908690869060040162004219565b602060405180830381600087803b158015620028fa57600080fd5b505af11580156200290f573d6000803e3d6000fd5b505050506040513d601f19601f82011682018060405250620029359190810190620038a3565b6200295d5760405162461bcd60e51b81526004016200295490620041e1565b60405180910390fd5b6000816001600160a01b031663f680a7bd6040518163ffffffff1660e01b815260040160206040518083038186803b1580156200299957600080fd5b505afa158015620029ae573d6000803e3d6000fd5b505050506040513d601f19601f82011682018060405250620029d49190810190620038e5565b60008181526003602052604081209192505b600382015481101562002a6157836001600160a01b031682600301828154811062002a0d57fe5b6000918252602090912001546001600160a01b0316141562002a585781600301818154811062002a3957fe5b600091825260209091200180546001600160a01b031916905562002a61565b600101620029e6565b50600481018054600181018255600091825260209091200180546001600160a01b0319166001600160a01b0385161790556040517fc03c381479e74431d2e456b259238f87292a5a827091c7386e197457ad47e19e9062002ac490889062003fbf565b60405180910390a1505050505050565b6000808260405160200162002aea919062003f78565b604051602081830303815290604052805190602001209050606062002b0e620035ff565b5060408051606081018252838152602080820187815282840185905260008681526005835293909320825181559251805192938493909262002b589260018501929101906200357a565b506040820151805162002b7691600284019160209091019062003623565b5050600e80546001810182556000919091527fbb7b4a454dc3493923482f07822329ed19e8244eff582cc204f8554c3620c3fd01849055506040517ff73cee28a98c20f23a903356ab57dc8c514e66b0488c994b09dec06f978c839b9062002be2908590889062004197565b60405180910390a150909392505050565b6000526006602052565b60005b600b5481101562000d4d576000600b828154811062002c1b57fe5b9060005260206000200160009054906101000a90046001600160a01b03169050606060036000836001600160a01b031663f680a7bd6040518163ffffffff1660e01b815260040160206040518083038186803b15801562002c7b57600080fd5b505afa15801562002c90573d6000803e3d6000fd5b505050506040513d601f19601f8201168201806040525062002cb69190810190620038e5565b81526020019081526020016000206001018054600181600116156101000203166002900480601f01602080910402602001604051908101604052809291908181526020018280546001816001161561010002031660029004801562002d5f5780601f1062002d335761010080835404028352916020019162002d5f565b820191906000526020600020905b81548152906001019060200180831162002d4157829003601f168201915b50505050509050606060046000846001600160a01b031663596ada676040518163ffffffff1660e01b815260040160206040518083038186803b15801562002da657600080fd5b505afa15801562002dbb573d6000803e3d6000fd5b505050506040513d601f19601f8201168201806040525062002de19190810190620038e5565b81526020019081526020016000206001018054600181600116156101000203166002900480601f01602080910402602001604051908101604052809291908181526020018280546001816001161561010002031660029004801562002e8a5780601f1062002e5e5761010080835404028352916020019162002e8a565b820191906000526020600020905b81548152906001019060200180831162002e6c57829003601f168201915b505050505090506000836001600160a01b031663763032896040518163ffffffff1660e01b815260040160206040518083038186803b15801562002ecd57600080fd5b505afa15801562002ee2573d6000803e3d6000fd5b505050506040513d601f19601f8201168201806040525062002f089190810190620038e5565b111562003377577f04653ea398522e1f547b141c4f7c0274d3527ae0b221c0cebf77651997c809e1838383866001600160a01b03166306fdde036040518163ffffffff1660e01b815260040160006040518083038186803b15801562002f6d57600080fd5b505afa15801562002f82573d6000803e3d6000fd5b505050506040513d6000823e601f3d908101601f1916820160405262002fac919081019062003950565b876001600160a01b0316631be37f406040518163ffffffff1660e01b815260040160206040518083038186803b15801562002fe657600080fd5b505afa15801562002ffb573d6000803e3d6000fd5b505050506040513d601f19601f82011682018060405250620030219190810190620038e5565b886001600160a01b031663596ada676040518163ffffffff1660e01b815260040160206040518083038186803b1580156200305b57600080fd5b505afa15801562003070573d6000803e3d6000fd5b505050506040513d601f19601f82011682018060405250620030969190810190620038e5565b896001600160a01b031663f680a7bd6040518163ffffffff1660e01b815260040160206040518083038186803b158015620030d057600080fd5b505afa158015620030e5573d6000803e3d6000fd5b505050506040513d601f19601f820116820180604052506200310b9190810190620038e5565b8a6001600160a01b031663aa8c217c6040518163ffffffff1660e01b815260040160206040518083038186803b1580156200314557600080fd5b505afa1580156200315a573d6000803e3d6000fd5b505050506040513d601f19601f82011682018060405250620031809190810190620038e5565b8b6001600160a01b031663a968991b6040518163ffffffff1660e01b815260040160206040518083038186803b158015620031ba57600080fd5b505afa158015620031cf573d6000803e3d6000fd5b505050506040513d601f19601f82011682018060405250620031f59190810190620038a3565b8c6001600160a01b0316634a86d8c56040518163ffffffff1660e01b815260040160206040518083038186803b1580156200322f57600080fd5b505afa15801562003244573d6000803e3d6000fd5b505050506040513d601f19601f820116820180604052506200326a9190810190620038e5565b8d6001600160a01b031663bb90ebac6040518163ffffffff1660e01b815260040160206040518083038186803b158015620032a457600080fd5b505afa158015620032b9573d6000803e3d6000fd5b505050506040513d601f19601f82011682018060405250620032df9190810190620038e5565b8e6001600160a01b031663763032896040518163ffffffff1660e01b815260040160206040518083038186803b1580156200331957600080fd5b505afa1580156200332e573d6000803e3d6000fd5b505050506040513d601f19601f82011682018060405250620033549190810190620038e5565b6040516200336e9c9b9a9998979695949392919062003fcf565b60405180910390a15b50505060010162002c00565b600081815260036020526040908190209051606091907fa1c275d9147cd4bbf3a6fc6b01df2bdad7272d62a5bea8ea5f90e20e7c3f48e990620033cb906004840190620040c2565b60405180910390a160005b60048201548110156200345e577f35b7f39ce99df9443c69ab69269e1ae96c0add252abdcce625838b4c386c6236600a60008460040184815481106200341857fe5b60009182526020808320909101546001600160a01b03168352820192909252604090810190912090516200344d9190620041ce565b60405180910390a1600101620033d6565b508060040180548060200260200160405190810160405280929190818152602001828054801562000e81576020028201919060005260206000209081546001600160a01b0316815260019091019060200180831162000e62575050505050915050919050565b6060600d805480602002602001604051908101604052809291908181526020018280548015620004e55760200282019190600052602060002090815481526020019060010190808311620004d0575050505050905090565b600055565b61062180620043c983390190565b604080516101208101825260008082526020820181905291810182905260608082018390526080820183905260a082015260c0810182905260e0810182905261010081019190915290565b828054600181600116156101000203166002900490600052602060002090601f016020900481019282601f10620035bd57805160ff1916838001178555620035ed565b82800160010185558215620035ed579182015b82811115620035ed578251825591602001919060010190620035d0565b50620035fb929150620036f8565b5090565b60405180606001604052806000801916815260200160608152602001606081525090565b828054828255906000526020600020908101928215620035ed5791602002820182811115620035ed578251825591602001919060010190620035d0565b6040518060a0016040528060008019168152602001606081526020016060815260200160608152602001606081525090565b828054828255906000526020600020908101928215620036ea579160200282015b82811115620036ea57825182546001600160a01b0319166001600160a01b03909116178255602090920191600190910190620036b3565b50620035fb92915062003715565b620004ed91905b80821115620035fb5760008155600101620036ff565b620004ed91905b80821115620035fb5780546001600160a01b03191681556001016200371c565b803562001eeb816200439b565b803562001eeb81620043b2565b805162001eeb81620043b2565b803562001eeb81620043bd565b805162001eeb81620043bd565b600082601f8301126200378f57600080fd5b8151620037a6620037a0826200427f565b62004257565b91508082526020830160208301858383011115620037c357600080fd5b620037d083828462004300565b50505092915050565b600082601f830112620037eb57600080fd5b8135620037fc620037a0826200427f565b915080825260208301602083018583830111156200381957600080fd5b620037d0838284620042f4565b6000602082840312156200383957600080fd5b60006200384784846200373c565b949350505050565b6000806000606084860312156200386557600080fd5b60006200387386866200373c565b9350506020620038868682870162003763565b9250506040620038998682870162003749565b9150509250925092565b600060208284031215620038b657600080fd5b600062003847848462003756565b600060208284031215620038d757600080fd5b600062003847848462003763565b600060208284031215620038f857600080fd5b600062003847848462003770565b6000806000606084860312156200391c57600080fd5b60006200392a868662003763565b93505060206200393d8682870162003763565b9250506040620038998682870162003763565b6000602082840312156200396357600080fd5b815167ffffffffffffffff8111156200397b57600080fd5b62003847848285016200377d565b6000602082840312156200399c57600080fd5b813567ffffffffffffffff811115620039b457600080fd5b6200384784828501620037d9565b60008060408385031215620039d657600080fd5b823567ffffffffffffffff811115620039ee57600080fd5b620039fc85828601620037d9565b925050602062003a0f8582860162003763565b9150509250929050565b6000806000806080858703121562003a3057600080fd5b843567ffffffffffffffff81111562003a4857600080fd5b62003a5687828801620037d9565b945050602062003a698782880162003763565b935050604062003a7c8782880162003763565b925050606062003a8f8782880162003763565b91505092959194509250565b600062003aa9838362003abf565b505060200190565b600062003aa9838362003d29565b62003aca81620042e2565b82525050565b62003aca62003adf82620042e2565b6200435b565b600062003af282620042ba565b62003afe8185620042c8565b935062003b0b83620042a8565b8060005b8381101562003b3f57815162003b26888262003a9b565b975062003b3383620042a8565b92505060010162003b0f565b509495945050505050565b600062003b5782620042ba565b62003b638185620042c8565b935062003b7083620042a8565b8060005b8381101562003b3f57815162003b8b888262003a9b565b975062003b9883620042a8565b92505060010162003b74565b600062003bb182620042be565b62003bbd8185620042c8565b935062003bca83620042ae565b8060005b8381101562003b3f5762003be2826200436f565b62003bee888262003a9b565b975062003bfb83620042c2565b92505060010162003bce565b600062003c1482620042ba565b62003c208185620042c8565b935062003c2d83620042a8565b8060005b8381101562003b3f57815162003c48888262003ab1565b975062003c5583620042a8565b92505060010162003c31565b600062003c6e82620042ba565b62003c7a8185620042c8565b935062003c8783620042a8565b8060005b8381101562003b3f57815162003ca2888262003ab1565b975062003caf83620042a8565b92505060010162003c8b565b600062003cc882620042be565b62003cd48185620042c8565b935062003ce183620042ae565b8060005b8381101562003b3f5762003cf9826200437d565b62003d05888262003ab1565b975062003d1283620042c2565b92505060010162003ce5565b62003aca81620042ef565b62003aca81620004ed565b62003aca62003d4382620004ed565b620004ed565b600062003d5682620042ba565b62003d628185620042c8565b935062003d7481856020860162004300565b62003d7f816200438b565b9093019392505050565b600062003d9682620042ba565b62003da28185620042d1565b935062003db481856020860162004300565b9290920192915050565b60008154600181166000811462003dde576001811462003e075762003e4c565b607f600283041662003df18187620042c8565b60ff198416815295505060208501925062003e4c565b6002820462003e178187620042c8565b955062003e2485620042ae565b60005b8281101562003e455781548882015260019091019060200162003e27565b8701945050505b505092915050565b600062003e63601683620042c8565b7510db185a5b481dd85cc81b9bdd0815995c9a599a595960521b815260200192915050565b805160009060a084019062003e9e858262003d29565b506020830151848203602086015262003eb8828262003d49565b9150506040830151848203604086015262003ed4828262003b4a565b9150506060830151848203606086015262003ef0828262003b4a565b9150506080830151848203608086015262003f0c828262003b4a565b95945050505050565b8051600090606084019062003f2b858262003d29565b506020830151848203602086015262003f45828262003d49565b9150506040830151848203604086015262003f0c828262003c61565b600062003f6f828462003ad0565b50601401919050565b60006200221d828462003d89565b600062003f94828662003d89565b915062003fa2828562003d34565b60208201915062003fb4828462003d34565b506020019392505050565b6020810162001eeb828462003abf565b610180810162003fe0828f62003abf565b818103602083015262003ff4818e62003d49565b905081810360408301526200400a818d62003d49565b9050818103606083015262004020818c62003d49565b905062004031608083018b62003d29565b6200404060a083018a62003d29565b6200404f60c083018962003d29565b6200405e60e083018862003d29565b6200406e61010083018762003d1e565b6200407e61012083018662003d29565b6200408e61014083018562003d29565b6200409e61016083018462003d29565b9d9c50505050505050505050505050565b602080825281016200221d818462003ae5565b602080825281016200221d818462003ba4565b602080825281016200221d818462003c07565b602080825281016200221d818462003cbb565b6020810162001eeb828462003d1e565b6020810162001eeb828462003d29565b604081016200412b828562003d29565b6200221d602083018462003abf565b60a081016200414a828862003d29565b62004159602083018762003d29565b62004168604083018662003d29565b81810360608301526200417c818562003d49565b90506200418d608083018462003d29565b9695505050505050565b60408101620041a7828562003d29565b818103602083015262003847818462003d49565b602080825281016200221d818462003d49565b602080825281016200221d818462003dbe565b6020808252810162001eeb8162003e54565b602080825281016200221d818462003e88565b602080825281016200221d818462003f15565b6040810162004229828562003d29565b6200221d602083018462003d1e565b6040810162004248828562003d29565b6200221d602083018462003d29565b60405181810167ffffffffffffffff811182821017156200427757600080fd5b604052919050565b600067ffffffffffffffff8211156200429757600080fd5b506020601f91909101601f19160190565b60200190565b60009081526020902090565b5190565b5490565b60010190565b90815260200190565b919050565b6001600160a01b031690565b600062001eeb82620042d6565b151590565b82818337506000910152565b60005b838110156200431d57818101518382015260200162004303565b838111156200432d576000848401525b50505050565b600062001eeb6200434483620004ed565b620042d6565b600062001eeb62003d4383620004ed565b600062001eeb82600062001eeb8262004395565b600062001eeb825462004333565b600062001eeb82546200434a565b601f01601f191690565b60601b90565b620043a681620042e2565b811462000d4d57600080fd5b620043a681620042ef565b620043a681620004ed56fe608060405234801561001057600080fd5b50604051610621380380610621833981810160405260a081101561003357600080fd5b81516020830151604080850151606086018051925194969395919493918201928464010000000082111561006657600080fd5b90830190602082018581111561007b57600080fd5b825164010000000081118282018810171561009557600080fd5b82525081516020918201929091019080838360005b838110156100c25781810151838201526020016100aa565b50505050905090810190601f1680156100ef5780820380516001836020036101000a031916815260200191505b50604052602090810151600188905560028790556003869055845190935061011d925060049185019061012b565b50600755506101c692505050565b828054600181600116156101000203166002900490600052602060002090601f016020900481019282601f1061016c57805160ff1916838001178555610199565b82800160010185558215610199579182015b8281111561019957825182559160200191906001019061017e565b506101a59291506101a9565b5090565b6101c391905b808211156101a557600081556001016101af565b90565b61044c806101d56000396000f3fe608060405234801561001057600080fd5b506004361061010b5760003560e01c806376303289116100a2578063b95e216c11610071578063b95e216c14610282578063bb90ebac1461028a578063cdb73ac014610292578063d321fe29146102af578063f680a7bd146102b75761010b565b80637630328914610231578063a968991b14610239578063aa8c217c14610255578063b46498061461025d5761010b565b80633a50ed13116100de5780633a50ed13146101e75780633f02907a146102045780634a86d8c514610221578063596ada67146102295761010b565b806306fdde03146101105780631be37f401461018d57806334d6093d146101a757806337e94726146101c4575b600080fd5b6101186102bf565b6040805160208082528351818301528351919283929083019185019080838360005b8381101561015257818101518382015260200161013a565b50505050905090810190601f16801561017f5780820380516001836020036101000a031916815260200191505b509250505060405180910390f35b61019561034d565b60408051918252519081900360200190f35b610195600480360360208110156101bd57600080fd5b5035610353565b610195600480360360408110156101da57600080fd5b508035906020013561035b565b610195600480360360208110156101fd57600080fd5b50356103aa565b6101956004803603602081101561021a57600080fd5b50356103b2565b6101956103ba565b6101956103c0565b6101956103c6565b6102416103cc565b604080519115158252519081900360200190f35b6101956103d5565b6102416004803603604081101561027357600080fd5b508035906020013515156103db565b6101956103f7565b6101956103fd565b610195600480360360208110156102a857600080fd5b5035610403565b61019561040b565b610195610411565b6004805460408051602060026001851615610100026000190190941693909304601f810184900484028201840190925281815292918301828280156103455780601f1061031a57610100808354040283529160200191610345565b820191906000526020600020905b81548152906001019060200180831161032857829003601f168201915b505050505081565b60035481565b600581905590565b60088190556005829055604080518381526020810183905281516000927fb8a98a6fb70ae0797c19a04e7cdbbb481db2c659e5a075550c85bbff58c12935928290030190a15060055492915050565b600081905590565b600181905590565b60075481565b60015481565b60095481565b60065460ff1681565b60055481565b6009919091556006805460ff1916911515919091179055600190565b60005481565b60085481565b600281905590565b60055490565b6002548156fea265627a7a72315820d75d5ed36e9b1a27d6c21e61fe45b8b7b8500cc022958951f717783eb21dd55764736f6c634300050b0032a365627a7a72315820acdee8df72f29836dc3760e9aac1f925615d6005afcdca2c73723cdfba9f6a0c6c6578706572696d656e74616cf564736f6c634300050b0040",
  "source": "pragma solidity ^0.5.0;\npragma experimental ABIEncoderV2;\nimport \"./SafeMath.sol\";\nimport \"./ServiceClaim.sol\";\ncontract Organizations {\n    uint admin;\n    uint256 claimId; //Max value of the number of claims made\n    uint storedData; //Miscellaneous data\n    mapping (bytes32=>Patient) public patientMap; //ID of patient to specific provider -\n    mapping (bytes32=>Provider) public providerMap; //ID of provider to specific provider -\n    mapping (bytes32=>Insurer) public insurerMap; //ID of insurance provider to specific insurer\n    mapping (bytes32=>address) public serviceClaimsMap; //ID of serviceClaim to the specific ServiceClaim contract instance\n    mapping (address=>string) public serviceName;\n    //Events for organization creation    event ServiceCreated(address serviceClaimAddr);\n    event SCID(bytes32 ID, address addr);\n    event ClaimCreated(uint256 id, uint256 amount);\n    event ClaimVerified(address addr);\n    event PatientCreated(bytes32 id, string name);\n    event ProviderCreated(bytes32 id, string name);\n    event InsurerCreated(bytes32 id, string name);\n    event PatientRetrieval(Patient patient);\n    event ProviderRetrieval(Provider provider);\n    event ServiceClaimInfo(\n        address addr, string patientname, string providername, string claimname, bytes32 id,\n        bytes32 provider, bytes32 patient, uint256 amount, bool confirmed, uint256 timeProvided, uint256 timeFiled, uint256 timeVerified);\n    //event patientList(Patient[] patients);\n    //event providerList(Provider[] providers);\n    //event insurerList(Insurer[] insurers);\n    event idList(bytes32[] ids);\n    event serviceList(address[] services);\n    event SCName(string name);\n    event SCEvent(SC);\n    struct SC {\n        address scAddr;\n        bytes32 id;\n        bytes32 insurerID;\n        bytes32 providerID;\n        bytes32 patientID;\n        string name;\n        uint256 amount;\n        bool verified;\n        bool paid;\n    }\n    bytes32 globalInsurerID;\n  \n    SC[] scs;\n    mapping (address=>string) SCMap;\n    address[] SCList;\n    bytes32[] patientList;\n    bytes32[] providerList;\n    bytes32[] insurerList;\n    bytes32[] claimList;\n\n    struct Patient {\n        bytes32 id;\n        string name;\n        //mapping (address=>string) SCMap;\n        address[] unclaimedServices;\n        address[] unverifiedClaims;\n        address[] verifiedClaims;\n    }\n    struct Provider {\n        bytes32 id;\n        string name;\n        bytes32[] patients;\n    }\n    struct Insurer {\n        bytes32 id;\n        string name;\n        bytes32[] providers;\n    }\n    constructor() public {\n        preLoadInfo();\n    }\n    function preLoadInfo() public{\n        bytes32 insurerID = addInsurer(\"CMS\");\n        bytes32 providerID = addProvider(\"UCSD Medical\", insurerID);\n        addPatient(\"Ken\", providerID);\n        addPatient(\"Danny\", providerID);\n        addPatient(\"Antonio\", providerID);\n    }\n    // ------------------------------ Adds Users to Network --------------------------- //\n    /** @dev add a patient to the network\n    @param _name is the name of the patient\n    @param _providerID is the current provider of the patient\n    @return pID is a bytes32 represented id number for the patient\n    */\n    function addPatient(string memory _name, bytes32 _providerID) public returns(bytes32 pID) {\n        bytes32 id = keccak256(abi.encodePacked(_name));\n        address[] memory uServiceList;\n        address[] memory uClaimList;\n        address[] memory vClaimList;\n        Patient memory newPatient = Patient(id, _name, uServiceList, uClaimList, vClaimList);\n        //bytes32 patientHash = keccak256(abi.encodePacked(newPatient));\n        patientMap[id] = newPatient;\n        patientList.push(id);\n        providerMap[_providerID].patients.push(newPatient.id);\n        emit PatientCreated(id, _name);\n        return id;\n    }\n    function getPatients() public view returns(bytes32[] memory nice) {\n        return patientList;\n    }\n    /** @dev add a provider to the network\n    @param _name name of the provider\n    @param _insurerID id of insurance provider\n    @return the pID of the health provider -\n     */\n    function addProvider(string memory _name, bytes32 _insurerID) public returns(bytes32 pID) {\n        bytes32 id = keccak256(abi.encodePacked(_name));\n        bytes32[] memory emptyList;\n        Provider memory newProvider = Provider(id, _name, emptyList);\n        //bytes32 providerHash = keccak256(abi.encodePacked(newProvider));\n        providerMap[id] = newProvider;\n        insurerMap[_insurerID].providers.push(newProvider.id);\n        providerList.push(id);\n        emit ProviderCreated(id, _name);\n        return id;\n    }\n    function getProviders() public view returns(bytes32[] memory nice) {\n        return providerList;\n    }\n    /** @dev add an insurnace provider to the network\n    @param _name the name of the insurance provider\n    @return pID of the insurance provider\n    */\n    function addInsurer(string memory _name) public returns(bytes32 pID) {\n        bytes32 id = keccak256(abi.encodePacked(_name));\n        bytes32[] memory emptyList;\n        Insurer memory newInsurer = Insurer(id, _name, emptyList);\n        //bytes32 insurerHash = keccak256(abi.encodePacked(newInsurer));\n        insurerMap[id] = newInsurer;\n        insurerList.push(id);\n        emit InsurerCreated(id, _name);\n        return id;\n    }\n    function getInsurers() public view returns(bytes32[] memory nice) {\n        return insurerList;\n    }\n    // ------------------------------ Functionality of the Network --------------------------- //\n    /** @dev create an instance of a ServiceClaim contract\n    @param _name name of the service\n    @param _providerID provider ID\n    @param _patientID patient ID\n    @return serviceContractHash is the id of the ServiceClaim contract\n    */\n    function provideService(string memory _name, bytes32 _providerID, bytes32 _patientID, uint256 _timeProvided) public \n    returns(bytes32 serviceContractHash) {\n        bytes32 id = keccak256(abi.encodePacked(_name, _providerID, _patientID));\n        ServiceClaim serviceClaim = new ServiceClaim(_providerID, _patientID, id, _name, _timeProvided);\n        bytes32 serviceClaimID = keccak256(abi.encodePacked(address(serviceClaim)));\n        SC memory scObj = SC(address(serviceClaim), serviceClaimID, globalInsurerID, _providerID, _patientID, _name, 0, false, false);\n        scs.push(scObj);\n        serviceClaimsMap[serviceClaimID] = address(serviceClaim);\n        Patient storage patient = patientMap[_patientID];\n        //patient.unverifiedClaims.push(address(serviceClaim));\n        //SC memory newSC = SC(_name, address(serviceClaim));\n        patient.unclaimedServices.push(address(serviceClaim));\n        serviceName[address(serviceClaim)] = _name;\n        SCMap[address(serviceClaim)] = _name;\n        SCList.push(address(serviceClaim));\n        emit SCID(serviceClaimID, address(serviceClaim));\n        return serviceClaimID;\n    }\n    /** @dev add a claim to a ServiceClaim contract i.e. the provider wants to file a claim for a service rendered\n    @param _serviceClaimID the ID of the ServiceClaim contract\n    @param _amount the amount to be claimed by the provider\n    @return ClaimID the ID of the claim\n    */\n    function fileClaim(bytes32 _serviceClaimID, uint256 _amount, uint256 _timeProvided) public returns(uint256 ClaimID) {\n        //Patient storage cPatient = patientMap[_patient];\n        ServiceClaim myServiceClaim = ServiceClaim(serviceClaimsMap[_serviceClaimID]);\n        uint256 newClaimID = myServiceClaim.fileClaim(_amount, _timeProvided);\n        bytes32 patID = myServiceClaim.patientID();\n        Patient storage cP = patientMap[patID];\n        claimList.push(_serviceClaimID);\n        for(uint i = 0; i < cP.unclaimedServices.length; i++){\n            if(cP.unclaimedServices[i] == address(myServiceClaim)){\n                delete(cP.unclaimedServices[i]);\n                break;\n            }\n        }\n        // string memory name = myServiceClaim.name();\n        //SC memory newSC = SC(name, address(myServiceClaim));\n        cP.unverifiedClaims.push(address(myServiceClaim));\n        emit ClaimCreated(newClaimID, _amount);\n        //emit SCEvent(newSC);\n        return newClaimID;\n    }\n \n    /** @dev invoke the verifyClaim function in the ServiceClaim contract\n    @param _serviceClaimID the id of the ServiceClaim contract\n    */\n    /** @dev invoke the verifyClaim function in the ServiceClaim contract\n    @param _serviceClaimAddress the address of the ServiceClaim contract\n    */\n    function verifyClaim(address _serviceClaimAddress, uint256 _timeVerified, bool _confirmed) public {\n        ServiceClaim myServiceClaim = ServiceClaim(_serviceClaimAddress);\n        require(myServiceClaim.verifyClaim(_timeVerified, _confirmed), \"Claim was not Verified\");\n        // Add the claim address to verified list\n        // Delete the claim address from unverified list\n        bytes32 patID = myServiceClaim.patientID();\n        Patient storage cP = patientMap[patID];\n        for(uint i = 0; i < cP.unverifiedClaims.length; i++){\n            if(cP.unverifiedClaims[i] == address(myServiceClaim)){\n                delete(cP.unverifiedClaims[i]);\n                break;\n            }\n        }\n        //string memory name = myServiceClaim.name();\n        //SC memory newSC = SC(name, address(myServiceClaim));\n        cP.verifiedClaims.push(address(myServiceClaim));\n        emit ClaimVerified(_serviceClaimAddress);\n    }\n    /** @dev invoke the payProvider function in the ServiceClaim contract\n    @param _serviceClaimID the id of the ServiceClaim contract\n    */\n    function payProvider(bytes32 _serviceClaimID) public {\n        //require(_serviceClaim.claim().verified == true, \"User has not verified service\");\n        ServiceClaim myServiceClaim = ServiceClaim(serviceClaimsMap[_serviceClaimID]);\n        // myServiceClaim.payProvider();\n    }\n    // ------------------------------ Getters of Network Data --------------------------- //\n    function patientsOfProvider(bytes32 _id) public returns (bytes32[] memory) {\n        Provider storage cP = providerMap[_id];\n        emit idList(cP.patients);\n        return(cP.patients);\n    }\n    function providersOfInsurer(bytes32 _id) public returns (bytes32[] memory) {\n        Insurer storage cI = insurerMap[_id];\n        emit idList(cI.providers);\n        return(cI.providers);\n    }\n    function getPatient(bytes32 _id) public returns (bool){\n        Patient memory patient = patientMap[_id];\n        emit PatientRetrieval(patient);\n        return true;\n    }\n    function getProvider(bytes32 _id) public returns (Provider memory){\n        Provider memory provider = providerMap[_id];\n        emit ProviderRetrieval(provider);\n        return providerMap[_id];\n    }\n    function patientUnclaimedServices(bytes32 _id) public returns (address[] memory){\n        Patient storage cP = patientMap[_id];\n        emit serviceList(cP.unclaimedServices);\n        for(uint i = 0; i < cP.unclaimedServices.length; i++){\n            emit SCName(SCMap[cP.unclaimedServices[i]]);\n        }\n        return(cP.unclaimedServices);\n        // address[] memory a;\n        // return a;\n    }\n    function patientUnverifiedClaims(bytes32 _id) public returns (address[] memory){\n        Patient storage cP = patientMap[_id];\n        //bytes32[] memory claimNames = new bytes32[](cP.unverifiedClaims.length);\n        for(uint i = 0; i < cP.unverifiedClaims.length; i++){\n            emit SCName(SCMap[cP.unverifiedClaims[i]]);\n        }\n        emit serviceList(cP.unverifiedClaims);\n        return(cP.unverifiedClaims);\n        // address[] memory a;\n        // return a;\n    }\n    function patientVerifiedClaims(bytes32 _id) public returns (address[] memory){\n        Patient storage cP = patientMap[_id];\n        emit serviceList(cP.verifiedClaims);\n        for(uint i = 0; i < cP.verifiedClaims.length; i++){\n            emit SCName(SCMap[cP.verifiedClaims[i]]);\n        }\n        return(cP.verifiedClaims);\n        // address[] memory a;\n        // return a;\n    }\n    function setAdmin(uint _num) public {\n        admin = _num;\n    }\n    function getAdmin() public view returns (uint) {\n        return admin;\n    }\n    //   event ServiceClaimInfo(address addr, bytes32 id, bytes32 provider, bytes32 patient, uint256 amount, bool verified, bool payed);\n    function getAllServices() public {\n        for (uint i = 0; i < SCList.length; i++) {\n            ServiceClaim sc = ServiceClaim(SCList[i]);\n            string memory patientname = patientMap[sc.patientID()].name;\n            string memory providername = providerMap[sc.providerID()].name;\n            if(sc.timeProvided() > 0){\n                emit ServiceClaimInfo(\n                address(sc), patientname, providername, sc.name(), sc.serviceClaimID(), sc.providerID(), sc.patientID(), sc.amount(), sc.confirmed(), sc.timeProvided(), sc.timeFiled(), sc.timeVerified());\n            }\n        }\n    }\n    function getAllVerifiedServices() public {\n        for (uint i = 0; i < SCList.length; i++) {\n            ServiceClaim sc = ServiceClaim(SCList[i]);\n            string memory patientname = patientMap[sc.patientID()].name;\n            string memory providername = providerMap[sc.providerID()].name;\n            if (sc.timeVerified() > 0) {\n                emit ServiceClaimInfo(address(sc), patientname, providername, sc.name(), sc.serviceClaimID(), sc.providerID(), sc.patientID(), sc.amount(), sc.confirmed(), sc.timeProvided(), sc.timeFiled(), sc.timeVerified());\n            }\n        }\n    }\n    function getAllUnverifiedServices() public {\n        for (uint i = 0; i < SCList.length; i++) {\n            ServiceClaim sc = ServiceClaim(SCList[i]);\n            string memory patientname = patientMap[sc.patientID()].name;\n            string memory providername = providerMap[sc.providerID()].name;\n            if (sc.timeFiled() > 0 && sc.timeVerified() == 0) {\n                emit ServiceClaimInfo(address(sc), patientname, providername, sc.name(), sc.serviceClaimID(), sc.providerID(), sc.patientID(), sc.amount(), sc.confirmed(), sc.timeProvided(), sc.timeFiled(), sc.timeVerified());\n            }\n        }\n    }\n}\n",
  "sourcePath": "/Users/danny/sdsc-blocklab/Medicare-Claim-Verification/contracts/Organizations.sol",
  "compiler": {
    "name": "solc",
    "version": "0.5.11+commit.c082d0b4.Emscripten.clang"
  },
  "schemaVersion": "3.0.16",
  "updatedAt": "2019-10-03T20:25:51.899Z",
  "devdoc": {
    "methods": {
      "addInsurer(string)": {
        "details": "add an insurnace provider to the network",
        "params": {
          "_name": "the name of the insurance provider"
        },
        "return": "pID of the insurance provider"
      },
      "addPatient(string,bytes32)": {
        "details": "add a patient to the network",
        "params": {
          "_name": "is the name of the patient",
          "_providerID": "is the current provider of the patient"
        },
        "return": "pID is a bytes32 represented id number for the patient"
      },
      "addProvider(string,bytes32)": {
        "details": "add a provider to the network",
        "params": {
          "_insurerID": "id of insurance provider",
          "_name": "name of the provider"
        },
        "return": "the pID of the health provider -"
      },
      "fileClaim(bytes32,uint256,uint256)": {
        "details": "add a claim to a ServiceClaim contract i.e. the provider wants to file a claim for a service rendered",
        "params": {
          "_amount": "the amount to be claimed by the provider",
          "_serviceClaimID": "the ID of the ServiceClaim contract"
        },
        "return": "ClaimID the ID of the claim"
      },
      "payProvider(bytes32)": {
        "details": "invoke the payProvider function in the ServiceClaim contract",
        "params": {
          "_serviceClaimID": "the id of the ServiceClaim contract"
        }
      },
      "provideService(string,bytes32,bytes32,uint256)": {
        "details": "create an instance of a ServiceClaim contract",
        "params": {
          "_name": "name of the service",
          "_patientID": "patient ID",
          "_providerID": "provider ID"
        },
        "return": "serviceContractHash is the id of the ServiceClaim contract"
      },
      "verifyClaim(address,uint256,bool)": {
        "details": "invoke the verifyClaim function in the ServiceClaim contract",
        "params": {
          "_serviceClaimAddress": "the address of the ServiceClaim contract"
        }
      }
    }
  },
  "userdoc": {
    "methods": {}
  }
}