{
  "contractName": "Organizations",
  "abi": [
    {
      "inputs": [
        {
          "internalType": "address",
          "name": "_tokenAddr",
          "type": "address"
        }
      ],
      "payable": false,
      "stateMutability": "nonpayable",
      "type": "constructor"
    },
    {
      "anonymous": false,
      "inputs": [
        {
          "indexed": false,
          "internalType": "uint256",
          "name": "id",
          "type": "uint256"
        },
        {
          "indexed": false,
          "internalType": "uint256",
          "name": "amount",
          "type": "uint256"
        }
      ],
      "name": "ClaimCreated",
      "type": "event"
    },
    {
      "anonymous": false,
      "inputs": [
        {
          "indexed": false,
          "internalType": "address",
          "name": "addr",
          "type": "address"
        }
      ],
      "name": "ClaimVerified",
      "type": "event"
    },
    {
      "anonymous": false,
      "inputs": [
        {
          "indexed": false,
          "internalType": "bytes32",
          "name": "id",
          "type": "bytes32"
        },
        {
          "indexed": false,
          "internalType": "string",
          "name": "name",
          "type": "string"
        }
      ],
      "name": "InsurerCreated",
      "type": "event"
    },
    {
      "anonymous": false,
      "inputs": [
        {
          "indexed": false,
          "internalType": "bytes32",
          "name": "id",
          "type": "bytes32"
        },
        {
          "indexed": false,
          "internalType": "string",
          "name": "name",
          "type": "string"
        }
      ],
      "name": "PatientCreated",
      "type": "event"
    },
    {
      "anonymous": false,
      "inputs": [
        {
          "components": [
            {
              "internalType": "bytes32",
              "name": "id",
              "type": "bytes32"
            },
            {
              "internalType": "string",
              "name": "name",
              "type": "string"
            },
            {
              "internalType": "address[]",
              "name": "unclaimedServices",
              "type": "address[]"
            },
            {
              "internalType": "address[]",
              "name": "unverifiedClaims",
              "type": "address[]"
            },
            {
              "internalType": "address[]",
              "name": "verifiedClaims",
              "type": "address[]"
            }
          ],
          "indexed": false,
          "internalType": "struct Organizations.Patient",
          "name": "patient",
          "type": "tuple"
        }
      ],
      "name": "PatientRetrieval",
      "type": "event"
    },
    {
      "anonymous": false,
      "inputs": [
        {
          "indexed": false,
          "internalType": "bytes32",
          "name": "id",
          "type": "bytes32"
        },
        {
          "indexed": false,
          "internalType": "string",
          "name": "name",
          "type": "string"
        }
      ],
      "name": "ProviderCreated",
      "type": "event"
    },
    {
      "anonymous": false,
      "inputs": [
        {
          "components": [
            {
              "internalType": "bytes32",
              "name": "id",
              "type": "bytes32"
            },
            {
              "internalType": "string",
              "name": "name",
              "type": "string"
            },
            {
              "internalType": "bytes32[]",
              "name": "patients",
              "type": "bytes32[]"
            }
          ],
          "indexed": false,
          "internalType": "struct Organizations.Provider",
          "name": "provider",
          "type": "tuple"
        }
      ],
      "name": "ProviderRetrieval",
      "type": "event"
    },
    {
      "anonymous": false,
      "inputs": [
        {
          "components": [
            {
              "internalType": "address",
              "name": "scAddr",
              "type": "address"
            },
            {
              "internalType": "bytes32",
              "name": "id",
              "type": "bytes32"
            },
            {
              "internalType": "bytes32",
              "name": "insurerID",
              "type": "bytes32"
            },
            {
              "internalType": "bytes32",
              "name": "providerID",
              "type": "bytes32"
            },
            {
              "internalType": "bytes32",
              "name": "patientID",
              "type": "bytes32"
            },
            {
              "internalType": "string",
              "name": "name",
              "type": "string"
            },
            {
              "internalType": "uint256",
              "name": "amount",
              "type": "uint256"
            },
            {
              "internalType": "bool",
              "name": "verified",
              "type": "bool"
            },
            {
              "internalType": "bool",
              "name": "paid",
              "type": "bool"
            }
          ],
          "indexed": false,
          "internalType": "struct Organizations.SC",
          "name": "",
          "type": "tuple"
        }
      ],
      "name": "SCEvent",
      "type": "event"
    },
    {
      "anonymous": false,
      "inputs": [
        {
          "indexed": false,
          "internalType": "bytes32",
          "name": "ID",
          "type": "bytes32"
        },
        {
          "indexed": false,
          "internalType": "address",
          "name": "addr",
          "type": "address"
        }
      ],
      "name": "SCID",
      "type": "event"
    },
    {
      "anonymous": false,
      "inputs": [
        {
          "indexed": false,
          "internalType": "string",
          "name": "name",
          "type": "string"
        }
      ],
      "name": "SCName",
      "type": "event"
    },
    {
      "anonymous": false,
      "inputs": [
        {
          "indexed": false,
          "internalType": "address",
          "name": "addr",
          "type": "address"
        },
        {
          "indexed": false,
          "internalType": "string",
          "name": "patientname",
          "type": "string"
        },
        {
          "indexed": false,
          "internalType": "string",
          "name": "providername",
          "type": "string"
        },
        {
          "indexed": false,
          "internalType": "string",
          "name": "claimname",
          "type": "string"
        },
        {
          "indexed": false,
          "internalType": "bytes32",
          "name": "id",
          "type": "bytes32"
        },
        {
          "indexed": false,
          "internalType": "bytes32",
          "name": "provider",
          "type": "bytes32"
        },
        {
          "indexed": false,
          "internalType": "bytes32",
          "name": "patient",
          "type": "bytes32"
        },
        {
          "indexed": false,
          "internalType": "uint256",
          "name": "amount",
          "type": "uint256"
        },
        {
          "indexed": false,
          "internalType": "bool",
          "name": "confirmed",
          "type": "bool"
        },
        {
          "indexed": false,
          "internalType": "uint256",
          "name": "timeProvided",
          "type": "uint256"
        },
        {
          "indexed": false,
          "internalType": "uint256",
          "name": "timeFiled",
          "type": "uint256"
        },
        {
          "indexed": false,
          "internalType": "uint256",
          "name": "timeVerified",
          "type": "uint256"
        }
      ],
      "name": "ServiceClaimInfo",
      "type": "event"
    },
    {
      "anonymous": false,
      "inputs": [
        {
          "indexed": false,
          "internalType": "bytes32[]",
          "name": "ids",
          "type": "bytes32[]"
        }
      ],
      "name": "idList",
      "type": "event"
    },
    {
      "anonymous": false,
      "inputs": [
        {
          "indexed": false,
          "internalType": "address[]",
          "name": "services",
          "type": "address[]"
        }
      ],
      "name": "serviceList",
      "type": "event"
    },
    {
      "constant": true,
      "inputs": [
        {
          "internalType": "bytes32",
          "name": "",
          "type": "bytes32"
        }
      ],
      "name": "insurerMap",
      "outputs": [
        {
          "internalType": "bytes32",
          "name": "id",
          "type": "bytes32"
        },
        {
          "internalType": "string",
          "name": "name",
          "type": "string"
        }
      ],
      "payable": false,
      "stateMutability": "view",
      "type": "function"
    },
    {
      "constant": true,
      "inputs": [
        {
          "internalType": "bytes32",
          "name": "",
          "type": "bytes32"
        }
      ],
      "name": "patientMap",
      "outputs": [
        {
          "internalType": "bytes32",
          "name": "id",
          "type": "bytes32"
        },
        {
          "internalType": "string",
          "name": "name",
          "type": "string"
        }
      ],
      "payable": false,
      "stateMutability": "view",
      "type": "function"
    },
    {
      "constant": true,
      "inputs": [
        {
          "internalType": "bytes32",
          "name": "",
          "type": "bytes32"
        }
      ],
      "name": "providerMap",
      "outputs": [
        {
          "internalType": "bytes32",
          "name": "id",
          "type": "bytes32"
        },
        {
          "internalType": "string",
          "name": "name",
          "type": "string"
        }
      ],
      "payable": false,
      "stateMutability": "view",
      "type": "function"
    },
    {
      "constant": true,
      "inputs": [
        {
          "internalType": "bytes32",
          "name": "",
          "type": "bytes32"
        }
      ],
      "name": "serviceClaimsMap",
      "outputs": [
        {
          "internalType": "address",
          "name": "",
          "type": "address"
        }
      ],
      "payable": false,
      "stateMutability": "view",
      "type": "function"
    },
    {
      "constant": true,
      "inputs": [
        {
          "internalType": "address",
          "name": "",
          "type": "address"
        }
      ],
      "name": "serviceName",
      "outputs": [
        {
          "internalType": "string",
          "name": "",
          "type": "string"
        }
      ],
      "payable": false,
      "stateMutability": "view",
      "type": "function"
    },
    {
      "constant": true,
      "inputs": [],
      "name": "token",
      "outputs": [
        {
          "internalType": "contract AEECToken",
          "name": "",
          "type": "address"
        }
      ],
      "payable": false,
      "stateMutability": "view",
      "type": "function"
    },
    {
      "constant": false,
      "inputs": [],
      "name": "preLoadInfo",
      "outputs": [],
      "payable": false,
      "stateMutability": "nonpayable",
      "type": "function"
    },
    {
      "constant": false,
      "inputs": [
        {
          "internalType": "string",
          "name": "_name",
          "type": "string"
        },
        {
          "internalType": "bytes32",
          "name": "_providerID",
          "type": "bytes32"
        }
      ],
      "name": "addPatient",
      "outputs": [
        {
          "internalType": "bytes32",
          "name": "pID",
          "type": "bytes32"
        }
      ],
      "payable": false,
      "stateMutability": "nonpayable",
      "type": "function"
    },
    {
      "constant": true,
      "inputs": [],
      "name": "getPatients",
      "outputs": [
        {
          "internalType": "bytes32[]",
          "name": "nice",
          "type": "bytes32[]"
        }
      ],
      "payable": false,
      "stateMutability": "view",
      "type": "function"
    },
    {
      "constant": false,
      "inputs": [
        {
          "internalType": "string",
          "name": "_name",
          "type": "string"
        },
        {
          "internalType": "bytes32",
          "name": "_insurerID",
          "type": "bytes32"
        }
      ],
      "name": "addProvider",
      "outputs": [
        {
          "internalType": "bytes32",
          "name": "pID",
          "type": "bytes32"
        }
      ],
      "payable": false,
      "stateMutability": "nonpayable",
      "type": "function"
    },
    {
      "constant": true,
      "inputs": [],
      "name": "getProviders",
      "outputs": [
        {
          "internalType": "bytes32[]",
          "name": "nice",
          "type": "bytes32[]"
        }
      ],
      "payable": false,
      "stateMutability": "view",
      "type": "function"
    },
    {
      "constant": false,
      "inputs": [
        {
          "internalType": "string",
          "name": "_name",
          "type": "string"
        }
      ],
      "name": "addInsurer",
      "outputs": [
        {
          "internalType": "bytes32",
          "name": "pID",
          "type": "bytes32"
        }
      ],
      "payable": false,
      "stateMutability": "nonpayable",
      "type": "function"
    },
    {
      "constant": true,
      "inputs": [],
      "name": "getInsurers",
      "outputs": [
        {
          "internalType": "bytes32[]",
          "name": "nice",
          "type": "bytes32[]"
        }
      ],
      "payable": false,
      "stateMutability": "view",
      "type": "function"
    },
    {
      "constant": false,
      "inputs": [
        {
          "internalType": "string",
          "name": "_name",
          "type": "string"
        },
        {
          "internalType": "bytes32",
          "name": "_providerID",
          "type": "bytes32"
        },
        {
          "internalType": "bytes32",
          "name": "_patientID",
          "type": "bytes32"
        },
        {
          "internalType": "uint256",
          "name": "_timeProvided",
          "type": "uint256"
        }
      ],
      "name": "provideService",
      "outputs": [
        {
          "internalType": "bytes32",
          "name": "serviceContractHash",
          "type": "bytes32"
        }
      ],
      "payable": false,
      "stateMutability": "nonpayable",
      "type": "function"
    },
    {
      "constant": false,
      "inputs": [
        {
          "internalType": "bytes32",
          "name": "_serviceClaimID",
          "type": "bytes32"
        },
        {
          "internalType": "uint256",
          "name": "_amount",
          "type": "uint256"
        },
        {
          "internalType": "uint256",
          "name": "_timeProvided",
          "type": "uint256"
        }
      ],
      "name": "fileClaim",
      "outputs": [
        {
          "internalType": "uint256",
          "name": "ClaimID",
          "type": "uint256"
        }
      ],
      "payable": false,
      "stateMutability": "nonpayable",
      "type": "function"
    },
    {
      "constant": false,
      "inputs": [
        {
          "internalType": "address",
          "name": "_serviceClaimAddress",
          "type": "address"
        },
        {
          "internalType": "uint256",
          "name": "_timeVerified",
          "type": "uint256"
        },
        {
          "internalType": "bool",
          "name": "_confirmed",
          "type": "bool"
        }
      ],
      "name": "verifyClaim",
      "outputs": [],
      "payable": false,
      "stateMutability": "nonpayable",
      "type": "function"
    },
    {
      "constant": false,
      "inputs": [
        {
          "internalType": "bytes32",
          "name": "_serviceClaimID",
          "type": "bytes32"
        }
      ],
      "name": "payProvider",
      "outputs": [],
      "payable": false,
      "stateMutability": "nonpayable",
      "type": "function"
    },
    {
      "constant": false,
      "inputs": [
        {
          "internalType": "bytes32",
          "name": "_id",
          "type": "bytes32"
        }
      ],
      "name": "patientsOfProvider",
      "outputs": [
        {
          "internalType": "bytes32[]",
          "name": "",
          "type": "bytes32[]"
        }
      ],
      "payable": false,
      "stateMutability": "nonpayable",
      "type": "function"
    },
    {
      "constant": false,
      "inputs": [
        {
          "internalType": "bytes32",
          "name": "_id",
          "type": "bytes32"
        }
      ],
      "name": "providersOfInsurer",
      "outputs": [
        {
          "internalType": "bytes32[]",
          "name": "",
          "type": "bytes32[]"
        }
      ],
      "payable": false,
      "stateMutability": "nonpayable",
      "type": "function"
    },
    {
      "constant": false,
      "inputs": [
        {
          "internalType": "bytes32",
          "name": "_id",
          "type": "bytes32"
        }
      ],
      "name": "getPatient",
      "outputs": [
        {
          "internalType": "bool",
          "name": "",
          "type": "bool"
        }
      ],
      "payable": false,
      "stateMutability": "nonpayable",
      "type": "function"
    },
    {
      "constant": false,
      "inputs": [
        {
          "internalType": "bytes32",
          "name": "_id",
          "type": "bytes32"
        }
      ],
      "name": "getProvider",
      "outputs": [
        {
          "components": [
            {
              "internalType": "bytes32",
              "name": "id",
              "type": "bytes32"
            },
            {
              "internalType": "string",
              "name": "name",
              "type": "string"
            },
            {
              "internalType": "bytes32[]",
              "name": "patients",
              "type": "bytes32[]"
            }
          ],
          "internalType": "struct Organizations.Provider",
          "name": "",
          "type": "tuple"
        }
      ],
      "payable": false,
      "stateMutability": "nonpayable",
      "type": "function"
    },
    {
      "constant": false,
      "inputs": [
        {
          "internalType": "bytes32",
          "name": "_id",
          "type": "bytes32"
        }
      ],
      "name": "patientUnclaimedServices",
      "outputs": [
        {
          "internalType": "address[]",
          "name": "",
          "type": "address[]"
        }
      ],
      "payable": false,
      "stateMutability": "nonpayable",
      "type": "function"
    },
    {
      "constant": false,
      "inputs": [
        {
          "internalType": "bytes32",
          "name": "_id",
          "type": "bytes32"
        }
      ],
      "name": "patientUnverifiedClaims",
      "outputs": [
        {
          "internalType": "address[]",
          "name": "",
          "type": "address[]"
        }
      ],
      "payable": false,
      "stateMutability": "nonpayable",
      "type": "function"
    },
    {
      "constant": false,
      "inputs": [
        {
          "internalType": "bytes32",
          "name": "_id",
          "type": "bytes32"
        }
      ],
      "name": "patientVerifiedClaims",
      "outputs": [
        {
          "internalType": "address[]",
          "name": "",
          "type": "address[]"
        }
      ],
      "payable": false,
      "stateMutability": "nonpayable",
      "type": "function"
    },
    {
      "constant": true,
      "inputs": [],
      "name": "getToken",
      "outputs": [
        {
          "internalType": "address",
          "name": "",
          "type": "address"
        }
      ],
      "payable": false,
      "stateMutability": "view",
      "type": "function"
    },
    {
      "constant": false,
      "inputs": [
        {
          "internalType": "uint256",
          "name": "_num",
          "type": "uint256"
        }
      ],
      "name": "setAdmin",
      "outputs": [],
      "payable": false,
      "stateMutability": "nonpayable",
      "type": "function"
    },
    {
      "constant": true,
      "inputs": [],
      "name": "getAdmin",
      "outputs": [
        {
          "internalType": "uint256",
          "name": "",
          "type": "uint256"
        }
      ],
      "payable": false,
      "stateMutability": "view",
      "type": "function"
    },
    {
      "constant": false,
      "inputs": [],
      "name": "getAllServices",
      "outputs": [],
      "payable": false,
      "stateMutability": "nonpayable",
      "type": "function"
    },
    {
      "constant": false,
      "inputs": [],
      "name": "getAllVerifiedServices",
      "outputs": [],
      "payable": false,
      "stateMutability": "nonpayable",
      "type": "function"
    },
    {
      "constant": false,
      "inputs": [],
      "name": "getAllUnverifiedServices",
      "outputs": [],
      "payable": false,
      "stateMutability": "nonpayable",
      "type": "function"
    }
  ],
  "bytecode": "0x60806040523480156200001157600080fd5b506040516200550838038062005508833981016040819052620000349162000829565b620000476001600160e01b03620000e716565b600180546001600160a01b0319166001600160a01b0383811691909117918290556040517f4e6ec247000000000000000000000000000000000000000000000000000000008152911690634e6ec24790620000ac903090620f42409060040162000903565b600060405180830381600087803b158015620000c757600080fd5b505af1158015620000dc573d6000803e3d6000fd5b5050505050620009ce565b60006200012f6040518060400160405280600381526020017f434d5300000000000000000000000000000000000000000000000000000000008152506200025c60201b60201c565b905060006200017a6040518060400160405280600c81526020017f55435344204d65646963616c0000000000000000000000000000000000000000815250836200037b60201b60201c565b9050620001c36040518060400160405280600381526020017f4b656e000000000000000000000000000000000000000000000000000000000081525082620004c260201b60201c565b5060408051808201909152600581527f44616e6e7900000000000000000000000000000000000000000000000000000060208201526200020d90826001600160e01b03620004c216565b5060408051808201909152600781527f416e746f6e696f0000000000000000000000000000000000000000000000000060208201526200025790826001600160e01b03620004c216565b505050565b60008082604051602001620002729190620008ee565b60405160208183030381529060405280519060200120905060606200029662000657565b50604080516060810182528381526020808201878152828401859052600086815260068352939093208251815592518051929384939092620002e09260018501929101906200067b565b5060408201518051620002fe91600284019160209091019062000700565b5050600f80546001810182556000919091527f8d1108e10bcb7c27dddfc02ed9d693a074039d026cf4ea4240b40f7d581ac80201849055506040517ff73cee28a98c20f23a903356ab57dc8c514e66b0488c994b09dec06f978c839b906200036a908590889062000922565b60405180910390a150909392505050565b60008083604051602001620003919190620008ee565b6040516020818303038152906040528051906020012090506060620003b562000657565b50604080516060810182528381526020808201888152828401859052600086815260058352939093208251815592518051929384939092620003ff9260018501929101906200067b565b50604082015180516200041d91600284019160209091019062000700565b50505060008581526006602090815260408083208451600290910180546001818101835591865293852090930155600e805492830181559092527fbb7b4a454dc3493923482f07822329ed19e8244eff582cc204f8554c3620c3fd01849055517f7dd222c7de5c7ba42d121aa7e2acc9d5d4a47c2eb31f55385cf51cbe459c5c9b90620004ae908590899062000922565b60405180910390a150909150505b92915050565b60008083604051602001620004d89190620008ee565b6040516020818303038152906040528051906020012090506060806060620004ff6200073d565b506040805160a08101825285815260208082018a81528284018790526060830186905260808301859052600088815260048352939093208251815592518051929384939092620005579260018501929101906200067b565b5060408201518051620005759160028401916020909101906200076f565b5060608201518051620005939160038401916020909101906200076f565b5060808201518051620005b19160048401916020909101906200076f565b5050600d805460018181019092557fd7b6990105719101dabeb77144f2a3385c8033acd3af97e9423a695e81ad1eb5018790556000898152600560209081526040808320865160029091018054958601815584529190922090920191909155517f86ec8adc6f97da0327b3e1dcc24fa25aea5eb7afcf6af08792e4b2d4d799fad89150620006439087908b9062000922565b60405180910390a150929695505050505050565b60405180606001604052806000801916815260200160608152602001606081525090565b828054600181600116156101000203166002900490600052602060002090601f016020900481019282601f10620006be57805160ff1916838001178555620006ee565b82800160010185558215620006ee579182015b82811115620006ee578251825591602001919060010190620006d1565b50620006fc929150620007d5565b5090565b828054828255906000526020600020908101928215620006ee5791602002820182811115620006ee578251825591602001919060010190620006d1565b6040518060a0016040528060008019168152602001606081526020016060815260200160608152602001606081525090565b828054828255906000526020600020908101928215620007c7579160200282015b82811115620007c757825182546001600160a01b0319166001600160a01b0390911617825560209092019160019091019062000790565b50620006fc929150620007f5565b620007f291905b80821115620006fc5760008155600101620007dc565b90565b620007f291905b80821115620006fc5780546001600160a01b0319168155600101620007fc565b8051620004bc81620009b4565b6000602082840312156200083c57600080fd5b60006200084a84846200081c565b949350505050565b6200085d8162000958565b82525050565b6200085d81620007f2565b6200085d816200096a565b6000620008868262000946565b6200089281856200094a565b9350620008a481856020860162000977565b620008af81620009aa565b9093019392505050565b6000620008c68262000946565b620008d2818562000953565b9350620008e481856020860162000977565b9290920192915050565b6000620008fc8284620008b9565b9392505050565b6040810162000913828562000852565b620008fc60208301846200086e565b6040810162000932828562000863565b81810360208301526200084a818462000879565b5190565b90815260200190565b919050565b60006001600160a01b038216620004bc565b6000620004bc82620007f2565b60005b83811015620009945781810151838201526020016200097a565b83811115620009a4576000848401525b50505050565b601f01601f191690565b620009bf8162000958565b8114620009cb57600080fd5b50565b614b2a80620009de6000396000f3fe60806040523480156200001157600080fd5b5060043610620002085760003560e01c806373b1b2bf116200011d578063dcabfc9011620000b1578063ece7ac2b116200007b578063ece7ac2b146200047f578063edc922a91462000496578063ee3d52b314620004a0578063fc0c546a14620004b75762000208565b8063dcabfc901462000430578063dd2389251462000447578063e0e87b1a146200045e578063e459593614620004755762000208565b806392398fbb11620000f357806392398fbb14620003d45780639594c99e14620003eb5780639c860b8a1462000402578063a46bfff914620004195762000208565b806373b1b2bf1462000380578063740044b414620003975780637899a34e14620003ae5762000208565b8063291d7cdb11620001a157806339160aa7116200016b57806339160aa7146200033e5780633e7e072e14620003555780633f1e172d146200036c5780636e9960c314620003765762000208565b8063291d7cdb14620002a55780632bde2a8614620002cb57806333c0950a14620002f257806333fc83f714620003185762000208565b806321dd828511620001e357806321dd8285146200024557806321df0da7146200026b57806321fe0f3014620002845780632470d25e146200028e5762000208565b806311569586146200020d57806312ad1c37146200022f5780631bf78b351462000239575b600080fd5b62000217620004d0565b604051620002269190620041b6565b60405180910390f35b620002176200052b565b6200024362000583565b005b6200025c620002563660046200399a565b62000d8b565b60405162000226919062004190565b6200027562000ec9565b604051620002269190620040a0565b6200024362000ed8565b620002756200029f3660046200399a565b6200165e565b620002bc620002b636600462003aef565b62001679565b604051620002269190620041ec565b620002e2620002dc3660046200399a565b62001a0b565b6040516200022692919062004278565b62000309620003033660046200399a565b62001ab6565b604051620002269190620042f7565b6200032f62000329366004620038fc565b62001d5d565b604051620002269190620042ac565b620002e26200034f3660046200399a565b62001dfc565b620002bc6200036636600462003a98565b62001e71565b6200024362001fb8565b620002bc62002098565b620002bc62000391366004620039dc565b6200209e565b620002bc620003a836600462003a98565b620022eb565b620003c5620003bf3660046200399a565b62002480565b604051620002269190620041dc565b620002e2620003e53660046200399a565b620026ca565b6200025c620003fc3660046200399a565b6200273f565b62000217620004133660046200399a565b62002880565b620002176200042a3660046200399a565b6200292c565b620002436200044136600462003925565b62002974565b620002bc6200045836600462003a5f565b62002b9b565b620002436200046f3660046200399a565b62002cba565b6200024362002cc4565b6200025c620004903660046200399a565b6200344a565b620002176200358b565b62000243620004b13660046200399a565b620035e3565b620004c1620035e8565b6040516200022691906200429c565b6060600f8054806020026020016040519081016040528092919081815260200182805480156200052057602002820191906000526020600020905b8154815260200190600101908083116200050b575b505050505090505b90565b6060600d8054806020026020016040519081016040528092919081815260200182805480156200052057602002820191906000526020600020908154815260200190600101908083116200050b575050505050905090565b60005b600c5481101562000d88576000600c8281548110620005a157fe5b9060005260206000200160009054906101000a90046001600160a01b03169050606060046000836001600160a01b031663f680a7bd6040518163ffffffff1660e01b815260040160206040518083038186803b1580156200060157600080fd5b505afa15801562000616573d6000803e3d6000fd5b505050506040513d601f19601f820116820180604052506200063c9190810190620039bb565b81526020019081526020016000206001018054600181600116156101000203166002900480601f016020809104026020016040519081016040528092919081815260200182805460018160011615610100020316600290048015620006e55780601f10620006b957610100808354040283529160200191620006e5565b820191906000526020600020905b815481529060010190602001808311620006c757829003601f168201915b50505050509050606060056000846001600160a01b031663596ada676040518163ffffffff1660e01b815260040160206040518083038186803b1580156200072c57600080fd5b505afa15801562000741573d6000803e3d6000fd5b505050506040513d601f19601f82011682018060405250620007679190810190620039bb565b81526020019081526020016000206001018054600181600116156101000203166002900480601f016020809104026020016040519081016040528092919081815260200182805460018160011615610100020316600290048015620008105780601f10620007e45761010080835404028352916020019162000810565b820191906000526020600020905b815481529060010190602001808311620007f257829003601f168201915b505050505090506000836001600160a01b031663bb90ebac6040518163ffffffff1660e01b815260040160206040518083038186803b1580156200085357600080fd5b505afa15801562000868573d6000803e3d6000fd5b505050506040513d601f19601f820116820180604052506200088e9190810190620039bb565b1180156200090e5750826001600160a01b031663763032896040518163ffffffff1660e01b815260040160206040518083038186803b158015620008d157600080fd5b505afa158015620008e6573d6000803e3d6000fd5b505050506040513d601f19601f820116820180604052506200090c9190810190620039bb565b155b1562000d7c577f04653ea398522e1f547b141c4f7c0274d3527ae0b221c0cebf77651997c809e1838383866001600160a01b03166306fdde036040518163ffffffff1660e01b815260040160006040518083038186803b1580156200097257600080fd5b505afa15801562000987573d6000803e3d6000fd5b505050506040513d6000823e601f3d908101601f19168201604052620009b1919081019062003a26565b876001600160a01b0316631be37f406040518163ffffffff1660e01b815260040160206040518083038186803b158015620009eb57600080fd5b505afa15801562000a00573d6000803e3d6000fd5b505050506040513d601f19601f8201168201806040525062000a269190810190620039bb565b886001600160a01b031663596ada676040518163ffffffff1660e01b815260040160206040518083038186803b15801562000a6057600080fd5b505afa15801562000a75573d6000803e3d6000fd5b505050506040513d601f19601f8201168201806040525062000a9b9190810190620039bb565b896001600160a01b031663f680a7bd6040518163ffffffff1660e01b815260040160206040518083038186803b15801562000ad557600080fd5b505afa15801562000aea573d6000803e3d6000fd5b505050506040513d601f19601f8201168201806040525062000b109190810190620039bb565b8a6001600160a01b031663aa8c217c6040518163ffffffff1660e01b815260040160206040518083038186803b15801562000b4a57600080fd5b505afa15801562000b5f573d6000803e3d6000fd5b505050506040513d601f19601f8201168201806040525062000b859190810190620039bb565b8b6001600160a01b031663a968991b6040518163ffffffff1660e01b815260040160206040518083038186803b15801562000bbf57600080fd5b505afa15801562000bd4573d6000803e3d6000fd5b505050506040513d601f19601f8201168201806040525062000bfa919081019062003979565b8c6001600160a01b0316634a86d8c56040518163ffffffff1660e01b815260040160206040518083038186803b15801562000c3457600080fd5b505afa15801562000c49573d6000803e3d6000fd5b505050506040513d601f19601f8201168201806040525062000c6f9190810190620039bb565b8d6001600160a01b031663bb90ebac6040518163ffffffff1660e01b815260040160206040518083038186803b15801562000ca957600080fd5b505afa15801562000cbe573d6000803e3d6000fd5b505050506040513d601f19601f8201168201806040525062000ce49190810190620039bb565b8e6001600160a01b031663763032896040518163ffffffff1660e01b815260040160206040518083038186803b15801562000d1e57600080fd5b505afa15801562000d33573d6000803e3d6000fd5b505050506040513d601f19601f8201168201806040525062000d599190810190620039bb565b60405162000d739c9b9a99989796959493929190620040b0565b60405180910390a15b50505060010162000586565b50565b60008181526004602052604081206060915b600382015481101562000e25577f35b7f39ce99df9443c69ab69269e1ae96c0add252abdcce625838b4c386c6236600b600084600301848154811062000ddf57fe5b60009182526020808320909101546001600160a01b031683528201929092526040908101909120905162000e149190620042bf565b60405180910390a160010162000d9d565b507fa1c275d9147cd4bbf3a6fc6b01df2bdad7272d62a5bea8ea5f90e20e7c3f48e98160030160405162000e5a9190620041a3565b60405180910390a18060030180548060200260200160405190810160405280929190818152602001828054801562000ebc57602002820191906000526020600020905b81546001600160a01b0316815260019091019060200180831162000e9d575b5050505050915050919050565b6001546001600160a01b031690565b60005b600c5481101562000d88576000600c828154811062000ef657fe5b9060005260206000200160009054906101000a90046001600160a01b03169050606060046000836001600160a01b031663f680a7bd6040518163ffffffff1660e01b815260040160206040518083038186803b15801562000f5657600080fd5b505afa15801562000f6b573d6000803e3d6000fd5b505050506040513d601f19601f8201168201806040525062000f919190810190620039bb565b81526020019081526020016000206001018054600181600116156101000203166002900480601f0160208091040260200160405190810160405280929190818152602001828054600181600116156101000203166002900480156200103a5780601f106200100e576101008083540402835291602001916200103a565b820191906000526020600020905b8154815290600101906020018083116200101c57829003601f168201915b50505050509050606060056000846001600160a01b031663596ada676040518163ffffffff1660e01b815260040160206040518083038186803b1580156200108157600080fd5b505afa15801562001096573d6000803e3d6000fd5b505050506040513d601f19601f82011682018060405250620010bc9190810190620039bb565b81526020019081526020016000206001018054600181600116156101000203166002900480601f016020809104026020016040519081016040528092919081815260200182805460018160011615610100020316600290048015620011655780601f10620011395761010080835404028352916020019162001165565b820191906000526020600020905b8154815290600101906020018083116200114757829003601f168201915b505050505090506000836001600160a01b0316634a86d8c56040518163ffffffff1660e01b815260040160206040518083038186803b158015620011a857600080fd5b505afa158015620011bd573d6000803e3d6000fd5b505050506040513d601f19601f82011682018060405250620011e39190810190620039bb565b111562001652577f04653ea398522e1f547b141c4f7c0274d3527ae0b221c0cebf77651997c809e1838383866001600160a01b03166306fdde036040518163ffffffff1660e01b815260040160006040518083038186803b1580156200124857600080fd5b505afa1580156200125d573d6000803e3d6000fd5b505050506040513d6000823e601f3d908101601f1916820160405262001287919081019062003a26565b876001600160a01b0316631be37f406040518163ffffffff1660e01b815260040160206040518083038186803b158015620012c157600080fd5b505afa158015620012d6573d6000803e3d6000fd5b505050506040513d601f19601f82011682018060405250620012fc9190810190620039bb565b886001600160a01b031663596ada676040518163ffffffff1660e01b815260040160206040518083038186803b1580156200133657600080fd5b505afa1580156200134b573d6000803e3d6000fd5b505050506040513d601f19601f82011682018060405250620013719190810190620039bb565b896001600160a01b031663f680a7bd6040518163ffffffff1660e01b815260040160206040518083038186803b158015620013ab57600080fd5b505afa158015620013c0573d6000803e3d6000fd5b505050506040513d601f19601f82011682018060405250620013e69190810190620039bb565b8a6001600160a01b031663aa8c217c6040518163ffffffff1660e01b815260040160206040518083038186803b1580156200142057600080fd5b505afa15801562001435573d6000803e3d6000fd5b505050506040513d601f19601f820116820180604052506200145b9190810190620039bb565b8b6001600160a01b031663a968991b6040518163ffffffff1660e01b815260040160206040518083038186803b1580156200149557600080fd5b505afa158015620014aa573d6000803e3d6000fd5b505050506040513d601f19601f82011682018060405250620014d0919081019062003979565b8c6001600160a01b0316634a86d8c56040518163ffffffff1660e01b815260040160206040518083038186803b1580156200150a57600080fd5b505afa1580156200151f573d6000803e3d6000fd5b505050506040513d601f19601f82011682018060405250620015459190810190620039bb565b8d6001600160a01b031663bb90ebac6040518163ffffffff1660e01b815260040160206040518083038186803b1580156200157f57600080fd5b505afa15801562001594573d6000803e3d6000fd5b505050506040513d601f19601f82011682018060405250620015ba9190810190620039bb565b8e6001600160a01b031663763032896040518163ffffffff1660e01b815260040160206040518083038186803b158015620015f457600080fd5b505afa15801562001609573d6000803e3d6000fd5b505050506040513d601f19601f820116820180604052506200162f9190810190620039bb565b604051620016499c9b9a99989796959493929190620040b0565b60405180910390a15b50505060010162000edb565b6007602052600090815260409020546001600160a01b031681565b600080858585604051602001620016939392919062004067565b60405160208183030381529060405280519060200120905060008585838987604051620016c090620035f7565b620016d09594939291906200421b565b604051809103906000f080158015620016ed573d6000803e3d6000fd5b50905060008160405160200162001705919062004042565b6040516020818303038152906040528051906020012090506200172762003605565b5060408051610120810182526001600160a01b0384811682526020808301858152600954948401948552606084018c8152608085018c815260a086018f8152600060c0880181905260e088018190526101008801819052600a8054600181018083559190925288517fc65a7bb8d6351c1cf70c95a316cc6a92839c986682d98bc35f958f4883f9d2a8600890930292830180546001600160a01b0319169190991617885594517fc65a7bb8d6351c1cf70c95a316cc6a92839c986682d98bc35f958f4883f9d2a982015597517fc65a7bb8d6351c1cf70c95a316cc6a92839c986682d98bc35f958f4883f9d2aa89015591517fc65a7bb8d6351c1cf70c95a316cc6a92839c986682d98bc35f958f4883f9d2ab880155517fc65a7bb8d6351c1cf70c95a316cc6a92839c986682d98bc35f958f4883f9d2ac870155518051949591948694936200189c937fc65a7bb8d6351c1cf70c95a316cc6a92839c986682d98bc35f958f4883f9d2ad0192019062003650565b5060c0820151600682015560e0820151600791820180546101009485015160ff199091169215159290921761ff0019169115159093021790915560008481526020918252604080822080546001600160a01b03199081166001600160a01b038a169081179092558c84526004855282842060028101805460018101825590865286862001805490921683179091559083526008845291208c5191935062001949929091908d019062003650565b506001600160a01b0384166000908152600b602090815260409091208b5162001975928d019062003650565b50600c80546001810182556000919091527fdf6966c971051c3d54ec59162606531493a51404a002842f56009d7e5cf4a8c70180546001600160a01b0319166001600160a01b0386161790556040517f2cdb195d7226065901c0e37d742237ac3e30d6dc0ce7faf49701f6ec9f0bd1ed90620019f59085908790620041fc565b60405180910390a1509098975050505050505050565b6005602090815260009182526040918290208054600180830180548651600293821615610100026000190190911692909204601f81018690048602830186019096528582529194929390929083018282801562001aac5780601f1062001a805761010080835404028352916020019162001aac565b820191906000526020600020905b81548152906001019060200180831162001a8e57829003601f168201915b5050505050905082565b62001ac0620036d5565b62001aca620036d5565b6005600084815260200190815260200160002060405180606001604052908160008201548152602001600182018054600181600116156101000203166002900480601f01602080910402602001604051908101604052809291908181526020018280546001816001161561010002031660029004801562001b8f5780601f1062001b635761010080835404028352916020019162001b8f565b820191906000526020600020905b81548152906001019060200180831162001b7157829003601f168201915b505050505081526020016002820180548060200260200160405190810160405280929190818152602001828054801562001be957602002820191906000526020600020905b81548152602001906001019080831162001bd4575b50505050508152505090507f8c6b3078bf6d713aeae5b1ccc2dfea387cbb876de1a5c9d81a4e22d4e832c5468160405162001c259190620042f7565b60405180910390a16005600084815260200190815260200160002060405180606001604052908160008201548152602001600182018054600181600116156101000203166002900480601f01602080910402602001604051908101604052809291908181526020018280546001816001161561010002031660029004801562001cf25780601f1062001cc65761010080835404028352916020019162001cf2565b820191906000526020600020905b81548152906001019060200180831162001cd457829003601f168201915b505050505081526020016002820180548060200260200160405190810160405280929190818152602001828054801562001d4c57602002820191906000526020600020905b81548152602001906001019080831162001d37575b505050505081525050915050919050565b60086020908152600091825260409182902080548351601f60026000196101006001861615020190931692909204918201849004840281018401909452808452909183018282801562001df45780601f1062001dc85761010080835404028352916020019162001df4565b820191906000526020600020905b81548152906001019060200180831162001dd657829003601f168201915b505050505081565b6006602090815260009182526040918290208054600180830180548651600293821615610100026000190190911692909204601f81018690048602830186019096528582529194929390929083018282801562001aac5780601f1062001a805761010080835404028352916020019162001aac565b6000808360405160200162001e87919062004059565b604051602081830303815290604052805190602001209050606062001eab620036d5565b5060408051606081018252838152602080820188815282840185905260008681526005835293909320825181559251805192938493909262001ef592600185019291019062003650565b506040820151805162001f13916002840191602090910190620036f9565b50505060008581526006602090815260408083208451600290910180546001818101835591865293852090930155600e805492830181559092527fbb7b4a454dc3493923482f07822329ed19e8244eff582cc204f8554c3620c3fd01849055517f7dd222c7de5c7ba42d121aa7e2acc9d5d4a47c2eb31f55385cf51cbe459c5c9b9062001fa4908590899062004278565b60405180910390a150909150505b92915050565b600062001fe060405180604001604052806003815260200162434d5360e81b81525062002b9b565b90506000620020146040518060400160405280600c81526020016b1550d4d1081359591a58d85b60a21b8152508362001e71565b90506200203d6040518060400160405280600381526020016225b2b760e91b81525082620022eb565b50620020676040518060400160405280600581526020016444616e6e7960d81b81525082620022eb565b506200209360405180604001604052806007815260200166416e746f6e696f60c81b81525082620022eb565b505050565b60005490565b600083815260076020526040808220549051631bf4a39360e11b81526001600160a01b0390911690829082906337e9472690620020e2908890889060040162004329565b602060405180830381600087803b158015620020fd57600080fd5b505af115801562002112573d6000803e3d6000fd5b505050506040513d601f19601f82011682018060405250620021389190810190620039bb565b90506000826001600160a01b031663f680a7bd6040518163ffffffff1660e01b815260040160206040518083038186803b1580156200217657600080fd5b505afa1580156200218b573d6000803e3d6000fd5b505050506040513d601f19601f82011682018060405250620021b19190810190620039bb565b6000818152600460205260408120601080546001810182559083527f1b6847dc741a1b0cd08d278845f9d819d87b734759afb55fe2de5cb82a9ae672018a90559192505b60028201548110156200227057846001600160a01b03168260020182815481106200221c57fe5b6000918252602090912001546001600160a01b0316141562002267578160020181815481106200224857fe5b600091825260209091200180546001600160a01b031916905562002270565b600101620021f5565b50600381018054600181018255600091825260209091200180546001600160a01b0319166001600160a01b0386161790556040517f96e3875898071e5d91932eb150a3914f9fe70e473f6faeaad697e99a48937c9c90620022d59085908a9062004329565b60405180910390a15090925050505b9392505050565b6000808360405160200162002301919062004059565b60405160208183030381529060405280519060200120905060608060606200232862003736565b506040805160a08101825285815260208082018a815282840187905260608301869052608083018590526000888152600483529390932082518155925180519293849390926200238092600185019291019062003650565b50604082015180516200239e91600284019160209091019062003768565b5060608201518051620023bc91600384019160209091019062003768565b5060808201518051620023da91600484019160209091019062003768565b5050600d805460018181019092557fd7b6990105719101dabeb77144f2a3385c8033acd3af97e9423a695e81ad1eb5018790556000898152600560209081526040808320865160029091018054958601815584529190922090920191909155517f86ec8adc6f97da0327b3e1dcc24fa25aea5eb7afcf6af08792e4b2d4d799fad891506200246c9087908b9062004278565b60405180910390a150929695505050505050565b60006200248c62003736565b600460008481526020019081526020016000206040518060a001604052908160008201548152602001600182018054600181600116156101000203166002900480601f016020809104026020016040519081016040528092919081815260200182805460018160011615610100020316600290048015620025515780601f10620025255761010080835404028352916020019162002551565b820191906000526020600020905b8154815290600101906020018083116200253357829003601f168201915b5050505050815260200160028201805480602002602001604051908101604052809291908181526020018280548015620025b557602002820191906000526020600020905b81546001600160a01b0316815260019091019060200180831162002596575b50505050508152602001600382018054806020026020016040519081016040528092919081815260200182805480156200261957602002820191906000526020600020905b81546001600160a01b03168152600190910190602001808311620025fa575b50505050508152602001600482018054806020026020016040519081016040528092919081815260200182805480156200267d57602002820191906000526020600020905b81546001600160a01b031681526001909101906020018083116200265e575b50505050508152505090507f7822df68ea6ba88fa17a55a6c6fe1f7207c1653493392725ce9da7f61f8b601d81604051620026b99190620042e4565b60405180910390a150600192915050565b6004602090815260009182526040918290208054600180830180548651600293821615610100026000190190911692909204601f81018690048602830186019096528582529194929390929083018282801562001aac5780601f1062001a805761010080835404028352916020019162001aac565b600081815260046020526040908190209051606091907fa1c275d9147cd4bbf3a6fc6b01df2bdad7272d62a5bea8ea5f90e20e7c3f48e99062002787906002840190620041a3565b60405180910390a160005b60028201548110156200281a577f35b7f39ce99df9443c69ab69269e1ae96c0add252abdcce625838b4c386c6236600b6000846002018481548110620027d457fe5b60009182526020808320909101546001600160a01b0316835282019290925260409081019091209051620028099190620042bf565b60405180910390a160010162002792565b508060020180548060200260200160405190810160405280929190818152602001828054801562000ebc576020028201919060005260206000209081546001600160a01b0316815260019091019060200180831162000e9d575050505050915050919050565b600081815260066020526040908190209051606091907f1c7aaf504355c6134470b4070ca50bf276d45d0205aa86ef6bd15c684ae710c490620028c8906002840190620041c9565b60405180910390a18060020180548060200260200160405190810160405280929190818152602001828054801562000ebc57602002820191906000526020600020905b8154815260200190600101908083116200290b575050505050915050919050565b600081815260056020526040908190209051606091907f1c7aaf504355c6134470b4070ca50bf276d45d0205aa86ef6bd15c684ae710c490620028c8906002840190620041c9565b604051635a324c0360e11b815283906001600160a01b0382169063b464980690620029a690869086906004016200430a565b602060405180830381600087803b158015620029c157600080fd5b505af1158015620029d6573d6000803e3d6000fd5b505050506040513d601f19601f82011682018060405250620029fc919081019062003979565b62002a245760405162461bcd60e51b815260040162002a1b90620042d2565b60405180910390fd5b6000816001600160a01b031663f680a7bd6040518163ffffffff1660e01b815260040160206040518083038186803b15801562002a6057600080fd5b505afa15801562002a75573d6000803e3d6000fd5b505050506040513d601f19601f8201168201806040525062002a9b9190810190620039bb565b60008181526004602052604081209192505b600382015481101562002b2857836001600160a01b031682600301828154811062002ad457fe5b6000918252602090912001546001600160a01b0316141562002b1f5781600301818154811062002b0057fe5b600091825260209091200180546001600160a01b031916905562002b28565b60010162002aad565b50600481018054600181018255600091825260209091200180546001600160a01b0319166001600160a01b0385161790556040517fc03c381479e74431d2e456b259238f87292a5a827091c7386e197457ad47e19e9062002b8b908890620040a0565b60405180910390a1505050505050565b6000808260405160200162002bb1919062004059565b604051602081830303815290604052805190602001209050606062002bd5620036d5565b5060408051606081018252838152602080820187815282840185905260008681526006835293909320825181559251805192938493909262002c1f92600185019291019062003650565b506040820151805162002c3d916002840191602090910190620036f9565b5050600f80546001810182556000919091527f8d1108e10bcb7c27dddfc02ed9d693a074039d026cf4ea4240b40f7d581ac80201849055506040517ff73cee28a98c20f23a903356ab57dc8c514e66b0488c994b09dec06f978c839b9062002ca9908590889062004278565b60405180910390a150909392505050565b6000526007602052565b60005b600c5481101562000d88576000600c828154811062002ce257fe5b9060005260206000200160009054906101000a90046001600160a01b03169050606060046000836001600160a01b031663f680a7bd6040518163ffffffff1660e01b815260040160206040518083038186803b15801562002d4257600080fd5b505afa15801562002d57573d6000803e3d6000fd5b505050506040513d601f19601f8201168201806040525062002d7d9190810190620039bb565b81526020019081526020016000206001018054600181600116156101000203166002900480601f01602080910402602001604051908101604052809291908181526020018280546001816001161561010002031660029004801562002e265780601f1062002dfa5761010080835404028352916020019162002e26565b820191906000526020600020905b81548152906001019060200180831162002e0857829003601f168201915b50505050509050606060056000846001600160a01b031663596ada676040518163ffffffff1660e01b815260040160206040518083038186803b15801562002e6d57600080fd5b505afa15801562002e82573d6000803e3d6000fd5b505050506040513d601f19601f8201168201806040525062002ea89190810190620039bb565b81526020019081526020016000206001018054600181600116156101000203166002900480601f01602080910402602001604051908101604052809291908181526020018280546001816001161561010002031660029004801562002f515780601f1062002f255761010080835404028352916020019162002f51565b820191906000526020600020905b81548152906001019060200180831162002f3357829003601f168201915b505050505090506000836001600160a01b031663763032896040518163ffffffff1660e01b815260040160206040518083038186803b15801562002f9457600080fd5b505afa15801562002fa9573d6000803e3d6000fd5b505050506040513d601f19601f8201168201806040525062002fcf9190810190620039bb565b11156200343e577f04653ea398522e1f547b141c4f7c0274d3527ae0b221c0cebf77651997c809e1838383866001600160a01b03166306fdde036040518163ffffffff1660e01b815260040160006040518083038186803b1580156200303457600080fd5b505afa15801562003049573d6000803e3d6000fd5b505050506040513d6000823e601f3d908101601f1916820160405262003073919081019062003a26565b876001600160a01b0316631be37f406040518163ffffffff1660e01b815260040160206040518083038186803b158015620030ad57600080fd5b505afa158015620030c2573d6000803e3d6000fd5b505050506040513d601f19601f82011682018060405250620030e89190810190620039bb565b886001600160a01b031663596ada676040518163ffffffff1660e01b815260040160206040518083038186803b1580156200312257600080fd5b505afa15801562003137573d6000803e3d6000fd5b505050506040513d601f19601f820116820180604052506200315d9190810190620039bb565b896001600160a01b031663f680a7bd6040518163ffffffff1660e01b815260040160206040518083038186803b1580156200319757600080fd5b505afa158015620031ac573d6000803e3d6000fd5b505050506040513d601f19601f82011682018060405250620031d29190810190620039bb565b8a6001600160a01b031663aa8c217c6040518163ffffffff1660e01b815260040160206040518083038186803b1580156200320c57600080fd5b505afa15801562003221573d6000803e3d6000fd5b505050506040513d601f19601f82011682018060405250620032479190810190620039bb565b8b6001600160a01b031663a968991b6040518163ffffffff1660e01b815260040160206040518083038186803b1580156200328157600080fd5b505afa15801562003296573d6000803e3d6000fd5b505050506040513d601f19601f82011682018060405250620032bc919081019062003979565b8c6001600160a01b0316634a86d8c56040518163ffffffff1660e01b815260040160206040518083038186803b158015620032f657600080fd5b505afa1580156200330b573d6000803e3d6000fd5b505050506040513d601f19601f82011682018060405250620033319190810190620039bb565b8d6001600160a01b031663bb90ebac6040518163ffffffff1660e01b815260040160206040518083038186803b1580156200336b57600080fd5b505afa15801562003380573d6000803e3d6000fd5b505050506040513d601f19601f82011682018060405250620033a69190810190620039bb565b8e6001600160a01b031663763032896040518163ffffffff1660e01b815260040160206040518083038186803b158015620033e057600080fd5b505afa158015620033f5573d6000803e3d6000fd5b505050506040513d601f19601f820116820180604052506200341b9190810190620039bb565b604051620034359c9b9a99989796959493929190620040b0565b60405180910390a15b50505060010162002cc7565b6000818152600460208190526040918290209151606092917fa1c275d9147cd4bbf3a6fc6b01df2bdad7272d62a5bea8ea5f90e20e7c3f48e9916200349291840190620041a3565b60405180910390a160005b600482015481101562003525577f35b7f39ce99df9443c69ab69269e1ae96c0add252abdcce625838b4c386c6236600b6000846004018481548110620034df57fe5b60009182526020808320909101546001600160a01b0316835282019290925260409081019091209051620035149190620042bf565b60405180910390a16001016200349d565b508060040180548060200260200160405190810160405280929190818152602001828054801562000ebc576020028201919060005260206000209081546001600160a01b0316815260019091019060200180831162000e9d575050505050915050919050565b6060600e8054806020026020016040519081016040528092919081815260200182805480156200052057602002820191906000526020600020908154815260200190600101908083116200050b575050505050905090565b600055565b6001546001600160a01b031681565b61062180620044c783390190565b604080516101208101825260008082526020820181905291810182905260608082018390526080820183905260a082015260c0810182905260e0810182905261010081019190915290565b828054600181600116156101000203166002900490600052602060002090601f016020900481019282601f106200369357805160ff1916838001178555620036c3565b82800160010185558215620036c3579182015b82811115620036c3578251825591602001919060010190620036a6565b50620036d1929150620037ce565b5090565b60405180606001604052806000801916815260200160608152602001606081525090565b828054828255906000526020600020908101928215620036c35791602002820182811115620036c3578251825591602001919060010190620036a6565b6040518060a0016040528060008019168152602001606081526020016060815260200160608152602001606081525090565b828054828255906000526020600020908101928215620037c0579160200282015b82811115620037c057825182546001600160a01b0319166001600160a01b0390911617825560209092019160019091019062003789565b50620036d1929150620037eb565b6200052891905b80821115620036d15760008155600101620037d5565b6200052891905b80821115620036d15780546001600160a01b0319168155600101620037f2565b803562001fb28162004499565b803562001fb281620044b0565b805162001fb281620044b0565b803562001fb281620044bb565b805162001fb281620044bb565b600082601f8301126200386557600080fd5b81516200387c620038768262004370565b62004348565b915080825260208301602083018583830111156200389957600080fd5b620038a6838284620043fe565b50505092915050565b600082601f830112620038c157600080fd5b8135620038d2620038768262004370565b91508082526020830160208301858383011115620038ef57600080fd5b620038a6838284620043f2565b6000602082840312156200390f57600080fd5b60006200391d848462003812565b949350505050565b6000806000606084860312156200393b57600080fd5b600062003949868662003812565b93505060206200395c8682870162003839565b92505060406200396f868287016200381f565b9150509250925092565b6000602082840312156200398c57600080fd5b60006200391d84846200382c565b600060208284031215620039ad57600080fd5b60006200391d848462003839565b600060208284031215620039ce57600080fd5b60006200391d848462003846565b600080600060608486031215620039f257600080fd5b600062003a00868662003839565b935050602062003a138682870162003839565b92505060406200396f8682870162003839565b60006020828403121562003a3957600080fd5b815167ffffffffffffffff81111562003a5157600080fd5b6200391d8482850162003853565b60006020828403121562003a7257600080fd5b813567ffffffffffffffff81111562003a8a57600080fd5b6200391d84828501620038af565b6000806040838503121562003aac57600080fd5b823567ffffffffffffffff81111562003ac457600080fd5b62003ad285828601620038af565b925050602062003ae58582860162003839565b9150509250929050565b6000806000806080858703121562003b0657600080fd5b843567ffffffffffffffff81111562003b1e57600080fd5b62003b2c87828801620038af565b945050602062003b3f8782880162003839565b935050604062003b528782880162003839565b925050606062003b658782880162003839565b91505092959194509250565b600062003b7f838362003b95565b505060200190565b600062003b7f838362003dff565b62003ba081620043d3565b82525050565b62003ba062003bb582620043d3565b62004459565b600062003bc882620043ab565b62003bd48185620043b9565b935062003be18362004399565b8060005b8381101562003c1557815162003bfc888262003b71565b975062003c098362004399565b92505060010162003be5565b509495945050505050565b600062003c2d82620043ab565b62003c398185620043b9565b935062003c468362004399565b8060005b8381101562003c1557815162003c61888262003b71565b975062003c6e8362004399565b92505060010162003c4a565b600062003c8782620043af565b62003c938185620043b9565b935062003ca0836200439f565b8060005b8381101562003c155762003cb8826200446d565b62003cc4888262003b71565b975062003cd183620043b3565b92505060010162003ca4565b600062003cea82620043ab565b62003cf68185620043b9565b935062003d038362004399565b8060005b8381101562003c1557815162003d1e888262003b87565b975062003d2b8362004399565b92505060010162003d07565b600062003d4482620043ab565b62003d508185620043b9565b935062003d5d8362004399565b8060005b8381101562003c1557815162003d78888262003b87565b975062003d858362004399565b92505060010162003d61565b600062003d9e82620043af565b62003daa8185620043b9565b935062003db7836200439f565b8060005b8381101562003c155762003dcf826200447b565b62003ddb888262003b87565b975062003de883620043b3565b92505060010162003dbb565b62003ba081620043e0565b62003ba08162000528565b62003ba062003e198262000528565b62000528565b62003ba081620043e5565b600062003e3782620043ab565b62003e438185620043b9565b935062003e55818560208601620043fe565b62003e608162004489565b9093019392505050565b600062003e7782620043ab565b62003e838185620043c2565b935062003e95818560208601620043fe565b9290920192915050565b60008154600181166000811462003ebf576001811462003ee85762003f2d565b607f600283041662003ed28187620043b9565b60ff198416815295505060208501925062003f2d565b6002820462003ef88187620043b9565b955062003f05856200439f565b60005b8281101562003f265781548882015260019091019060200162003f08565b8701945050505b505092915050565b600062003f44601683620043b9565b7510db185a5b481dd85cc81b9bdd0815995c9a599a595960521b815260200192915050565b805160009060a084019062003f7f858262003dff565b506020830151848203602086015262003f99828262003e2a565b9150506040830151848203604086015262003fb5828262003c20565b9150506060830151848203606086015262003fd1828262003c20565b9150506080830151848203608086015262003fed828262003c20565b95945050505050565b805160009060608401906200400c858262003dff565b506020830151848203602086015262004026828262003e2a565b9150506040830151848203604086015262003fed828262003d37565b600062004050828462003ba6565b50601401919050565b6000620022e4828462003e6a565b600062004075828662003e6a565b915062004083828562003e0a565b60208201915062004095828462003e0a565b506020019392505050565b6020810162001fb2828462003b95565b6101808101620040c1828f62003b95565b8181036020830152620040d5818e62003e2a565b90508181036040830152620040eb818d62003e2a565b9050818103606083015262004101818c62003e2a565b905062004112608083018b62003dff565b6200412160a083018a62003dff565b6200413060c083018962003dff565b6200413f60e083018862003dff565b6200414f61010083018762003df4565b6200415f61012083018662003dff565b6200416f61014083018562003dff565b6200417f61016083018462003dff565b9d9c50505050505050505050505050565b60208082528101620022e4818462003bbb565b60208082528101620022e4818462003c7a565b60208082528101620022e4818462003cdd565b60208082528101620022e4818462003d91565b6020810162001fb2828462003df4565b6020810162001fb2828462003dff565b604081016200420c828562003dff565b620022e4602083018462003b95565b60a081016200422b828862003dff565b6200423a602083018762003dff565b62004249604083018662003dff565b81810360608301526200425d818562003e2a565b90506200426e608083018462003dff565b9695505050505050565b6040810162004288828562003dff565b81810360208301526200391d818462003e2a565b6020810162001fb2828462003e1f565b60208082528101620022e4818462003e2a565b60208082528101620022e4818462003e9f565b6020808252810162001fb28162003f35565b60208082528101620022e4818462003f69565b60208082528101620022e4818462003ff6565b604081016200431a828562003dff565b620022e4602083018462003df4565b6040810162004339828562003dff565b620022e4602083018462003dff565b60405181810167ffffffffffffffff811182821017156200436857600080fd5b604052919050565b600067ffffffffffffffff8211156200438857600080fd5b506020601f91909101601f19160190565b60200190565b60009081526020902090565b5190565b5490565b60010190565b90815260200190565b919050565b6001600160a01b031690565b600062001fb282620043c7565b151590565b600062001fb282620043d3565b82818337506000910152565b60005b838110156200441b57818101518382015260200162004401565b838111156200442b576000848401525b50505050565b600062001fb2620044428362000528565b620043c7565b600062001fb262003e198362000528565b600062001fb282600062001fb28262004493565b600062001fb2825462004431565b600062001fb2825462004448565b601f01601f191690565b60601b90565b620044a481620043d3565b811462000d8857600080fd5b620044a481620043e0565b620044a4816200052856fe608060405234801561001057600080fd5b50604051610621380380610621833981810160405260a081101561003357600080fd5b81516020830151604080850151606086018051925194969395919493918201928464010000000082111561006657600080fd5b90830190602082018581111561007b57600080fd5b825164010000000081118282018810171561009557600080fd5b82525081516020918201929091019080838360005b838110156100c25781810151838201526020016100aa565b50505050905090810190601f1680156100ef5780820380516001836020036101000a031916815260200191505b50604052602090810151600188905560028790556003869055845190935061011d925060049185019061012b565b50600755506101c692505050565b828054600181600116156101000203166002900490600052602060002090601f016020900481019282601f1061016c57805160ff1916838001178555610199565b82800160010185558215610199579182015b8281111561019957825182559160200191906001019061017e565b506101a59291506101a9565b5090565b6101c391905b808211156101a557600081556001016101af565b90565b61044c806101d56000396000f3fe608060405234801561001057600080fd5b506004361061010b5760003560e01c806376303289116100a2578063b95e216c11610071578063b95e216c14610282578063bb90ebac1461028a578063cdb73ac014610292578063d321fe29146102af578063f680a7bd146102b75761010b565b80637630328914610231578063a968991b14610239578063aa8c217c14610255578063b46498061461025d5761010b565b80633a50ed13116100de5780633a50ed13146101e75780633f02907a146102045780634a86d8c514610221578063596ada67146102295761010b565b806306fdde03146101105780631be37f401461018d57806334d6093d146101a757806337e94726146101c4575b600080fd5b6101186102bf565b6040805160208082528351818301528351919283929083019185019080838360005b8381101561015257818101518382015260200161013a565b50505050905090810190601f16801561017f5780820380516001836020036101000a031916815260200191505b509250505060405180910390f35b61019561034d565b60408051918252519081900360200190f35b610195600480360360208110156101bd57600080fd5b5035610353565b610195600480360360408110156101da57600080fd5b508035906020013561035b565b610195600480360360208110156101fd57600080fd5b50356103aa565b6101956004803603602081101561021a57600080fd5b50356103b2565b6101956103ba565b6101956103c0565b6101956103c6565b6102416103cc565b604080519115158252519081900360200190f35b6101956103d5565b6102416004803603604081101561027357600080fd5b508035906020013515156103db565b6101956103f7565b6101956103fd565b610195600480360360208110156102a857600080fd5b5035610403565b61019561040b565b610195610411565b6004805460408051602060026001851615610100026000190190941693909304601f810184900484028201840190925281815292918301828280156103455780601f1061031a57610100808354040283529160200191610345565b820191906000526020600020905b81548152906001019060200180831161032857829003601f168201915b505050505081565b60035481565b600581905590565b60088190556005829055604080518381526020810183905281516000927fb8a98a6fb70ae0797c19a04e7cdbbb481db2c659e5a075550c85bbff58c12935928290030190a15060055492915050565b600081905590565b600181905590565b60075481565b60015481565b60095481565b60065460ff1681565b60055481565b6009919091556006805460ff1916911515919091179055600190565b60005481565b60085481565b600281905590565b60055490565b6002548156fea265627a7a723158209dd5acf5b0b8860e6c67b3201f9422e210739072ba78c4c771b474db9fa9615264736f6c634300050d0032a365627a7a72315820be044b9a317061242c33bc77305953935c1fe0b8e78aa1406e09e8e2827e2e446c6578706572696d656e74616cf564736f6c634300050d0040",
  "source": "pragma solidity ^0.5.0;\npragma experimental ABIEncoderV2;\n\nimport \"./SafeMath.sol\";\nimport \"./ServiceClaim.sol\";\nimport \"./AEECToken.sol\";\n\ncontract Organizations {\n    uint admin;\n\n    AEECToken public token;\n\n    uint256 claimId; //Max value of the number of claims made\n    uint storedData; //Miscellaneous data\n    mapping (bytes32=>Patient) public patientMap; //ID of patient to specific provider -\n    mapping (bytes32=>Provider) public providerMap; //ID of provider to specific provider -\n    mapping (bytes32=>Insurer) public insurerMap; //ID of insurance provider to specific insurer\n    mapping (bytes32=>address) public serviceClaimsMap; //ID of serviceClaim to the specific ServiceClaim contract instance\n    mapping (address=>string) public serviceName;\n    //Events for organization creation    event ServiceCreated(address serviceClaimAddr);\n    event SCID(bytes32 ID, address addr);\n    event ClaimCreated(uint256 id, uint256 amount);\n    event ClaimVerified(address addr);\n    event PatientCreated(bytes32 id, string name);\n    event ProviderCreated(bytes32 id, string name);\n    event InsurerCreated(bytes32 id, string name);\n    event PatientRetrieval(Patient patient);\n    event ProviderRetrieval(Provider provider);\n    event ServiceClaimInfo(\n        address addr, string patientname, string providername, string claimname, bytes32 id,\n        bytes32 provider, bytes32 patient, uint256 amount, bool confirmed, uint256 timeProvided, uint256 timeFiled, uint256 timeVerified);\n    //event patientList(Patient[] patients);\n    //event providerList(Provider[] providers);\n    //event insurerList(Insurer[] insurers);\n    event idList(bytes32[] ids);\n    event serviceList(address[] services);\n    event SCName(string name);\n    event SCEvent(SC);\n    struct SC {\n        address scAddr;\n        bytes32 id;\n        bytes32 insurerID;\n        bytes32 providerID;\n        bytes32 patientID;\n        string name;\n        uint256 amount;\n        bool verified;\n        bool paid;\n    }\n    bytes32 globalInsurerID;\n  \n    SC[] scs;\n    mapping (address=>string) SCMap;\n    address[] SCList;\n    bytes32[] patientList;\n    bytes32[] providerList;\n    bytes32[] insurerList;\n    bytes32[] claimList;\n\n    struct Patient {\n        bytes32 id;\n        string name;\n        //mapping (address=>string) SCMap;\n        address[] unclaimedServices;\n        address[] unverifiedClaims;\n        address[] verifiedClaims;\n    }\n    struct Provider {\n        bytes32 id;\n        string name;\n        bytes32[] patients;\n    }\n    struct Insurer {\n        bytes32 id;\n        string name;\n        bytes32[] providers;\n    }\n\n\n\n    constructor(address _tokenAddr) public {\n        preLoadInfo();\n        token = AEECToken(_tokenAddr);\n        token._mint(address(this),1000000);\n    }\n    function preLoadInfo() public{\n        bytes32 insurerID = addInsurer(\"CMS\");\n        bytes32 providerID = addProvider(\"UCSD Medical\", insurerID);\n        addPatient(\"Ken\", providerID);\n        addPatient(\"Danny\", providerID);\n        addPatient(\"Antonio\", providerID);\n    }\n    // ------------------------------ Adds Users to Network --------------------------- //\n    /** @dev add a patient to the network\n    @param _name is the name of the patient\n    @param _providerID is the current provider of the patient\n    @return pID is a bytes32 represented id number for the patient\n    */\n    function addPatient(string memory _name, bytes32 _providerID) public returns(bytes32 pID) {\n        bytes32 id = keccak256(abi.encodePacked(_name));\n        address[] memory uServiceList;\n        address[] memory uClaimList;\n        address[] memory vClaimList;\n        Patient memory newPatient = Patient(id, _name, uServiceList, uClaimList, vClaimList);\n        //bytes32 patientHash = keccak256(abi.encodePacked(newPatient));\n        patientMap[id] = newPatient;\n        patientList.push(id);\n        providerMap[_providerID].patients.push(newPatient.id);\n        emit PatientCreated(id, _name);\n        return id;\n    }\n    function getPatients() public view returns(bytes32[] memory nice) {\n        return patientList;\n    }\n    /** @dev add a provider to the network\n    @param _name name of the provider\n    @param _insurerID id of insurance provider\n    @return the pID of the health provider -\n     */\n    function addProvider(string memory _name, bytes32 _insurerID) public returns(bytes32 pID) {\n        bytes32 id = keccak256(abi.encodePacked(_name));\n        bytes32[] memory emptyList;\n        Provider memory newProvider = Provider(id, _name, emptyList);\n        //bytes32 providerHash = keccak256(abi.encodePacked(newProvider));\n        providerMap[id] = newProvider;\n        insurerMap[_insurerID].providers.push(newProvider.id);\n        providerList.push(id);\n        emit ProviderCreated(id, _name);\n        return id;\n    }\n    function getProviders() public view returns(bytes32[] memory nice) {\n        return providerList;\n    }\n    /** @dev add an insurnace provider to the network\n    @param _name the name of the insurance provider\n    @return pID of the insurance provider\n    */\n    function addInsurer(string memory _name) public returns(bytes32 pID) {\n        bytes32 id = keccak256(abi.encodePacked(_name));\n        bytes32[] memory emptyList;\n        Insurer memory newInsurer = Insurer(id, _name, emptyList);\n        //bytes32 insurerHash = keccak256(abi.encodePacked(newInsurer));\n        insurerMap[id] = newInsurer;\n        insurerList.push(id);\n        emit InsurerCreated(id, _name);\n        return id;\n    }\n    function getInsurers() public view returns(bytes32[] memory nice) {\n        return insurerList;\n    }\n    // ------------------------------ Functionality of the Network --------------------------- //\n    /** @dev create an instance of a ServiceClaim contract\n    @param _name name of the service\n    @param _providerID provider ID\n    @param _patientID patient ID\n    @return serviceContractHash is the id of the ServiceClaim contract\n    */\n    function provideService(string memory _name, bytes32 _providerID, bytes32 _patientID, uint256 _timeProvided) public \n    returns(bytes32 serviceContractHash) {\n        bytes32 id = keccak256(abi.encodePacked(_name, _providerID, _patientID));\n        ServiceClaim serviceClaim = new ServiceClaim(_providerID, _patientID, id, _name, _timeProvided);\n        bytes32 serviceClaimID = keccak256(abi.encodePacked(address(serviceClaim)));\n        SC memory scObj = SC(address(serviceClaim), serviceClaimID, globalInsurerID, _providerID, _patientID, _name, 0, false, false);\n        scs.push(scObj);\n        serviceClaimsMap[serviceClaimID] = address(serviceClaim);\n        Patient storage patient = patientMap[_patientID];\n        //patient.unverifiedClaims.push(address(serviceClaim));\n        //SC memory newSC = SC(_name, address(serviceClaim));\n        patient.unclaimedServices.push(address(serviceClaim));\n        serviceName[address(serviceClaim)] = _name;\n        SCMap[address(serviceClaim)] = _name;\n        SCList.push(address(serviceClaim));\n        emit SCID(serviceClaimID, address(serviceClaim));\n        return serviceClaimID;\n    }\n    /** @dev add a claim to a ServiceClaim contract i.e. the provider wants to file a claim for a service rendered\n    @param _serviceClaimID the ID of the ServiceClaim contract\n    @param _amount the amount to be claimed by the provider\n    @return ClaimID the ID of the claim\n    */\n    function fileClaim(bytes32 _serviceClaimID, uint256 _amount, uint256 _timeProvided) public returns(uint256 ClaimID) {\n        //Patient storage cPatient = patientMap[_patient];\n        ServiceClaim myServiceClaim = ServiceClaim(serviceClaimsMap[_serviceClaimID]);\n        uint256 newClaimID = myServiceClaim.fileClaim(_amount, _timeProvided);\n        bytes32 patID = myServiceClaim.patientID();\n        Patient storage cP = patientMap[patID];\n        claimList.push(_serviceClaimID);\n        for(uint i = 0; i < cP.unclaimedServices.length; i++){\n            if(cP.unclaimedServices[i] == address(myServiceClaim)){\n                delete(cP.unclaimedServices[i]);\n                break;\n            }\n        }\n        // string memory name = myServiceClaim.name();\n        //SC memory newSC = SC(name, address(myServiceClaim));\n        cP.unverifiedClaims.push(address(myServiceClaim));\n        emit ClaimCreated(newClaimID, _amount);\n        //emit SCEvent(newSC);\n        return newClaimID;\n    }\n \n    /** @dev invoke the verifyClaim function in the ServiceClaim contract\n    @param _serviceClaimID the id of the ServiceClaim contract\n    */\n    /** @dev invoke the verifyClaim function in the ServiceClaim contract\n    @param _serviceClaimAddress the address of the ServiceClaim contract\n    */\n    function verifyClaim(address _serviceClaimAddress, uint256 _timeVerified, bool _confirmed) public {\n        ServiceClaim myServiceClaim = ServiceClaim(_serviceClaimAddress);\n        require(myServiceClaim.verifyClaim(_timeVerified, _confirmed), \"Claim was not Verified\");\n        // Add the claim address to verified list\n        // Delete the claim address from unverified list\n        bytes32 patID = myServiceClaim.patientID();\n        Patient storage cP = patientMap[patID];\n        for(uint i = 0; i < cP.unverifiedClaims.length; i++){\n            if(cP.unverifiedClaims[i] == address(myServiceClaim)){\n                delete(cP.unverifiedClaims[i]);\n                break;\n            }\n        }\n        //string memory name = myServiceClaim.name();\n        //SC memory newSC = SC(name, address(myServiceClaim));\n        cP.verifiedClaims.push(address(myServiceClaim));\n        emit ClaimVerified(_serviceClaimAddress);\n    }\n    /** @dev invoke the payProvider function in the ServiceClaim contract\n    @param _serviceClaimID the id of the ServiceClaim contract\n    */\n    function payProvider(bytes32 _serviceClaimID) public {\n        //require(_serviceClaim.claim().verified == true, \"User has not verified service\");\n        ServiceClaim myServiceClaim = ServiceClaim(serviceClaimsMap[_serviceClaimID]);\n        // myServiceClaim.payProvider();\n    }\n    // ------------------------------ Getters of Network Data --------------------------- //\n    function patientsOfProvider(bytes32 _id) public returns (bytes32[] memory) {\n        Provider storage cP = providerMap[_id];\n        emit idList(cP.patients);\n        return(cP.patients);\n    }\n    function providersOfInsurer(bytes32 _id) public returns (bytes32[] memory) {\n        Insurer storage cI = insurerMap[_id];\n        emit idList(cI.providers);\n        return(cI.providers);\n    }\n    function getPatient(bytes32 _id) public returns (bool){\n        Patient memory patient = patientMap[_id];\n        emit PatientRetrieval(patient);\n        return true;\n    }\n    function getProvider(bytes32 _id) public returns (Provider memory){\n        Provider memory provider = providerMap[_id];\n        emit ProviderRetrieval(provider);\n        return providerMap[_id];\n    }\n    function patientUnclaimedServices(bytes32 _id) public returns (address[] memory){\n        Patient storage cP = patientMap[_id];\n        emit serviceList(cP.unclaimedServices);\n        for(uint i = 0; i < cP.unclaimedServices.length; i++){\n            emit SCName(SCMap[cP.unclaimedServices[i]]);\n        }\n        return(cP.unclaimedServices);\n        // address[] memory a;\n        // return a;\n    }\n    function patientUnverifiedClaims(bytes32 _id) public returns (address[] memory){\n        Patient storage cP = patientMap[_id];\n        //bytes32[] memory claimNames = new bytes32[](cP.unverifiedClaims.length);\n        for(uint i = 0; i < cP.unverifiedClaims.length; i++){\n            emit SCName(SCMap[cP.unverifiedClaims[i]]);\n        }\n        emit serviceList(cP.unverifiedClaims);\n        return(cP.unverifiedClaims);\n        // address[] memory a;\n        // return a;\n    }\n    function patientVerifiedClaims(bytes32 _id) public returns (address[] memory){\n        Patient storage cP = patientMap[_id];\n        emit serviceList(cP.verifiedClaims);\n        for(uint i = 0; i < cP.verifiedClaims.length; i++){\n            emit SCName(SCMap[cP.verifiedClaims[i]]);\n        }\n        return(cP.verifiedClaims);\n        // address[] memory a;\n        // return a;\n    }\n\n    function getToken() public view returns(address){\n        return address(token);\n    }\n\n    function setAdmin(uint _num) public {\n        admin = _num;\n    }\n    function getAdmin() public view returns (uint) {\n        return admin;\n    }\n    //   event ServiceClaimInfo(address addr, bytes32 id, bytes32 provider, bytes32 patient, uint256 amount, bool verified, bool payed);\n    function getAllServices() public {\n        for (uint i = 0; i < SCList.length; i++) {\n            ServiceClaim sc = ServiceClaim(SCList[i]);\n            string memory patientname = patientMap[sc.patientID()].name;\n            string memory providername = providerMap[sc.providerID()].name;\n            if(sc.timeProvided() > 0){\n                emit ServiceClaimInfo(\n                address(sc), patientname, providername, sc.name(), sc.serviceClaimID(), sc.providerID(), sc.patientID(), sc.amount(), sc.confirmed(), sc.timeProvided(), sc.timeFiled(), sc.timeVerified());\n            }\n        }\n    }\n    function getAllVerifiedServices() public {\n        for (uint i = 0; i < SCList.length; i++) {\n            ServiceClaim sc = ServiceClaim(SCList[i]);\n            string memory patientname = patientMap[sc.patientID()].name;\n            string memory providername = providerMap[sc.providerID()].name;\n            if (sc.timeVerified() > 0) {\n                emit ServiceClaimInfo(address(sc), patientname, providername, sc.name(), sc.serviceClaimID(), sc.providerID(), sc.patientID(), sc.amount(), sc.confirmed(), sc.timeProvided(), sc.timeFiled(), sc.timeVerified());\n            }\n        }\n    }\n    function getAllUnverifiedServices() public {\n        for (uint i = 0; i < SCList.length; i++) {\n            ServiceClaim sc = ServiceClaim(SCList[i]);\n            string memory patientname = patientMap[sc.patientID()].name;\n            string memory providername = providerMap[sc.providerID()].name;\n            if (sc.timeFiled() > 0 && sc.timeVerified() == 0) {\n                emit ServiceClaimInfo(address(sc), patientname, providername, sc.name(), sc.serviceClaimID(), sc.providerID(), sc.patientID(), sc.amount(), sc.confirmed(), sc.timeProvided(), sc.timeFiled(), sc.timeVerified());\n            }\n        }\n    }\n}\n",
  "sourcePath": "/Users/kenmiyachi/BlockLAB/Medicare-Claim-Verification/contracts/Organizations.sol",
  "compiler": {
    "name": "solc",
    "version": "0.5.13+commit.5b0b510c.Emscripten.clang"
  },
  "schemaVersion": "3.0.12",
  "updatedAt": "2019-11-21T00:05:47.444Z",
  "devdoc": {
    "methods": {
      "addInsurer(string)": {
        "details": "add an insurnace provider to the network",
        "params": {
          "_name": "the name of the insurance provider"
        },
        "return": "pID of the insurance provider"
      },
      "addPatient(string,bytes32)": {
        "details": "add a patient to the network",
        "params": {
          "_name": "is the name of the patient",
          "_providerID": "is the current provider of the patient"
        },
        "return": "pID is a bytes32 represented id number for the patient"
      },
      "addProvider(string,bytes32)": {
        "details": "add a provider to the network",
        "params": {
          "_insurerID": "id of insurance provider",
          "_name": "name of the provider"
        },
        "return": "the pID of the health provider -"
      },
      "fileClaim(bytes32,uint256,uint256)": {
        "details": "add a claim to a ServiceClaim contract i.e. the provider wants to file a claim for a service rendered",
        "params": {
          "_amount": "the amount to be claimed by the provider",
          "_serviceClaimID": "the ID of the ServiceClaim contract"
        },
        "return": "ClaimID the ID of the claim"
      },
      "payProvider(bytes32)": {
        "details": "invoke the payProvider function in the ServiceClaim contract",
        "params": {
          "_serviceClaimID": "the id of the ServiceClaim contract"
        }
      },
      "provideService(string,bytes32,bytes32,uint256)": {
        "details": "create an instance of a ServiceClaim contract",
        "params": {
          "_name": "name of the service",
          "_patientID": "patient ID",
          "_providerID": "provider ID"
        },
        "return": "serviceContractHash is the id of the ServiceClaim contract"
      },
      "verifyClaim(address,uint256,bool)": {
        "details": "invoke the verifyClaim function in the ServiceClaim contract",
        "params": {
          "_serviceClaimAddress": "the address of the ServiceClaim contract"
        }
      }
    }
  },
  "userdoc": {
    "methods": {}
  }
}