{
  "contractName": "Organizations",
  "abi": [
    {
      "constant": true,
      "inputs": [
        {
          "internalType": "bytes32",
          "name": "",
          "type": "bytes32"
        }
      ],
      "name": "serviceClaimsMap",
      "outputs": [
        {
          "internalType": "address",
          "name": "",
          "type": "address"
        }
      ],
      "payable": false,
      "stateMutability": "view",
      "type": "function"
    },
    {
      "constant": true,
      "inputs": [
        {
          "internalType": "bytes32",
          "name": "",
          "type": "bytes32"
        }
      ],
      "name": "providerMap",
      "outputs": [
        {
          "internalType": "bytes32",
          "name": "id",
          "type": "bytes32"
        },
        {
          "internalType": "string",
          "name": "name",
          "type": "string"
        }
      ],
      "payable": false,
      "stateMutability": "view",
      "type": "function"
    },
    {
      "constant": true,
      "inputs": [
        {
          "internalType": "address",
          "name": "",
          "type": "address"
        }
      ],
      "name": "serviceName",
      "outputs": [
        {
          "internalType": "string",
          "name": "",
          "type": "string"
        }
      ],
      "payable": false,
      "stateMutability": "view",
      "type": "function"
    },
    {
      "constant": true,
      "inputs": [
        {
          "internalType": "bytes32",
          "name": "",
          "type": "bytes32"
        }
      ],
      "name": "insurerMap",
      "outputs": [
        {
          "internalType": "bytes32",
          "name": "id",
          "type": "bytes32"
        },
        {
          "internalType": "string",
          "name": "name",
          "type": "string"
        }
      ],
      "payable": false,
      "stateMutability": "view",
      "type": "function"
    },
    {
      "constant": true,
      "inputs": [
        {
          "internalType": "bytes32",
          "name": "",
          "type": "bytes32"
        }
      ],
      "name": "patientMap",
      "outputs": [
        {
          "internalType": "bytes32",
          "name": "id",
          "type": "bytes32"
        },
        {
          "internalType": "string",
          "name": "name",
          "type": "string"
        }
      ],
      "payable": false,
      "stateMutability": "view",
      "type": "function"
    },
    {
      "inputs": [],
      "payable": false,
      "stateMutability": "nonpayable",
      "type": "constructor"
    },
    {
      "anonymous": false,
      "inputs": [
        {
          "indexed": false,
          "internalType": "bytes32",
          "name": "ID",
          "type": "bytes32"
        },
        {
          "indexed": false,
          "internalType": "address",
          "name": "addr",
          "type": "address"
        }
      ],
      "name": "SCID",
      "type": "event"
    },
    {
      "anonymous": false,
      "inputs": [
        {
          "indexed": false,
          "internalType": "uint256",
          "name": "id",
          "type": "uint256"
        },
        {
          "indexed": false,
          "internalType": "uint256",
          "name": "amount",
          "type": "uint256"
        }
      ],
      "name": "ClaimCreated",
      "type": "event"
    },
    {
      "anonymous": false,
      "inputs": [
        {
          "indexed": false,
          "internalType": "address",
          "name": "addr",
          "type": "address"
        }
      ],
      "name": "ClaimVerified",
      "type": "event"
    },
    {
      "anonymous": false,
      "inputs": [
        {
          "indexed": false,
          "internalType": "bytes32",
          "name": "id",
          "type": "bytes32"
        },
        {
          "indexed": false,
          "internalType": "string",
          "name": "name",
          "type": "string"
        }
      ],
      "name": "PatientCreated",
      "type": "event"
    },
    {
      "anonymous": false,
      "inputs": [
        {
          "indexed": false,
          "internalType": "bytes32",
          "name": "id",
          "type": "bytes32"
        },
        {
          "indexed": false,
          "internalType": "string",
          "name": "name",
          "type": "string"
        }
      ],
      "name": "ProviderCreated",
      "type": "event"
    },
    {
      "anonymous": false,
      "inputs": [
        {
          "indexed": false,
          "internalType": "bytes32",
          "name": "id",
          "type": "bytes32"
        },
        {
          "indexed": false,
          "internalType": "string",
          "name": "name",
          "type": "string"
        }
      ],
      "name": "InsurerCreated",
      "type": "event"
    },
    {
      "anonymous": false,
      "inputs": [
        {
          "components": [
            {
              "internalType": "bytes32",
              "name": "id",
              "type": "bytes32"
            },
            {
              "internalType": "string",
              "name": "name",
              "type": "string"
            },
            {
              "internalType": "address[]",
              "name": "unclaimedServices",
              "type": "address[]"
            },
            {
              "internalType": "address[]",
              "name": "unverifiedClaims",
              "type": "address[]"
            },
            {
              "internalType": "address[]",
              "name": "verifiedClaims",
              "type": "address[]"
            }
          ],
          "indexed": false,
          "internalType": "struct Organizations.Patient",
          "name": "patient",
          "type": "tuple"
        }
      ],
      "name": "PatientRetrieval",
      "type": "event"
    },
    {
      "anonymous": false,
      "inputs": [
        {
          "components": [
            {
              "internalType": "bytes32",
              "name": "id",
              "type": "bytes32"
            },
            {
              "internalType": "string",
              "name": "name",
              "type": "string"
            },
            {
              "internalType": "bytes32[]",
              "name": "patients",
              "type": "bytes32[]"
            }
          ],
          "indexed": false,
          "internalType": "struct Organizations.Provider",
          "name": "provider",
          "type": "tuple"
        }
      ],
      "name": "ProviderRetrieval",
      "type": "event"
    },
    {
      "anonymous": false,
      "inputs": [
        {
          "indexed": false,
          "internalType": "address",
          "name": "addr",
          "type": "address"
        },
        {
          "indexed": false,
          "internalType": "string",
          "name": "patientname",
          "type": "string"
        },
        {
          "indexed": false,
          "internalType": "string",
          "name": "providername",
          "type": "string"
        },
        {
          "indexed": false,
          "internalType": "string",
          "name": "claimname",
          "type": "string"
        },
        {
          "indexed": false,
          "internalType": "bytes32",
          "name": "id",
          "type": "bytes32"
        },
        {
          "indexed": false,
          "internalType": "bytes32",
          "name": "provider",
          "type": "bytes32"
        },
        {
          "indexed": false,
          "internalType": "bytes32",
          "name": "patient",
          "type": "bytes32"
        },
        {
          "indexed": false,
          "internalType": "uint256",
          "name": "amount",
          "type": "uint256"
        },
        {
          "indexed": false,
          "internalType": "bool",
          "name": "verified",
          "type": "bool"
        },
        {
          "indexed": false,
          "internalType": "bool",
          "name": "payed",
          "type": "bool"
        },
        {
          "indexed": false,
          "internalType": "uint256",
          "name": "timeProvided",
          "type": "uint256"
        },
        {
          "indexed": false,
          "internalType": "uint256",
          "name": "timeVerified",
          "type": "uint256"
        }
      ],
      "name": "ServiceClaimInfo",
      "type": "event"
    },
    {
      "anonymous": false,
      "inputs": [
        {
          "indexed": false,
          "internalType": "bytes32[]",
          "name": "ids",
          "type": "bytes32[]"
        }
      ],
      "name": "idList",
      "type": "event"
    },
    {
      "anonymous": false,
      "inputs": [
        {
          "indexed": false,
          "internalType": "address[]",
          "name": "services",
          "type": "address[]"
        }
      ],
      "name": "serviceList",
      "type": "event"
    },
    {
      "anonymous": false,
      "inputs": [
        {
          "indexed": false,
          "internalType": "string",
          "name": "name",
          "type": "string"
        }
      ],
      "name": "SCName",
      "type": "event"
    },
    {
      "anonymous": false,
      "inputs": [
        {
          "components": [
            {
              "internalType": "address",
              "name": "scAddr",
              "type": "address"
            },
            {
              "internalType": "bytes32",
              "name": "id",
              "type": "bytes32"
            },
            {
              "internalType": "bytes32",
              "name": "insurerID",
              "type": "bytes32"
            },
            {
              "internalType": "bytes32",
              "name": "providerID",
              "type": "bytes32"
            },
            {
              "internalType": "bytes32",
              "name": "patientID",
              "type": "bytes32"
            },
            {
              "internalType": "string",
              "name": "name",
              "type": "string"
            },
            {
              "internalType": "uint256",
              "name": "amount",
              "type": "uint256"
            },
            {
              "internalType": "bool",
              "name": "verified",
              "type": "bool"
            },
            {
              "internalType": "bool",
              "name": "paid",
              "type": "bool"
            }
          ],
          "indexed": false,
          "internalType": "struct Organizations.SC",
          "name": "",
          "type": "tuple"
        }
      ],
      "name": "SCEvent",
      "type": "event"
    },
    {
      "constant": false,
      "inputs": [],
      "name": "preLoadInfo",
      "outputs": [],
      "payable": false,
      "stateMutability": "nonpayable",
      "type": "function"
    },
    {
      "constant": false,
      "inputs": [
        {
          "internalType": "string",
          "name": "_name",
          "type": "string"
        },
        {
          "internalType": "bytes32",
          "name": "_providerID",
          "type": "bytes32"
        }
      ],
      "name": "addPatient",
      "outputs": [
        {
          "internalType": "bytes32",
          "name": "pID",
          "type": "bytes32"
        }
      ],
      "payable": false,
      "stateMutability": "nonpayable",
      "type": "function"
    },
    {
      "constant": true,
      "inputs": [],
      "name": "getPatients",
      "outputs": [
        {
          "internalType": "bytes32[]",
          "name": "nice",
          "type": "bytes32[]"
        }
      ],
      "payable": false,
      "stateMutability": "view",
      "type": "function"
    },
    {
      "constant": false,
      "inputs": [
        {
          "internalType": "string",
          "name": "_name",
          "type": "string"
        },
        {
          "internalType": "bytes32",
          "name": "_insurerID",
          "type": "bytes32"
        }
      ],
      "name": "addProvider",
      "outputs": [
        {
          "internalType": "bytes32",
          "name": "pID",
          "type": "bytes32"
        }
      ],
      "payable": false,
      "stateMutability": "nonpayable",
      "type": "function"
    },
    {
      "constant": true,
      "inputs": [],
      "name": "getProviders",
      "outputs": [
        {
          "internalType": "bytes32[]",
          "name": "nice",
          "type": "bytes32[]"
        }
      ],
      "payable": false,
      "stateMutability": "view",
      "type": "function"
    },
    {
      "constant": false,
      "inputs": [
        {
          "internalType": "string",
          "name": "_name",
          "type": "string"
        }
      ],
      "name": "addInsurer",
      "outputs": [
        {
          "internalType": "bytes32",
          "name": "pID",
          "type": "bytes32"
        }
      ],
      "payable": false,
      "stateMutability": "nonpayable",
      "type": "function"
    },
    {
      "constant": true,
      "inputs": [],
      "name": "getInsurers",
      "outputs": [
        {
          "internalType": "bytes32[]",
          "name": "nice",
          "type": "bytes32[]"
        }
      ],
      "payable": false,
      "stateMutability": "view",
      "type": "function"
    },
    {
      "constant": false,
      "inputs": [
        {
          "internalType": "string",
          "name": "_name",
          "type": "string"
        },
        {
          "internalType": "bytes32",
          "name": "_providerID",
          "type": "bytes32"
        },
        {
          "internalType": "bytes32",
          "name": "_patientID",
          "type": "bytes32"
        }
      ],
      "name": "provideService",
      "outputs": [
        {
          "internalType": "bytes32",
          "name": "serviceContractHash",
          "type": "bytes32"
        }
      ],
      "payable": false,
      "stateMutability": "nonpayable",
      "type": "function"
    },
    {
      "constant": false,
      "inputs": [
        {
          "internalType": "bytes32",
          "name": "_serviceClaimID",
          "type": "bytes32"
        },
        {
          "internalType": "uint256",
          "name": "_amount",
          "type": "uint256"
        },
        {
          "internalType": "uint256",
          "name": "_timeProvided",
          "type": "uint256"
        }
      ],
      "name": "fileClaim",
      "outputs": [
        {
          "internalType": "uint256",
          "name": "ClaimID",
          "type": "uint256"
        }
      ],
      "payable": false,
      "stateMutability": "nonpayable",
      "type": "function"
    },
    {
      "constant": false,
      "inputs": [
        {
          "internalType": "address",
          "name": "_serviceClaimAddress",
          "type": "address"
        },
        {
          "internalType": "uint256",
          "name": "_timeVerified",
          "type": "uint256"
        }
      ],
      "name": "verifyClaim",
      "outputs": [],
      "payable": false,
      "stateMutability": "nonpayable",
      "type": "function"
    },
    {
      "constant": false,
      "inputs": [
        {
          "internalType": "bytes32",
          "name": "_serviceClaimID",
          "type": "bytes32"
        }
      ],
      "name": "payProvider",
      "outputs": [],
      "payable": false,
      "stateMutability": "nonpayable",
      "type": "function"
    },
    {
      "constant": false,
      "inputs": [
        {
          "internalType": "bytes32",
          "name": "_id",
          "type": "bytes32"
        }
      ],
      "name": "patientsOfProvider",
      "outputs": [
        {
          "internalType": "bytes32[]",
          "name": "",
          "type": "bytes32[]"
        }
      ],
      "payable": false,
      "stateMutability": "nonpayable",
      "type": "function"
    },
    {
      "constant": false,
      "inputs": [
        {
          "internalType": "bytes32",
          "name": "_id",
          "type": "bytes32"
        }
      ],
      "name": "providersOfInsurer",
      "outputs": [
        {
          "internalType": "bytes32[]",
          "name": "",
          "type": "bytes32[]"
        }
      ],
      "payable": false,
      "stateMutability": "nonpayable",
      "type": "function"
    },
    {
      "constant": false,
      "inputs": [
        {
          "internalType": "bytes32",
          "name": "_id",
          "type": "bytes32"
        }
      ],
      "name": "getPatient",
      "outputs": [
        {
          "internalType": "bool",
          "name": "",
          "type": "bool"
        }
      ],
      "payable": false,
      "stateMutability": "nonpayable",
      "type": "function"
    },
    {
      "constant": false,
      "inputs": [
        {
          "internalType": "bytes32",
          "name": "_id",
          "type": "bytes32"
        }
      ],
      "name": "getProvider",
      "outputs": [
        {
          "components": [
            {
              "internalType": "bytes32",
              "name": "id",
              "type": "bytes32"
            },
            {
              "internalType": "string",
              "name": "name",
              "type": "string"
            },
            {
              "internalType": "bytes32[]",
              "name": "patients",
              "type": "bytes32[]"
            }
          ],
          "internalType": "struct Organizations.Provider",
          "name": "",
          "type": "tuple"
        }
      ],
      "payable": false,
      "stateMutability": "nonpayable",
      "type": "function"
    },
    {
      "constant": false,
      "inputs": [
        {
          "internalType": "bytes32",
          "name": "_id",
          "type": "bytes32"
        }
      ],
      "name": "patientUnclaimedServices",
      "outputs": [
        {
          "internalType": "address[]",
          "name": "",
          "type": "address[]"
        }
      ],
      "payable": false,
      "stateMutability": "nonpayable",
      "type": "function"
    },
    {
      "constant": false,
      "inputs": [
        {
          "internalType": "bytes32",
          "name": "_id",
          "type": "bytes32"
        }
      ],
      "name": "patientUnverifiedClaims",
      "outputs": [
        {
          "internalType": "address[]",
          "name": "",
          "type": "address[]"
        }
      ],
      "payable": false,
      "stateMutability": "nonpayable",
      "type": "function"
    },
    {
      "constant": false,
      "inputs": [
        {
          "internalType": "bytes32",
          "name": "_id",
          "type": "bytes32"
        }
      ],
      "name": "patientVerifiedClaims",
      "outputs": [
        {
          "internalType": "address[]",
          "name": "",
          "type": "address[]"
        }
      ],
      "payable": false,
      "stateMutability": "nonpayable",
      "type": "function"
    },
    {
      "constant": false,
      "inputs": [
        {
          "internalType": "uint256",
          "name": "_num",
          "type": "uint256"
        }
      ],
      "name": "setAdmin",
      "outputs": [],
      "payable": false,
      "stateMutability": "nonpayable",
      "type": "function"
    },
    {
      "constant": true,
      "inputs": [],
      "name": "getAdmin",
      "outputs": [
        {
          "internalType": "uint256",
          "name": "",
          "type": "uint256"
        }
      ],
      "payable": false,
      "stateMutability": "view",
      "type": "function"
    },
    {
      "constant": false,
      "inputs": [],
      "name": "getAllServices",
      "outputs": [],
      "payable": false,
      "stateMutability": "nonpayable",
      "type": "function"
    },
    {
      "constant": false,
      "inputs": [],
      "name": "getAllVerifiedServices",
      "outputs": [],
      "payable": false,
      "stateMutability": "nonpayable",
      "type": "function"
    },
    {
      "constant": false,
      "inputs": [],
      "name": "getAllUnverifiedServices",
      "outputs": [],
      "payable": false,
      "stateMutability": "nonpayable",
      "type": "function"
    }
  ],
  "bytecode": "0x60806040523480156200001157600080fd5b50620000256001600160e01b036200002b16565b62000874565b6000620000736040518060400160405280600381526020017f434d530000000000000000000000000000000000000000000000000000000000815250620001a060201b60201c565b90506000620000be6040518060400160405280600c81526020017f55435344204d65646963616c000000000000000000000000000000000000000081525083620002bf60201b60201c565b9050620001076040518060400160405280600381526020017f4b656e0000000000000000000000000000000000000000000000000000000000815250826200040460201b60201c565b5060408051808201909152600581527f44616e6e7900000000000000000000000000000000000000000000000000000060208201526200015190826001600160e01b036200040416565b5060408051808201909152600781527f416e746f6e696f0000000000000000000000000000000000000000000000000060208201526200019b90826001600160e01b036200040416565b505050565b60008082604051602001620001b69190620007e4565b6040516020818303038152906040528051906020012090506060620001da62000599565b5060408051606081018252838152602080820187815282840185905260008681526005835293909320825181559251805192938493909262000224926001850192910190620005bd565b50604082015180516200024291600284019160209091019062000642565b5050600e80546001810182556000919091527fbb7b4a454dc3493923482f07822329ed19e8244eff582cc204f8554c3620c3fd01849055506040517ff73cee28a98c20f23a903356ab57dc8c514e66b0488c994b09dec06f978c839b90620002ae9085908890620007f9565b60405180910390a150909392505050565b60008083604051602001620002d59190620007e4565b6040516020818303038152906040528051906020012090506060620002f962000599565b5060408051606081018252838152602080820188815282840185905260008681526004835293909320825181559251805192938493909262000343926001850192910190620005bd565b50604082015180516200036191600284019160209091019062000642565b50505060008581526005602090815260408083208451600290910180546001818101835591865293852090930155600d805492830181559092527fd7b6990105719101dabeb77144f2a3385c8033acd3af97e9423a695e81ad1eb501849055517f7dd222c7de5c7ba42d121aa7e2acc9d5d4a47c2eb31f55385cf51cbe459c5c9b90620003f29085908990620007f9565b60405180910390a15090949350505050565b600080836040516020016200041a9190620007e4565b6040516020818303038152906040528051906020012090506060806060620004416200067f565b506040805160a08101825285815260208082018a8152828401879052606083018690526080830185905260008881526003835293909320825181559251805192938493909262000499926001850192910190620005bd565b5060408201518051620004b7916002840191602090910190620006b1565b5060608201518051620004d5916003840191602090910190620006b1565b5060808201518051620004f3916004840191602090910190620006b1565b5050600c805460018181019092557fdf6966c971051c3d54ec59162606531493a51404a002842f56009d7e5cf4a8c7018790556000898152600460209081526040808320865160029091018054958601815584529190922090920191909155517f86ec8adc6f97da0327b3e1dcc24fa25aea5eb7afcf6af08792e4b2d4d799fad89150620005859087908b90620007f9565b60405180910390a150929695505050505050565b60405180606001604052806000801916815260200160608152602001606081525090565b828054600181600116156101000203166002900490600052602060002090601f016020900481019282601f106200060057805160ff191683800117855562000630565b8280016001018555821562000630579182015b828111156200063057825182559160200191906001019062000613565b506200063e92915062000717565b5090565b8280548282559060005260206000209081019282156200063057916020028201828111156200063057825182559160200191906001019062000613565b6040518060a0016040528060008019168152602001606081526020016060815260200160608152602001606081525090565b82805482825590600052602060002090810192821562000709579160200282015b828111156200070957825182546001600160a01b0319166001600160a01b03909116178255602090920191600190910190620006d2565b506200063e92915062000737565b6200073491905b808211156200063e57600081556001016200071e565b90565b6200073491905b808211156200063e5780546001600160a01b03191681556001016200073e565b620007698162000734565b82525050565b60006200077c8262000825565b62000788818562000829565b93506200079a81856020860162000837565b620007a5816200086a565b9093019392505050565b6000620007bc8262000825565b620007c8818562000832565b9350620007da81856020860162000837565b9290920192915050565b6000620007f28284620007af565b9392505050565b604081016200080982856200075e565b81810360208301526200081d81846200076f565b949350505050565b5190565b90815260200190565b919050565b60005b83811015620008545781810151838201526020016200083a565b8381111562000864576000848401525b50505050565b601f01601f191690565b614b5b80620008846000396000f3fe60806040523480156200001157600080fd5b5060043610620001f05760003560e01c80636e9960c31162000111578063a46bfff911620000a5578063e4595936116200007b578063e45959361462000453578063ece7ac2b146200045d578063edc922a91462000474578063ee3d52b3146200047e57620001f0565b8063a46bfff9146200040e578063dd2389251462000425578063e0e87b1a146200043c57620001f0565b80637899a34e11620000e75780637899a34e14620003a357806392398fbb14620003c95780639594c99e14620003e05780639c860b8a14620003f757620001f0565b80636e9960c3146200036b57806373b1b2bf1462000375578063740044b4146200038c57620001f0565b80632bde2a86116200018957806333fc83f7116200015f57806333fc83f7146200030d57806339160aa714620003335780633e7e072e146200034a5780633f1e172d146200036157620001f0565b80632bde2a8614620002a95780632f92023a14620002d057806333c0950a14620002e757620001f0565b80631bf78b3511620001cb5780631bf78b35146200024757806321dd8285146200025357806321fe0f3014620002795780632470d25e146200028357620001f0565b8063085683ff14620001f557806311569586146200022457806312ad1c37146200023d575b600080fd5b6200020c6200020636600462003b69565b62000495565b6040516200021b919062004215565b60405180910390f35b6200022e6200082c565b6040516200021b9190620041df565b6200022e62000887565b62000251620008df565b005b6200026a6200026436600462003a27565b620010e7565b6040516200021b9190620041b9565b6200025162001225565b6200029a6200029436600462003a27565b620019ab565b6040516200021b9190620040c9565b620002c0620002ba36600462003a27565b620019c6565b6040516200021b92919062004290565b62000251620002e1366004620039c7565b62001a71565b620002fe620002f836600462003a27565b62001c95565b6040516200021b9190620042ff565b620003246200031e3660046200399e565b62001f3c565b6040516200021b9190620042b4565b620002c06200034436600462003a27565b62001fdb565b6200020c6200035b36600462003b2f565b62002050565b6200025162002197565b6200020c62002277565b6200020c6200038636600462003a69565b6200227d565b6200020c6200039d36600462003b2f565b620024c8565b620003ba620003b436600462003a27565b6200265d565b6040516200021b919062004205565b620002c0620003da36600462003a27565b620028a7565b6200026a620003f136600462003a27565b6200291c565b6200022e6200040836600462003a27565b62002a5d565b6200022e6200041f36600462003a27565b62002b09565b6200020c6200043636600462003af6565b62002b51565b620002516200044d36600462003a27565b62002c70565b6200025162002cff565b6200026a6200046e36600462003a27565b62003508565b6200022e62003649565b620002516200048f36600462003a27565b620036a1565b600080848484604051602001620004af9392919062004090565b604051602081830303815290604052805190602001209050600084848388604051620004db90620036a6565b620004ea949392919062004244565b604051809103906000f08015801562000507573d6000803e3d6000fd5b5090506000816040516020016200051f91906200406b565b60405160208183030381529060405280519060200120905062000541620036b4565b5060408051610120810182526001600160a01b038481168252602080830185815260088054958501958652606085018c8152608086018c815260a087018f8152600060c0890181905260e08901819052610100890181905260098054600181018083559190925289517f6e1540171b6c0c960b71a7020d9f60077f6af931a8bbf590da0223dacf75c7af9290960291820180546001600160a01b0319169690991695909517885594517f6e1540171b6c0c960b71a7020d9f60077f6af931a8bbf590da0223dacf75c7b086015597517f6e1540171b6c0c960b71a7020d9f60077f6af931a8bbf590da0223dacf75c7b185015590517f6e1540171b6c0c960b71a7020d9f60077f6af931a8bbf590da0223dacf75c7b2840155517f6e1540171b6c0c960b71a7020d9f60077f6af931a8bbf590da0223dacf75c7b383015594518051949594869493620006b9937f6e1540171b6c0c960b71a7020d9f60077f6af931a8bbf590da0223dacf75c7b401920190620036ff565b5060c082015160068281019190915560e0830151600792830180546101009586015160ff199091169215159290921761ff0019169115159094021790925560008581526020928352604080822080546001600160a01b03199081166001600160a01b038b169081179092558c845260038652828420600281018054600181018255908652878620018054909216831790915590835292845290208b5191935062000769929091908c0190620036ff565b506001600160a01b0384166000908152600a602090815260409091208a5162000795928c0190620036ff565b50600b80546001810182556000919091527f0175b7a638427703f0dbe7bb9bbf987a2551717b34e79f33b5b1008d1fa01db90180546001600160a01b0319166001600160a01b0386161790556040517f2cdb195d7226065901c0e37d742237ac3e30d6dc0ce7faf49701f6ec9f0bd1ed9062000815908590879062004225565b60405180910390a1509093505050505b9392505050565b6060600e8054806020026020016040519081016040528092919081815260200182805480156200087c57602002820191906000526020600020905b81548152602001906001019080831162000867575b505050505090505b90565b6060600c8054806020026020016040519081016040528092919081815260200182805480156200087c576020028201919060005260206000209081548152602001906001019080831162000867575050505050905090565b60005b600b54811015620010e4576000600b8281548110620008fd57fe5b9060005260206000200160009054906101000a90046001600160a01b03169050606060036000836001600160a01b031663f680a7bd6040518163ffffffff1660e01b815260040160206040518083038186803b1580156200095d57600080fd5b505afa15801562000972573d6000803e3d6000fd5b505050506040513d601f19601f8201168201806040525062000998919081019062003a48565b81526020019081526020016000206001018054600181600116156101000203166002900480601f01602080910402602001604051908101604052809291908181526020018280546001816001161561010002031660029004801562000a415780601f1062000a155761010080835404028352916020019162000a41565b820191906000526020600020905b81548152906001019060200180831162000a2357829003601f168201915b50505050509050606060046000846001600160a01b031663596ada676040518163ffffffff1660e01b815260040160206040518083038186803b15801562000a8857600080fd5b505afa15801562000a9d573d6000803e3d6000fd5b505050506040513d601f19601f8201168201806040525062000ac3919081019062003a48565b81526020019081526020016000206001018054600181600116156101000203166002900480601f01602080910402602001604051908101604052809291908181526020018280546001816001161561010002031660029004801562000b6c5780601f1062000b405761010080835404028352916020019162000b6c565b820191906000526020600020905b81548152906001019060200180831162000b4e57829003601f168201915b50505050509050826001600160a01b031663bbb82d896040518163ffffffff1660e01b815260040160206040518083038186803b15801562000bad57600080fd5b505afa15801562000bc2573d6000803e3d6000fd5b505050506040513d601f19601f8201168201806040525062000be8919081019062003a06565b15801562000c6a57506000836001600160a01b0316634a86d8c56040518163ffffffff1660e01b815260040160206040518083038186803b15801562000c2d57600080fd5b505afa15801562000c42573d6000803e3d6000fd5b505050506040513d601f19601f8201168201806040525062000c68919081019062003a48565b115b15620010d8577fcba7299dd54b77d2bee53c9e7e9ad8acad48f240f1eab6611bea06241546af2d838383866001600160a01b03166306fdde036040518163ffffffff1660e01b815260040160006040518083038186803b15801562000cce57600080fd5b505afa15801562000ce3573d6000803e3d6000fd5b505050506040513d6000823e601f3d908101601f1916820160405262000d0d919081019062003abd565b876001600160a01b0316631be37f406040518163ffffffff1660e01b815260040160206040518083038186803b15801562000d4757600080fd5b505afa15801562000d5c573d6000803e3d6000fd5b505050506040513d601f19601f8201168201806040525062000d82919081019062003a48565b886001600160a01b031663596ada676040518163ffffffff1660e01b815260040160206040518083038186803b15801562000dbc57600080fd5b505afa15801562000dd1573d6000803e3d6000fd5b505050506040513d601f19601f8201168201806040525062000df7919081019062003a48565b896001600160a01b031663f680a7bd6040518163ffffffff1660e01b815260040160206040518083038186803b15801562000e3157600080fd5b505afa15801562000e46573d6000803e3d6000fd5b505050506040513d601f19601f8201168201806040525062000e6c919081019062003a48565b8a6001600160a01b031663aa8c217c6040518163ffffffff1660e01b815260040160206040518083038186803b15801562000ea657600080fd5b505afa15801562000ebb573d6000803e3d6000fd5b505050506040513d601f19601f8201168201806040525062000ee1919081019062003a48565b8b6001600160a01b031663bbb82d896040518163ffffffff1660e01b815260040160206040518083038186803b15801562000f1b57600080fd5b505afa15801562000f30573d6000803e3d6000fd5b505050506040513d601f19601f8201168201806040525062000f56919081019062003a06565b8c6001600160a01b031663295b4e176040518163ffffffff1660e01b815260040160206040518083038186803b15801562000f9057600080fd5b505afa15801562000fa5573d6000803e3d6000fd5b505050506040513d601f19601f8201168201806040525062000fcb919081019062003a06565b8d6001600160a01b0316634a86d8c56040518163ffffffff1660e01b815260040160206040518083038186803b1580156200100557600080fd5b505afa1580156200101a573d6000803e3d6000fd5b505050506040513d601f19601f8201168201806040525062001040919081019062003a48565b8e6001600160a01b031663763032896040518163ffffffff1660e01b815260040160206040518083038186803b1580156200107a57600080fd5b505afa1580156200108f573d6000803e3d6000fd5b505050506040513d601f19601f82011682018060405250620010b5919081019062003a48565b604051620010cf9c9b9a99989796959493929190620040d9565b60405180910390a15b505050600101620008e2565b50565b60008181526003602052604081206060915b600382015481101562001181577f35b7f39ce99df9443c69ab69269e1ae96c0add252abdcce625838b4c386c6236600a60008460030184815481106200113b57fe5b60009182526020808320909101546001600160a01b0316835282019290925260409081019091209051620011709190620042c7565b60405180910390a1600101620010f9565b507fa1c275d9147cd4bbf3a6fc6b01df2bdad7272d62a5bea8ea5f90e20e7c3f48e981600301604051620011b69190620041cc565b60405180910390a1806003018054806020026020016040519081016040528092919081815260200182805480156200121857602002820191906000526020600020905b81546001600160a01b03168152600190910190602001808311620011f9575b5050505050915050919050565b60005b600b54811015620010e4576000600b82815481106200124357fe5b9060005260206000200160009054906101000a90046001600160a01b03169050606060036000836001600160a01b031663f680a7bd6040518163ffffffff1660e01b815260040160206040518083038186803b158015620012a357600080fd5b505afa158015620012b8573d6000803e3d6000fd5b505050506040513d601f19601f82011682018060405250620012de919081019062003a48565b81526020019081526020016000206001018054600181600116156101000203166002900480601f016020809104026020016040519081016040528092919081815260200182805460018160011615610100020316600290048015620013875780601f106200135b5761010080835404028352916020019162001387565b820191906000526020600020905b8154815290600101906020018083116200136957829003601f168201915b50505050509050606060046000846001600160a01b031663596ada676040518163ffffffff1660e01b815260040160206040518083038186803b158015620013ce57600080fd5b505afa158015620013e3573d6000803e3d6000fd5b505050506040513d601f19601f8201168201806040525062001409919081019062003a48565b81526020019081526020016000206001018054600181600116156101000203166002900480601f016020809104026020016040519081016040528092919081815260200182805460018160011615610100020316600290048015620014b25780601f106200148657610100808354040283529160200191620014b2565b820191906000526020600020905b8154815290600101906020018083116200149457829003601f168201915b505050505090506000836001600160a01b0316634a86d8c56040518163ffffffff1660e01b815260040160206040518083038186803b158015620014f557600080fd5b505afa1580156200150a573d6000803e3d6000fd5b505050506040513d601f19601f8201168201806040525062001530919081019062003a48565b11156200199f577fcba7299dd54b77d2bee53c9e7e9ad8acad48f240f1eab6611bea06241546af2d838383866001600160a01b03166306fdde036040518163ffffffff1660e01b815260040160006040518083038186803b1580156200159557600080fd5b505afa158015620015aa573d6000803e3d6000fd5b505050506040513d6000823e601f3d908101601f19168201604052620015d4919081019062003abd565b876001600160a01b0316631be37f406040518163ffffffff1660e01b815260040160206040518083038186803b1580156200160e57600080fd5b505afa15801562001623573d6000803e3d6000fd5b505050506040513d601f19601f8201168201806040525062001649919081019062003a48565b886001600160a01b031663596ada676040518163ffffffff1660e01b815260040160206040518083038186803b1580156200168357600080fd5b505afa15801562001698573d6000803e3d6000fd5b505050506040513d601f19601f82011682018060405250620016be919081019062003a48565b896001600160a01b031663f680a7bd6040518163ffffffff1660e01b815260040160206040518083038186803b158015620016f857600080fd5b505afa1580156200170d573d6000803e3d6000fd5b505050506040513d601f19601f8201168201806040525062001733919081019062003a48565b8a6001600160a01b031663aa8c217c6040518163ffffffff1660e01b815260040160206040518083038186803b1580156200176d57600080fd5b505afa15801562001782573d6000803e3d6000fd5b505050506040513d601f19601f82011682018060405250620017a8919081019062003a48565b8b6001600160a01b031663bbb82d896040518163ffffffff1660e01b815260040160206040518083038186803b158015620017e257600080fd5b505afa158015620017f7573d6000803e3d6000fd5b505050506040513d601f19601f820116820180604052506200181d919081019062003a06565b8c6001600160a01b031663295b4e176040518163ffffffff1660e01b815260040160206040518083038186803b1580156200185757600080fd5b505afa1580156200186c573d6000803e3d6000fd5b505050506040513d601f19601f8201168201806040525062001892919081019062003a06565b8d6001600160a01b0316634a86d8c56040518163ffffffff1660e01b815260040160206040518083038186803b158015620018cc57600080fd5b505afa158015620018e1573d6000803e3d6000fd5b505050506040513d601f19601f8201168201806040525062001907919081019062003a48565b8e6001600160a01b031663763032896040518163ffffffff1660e01b815260040160206040518083038186803b1580156200194157600080fd5b505afa15801562001956573d6000803e3d6000fd5b505050506040513d601f19601f820116820180604052506200197c919081019062003a48565b604051620019969c9b9a99989796959493929190620040d9565b60405180910390a15b50505060010162001228565b6006602052600090815260409020546001600160a01b031681565b6004602090815260009182526040918290208054600180830180548651600293821615610100026000190190911692909204601f81018690048602830186019096528582529194929390929083018282801562001a675780601f1062001a3b5761010080835404028352916020019162001a67565b820191906000526020600020905b81548152906001019060200180831162001a4957829003601f168201915b5050505050905082565b60405163606bf15b60e11b815282906001600160a01b0382169063c0d7e2b69062001aa190859060040162004215565b602060405180830381600087803b15801562001abc57600080fd5b505af115801562001ad1573d6000803e3d6000fd5b505050506040513d601f19601f8201168201806040525062001af7919081019062003a06565b62001b1f5760405162461bcd60e51b815260040162001b1690620042da565b60405180910390fd5b6000816001600160a01b031663f680a7bd6040518163ffffffff1660e01b815260040160206040518083038186803b15801562001b5b57600080fd5b505afa15801562001b70573d6000803e3d6000fd5b505050506040513d601f19601f8201168201806040525062001b96919081019062003a48565b60008181526003602052604081209192505b600382015481101562001c2357836001600160a01b031682600301828154811062001bcf57fe5b6000918252602090912001546001600160a01b0316141562001c1a5781600301818154811062001bfb57fe5b600091825260209091200180546001600160a01b031916905562001c23565b60010162001ba8565b50600481018054600181018255600091825260209091200180546001600160a01b0319166001600160a01b0385161790556040517fc03c381479e74431d2e456b259238f87292a5a827091c7386e197457ad47e19e9062001c86908790620040c9565b60405180910390a15050505050565b62001c9f62003784565b62001ca962003784565b6004600084815260200190815260200160002060405180606001604052908160008201548152602001600182018054600181600116156101000203166002900480601f01602080910402602001604051908101604052809291908181526020018280546001816001161561010002031660029004801562001d6e5780601f1062001d425761010080835404028352916020019162001d6e565b820191906000526020600020905b81548152906001019060200180831162001d5057829003601f168201915b505050505081526020016002820180548060200260200160405190810160405280929190818152602001828054801562001dc857602002820191906000526020600020905b81548152602001906001019080831162001db3575b50505050508152505090507f8c6b3078bf6d713aeae5b1ccc2dfea387cbb876de1a5c9d81a4e22d4e832c5468160405162001e049190620042ff565b60405180910390a16004600084815260200190815260200160002060405180606001604052908160008201548152602001600182018054600181600116156101000203166002900480601f01602080910402602001604051908101604052809291908181526020018280546001816001161561010002031660029004801562001ed15780601f1062001ea55761010080835404028352916020019162001ed1565b820191906000526020600020905b81548152906001019060200180831162001eb357829003601f168201915b505050505081526020016002820180548060200260200160405190810160405280929190818152602001828054801562001f2b57602002820191906000526020600020905b81548152602001906001019080831162001f16575b505050505081525050915050919050565b60076020908152600091825260409182902080548351601f60026000196101006001861615020190931692909204918201849004840281018401909452808452909183018282801562001fd35780601f1062001fa75761010080835404028352916020019162001fd3565b820191906000526020600020905b81548152906001019060200180831162001fb557829003601f168201915b505050505081565b6005602090815260009182526040918290208054600180830180548651600293821615610100026000190190911692909204601f81018690048602830186019096528582529194929390929083018282801562001a675780601f1062001a3b5761010080835404028352916020019162001a67565b6000808360405160200162002066919062004082565b60405160208183030381529060405280519060200120905060606200208a62003784565b50604080516060810182528381526020808201888152828401859052600086815260048352939093208251815592518051929384939092620020d4926001850192910190620036ff565b5060408201518051620020f2916002840191602090910190620037a8565b50505060008581526005602090815260408083208451600290910180546001818101835591865293852090930155600d805492830181559092527fd7b6990105719101dabeb77144f2a3385c8033acd3af97e9423a695e81ad1eb501849055517f7dd222c7de5c7ba42d121aa7e2acc9d5d4a47c2eb31f55385cf51cbe459c5c9b9062002183908590899062004290565b60405180910390a150909150505b92915050565b6000620021bf60405180604001604052806003815260200162434d5360e81b81525062002b51565b90506000620021f36040518060400160405280600c81526020016b1550d4d1081359591a58d85b60a21b8152508362002050565b90506200221c6040518060400160405280600381526020016225b2b760e91b81525082620024c8565b50620022466040518060400160405280600581526020016444616e6e7960d81b81525082620024c8565b506200227260405180604001604052806007815260200166416e746f6e696f60c81b81525082620024c8565b505050565b60005490565b600083815260066020526040808220549051631bf4a39360e11b81526001600160a01b0390911690829082906337e9472690620022c1908890889060040162004312565b602060405180830381600087803b158015620022dc57600080fd5b505af1158015620022f1573d6000803e3d6000fd5b505050506040513d601f19601f8201168201806040525062002317919081019062003a48565b90506000826001600160a01b031663f680a7bd6040518163ffffffff1660e01b815260040160206040518083038186803b1580156200235557600080fd5b505afa1580156200236a573d6000803e3d6000fd5b505050506040513d601f19601f8201168201806040525062002390919081019062003a48565b6000818152600360205260408120600f80546001810182559083527f8d1108e10bcb7c27dddfc02ed9d693a074039d026cf4ea4240b40f7d581ac802018a90559192505b60028201548110156200244f57846001600160a01b0316826002018281548110620023fb57fe5b6000918252602090912001546001600160a01b0316141562002446578160020181815481106200242757fe5b600091825260209091200180546001600160a01b03191690556200244f565b600101620023d4565b50600381018054600181018255600091825260209091200180546001600160a01b0319166001600160a01b0386161790556040517f96e3875898071e5d91932eb150a3914f9fe70e473f6faeaad697e99a48937c9c90620024b49085908a9062004312565b60405180910390a150909695505050505050565b60008083604051602001620024de919062004082565b604051602081830303815290604052805190602001209050606080606062002505620037e5565b506040805160a08101825285815260208082018a815282840187905260608301869052608083018590526000888152600383529390932082518155925180519293849390926200255d926001850192910190620036ff565b50604082015180516200257b91600284019160209091019062003817565b50606082015180516200259991600384019160209091019062003817565b5060808201518051620025b791600484019160209091019062003817565b5050600c805460018181019092557fdf6966c971051c3d54ec59162606531493a51404a002842f56009d7e5cf4a8c7018790556000898152600460209081526040808320865160029091018054958601815584529190922090920191909155517f86ec8adc6f97da0327b3e1dcc24fa25aea5eb7afcf6af08792e4b2d4d799fad89150620026499087908b9062004290565b60405180910390a150929695505050505050565b600062002669620037e5565b600360008481526020019081526020016000206040518060a001604052908160008201548152602001600182018054600181600116156101000203166002900480601f0160208091040260200160405190810160405280929190818152602001828054600181600116156101000203166002900480156200272e5780601f1062002702576101008083540402835291602001916200272e565b820191906000526020600020905b8154815290600101906020018083116200271057829003601f168201915b50505050508152602001600282018054806020026020016040519081016040528092919081815260200182805480156200279257602002820191906000526020600020905b81546001600160a01b0316815260019091019060200180831162002773575b5050505050815260200160038201805480602002602001604051908101604052809291908181526020018280548015620027f657602002820191906000526020600020905b81546001600160a01b03168152600190910190602001808311620027d7575b50505050508152602001600482018054806020026020016040519081016040528092919081815260200182805480156200285a57602002820191906000526020600020905b81546001600160a01b031681526001909101906020018083116200283b575b50505050508152505090507f7822df68ea6ba88fa17a55a6c6fe1f7207c1653493392725ce9da7f61f8b601d81604051620028969190620042ec565b60405180910390a150600192915050565b6003602090815260009182526040918290208054600180830180548651600293821615610100026000190190911692909204601f81018690048602830186019096528582529194929390929083018282801562001a675780601f1062001a3b5761010080835404028352916020019162001a67565b600081815260036020526040908190209051606091907fa1c275d9147cd4bbf3a6fc6b01df2bdad7272d62a5bea8ea5f90e20e7c3f48e99062002964906002840190620041cc565b60405180910390a160005b6002820154811015620029f7577f35b7f39ce99df9443c69ab69269e1ae96c0add252abdcce625838b4c386c6236600a6000846002018481548110620029b157fe5b60009182526020808320909101546001600160a01b0316835282019290925260409081019091209051620029e69190620042c7565b60405180910390a16001016200296f565b508060020180548060200260200160405190810160405280929190818152602001828054801562001218576020028201919060005260206000209081546001600160a01b03168152600190910190602001808311620011f9575050505050915050919050565b600081815260056020526040908190209051606091907f1c7aaf504355c6134470b4070ca50bf276d45d0205aa86ef6bd15c684ae710c49062002aa5906002840190620041f2565b60405180910390a1806002018054806020026020016040519081016040528092919081815260200182805480156200121857602002820191906000526020600020905b81548152602001906001019080831162002ae8575050505050915050919050565b600081815260046020526040908190209051606091907f1c7aaf504355c6134470b4070ca50bf276d45d0205aa86ef6bd15c684ae710c49062002aa5906002840190620041f2565b6000808260405160200162002b67919062004082565b604051602081830303815290604052805190602001209050606062002b8b62003784565b5060408051606081018252838152602080820187815282840185905260008681526005835293909320825181559251805192938493909262002bd5926001850192910190620036ff565b506040820151805162002bf3916002840191602090910190620037a8565b5050600e80546001810182556000919091527fbb7b4a454dc3493923482f07822329ed19e8244eff582cc204f8554c3620c3fd01849055506040517ff73cee28a98c20f23a903356ab57dc8c514e66b0488c994b09dec06f978c839b9062002c5f908590889062004290565b60405180910390a150909392505050565b60008181526006602090815260408083205481516398d6a37360e01b815291516001600160a01b039091169384936398d6a373936004808201949293918390030190829087803b15801562002cc457600080fd5b505af115801562002cd9573d6000803e3d6000fd5b505050506040513d601f19601f8201168201806040525062002272919081019062003a06565b60005b600b54811015620010e4576000600b828154811062002d1d57fe5b9060005260206000200160009054906101000a90046001600160a01b03169050606060036000836001600160a01b031663f680a7bd6040518163ffffffff1660e01b815260040160206040518083038186803b15801562002d7d57600080fd5b505afa15801562002d92573d6000803e3d6000fd5b505050506040513d601f19601f8201168201806040525062002db8919081019062003a48565b81526020019081526020016000206001018054600181600116156101000203166002900480601f01602080910402602001604051908101604052809291908181526020018280546001816001161561010002031660029004801562002e615780601f1062002e355761010080835404028352916020019162002e61565b820191906000526020600020905b81548152906001019060200180831162002e4357829003601f168201915b50505050509050606060046000846001600160a01b031663596ada676040518163ffffffff1660e01b815260040160206040518083038186803b15801562002ea857600080fd5b505afa15801562002ebd573d6000803e3d6000fd5b505050506040513d601f19601f8201168201806040525062002ee3919081019062003a48565b81526020019081526020016000206001018054600181600116156101000203166002900480601f01602080910402602001604051908101604052809291908181526020018280546001816001161561010002031660029004801562002f8c5780601f1062002f605761010080835404028352916020019162002f8c565b820191906000526020600020905b81548152906001019060200180831162002f6e57829003601f168201915b50505050509050826001600160a01b031663bbb82d896040518163ffffffff1660e01b815260040160206040518083038186803b15801562002fcd57600080fd5b505afa15801562002fe2573d6000803e3d6000fd5b505050506040513d601f19601f8201168201806040525062003008919081019062003a06565b151560011480156200308e57506000836001600160a01b031663763032896040518163ffffffff1660e01b815260040160206040518083038186803b1580156200305157600080fd5b505afa15801562003066573d6000803e3d6000fd5b505050506040513d601f19601f820116820180604052506200308c919081019062003a48565b115b15620034fc577fcba7299dd54b77d2bee53c9e7e9ad8acad48f240f1eab6611bea06241546af2d838383866001600160a01b03166306fdde036040518163ffffffff1660e01b815260040160006040518083038186803b158015620030f257600080fd5b505afa15801562003107573d6000803e3d6000fd5b505050506040513d6000823e601f3d908101601f1916820160405262003131919081019062003abd565b876001600160a01b0316631be37f406040518163ffffffff1660e01b815260040160206040518083038186803b1580156200316b57600080fd5b505afa15801562003180573d6000803e3d6000fd5b505050506040513d601f19601f82011682018060405250620031a6919081019062003a48565b886001600160a01b031663596ada676040518163ffffffff1660e01b815260040160206040518083038186803b158015620031e057600080fd5b505afa158015620031f5573d6000803e3d6000fd5b505050506040513d601f19601f820116820180604052506200321b919081019062003a48565b896001600160a01b031663f680a7bd6040518163ffffffff1660e01b815260040160206040518083038186803b1580156200325557600080fd5b505afa1580156200326a573d6000803e3d6000fd5b505050506040513d601f19601f8201168201806040525062003290919081019062003a48565b8a6001600160a01b031663aa8c217c6040518163ffffffff1660e01b815260040160206040518083038186803b158015620032ca57600080fd5b505afa158015620032df573d6000803e3d6000fd5b505050506040513d601f19601f8201168201806040525062003305919081019062003a48565b8b6001600160a01b031663bbb82d896040518163ffffffff1660e01b815260040160206040518083038186803b1580156200333f57600080fd5b505afa15801562003354573d6000803e3d6000fd5b505050506040513d601f19601f820116820180604052506200337a919081019062003a06565b8c6001600160a01b031663295b4e176040518163ffffffff1660e01b815260040160206040518083038186803b158015620033b457600080fd5b505afa158015620033c9573d6000803e3d6000fd5b505050506040513d601f19601f82011682018060405250620033ef919081019062003a06565b8d6001600160a01b0316634a86d8c56040518163ffffffff1660e01b815260040160206040518083038186803b1580156200342957600080fd5b505afa1580156200343e573d6000803e3d6000fd5b505050506040513d601f19601f8201168201806040525062003464919081019062003a48565b8e6001600160a01b031663763032896040518163ffffffff1660e01b815260040160206040518083038186803b1580156200349e57600080fd5b505afa158015620034b3573d6000803e3d6000fd5b505050506040513d601f19601f82011682018060405250620034d9919081019062003a48565b604051620034f39c9b9a99989796959493929190620040d9565b60405180910390a15b50505060010162002d02565b600081815260036020526040908190209051606091907fa1c275d9147cd4bbf3a6fc6b01df2bdad7272d62a5bea8ea5f90e20e7c3f48e99062003550906004840190620041cc565b60405180910390a160005b6004820154811015620035e3577f35b7f39ce99df9443c69ab69269e1ae96c0add252abdcce625838b4c386c6236600a60008460040184815481106200359d57fe5b60009182526020808320909101546001600160a01b0316835282019290925260409081019091209051620035d29190620042c7565b60405180910390a16001016200355b565b508060040180548060200260200160405190810160405280929190818152602001828054801562001218576020028201919060005260206000209081546001600160a01b03168152600190910190602001808311620011f9575050505050915050919050565b6060600d8054806020026020016040519081016040528092919081815260200182805480156200087c576020028201919060005260206000209081548152602001906001019080831162000867575050505050905090565b600055565b61067680620044a383390190565b604080516101208101825260008082526020820181905291810182905260608082018390526080820183905260a082015260c0810182905260e0810182905261010081019190915290565b828054600181600116156101000203166002900490600052602060002090601f016020900481019282601f106200374257805160ff191683800117855562003772565b8280016001018555821562003772579182015b828111156200377257825182559160200191906001019062003755565b50620037809291506200387d565b5090565b60405180606001604052806000801916815260200160608152602001606081525090565b8280548282559060005260206000209081019282156200377257916020028201828111156200377257825182559160200191906001019062003755565b6040518060a0016040528060008019168152602001606081526020016060815260200160608152602001606081525090565b8280548282559060005260206000209081019282156200386f579160200282015b828111156200386f57825182546001600160a01b0319166001600160a01b0390911617825560209092019160019091019062003838565b50620037809291506200389a565b6200088491905b8082111562003780576000815560010162003884565b6200088491905b80821115620037805780546001600160a01b0319168155600101620038a1565b8035620021918162004475565b805162002191816200448c565b8035620021918162004497565b8051620021918162004497565b600082601f8301126200390757600080fd5b81516200391e620039188262004359565b62004331565b915080825260208301602083018583830111156200393b57600080fd5b62003948838284620043da565b50505092915050565b600082601f8301126200396357600080fd5b813562003974620039188262004359565b915080825260208301602083018583830111156200399157600080fd5b62003948838284620043ce565b600060208284031215620039b157600080fd5b6000620039bf8484620038c1565b949350505050565b60008060408385031215620039db57600080fd5b6000620039e98585620038c1565b9250506020620039fc85828601620038db565b9150509250929050565b60006020828403121562003a1957600080fd5b6000620039bf8484620038ce565b60006020828403121562003a3a57600080fd5b6000620039bf8484620038db565b60006020828403121562003a5b57600080fd5b6000620039bf8484620038e8565b60008060006060848603121562003a7f57600080fd5b600062003a8d8686620038db565b935050602062003aa086828701620038db565b925050604062003ab386828701620038db565b9150509250925092565b60006020828403121562003ad057600080fd5b815167ffffffffffffffff81111562003ae857600080fd5b620039bf84828501620038f5565b60006020828403121562003b0957600080fd5b813567ffffffffffffffff81111562003b2157600080fd5b620039bf8482850162003951565b6000806040838503121562003b4357600080fd5b823567ffffffffffffffff81111562003b5b57600080fd5b620039e98582860162003951565b60008060006060848603121562003b7f57600080fd5b833567ffffffffffffffff81111562003b9757600080fd5b62003a8d8682870162003951565b600062003bb3838362003bc9565b505060200190565b600062003bb3838362003e33565b62003bd481620043bc565b82525050565b62003bd462003be982620043bc565b62004435565b600062003bfc8262004394565b62003c088185620043a2565b935062003c158362004382565b8060005b8381101562003c4957815162003c30888262003ba5565b975062003c3d8362004382565b92505060010162003c19565b509495945050505050565b600062003c618262004394565b62003c6d8185620043a2565b935062003c7a8362004382565b8060005b8381101562003c4957815162003c95888262003ba5565b975062003ca28362004382565b92505060010162003c7e565b600062003cbb8262004398565b62003cc78185620043a2565b935062003cd48362004388565b8060005b8381101562003c495762003cec8262004449565b62003cf8888262003ba5565b975062003d05836200439c565b92505060010162003cd8565b600062003d1e8262004394565b62003d2a8185620043a2565b935062003d378362004382565b8060005b8381101562003c4957815162003d52888262003bbb565b975062003d5f8362004382565b92505060010162003d3b565b600062003d788262004394565b62003d848185620043a2565b935062003d918362004382565b8060005b8381101562003c4957815162003dac888262003bbb565b975062003db98362004382565b92505060010162003d95565b600062003dd28262004398565b62003dde8185620043a2565b935062003deb8362004388565b8060005b8381101562003c495762003e038262004457565b62003e0f888262003bbb565b975062003e1c836200439c565b92505060010162003def565b62003bd481620043c9565b62003bd48162000884565b62003bd462003e4d8262000884565b62000884565b600062003e608262004394565b62003e6c8185620043a2565b935062003e7e818560208601620043da565b62003e898162004465565b9093019392505050565b600062003ea08262004394565b62003eac8185620043ab565b935062003ebe818560208601620043da565b9290920192915050565b60008154600181166000811462003ee8576001811462003f115762003f56565b607f600283041662003efb8187620043a2565b60ff198416815295505060208501925062003f56565b6002820462003f218187620043a2565b955062003f2e8562004388565b60005b8281101562003f4f5781548882015260019091019060200162003f31565b8701945050505b505092915050565b600062003f6d601683620043a2565b7510db185a5b481dd85cc81b9bdd0815995c9a599a595960521b815260200192915050565b805160009060a084019062003fa8858262003e33565b506020830151848203602086015262003fc2828262003e53565b9150506040830151848203604086015262003fde828262003c54565b9150506060830151848203606086015262003ffa828262003c54565b9150506080830151848203608086015262004016828262003c54565b95945050505050565b8051600090606084019062004035858262003e33565b50602083015184820360208601526200404f828262003e53565b9150506040830151848203604086015262004016828262003d6b565b600062004079828462003bda565b50601401919050565b600062000825828462003e93565b60006200409e828662003e93565b9150620040ac828562003e3e565b602082019150620040be828462003e3e565b506020019392505050565b6020810162002191828462003bc9565b6101808101620040ea828f62003bc9565b8181036020830152620040fe818e62003e53565b9050818103604083015262004114818d62003e53565b905081810360608301526200412a818c62003e53565b90506200413b608083018b62003e33565b6200414a60a083018a62003e33565b6200415960c083018962003e33565b6200416860e083018862003e33565b6200417861010083018762003e28565b6200418861012083018662003e28565b6200419861014083018562003e33565b620041a861016083018462003e33565b9d9c50505050505050505050505050565b6020808252810162000825818462003bef565b6020808252810162000825818462003cae565b6020808252810162000825818462003d11565b6020808252810162000825818462003dc5565b6020810162002191828462003e28565b6020810162002191828462003e33565b6040810162004235828562003e33565b62000825602083018462003bc9565b6080810162004254828762003e33565b62004263602083018662003e33565b62004272604083018562003e33565b818103606083015262004286818462003e53565b9695505050505050565b60408101620042a0828562003e33565b8181036020830152620039bf818462003e53565b6020808252810162000825818462003e53565b6020808252810162000825818462003ec8565b60208082528101620021918162003f5e565b6020808252810162000825818462003f92565b602080825281016200082581846200401f565b6040810162004322828562003e33565b62000825602083018462003e33565b60405181810167ffffffffffffffff811182821017156200435157600080fd5b604052919050565b600067ffffffffffffffff8211156200437157600080fd5b506020601f91909101601f19160190565b60200190565b60009081526020902090565b5190565b5490565b60010190565b90815260200190565b919050565b6001600160a01b031690565b60006200219182620043b0565b151590565b82818337506000910152565b60005b83811015620043f7578181015183820152602001620043dd565b8381111562004407576000848401525b50505050565b6000620021916200441e8362000884565b620043b0565b60006200219162003e4d8362000884565b60006200219182600062002191826200446f565b60006200219182546200440d565b600062002191825462004424565b601f01601f191690565b60601b90565b6200448081620043bc565b8114620010e457600080fd5b6200448081620043c9565b62004480816200088456fe608060405234801561001057600080fd5b506040516106763803806106768339818101604052608081101561003357600080fd5b81516020830151604080850151606086018051925194969395919493918201928464010000000082111561006657600080fd5b90830190602082018581111561007b57600080fd5b825164010000000081118282018810171561009557600080fd5b82525081516020918201929091019080838360005b838110156100c25781810151838201526020016100aa565b50505050905090810190601f1680156100ef5780820380516001836020036101000a031916815260200191505b506040525050506001849055600283905560038290558051610118906004906020840190610122565b50505050506101bd565b828054600181600116156101000203166002900490600052602060002090601f016020900481019282601f1061016357805160ff1916838001178555610190565b82800160010185558215610190579182015b82811115610190578251825591602001919060010190610175565b5061019c9291506101a0565b5090565b6101ba91905b8082111561019c57600081556001016101a6565b90565b6104aa806101cc6000396000f3fe608060405234801561001057600080fd5b506004361061012c5760003560e01c806376303289116100ad578063bbb82d8911610071578063bbb82d891461029e578063c0d7e2b6146102a6578063cdb73ac0146102c3578063d321fe29146102e0578063f680a7bd146102e85761012c565b8063763032891461027657806380007e831461027e57806398d6a37314610286578063aa8c217c1461028e578063b95e216c146102965761012c565b806337e94726116100f457806337e94726146102095780633a50ed131461022c5780633f02907a146102495780634a86d8c514610266578063596ada671461026e5761012c565b806306fdde03146101315780631be37f40146101ae578063209ebc08146101c8578063295b4e17146101e457806334d6093d146101ec575b600080fd5b6101396102f0565b6040805160208082528351818301528351919283929083019185019080838360005b8381101561017357818101518382015260200161015b565b50505050905090810190601f1680156101a05780820380516001836020036101000a031916815260200191505b509250505060405180910390f35b6101b661037e565b60408051918252519081900360200190f35b6101d0610384565b604080519115158252519081900360200190f35b6101d0610392565b6101b66004803603602081101561020257600080fd5b50356103a0565b6101b66004803603604081101561021f57600080fd5b50803590602001356103a8565b6101b66004803603602081101561024257600080fd5b50356103f7565b6101b66004803603602081101561025f57600080fd5b50356103ff565b6101b6610407565b6101b661040d565b6101b6610413565b6101d0610419565b6101d0610422565b6101b6610436565b6101b661043c565b6101d0610442565b6101d0600480360360208110156102bc57600080fd5b503561044b565b6101b6600480360360208110156102d957600080fd5b5035610461565b6101b6610469565b6101b661046f565b6004805460408051602060026001851615610100026000190190941693909304601f810184900484028201840190925281815292918301828280156103765780601f1061034b57610100808354040283529160200191610376565b820191906000526020600020905b81548152906001019060200180831161035957829003601f168201915b505050505081565b60035481565b600654610100900460ff1690565b600654610100900460ff1681565b600581905590565b60078190556005829055604080518381526020810183905281516000927fb8a98a6fb70ae0797c19a04e7cdbbb481db2c659e5a075550c85bbff58c12935928290030190a15060055492915050565b600081905590565b600181905590565b60075481565b60015481565b60085481565b60065460ff1690565b6006805461ff001916610100179055600190565b60055481565b60005481565b60065460ff1681565b6008556006805460ff1916600190811790915590565b600281905590565b60055490565b6002548156fea265627a7a723158204f8daa5c46556f2d90e6f8a455fee19228262f5e4ef9e694a9f44a84ae59cdfe64736f6c634300050b0032a365627a7a723158202d69ba2aadc0c467393578a785d57fc0ebb387147651a71d552549caa21c9ca36c6578706572696d656e74616cf564736f6c634300050b0040",
  "source": "pragma solidity ^0.5.0;\npragma experimental ABIEncoderV2;\nimport \"./SafeMath.sol\";\nimport \"./ServiceClaim.sol\";\ncontract Organizations {\n    uint admin;\n    uint256 claimId; //Max value of the number of claims made\n    uint storedData; //Miscellaneous data\n    mapping (bytes32=>Patient) public patientMap; //ID of patient to specific provider -\n    mapping (bytes32=>Provider) public providerMap; //ID of provider to specific provider -\n    mapping (bytes32=>Insurer) public insurerMap; //ID of insurance provider to specific insurer\n    mapping (bytes32=>address) public serviceClaimsMap; //ID of serviceClaim to the specific ServiceClaim contract instance\n    mapping (address=>string) public serviceName;\n    //Events for organization creation    event ServiceCreated(address serviceClaimAddr);\n    event SCID(bytes32 ID, address addr);\n    event ClaimCreated(uint256 id, uint256 amount);\n    event ClaimVerified(address addr);\n    event PatientCreated(bytes32 id, string name);\n    event ProviderCreated(bytes32 id, string name);\n    event InsurerCreated(bytes32 id, string name);\n    event PatientRetrieval(Patient patient);\n    event ProviderRetrieval(Provider provider);\n    event ServiceClaimInfo(\n        address addr, string patientname, string providername, string claimname, bytes32 id, \n        bytes32 provider, bytes32 patient, uint256 amount, bool verified, bool payed, uint256 timeProvided, uint256 timeVerified);\n    //event patientList(Patient[] patients);\n    //event providerList(Provider[] providers);\n    //event insurerList(Insurer[] insurers);\n    event idList(bytes32[] ids);\n    event serviceList(address[] services);\n    event SCName(string name);\n    event SCEvent(SC);\n    struct SC {\n        address scAddr;\n        bytes32 id;\n        bytes32 insurerID;\n        bytes32 providerID;\n        bytes32 patientID;\n        string name;\n        uint256 amount;\n        bool verified;\n        bool paid;\n    }\n    bytes32 globalInsurerID;\n  \n    SC[] scs;\n    mapping (address=>string) SCMap;\n    address[] SCList;\n    bytes32[] patientList;\n    bytes32[] providerList;\n    bytes32[] insurerList;\n    bytes32[] claimList;\n\n    struct Patient {\n        bytes32 id;\n        string name;\n        //mapping (address=>string) SCMap;\n        address[] unclaimedServices;\n        address[] unverifiedClaims;\n        address[] verifiedClaims;\n    }\n    struct Provider {\n        bytes32 id;\n        string name;\n        bytes32[] patients;\n    }\n    struct Insurer {\n        bytes32 id;\n        string name;\n        bytes32[] providers;\n    }\n    constructor() public {\n        preLoadInfo();\n    }\n    function preLoadInfo() public{\n        bytes32 insurerID = addInsurer(\"CMS\");\n        bytes32 providerID = addProvider(\"UCSD Medical\", insurerID);\n        addPatient(\"Ken\", providerID);\n        addPatient(\"Danny\", providerID);\n        addPatient(\"Antonio\", providerID);\n    }\n    // ------------------------------ Adds Users to Network --------------------------- //\n    /** @dev add a patient to the network\n    @param _name is the name of the patient\n    @param _providerID is the current provider of the patient\n    @return pID is a bytes32 represented id number for the patient\n    */\n    function addPatient(string memory _name, bytes32 _providerID) public returns(bytes32 pID) {\n        bytes32 id = keccak256(abi.encodePacked(_name));\n        address[] memory uServiceList;\n        address[] memory uClaimList;\n        address[] memory vClaimList;\n        Patient memory newPatient = Patient(id, _name, uServiceList, uClaimList, vClaimList);\n        //bytes32 patientHash = keccak256(abi.encodePacked(newPatient));\n        patientMap[id] = newPatient;\n        patientList.push(id);\n        providerMap[_providerID].patients.push(newPatient.id);\n        emit PatientCreated(id, _name);\n        return id;\n    }\n    function getPatients() public view returns(bytes32[] memory nice) {\n        return patientList;\n    }\n    /** @dev add a provider to the network\n    @param _name name of the provider\n    @param _insurerID id of insurance provider\n    @return the pID of the health provider -\n     */\n    function addProvider(string memory _name, bytes32 _insurerID) public returns(bytes32 pID) {\n        bytes32 id = keccak256(abi.encodePacked(_name));\n        bytes32[] memory emptyList;\n        Provider memory newProvider = Provider(id, _name, emptyList);\n        //bytes32 providerHash = keccak256(abi.encodePacked(newProvider));\n        providerMap[id] = newProvider;\n        insurerMap[_insurerID].providers.push(newProvider.id);\n        providerList.push(id);\n        emit ProviderCreated(id, _name);\n        return id;\n    }\n    function getProviders() public view returns(bytes32[] memory nice) {\n        return providerList;\n    }\n    /** @dev add an insurnace provider to the network\n    @param _name the name of the insurance provider\n    @return pID of the insurance provider\n    */\n    function addInsurer(string memory _name) public returns(bytes32 pID) {\n        bytes32 id = keccak256(abi.encodePacked(_name));\n        bytes32[] memory emptyList;\n        Insurer memory newInsurer = Insurer(id, _name, emptyList);\n        //bytes32 insurerHash = keccak256(abi.encodePacked(newInsurer));\n        insurerMap[id] = newInsurer;\n        insurerList.push(id);\n        emit InsurerCreated(id, _name);\n        return id;\n    }\n    function getInsurers() public view returns(bytes32[] memory nice) {\n        return insurerList;\n    }\n    // ------------------------------ Functionality of the Network --------------------------- //\n    /** @dev create an instance of a ServiceClaim contract\n    @param _name name of the service\n    @param _providerID provider ID\n    @param _patientID patient ID\n    @return serviceContractHash is the id of the ServiceClaim contract\n    */\n    function provideService(string memory _name, bytes32 _providerID, bytes32 _patientID) public returns(bytes32 serviceContractHash) {\n        bytes32 id = keccak256(abi.encodePacked(_name, _providerID, _patientID));\n        ServiceClaim serviceClaim = new ServiceClaim(_providerID, _patientID, id, _name);\n        bytes32 serviceClaimID = keccak256(abi.encodePacked(address(serviceClaim)));\n        SC memory scObj = SC(address(serviceClaim), serviceClaimID, globalInsurerID, _providerID, _patientID, _name, 0, false, false);\n        scs.push(scObj);\n        serviceClaimsMap[serviceClaimID] = address(serviceClaim);\n        Patient storage patient = patientMap[_patientID];\n        //patient.unverifiedClaims.push(address(serviceClaim));\n        //SC memory newSC = SC(_name, address(serviceClaim));\n        patient.unclaimedServices.push(address(serviceClaim));\n        serviceName[address(serviceClaim)] = _name;\n        SCMap[address(serviceClaim)] = _name;\n        SCList.push(address(serviceClaim));\n        emit SCID(serviceClaimID, address(serviceClaim));\n        return serviceClaimID;\n    }\n    /** @dev add a claim to a ServiceClaim contract i.e. the provider wants to file a claim for a service rendered\n    @param _serviceClaimID the ID of the ServiceClaim contract\n    @param _amount the amount to be claimed by the provider\n    @return ClaimID the ID of the claim\n    */\n    function fileClaim(bytes32 _serviceClaimID, uint256 _amount, uint256 _timeProvided) public returns(uint256 ClaimID) {\n        //Patient storage cPatient = patientMap[_patient];\n        ServiceClaim myServiceClaim = ServiceClaim(serviceClaimsMap[_serviceClaimID]);\n        uint256 newClaimID = myServiceClaim.fileClaim(_amount, _timeProvided);\n        bytes32 patID = myServiceClaim.patientID();\n        Patient storage cP = patientMap[patID];\n        claimList.push(_serviceClaimID);\n        for(uint i = 0; i < cP.unclaimedServices.length; i++){\n            if(cP.unclaimedServices[i] == address(myServiceClaim)){\n                delete(cP.unclaimedServices[i]);\n                break;\n            }\n        }\n        // string memory name = myServiceClaim.name();\n        //SC memory newSC = SC(name, address(myServiceClaim));\n        cP.unverifiedClaims.push(address(myServiceClaim));\n        emit ClaimCreated(newClaimID, _amount);\n        //emit SCEvent(newSC);\n        return newClaimID;\n    }\n \n    /** @dev invoke the verifyClaim function in the ServiceClaim contract\n    @param _serviceClaimID the id of the ServiceClaim contract\n    */\n    /** @dev invoke the verifyClaim function in the ServiceClaim contract\n    @param _serviceClaimAddress the address of the ServiceClaim contract\n    */\n    function verifyClaim(address _serviceClaimAddress, uint256 _timeVerified) public {\n        ServiceClaim myServiceClaim = ServiceClaim(_serviceClaimAddress);\n        require(myServiceClaim.verifyClaim(_timeVerified), \"Claim was not Verified\");\n        // Add the claim address to verified list\n        // Delete the claim address from unverified list\n        bytes32 patID = myServiceClaim.patientID();\n        Patient storage cP = patientMap[patID];\n        for(uint i = 0; i < cP.unverifiedClaims.length; i++){\n            if(cP.unverifiedClaims[i] == address(myServiceClaim)){\n                delete(cP.unverifiedClaims[i]);\n                break;\n            }\n        }\n        //string memory name = myServiceClaim.name();\n        //SC memory newSC = SC(name, address(myServiceClaim));\n        cP.verifiedClaims.push(address(myServiceClaim));\n        emit ClaimVerified(_serviceClaimAddress);\n    }\n    /** @dev invoke the payProvider function in the ServiceClaim contract\n    @param _serviceClaimID the id of the ServiceClaim contract\n    */\n    function payProvider(bytes32 _serviceClaimID) public {\n        //require(_serviceClaim.claim().verified == true, \"User has not verified service\");\n        ServiceClaim myServiceClaim = ServiceClaim(serviceClaimsMap[_serviceClaimID]);\n        myServiceClaim.payProvider();\n    }\n    // ------------------------------ Getters of Network Data --------------------------- //\n    function patientsOfProvider(bytes32 _id) public returns (bytes32[] memory) {\n        Provider storage cP = providerMap[_id];\n        emit idList(cP.patients);\n        return(cP.patients);\n    }\n    function providersOfInsurer(bytes32 _id) public returns (bytes32[] memory) {\n        Insurer storage cI = insurerMap[_id];\n        emit idList(cI.providers);\n        return(cI.providers);\n    }\n    function getPatient(bytes32 _id) public returns (bool){\n        Patient memory patient = patientMap[_id];\n        emit PatientRetrieval(patient);\n        return true;\n    }\n    function getProvider(bytes32 _id) public returns (Provider memory){\n        Provider memory provider = providerMap[_id];\n        emit ProviderRetrieval(provider);\n        return providerMap[_id];\n    }\n    function patientUnclaimedServices(bytes32 _id) public returns (address[] memory){\n        Patient storage cP = patientMap[_id];\n        emit serviceList(cP.unclaimedServices);\n        for(uint i = 0; i < cP.unclaimedServices.length; i++){\n            emit SCName(SCMap[cP.unclaimedServices[i]]);\n        }\n        return(cP.unclaimedServices);\n        // address[] memory a;\n        // return a;\n    }\n    function patientUnverifiedClaims(bytes32 _id) public returns (address[] memory){\n        Patient storage cP = patientMap[_id];\n        //bytes32[] memory claimNames = new bytes32[](cP.unverifiedClaims.length);\n        for(uint i = 0; i < cP.unverifiedClaims.length; i++){\n            emit SCName(SCMap[cP.unverifiedClaims[i]]);\n        }\n        emit serviceList(cP.unverifiedClaims);\n        return(cP.unverifiedClaims);\n        // address[] memory a;\n        // return a;\n    }\n    function patientVerifiedClaims(bytes32 _id) public returns (address[] memory){\n        Patient storage cP = patientMap[_id];\n        emit serviceList(cP.verifiedClaims);\n        for(uint i = 0; i < cP.verifiedClaims.length; i++){\n            emit SCName(SCMap[cP.verifiedClaims[i]]);\n        }\n        return(cP.verifiedClaims);\n        // address[] memory a;\n        // return a;\n    }\n    function setAdmin(uint _num) public {\n        admin = _num;\n    }\n    function getAdmin() public view returns (uint) {\n        return admin;\n    }\n    //   event ServiceClaimInfo(address addr, bytes32 id, bytes32 provider, bytes32 patient, uint256 amount, bool verified, bool payed);\n    function getAllServices() public {\n        for (uint i = 0; i < SCList.length; i++) {\n            ServiceClaim sc = ServiceClaim(SCList[i]);\n            string memory patientname = patientMap[sc.patientID()].name;\n            string memory providername = providerMap[sc.providerID()].name;\n            if(sc.timeProvided() > 0){\n                emit ServiceClaimInfo(\n                address(sc), patientname, providername, sc.name(), sc.serviceClaimID(), sc.providerID(), sc.patientID(), sc.amount(), sc.verified(), sc.paid(), sc.timeProvided(), sc.timeVerified());\n            }\n        }\n    }\n    function getAllVerifiedServices() public {\n        for (uint i = 0; i < SCList.length; i++) {\n            ServiceClaim sc = ServiceClaim(SCList[i]);\n            string memory patientname = patientMap[sc.patientID()].name;\n            string memory providername = providerMap[sc.providerID()].name;\n            if (sc.verified() == true && sc.timeVerified() > 0) {\n                emit ServiceClaimInfo(address(sc), patientname, providername, sc.name(), sc.serviceClaimID(), sc.providerID(), sc.patientID(), sc.amount(), sc.verified(), sc.paid(), sc.timeProvided(), sc.timeVerified());\n            }\n        }\n    }\n    function getAllUnverifiedServices() public {\n        for (uint i = 0; i < SCList.length; i++) {\n            ServiceClaim sc = ServiceClaim(SCList[i]);\n            string memory patientname = patientMap[sc.patientID()].name;\n            string memory providername = providerMap[sc.providerID()].name;\n            if (sc.verified() == false && sc.timeProvided() > 0) {\n                emit ServiceClaimInfo(address(sc), patientname, providername, sc.name(), sc.serviceClaimID(), sc.providerID(), sc.patientID(), sc.amount(), sc.verified(), sc.paid(), sc.timeProvided(), sc.timeVerified());\n            }\n        }\n    }\n}\n",
  "sourcePath": "/Users/danny/sdsc-blocklab/Medicare-Claim-Verification/contracts/Organizations.sol",
  "compiler": {
    "name": "solc",
    "version": "0.5.11+commit.c082d0b4.Emscripten.clang"
  },
  "schemaVersion": "3.0.16",
  "updatedAt": "2019-09-19T02:44:51.992Z",
  "devdoc": {
    "methods": {
      "addInsurer(string)": {
        "details": "add an insurnace provider to the network",
        "params": {
          "_name": "the name of the insurance provider"
        },
        "return": "pID of the insurance provider"
      },
      "addPatient(string,bytes32)": {
        "details": "add a patient to the network",
        "params": {
          "_name": "is the name of the patient",
          "_providerID": "is the current provider of the patient"
        },
        "return": "pID is a bytes32 represented id number for the patient"
      },
      "addProvider(string,bytes32)": {
        "details": "add a provider to the network",
        "params": {
          "_insurerID": "id of insurance provider",
          "_name": "name of the provider"
        },
        "return": "the pID of the health provider -"
      },
      "fileClaim(bytes32,uint256,uint256)": {
        "details": "add a claim to a ServiceClaim contract i.e. the provider wants to file a claim for a service rendered",
        "params": {
          "_amount": "the amount to be claimed by the provider",
          "_serviceClaimID": "the ID of the ServiceClaim contract"
        },
        "return": "ClaimID the ID of the claim"
      },
      "payProvider(bytes32)": {
        "details": "invoke the payProvider function in the ServiceClaim contract",
        "params": {
          "_serviceClaimID": "the id of the ServiceClaim contract"
        }
      },
      "provideService(string,bytes32,bytes32)": {
        "details": "create an instance of a ServiceClaim contract",
        "params": {
          "_name": "name of the service",
          "_patientID": "patient ID",
          "_providerID": "provider ID"
        },
        "return": "serviceContractHash is the id of the ServiceClaim contract"
      },
      "verifyClaim(address,uint256)": {
        "details": "invoke the verifyClaim function in the ServiceClaim contract",
        "params": {
          "_serviceClaimAddress": "the address of the ServiceClaim contract"
        }
      }
    }
  },
  "userdoc": {
    "methods": {}
  }
}