{
  "contractName": "Organizations",
  "abi": [
    {
      "constant": true,
      "inputs": [
        {
          "internalType": "bytes32",
          "name": "",
          "type": "bytes32"
        }
      ],
      "name": "serviceClaimsMap",
      "outputs": [
        {
          "internalType": "address",
          "name": "",
          "type": "address"
        }
      ],
      "payable": false,
      "stateMutability": "view",
      "type": "function"
    },
    {
      "constant": true,
      "inputs": [
        {
          "internalType": "bytes32",
          "name": "",
          "type": "bytes32"
        }
      ],
      "name": "providerMap",
      "outputs": [
        {
          "internalType": "bytes32",
          "name": "id",
          "type": "bytes32"
        },
        {
          "internalType": "string",
          "name": "name",
          "type": "string"
        }
      ],
      "payable": false,
      "stateMutability": "view",
      "type": "function"
    },
    {
      "constant": true,
      "inputs": [
        {
          "internalType": "address",
          "name": "",
          "type": "address"
        }
      ],
      "name": "serviceName",
      "outputs": [
        {
          "internalType": "string",
          "name": "",
          "type": "string"
        }
      ],
      "payable": false,
      "stateMutability": "view",
      "type": "function"
    },
    {
      "constant": true,
      "inputs": [
        {
          "internalType": "bytes32",
          "name": "",
          "type": "bytes32"
        }
      ],
      "name": "insurerMap",
      "outputs": [
        {
          "internalType": "bytes32",
          "name": "id",
          "type": "bytes32"
        },
        {
          "internalType": "string",
          "name": "name",
          "type": "string"
        }
      ],
      "payable": false,
      "stateMutability": "view",
      "type": "function"
    },
    {
      "constant": true,
      "inputs": [
        {
          "internalType": "bytes32",
          "name": "",
          "type": "bytes32"
        }
      ],
      "name": "patientMap",
      "outputs": [
        {
          "internalType": "bytes32",
          "name": "id",
          "type": "bytes32"
        },
        {
          "internalType": "string",
          "name": "name",
          "type": "string"
        }
      ],
      "payable": false,
      "stateMutability": "view",
      "type": "function"
    },
    {
      "inputs": [],
      "payable": false,
      "stateMutability": "nonpayable",
      "type": "constructor"
    },
    {
      "anonymous": false,
      "inputs": [
        {
          "indexed": false,
          "internalType": "bytes32",
          "name": "ID",
          "type": "bytes32"
        },
        {
          "indexed": false,
          "internalType": "address",
          "name": "addr",
          "type": "address"
        }
      ],
      "name": "SCID",
      "type": "event"
    },
    {
      "anonymous": false,
      "inputs": [
        {
          "indexed": false,
          "internalType": "uint256",
          "name": "id",
          "type": "uint256"
        },
        {
          "indexed": false,
          "internalType": "uint256",
          "name": "amount",
          "type": "uint256"
        }
      ],
      "name": "ClaimCreated",
      "type": "event"
    },
    {
      "anonymous": false,
      "inputs": [
        {
          "indexed": false,
          "internalType": "address",
          "name": "addr",
          "type": "address"
        }
      ],
      "name": "ClaimVerified",
      "type": "event"
    },
    {
      "anonymous": false,
      "inputs": [
        {
          "indexed": false,
          "internalType": "bytes32",
          "name": "id",
          "type": "bytes32"
        },
        {
          "indexed": false,
          "internalType": "string",
          "name": "name",
          "type": "string"
        }
      ],
      "name": "PatientCreated",
      "type": "event"
    },
    {
      "anonymous": false,
      "inputs": [
        {
          "indexed": false,
          "internalType": "bytes32",
          "name": "id",
          "type": "bytes32"
        },
        {
          "indexed": false,
          "internalType": "string",
          "name": "name",
          "type": "string"
        }
      ],
      "name": "ProviderCreated",
      "type": "event"
    },
    {
      "anonymous": false,
      "inputs": [
        {
          "indexed": false,
          "internalType": "bytes32",
          "name": "id",
          "type": "bytes32"
        },
        {
          "indexed": false,
          "internalType": "string",
          "name": "name",
          "type": "string"
        }
      ],
      "name": "InsurerCreated",
      "type": "event"
    },
    {
      "anonymous": false,
      "inputs": [
        {
          "components": [
            {
              "internalType": "bytes32",
              "name": "id",
              "type": "bytes32"
            },
            {
              "internalType": "string",
              "name": "name",
              "type": "string"
            },
            {
              "internalType": "address[]",
              "name": "unclaimedServices",
              "type": "address[]"
            },
            {
              "internalType": "address[]",
              "name": "unverifiedClaims",
              "type": "address[]"
            },
            {
              "internalType": "address[]",
              "name": "verifiedClaims",
              "type": "address[]"
            }
          ],
          "indexed": false,
          "internalType": "struct Organizations.Patient",
          "name": "patient",
          "type": "tuple"
        }
      ],
      "name": "PatientRetrieval",
      "type": "event"
    },
    {
      "anonymous": false,
      "inputs": [
        {
          "components": [
            {
              "internalType": "bytes32",
              "name": "id",
              "type": "bytes32"
            },
            {
              "internalType": "string",
              "name": "name",
              "type": "string"
            },
            {
              "internalType": "bytes32[]",
              "name": "patients",
              "type": "bytes32[]"
            }
          ],
          "indexed": false,
          "internalType": "struct Organizations.Provider",
          "name": "provider",
          "type": "tuple"
        }
      ],
      "name": "ProviderRetrieval",
      "type": "event"
    },
    {
      "anonymous": false,
      "inputs": [
        {
          "indexed": false,
          "internalType": "bytes32[]",
          "name": "ids",
          "type": "bytes32[]"
        }
      ],
      "name": "idList",
      "type": "event"
    },
    {
      "anonymous": false,
      "inputs": [
        {
          "indexed": false,
          "internalType": "address[]",
          "name": "services",
          "type": "address[]"
        }
      ],
      "name": "serviceList",
      "type": "event"
    },
    {
      "anonymous": false,
      "inputs": [
        {
          "indexed": false,
          "internalType": "string",
          "name": "name",
          "type": "string"
        }
      ],
      "name": "SCName",
      "type": "event"
    },
    {
      "anonymous": false,
      "inputs": [
        {
          "components": [
            {
              "internalType": "string",
              "name": "name",
              "type": "string"
            },
            {
              "internalType": "address",
              "name": "addr",
              "type": "address"
            }
          ],
          "indexed": false,
          "internalType": "struct Organizations.SC",
          "name": "",
          "type": "tuple"
        }
      ],
      "name": "SCEvent",
      "type": "event"
    },
    {
      "constant": false,
      "inputs": [],
      "name": "preLoadInfo",
      "outputs": [],
      "payable": false,
      "stateMutability": "nonpayable",
      "type": "function"
    },
    {
      "constant": false,
      "inputs": [
        {
          "internalType": "string",
          "name": "_name",
          "type": "string"
        },
        {
          "internalType": "bytes32",
          "name": "_providerID",
          "type": "bytes32"
        }
      ],
      "name": "addPatient",
      "outputs": [
        {
          "internalType": "bytes32",
          "name": "pID",
          "type": "bytes32"
        }
      ],
      "payable": false,
      "stateMutability": "nonpayable",
      "type": "function"
    },
    {
      "constant": false,
      "inputs": [
        {
          "internalType": "string",
          "name": "_name",
          "type": "string"
        },
        {
          "internalType": "bytes32",
          "name": "_insurerID",
          "type": "bytes32"
        }
      ],
      "name": "addProvider",
      "outputs": [
        {
          "internalType": "bytes32",
          "name": "pID",
          "type": "bytes32"
        }
      ],
      "payable": false,
      "stateMutability": "nonpayable",
      "type": "function"
    },
    {
      "constant": false,
      "inputs": [
        {
          "internalType": "string",
          "name": "_name",
          "type": "string"
        }
      ],
      "name": "addInsurer",
      "outputs": [
        {
          "internalType": "bytes32",
          "name": "pID",
          "type": "bytes32"
        }
      ],
      "payable": false,
      "stateMutability": "nonpayable",
      "type": "function"
    },
    {
      "constant": false,
      "inputs": [
        {
          "internalType": "string",
          "name": "_name",
          "type": "string"
        },
        {
          "internalType": "bytes32",
          "name": "_providerID",
          "type": "bytes32"
        },
        {
          "internalType": "bytes32",
          "name": "_patientID",
          "type": "bytes32"
        }
      ],
      "name": "provideService",
      "outputs": [
        {
          "internalType": "bytes32",
          "name": "serviceContractHash",
          "type": "bytes32"
        }
      ],
      "payable": false,
      "stateMutability": "nonpayable",
      "type": "function"
    },
    {
      "constant": false,
      "inputs": [
        {
          "internalType": "bytes32",
          "name": "_serviceClaimID",
          "type": "bytes32"
        },
        {
          "internalType": "uint256",
          "name": "_amount",
          "type": "uint256"
        }
      ],
      "name": "fileClaim",
      "outputs": [
        {
          "internalType": "uint256",
          "name": "ClaimID",
          "type": "uint256"
        }
      ],
      "payable": false,
      "stateMutability": "nonpayable",
      "type": "function"
    },
    {
      "constant": false,
      "inputs": [
        {
          "internalType": "address",
          "name": "_serviceClaimAddress",
          "type": "address"
        }
      ],
      "name": "verifyClaim",
      "outputs": [],
      "payable": false,
      "stateMutability": "nonpayable",
      "type": "function"
    },
    {
      "constant": false,
      "inputs": [
        {
          "internalType": "bytes32",
          "name": "_serviceClaimID",
          "type": "bytes32"
        }
      ],
      "name": "payProvider",
      "outputs": [],
      "payable": false,
      "stateMutability": "nonpayable",
      "type": "function"
    },
    {
      "constant": false,
      "inputs": [
        {
          "internalType": "bytes32",
          "name": "_id",
          "type": "bytes32"
        }
      ],
      "name": "patientsOfProvider",
      "outputs": [
        {
          "internalType": "bytes32[]",
          "name": "",
          "type": "bytes32[]"
        }
      ],
      "payable": false,
      "stateMutability": "nonpayable",
      "type": "function"
    },
    {
      "constant": false,
      "inputs": [
        {
          "internalType": "bytes32",
          "name": "_id",
          "type": "bytes32"
        }
      ],
      "name": "providersOfInsurer",
      "outputs": [
        {
          "internalType": "bytes32[]",
          "name": "",
          "type": "bytes32[]"
        }
      ],
      "payable": false,
      "stateMutability": "nonpayable",
      "type": "function"
    },
    {
      "constant": false,
      "inputs": [
        {
          "internalType": "bytes32",
          "name": "_id",
          "type": "bytes32"
        }
      ],
      "name": "getPatient",
      "outputs": [
        {
          "internalType": "bool",
          "name": "",
          "type": "bool"
        }
      ],
      "payable": false,
      "stateMutability": "nonpayable",
      "type": "function"
    },
    {
      "constant": false,
      "inputs": [
        {
          "internalType": "bytes32",
          "name": "_id",
          "type": "bytes32"
        }
      ],
      "name": "getProvider",
      "outputs": [
        {
          "components": [
            {
              "internalType": "bytes32",
              "name": "id",
              "type": "bytes32"
            },
            {
              "internalType": "string",
              "name": "name",
              "type": "string"
            },
            {
              "internalType": "bytes32[]",
              "name": "patients",
              "type": "bytes32[]"
            }
          ],
          "internalType": "struct Organizations.Provider",
          "name": "",
          "type": "tuple"
        }
      ],
      "payable": false,
      "stateMutability": "nonpayable",
      "type": "function"
    },
    {
      "constant": false,
      "inputs": [
        {
          "internalType": "bytes32",
          "name": "_id",
          "type": "bytes32"
        }
      ],
      "name": "patientUnclaimedServices",
      "outputs": [
        {
          "internalType": "address[]",
          "name": "",
          "type": "address[]"
        }
      ],
      "payable": false,
      "stateMutability": "nonpayable",
      "type": "function"
    },
    {
      "constant": false,
      "inputs": [
        {
          "internalType": "bytes32",
          "name": "_id",
          "type": "bytes32"
        }
      ],
      "name": "patientUnverifiedClaims",
      "outputs": [
        {
          "internalType": "address[]",
          "name": "",
          "type": "address[]"
        }
      ],
      "payable": false,
      "stateMutability": "nonpayable",
      "type": "function"
    },
    {
      "constant": false,
      "inputs": [
        {
          "internalType": "bytes32",
          "name": "_id",
          "type": "bytes32"
        }
      ],
      "name": "patientVerifiedClaims",
      "outputs": [
        {
          "internalType": "address[]",
          "name": "",
          "type": "address[]"
        }
      ],
      "payable": false,
      "stateMutability": "nonpayable",
      "type": "function"
    },
    {
      "constant": false,
      "inputs": [
        {
          "internalType": "uint256",
          "name": "_num",
          "type": "uint256"
        }
      ],
      "name": "setAdmin",
      "outputs": [],
      "payable": false,
      "stateMutability": "nonpayable",
      "type": "function"
    },
    {
      "constant": true,
      "inputs": [],
      "name": "getAdmin",
      "outputs": [
        {
          "internalType": "uint256",
          "name": "",
          "type": "uint256"
        }
      ],
      "payable": false,
      "stateMutability": "view",
      "type": "function"
    }
  ],
  "bytecode": "0x60806040523480156200001157600080fd5b50620000256001600160e01b036200002b16565b620007e2565b6000620000736040518060400160405280600381526020017f434d530000000000000000000000000000000000000000000000000000000000815250620001a060201b60201c565b90506000620000be6040518060400160405280600c81526020017f55435344204d65646963616c0000000000000000000000000000000000000000815250836200028a60201b60201c565b9050620001076040518060400160405280600381526020017f4b656e000000000000000000000000000000000000000000000000000000000081525082620003a160201b60201c565b5060408051808201909152600581527f44616e6e7900000000000000000000000000000000000000000000000000000060208201526200015190826001600160e01b03620003a116565b5060408051808201909152600781527f416e746f6e696f0000000000000000000000000000000000000000000000000060208201526200019b90826001600160e01b03620003a116565b505050565b60008082604051602001620001b6919062000752565b6040516020818303038152906040528051906020012090506060620001da62000507565b50604080516060810182528381526020808201878152828401859052600086815260058352939093208251815592518051929384939092620002249260018501929101906200052b565b506040820151805162000242916002840191602090910190620005b0565b509050507ff73cee28a98c20f23a903356ab57dc8c514e66b0488c994b09dec06f978c839b83866040516200027992919062000767565b60405180910390a150909392505050565b60008083604051602001620002a0919062000752565b6040516020818303038152906040528051906020012090506060620002c462000507565b506040805160608101825283815260208082018881528284018590526000868152600483529390932082518155925180519293849390926200030e9260018501929101906200052b565b50604082015180516200032c916002840191602090910190620005b0565b50505060008581526005602090815260408083208451600290910180546001810182559085529290932090910191909155517f7dd222c7de5c7ba42d121aa7e2acc9d5d4a47c2eb31f55385cf51cbe459c5c9b906200038f908590899062000767565b60405180910390a15090949350505050565b60008083604051602001620003b7919062000752565b6040516020818303038152906040528051906020012090506060806060620003de620005ed565b506040805160a08101825285815260208082018a81528284018790526060830186905260808301859052600088815260038352939093208251815592518051929384939092620004369260018501929101906200052b565b5060408201518051620004549160028401916020909101906200061f565b5060608201518051620004729160038401916020909101906200061f565b5060808201518051620004909160048401916020909101906200061f565b50505060008781526004602090815260408083208451600290910180546001810182559085529290932090910191909155517f86ec8adc6f97da0327b3e1dcc24fa25aea5eb7afcf6af08792e4b2d4d799fad890620004f39087908b9062000767565b60405180910390a150929695505050505050565b60405180606001604052806000801916815260200160608152602001606081525090565b828054600181600116156101000203166002900490600052602060002090601f016020900481019282601f106200056e57805160ff19168380011785556200059e565b828001600101855582156200059e579182015b828111156200059e57825182559160200191906001019062000581565b50620005ac92915062000685565b5090565b8280548282559060005260206000209081019282156200059e57916020028201828111156200059e57825182559160200191906001019062000581565b6040518060a0016040528060008019168152602001606081526020016060815260200160608152602001606081525090565b82805482825590600052602060002090810192821562000677579160200282015b828111156200067757825182546001600160a01b0319166001600160a01b0390911617825560209092019160019091019062000640565b50620005ac929150620006a5565b620006a291905b80821115620005ac57600081556001016200068c565b90565b620006a291905b80821115620005ac5780546001600160a01b0319168155600101620006ac565b620006d781620006a2565b82525050565b6000620006ea8262000793565b620006f6818562000797565b935062000708818560208601620007a5565b6200071381620007d8565b9093019392505050565b60006200072a8262000793565b620007368185620007a0565b935062000748818560208601620007a5565b9290920192915050565b60006200076082846200071d565b9392505050565b60408101620007778285620006cc565b81810360208301526200078b8184620006dd565b949350505050565b5190565b90815260200190565b919050565b60005b83811015620007c2578181015183820152602001620007a8565b83811115620007d2576000848401525b50505050565b601f01601f191690565b612d7b80620007f26000396000f3fe60806040523480156200001157600080fd5b5060043610620001605760003560e01c8063740044b411620000c9578063a46bfff91162000087578063a46bfff9146200033f578063a80d520c1462000356578063dd238925146200036d578063e0e87b1a1462000384578063ece7ac2b146200039b578063ee3d52b314620003b25762000160565b8063740044b414620002ae5780637899a34e14620002c557806392398fbb14620002eb5780639594c99e14620003025780639c860b8a14620003195762000160565b806333fc83f7116200012357806333fc83f7146200022d57806339160aa714620002535780633e7e072e146200026a5780633f1e172d146200028157806340f10653146200028d5780636e9960c314620002a45762000160565b8063085683ff146200016557806321dd828514620001945780632470d25e14620001ba5780632bde2a8614620001e057806333c0950a1462000207575b600080fd5b6200017c6200017636600462001f00565b620003c9565b6040516200018b9190620024fc565b60405180910390f35b620001ab620001a536600462001dd3565b62000551565b6040516200018b9190620024a0565b620001d1620001cb36600462001dd3565b62000694565b6040516200018b919062002490565b620001f7620001f136600462001dd3565b620006af565b6040516200018b92919062002577565b6200021e6200021836600462001dd3565b6200075a565b6040516200018b9190620025e6565b620002446200023e36600462001d89565b62000a01565b6040516200018b91906200259b565b620001f76200026436600462001dd3565b62000aa0565b6200017c6200027b36600462001ec6565b62000b15565b6200028b62000c2e565b005b6200017c6200029e36600462001e15565b62000d0e565b6200017c62000fa3565b6200017c620002bf36600462001ec6565b62000faa565b620002dc620002d636600462001dd3565b62001110565b6040516200018b9190620024ec565b620001f7620002fc36600462001dd3565b6200135a565b620001ab6200031336600462001dd3565b620013cf565b620003306200032a36600462001dd3565b62001510565b6040516200018b9190620024c6565b620003306200035036600462001dd3565b620015bc565b6200028b6200036736600462001d89565b62001604565b6200017c6200037e36600462001e8d565b6200181d565b6200028b6200039536600462001dd3565b62001907565b620001ab620003ac36600462001dd3565b62001996565b6200028b620003c336600462001dd3565b62001ad7565b600080848484604051602001620003e39392919062002457565b6040516020818303038152906040528051906020012090506000848483886040516200040f9062001adc565b6200041e94939291906200252b565b604051809103906000f0801580156200043b573d6000803e3d6000fd5b50905060008160405160200162000453919062002432565b60408051601f19818403018152918152815160209283012060008181526006845282812080546001600160a01b0388166001600160a01b031991821681179092558a8352600386528483206002810180546001810182559085528785200180549092168317909155908252600785529290208a519194509192620004dc9291908b019062001aea565b506001600160a01b0383166000908152600860209081526040909120895162000508928b019062001aea565b507f2cdb195d7226065901c0e37d742237ac3e30d6dc0ce7faf49701f6ec9f0bd1ed82846040516200053c9291906200250c565b60405180910390a150925050505b9392505050565b6000818152600360208190526040918290209151606092917fa1c275d9147cd4bbf3a6fc6b01df2bdad7272d62a5bea8ea5f90e20e7c3f48e9916200059991840190620024b3565b60405180910390a160005b60038201548110156200062c577f35b7f39ce99df9443c69ab69269e1ae96c0add252abdcce625838b4c386c623660086000846003018481548110620005e657fe5b60009182526020808320909101546001600160a01b03168352820192909252604090810190912090516200061b9190620025ae565b60405180910390a1600101620005a4565b50806003018054806020026020016040519081016040528092919081815260200182805480156200068757602002820191906000526020600020905b81546001600160a01b0316815260019091019060200180831162000668575b5050505050915050919050565b6006602052600090815260409020546001600160a01b031681565b6004602090815260009182526040918290208054600180830180548651600293821615610100026000190190911692909204601f810186900486028301860190965285825291949293909290830182828015620007505780601f10620007245761010080835404028352916020019162000750565b820191906000526020600020905b8154815290600101906020018083116200073257829003601f168201915b5050505050905082565b6200076462001b6f565b6200076e62001b6f565b6004600084815260200190815260200160002060405180606001604052908160008201548152602001600182018054600181600116156101000203166002900480601f016020809104026020016040519081016040528092919081815260200182805460018160011615610100020316600290048015620008335780601f10620008075761010080835404028352916020019162000833565b820191906000526020600020905b8154815290600101906020018083116200081557829003601f168201915b50505050508152602001600282018054806020026020016040519081016040528092919081815260200182805480156200088d57602002820191906000526020600020905b81548152602001906001019080831162000878575b50505050508152505090507f8c6b3078bf6d713aeae5b1ccc2dfea387cbb876de1a5c9d81a4e22d4e832c54681604051620008c99190620025e6565b60405180910390a16004600084815260200190815260200160002060405180606001604052908160008201548152602001600182018054600181600116156101000203166002900480601f016020809104026020016040519081016040528092919081815260200182805460018160011615610100020316600290048015620009965780601f106200096a5761010080835404028352916020019162000996565b820191906000526020600020905b8154815290600101906020018083116200097857829003601f168201915b5050505050815260200160028201805480602002602001604051908101604052809291908181526020018280548015620009f057602002820191906000526020600020905b815481526020019060010190808311620009db575b505050505081525050915050919050565b60076020908152600091825260409182902080548351601f60026000196101006001861615020190931692909204918201849004840281018401909452808452909183018282801562000a985780601f1062000a6c5761010080835404028352916020019162000a98565b820191906000526020600020905b81548152906001019060200180831162000a7a57829003601f168201915b505050505081565b6005602090815260009182526040918290208054600180830180548651600293821615610100026000190190911692909204601f810186900486028301860190965285825291949293909290830182828015620007505780601f10620007245761010080835404028352916020019162000750565b6000808360405160200162000b2b919062002449565b604051602081830303815290604052805190602001209050606062000b4f62001b6f565b5060408051606081018252838152602080820188815282840185905260008681526004835293909320825181559251805192938493909262000b9992600185019291019062001aea565b506040820151805162000bb791600284019160209091019062001b93565b50505060008581526005602090815260408083208451600290910180546001810182559085529290932090910191909155517f7dd222c7de5c7ba42d121aa7e2acc9d5d4a47c2eb31f55385cf51cbe459c5c9b9062000c1a908590899062002577565b60405180910390a150909150505b92915050565b600062000c5660405180604001604052806003815260200162434d5360e81b8152506200181d565b9050600062000c8a6040518060400160405280600c81526020016b1550d4d1081359591a58d85b60a21b8152508362000b15565b905062000cb36040518060400160405280600381526020016225b2b760e91b8152508262000faa565b5062000cdd6040518060400160405280600581526020016444616e6e7960d81b8152508262000faa565b5062000d0960405180604001604052806007815260200166416e746f6e696f60c81b8152508262000faa565b505050565b60008281526006602052604080822054905163d61909f960e01b81526001600160a01b03909116908290829063d61909f99062000d50908790600401620024fc565b602060405180830381600087803b15801562000d6b57600080fd5b505af115801562000d80573d6000803e3d6000fd5b505050506040513d601f19601f8201168201806040525062000da6919081019062001df4565b90506000826001600160a01b031663f680a7bd6040518163ffffffff1660e01b815260040160206040518083038186803b15801562000de457600080fd5b505afa15801562000df9573d6000803e3d6000fd5b505050506040513d601f19601f8201168201806040525062000e1f919081019062001df4565b60008181526003602052604081209192505b600282015481101562000eac57846001600160a01b031682600201828154811062000e5857fe5b6000918252602090912001546001600160a01b0316141562000ea35781600201818154811062000e8457fe5b600091825260209091200180546001600160a01b031916905562000eac565b60010162000e31565b506060846001600160a01b03166306fdde036040518163ffffffff1660e01b815260040160006040518083038186803b15801562000ee957600080fd5b505afa15801562000efe573d6000803e3d6000fd5b505050506040513d6000823e601f3d908101601f1916820160405262000f28919081019062001e54565b600383018054600181018255600091825260209091200180546001600160a01b0319166001600160a01b0388161790556040519091507f96e3875898071e5d91932eb150a3914f9fe70e473f6faeaad697e99a48937c9c9062000f8f9086908a90620025f9565b60405180910390a150919695505050505050565b6000545b90565b6000808360405160200162000fc0919062002449565b604051602081830303815290604052805190602001209050606080606062000fe762001bd0565b506040805160a08101825285815260208082018a815282840187905260608301869052608083018590526000888152600383529390932082518155925180519293849390926200103f92600185019291019062001aea565b50604082015180516200105d91600284019160209091019062001c02565b50606082015180516200107b91600384019160209091019062001c02565b50608082015180516200109991600484019160209091019062001c02565b50505060008781526004602090815260408083208451600290910180546001810182559085529290932090910191909155517f86ec8adc6f97da0327b3e1dcc24fa25aea5eb7afcf6af08792e4b2d4d799fad890620010fc9087908b9062002577565b60405180910390a150929695505050505050565b60006200111c62001bd0565b600360008481526020019081526020016000206040518060a001604052908160008201548152602001600182018054600181600116156101000203166002900480601f016020809104026020016040519081016040528092919081815260200182805460018160011615610100020316600290048015620011e15780601f10620011b557610100808354040283529160200191620011e1565b820191906000526020600020905b815481529060010190602001808311620011c357829003601f168201915b50505050508152602001600282018054806020026020016040519081016040528092919081815260200182805480156200124557602002820191906000526020600020905b81546001600160a01b0316815260019091019060200180831162001226575b5050505050815260200160038201805480602002602001604051908101604052809291908181526020018280548015620012a957602002820191906000526020600020905b81546001600160a01b031681526001909101906020018083116200128a575b50505050508152602001600482018054806020026020016040519081016040528092919081815260200182805480156200130d57602002820191906000526020600020905b81546001600160a01b03168152600190910190602001808311620012ee575b50505050508152505090507f7822df68ea6ba88fa17a55a6c6fe1f7207c1653493392725ce9da7f61f8b601d81604051620013499190620025d3565b60405180910390a150600192915050565b6003602090815260009182526040918290208054600180830180548651600293821615610100026000190190911692909204601f810186900486028301860190965285825291949293909290830182828015620007505780601f10620007245761010080835404028352916020019162000750565b600081815260036020526040908190209051606091907fa1c275d9147cd4bbf3a6fc6b01df2bdad7272d62a5bea8ea5f90e20e7c3f48e99062001417906002840190620024b3565b60405180910390a160005b6002820154811015620014aa577f35b7f39ce99df9443c69ab69269e1ae96c0add252abdcce625838b4c386c6236600860008460020184815481106200146457fe5b60009182526020808320909101546001600160a01b0316835282019290925260409081019091209051620014999190620025ae565b60405180910390a160010162001422565b508060020180548060200260200160405190810160405280929190818152602001828054801562000687576020028201919060005260206000209081546001600160a01b0316815260019091019060200180831162000668575050505050915050919050565b600081815260056020526040908190209051606091907f1c7aaf504355c6134470b4070ca50bf276d45d0205aa86ef6bd15c684ae710c49062001558906002840190620024d9565b60405180910390a1806002018054806020026020016040519081016040528092919081815260200182805480156200068757602002820191906000526020600020905b8154815260200190600101908083116200159b575050505050915050919050565b600081815260046020526040908190209051606091907f1c7aaf504355c6134470b4070ca50bf276d45d0205aa86ef6bd15c684ae710c49062001558906002840190620024d9565b6000819050806001600160a01b031663844cdf096040518163ffffffff1660e01b8152600401602060405180830381600087803b1580156200164557600080fd5b505af11580156200165a573d6000803e3d6000fd5b505050506040513d601f19601f8201168201806040525062001680919081019062001db2565b620016a85760405162461bcd60e51b81526004016200169f90620025c1565b60405180910390fd5b6000816001600160a01b031663f680a7bd6040518163ffffffff1660e01b815260040160206040518083038186803b158015620016e457600080fd5b505afa158015620016f9573d6000803e3d6000fd5b505050506040513d601f19601f820116820180604052506200171f919081019062001df4565b60008181526003602052604081209192505b6003820154811015620017ac57836001600160a01b03168260030182815481106200175857fe5b6000918252602090912001546001600160a01b03161415620017a3578160030181815481106200178457fe5b600091825260209091200180546001600160a01b0319169055620017ac565b60010162001731565b50600481018054600181018255600091825260209091200180546001600160a01b0319166001600160a01b0385161790556040517fc03c381479e74431d2e456b259238f87292a5a827091c7386e197457ad47e19e906200180f90869062002490565b60405180910390a150505050565b6000808260405160200162001833919062002449565b60405160208183030381529060405280519060200120905060606200185762001b6f565b50604080516060810182528381526020808201878152828401859052600086815260058352939093208251815592518051929384939092620018a192600185019291019062001aea565b5060408201518051620018bf91600284019160209091019062001b93565b509050507ff73cee28a98c20f23a903356ab57dc8c514e66b0488c994b09dec06f978c839b8386604051620018f692919062002577565b60405180910390a150909392505050565b60008181526006602090815260408083205481516398d6a37360e01b815291516001600160a01b039091169384936398d6a373936004808201949293918390030190829087803b1580156200195b57600080fd5b505af115801562001970573d6000803e3d6000fd5b505050506040513d601f19601f8201168201806040525062000d09919081019062001db2565b600081815260036020526040908190209051606091907fa1c275d9147cd4bbf3a6fc6b01df2bdad7272d62a5bea8ea5f90e20e7c3f48e990620019de906004840190620024b3565b60405180910390a160005b600482015481101562001a71577f35b7f39ce99df9443c69ab69269e1ae96c0add252abdcce625838b4c386c62366008600084600401848154811062001a2b57fe5b60009182526020808320909101546001600160a01b031683528201929092526040908101909120905162001a609190620025ae565b60405180910390a1600101620019e9565b508060040180548060200260200160405190810160405280929190818152602001828054801562000687576020028201919060005260206000209081546001600160a01b0316815260019091019060200180831162000668575050505050915050919050565b600055565b6105ac806200278d83390190565b828054600181600116156101000203166002900490600052602060002090601f016020900481019282601f1062001b2d57805160ff191683800117855562001b5d565b8280016001018555821562001b5d579182015b8281111562001b5d57825182559160200191906001019062001b40565b5062001b6b92915062001c68565b5090565b60405180606001604052806000801916815260200160608152602001606081525090565b82805482825590600052602060002090810192821562001b5d579160200282018281111562001b5d57825182559160200191906001019062001b40565b6040518060a0016040528060008019168152602001606081526020016060815260200160608152602001606081525090565b82805482825590600052602060002090810192821562001c5a579160200282015b8281111562001c5a57825182546001600160a01b0319166001600160a01b0390911617825560209092019160019091019062001c23565b5062001b6b92915062001c85565b62000fa791905b8082111562001b6b576000815560010162001c6f565b62000fa791905b8082111562001b6b5780546001600160a01b031916815560010162001c8c565b803562000c28816200275c565b805162000c288162002776565b803562000c288162002781565b805162000c288162002781565b600082601f83011262001cf257600080fd5b815162001d0962001d038262002640565b62002618565b9150808252602083016020830185838301111562001d2657600080fd5b62001d33838284620026c1565b50505092915050565b600082601f83011262001d4e57600080fd5b813562001d5f62001d038262002640565b9150808252602083016020830185838301111562001d7c57600080fd5b62001d33838284620026b5565b60006020828403121562001d9c57600080fd5b600062001daa848462001cac565b949350505050565b60006020828403121562001dc557600080fd5b600062001daa848462001cb9565b60006020828403121562001de657600080fd5b600062001daa848462001cc6565b60006020828403121562001e0757600080fd5b600062001daa848462001cd3565b6000806040838503121562001e2957600080fd5b600062001e37858562001cc6565b925050602062001e4a8582860162001cc6565b9150509250929050565b60006020828403121562001e6757600080fd5b815167ffffffffffffffff81111562001e7f57600080fd5b62001daa8482850162001ce0565b60006020828403121562001ea057600080fd5b813567ffffffffffffffff81111562001eb857600080fd5b62001daa8482850162001d3c565b6000806040838503121562001eda57600080fd5b823567ffffffffffffffff81111562001ef257600080fd5b62001e378582860162001d3c565b60008060006060848603121562001f1657600080fd5b833567ffffffffffffffff81111562001f2e57600080fd5b62001f3c8682870162001d3c565b935050602062001f4f8682870162001cc6565b925050604062001f628682870162001cc6565b9150509250925092565b600062001f7a838362001f90565b505060200190565b600062001f7a8383620021fa565b62001f9b81620026a3565b82525050565b62001f9b62001fb082620026a3565b6200271c565b600062001fc3826200267b565b62001fcf818562002689565b935062001fdc8362002669565b8060005b838110156200201057815162001ff7888262001f6c565b9750620020048362002669565b92505060010162001fe0565b509495945050505050565b600062002028826200267b565b62002034818562002689565b9350620020418362002669565b8060005b83811015620020105781516200205c888262001f6c565b9750620020698362002669565b92505060010162002045565b600062002082826200267f565b6200208e818562002689565b93506200209b836200266f565b8060005b838110156200201057620020b38262002730565b620020bf888262001f6c565b9750620020cc8362002683565b9250506001016200209f565b6000620020e5826200267b565b620020f1818562002689565b9350620020fe8362002669565b8060005b838110156200201057815162002119888262001f82565b9750620021268362002669565b92505060010162002102565b60006200213f826200267b565b6200214b818562002689565b9350620021588362002669565b8060005b838110156200201057815162002173888262001f82565b9750620021808362002669565b9250506001016200215c565b600062002199826200267f565b620021a5818562002689565b9350620021b2836200266f565b8060005b838110156200201057620021ca826200273e565b620021d6888262001f82565b9750620021e38362002683565b925050600101620021b6565b62001f9b81620026b0565b62001f9b8162000fa7565b62001f9b620022148262000fa7565b62000fa7565b600062002227826200267b565b62002233818562002689565b935062002245818560208601620026c1565b62002250816200274c565b9093019392505050565b600062002267826200267b565b62002273818562002692565b935062002285818560208601620026c1565b9290920192915050565b600081546001811660008114620022af5760018114620022d8576200231d565b607f6002830416620022c2818762002689565b60ff19841681529550506020850192506200231d565b60028204620022e8818762002689565b9550620022f5856200266f565b60005b828110156200231657815488820152600190910190602001620022f8565b8701945050505b505092915050565b60006200233460168362002689565b7510db185a5b481dd85cc81b9bdd0815995c9a599a595960521b815260200192915050565b805160009060a08401906200236f8582620021fa565b50602083015184820360208601526200238982826200221a565b91505060408301518482036040860152620023a582826200201b565b91505060608301518482036060860152620023c182826200201b565b91505060808301518482036080860152620023dd82826200201b565b95945050505050565b80516000906060840190620023fc8582620021fa565b50602083015184820360208601526200241682826200221a565b91505060408301518482036040860152620023dd828262002132565b600062002440828462001fa1565b50601401919050565b60006200054a82846200225a565b60006200246582866200225a565b915062002473828562002205565b60208201915062002485828462002205565b506020019392505050565b6020810162000c28828462001f90565b602080825281016200054a818462001fb6565b602080825281016200054a818462002075565b602080825281016200054a8184620020d8565b602080825281016200054a81846200218c565b6020810162000c288284620021ef565b6020810162000c288284620021fa565b604081016200251c8285620021fa565b6200054a602083018462001f90565b608081016200253b8287620021fa565b6200254a6020830186620021fa565b620025596040830185620021fa565b81810360608301526200256d81846200221a565b9695505050505050565b60408101620025878285620021fa565b818103602083015262001daa81846200221a565b602080825281016200054a81846200221a565b602080825281016200054a81846200228f565b6020808252810162000c288162002325565b602080825281016200054a818462002359565b602080825281016200054a8184620023e6565b60408101620026098285620021fa565b6200054a6020830184620021fa565b60405181810167ffffffffffffffff811182821017156200263857600080fd5b604052919050565b600067ffffffffffffffff8211156200265857600080fd5b506020601f91909101601f19160190565b60200190565b60009081526020902090565b5190565b5490565b60010190565b90815260200190565b919050565b6001600160a01b031690565b600062000c288262002697565b151590565b82818337506000910152565b60005b83811015620026de578181015183820152602001620026c4565b83811115620026ee576000848401525b50505050565b600062000c28620027058362000fa7565b62002697565b600062000c28620022148362000fa7565b600062000c2882600062000c288262002756565b600062000c288254620026f4565b600062000c2882546200270b565b601f01601f191690565b60601b90565b6200276781620026a3565b81146200277357600080fd5b50565b6200276781620026b0565b620027678162000fa756fe608060405234801561001057600080fd5b506040516105ac3803806105ac8339818101604052608081101561003357600080fd5b81516020830151604080850151606086018051925194969395919493918201928464010000000082111561006657600080fd5b90830190602082018581111561007b57600080fd5b825164010000000081118282018810171561009557600080fd5b82525081516020918201929091019080838360005b838110156100c25781810151838201526020016100aa565b50505050905090810190601f1680156100ef5780820380516001836020036101000a031916815260200191505b506040525050506001849055600283905560038290558051610118906004906020840190610122565b50505050506101bd565b828054600181600116156101000203166002900490600052602060002090601f016020900481019282601f1061016357805160ff1916838001178555610190565b82800160010185558215610190579182015b82811115610190578251825591602001919060010190610175565b5061019c9291506101a0565b5090565b6101ba91905b8082111561019c57600081556001016101a6565b90565b6103e0806101cc6000396000f3fe608060405234801561001057600080fd5b50600436106100ea5760003560e01c8063844cdf091161008c578063cdb73ac011610066578063cdb73ac014610219578063d321fe2914610236578063d61909f91461023e578063f680a7bd1461025b576100ea565b8063844cdf091461020157806398d6a37314610209578063b95e216c14610211576100ea565b80633a50ed13116100c85780633a50ed13146101b75780633f02907a146101d4578063596ada67146101f157806380007e83146101f9576100ea565b806306fdde03146100ef578063209ebc081461016c57806334d6093d14610188575b600080fd5b6100f7610263565b6040805160208082528351818301528351919283929083019185019080838360005b83811015610131578181015183820152602001610119565b50505050905090810190601f16801561015e5780820380516001836020036101000a031916815260200191505b509250505060405180910390f35b6101746102f1565b604080519115158252519081900360200190f35b6101a56004803603602081101561019e57600080fd5b50356102ff565b60408051918252519081900360200190f35b6101a5600480360360208110156101cd57600080fd5b5035610307565b6101a5600480360360208110156101ea57600080fd5b503561030f565b6101a5610317565b61017461031d565b610174610326565b610174610339565b6101a561034d565b6101a56004803603602081101561022f57600080fd5b5035610353565b6101a561035b565b6101a56004803603602081101561025457600080fd5b5035610361565b6101a56103a5565b6004805460408051602060026001851615610100026000190190941693909304601f810184900484028201840190925281815292918301828280156102e95780601f106102be576101008083540402835291602001916102e9565b820191906000526020600020905b8154815290600101906020018083116102cc57829003601f168201915b505050505081565b600654610100900460ff1690565b600581905590565b600081905590565b600181905590565b60015481565b60065460ff1690565b6006805460ff1916600190811790915590565b6006805461ff001916610100179055600190565b60005481565b600281905590565b60055490565b60058190556040805182815290516000917f7da274c7907a6e3fe48918a914c8a93c400713daffcd99eaa4a9ae6e99322204919081900360200190a1505060055490565b6002548156fea265627a7a723158201f6b3084745d72815e3f87a6dbdd1c1da60820caa25d7c654e8d848e720456af64736f6c634300050b0032a365627a7a72315820c22e1ac2a6bdae41f5c59f0014fa44de533d713502268bc45f64f9196f33ce0c6c6578706572696d656e74616cf564736f6c634300050b0040",
  "source": "pragma solidity ^0.5.0;\npragma experimental ABIEncoderV2;\n\n\nimport \"./SafeMath.sol\";\nimport \"./ServiceClaim.sol\";\n\ncontract Organizations {\n\n    uint admin;\n\n\n    uint256 claimId; //Max value of the number of claims made\n    uint storedData; //Miscellaneous data\n\n    mapping (bytes32=>Patient) public patientMap; //ID of patient to specific provider -\n    mapping (bytes32=>Provider) public providerMap; //ID of provider to specific provider -\n    mapping (bytes32=>Insurer) public insurerMap; //ID of insurance provider to specific insurer\n    mapping (bytes32=>address) public serviceClaimsMap; //ID of serviceClaim to the specific ServiceClaim contract instance\n    mapping (address=>string) public serviceName;\n\n    //Events for organization creation    event ServiceCreated(address serviceClaimAddr);\n    event SCID(bytes32 ID, address addr);\n    event ClaimCreated(uint256 id, uint256 amount);\n    event ClaimVerified(address addr);\n    event PatientCreated(bytes32 id, string name);\n    event ProviderCreated(bytes32 id, string name);\n    event InsurerCreated(bytes32 id, string name);\n    event PatientRetrieval(Patient patient);\n    event ProviderRetrieval(Provider provider);\n\n    //event patientList(Patient[] patients);\n    //event providerList(Provider[] providers);\n    //event insurerList(Insurer[] insurers);\n\n    event idList(bytes32[] ids);\n    event serviceList(address[] services);\n    event SCName(string name);\n    event SCEvent(SC);\n\n    struct SC {\n        string name;\n        address addr;\n    }\n\n    mapping (address=>string) SCMap;\n\n    struct Patient {\n        bytes32 id;\n        string name;\n        //mapping (address=>string) SCMap;\n        address[] unclaimedServices;\n        address[] unverifiedClaims;\n        address[] verifiedClaims;\n    }\n\n    struct Provider {\n        bytes32 id;\n        string name;\n        bytes32[] patients;\n    }\n\n    struct Insurer {\n        bytes32 id;\n        string name;\n        bytes32[] providers;\n    }\n\n    constructor() public {\n        preLoadInfo();\n    }\n\n    // function stringToBytes32(string memory source) public returns (bytes32 result) {\n    //     bytes memory tempEmptyStringTest = bytes(source);\n    //     if (tempEmptyStringTest.length == 0) {\n    //         return 0x0;\n    //     }\n\n    //     assembly {\n    //         result := mload(add(source, 32))\n    //     }\n    // }\n\n\n\n    function preLoadInfo() public{\n        bytes32 insurerID = addInsurer(\"CMS\");\n        bytes32 providerID = addProvider(\"UCSD Medical\", insurerID);\n        addPatient(\"Ken\", providerID);\n        addPatient(\"Danny\", providerID);\n        addPatient(\"Antonio\", providerID);\n    }\n    // ------------------------------ Adds Users to Network --------------------------- //\n\n    /** @dev add a patient to the network\n    @param _name is the name of the patient\n    @param _providerID is the current provider of the patient\n    @return pID is a bytes32 represented id number for the patient\n    */\n    function addPatient(string memory _name, bytes32 _providerID) public returns(bytes32 pID) {\n        bytes32 id = keccak256(abi.encodePacked(_name));\n        address[] memory uServiceList;\n        address[] memory uClaimList;\n        address[] memory vClaimList;\n        Patient memory newPatient = Patient(id, _name, uServiceList, uClaimList, vClaimList);\n        //bytes32 patientHash = keccak256(abi.encodePacked(newPatient));\n        patientMap[id] = newPatient;\n        providerMap[_providerID].patients.push(newPatient.id);\n        emit PatientCreated(id, _name);\n        return id;\n    }\n\n    /** @dev add a provider to the network\n    @param _name name of the provider\n    @param _insurerID id of insurance provider\n    @return the pID of the health provider -\n     */\n    function addProvider(string memory _name, bytes32 _insurerID) public returns(bytes32 pID) {\n        bytes32 id = keccak256(abi.encodePacked(_name));\n        bytes32[] memory emptyList;\n        Provider memory newProvider = Provider(id, _name, emptyList);\n        //bytes32 providerHash = keccak256(abi.encodePacked(newProvider));\n        providerMap[id] = newProvider;\n        insurerMap[_insurerID].providers.push(newProvider.id);\n        emit ProviderCreated(id, _name);\n        return id;\n    }\n\n    /** @dev add an insurnace provider to the network\n    @param _name the name of the insurance provider\n    @return pID of the insurance provider\n    */\n    function addInsurer(string memory _name) public returns(bytes32 pID) {\n        bytes32 id = keccak256(abi.encodePacked(_name));\n        bytes32[] memory emptyList;\n        Insurer memory newInsurer = Insurer(id, _name, emptyList);\n        //bytes32 insurerHash = keccak256(abi.encodePacked(newInsurer));\n        insurerMap[id] = newInsurer;\n        emit InsurerCreated(id, _name);\n        return id;\n    }\n\n    // ------------------------------ Functionality of the Network --------------------------- //\n\n    /** @dev create an instance of a ServiceClaim contract\n    @param _name name of the service\n    @param _providerID provider ID\n    @param _patientID patient ID\n    @return serviceContractHash is the id of the ServiceClaim contract\n    */\n    function provideService(string memory _name, bytes32 _providerID, bytes32 _patientID) public returns(bytes32 serviceContractHash) {\n        bytes32 id = keccak256(abi.encodePacked(_name, _providerID, _patientID));\n        ServiceClaim serviceClaim = new ServiceClaim(_providerID, _patientID, id, _name);\n        bytes32 serviceClaimID = keccak256(abi.encodePacked(address(serviceClaim)));\n        serviceClaimsMap[serviceClaimID] = address(serviceClaim);\n        Patient storage patient = patientMap[_patientID];\n        //patient.unverifiedClaims.push(address(serviceClaim));\n        //SC memory newSC = SC(_name, address(serviceClaim));\n        patient.unclaimedServices.push(address(serviceClaim));\n        serviceName[address(serviceClaim)] = _name;\n        SCMap[address(serviceClaim)] = _name;\n        emit SCID(serviceClaimID, address(serviceClaim));\n        return serviceClaimID;\n    }\n\n    /** @dev add a claim to a ServiceClaim contract i.e. the provider wants to file a claim for a service rendered\n    @param _serviceClaimID the ID of the ServiceClaim contract\n    @param _amount the amount to be claimed by the provider\n    @return ClaimID the ID of the claim\n    */\n    function fileClaim(bytes32 _serviceClaimID, uint256 _amount) public returns(uint256 ClaimID) {\n        //Patient storage cPatient = patientMap[_patient];\n        ServiceClaim myServiceClaim = ServiceClaim(serviceClaimsMap[_serviceClaimID]);\n        uint256 newClaimID = myServiceClaim.fileClaim(_amount);\n\n        bytes32 patID = myServiceClaim.patientID();\n        Patient storage cP = patientMap[patID];\n\n        for(uint i = 0; i < cP.unclaimedServices.length; i++){\n            if(cP.unclaimedServices[i] == address(myServiceClaim)){\n                delete(cP.unclaimedServices[i]);\n                break;\n            }\n        }\n        string memory name = myServiceClaim.name();\n        //SC memory newSC = SC(name, address(myServiceClaim));\n        cP.unverifiedClaims.push(address(myServiceClaim));\n        emit ClaimCreated(newClaimID, _amount);\n        //emit SCEvent(newSC);\n        return newClaimID;\n    }\n \n    /** @dev invoke the verifyClaim function in the ServiceClaim contract\n    @param _serviceClaimID the id of the ServiceClaim contract\n    */\n    /** @dev invoke the verifyClaim function in the ServiceClaim contract\n    @param _serviceClaimAddress the address of the ServiceClaim contract\n    */\n    function verifyClaim(address _serviceClaimAddress) public {\n        ServiceClaim myServiceClaim = ServiceClaim(_serviceClaimAddress);\n        require(myServiceClaim.verifyClaim(), \"Claim was not Verified\");\n        // Add the claim address to verified list\n        // Delete the claim address from unverified list\n        bytes32 patID = myServiceClaim.patientID();\n        Patient storage cP = patientMap[patID];\n\n        for(uint i = 0; i < cP.unverifiedClaims.length; i++){\n            if(cP.unverifiedClaims[i] == address(myServiceClaim)){\n                delete(cP.unverifiedClaims[i]);\n                break;\n            }\n        }\n        //string memory name = myServiceClaim.name();\n        //SC memory newSC = SC(name, address(myServiceClaim));\n        cP.verifiedClaims.push(address(myServiceClaim));\n        emit ClaimVerified(_serviceClaimAddress);\n    }\n\n    /** @dev invoke the payProvider function in the ServiceClaim contract\n    @param _serviceClaimID the id of the ServiceClaim contract\n    */\n    function payProvider(bytes32 _serviceClaimID) public {\n        //require(_serviceClaim.claim().verified == true, \"User has not verified service\");\n        ServiceClaim myServiceClaim = ServiceClaim(serviceClaimsMap[_serviceClaimID]);\n        myServiceClaim.payProvider();\n    }\n\n\n\n    // ------------------------------ Getters of Network Data --------------------------- //\n\n\n    function patientsOfProvider(bytes32 _id) public returns (bytes32[] memory) {\n        Provider storage cP = providerMap[_id];\n        emit idList(cP.patients);\n        return(cP.patients);\n    }\n\n    function providersOfInsurer(bytes32 _id) public returns (bytes32[] memory) {\n        Insurer storage cI = insurerMap[_id];\n        emit idList(cI.providers);\n        return(cI.providers);\n    }\n\n    function getPatient(bytes32 _id) public returns (bool){\n        Patient memory patient = patientMap[_id];\n        emit PatientRetrieval(patient);\n        return true;\n    }\n\n    function getProvider(bytes32 _id) public returns (Provider memory){\n        Provider memory provider = providerMap[_id];\n        emit ProviderRetrieval(provider);\n        return providerMap[_id];\n    }\n\n\n    function patientUnclaimedServices(bytes32 _id) public returns (address[] memory){\n        Patient storage cP = patientMap[_id];\n        emit serviceList(cP.unclaimedServices);\n        for(uint i = 0; i < cP.unclaimedServices.length; i++){\n            emit SCName(SCMap[cP.unclaimedServices[i]]);\n        }\n        return(cP.unclaimedServices);\n        // address[] memory a;\n        // return a;\n    }\n\n    function patientUnverifiedClaims(bytes32 _id) public returns (address[] memory){\n        Patient storage cP = patientMap[_id];\n        //bytes32[] memory claimNames = new bytes32[](cP.unverifiedClaims.length);\n        emit serviceList(cP.unverifiedClaims);\n        for(uint i = 0; i < cP.unverifiedClaims.length; i++){\n            emit SCName(SCMap[cP.unverifiedClaims[i]]);\n        }\n\n        return(cP.unverifiedClaims);\n        // address[] memory a;\n        // return a;\n\n    }\n\n    function patientVerifiedClaims(bytes32 _id) public returns (address[] memory){\n        Patient storage cP = patientMap[_id];\n        emit serviceList(cP.verifiedClaims);\n\n        for(uint i = 0; i < cP.verifiedClaims.length; i++){\n            emit SCName(SCMap[cP.verifiedClaims[i]]);\n        }\n        return(cP.verifiedClaims);\n        // address[] memory a;\n        // return a;\n    }\n\n\n\n    function setAdmin(uint _num) public {\n        admin = _num;\n    }\n\n\n    function getAdmin() public view returns (uint) {\n        return admin;\n    }\n\n\n\n// TODO\n    // function insurerUnpaidClaims(bytes32 _id) public {\n    // }\n    // function insurerPaidClaims(bytes32 _id) public {\n\n    // }\n\n    // function providerUnpaidClaims(bytes32 _id) public {\n\n    // }\n\n    //  function providerPaidClaims(bytes32 _id) public {\n    // }\n}\n",
  "sourcePath": "/Users/danny/sdsc-blocklab/Medicare-Claim-Verification/contracts/Organizations.sol",
  "compiler": {
    "name": "solc",
    "version": "0.5.11+commit.c082d0b4.Emscripten.clang"
  },
  "schemaVersion": "3.0.11",
  "updatedAt": "2019-09-13T01:11:23.740Z",
  "devdoc": {
    "methods": {
      "addInsurer(string)": {
        "details": "add an insurnace provider to the network",
        "params": {
          "_name": "the name of the insurance provider"
        },
        "return": "pID of the insurance provider"
      },
      "addPatient(string,bytes32)": {
        "details": "add a patient to the network",
        "params": {
          "_name": "is the name of the patient",
          "_providerID": "is the current provider of the patient"
        },
        "return": "pID is a bytes32 represented id number for the patient"
      },
      "addProvider(string,bytes32)": {
        "details": "add a provider to the network",
        "params": {
          "_insurerID": "id of insurance provider",
          "_name": "name of the provider"
        },
        "return": "the pID of the health provider -"
      },
      "fileClaim(bytes32,uint256)": {
        "details": "add a claim to a ServiceClaim contract i.e. the provider wants to file a claim for a service rendered",
        "params": {
          "_amount": "the amount to be claimed by the provider",
          "_serviceClaimID": "the ID of the ServiceClaim contract"
        },
        "return": "ClaimID the ID of the claim"
      },
      "payProvider(bytes32)": {
        "details": "invoke the payProvider function in the ServiceClaim contract",
        "params": {
          "_serviceClaimID": "the id of the ServiceClaim contract"
        }
      },
      "provideService(string,bytes32,bytes32)": {
        "details": "create an instance of a ServiceClaim contract",
        "params": {
          "_name": "name of the service",
          "_patientID": "patient ID",
          "_providerID": "provider ID"
        },
        "return": "serviceContractHash is the id of the ServiceClaim contract"
      },
      "verifyClaim(address)": {
        "details": "invoke the verifyClaim function in the ServiceClaim contract",
        "params": {
          "_serviceClaimAddress": "the address of the ServiceClaim contract"
        }
      }
    }
  },
  "userdoc": {
    "methods": {}
  }
}