{
  "contractName": "Organizations",
  "abi": [
    {
      "anonymous": false,
      "inputs": [
        {
          "indexed": false,
          "name": "ID",
          "type": "bytes32"
        },
        {
          "indexed": false,
          "name": "addr",
          "type": "address"
        }
      ],
      "name": "SCID",
      "type": "event",
      "signature": "0x2cdb195d7226065901c0e37d742237ac3e30d6dc0ce7faf49701f6ec9f0bd1ed",
      "constant": true,
      "outputs": [
        {
          "name": "id",
          "type": "bytes32"
        },
        {
          "name": "name",
          "type": "string"
        }
      ],
      "payable": false,
      "stateMutability": "view"
    },
    {
      "anonymous": false,
      "inputs": [
        {
          "indexed": false,
          "name": "id",
          "type": "uint256"
        },
        {
          "indexed": false,
          "name": "amount",
          "type": "uint256"
        }
      ],
      "name": "ClaimCreated",
      "type": "event",
      "signature": "0x96e3875898071e5d91932eb150a3914f9fe70e473f6faeaad697e99a48937c9c",
      "constant": true,
      "outputs": [
        {
          "name": "id",
          "type": "bytes32"
        },
        {
          "name": "name",
          "type": "string"
        }
      ],
      "payable": false,
      "stateMutability": "view"
    },
    {
      "anonymous": false,
      "inputs": [
        {
          "indexed": false,
          "name": "id",
          "type": "bytes32"
        },
        {
          "indexed": false,
          "name": "name",
          "type": "string"
        }
      ],
      "name": "PatientCreated",
      "type": "event",
      "signature": "0x86ec8adc6f97da0327b3e1dcc24fa25aea5eb7afcf6af08792e4b2d4d799fad8",
      "constant": true,
      "outputs": [
        {
          "name": "id",
          "type": "bytes32"
        },
        {
          "name": "name",
          "type": "string"
        }
      ],
      "payable": false,
      "stateMutability": "view"
    },
    {
      "anonymous": false,
      "inputs": [
        {
          "indexed": false,
          "name": "id",
          "type": "bytes32"
        },
        {
          "indexed": false,
          "name": "name",
          "type": "string"
        }
      ],
      "name": "ProviderCreated",
      "type": "event",
      "signature": "0x7dd222c7de5c7ba42d121aa7e2acc9d5d4a47c2eb31f55385cf51cbe459c5c9b",
      "constant": true,
      "outputs": [
        {
          "name": "id",
          "type": "bytes32"
        },
        {
          "name": "name",
          "type": "string"
        }
      ],
      "payable": false,
      "stateMutability": "view"
    },
    {
      "anonymous": false,
      "inputs": [
        {
          "indexed": false,
          "name": "id",
          "type": "bytes32"
        },
        {
          "indexed": false,
          "name": "name",
          "type": "string"
        }
      ],
      "name": "InsurerCreated",
      "type": "event",
      "signature": "0xf73cee28a98c20f23a903356ab57dc8c514e66b0488c994b09dec06f978c839b"
    },
    {
      "constant": false,
      "inputs": [
        {
          "name": "_name",
          "type": "string",
          "indexed": false
        },
        {
          "name": "_providerID",
          "type": "bytes32",
          "indexed": false
        }
      ],
      "name": "addPatient",
      "outputs": [
        {
          "name": "pID",
          "type": "bytes32"
        }
      ],
      "payable": false,
      "stateMutability": "nonpayable",
      "type": "function",
      "signature": "0x740044b4",
      "anonymous": false
    },
    {
      "constant": false,
      "inputs": [
        {
          "name": "_name",
          "type": "string",
          "indexed": false
        },
        {
          "name": "_insurerID",
          "type": "bytes32",
          "indexed": false
        }
      ],
      "name": "addProvider",
      "outputs": [
        {
          "name": "pID",
          "type": "bytes32"
        }
      ],
      "payable": false,
      "stateMutability": "nonpayable",
      "type": "function",
      "signature": "0x3e7e072e",
      "anonymous": false
    },
    {
      "constant": false,
      "inputs": [
        {
          "name": "_name",
          "type": "string",
          "indexed": false
        },
        {
          "indexed": false,
          "name": "_insurerID",
          "type": "bytes32"
        }
      ],
      "name": "addInsurer",
      "outputs": [
        {
          "name": "pID",
          "type": "bytes32"
        }
      ],
      "payable": false,
      "stateMutability": "nonpayable",
      "type": "function",
      "signature": "0xa24391ff",
      "anonymous": false
    },
    {
      "constant": false,
      "inputs": [
        {
          "name": "_name",
          "type": "string",
          "indexed": false
        },
        {
          "name": "_providerID",
          "type": "bytes32",
          "indexed": false
        },
        {
          "name": "_patientID",
          "type": "bytes32"
        }
      ],
      "name": "newServiceClaim",
      "outputs": [
        {
          "name": "serviceContractHash",
          "type": "bytes32"
        }
      ],
      "payable": false,
      "stateMutability": "nonpayable",
      "type": "function",
      "signature": "0xd23c7c5d",
      "anonymous": false
    },
    {
      "constant": false,
      "inputs": [
        {
          "name": "_serviceClaimID",
          "type": "bytes32"
        },
        {
          "name": "_amount",
          "type": "uint256"
        },
        {
          "name": "_patientID",
          "type": "bytes32"
        }
      ],
      "name": "addClaim",
      "outputs": [
        {
          "name": "ClaimID",
          "type": "uint256"
        }
      ],
      "payable": false,
      "stateMutability": "nonpayable",
      "type": "function",
      "signature": "0xaf97c50e"
    },
    {
      "constant": false,
      "inputs": [
        {
          "name": "_serviceClaimID",
          "type": "bytes32"
        },
        {
          "name": "_amount",
          "type": "uint256"
        }
      ],
      "name": "verifyClaim",
      "outputs": [
        {
          "name": "ClaimID",
          "type": "uint256"
        }
      ],
      "payable": false,
      "stateMutability": "nonpayable",
      "type": "function",
      "signature": "0xcb40edc2"
    },
    {
      "constant": false,
      "inputs": [
        {
          "name": "_serviceClaimID",
          "type": "bytes32"
        }
      ],
      "name": "verifyClaim",
      "outputs": [
        {
          "name": "pID",
          "type": "bytes32"
        }
      ],
      "payable": false,
      "stateMutability": "nonpayable",
      "type": "function",
      "signature": "0x35b73510"
    },
    {
      "constant": false,
      "inputs": [
        {
          "name": "_name",
          "type": "string"
        },
        {
          "name": "_providerID",
          "type": "bytes32"
        },
        {
          "name": "_patientID",
          "type": "bytes32"
        }
      ],
      "name": "newServiceClaim",
      "outputs": [
        {
          "name": "serviceContractHash",
          "type": "bytes32"
        }
      ],
      "payable": false,
      "stateMutability": "nonpayable",
      "type": "function",
      "signature": "0xd23c7c5d"
    },
    {
      "constant": false,
      "inputs": [
        {
          "name": "_serviceClaimID",
          "type": "bytes32"
        },
        {
          "name": "_amount",
          "type": "uint256"
        }
      ],
      "name": "addClaim",
      "outputs": [
        {
          "name": "ClaimID",
          "type": "uint256"
        }
      ],
      "payable": false,
      "stateMutability": "nonpayable",
      "type": "function",
      "signature": "0x01f92fc9"
    },
    {
      "constant": false,
      "inputs": [
        {
          "name": "_serviceClaimID",
          "type": "bytes32"
        }
      ],
      "name": "verifyClaim",
      "outputs": [],
      "payable": false,
      "stateMutability": "nonpayable",
      "type": "function",
      "signature": "0x35b73510"
    }
  ],
  "bytecode": "0x608060405234801561001057600080fd5b50611163806100206000396000f3fe608060405234801561001057600080fd5b506004361061007e577c0100000000000000000000000000000000000000000000000000000000600035046301f92fc9811461008357806335b73510146100b85780633e7e072e146100d7578063740044b41461017f578063d23c7c5d14610227578063dd238925146102d2575b600080fd5b6100a66004803603604081101561009957600080fd5b5080359060200135610378565b60408051918252519081900360200190f35b6100d5600480360360208110156100ce57600080fd5b503561046b565b005b6100a6600480360360408110156100ed57600080fd5b81019060208101813564010000000081111561010857600080fd5b82018360208201111561011a57600080fd5b8035906020019184600183028401116401000000008311171561013c57600080fd5b91908080601f0160208091040260200160405190810160405280939291908181526020018383808284376000920191909152509295505091359250610588915050565b6100a66004803603604081101561019557600080fd5b8101906020810181356401000000008111156101b057600080fd5b8201836020820111156101c257600080fd5b803590602001918460018302840111640100000000831117156101e457600080fd5b91908080601f016020809104026020016040519081016040528093929190818152602001838380828437600092019190915250929550509135925061073e915050565b6100a66004803603606081101561023d57600080fd5b81019060208101813564010000000081111561025857600080fd5b82018360208201111561026a57600080fd5b8035906020019184600183028401116401000000008311171561028c57600080fd5b91908080601f01602080910402602001604051908101604052809392919081815260200183838082843760009201919091525092955050823593505050602001356108ac565b6100a6600480360360208110156102e857600080fd5b81019060208101813564010000000081111561030357600080fd5b82018360208201111561031557600080fd5b8035906020019184600183028401116401000000008311171561033757600080fd5b91908080601f016020809104026020016040519081016040528093929190818152602001838380828437600092019190915250929550610acb945050505050565b60008281526005602090815260408083205481517f745c25f600000000000000000000000000000000000000000000000000000000815260048101869052915173ffffffffffffffffffffffffffffffffffffffff909116928492849263745c25f69260248084019391929182900301818787803b1580156103f957600080fd5b505af115801561040d573d6000803e3d6000fd5b505050506040513d602081101561042357600080fd5b5051604080518281526020810187905281519293507f96e3875898071e5d91932eb150a3914f9fe70e473f6faeaad697e99a48937c9c929081900390910190a1949350505050565b60008181526005602090815260408083205481517f844cdf09000000000000000000000000000000000000000000000000000000008152915173ffffffffffffffffffffffffffffffffffffffff90911693849363844cdf09936004808201949293918390030190829087803b1580156104e457600080fd5b505af11580156104f8573d6000803e3d6000fd5b505050506040513d602081101561050e57600080fd5b505161057b57604080517f08c379a000000000000000000000000000000000000000000000000000000000815260206004820152601660248201527f436c61696d20776173206e6f7420766572696669656400000000000000000000604482015290519081900360640190fd5b61058481610c5a565b5050565b600080836040516020018082805190602001908083835b602083106105be5780518252601f19909201916020918201910161059f565b6001836020036101000a0380198251168184511680821785525050505050509050019150506040516020818303038152906040528051906020012090506060610605610ced565b5060408051606081018252838152602080820188815282840185905260008681526003835293909320825181559251805192938493909261064d926001850192910190610d11565b5060408201518051610669916002840191602090910190610d8f565b5050506000858152600460209081526040808320845160029091018054600181018255908552838520015580518681528083018281528a519282019290925289517f7dd222c7de5c7ba42d121aa7e2acc9d5d4a47c2eb31f55385cf51cbe459c5c9b9488948c94926060850192918601918190849084905b838110156106f95781810151838201526020016106e1565b50505050905090810190601f1680156107265780820380516001836020036101000a031916815260200191505b50935050505060405180910390a15090949350505050565b600080836040516020018082805190602001908083835b602083106107745780518252601f199092019160209182019101610755565b6001836020036101000a03801982511681845116808217855250505050505090500191505060405160208183030381529060405280519060200120905060606107bb610ced565b50604080516060810182528381526020808201888152828401859052600086815260028352939093208251815592518051929384939092610803926001850192910190610d11565b506040820151805161081f916002840191602090910190610dc9565b5050506000858152600360209081526040808320845160029091018054600181018255908552838520015580518681528083018281528a519282019290925289517f86ec8adc6f97da0327b3e1dcc24fa25aea5eb7afcf6af08792e4b2d4d799fad89488948c949260608501929186019181908490849083156106f95781810151838201526020016106e1565b6000808484846040516020018084805190602001908083835b602083106108e45780518252601f1990920191602091820191016108c5565b6001836020036101000a038019825116818451168082178552505050505050905001838152602001828152602001935050505060405160208183030381529060405280519060200120905060008484838860405161094190610e44565b8085815260200184815260200183815260200180602001828103825283818151815260200191508051906020019080838360005b8381101561098d578181015183820152602001610975565b50505050905090810190601f1680156109ba5780820380516001836020036101000a031916815260200191505b5095505050505050604051809103906000f0801580156109de573d6000803e3d6000fd5b50604080516c0100000000000000000000000073ffffffffffffffffffffffffffffffffffffffff84169081026020808401919091528351808403601401815260348401808652815191830191909120600081815260058452868120805473ffffffffffffffffffffffffffffffffffffffff1990811687179091558c82526002808652888320908101805460018101825590845295909220909401805490941685179093559081905260548401929092529251939450927f2cdb195d7226065901c0e37d742237ac3e30d6dc0ce7faf49701f6ec9f0bd1ed9181900360740190a1509695505050505050565b600080826040516020018082805190602001908083835b60208310610b015780518252601f199092019160209182019101610ae2565b6001836020036101000a0380198251168184511680821785525050505050509050019150506040516020818303038152906040528051906020012090506060610b48610ced565b50604080516060810182528381526020808201878152828401859052600086815260048352939093208251815592518051929384939092610b90926001850192910190610d11565b5060408201518051610bac916002840191602090910190610d8f565b509050507ff73cee28a98c20f23a903356ab57dc8c514e66b0488c994b09dec06f978c839b83866040518083815260200180602001828103825283818151815260200191508051906020019080838360005b83811015610c16578181015183820152602001610bfe565b50505050905090810190601f168015610c435780820380516001836020036101000a031916815260200191505b50935050505060405180910390a150909392505050565b8073ffffffffffffffffffffffffffffffffffffffff166398d6a3736040518163ffffffff167c0100000000000000000000000000000000000000000000000000000000028152600401602060405180830381600087803b158015610cbe57600080fd5b505af1158015610cd2573d6000803e3d6000fd5b505050506040513d6020811015610ce857600080fd5b505050565b60405180606001604052806000801916815260200160608152602001606081525090565b828054600181600116156101000203166002900490600052602060002090601f016020900481019282601f10610d5257805160ff1916838001178555610d7f565b82800160010185558215610d7f579182015b82811115610d7f578251825591602001919060010190610d64565b50610d8b929150610e51565b5090565b828054828255906000526020600020908101928215610d7f5791602002820182811115610d7f578251825591602001919060010190610d64565b828054828255906000526020600020908101928215610e38579160200282015b82811115610e38578251825473ffffffffffffffffffffffffffffffffffffffff191673ffffffffffffffffffffffffffffffffffffffff909116178255602090920191600190910190610de9565b50610d8b929150610e6e565b61028f80610ea083390190565b610e6b91905b80821115610d8b5760008155600101610e57565b90565b610e6b91905b80821115610d8b57805473ffffffffffffffffffffffffffffffffffffffff19168155600101610e7456fe608060405234801561001057600080fd5b5060405161028f38038061028f8339818101604052608081101561003357600080fd5b815160208301516040840151606085018051939592949193918301929164010000000081111561006257600080fd5b8201602081018481111561007557600080fd5b815164010000000081118282018710171561008f57600080fd5b505060018790556002869055600385905580519093506100b892506004915060208401906100c2565b505050505061015d565b828054600181600116156101000203166002900490600052602060002090601f016020900481019282601f1061010357805160ff1916838001178555610130565b82800160010185558215610130579182015b82811115610130578251825591602001919060010190610115565b5061013c929150610140565b5090565b61015a91905b8082111561013c5760008155600101610146565b90565b6101238061016c6000396000f3fe6080604052348015600f57600080fd5b50600436106062577c01000000000000000000000000000000000000000000000000000000006000350463745c25f681146067578063844cdf0914609357806398d6a3731460ad578063d321fe291460b3575b600080fd5b608160048036036020811015607b57600080fd5b503560b9565b60408051918252519081900360200190f35b609960c1565b604080519115158252519081900360200190f35b609960d4565b608160e8565b600581905590565b6006805460ff1916600190811790915590565b6006805461ff001916610100179055600190565b6005549056fea265627a7a72305820bb639d61e400af541ffbaa4b8daea0516a415dac4070835bb7e333930648969064736f6c634300050a0032a265627a7a723058207781174f81b850c37e0a3d942cfdc122cc06d78a580dac9dc578120a95e65ae464736f6c634300050a0032",
  "source": "pragma solidity ^0.5.0;\n\nimport \"./SafeMath.sol\";\nimport \"./ServiceClaim.sol\";\n\ncontract Organizations {\n\n    uint256 claimId; //Max value of the number of claims made\n    uint storedData; //Miscellaneous data\n\n    mapping(bytes32=>Patient) patientMap; //ID of patient to specific provider -\n    mapping(bytes32=>Provider) providerMap; //ID of provider to specific provider -\n    mapping(bytes32=>Insurer) insurerMap; //ID of insurance provider to specific insurer\n    mapping(bytes32=>address) serviceClaimsMap; //ID of serviceClaim to the specific ServiceClaim contract instance\n\n    //Events for organization creation    event ServiceCreated(address serviceClaimAddr);\n    event SCID(bytes32 ID, address addr);\n    event ClaimCreated(uint256 id, uint256 amount);\n    event PatientCreated(bytes32 id, string name);\n    event ProviderCreated(bytes32 id, string name);\n    event InsurerCreated(bytes32 id, string name);\n\n    struct Patient {\n        bytes32 id;\n        string name;\n        address[] serviceClaimsList;\n    }\n\n    struct Provider {\n        bytes32 id;\n        string name;\n        bytes32[] patients;\n    }\n\n    struct Insurer {\n        bytes32 id;\n        string name;\n        bytes32[] providers;\n    }\n\n    // ------------------------------ Adds Users to Network --------------------------- //\n\n    /** @dev add a patient to the network\n    @param _name is the name of the patient\n    @param _providerID is the current provider of the patient\n    @return pID is a bytes32 represented id number for the patient\n    */\n    function addPatient(string memory _name, bytes32 _providerID) public returns(bytes32 pID) {\n        bytes32 id = keccak256(abi.encodePacked(_name));\n        address[] memory claimList;\n        Patient memory newPatient = Patient(id, _name, claimList);\n        //bytes32 patientHash = keccak256(abi.encodePacked(newPatient));\n        patientMap[id] = newPatient;\n        providerMap[_providerID].patients.push(newPatient.id);\n        emit PatientCreated(id, _name);\n        return id;\n    }\n\n    /** @dev add a provider to the network\n    @param _name name of the provider\n    @param _insurerID id of insurance provider\n    @return the pID of the health provider -\n     */\n    function addProvider(string memory _name, bytes32 _insurerID) public returns(bytes32 pID) {\n        bytes32 id = keccak256(abi.encodePacked(_name));\n        bytes32[] memory emptyList;\n        Provider memory newProvider = Provider(id, _name, emptyList);\n        //bytes32 providerHash = keccak256(abi.encodePacked(newProvider));\n        providerMap[id] = newProvider;\n        insurerMap[_insurerID].providers.push(newProvider.id);\n        emit ProviderCreated(id, _name);\n        return id;\n    }\n\n    /** @dev add an insurnace provider to the network\n    @param _name the name of the insurance provider\n    @return the pID of the insurance provider\n    */\n    function addInsurer(string memory _name) public returns(bytes32 pID) {\n        bytes32 id = keccak256(abi.encodePacked(_name));\n        bytes32[] memory emptyList;\n        Insurer memory newInsurer = Insurer(id, _name, emptyList);\n        //bytes32 insurerHash = keccak256(abi.encodePacked(newInsurer));\n        insurerMap[id] = newInsurer;\n        emit InsurerCreated(id, _name);\n        return id;\n    }\n\n    // ------------------------------ Functionality of the Network --------------------------- //\n\n    /** @dev create an instance of a ServiceClaim contract\nC    @param _name name of the service\n    @param _providerID provider ID\n    @param _patientID patient ID\n    @return serviceContractHash is the id of the ServiceClaim contract\n    */\n    function newServiceClaim(string memory _name, bytes32 _providerID, bytes32 _patientID) public returns(bytes32 serviceContractHash) {\n        bytes32 id = keccak256(abi.encodePacked(_name, _providerID, _patientID));\n        ServiceClaim serviceClaim = new ServiceClaim(_providerID, _patientID, id, _name);\n        bytes32 serviceClaimID = keccak256(abi.encodePacked(address(serviceClaim)));\n        serviceClaimsMap[serviceClaimID] = address(serviceClaim);\n        Patient storage patient = patientMap[_patientID];\n        patient.serviceClaimsList.push(address(serviceClaim));\n        emit SCID(serviceClaimID, address(serviceClaim));\n        return serviceClaimID;\n    }\n\n    /** @dev add a claim to a ServiceClaim contract i.e. the provider wants to file a claim for a service rendered\n    @param _serviceClaimID the ID of the ServiceClaim contract\n    @param _amount the amount to be claimed by the provider\n    @return ClaimID the ID of the claim\n    */\n    function addClaim(bytes32 _serviceClaimID, uint256 _amount) public returns(uint256 ClaimID) {\n        //Patient storage cPatient = patientMap[_patient];\n        ServiceClaim myServiceClaim = ServiceClaim(serviceClaimsMap[_serviceClaimID]);\n        uint256 newClaimID = myServiceClaim.addClaim(_amount);\n        emit ClaimCreated(newClaimID, _amount);\n        return newClaimID;\n    }\n\n    \n    /** @dev invoke the verifyClaim function in the ServiceClaim contract\n    @param _serviceClaimID the id of the ServiceClaim contract\n    */\n    function verifyClaim(bytes32 _serviceClaimID) public {\n        ServiceClaim myServiceClaim = ServiceClaim(serviceClaimsMap[_serviceClaimID]);\n        require(myServiceClaim.verifyClaim(), \"Claim was not verified\");\n        payProvider(myServiceClaim);\n    }\n\n    /** @dev invoke the payProvider function in the ServiceClaim contract, may only be called from within Organizations.sol\n    @param _serviceClaim an instance of the ServiceClaim contract\n    */\n    function payProvider(ServiceClaim _serviceClaim) internal {\n        //require(_serviceClaim.claim().verified == true, \"User has not verified service\");\n        _serviceClaim.payProvider();\n    }\n    \n}",
  "sourcePath": "/Users/kenmiyachi/BlockLAB/Medicare-Claim-Verification/contracts/Organizations.sol",
  "compiler": {
    "name": "solc",
    "version": "0.5.10+commit.5a6ea5b1.Emscripten.clang"
  },
  "schemaVersion": "3.0.8",
  "updatedAt": "2019-07-25T23:12:08.287Z",
  "devdoc": {
    "methods": {
      "addClaim(bytes32,uint256)": {
        "details": "add a claim to a ServiceClaim contract i.e. the provider wants to file a claim for a service rendered",
        "params": {
          "_amount": "the amount to be claimed by the provider",
          "_serviceClaimID": "the ID of the ServiceClaim contract"
        },
        "return": "ClaimID the ID of the claim"
      },
      "addInsurer(string)": {
        "details": "add an insurnace provider to the network",
        "params": {
          "_name": "the name of the insurance provider"
        },
        "return": "the pID of the insurance provider"
      },
      "addPatient(string,bytes32)": {
        "details": "add a patient to the network",
        "params": {
          "_name": "is the name of the patient",
          "_providerID": "is the current provider of the patient"
        },
        "return": "pID is a bytes32 represented id number for the patient"
      },
      "addProvider(string,bytes32)": {
        "details": "add a provider to the network",
        "params": {
          "_insurerID": "id of insurance provider",
          "_name": "name of the provider"
        },
        "return": "the pID of the health provider -"
      },
      "newServiceClaim(string,bytes32,bytes32)": {
        "details": "create an instance of a ServiceClaim contract",
        "params": {
          "_name": "name of the service",
          "_patientID": "patient ID",
          "_providerID": "provider ID"
        },
        "return": "serviceContractHash is the id of the ServiceClaim contract"
      },
      "verifyClaim(bytes32)": {
        "details": "invoke the verifyClaim function in the ServiceClaim contract",
        "params": {
          "_serviceClaimID": "the id of the ServiceClaim contract"
        }
      }
    }
  },
  "userdoc": {
    "methods": {}
  }
}