{
  "contractName": "Organizations",
  "abi": [
    {
      "inputs": [
        {
          "internalType": "address",
          "name": "_tokenAddr",
          "type": "address"
        }
      ],
      "payable": false,
      "stateMutability": "nonpayable",
      "type": "constructor"
    },
    {
      "anonymous": false,
      "inputs": [
        {
          "indexed": false,
          "internalType": "uint256",
          "name": "id",
          "type": "uint256"
        },
        {
          "indexed": false,
          "internalType": "uint256",
          "name": "amount",
          "type": "uint256"
        }
      ],
      "name": "ClaimCreated",
      "type": "event"
    },
    {
      "anonymous": false,
      "inputs": [
        {
          "indexed": false,
          "internalType": "address",
          "name": "addr",
          "type": "address"
        }
      ],
      "name": "ClaimVerified",
      "type": "event"
    },
    {
      "anonymous": false,
      "inputs": [
        {
          "indexed": false,
          "internalType": "bytes32",
          "name": "id",
          "type": "bytes32"
        },
        {
          "indexed": false,
          "internalType": "string",
          "name": "name",
          "type": "string"
        }
      ],
      "name": "InsurerCreated",
      "type": "event"
    },
    {
      "anonymous": false,
      "inputs": [
        {
          "indexed": false,
          "internalType": "bytes32",
          "name": "id",
          "type": "bytes32"
        },
        {
          "indexed": false,
          "internalType": "string",
          "name": "name",
          "type": "string"
        }
      ],
      "name": "PatientCreated",
      "type": "event"
    },
    {
      "anonymous": false,
      "inputs": [
        {
          "components": [
            {
              "internalType": "bytes32",
              "name": "id",
              "type": "bytes32"
            },
            {
              "internalType": "string",
              "name": "name",
              "type": "string"
            },
            {
              "internalType": "address[]",
              "name": "unclaimedServices",
              "type": "address[]"
            },
            {
              "internalType": "address[]",
              "name": "unverifiedClaims",
              "type": "address[]"
            },
            {
              "internalType": "address[]",
              "name": "verifiedClaims",
              "type": "address[]"
            }
          ],
          "indexed": false,
          "internalType": "struct Organizations.Patient",
          "name": "patient",
          "type": "tuple"
        }
      ],
      "name": "PatientRetrieval",
      "type": "event"
    },
    {
      "anonymous": false,
      "inputs": [
        {
          "indexed": false,
          "internalType": "bytes32",
          "name": "id",
          "type": "bytes32"
        },
        {
          "indexed": false,
          "internalType": "string",
          "name": "name",
          "type": "string"
        }
      ],
      "name": "ProviderCreated",
      "type": "event"
    },
    {
      "anonymous": false,
      "inputs": [
        {
          "components": [
            {
              "internalType": "bytes32",
              "name": "id",
              "type": "bytes32"
            },
            {
              "internalType": "string",
              "name": "name",
              "type": "string"
            },
            {
              "internalType": "bytes32[]",
              "name": "patients",
              "type": "bytes32[]"
            }
          ],
          "indexed": false,
          "internalType": "struct Organizations.Provider",
          "name": "provider",
          "type": "tuple"
        }
      ],
      "name": "ProviderRetrieval",
      "type": "event"
    },
    {
      "anonymous": false,
      "inputs": [
        {
          "components": [
            {
              "internalType": "address",
              "name": "scAddr",
              "type": "address"
            },
            {
              "internalType": "bytes32",
              "name": "id",
              "type": "bytes32"
            },
            {
              "internalType": "bytes32",
              "name": "insurerID",
              "type": "bytes32"
            },
            {
              "internalType": "bytes32",
              "name": "providerID",
              "type": "bytes32"
            },
            {
              "internalType": "bytes32",
              "name": "patientID",
              "type": "bytes32"
            },
            {
              "internalType": "string",
              "name": "name",
              "type": "string"
            },
            {
              "internalType": "uint256",
              "name": "amount",
              "type": "uint256"
            },
            {
              "internalType": "bool",
              "name": "verified",
              "type": "bool"
            },
            {
              "internalType": "bool",
              "name": "paid",
              "type": "bool"
            }
          ],
          "indexed": false,
          "internalType": "struct Organizations.SC",
          "name": "",
          "type": "tuple"
        }
      ],
      "name": "SCEvent",
      "type": "event"
    },
    {
      "anonymous": false,
      "inputs": [
        {
          "indexed": false,
          "internalType": "bytes32",
          "name": "ID",
          "type": "bytes32"
        },
        {
          "indexed": false,
          "internalType": "address",
          "name": "addr",
          "type": "address"
        }
      ],
      "name": "SCID",
      "type": "event"
    },
    {
      "anonymous": false,
      "inputs": [
        {
          "indexed": false,
          "internalType": "string",
          "name": "name",
          "type": "string"
        }
      ],
      "name": "SCName",
      "type": "event"
    },
    {
      "anonymous": false,
      "inputs": [
        {
          "indexed": false,
          "internalType": "address",
          "name": "addr",
          "type": "address"
        },
        {
          "indexed": false,
          "internalType": "string",
          "name": "patientname",
          "type": "string"
        },
        {
          "indexed": false,
          "internalType": "string",
          "name": "providername",
          "type": "string"
        },
        {
          "indexed": false,
          "internalType": "string",
          "name": "claimname",
          "type": "string"
        },
        {
          "indexed": false,
          "internalType": "bytes32",
          "name": "id",
          "type": "bytes32"
        },
        {
          "indexed": false,
          "internalType": "bytes32",
          "name": "provider",
          "type": "bytes32"
        },
        {
          "indexed": false,
          "internalType": "bytes32",
          "name": "patient",
          "type": "bytes32"
        },
        {
          "indexed": false,
          "internalType": "uint256",
          "name": "amount",
          "type": "uint256"
        },
        {
          "indexed": false,
          "internalType": "bool",
          "name": "confirmed",
          "type": "bool"
        },
        {
          "indexed": false,
          "internalType": "uint256",
          "name": "timeProvided",
          "type": "uint256"
        },
        {
          "indexed": false,
          "internalType": "uint256",
          "name": "timeFiled",
          "type": "uint256"
        },
        {
          "indexed": false,
          "internalType": "uint256",
          "name": "timeVerified",
          "type": "uint256"
        }
      ],
      "name": "ServiceClaimInfo",
      "type": "event"
    },
    {
      "anonymous": false,
      "inputs": [
        {
          "indexed": false,
          "internalType": "bytes32[]",
          "name": "ids",
          "type": "bytes32[]"
        }
      ],
      "name": "idList",
      "type": "event"
    },
    {
      "anonymous": false,
      "inputs": [
        {
          "indexed": false,
          "internalType": "address[]",
          "name": "services",
          "type": "address[]"
        }
      ],
      "name": "serviceList",
      "type": "event"
    },
    {
      "constant": true,
      "inputs": [
        {
          "internalType": "bytes32",
          "name": "",
          "type": "bytes32"
        }
      ],
      "name": "insurerMap",
      "outputs": [
        {
          "internalType": "bytes32",
          "name": "id",
          "type": "bytes32"
        },
        {
          "internalType": "string",
          "name": "name",
          "type": "string"
        }
      ],
      "payable": false,
      "stateMutability": "view",
      "type": "function"
    },
    {
      "constant": true,
      "inputs": [
        {
          "internalType": "bytes32",
          "name": "",
          "type": "bytes32"
        }
      ],
      "name": "patientMap",
      "outputs": [
        {
          "internalType": "bytes32",
          "name": "id",
          "type": "bytes32"
        },
        {
          "internalType": "string",
          "name": "name",
          "type": "string"
        }
      ],
      "payable": false,
      "stateMutability": "view",
      "type": "function"
    },
    {
      "constant": true,
      "inputs": [
        {
          "internalType": "bytes32",
          "name": "",
          "type": "bytes32"
        }
      ],
      "name": "providerMap",
      "outputs": [
        {
          "internalType": "bytes32",
          "name": "id",
          "type": "bytes32"
        },
        {
          "internalType": "string",
          "name": "name",
          "type": "string"
        }
      ],
      "payable": false,
      "stateMutability": "view",
      "type": "function"
    },
    {
      "constant": true,
      "inputs": [
        {
          "internalType": "bytes32",
          "name": "",
          "type": "bytes32"
        }
      ],
      "name": "serviceClaimsMap",
      "outputs": [
        {
          "internalType": "address",
          "name": "",
          "type": "address"
        }
      ],
      "payable": false,
      "stateMutability": "view",
      "type": "function"
    },
    {
      "constant": true,
      "inputs": [
        {
          "internalType": "address",
          "name": "",
          "type": "address"
        }
      ],
      "name": "serviceName",
      "outputs": [
        {
          "internalType": "string",
          "name": "",
          "type": "string"
        }
      ],
      "payable": false,
      "stateMutability": "view",
      "type": "function"
    },
    {
      "constant": true,
      "inputs": [],
      "name": "token",
      "outputs": [
        {
          "internalType": "contract AEECToken",
          "name": "",
          "type": "address"
        }
      ],
      "payable": false,
      "stateMutability": "view",
      "type": "function"
    }
  ],
  "bytecode": "0x608060405234801561001057600080fd5b506040516106d63803806106d683398101604081905261002f916100c2565b600180546001600160a01b0319166001600160a01b038381169190911791829055604051634e6ec24760e01b8152911690634e6ec24790610079903090620f424090600401610100565b600060405180830381600087803b15801561009357600080fd5b505af11580156100a7573d6000803e3d6000fd5b5050505050610158565b80516100bc81610141565b92915050565b6000602082840312156100d457600080fd5b60006100e084846100b1565b949350505050565b6100f181610122565b82525050565b6100f181610136565b6040810161010e82856100e8565b61011b60208301846100f7565b9392505050565b60006001600160a01b0382166100bc565b90565b60006100bc82610133565b61014a81610122565b811461015557600080fd5b50565b61056f806101676000396000f3fe608060405234801561001057600080fd5b50600436106100725760003560e01c806339160aa71161005057806339160aa7146100e157806392398fbb146100f4578063fc0c546a1461010757610072565b80632470d25e146100775780632bde2a86146100a057806333fc83f7146100c1575b600080fd5b61008a6100853660046103c8565b61011c565b604051610097919061043f565b60405180910390f35b6100b36100ae3660046103c8565b610144565b60405161009792919061044d565b6100d46100cf3660046103a2565b6101eb565b604051610097919061047b565b6100b36100ef3660046103c8565b610286565b6100b36101023660046103c8565b6102f8565b61010f61036a565b604051610097919061046d565b60076020526000908152604090205473ffffffffffffffffffffffffffffffffffffffff1681565b6005602090815260009182526040918290208054600180830180548651600293821615610100026000190190911692909204601f8101869004860283018601909652858252919492939092908301828280156101e15780601f106101b6576101008083540402835291602001916101e1565b820191906000526020600020905b8154815290600101906020018083116101c457829003601f168201915b5050505050905082565b60086020908152600091825260409182902080548351601f60026000196101006001861615020190931692909204918201849004840281018401909452808452909183018282801561027e5780601f106102535761010080835404028352916020019161027e565b820191906000526020600020905b81548152906001019060200180831161026157829003601f168201915b505050505081565b6006602090815260009182526040918290208054600180830180548651600293821615610100026000190190911692909204601f8101869004860283018601909652858252919492939092908301828280156101e15780601f106101b6576101008083540402835291602001916101e1565b6004602090815260009182526040918290208054600180830180548651600293821615610100026000190190911692909204601f8101869004860283018601909652858252919492939092908301828280156101e15780601f106101b6576101008083540402835291602001916101e1565b60015473ffffffffffffffffffffffffffffffffffffffff1681565b80356103918161050c565b92915050565b803561039181610523565b6000602082840312156103b457600080fd5b60006103c08484610386565b949350505050565b6000602082840312156103da57600080fd5b60006103c08484610397565b6103ef816104a0565b82525050565b6103ef816104ab565b6103ef816104c7565b600061041282610493565b61041c8185610497565b935061042c8185602086016104d2565b61043581610502565b9093019392505050565b6020810161039182846103e6565b6040810161045b82856103f5565b81810360208301526103c08184610407565b6020810161039182846103fe565b6020808252810161048c8184610407565b9392505050565b5190565b90815260200190565b6000610391826104ae565b90565b73ffffffffffffffffffffffffffffffffffffffff1690565b6000610391826104a0565b60005b838110156104ed5781810151838201526020016104d5565b838111156104fc576000848401525b50505050565b601f01601f191690565b610515816104a0565b811461052057600080fd5b50565b610515816104ab56fea365627a7a72315820decce5c3becfa8e7b84d1216bd574460f49b5188812823d7563ba1f7771735b66c6578706572696d656e74616cf564736f6c63430005100040",
  "source": "pragma solidity ^0.5.0;\npragma experimental ABIEncoderV2;\n\nimport \"./SafeMath.sol\";\nimport \"./ServiceClaim.sol\";\nimport \"./AEECToken.sol\";\n\ncontract Organizations {\n    uint admin;\n\n    AEECToken public token;\n\n    uint256 claimId; //Max value of the number of claims made\n    uint storedData; //Miscellaneous data\n    mapping (bytes32=>Patient) public patientMap; //ID of patient to specific provider -\n    mapping (bytes32=>Provider) public providerMap; //ID of provider to specific provider -\n    mapping (bytes32=>Insurer) public insurerMap; //ID of insurance provider to specific insurer\n    mapping (bytes32=>address) public serviceClaimsMap; //ID of serviceClaim to the specific ServiceClaim contract instance\n    mapping (address=>string) public serviceName;\n    //Events for organization creation    event ServiceCreated(address serviceClaimAddr);\n    event SCID(bytes32 ID, address addr);\n    event ClaimCreated(uint256 id, uint256 amount);\n    event ClaimVerified(address addr);\n    event PatientCreated(bytes32 id, string name);\n    event ProviderCreated(bytes32 id, string name);\n    event InsurerCreated(bytes32 id, string name);\n    event PatientRetrieval(Patient patient);\n    event ProviderRetrieval(Provider provider);\n    event ServiceClaimInfo(\n        address addr, string patientname, string providername, string claimname, bytes32 id,\n        bytes32 provider, bytes32 patient, uint256 amount, bool confirmed, uint256 timeProvided, uint256 timeFiled, uint256 timeVerified);\n    //event patientList(Patient[] patients);\n    //event providerList(Provider[] providers);\n    //event insurerList(Insurer[] insurers);\n    event idList(bytes32[] ids);\n    event serviceList(address[] services);\n    event SCName(string name);\n    event SCEvent(SC);\n\n    struct SC {\n        address scAddr;\n        bytes32 id;\n        bytes32 insurerID;\n        bytes32 providerID;\n        bytes32 patientID;\n        string name;\n        uint256 amount;\n        bool verified;\n        bool paid;\n    }\n    bytes32 globalInsurerID;\n  \n    SC[] scs;\n    mapping (address=>string) SCMap;\n    address[] SCList;\n    bytes32[] patientList;\n    bytes32[] providerList;\n    bytes32[] insurerList;\n    bytes32[] claimList;\n\n\n    struct Patient {\n        bytes32 id;\n        string name;\n        //mapping (address=>string) SCMap;\n        address[] unclaimedServices;\n        address[] unverifiedClaims;\n        address[] verifiedClaims;\n    }\n    struct Provider {\n        bytes32 id;\n        string name;\n        bytes32[] patients;\n    }\n    struct Insurer {\n        bytes32 id;\n        string name;\n        bytes32[] providers;\n    }\n\n\n\n    constructor(address _tokenAddr) public {\n        //preLoadInfo();\n        token = AEECToken(_tokenAddr);\n        token._mint(address(this),1000000);\n    }\n}\n",
  "sourcePath": "/Users/kenmiyachi/BlockLAB/Medicare-Claim-Verification/contracts/Organizations.sol",
  "compiler": {
    "name": "solc",
    "version": "0.5.16+commit.9c3226ce.Emscripten.clang"
  },
  "schemaVersion": "3.0.12",
  "updatedAt": "2020-01-27T23:46:28.711Z",
  "devdoc": {
    "methods": {}
  },
  "userdoc": {
    "methods": {}
  }
}