{
  "contractName": "Organizations",
  "abi": [
    {
      "constant": true,
      "inputs": [
        {
          "internalType": "bytes32",
          "name": "",
          "type": "bytes32"
        }
      ],
      "name": "serviceClaimsMap",
      "outputs": [
        {
          "internalType": "address",
          "name": "",
          "type": "address"
        }
      ],
      "payable": false,
      "stateMutability": "view",
      "type": "function"
    },
    {
      "constant": true,
      "inputs": [
        {
          "internalType": "bytes32",
          "name": "",
          "type": "bytes32"
        }
      ],
      "name": "providerMap",
      "outputs": [
        {
          "internalType": "bytes32",
          "name": "id",
          "type": "bytes32"
        },
        {
          "internalType": "string",
          "name": "name",
          "type": "string"
        }
      ],
      "payable": false,
      "stateMutability": "view",
      "type": "function"
    },
    {
      "constant": true,
      "inputs": [
        {
          "internalType": "address",
          "name": "",
          "type": "address"
        }
      ],
      "name": "serviceName",
      "outputs": [
        {
          "internalType": "string",
          "name": "",
          "type": "string"
        }
      ],
      "payable": false,
      "stateMutability": "view",
      "type": "function"
    },
    {
      "constant": true,
      "inputs": [
        {
          "internalType": "bytes32",
          "name": "",
          "type": "bytes32"
        }
      ],
      "name": "insurerMap",
      "outputs": [
        {
          "internalType": "bytes32",
          "name": "id",
          "type": "bytes32"
        },
        {
          "internalType": "string",
          "name": "name",
          "type": "string"
        }
      ],
      "payable": false,
      "stateMutability": "view",
      "type": "function"
    },
    {
      "constant": true,
      "inputs": [
        {
          "internalType": "bytes32",
          "name": "",
          "type": "bytes32"
        }
      ],
      "name": "patientMap",
      "outputs": [
        {
          "internalType": "bytes32",
          "name": "id",
          "type": "bytes32"
        },
        {
          "internalType": "string",
          "name": "name",
          "type": "string"
        }
      ],
      "payable": false,
      "stateMutability": "view",
      "type": "function"
    },
    {
      "inputs": [],
      "payable": false,
      "stateMutability": "nonpayable",
      "type": "constructor"
    },
    {
      "anonymous": false,
      "inputs": [
        {
          "indexed": false,
          "internalType": "bytes32",
          "name": "ID",
          "type": "bytes32"
        },
        {
          "indexed": false,
          "internalType": "address",
          "name": "addr",
          "type": "address"
        }
      ],
      "name": "SCID",
      "type": "event"
    },
    {
      "anonymous": false,
      "inputs": [
        {
          "indexed": false,
          "internalType": "uint256",
          "name": "id",
          "type": "uint256"
        },
        {
          "indexed": false,
          "internalType": "uint256",
          "name": "amount",
          "type": "uint256"
        }
      ],
      "name": "ClaimCreated",
      "type": "event"
    },
    {
      "anonymous": false,
      "inputs": [
        {
          "indexed": false,
          "internalType": "address",
          "name": "addr",
          "type": "address"
        }
      ],
      "name": "ClaimVerified",
      "type": "event"
    },
    {
      "anonymous": false,
      "inputs": [
        {
          "indexed": false,
          "internalType": "bytes32",
          "name": "id",
          "type": "bytes32"
        },
        {
          "indexed": false,
          "internalType": "string",
          "name": "name",
          "type": "string"
        }
      ],
      "name": "PatientCreated",
      "type": "event"
    },
    {
      "anonymous": false,
      "inputs": [
        {
          "indexed": false,
          "internalType": "bytes32",
          "name": "id",
          "type": "bytes32"
        },
        {
          "indexed": false,
          "internalType": "string",
          "name": "name",
          "type": "string"
        }
      ],
      "name": "ProviderCreated",
      "type": "event"
    },
    {
      "anonymous": false,
      "inputs": [
        {
          "indexed": false,
          "internalType": "bytes32",
          "name": "id",
          "type": "bytes32"
        },
        {
          "indexed": false,
          "internalType": "string",
          "name": "name",
          "type": "string"
        }
      ],
      "name": "InsurerCreated",
      "type": "event"
    },
    {
      "anonymous": false,
      "inputs": [
        {
          "components": [
            {
              "internalType": "bytes32",
              "name": "id",
              "type": "bytes32"
            },
            {
              "internalType": "string",
              "name": "name",
              "type": "string"
            },
            {
              "internalType": "address[]",
              "name": "unclaimedServices",
              "type": "address[]"
            },
            {
              "internalType": "address[]",
              "name": "unverifiedClaims",
              "type": "address[]"
            },
            {
              "internalType": "address[]",
              "name": "verifiedClaims",
              "type": "address[]"
            }
          ],
          "indexed": false,
          "internalType": "struct Organizations.Patient",
          "name": "patient",
          "type": "tuple"
        }
      ],
      "name": "PatientRetrieval",
      "type": "event"
    },
    {
      "anonymous": false,
      "inputs": [
        {
          "components": [
            {
              "internalType": "bytes32",
              "name": "id",
              "type": "bytes32"
            },
            {
              "internalType": "string",
              "name": "name",
              "type": "string"
            },
            {
              "internalType": "bytes32[]",
              "name": "patients",
              "type": "bytes32[]"
            }
          ],
          "indexed": false,
          "internalType": "struct Organizations.Provider",
          "name": "provider",
          "type": "tuple"
        }
      ],
      "name": "ProviderRetrieval",
      "type": "event"
    },
    {
      "anonymous": false,
      "inputs": [
        {
          "indexed": false,
          "internalType": "address",
          "name": "addr",
          "type": "address"
        },
        {
          "indexed": false,
          "internalType": "string",
          "name": "patientname",
          "type": "string"
        },
        {
          "indexed": false,
          "internalType": "string",
          "name": "providername",
          "type": "string"
        },
        {
          "indexed": false,
          "internalType": "string",
          "name": "claimname",
          "type": "string"
        },
        {
          "indexed": false,
          "internalType": "bytes32",
          "name": "id",
          "type": "bytes32"
        },
        {
          "indexed": false,
          "internalType": "bytes32",
          "name": "provider",
          "type": "bytes32"
        },
        {
          "indexed": false,
          "internalType": "bytes32",
          "name": "patient",
          "type": "bytes32"
        },
        {
          "indexed": false,
          "internalType": "uint256",
          "name": "amount",
          "type": "uint256"
        },
        {
          "indexed": false,
          "internalType": "bool",
          "name": "verified",
          "type": "bool"
        },
        {
          "indexed": false,
          "internalType": "bool",
          "name": "payed",
          "type": "bool"
        }
      ],
      "name": "ServiceClaimInfo",
      "type": "event"
    },
    {
      "anonymous": false,
      "inputs": [
        {
          "indexed": false,
          "internalType": "bytes32[]",
          "name": "ids",
          "type": "bytes32[]"
        }
      ],
      "name": "idList",
      "type": "event"
    },
    {
      "anonymous": false,
      "inputs": [
        {
          "indexed": false,
          "internalType": "address[]",
          "name": "services",
          "type": "address[]"
        }
      ],
      "name": "serviceList",
      "type": "event"
    },
    {
      "anonymous": false,
      "inputs": [
        {
          "indexed": false,
          "internalType": "string",
          "name": "name",
          "type": "string"
        }
      ],
      "name": "SCName",
      "type": "event"
    },
    {
      "anonymous": false,
      "inputs": [
        {
          "components": [
            {
              "internalType": "address",
              "name": "scAddr",
              "type": "address"
            },
            {
              "internalType": "bytes32",
              "name": "id",
              "type": "bytes32"
            },
            {
              "internalType": "bytes32",
              "name": "insurerID",
              "type": "bytes32"
            },
            {
              "internalType": "bytes32",
              "name": "providerID",
              "type": "bytes32"
            },
            {
              "internalType": "bytes32",
              "name": "patientID",
              "type": "bytes32"
            },
            {
              "internalType": "string",
              "name": "name",
              "type": "string"
            },
            {
              "internalType": "uint256",
              "name": "amount",
              "type": "uint256"
            },
            {
              "internalType": "bool",
              "name": "verified",
              "type": "bool"
            },
            {
              "internalType": "bool",
              "name": "paid",
              "type": "bool"
            }
          ],
          "indexed": false,
          "internalType": "struct Organizations.SC",
          "name": "",
          "type": "tuple"
        }
      ],
      "name": "SCEvent",
      "type": "event"
    },
    {
      "constant": false,
      "inputs": [],
      "name": "preLoadInfo",
      "outputs": [],
      "payable": false,
      "stateMutability": "nonpayable",
      "type": "function"
    },
    {
      "constant": false,
      "inputs": [
        {
          "internalType": "string",
          "name": "_name",
          "type": "string"
        },
        {
          "internalType": "bytes32",
          "name": "_providerID",
          "type": "bytes32"
        }
      ],
      "name": "addPatient",
      "outputs": [
        {
          "internalType": "bytes32",
          "name": "pID",
          "type": "bytes32"
        }
      ],
      "payable": false,
      "stateMutability": "nonpayable",
      "type": "function"
    },
    {
      "constant": true,
      "inputs": [],
      "name": "getPatients",
      "outputs": [
        {
          "internalType": "bytes32[]",
          "name": "nice",
          "type": "bytes32[]"
        }
      ],
      "payable": false,
      "stateMutability": "view",
      "type": "function"
    },
    {
      "constant": false,
      "inputs": [
        {
          "internalType": "string",
          "name": "_name",
          "type": "string"
        },
        {
          "internalType": "bytes32",
          "name": "_insurerID",
          "type": "bytes32"
        }
      ],
      "name": "addProvider",
      "outputs": [
        {
          "internalType": "bytes32",
          "name": "pID",
          "type": "bytes32"
        }
      ],
      "payable": false,
      "stateMutability": "nonpayable",
      "type": "function"
    },
    {
      "constant": true,
      "inputs": [],
      "name": "getProviders",
      "outputs": [
        {
          "internalType": "bytes32[]",
          "name": "nice",
          "type": "bytes32[]"
        }
      ],
      "payable": false,
      "stateMutability": "view",
      "type": "function"
    },
    {
      "constant": false,
      "inputs": [
        {
          "internalType": "string",
          "name": "_name",
          "type": "string"
        }
      ],
      "name": "addInsurer",
      "outputs": [
        {
          "internalType": "bytes32",
          "name": "pID",
          "type": "bytes32"
        }
      ],
      "payable": false,
      "stateMutability": "nonpayable",
      "type": "function"
    },
    {
      "constant": true,
      "inputs": [],
      "name": "getInsurers",
      "outputs": [
        {
          "internalType": "bytes32[]",
          "name": "nice",
          "type": "bytes32[]"
        }
      ],
      "payable": false,
      "stateMutability": "view",
      "type": "function"
    },
    {
      "constant": false,
      "inputs": [
        {
          "internalType": "string",
          "name": "_name",
          "type": "string"
        },
        {
          "internalType": "bytes32",
          "name": "_providerID",
          "type": "bytes32"
        },
        {
          "internalType": "bytes32",
          "name": "_patientID",
          "type": "bytes32"
        }
      ],
      "name": "provideService",
      "outputs": [
        {
          "internalType": "bytes32",
          "name": "serviceContractHash",
          "type": "bytes32"
        }
      ],
      "payable": false,
      "stateMutability": "nonpayable",
      "type": "function"
    },
    {
      "constant": false,
      "inputs": [
        {
          "internalType": "bytes32",
          "name": "_serviceClaimID",
          "type": "bytes32"
        },
        {
          "internalType": "uint256",
          "name": "_amount",
          "type": "uint256"
        }
      ],
      "name": "fileClaim",
      "outputs": [
        {
          "internalType": "uint256",
          "name": "ClaimID",
          "type": "uint256"
        }
      ],
      "payable": false,
      "stateMutability": "nonpayable",
      "type": "function"
    },
    {
      "constant": false,
      "inputs": [
        {
          "internalType": "address",
          "name": "_serviceClaimAddress",
          "type": "address"
        }
      ],
      "name": "verifyClaim",
      "outputs": [],
      "payable": false,
      "stateMutability": "nonpayable",
      "type": "function"
    },
    {
      "constant": false,
      "inputs": [
        {
          "internalType": "bytes32",
          "name": "_serviceClaimID",
          "type": "bytes32"
        }
      ],
      "name": "payProvider",
      "outputs": [],
      "payable": false,
      "stateMutability": "nonpayable",
      "type": "function"
    },
    {
      "constant": false,
      "inputs": [
        {
          "internalType": "bytes32",
          "name": "_id",
          "type": "bytes32"
        }
      ],
      "name": "patientsOfProvider",
      "outputs": [
        {
          "internalType": "bytes32[]",
          "name": "",
          "type": "bytes32[]"
        }
      ],
      "payable": false,
      "stateMutability": "nonpayable",
      "type": "function"
    },
    {
      "constant": false,
      "inputs": [
        {
          "internalType": "bytes32",
          "name": "_id",
          "type": "bytes32"
        }
      ],
      "name": "providersOfInsurer",
      "outputs": [
        {
          "internalType": "bytes32[]",
          "name": "",
          "type": "bytes32[]"
        }
      ],
      "payable": false,
      "stateMutability": "nonpayable",
      "type": "function"
    },
    {
      "constant": false,
      "inputs": [
        {
          "internalType": "bytes32",
          "name": "_id",
          "type": "bytes32"
        }
      ],
      "name": "getPatient",
      "outputs": [
        {
          "internalType": "bool",
          "name": "",
          "type": "bool"
        }
      ],
      "payable": false,
      "stateMutability": "nonpayable",
      "type": "function"
    },
    {
      "constant": false,
      "inputs": [
        {
          "internalType": "bytes32",
          "name": "_id",
          "type": "bytes32"
        }
      ],
      "name": "getProvider",
      "outputs": [
        {
          "components": [
            {
              "internalType": "bytes32",
              "name": "id",
              "type": "bytes32"
            },
            {
              "internalType": "string",
              "name": "name",
              "type": "string"
            },
            {
              "internalType": "bytes32[]",
              "name": "patients",
              "type": "bytes32[]"
            }
          ],
          "internalType": "struct Organizations.Provider",
          "name": "",
          "type": "tuple"
        }
      ],
      "payable": false,
      "stateMutability": "nonpayable",
      "type": "function"
    },
    {
      "constant": false,
      "inputs": [
        {
          "internalType": "bytes32",
          "name": "_id",
          "type": "bytes32"
        }
      ],
      "name": "patientUnclaimedServices",
      "outputs": [
        {
          "internalType": "address[]",
          "name": "",
          "type": "address[]"
        }
      ],
      "payable": false,
      "stateMutability": "nonpayable",
      "type": "function"
    },
    {
      "constant": false,
      "inputs": [
        {
          "internalType": "bytes32",
          "name": "_id",
          "type": "bytes32"
        }
      ],
      "name": "patientUnverifiedClaims",
      "outputs": [
        {
          "internalType": "address[]",
          "name": "",
          "type": "address[]"
        }
      ],
      "payable": false,
      "stateMutability": "nonpayable",
      "type": "function"
    },
    {
      "constant": false,
      "inputs": [
        {
          "internalType": "bytes32",
          "name": "_id",
          "type": "bytes32"
        }
      ],
      "name": "patientVerifiedClaims",
      "outputs": [
        {
          "internalType": "address[]",
          "name": "",
          "type": "address[]"
        }
      ],
      "payable": false,
      "stateMutability": "nonpayable",
      "type": "function"
    },
    {
      "constant": false,
      "inputs": [
        {
          "internalType": "uint256",
          "name": "_num",
          "type": "uint256"
        }
      ],
      "name": "setAdmin",
      "outputs": [],
      "payable": false,
      "stateMutability": "nonpayable",
      "type": "function"
    },
    {
      "constant": true,
      "inputs": [],
      "name": "getAdmin",
      "outputs": [
        {
          "internalType": "uint256",
          "name": "",
          "type": "uint256"
        }
      ],
      "payable": false,
      "stateMutability": "view",
      "type": "function"
    },
    {
      "constant": false,
      "inputs": [],
      "name": "getAllServices",
      "outputs": [],
      "payable": false,
      "stateMutability": "nonpayable",
      "type": "function"
    },
    {
      "constant": false,
      "inputs": [],
      "name": "getAllVerifiedServices",
      "outputs": [],
      "payable": false,
      "stateMutability": "nonpayable",
      "type": "function"
    },
    {
      "constant": false,
      "inputs": [],
      "name": "getAllUnverifiedServices",
      "outputs": [],
      "payable": false,
      "stateMutability": "nonpayable",
      "type": "function"
    }
  ],
  "bytecode": "0x60806040523480156200001157600080fd5b50620000256001600160e01b036200002b16565b62000874565b6000620000736040518060400160405280600381526020017f434d530000000000000000000000000000000000000000000000000000000000815250620001a060201b60201c565b90506000620000be6040518060400160405280600c81526020017f55435344204d65646963616c000000000000000000000000000000000000000081525083620002bf60201b60201c565b9050620001076040518060400160405280600381526020017f4b656e0000000000000000000000000000000000000000000000000000000000815250826200040460201b60201c565b5060408051808201909152600581527f44616e6e7900000000000000000000000000000000000000000000000000000060208201526200015190826001600160e01b036200040416565b5060408051808201909152600781527f416e746f6e696f0000000000000000000000000000000000000000000000000060208201526200019b90826001600160e01b036200040416565b505050565b60008082604051602001620001b69190620007e4565b6040516020818303038152906040528051906020012090506060620001da62000599565b5060408051606081018252838152602080820187815282840185905260008681526005835293909320825181559251805192938493909262000224926001850192910190620005bd565b50604082015180516200024291600284019160209091019062000642565b5050600e80546001810182556000919091527fbb7b4a454dc3493923482f07822329ed19e8244eff582cc204f8554c3620c3fd01849055506040517ff73cee28a98c20f23a903356ab57dc8c514e66b0488c994b09dec06f978c839b90620002ae9085908890620007f9565b60405180910390a150909392505050565b60008083604051602001620002d59190620007e4565b6040516020818303038152906040528051906020012090506060620002f962000599565b5060408051606081018252838152602080820188815282840185905260008681526004835293909320825181559251805192938493909262000343926001850192910190620005bd565b50604082015180516200036191600284019160209091019062000642565b50505060008581526005602090815260408083208451600290910180546001818101835591865293852090930155600d805492830181559092527fd7b6990105719101dabeb77144f2a3385c8033acd3af97e9423a695e81ad1eb501849055517f7dd222c7de5c7ba42d121aa7e2acc9d5d4a47c2eb31f55385cf51cbe459c5c9b90620003f29085908990620007f9565b60405180910390a15090949350505050565b600080836040516020016200041a9190620007e4565b6040516020818303038152906040528051906020012090506060806060620004416200067f565b506040805160a08101825285815260208082018a8152828401879052606083018690526080830185905260008881526003835293909320825181559251805192938493909262000499926001850192910190620005bd565b5060408201518051620004b7916002840191602090910190620006b1565b5060608201518051620004d5916003840191602090910190620006b1565b5060808201518051620004f3916004840191602090910190620006b1565b5050600c805460018181019092557fdf6966c971051c3d54ec59162606531493a51404a002842f56009d7e5cf4a8c7018790556000898152600460209081526040808320865160029091018054958601815584529190922090920191909155517f86ec8adc6f97da0327b3e1dcc24fa25aea5eb7afcf6af08792e4b2d4d799fad89150620005859087908b90620007f9565b60405180910390a150929695505050505050565b60405180606001604052806000801916815260200160608152602001606081525090565b828054600181600116156101000203166002900490600052602060002090601f016020900481019282601f106200060057805160ff191683800117855562000630565b8280016001018555821562000630579182015b828111156200063057825182559160200191906001019062000613565b506200063e92915062000717565b5090565b8280548282559060005260206000209081019282156200063057916020028201828111156200063057825182559160200191906001019062000613565b6040518060a0016040528060008019168152602001606081526020016060815260200160608152602001606081525090565b82805482825590600052602060002090810192821562000709579160200282015b828111156200070957825182546001600160a01b0319166001600160a01b03909116178255602090920191600190910190620006d2565b506200063e92915062000737565b6200073491905b808211156200063e57600081556001016200071e565b90565b6200073491905b808211156200063e5780546001600160a01b03191681556001016200073e565b620007698162000734565b82525050565b60006200077c8262000825565b62000788818562000829565b93506200079a81856020860162000837565b620007a5816200086a565b9093019392505050565b6000620007bc8262000825565b620007c8818562000832565b9350620007da81856020860162000837565b9290920192915050565b6000620007f28284620007af565b9392505050565b604081016200080982856200075e565b81810360208301526200081d81846200076f565b949350505050565b5190565b90815260200190565b919050565b60005b83811015620008545781810151838201526020016200083a565b8381111562000864576000848401525b50505050565b601f01601f191690565b61466580620008846000396000f3fe60806040523480156200001157600080fd5b5060043610620001f05760003560e01c80636e9960c31162000111578063a80d520c11620000a5578063e4595936116200007b578063e45959361462000453578063ece7ac2b146200045d578063edc922a91462000474578063ee3d52b3146200047e57620001f0565b8063a80d520c146200040e578063dd2389251462000425578063e0e87b1a146200043c57620001f0565b806392398fbb11620000e757806392398fbb14620003b25780639594c99e14620003c95780639c860b8a14620003e0578063a46bfff914620003f757620001f0565b80636e9960c3146200036b578063740044b414620003755780637899a34e146200038c57620001f0565b80632bde2a86116200018957806339160aa7116200015f57806339160aa7146200031c5780633e7e072e14620003335780633f1e172d146200034a57806340f10653146200035457620001f0565b80632bde2a8614620002a957806333c0950a14620002d057806333fc83f714620002f657620001f0565b80631bf78b3511620001cb5780631bf78b35146200024757806321dd8285146200025357806321fe0f3014620002795780632470d25e146200028357620001f0565b8063085683ff14620001f557806311569586146200022457806312ad1c37146200023d575b600080fd5b6200020c62000206366004620036c0565b62000495565b6040516200021b919062003d7a565b60405180910390f35b6200022e6200082c565b6040516200021b919062003d44565b6200022e62000887565b62000251620008df565b005b6200026a6200026436600462003593565b62000f78565b6040516200021b919062003d1e565b62000251620010b6565b6200029a6200029436600462003593565b620016d1565b6040516200021b919062003c50565b620002c0620002ba36600462003593565b620016ec565b6040516200021b92919062003df5565b620002e7620002e136600462003593565b62001797565b6040516200021b919062003e64565b6200030d6200030736600462003549565b62001a3e565b6040516200021b919062003e19565b620002c06200032d36600462003593565b62001add565b6200020c6200034436600462003686565b62001b52565b6200025162001c99565b6200020c62000365366004620035d5565b62001d79565b6200020c62001fc1565b6200020c6200038636600462003686565b62001fc7565b620003a36200039d36600462003593565b6200215c565b6040516200021b919062003d6a565b620002c0620003c336600462003593565b620023a6565b6200026a620003da36600462003593565b6200241b565b6200022e620003f136600462003593565b6200255c565b6200022e6200040836600462003593565b62002608565b620002516200041f36600462003549565b62002650565b6200020c620004363660046200364d565b62002869565b620002516200044d36600462003593565b62002988565b6200025162002a17565b6200026a6200046e36600462003593565b620030b3565b6200022e620031f4565b620002516200048f36600462003593565b6200324c565b600080848484604051602001620004af9392919062003c17565b604051602081830303815290604052805190602001209050600084848388604051620004db9062003251565b620004ea949392919062003da9565b604051809103906000f08015801562000507573d6000803e3d6000fd5b5090506000816040516020016200051f919062003bf2565b604051602081830303815290604052805190602001209050620005416200325f565b5060408051610120810182526001600160a01b038481168252602080830185815260088054958501958652606085018c8152608086018c815260a087018f8152600060c0890181905260e08901819052610100890181905260098054600181018083559190925289517f6e1540171b6c0c960b71a7020d9f60077f6af931a8bbf590da0223dacf75c7af9290960291820180546001600160a01b0319169690991695909517885594517f6e1540171b6c0c960b71a7020d9f60077f6af931a8bbf590da0223dacf75c7b086015597517f6e1540171b6c0c960b71a7020d9f60077f6af931a8bbf590da0223dacf75c7b185015590517f6e1540171b6c0c960b71a7020d9f60077f6af931a8bbf590da0223dacf75c7b2840155517f6e1540171b6c0c960b71a7020d9f60077f6af931a8bbf590da0223dacf75c7b383015594518051949594869493620006b9937f6e1540171b6c0c960b71a7020d9f60077f6af931a8bbf590da0223dacf75c7b401920190620032aa565b5060c082015160068281019190915560e0830151600792830180546101009586015160ff199091169215159290921761ff0019169115159094021790925560008581526020928352604080822080546001600160a01b03199081166001600160a01b038b169081179092558c845260038652828420600281018054600181018255908652878620018054909216831790915590835292845290208b5191935062000769929091908c0190620032aa565b506001600160a01b0384166000908152600a602090815260409091208a5162000795928c0190620032aa565b50600b80546001810182556000919091527f0175b7a638427703f0dbe7bb9bbf987a2551717b34e79f33b5b1008d1fa01db90180546001600160a01b0319166001600160a01b0386161790556040517f2cdb195d7226065901c0e37d742237ac3e30d6dc0ce7faf49701f6ec9f0bd1ed9062000815908590879062003d8a565b60405180910390a1509093505050505b9392505050565b6060600e8054806020026020016040519081016040528092919081815260200182805480156200087c57602002820191906000526020600020905b81548152602001906001019080831162000867575b505050505090505b90565b6060600c8054806020026020016040519081016040528092919081815260200182805480156200087c576020028201919060005260206000209081548152602001906001019080831162000867575050505050905090565b60005b600b5481101562000f75576000600b8281548110620008fd57fe5b9060005260206000200160009054906101000a90046001600160a01b03169050606060036000836001600160a01b031663f680a7bd6040518163ffffffff1660e01b815260040160206040518083038186803b1580156200095d57600080fd5b505afa15801562000972573d6000803e3d6000fd5b505050506040513d601f19601f82011682018060405250620009989190810190620035b4565b81526020019081526020016000206001018054600181600116156101000203166002900480601f01602080910402602001604051908101604052809291908181526020018280546001816001161561010002031660029004801562000a415780601f1062000a155761010080835404028352916020019162000a41565b820191906000526020600020905b81548152906001019060200180831162000a2357829003601f168201915b50505050509050606060046000846001600160a01b031663596ada676040518163ffffffff1660e01b815260040160206040518083038186803b15801562000a8857600080fd5b505afa15801562000a9d573d6000803e3d6000fd5b505050506040513d601f19601f8201168201806040525062000ac39190810190620035b4565b81526020019081526020016000206001018054600181600116156101000203166002900480601f01602080910402602001604051908101604052809291908181526020018280546001816001161561010002031660029004801562000b6c5780601f1062000b405761010080835404028352916020019162000b6c565b820191906000526020600020905b81548152906001019060200180831162000b4e57829003601f168201915b50505050509050826001600160a01b031663bbb82d896040518163ffffffff1660e01b815260040160206040518083038186803b15801562000bad57600080fd5b505afa15801562000bc2573d6000803e3d6000fd5b505050506040513d601f19601f8201168201806040525062000be8919081019062003572565b62000f69577f5a19c8b072af63e75cf80eb8c26dd40d951318c4ef9f4f2926bec4caa2da783e838383866001600160a01b03166306fdde036040518163ffffffff1660e01b815260040160006040518083038186803b15801562000c4b57600080fd5b505afa15801562000c60573d6000803e3d6000fd5b505050506040513d6000823e601f3d908101601f1916820160405262000c8a919081019062003614565b876001600160a01b0316631be37f406040518163ffffffff1660e01b815260040160206040518083038186803b15801562000cc457600080fd5b505afa15801562000cd9573d6000803e3d6000fd5b505050506040513d601f19601f8201168201806040525062000cff9190810190620035b4565b886001600160a01b031663596ada676040518163ffffffff1660e01b815260040160206040518083038186803b15801562000d3957600080fd5b505afa15801562000d4e573d6000803e3d6000fd5b505050506040513d601f19601f8201168201806040525062000d749190810190620035b4565b896001600160a01b031663f680a7bd6040518163ffffffff1660e01b815260040160206040518083038186803b15801562000dae57600080fd5b505afa15801562000dc3573d6000803e3d6000fd5b505050506040513d601f19601f8201168201806040525062000de99190810190620035b4565b8a6001600160a01b031663aa8c217c6040518163ffffffff1660e01b815260040160206040518083038186803b15801562000e2357600080fd5b505afa15801562000e38573d6000803e3d6000fd5b505050506040513d601f19601f8201168201806040525062000e5e9190810190620035b4565b8b6001600160a01b031663bbb82d896040518163ffffffff1660e01b815260040160206040518083038186803b15801562000e9857600080fd5b505afa15801562000ead573d6000803e3d6000fd5b505050506040513d601f19601f8201168201806040525062000ed3919081019062003572565b8c6001600160a01b031663295b4e176040518163ffffffff1660e01b815260040160206040518083038186803b15801562000f0d57600080fd5b505afa15801562000f22573d6000803e3d6000fd5b505050506040513d601f19601f8201168201806040525062000f48919081019062003572565b60405162000f609a9998979695949392919062003c60565b60405180910390a15b505050600101620008e2565b50565b60008181526003602052604081206060915b600382015481101562001012577f35b7f39ce99df9443c69ab69269e1ae96c0add252abdcce625838b4c386c6236600a600084600301848154811062000fcc57fe5b60009182526020808320909101546001600160a01b031683528201929092526040908101909120905162001001919062003e2c565b60405180910390a160010162000f8a565b507fa1c275d9147cd4bbf3a6fc6b01df2bdad7272d62a5bea8ea5f90e20e7c3f48e98160030160405162001047919062003d31565b60405180910390a180600301805480602002602001604051908101604052809291908181526020018280548015620010a957602002820191906000526020600020905b81546001600160a01b031681526001909101906020018083116200108a575b5050505050915050919050565b60005b600b5481101562000f75576000600b8281548110620010d457fe5b9060005260206000200160009054906101000a90046001600160a01b03169050606060036000836001600160a01b031663f680a7bd6040518163ffffffff1660e01b815260040160206040518083038186803b1580156200113457600080fd5b505afa15801562001149573d6000803e3d6000fd5b505050506040513d601f19601f820116820180604052506200116f9190810190620035b4565b81526020019081526020016000206001018054600181600116156101000203166002900480601f016020809104026020016040519081016040528092919081815260200182805460018160011615610100020316600290048015620012185780601f10620011ec5761010080835404028352916020019162001218565b820191906000526020600020905b815481529060010190602001808311620011fa57829003601f168201915b50505050509050606060046000846001600160a01b031663596ada676040518163ffffffff1660e01b815260040160206040518083038186803b1580156200125f57600080fd5b505afa15801562001274573d6000803e3d6000fd5b505050506040513d601f19601f820116820180604052506200129a9190810190620035b4565b81526020019081526020016000206001018054600181600116156101000203166002900480601f016020809104026020016040519081016040528092919081815260200182805460018160011615610100020316600290048015620013435780601f10620013175761010080835404028352916020019162001343565b820191906000526020600020905b8154815290600101906020018083116200132557829003601f168201915b505050505090507f5a19c8b072af63e75cf80eb8c26dd40d951318c4ef9f4f2926bec4caa2da783e838383866001600160a01b03166306fdde036040518163ffffffff1660e01b815260040160006040518083038186803b158015620013a857600080fd5b505afa158015620013bd573d6000803e3d6000fd5b505050506040513d6000823e601f3d908101601f19168201604052620013e7919081019062003614565b876001600160a01b0316631be37f406040518163ffffffff1660e01b815260040160206040518083038186803b1580156200142157600080fd5b505afa15801562001436573d6000803e3d6000fd5b505050506040513d601f19601f820116820180604052506200145c9190810190620035b4565b886001600160a01b031663596ada676040518163ffffffff1660e01b815260040160206040518083038186803b1580156200149657600080fd5b505afa158015620014ab573d6000803e3d6000fd5b505050506040513d601f19601f82011682018060405250620014d19190810190620035b4565b896001600160a01b031663f680a7bd6040518163ffffffff1660e01b815260040160206040518083038186803b1580156200150b57600080fd5b505afa15801562001520573d6000803e3d6000fd5b505050506040513d601f19601f82011682018060405250620015469190810190620035b4565b8a6001600160a01b031663aa8c217c6040518163ffffffff1660e01b815260040160206040518083038186803b1580156200158057600080fd5b505afa15801562001595573d6000803e3d6000fd5b505050506040513d601f19601f82011682018060405250620015bb9190810190620035b4565b8b6001600160a01b031663bbb82d896040518163ffffffff1660e01b815260040160206040518083038186803b158015620015f557600080fd5b505afa1580156200160a573d6000803e3d6000fd5b505050506040513d601f19601f8201168201806040525062001630919081019062003572565b8c6001600160a01b031663295b4e176040518163ffffffff1660e01b815260040160206040518083038186803b1580156200166a57600080fd5b505afa1580156200167f573d6000803e3d6000fd5b505050506040513d601f19601f82011682018060405250620016a5919081019062003572565b604051620016bd9a9998979695949392919062003c60565b60405180910390a1505050600101620010b9565b6006602052600090815260409020546001600160a01b031681565b6004602090815260009182526040918290208054600180830180548651600293821615610100026000190190911692909204601f8101869004860283018601909652858252919492939092908301828280156200178d5780601f1062001761576101008083540402835291602001916200178d565b820191906000526020600020905b8154815290600101906020018083116200176f57829003601f168201915b5050505050905082565b620017a16200332f565b620017ab6200332f565b6004600084815260200190815260200160002060405180606001604052908160008201548152602001600182018054600181600116156101000203166002900480601f016020809104026020016040519081016040528092919081815260200182805460018160011615610100020316600290048015620018705780601f10620018445761010080835404028352916020019162001870565b820191906000526020600020905b8154815290600101906020018083116200185257829003601f168201915b5050505050815260200160028201805480602002602001604051908101604052809291908181526020018280548015620018ca57602002820191906000526020600020905b815481526020019060010190808311620018b5575b50505050508152505090507f8c6b3078bf6d713aeae5b1ccc2dfea387cbb876de1a5c9d81a4e22d4e832c5468160405162001906919062003e64565b60405180910390a16004600084815260200190815260200160002060405180606001604052908160008201548152602001600182018054600181600116156101000203166002900480601f016020809104026020016040519081016040528092919081815260200182805460018160011615610100020316600290048015620019d35780601f10620019a757610100808354040283529160200191620019d3565b820191906000526020600020905b815481529060010190602001808311620019b557829003601f168201915b505050505081526020016002820180548060200260200160405190810160405280929190818152602001828054801562001a2d57602002820191906000526020600020905b81548152602001906001019080831162001a18575b505050505081525050915050919050565b60076020908152600091825260409182902080548351601f60026000196101006001861615020190931692909204918201849004840281018401909452808452909183018282801562001ad55780601f1062001aa95761010080835404028352916020019162001ad5565b820191906000526020600020905b81548152906001019060200180831162001ab757829003601f168201915b505050505081565b6005602090815260009182526040918290208054600180830180548651600293821615610100026000190190911692909204601f8101869004860283018601909652858252919492939092908301828280156200178d5780601f1062001761576101008083540402835291602001916200178d565b6000808360405160200162001b68919062003c09565b604051602081830303815290604052805190602001209050606062001b8c6200332f565b5060408051606081018252838152602080820188815282840185905260008681526004835293909320825181559251805192938493909262001bd6926001850192910190620032aa565b506040820151805162001bf491600284019160209091019062003353565b50505060008581526005602090815260408083208451600290910180546001818101835591865293852090930155600d805492830181559092527fd7b6990105719101dabeb77144f2a3385c8033acd3af97e9423a695e81ad1eb501849055517f7dd222c7de5c7ba42d121aa7e2acc9d5d4a47c2eb31f55385cf51cbe459c5c9b9062001c85908590899062003df5565b60405180910390a150909150505b92915050565b600062001cc160405180604001604052806003815260200162434d5360e81b81525062002869565b9050600062001cf56040518060400160405280600c81526020016b1550d4d1081359591a58d85b60a21b8152508362001b52565b905062001d1e6040518060400160405280600381526020016225b2b760e91b8152508262001fc7565b5062001d486040518060400160405280600581526020016444616e6e7960d81b8152508262001fc7565b5062001d7460405180604001604052806007815260200166416e746f6e696f60c81b8152508262001fc7565b505050565b60008281526006602052604080822054905163d61909f960e01b81526001600160a01b03909116908290829063d61909f99062001dbb90879060040162003d7a565b602060405180830381600087803b15801562001dd657600080fd5b505af115801562001deb573d6000803e3d6000fd5b505050506040513d601f19601f8201168201806040525062001e119190810190620035b4565b90506000826001600160a01b031663f680a7bd6040518163ffffffff1660e01b815260040160206040518083038186803b15801562001e4f57600080fd5b505afa15801562001e64573d6000803e3d6000fd5b505050506040513d601f19601f8201168201806040525062001e8a9190810190620035b4565b6000818152600360205260408120600f80546001810182559083527f8d1108e10bcb7c27dddfc02ed9d693a074039d026cf4ea4240b40f7d581ac802018990559192505b600282015481101562001f4957846001600160a01b031682600201828154811062001ef557fe5b6000918252602090912001546001600160a01b0316141562001f405781600201818154811062001f2157fe5b600091825260209091200180546001600160a01b031916905562001f49565b60010162001ece565b50600381018054600181018255600091825260209091200180546001600160a01b0319166001600160a01b0386161790556040517f96e3875898071e5d91932eb150a3914f9fe70e473f6faeaad697e99a48937c9c9062001fae908590899062003e77565b60405180910390a1509095945050505050565b60005490565b6000808360405160200162001fdd919062003c09565b60405160208183030381529060405280519060200120905060608060606200200462003390565b506040805160a08101825285815260208082018a815282840187905260608301869052608083018590526000888152600383529390932082518155925180519293849390926200205c926001850192910190620032aa565b50604082015180516200207a916002840191602090910190620033c2565b506060820151805162002098916003840191602090910190620033c2565b5060808201518051620020b6916004840191602090910190620033c2565b5050600c805460018181019092557fdf6966c971051c3d54ec59162606531493a51404a002842f56009d7e5cf4a8c7018790556000898152600460209081526040808320865160029091018054958601815584529190922090920191909155517f86ec8adc6f97da0327b3e1dcc24fa25aea5eb7afcf6af08792e4b2d4d799fad89150620021489087908b9062003df5565b60405180910390a150929695505050505050565b60006200216862003390565b600360008481526020019081526020016000206040518060a001604052908160008201548152602001600182018054600181600116156101000203166002900480601f0160208091040260200160405190810160405280929190818152602001828054600181600116156101000203166002900480156200222d5780601f1062002201576101008083540402835291602001916200222d565b820191906000526020600020905b8154815290600101906020018083116200220f57829003601f168201915b50505050508152602001600282018054806020026020016040519081016040528092919081815260200182805480156200229157602002820191906000526020600020905b81546001600160a01b0316815260019091019060200180831162002272575b5050505050815260200160038201805480602002602001604051908101604052809291908181526020018280548015620022f557602002820191906000526020600020905b81546001600160a01b03168152600190910190602001808311620022d6575b50505050508152602001600482018054806020026020016040519081016040528092919081815260200182805480156200235957602002820191906000526020600020905b81546001600160a01b031681526001909101906020018083116200233a575b50505050508152505090507f7822df68ea6ba88fa17a55a6c6fe1f7207c1653493392725ce9da7f61f8b601d8160405162002395919062003e51565b60405180910390a150600192915050565b6003602090815260009182526040918290208054600180830180548651600293821615610100026000190190911692909204601f8101869004860283018601909652858252919492939092908301828280156200178d5780601f1062001761576101008083540402835291602001916200178d565b600081815260036020526040908190209051606091907fa1c275d9147cd4bbf3a6fc6b01df2bdad7272d62a5bea8ea5f90e20e7c3f48e9906200246390600284019062003d31565b60405180910390a160005b6002820154811015620024f6577f35b7f39ce99df9443c69ab69269e1ae96c0add252abdcce625838b4c386c6236600a6000846002018481548110620024b057fe5b60009182526020808320909101546001600160a01b0316835282019290925260409081019091209051620024e5919062003e2c565b60405180910390a16001016200246e565b5080600201805480602002602001604051908101604052809291908181526020018280548015620010a9576020028201919060005260206000209081546001600160a01b031681526001909101906020018083116200108a575050505050915050919050565b600081815260056020526040908190209051606091907f1c7aaf504355c6134470b4070ca50bf276d45d0205aa86ef6bd15c684ae710c490620025a490600284019062003d57565b60405180910390a180600201805480602002602001604051908101604052809291908181526020018280548015620010a957602002820191906000526020600020905b815481526020019060010190808311620025e7575050505050915050919050565b600081815260046020526040908190209051606091907f1c7aaf504355c6134470b4070ca50bf276d45d0205aa86ef6bd15c684ae710c490620025a490600284019062003d57565b6000819050806001600160a01b031663844cdf096040518163ffffffff1660e01b8152600401602060405180830381600087803b1580156200269157600080fd5b505af1158015620026a6573d6000803e3d6000fd5b505050506040513d601f19601f82011682018060405250620026cc919081019062003572565b620026f45760405162461bcd60e51b8152600401620026eb9062003e3f565b60405180910390fd5b6000816001600160a01b031663f680a7bd6040518163ffffffff1660e01b815260040160206040518083038186803b1580156200273057600080fd5b505afa15801562002745573d6000803e3d6000fd5b505050506040513d601f19601f820116820180604052506200276b9190810190620035b4565b60008181526003602052604081209192505b6003820154811015620027f857836001600160a01b0316826003018281548110620027a457fe5b6000918252602090912001546001600160a01b03161415620027ef57816003018181548110620027d057fe5b600091825260209091200180546001600160a01b0319169055620027f8565b6001016200277d565b50600481018054600181018255600091825260209091200180546001600160a01b0319166001600160a01b0385161790556040517fc03c381479e74431d2e456b259238f87292a5a827091c7386e197457ad47e19e906200285b90869062003c50565b60405180910390a150505050565b600080826040516020016200287f919062003c09565b6040516020818303038152906040528051906020012090506060620028a36200332f565b50604080516060810182528381526020808201878152828401859052600086815260058352939093208251815592518051929384939092620028ed926001850192910190620032aa565b50604082015180516200290b91600284019160209091019062003353565b5050600e80546001810182556000919091527fbb7b4a454dc3493923482f07822329ed19e8244eff582cc204f8554c3620c3fd01849055506040517ff73cee28a98c20f23a903356ab57dc8c514e66b0488c994b09dec06f978c839b9062002977908590889062003df5565b60405180910390a150909392505050565b60008181526006602090815260408083205481516398d6a37360e01b815291516001600160a01b039091169384936398d6a373936004808201949293918390030190829087803b158015620029dc57600080fd5b505af1158015620029f1573d6000803e3d6000fd5b505050506040513d601f19601f8201168201806040525062001d74919081019062003572565b60005b600b5481101562000f75576000600b828154811062002a3557fe5b9060005260206000200160009054906101000a90046001600160a01b03169050606060036000836001600160a01b031663f680a7bd6040518163ffffffff1660e01b815260040160206040518083038186803b15801562002a9557600080fd5b505afa15801562002aaa573d6000803e3d6000fd5b505050506040513d601f19601f8201168201806040525062002ad09190810190620035b4565b81526020019081526020016000206001018054600181600116156101000203166002900480601f01602080910402602001604051908101604052809291908181526020018280546001816001161561010002031660029004801562002b795780601f1062002b4d5761010080835404028352916020019162002b79565b820191906000526020600020905b81548152906001019060200180831162002b5b57829003601f168201915b50505050509050606060046000846001600160a01b031663596ada676040518163ffffffff1660e01b815260040160206040518083038186803b15801562002bc057600080fd5b505afa15801562002bd5573d6000803e3d6000fd5b505050506040513d601f19601f8201168201806040525062002bfb9190810190620035b4565b81526020019081526020016000206001018054600181600116156101000203166002900480601f01602080910402602001604051908101604052809291908181526020018280546001816001161561010002031660029004801562002ca45780601f1062002c785761010080835404028352916020019162002ca4565b820191906000526020600020905b81548152906001019060200180831162002c8657829003601f168201915b50505050509050826001600160a01b031663bbb82d896040518163ffffffff1660e01b815260040160206040518083038186803b15801562002ce557600080fd5b505afa15801562002cfa573d6000803e3d6000fd5b505050506040513d601f19601f8201168201806040525062002d20919081019062003572565b151560011415620030a7577f5a19c8b072af63e75cf80eb8c26dd40d951318c4ef9f4f2926bec4caa2da783e838383866001600160a01b03166306fdde036040518163ffffffff1660e01b815260040160006040518083038186803b15801562002d8957600080fd5b505afa15801562002d9e573d6000803e3d6000fd5b505050506040513d6000823e601f3d908101601f1916820160405262002dc8919081019062003614565b876001600160a01b0316631be37f406040518163ffffffff1660e01b815260040160206040518083038186803b15801562002e0257600080fd5b505afa15801562002e17573d6000803e3d6000fd5b505050506040513d601f19601f8201168201806040525062002e3d9190810190620035b4565b886001600160a01b031663596ada676040518163ffffffff1660e01b815260040160206040518083038186803b15801562002e7757600080fd5b505afa15801562002e8c573d6000803e3d6000fd5b505050506040513d601f19601f8201168201806040525062002eb29190810190620035b4565b896001600160a01b031663f680a7bd6040518163ffffffff1660e01b815260040160206040518083038186803b15801562002eec57600080fd5b505afa15801562002f01573d6000803e3d6000fd5b505050506040513d601f19601f8201168201806040525062002f279190810190620035b4565b8a6001600160a01b031663aa8c217c6040518163ffffffff1660e01b815260040160206040518083038186803b15801562002f6157600080fd5b505afa15801562002f76573d6000803e3d6000fd5b505050506040513d601f19601f8201168201806040525062002f9c9190810190620035b4565b8b6001600160a01b031663bbb82d896040518163ffffffff1660e01b815260040160206040518083038186803b15801562002fd657600080fd5b505afa15801562002feb573d6000803e3d6000fd5b505050506040513d601f19601f8201168201806040525062003011919081019062003572565b8c6001600160a01b031663295b4e176040518163ffffffff1660e01b815260040160206040518083038186803b1580156200304b57600080fd5b505afa15801562003060573d6000803e3d6000fd5b505050506040513d601f19601f8201168201806040525062003086919081019062003572565b6040516200309e9a9998979695949392919062003c60565b60405180910390a15b50505060010162002a1a565b600081815260036020526040908190209051606091907fa1c275d9147cd4bbf3a6fc6b01df2bdad7272d62a5bea8ea5f90e20e7c3f48e990620030fb90600484019062003d31565b60405180910390a160005b60048201548110156200318e577f35b7f39ce99df9443c69ab69269e1ae96c0add252abdcce625838b4c386c6236600a60008460040184815481106200314857fe5b60009182526020808320909101546001600160a01b03168352820192909252604090810190912090516200317d919062003e2c565b60405180910390a160010162003106565b5080600401805480602002602001604051908101604052809291908181526020018280548015620010a9576020028201919060005260206000209081546001600160a01b031681526001909101906020018083116200108a575050505050915050919050565b6060600d8054806020026020016040519081016040528092919081815260200182805480156200087c576020028201919060005260206000209081548152602001906001019080831162000867575050505050905090565b600055565b61061b806200400883390190565b604080516101208101825260008082526020820181905291810182905260608082018390526080820183905260a082015260c0810182905260e0810182905261010081019190915290565b828054600181600116156101000203166002900490600052602060002090601f016020900481019282601f10620032ed57805160ff19168380011785556200331d565b828001600101855582156200331d579182015b828111156200331d57825182559160200191906001019062003300565b506200332b92915062003428565b5090565b60405180606001604052806000801916815260200160608152602001606081525090565b8280548282559060005260206000209081019282156200331d57916020028201828111156200331d57825182559160200191906001019062003300565b6040518060a0016040528060008019168152602001606081526020016060815260200160608152602001606081525090565b8280548282559060005260206000209081019282156200341a579160200282015b828111156200341a57825182546001600160a01b0319166001600160a01b03909116178255602090920191600190910190620033e3565b506200332b92915062003445565b6200088491905b808211156200332b57600081556001016200342f565b6200088491905b808211156200332b5780546001600160a01b03191681556001016200344c565b803562001c938162003fda565b805162001c938162003ff1565b803562001c938162003ffc565b805162001c938162003ffc565b600082601f830112620034b257600080fd5b8151620034c9620034c38262003ebe565b62003e96565b91508082526020830160208301858383011115620034e657600080fd5b620034f383828462003f3f565b50505092915050565b600082601f8301126200350e57600080fd5b81356200351f620034c38262003ebe565b915080825260208301602083018583830111156200353c57600080fd5b620034f383828462003f33565b6000602082840312156200355c57600080fd5b60006200356a84846200346c565b949350505050565b6000602082840312156200358557600080fd5b60006200356a848462003479565b600060208284031215620035a657600080fd5b60006200356a848462003486565b600060208284031215620035c757600080fd5b60006200356a848462003493565b60008060408385031215620035e957600080fd5b6000620035f7858562003486565b92505060206200360a8582860162003486565b9150509250929050565b6000602082840312156200362757600080fd5b815167ffffffffffffffff8111156200363f57600080fd5b6200356a84828501620034a0565b6000602082840312156200366057600080fd5b813567ffffffffffffffff8111156200367857600080fd5b6200356a84828501620034fc565b600080604083850312156200369a57600080fd5b823567ffffffffffffffff811115620036b257600080fd5b620035f785828601620034fc565b600080600060608486031215620036d657600080fd5b833567ffffffffffffffff811115620036ee57600080fd5b620036fc86828701620034fc565b93505060206200370f8682870162003486565b9250506040620037228682870162003486565b9150509250925092565b60006200373a838362003750565b505060200190565b60006200373a8383620039ba565b6200375b8162003f21565b82525050565b6200375b620037708262003f21565b62003f9a565b6000620037838262003ef9565b6200378f818562003f07565b93506200379c8362003ee7565b8060005b83811015620037d0578151620037b788826200372c565b9750620037c48362003ee7565b925050600101620037a0565b509495945050505050565b6000620037e88262003ef9565b620037f4818562003f07565b9350620038018362003ee7565b8060005b83811015620037d05781516200381c88826200372c565b9750620038298362003ee7565b92505060010162003805565b6000620038428262003efd565b6200384e818562003f07565b93506200385b8362003eed565b8060005b83811015620037d057620038738262003fae565b6200387f88826200372c565b97506200388c8362003f01565b9250506001016200385f565b6000620038a58262003ef9565b620038b1818562003f07565b9350620038be8362003ee7565b8060005b83811015620037d0578151620038d9888262003742565b9750620038e68362003ee7565b925050600101620038c2565b6000620038ff8262003ef9565b6200390b818562003f07565b9350620039188362003ee7565b8060005b83811015620037d057815162003933888262003742565b9750620039408362003ee7565b9250506001016200391c565b6000620039598262003efd565b62003965818562003f07565b9350620039728362003eed565b8060005b83811015620037d0576200398a8262003fbc565b62003996888262003742565b9750620039a38362003f01565b92505060010162003976565b6200375b8162003f2e565b6200375b8162000884565b6200375b620039d48262000884565b62000884565b6000620039e78262003ef9565b620039f3818562003f07565b935062003a0581856020860162003f3f565b62003a108162003fca565b9093019392505050565b600062003a278262003ef9565b62003a33818562003f10565b935062003a4581856020860162003f3f565b9290920192915050565b60008154600181166000811462003a6f576001811462003a985762003add565b607f600283041662003a82818762003f07565b60ff198416815295505060208501925062003add565b6002820462003aa8818762003f07565b955062003ab58562003eed565b60005b8281101562003ad65781548882015260019091019060200162003ab8565b8701945050505b505092915050565b600062003af460168362003f07565b7510db185a5b481dd85cc81b9bdd0815995c9a599a595960521b815260200192915050565b805160009060a084019062003b2f8582620039ba565b506020830151848203602086015262003b498282620039da565b9150506040830151848203604086015262003b658282620037db565b9150506060830151848203606086015262003b818282620037db565b9150506080830151848203608086015262003b9d8282620037db565b95945050505050565b8051600090606084019062003bbc8582620039ba565b506020830151848203602086015262003bd68282620039da565b9150506040830151848203604086015262003b9d8282620038f2565b600062003c00828462003761565b50601401919050565b600062000825828462003a1a565b600062003c25828662003a1a565b915062003c338285620039c5565b60208201915062003c458284620039c5565b506020019392505050565b6020810162001c93828462003750565b610140810162003c71828d62003750565b818103602083015262003c85818c620039da565b9050818103604083015262003c9b818b620039da565b9050818103606083015262003cb1818a620039da565b905062003cc26080830189620039ba565b62003cd160a0830188620039ba565b62003ce060c0830187620039ba565b62003cef60e0830186620039ba565b62003cff610100830185620039af565b62003d0f610120830184620039af565b9b9a5050505050505050505050565b6020808252810162000825818462003776565b6020808252810162000825818462003835565b6020808252810162000825818462003898565b602080825281016200082581846200394c565b6020810162001c938284620039af565b6020810162001c938284620039ba565b6040810162003d9a8285620039ba565b62000825602083018462003750565b6080810162003db98287620039ba565b62003dc86020830186620039ba565b62003dd76040830185620039ba565b818103606083015262003deb8184620039da565b9695505050505050565b6040810162003e058285620039ba565b81810360208301526200356a8184620039da565b60208082528101620008258184620039da565b6020808252810162000825818462003a4f565b6020808252810162001c938162003ae5565b6020808252810162000825818462003b19565b6020808252810162000825818462003ba6565b6040810162003e878285620039ba565b620008256020830184620039ba565b60405181810167ffffffffffffffff8111828210171562003eb657600080fd5b604052919050565b600067ffffffffffffffff82111562003ed657600080fd5b506020601f91909101601f19160190565b60200190565b60009081526020902090565b5190565b5490565b60010190565b90815260200190565b919050565b6001600160a01b031690565b600062001c938262003f15565b151590565b82818337506000910152565b60005b8381101562003f5c57818101518382015260200162003f42565b8381111562003f6c576000848401525b50505050565b600062001c9362003f838362000884565b62003f15565b600062001c93620039d48362000884565b600062001c9382600062001c938262003fd4565b600062001c93825462003f72565b600062001c93825462003f89565b601f01601f191690565b60601b90565b62003fe58162003f21565b811462000f7557600080fd5b62003fe58162003f2e565b62003fe5816200088456fe608060405234801561001057600080fd5b5060405161061b38038061061b8339818101604052608081101561003357600080fd5b81516020830151604080850151606086018051925194969395919493918201928464010000000082111561006657600080fd5b90830190602082018581111561007b57600080fd5b825164010000000081118282018810171561009557600080fd5b82525081516020918201929091019080838360005b838110156100c25781810151838201526020016100aa565b50505050905090810190601f1680156100ef5780820380516001836020036101000a031916815260200191505b506040525050506001849055600283905560038290558051610118906004906020840190610122565b50505050506101bd565b828054600181600116156101000203166002900490600052602060002090601f016020900481019282601f1061016357805160ff1916838001178555610190565b82800160010185558215610190579182015b82811115610190578251825591602001919060010190610175565b5061019c9291506101a0565b5090565b6101ba91905b8082111561019c57600081556001016101a6565b90565b61044f806101cc6000396000f3fe608060405234801561001057600080fd5b50600436106101165760003560e01c8063844cdf09116100a2578063bbb82d8911610071578063bbb82d891461025d578063cdb73ac014610265578063d321fe2914610282578063d61909f91461028a578063f680a7bd146102a757610116565b8063844cdf091461023d57806398d6a37314610245578063aa8c217c1461024d578063b95e216c1461025557610116565b806334d6093d116100e957806334d6093d146101d65780633a50ed13146101f35780633f02907a14610210578063596ada671461022d57806380007e831461023557610116565b806306fdde031461011b5780631be37f4014610198578063209ebc08146101b2578063295b4e17146101ce575b600080fd5b6101236102af565b6040805160208082528351818301528351919283929083019185019080838360005b8381101561015d578181015183820152602001610145565b50505050905090810190601f16801561018a5780820380516001836020036101000a031916815260200191505b509250505060405180910390f35b6101a061033d565b60408051918252519081900360200190f35b6101ba610343565b604080519115158252519081900360200190f35b6101ba610351565b6101a0600480360360208110156101ec57600080fd5b503561035f565b6101a06004803603602081101561020957600080fd5b5035610367565b6101a06004803603602081101561022657600080fd5b503561036f565b6101a0610377565b6101ba61037d565b6101ba610386565b6101ba610399565b6101a06103ad565b6101a06103b3565b6101ba6103b9565b6101a06004803603602081101561027b57600080fd5b50356103c2565b6101a06103ca565b6101a0600480360360208110156102a057600080fd5b50356103d0565b6101a0610414565b6004805460408051602060026001851615610100026000190190941693909304601f810184900484028201840190925281815292918301828280156103355780601f1061030a57610100808354040283529160200191610335565b820191906000526020600020905b81548152906001019060200180831161031857829003601f168201915b505050505081565b60035481565b600654610100900460ff1690565b600654610100900460ff1681565b600581905590565b600081905590565b600181905590565b60015481565b60065460ff1690565b6006805460ff1916600190811790915590565b6006805461ff001916610100179055600190565b60055481565b60005481565b60065460ff1681565b600281905590565b60055490565b60058190556040805182815290516000917f7da274c7907a6e3fe48918a914c8a93c400713daffcd99eaa4a9ae6e99322204919081900360200190a1505060055490565b6002548156fea265627a7a72315820b1b9a886054b8fdeff770f8b0fb1868c94dc59d229768b35dcb5a92ff9789bac64736f6c634300050b0032a365627a7a72315820be7e69d2eb6800af7643e0cb75a8ebb069ef70dea3bcd34997b43956a37bc53b6c6578706572696d656e74616cf564736f6c634300050b0040",
  "source": "pragma solidity ^0.5.0;\npragma experimental ABIEncoderV2;\nimport \"./SafeMath.sol\";\nimport \"./ServiceClaim.sol\";\ncontract Organizations {\n    uint admin;\n    uint256 claimId; //Max value of the number of claims made\n    uint storedData; //Miscellaneous data\n    mapping (bytes32=>Patient) public patientMap; //ID of patient to specific provider -\n    mapping (bytes32=>Provider) public providerMap; //ID of provider to specific provider -\n    mapping (bytes32=>Insurer) public insurerMap; //ID of insurance provider to specific insurer\n    mapping (bytes32=>address) public serviceClaimsMap; //ID of serviceClaim to the specific ServiceClaim contract instance\n    mapping (address=>string) public serviceName;\n    //Events for organization creation    event ServiceCreated(address serviceClaimAddr);\n    event SCID(bytes32 ID, address addr);\n    event ClaimCreated(uint256 id, uint256 amount);\n    event ClaimVerified(address addr);\n    event PatientCreated(bytes32 id, string name);\n    event ProviderCreated(bytes32 id, string name);\n    event InsurerCreated(bytes32 id, string name);\n    event PatientRetrieval(Patient patient);\n    event ProviderRetrieval(Provider provider);\n    event ServiceClaimInfo(\n        address addr, string patientname, string providername, string claimname, bytes32 id, bytes32 provider, bytes32 patient, uint256 amount, bool verified, bool payed);\n    //event patientList(Patient[] patients);\n    //event providerList(Provider[] providers);\n    //event insurerList(Insurer[] insurers);\n    event idList(bytes32[] ids);\n    event serviceList(address[] services);\n    event SCName(string name);\n    event SCEvent(SC);\n    struct SC {\n        address scAddr;\n        bytes32 id;\n        bytes32 insurerID;\n        bytes32 providerID;\n        bytes32 patientID;\n        string name;\n        uint256 amount;\n        bool verified;\n        bool paid;\n    }\n    bytes32 globalInsurerID;\n  \n    SC[] scs;\n    mapping (address=>string) SCMap;\n    address[] SCList;\n    bytes32[] patientList;\n    bytes32[] providerList;\n    bytes32[] insurerList;\n    bytes32[] claimList;\n\n    struct Patient {\n        bytes32 id;\n        string name;\n        //mapping (address=>string) SCMap;\n        address[] unclaimedServices;\n        address[] unverifiedClaims;\n        address[] verifiedClaims;\n    }\n    struct Provider {\n        bytes32 id;\n        string name;\n        bytes32[] patients;\n    }\n    struct Insurer {\n        bytes32 id;\n        string name;\n        bytes32[] providers;\n    }\n    constructor() public {\n        preLoadInfo();\n    }\n    function preLoadInfo() public{\n        bytes32 insurerID = addInsurer(\"CMS\");\n        bytes32 providerID = addProvider(\"UCSD Medical\", insurerID);\n        addPatient(\"Ken\", providerID);\n        addPatient(\"Danny\", providerID);\n        addPatient(\"Antonio\", providerID);\n    }\n    // ------------------------------ Adds Users to Network --------------------------- //\n    /** @dev add a patient to the network\n    @param _name is the name of the patient\n    @param _providerID is the current provider of the patient\n    @return pID is a bytes32 represented id number for the patient\n    */\n    function addPatient(string memory _name, bytes32 _providerID) public returns(bytes32 pID) {\n        bytes32 id = keccak256(abi.encodePacked(_name));\n        address[] memory uServiceList;\n        address[] memory uClaimList;\n        address[] memory vClaimList;\n        Patient memory newPatient = Patient(id, _name, uServiceList, uClaimList, vClaimList);\n        //bytes32 patientHash = keccak256(abi.encodePacked(newPatient));\n        patientMap[id] = newPatient;\n        patientList.push(id);\n        providerMap[_providerID].patients.push(newPatient.id);\n        emit PatientCreated(id, _name);\n        return id;\n    }\n    function getPatients() public view returns(bytes32[] memory nice) {\n        return patientList;\n    }\n    /** @dev add a provider to the network\n    @param _name name of the provider\n    @param _insurerID id of insurance provider\n    @return the pID of the health provider -\n     */\n    function addProvider(string memory _name, bytes32 _insurerID) public returns(bytes32 pID) {\n        bytes32 id = keccak256(abi.encodePacked(_name));\n        bytes32[] memory emptyList;\n        Provider memory newProvider = Provider(id, _name, emptyList);\n        //bytes32 providerHash = keccak256(abi.encodePacked(newProvider));\n        providerMap[id] = newProvider;\n        insurerMap[_insurerID].providers.push(newProvider.id);\n        providerList.push(id);\n        emit ProviderCreated(id, _name);\n        return id;\n    }\n    function getProviders() public view returns(bytes32[] memory nice) {\n        return providerList;\n    }\n    /** @dev add an insurnace provider to the network\n    @param _name the name of the insurance provider\n    @return pID of the insurance provider\n    */\n    function addInsurer(string memory _name) public returns(bytes32 pID) {\n        bytes32 id = keccak256(abi.encodePacked(_name));\n        bytes32[] memory emptyList;\n        Insurer memory newInsurer = Insurer(id, _name, emptyList);\n        //bytes32 insurerHash = keccak256(abi.encodePacked(newInsurer));\n        insurerMap[id] = newInsurer;\n        insurerList.push(id);\n        emit InsurerCreated(id, _name);\n        return id;\n    }\n    function getInsurers() public view returns(bytes32[] memory nice) {\n        return insurerList;\n    }\n    // ------------------------------ Functionality of the Network --------------------------- //\n    /** @dev create an instance of a ServiceClaim contract\n    @param _name name of the service\n    @param _providerID provider ID\n    @param _patientID patient ID\n    @return serviceContractHash is the id of the ServiceClaim contract\n    */\n    function provideService(string memory _name, bytes32 _providerID, bytes32 _patientID) public returns(bytes32 serviceContractHash) {\n        bytes32 id = keccak256(abi.encodePacked(_name, _providerID, _patientID));\n        ServiceClaim serviceClaim = new ServiceClaim(_providerID, _patientID, id, _name);\n        bytes32 serviceClaimID = keccak256(abi.encodePacked(address(serviceClaim)));\n        SC memory scObj = SC(address(serviceClaim), serviceClaimID, globalInsurerID, _providerID, _patientID, _name, 0, false, false);\n        scs.push(scObj);\n        serviceClaimsMap[serviceClaimID] = address(serviceClaim);\n        Patient storage patient = patientMap[_patientID];\n        //patient.unverifiedClaims.push(address(serviceClaim));\n        //SC memory newSC = SC(_name, address(serviceClaim));\n        patient.unclaimedServices.push(address(serviceClaim));\n        serviceName[address(serviceClaim)] = _name;\n        SCMap[address(serviceClaim)] = _name;\n        SCList.push(address(serviceClaim));\n        emit SCID(serviceClaimID, address(serviceClaim));\n        return serviceClaimID;\n    }\n    /** @dev add a claim to a ServiceClaim contract i.e. the provider wants to file a claim for a service rendered\n    @param _serviceClaimID the ID of the ServiceClaim contract\n    @param _amount the amount to be claimed by the provider\n    @return ClaimID the ID of the claim\n    */\n    function fileClaim(bytes32 _serviceClaimID, uint256 _amount) public returns(uint256 ClaimID) {\n        //Patient storage cPatient = patientMap[_patient];\n        ServiceClaim myServiceClaim = ServiceClaim(serviceClaimsMap[_serviceClaimID]);\n        uint256 newClaimID = myServiceClaim.fileClaim(_amount);\n        bytes32 patID = myServiceClaim.patientID();\n        Patient storage cP = patientMap[patID];\n        claimList.push(_serviceClaimID);\n        for(uint i = 0; i < cP.unclaimedServices.length; i++){\n            if(cP.unclaimedServices[i] == address(myServiceClaim)){\n                delete(cP.unclaimedServices[i]);\n                break;\n            }\n        }\n        // string memory name = myServiceClaim.name();\n        //SC memory newSC = SC(name, address(myServiceClaim));\n        cP.unverifiedClaims.push(address(myServiceClaim));\n        emit ClaimCreated(newClaimID, _amount);\n        //emit SCEvent(newSC);\n        return newClaimID;\n    }\n \n    /** @dev invoke the verifyClaim function in the ServiceClaim contract\n    @param _serviceClaimID the id of the ServiceClaim contract\n    */\n    /** @dev invoke the verifyClaim function in the ServiceClaim contract\n    @param _serviceClaimAddress the address of the ServiceClaim contract\n    */\n    function verifyClaim(address _serviceClaimAddress) public {\n        ServiceClaim myServiceClaim = ServiceClaim(_serviceClaimAddress);\n        require(myServiceClaim.verifyClaim(), \"Claim was not Verified\");\n        // Add the claim address to verified list\n        // Delete the claim address from unverified list\n        bytes32 patID = myServiceClaim.patientID();\n        Patient storage cP = patientMap[patID];\n        for(uint i = 0; i < cP.unverifiedClaims.length; i++){\n            if(cP.unverifiedClaims[i] == address(myServiceClaim)){\n                delete(cP.unverifiedClaims[i]);\n                break;\n            }\n        }\n        //string memory name = myServiceClaim.name();\n        //SC memory newSC = SC(name, address(myServiceClaim));\n        cP.verifiedClaims.push(address(myServiceClaim));\n        emit ClaimVerified(_serviceClaimAddress);\n    }\n    /** @dev invoke the payProvider function in the ServiceClaim contract\n    @param _serviceClaimID the id of the ServiceClaim contract\n    */\n    function payProvider(bytes32 _serviceClaimID) public {\n        //require(_serviceClaim.claim().verified == true, \"User has not verified service\");\n        ServiceClaim myServiceClaim = ServiceClaim(serviceClaimsMap[_serviceClaimID]);\n        myServiceClaim.payProvider();\n    }\n    // ------------------------------ Getters of Network Data --------------------------- //\n    function patientsOfProvider(bytes32 _id) public returns (bytes32[] memory) {\n        Provider storage cP = providerMap[_id];\n        emit idList(cP.patients);\n        return(cP.patients);\n    }\n    function providersOfInsurer(bytes32 _id) public returns (bytes32[] memory) {\n        Insurer storage cI = insurerMap[_id];\n        emit idList(cI.providers);\n        return(cI.providers);\n    }\n    function getPatient(bytes32 _id) public returns (bool){\n        Patient memory patient = patientMap[_id];\n        emit PatientRetrieval(patient);\n        return true;\n    }\n    function getProvider(bytes32 _id) public returns (Provider memory){\n        Provider memory provider = providerMap[_id];\n        emit ProviderRetrieval(provider);\n        return providerMap[_id];\n    }\n    function patientUnclaimedServices(bytes32 _id) public returns (address[] memory){\n        Patient storage cP = patientMap[_id];\n        emit serviceList(cP.unclaimedServices);\n        for(uint i = 0; i < cP.unclaimedServices.length; i++){\n            emit SCName(SCMap[cP.unclaimedServices[i]]);\n        }\n        return(cP.unclaimedServices);\n        // address[] memory a;\n        // return a;\n    }\n    function patientUnverifiedClaims(bytes32 _id) public returns (address[] memory){\n        Patient storage cP = patientMap[_id];\n        //bytes32[] memory claimNames = new bytes32[](cP.unverifiedClaims.length);\n        for(uint i = 0; i < cP.unverifiedClaims.length; i++){\n            emit SCName(SCMap[cP.unverifiedClaims[i]]);\n        }\n        emit serviceList(cP.unverifiedClaims);\n        return(cP.unverifiedClaims);\n        // address[] memory a;\n        // return a;\n    }\n    function patientVerifiedClaims(bytes32 _id) public returns (address[] memory){\n        Patient storage cP = patientMap[_id];\n        emit serviceList(cP.verifiedClaims);\n        for(uint i = 0; i < cP.verifiedClaims.length; i++){\n            emit SCName(SCMap[cP.verifiedClaims[i]]);\n        }\n        return(cP.verifiedClaims);\n        // address[] memory a;\n        // return a;\n    }\n    function setAdmin(uint _num) public {\n        admin = _num;\n    }\n    function getAdmin() public view returns (uint) {\n        return admin;\n    }\n    //   event ServiceClaimInfo(address addr, bytes32 id, bytes32 provider, bytes32 patient, uint256 amount, bool verified, bool payed);\n    function getAllServices() public {\n        for (uint i = 0; i < SCList.length; i++) {\n            ServiceClaim sc = ServiceClaim(SCList[i]);\n            string memory patientname = patientMap[sc.patientID()].name;\n            string memory providername = providerMap[sc.providerID()].name;\n            emit ServiceClaimInfo(\n                address(sc), patientname, providername, sc.name(), sc.serviceClaimID(), sc.providerID(), sc.patientID(), sc.amount(), sc.verified(), sc.paid());\n        }\n    }\n    function getAllVerifiedServices() public {\n        for (uint i = 0; i < SCList.length; i++) {\n            ServiceClaim sc = ServiceClaim(SCList[i]);\n            string memory patientname = patientMap[sc.patientID()].name;\n            string memory providername = providerMap[sc.providerID()].name;\n            if (sc.verified() == true) {\n                emit ServiceClaimInfo(address(sc), patientname, providername, sc.name(), sc.serviceClaimID(), sc.providerID(), sc.patientID(), sc.amount(), sc.verified(), sc.paid());\n            }\n        }\n    }\n    function getAllUnverifiedServices() public {\n        for (uint i = 0; i < SCList.length; i++) {\n            ServiceClaim sc = ServiceClaim(SCList[i]);\n            string memory patientname = patientMap[sc.patientID()].name;\n            string memory providername = providerMap[sc.providerID()].name;\n            if (sc.verified() == false) {\n                emit ServiceClaimInfo(address(sc), patientname, providername, sc.name(), sc.serviceClaimID(), sc.providerID(), sc.patientID(), sc.amount(), sc.verified(), sc.paid());\n            }\n        }\n    }\n}\n",
  "sourcePath": "/Users/danny/sdsc-blocklab/Medicare-Claim-Verification/contracts/Organizations.sol",
  "compiler": {
    "name": "solc",
    "version": "0.5.11+commit.c082d0b4.Emscripten.clang"
  },
  "schemaVersion": "3.0.16",
  "updatedAt": "2019-09-18T02:42:54.986Z",
  "devdoc": {
    "methods": {
      "addInsurer(string)": {
        "details": "add an insurnace provider to the network",
        "params": {
          "_name": "the name of the insurance provider"
        },
        "return": "pID of the insurance provider"
      },
      "addPatient(string,bytes32)": {
        "details": "add a patient to the network",
        "params": {
          "_name": "is the name of the patient",
          "_providerID": "is the current provider of the patient"
        },
        "return": "pID is a bytes32 represented id number for the patient"
      },
      "addProvider(string,bytes32)": {
        "details": "add a provider to the network",
        "params": {
          "_insurerID": "id of insurance provider",
          "_name": "name of the provider"
        },
        "return": "the pID of the health provider -"
      },
      "fileClaim(bytes32,uint256)": {
        "details": "add a claim to a ServiceClaim contract i.e. the provider wants to file a claim for a service rendered",
        "params": {
          "_amount": "the amount to be claimed by the provider",
          "_serviceClaimID": "the ID of the ServiceClaim contract"
        },
        "return": "ClaimID the ID of the claim"
      },
      "payProvider(bytes32)": {
        "details": "invoke the payProvider function in the ServiceClaim contract",
        "params": {
          "_serviceClaimID": "the id of the ServiceClaim contract"
        }
      },
      "provideService(string,bytes32,bytes32)": {
        "details": "create an instance of a ServiceClaim contract",
        "params": {
          "_name": "name of the service",
          "_patientID": "patient ID",
          "_providerID": "provider ID"
        },
        "return": "serviceContractHash is the id of the ServiceClaim contract"
      },
      "verifyClaim(address)": {
        "details": "invoke the verifyClaim function in the ServiceClaim contract",
        "params": {
          "_serviceClaimAddress": "the address of the ServiceClaim contract"
        }
      }
    }
  },
  "userdoc": {
    "methods": {}
  }
}