{
  "contractName": "Organizations",
  "abi": [
    {
      "inputs": [
        {
          "internalType": "address",
          "name": "_tokenAddr",
          "type": "address"
        }
      ],
      "payable": false,
      "stateMutability": "nonpayable",
      "type": "constructor"
    },
    {
      "anonymous": false,
      "inputs": [
        {
          "indexed": false,
          "internalType": "uint256",
          "name": "id",
          "type": "uint256"
        },
        {
          "indexed": false,
          "internalType": "uint256",
          "name": "amount",
          "type": "uint256"
        }
      ],
      "name": "ClaimCreated",
      "type": "event"
    },
    {
      "anonymous": false,
      "inputs": [
        {
          "indexed": false,
          "internalType": "address",
          "name": "addr",
          "type": "address"
        }
      ],
      "name": "ClaimVerified",
      "type": "event"
    },
    {
      "anonymous": false,
      "inputs": [
        {
          "indexed": false,
          "internalType": "bytes32",
          "name": "id",
          "type": "bytes32"
        },
        {
          "indexed": false,
          "internalType": "string",
          "name": "name",
          "type": "string"
        }
      ],
      "name": "InsurerCreated",
      "type": "event"
    },
    {
      "anonymous": false,
      "inputs": [
        {
          "indexed": false,
          "internalType": "bytes32",
          "name": "id",
          "type": "bytes32"
        },
        {
          "indexed": false,
          "internalType": "string",
          "name": "name",
          "type": "string"
        }
      ],
      "name": "PatientCreated",
      "type": "event"
    },
    {
      "anonymous": false,
      "inputs": [
        {
          "components": [
            {
              "internalType": "bytes32",
              "name": "id",
              "type": "bytes32"
            },
            {
              "internalType": "string",
              "name": "name",
              "type": "string"
            },
            {
              "internalType": "address[]",
              "name": "unclaimedServices",
              "type": "address[]"
            },
            {
              "internalType": "address[]",
              "name": "unverifiedClaims",
              "type": "address[]"
            },
            {
              "internalType": "address[]",
              "name": "verifiedClaims",
              "type": "address[]"
            },
            {
              "internalType": "uint256",
              "name": "token",
              "type": "uint256"
            }
          ],
          "indexed": false,
          "internalType": "struct Organizations.Patient",
          "name": "patient",
          "type": "tuple"
        }
      ],
      "name": "PatientRetrieval",
      "type": "event"
    },
    {
      "anonymous": false,
      "inputs": [
        {
          "indexed": false,
          "internalType": "bytes32",
          "name": "id",
          "type": "bytes32"
        },
        {
          "indexed": false,
          "internalType": "string",
          "name": "name",
          "type": "string"
        }
      ],
      "name": "ProviderCreated",
      "type": "event"
    },
    {
      "anonymous": false,
      "inputs": [
        {
          "components": [
            {
              "internalType": "bytes32",
              "name": "id",
              "type": "bytes32"
            },
            {
              "internalType": "string",
              "name": "name",
              "type": "string"
            },
            {
              "internalType": "bytes32[]",
              "name": "patients",
              "type": "bytes32[]"
            }
          ],
          "indexed": false,
          "internalType": "struct Organizations.Provider",
          "name": "provider",
          "type": "tuple"
        }
      ],
      "name": "ProviderRetrieval",
      "type": "event"
    },
    {
      "anonymous": false,
      "inputs": [
        {
          "components": [
            {
              "internalType": "address",
              "name": "scAddr",
              "type": "address"
            },
            {
              "internalType": "bytes32",
              "name": "id",
              "type": "bytes32"
            },
            {
              "internalType": "bytes32",
              "name": "insurerID",
              "type": "bytes32"
            },
            {
              "internalType": "bytes32",
              "name": "providerID",
              "type": "bytes32"
            },
            {
              "internalType": "bytes32",
              "name": "patientID",
              "type": "bytes32"
            },
            {
              "internalType": "string",
              "name": "name",
              "type": "string"
            },
            {
              "internalType": "uint256",
              "name": "amount",
              "type": "uint256"
            },
            {
              "internalType": "bool",
              "name": "verified",
              "type": "bool"
            },
            {
              "internalType": "bool",
              "name": "paid",
              "type": "bool"
            }
          ],
          "indexed": false,
          "internalType": "struct Organizations.SC",
          "name": "",
          "type": "tuple"
        }
      ],
      "name": "SCEvent",
      "type": "event"
    },
    {
      "anonymous": false,
      "inputs": [
        {
          "indexed": false,
          "internalType": "bytes32",
          "name": "ID",
          "type": "bytes32"
        },
        {
          "indexed": false,
          "internalType": "address",
          "name": "addr",
          "type": "address"
        }
      ],
      "name": "SCID",
      "type": "event"
    },
    {
      "anonymous": false,
      "inputs": [
        {
          "indexed": false,
          "internalType": "string",
          "name": "name",
          "type": "string"
        }
      ],
      "name": "SCName",
      "type": "event"
    },
    {
      "anonymous": false,
      "inputs": [
        {
          "indexed": false,
          "internalType": "address",
          "name": "addr",
          "type": "address"
        },
        {
          "indexed": false,
          "internalType": "string",
          "name": "patientname",
          "type": "string"
        },
        {
          "indexed": false,
          "internalType": "string",
          "name": "providername",
          "type": "string"
        },
        {
          "indexed": false,
          "internalType": "string",
          "name": "claimname",
          "type": "string"
        },
        {
          "indexed": false,
          "internalType": "bytes32",
          "name": "id",
          "type": "bytes32"
        },
        {
          "indexed": false,
          "internalType": "bytes32",
          "name": "provider",
          "type": "bytes32"
        },
        {
          "indexed": false,
          "internalType": "bytes32",
          "name": "patient",
          "type": "bytes32"
        },
        {
          "indexed": false,
          "internalType": "uint256",
          "name": "amount",
          "type": "uint256"
        },
        {
          "indexed": false,
          "internalType": "bool",
          "name": "confirmed",
          "type": "bool"
        },
        {
          "indexed": false,
          "internalType": "uint256",
          "name": "timeProvided",
          "type": "uint256"
        },
        {
          "indexed": false,
          "internalType": "uint256",
          "name": "timeFiled",
          "type": "uint256"
        },
        {
          "indexed": false,
          "internalType": "uint256",
          "name": "timeVerified",
          "type": "uint256"
        }
      ],
      "name": "ServiceClaimInfo",
      "type": "event"
    },
    {
      "anonymous": false,
      "inputs": [
        {
          "indexed": false,
          "internalType": "bytes32[]",
          "name": "ids",
          "type": "bytes32[]"
        }
      ],
      "name": "idList",
      "type": "event"
    },
    {
      "anonymous": false,
      "inputs": [
        {
          "indexed": false,
          "internalType": "address[]",
          "name": "services",
          "type": "address[]"
        }
      ],
      "name": "serviceList",
      "type": "event"
    },
    {
      "constant": true,
      "inputs": [
        {
          "internalType": "bytes32",
          "name": "",
          "type": "bytes32"
        }
      ],
      "name": "insurerMap",
      "outputs": [
        {
          "internalType": "bytes32",
          "name": "id",
          "type": "bytes32"
        },
        {
          "internalType": "string",
          "name": "name",
          "type": "string"
        },
        {
          "internalType": "uint256",
          "name": "token",
          "type": "uint256"
        }
      ],
      "payable": false,
      "stateMutability": "view",
      "type": "function"
    },
    {
      "constant": true,
      "inputs": [
        {
          "internalType": "bytes32",
          "name": "",
          "type": "bytes32"
        }
      ],
      "name": "patientMap",
      "outputs": [
        {
          "internalType": "bytes32",
          "name": "id",
          "type": "bytes32"
        },
        {
          "internalType": "string",
          "name": "name",
          "type": "string"
        },
        {
          "internalType": "uint256",
          "name": "token",
          "type": "uint256"
        }
      ],
      "payable": false,
      "stateMutability": "view",
      "type": "function"
    },
    {
      "constant": true,
      "inputs": [
        {
          "internalType": "bytes32",
          "name": "",
          "type": "bytes32"
        }
      ],
      "name": "providerMap",
      "outputs": [
        {
          "internalType": "bytes32",
          "name": "id",
          "type": "bytes32"
        },
        {
          "internalType": "string",
          "name": "name",
          "type": "string"
        }
      ],
      "payable": false,
      "stateMutability": "view",
      "type": "function"
    },
    {
      "constant": true,
      "inputs": [
        {
          "internalType": "bytes32",
          "name": "",
          "type": "bytes32"
        }
      ],
      "name": "serviceClaimsMap",
      "outputs": [
        {
          "internalType": "address",
          "name": "",
          "type": "address"
        }
      ],
      "payable": false,
      "stateMutability": "view",
      "type": "function"
    },
    {
      "constant": true,
      "inputs": [
        {
          "internalType": "address",
          "name": "",
          "type": "address"
        }
      ],
      "name": "serviceName",
      "outputs": [
        {
          "internalType": "string",
          "name": "",
          "type": "string"
        }
      ],
      "payable": false,
      "stateMutability": "view",
      "type": "function"
    },
    {
      "constant": true,
      "inputs": [],
      "name": "token",
      "outputs": [
        {
          "internalType": "contract AEECToken",
          "name": "",
          "type": "address"
        }
      ],
      "payable": false,
      "stateMutability": "view",
      "type": "function"
    }
  ],
  "bytecode": "0x608060405234801561001057600080fd5b5060405161078a38038061078a83398101604081905261002f916100c2565b600180546001600160a01b0319166001600160a01b038381169190911791829055604051634e6ec24760e01b8152911690634e6ec24790610079903090620f424090600401610100565b600060405180830381600087803b15801561009357600080fd5b505af11580156100a7573d6000803e3d6000fd5b5050505050610158565b80516100bc81610141565b92915050565b6000602082840312156100d457600080fd5b60006100e084846100b1565b949350505050565b6100f181610122565b82525050565b6100f181610136565b6040810161010e82856100e8565b61011b60208301846100f7565b9392505050565b60006001600160a01b0382166100bc565b90565b60006100bc82610133565b61014a81610122565b811461015557600080fd5b50565b610623806101676000396000f3fe608060405234801561001057600080fd5b50600436106100725760003560e01c806339160aa71161005057806339160aa7146100e157806392398fbb14610103578063fc0c546a1461011657610072565b80632470d25e146100775780632bde2a86146100a057806333fc83f7146100c1575b600080fd5b61008a61008536600461044d565b61012b565b60405161009791906104c4565b60405180910390f35b6100b36100ae36600461044d565b610153565b6040516100979291906104d2565b6100d46100cf366004610427565b6101fa565b604051610097919061052f565b6100f46100ef36600461044d565b610295565b604051610097939291906104f2565b6100f461011136600461044d565b610342565b61011e6103ef565b6040516100979190610521565b60076020526000908152604090205473ffffffffffffffffffffffffffffffffffffffff1681565b6005602090815260009182526040918290208054600180830180548651600293821615610100026000190190911692909204601f8101869004860283018601909652858252919492939092908301828280156101f05780601f106101c5576101008083540402835291602001916101f0565b820191906000526020600020905b8154815290600101906020018083116101d357829003601f168201915b5050505050905082565b60086020908152600091825260409182902080548351601f60026000196101006001861615020190931692909204918201849004840281018401909452808452909183018282801561028d5780601f106102625761010080835404028352916020019161028d565b820191906000526020600020905b81548152906001019060200180831161027057829003601f168201915b505050505081565b6006602090815260009182526040918290208054600180830180548651600293821615610100026000190190911692909204601f8101869004860283018601909652858252919492939092908301828280156103325780601f1061030757610100808354040283529160200191610332565b820191906000526020600020905b81548152906001019060200180831161031557829003601f168201915b5050505050908060030154905083565b6004602090815260009182526040918290208054600180830180548651600293821615610100026000190190911692909204601f8101869004860283018601909652858252919492939092908301828280156103df5780601f106103b4576101008083540402835291602001916103df565b820191906000526020600020905b8154815290600101906020018083116103c257829003601f168201915b5050505050908060050154905083565b60015473ffffffffffffffffffffffffffffffffffffffff1681565b8035610416816105c0565b92915050565b8035610416816105d7565b60006020828403121561043957600080fd5b6000610445848461040b565b949350505050565b60006020828403121561045f57600080fd5b6000610445848461041c565b61047481610554565b82525050565b6104748161055f565b6104748161057b565b600061049782610547565b6104a1818561054b565b93506104b1818560208601610586565b6104ba816105b6565b9093019392505050565b60208101610416828461046b565b604081016104e0828561047a565b8181036020830152610445818461048c565b60608101610500828661047a565b8181036020830152610512818561048c565b9050610445604083018461047a565b602081016104168284610483565b60208082528101610540818461048c565b9392505050565b5190565b90815260200190565b600061041682610562565b90565b73ffffffffffffffffffffffffffffffffffffffff1690565b600061041682610554565b60005b838110156105a1578181015183820152602001610589565b838111156105b0576000848401525b50505050565b601f01601f191690565b6105c981610554565b81146105d457600080fd5b50565b6105c98161055f56fea365627a7a72315820668a4e11def78eedbe9ff5fa674554ae700eb0b585de3b70c9a89a750a76c64c6c6578706572696d656e74616cf564736f6c63430005110040",
  "source": "pragma solidity ^0.5.0;\r\npragma experimental ABIEncoderV2;\r\n\r\nimport \"./SafeMath.sol\";\r\nimport \"./ServiceClaim.sol\";\r\nimport \"./AEECToken.sol\";\r\n\r\ncontract Organizations {\r\n    uint admin;\r\n\r\n    AEECToken public token;\r\n\r\n    uint256 claimId; //Max value of the number of claims made\r\n    uint storedData; //Miscellaneous data\r\n    mapping (bytes32=>Patient) public patientMap; //ID of patient to specific provider -\r\n    mapping (bytes32=>Provider) public providerMap; //ID of provider to specific provider -\r\n    mapping (bytes32=>Insurer) public insurerMap; //ID of insurance provider to specific insurer\r\n    mapping (bytes32=>address) public serviceClaimsMap; //ID of serviceClaim to the specific ServiceClaim contract instance\r\n    mapping (address=>string) public serviceName;\r\n    //Events for organization creation    event ServiceCreated(address serviceClaimAddr);\r\n    event SCID(bytes32 ID, address addr);\r\n    event ClaimCreated(uint256 id, uint256 amount);\r\n    event ClaimVerified(address addr);\r\n    event PatientCreated(bytes32 id, string name);\r\n    event ProviderCreated(bytes32 id, string name);\r\n    event InsurerCreated(bytes32 id, string name);\r\n    event PatientRetrieval(Patient patient);\r\n    event ProviderRetrieval(Provider provider);\r\n    event ServiceClaimInfo(\r\n        address addr, string patientname, string providername, string claimname, bytes32 id,\r\n        bytes32 provider, bytes32 patient, uint256 amount, bool confirmed, uint256 timeProvided, uint256 timeFiled, uint256 timeVerified);\r\n\r\n    event idList(bytes32[] ids);\r\n    event serviceList(address[] services);\r\n    event SCName(string name);\r\n    event SCEvent(SC);\r\n\r\n    struct SC {\r\n        address scAddr;\r\n        bytes32 id;\r\n        bytes32 insurerID;\r\n        bytes32 providerID;\r\n        bytes32 patientID;\r\n        string name;\r\n        uint256 amount;\r\n        bool verified;\r\n        bool paid;\r\n    }\r\n    bytes32 globalInsurerID;\r\n  \r\n    SC[] scs;\r\n    mapping (address=>string) SCMap;\r\n    address[] SCList;\r\n    bytes32[] patientList;\r\n    bytes32[] providerList;\r\n    bytes32[] insurerList;\r\n    bytes32[] claimList;\r\n\r\n\r\n    struct Patient {\r\n        bytes32 id;\r\n        string name;\r\n        //mapping (address=>string) SCMap;\r\n        address[] unclaimedServices;\r\n        address[] unverifiedClaims;\r\n        address[] verifiedClaims;\r\n        uint256 token;\r\n    }\r\n    struct Provider {\r\n        bytes32 id;\r\n        string name;\r\n        bytes32[] patients;\r\n    }\r\n    struct Insurer {\r\n        bytes32 id;\r\n        string name;\r\n        bytes32[] providers;\r\n        uint256 token;\r\n    }\r\n\r\n\r\n\r\n    constructor(address _tokenAddr) public {\r\n        //preLoadInfo();\r\n        token = AEECToken(_tokenAddr);\r\n        token._mint(address(this),1000000);\r\n    }\r\n}\r\n",
  "sourcePath": "C:\\Dev\\sdsc-blocklab\\Medicare-Claim-Verification\\contracts\\Organizations.sol",
  "compiler": {
    "name": "solc",
    "version": "0.5.17+commit.d19bba13.Emscripten.clang"
  },
  "schemaVersion": "3.2.0",
  "updatedAt": "2020-07-07T22:44:48.506Z",
  "networkType": "ethereum",
  "devdoc": {
    "methods": {}
  },
  "userdoc": {
    "methods": {}
  }
}