{
  "contractName": "Organizations",
  "abi": [
    {
      "constant": true,
      "inputs": [
        {
          "internalType": "bytes32",
          "name": "",
          "type": "bytes32"
        }
      ],
      "name": "serviceClaimsMap",
      "outputs": [
        {
          "internalType": "address",
          "name": "",
          "type": "address"
        }
      ],
      "payable": false,
      "stateMutability": "view",
      "type": "function"
    },
    {
      "constant": true,
      "inputs": [
        {
          "internalType": "bytes32",
          "name": "",
          "type": "bytes32"
        }
      ],
      "name": "providerMap",
      "outputs": [
        {
          "internalType": "bytes32",
          "name": "id",
          "type": "bytes32"
        },
        {
          "internalType": "string",
          "name": "name",
          "type": "string"
        }
      ],
      "payable": false,
      "stateMutability": "view",
      "type": "function"
    },
    {
      "constant": true,
      "inputs": [
        {
          "internalType": "bytes32",
          "name": "",
          "type": "bytes32"
        }
      ],
      "name": "insurerMap",
      "outputs": [
        {
          "internalType": "bytes32",
          "name": "id",
          "type": "bytes32"
        },
        {
          "internalType": "string",
          "name": "name",
          "type": "string"
        }
      ],
      "payable": false,
      "stateMutability": "view",
      "type": "function"
    },
    {
      "constant": true,
      "inputs": [
        {
          "internalType": "bytes32",
          "name": "",
          "type": "bytes32"
        }
      ],
      "name": "patientMap",
      "outputs": [
        {
          "internalType": "bytes32",
          "name": "id",
          "type": "bytes32"
        },
        {
          "internalType": "string",
          "name": "name",
          "type": "string"
        }
      ],
      "payable": false,
      "stateMutability": "view",
      "type": "function"
    },
    {
      "inputs": [],
      "payable": false,
      "stateMutability": "nonpayable",
      "type": "constructor"
    },
    {
      "anonymous": false,
      "inputs": [
        {
          "indexed": false,
          "internalType": "bytes32",
          "name": "ID",
          "type": "bytes32"
        },
        {
          "indexed": false,
          "internalType": "address",
          "name": "addr",
          "type": "address"
        }
      ],
      "name": "SCID",
      "type": "event"
    },
    {
      "anonymous": false,
      "inputs": [
        {
          "indexed": false,
          "internalType": "uint256",
          "name": "id",
          "type": "uint256"
        },
        {
          "indexed": false,
          "internalType": "uint256",
          "name": "amount",
          "type": "uint256"
        }
      ],
      "name": "ClaimCreated",
      "type": "event"
    },
    {
      "anonymous": false,
      "inputs": [
        {
          "indexed": false,
          "internalType": "bytes32",
          "name": "id",
          "type": "bytes32"
        },
        {
          "indexed": false,
          "internalType": "string",
          "name": "name",
          "type": "string"
        }
      ],
      "name": "PatientCreated",
      "type": "event"
    },
    {
      "anonymous": false,
      "inputs": [
        {
          "indexed": false,
          "internalType": "bytes32",
          "name": "id",
          "type": "bytes32"
        },
        {
          "indexed": false,
          "internalType": "string",
          "name": "name",
          "type": "string"
        }
      ],
      "name": "ProviderCreated",
      "type": "event"
    },
    {
      "anonymous": false,
      "inputs": [
        {
          "indexed": false,
          "internalType": "bytes32",
          "name": "id",
          "type": "bytes32"
        },
        {
          "indexed": false,
          "internalType": "string",
          "name": "name",
          "type": "string"
        }
      ],
      "name": "InsurerCreated",
      "type": "event"
    },
    {
      "anonymous": false,
      "inputs": [
        {
          "indexed": false,
          "internalType": "bytes32[]",
          "name": "ids",
          "type": "bytes32[]"
        }
      ],
      "name": "idList",
      "type": "event"
    },
    {
      "anonymous": false,
      "inputs": [
        {
          "indexed": false,
          "internalType": "address[]",
          "name": "services",
          "type": "address[]"
        }
      ],
      "name": "serviceList",
      "type": "event"
    },
    {
      "constant": false,
      "inputs": [],
      "name": "preLoadInfo",
      "outputs": [],
      "payable": false,
      "stateMutability": "nonpayable",
      "type": "function"
    },
    {
      "constant": false,
      "inputs": [
        {
          "internalType": "string",
          "name": "_name",
          "type": "string"
        },
        {
          "internalType": "bytes32",
          "name": "_providerID",
          "type": "bytes32"
        }
      ],
      "name": "addPatient",
      "outputs": [
        {
          "internalType": "bytes32",
          "name": "pID",
          "type": "bytes32"
        }
      ],
      "payable": false,
      "stateMutability": "nonpayable",
      "type": "function"
    },
    {
      "constant": false,
      "inputs": [
        {
          "internalType": "string",
          "name": "_name",
          "type": "string"
        },
        {
          "internalType": "bytes32",
          "name": "_insurerID",
          "type": "bytes32"
        }
      ],
      "name": "addProvider",
      "outputs": [
        {
          "internalType": "bytes32",
          "name": "pID",
          "type": "bytes32"
        }
      ],
      "payable": false,
      "stateMutability": "nonpayable",
      "type": "function"
    },
    {
      "constant": false,
      "inputs": [
        {
          "internalType": "string",
          "name": "_name",
          "type": "string"
        }
      ],
      "name": "addInsurer",
      "outputs": [
        {
          "internalType": "bytes32",
          "name": "pID",
          "type": "bytes32"
        }
      ],
      "payable": false,
      "stateMutability": "nonpayable",
      "type": "function"
    },
    {
      "constant": false,
      "inputs": [
        {
          "internalType": "string",
          "name": "_name",
          "type": "string"
        },
        {
          "internalType": "bytes32",
          "name": "_providerID",
          "type": "bytes32"
        },
        {
          "internalType": "bytes32",
          "name": "_patientID",
          "type": "bytes32"
        }
      ],
      "name": "provideService",
      "outputs": [
        {
          "internalType": "bytes32",
          "name": "serviceContractHash",
          "type": "bytes32"
        }
      ],
      "payable": false,
      "stateMutability": "nonpayable",
      "type": "function"
    },
    {
      "constant": false,
      "inputs": [
        {
          "internalType": "bytes32",
          "name": "_serviceClaimID",
          "type": "bytes32"
        },
        {
          "internalType": "uint256",
          "name": "_amount",
          "type": "uint256"
        }
      ],
      "name": "fileClaim",
      "outputs": [
        {
          "internalType": "uint256",
          "name": "ClaimID",
          "type": "uint256"
        }
      ],
      "payable": false,
      "stateMutability": "nonpayable",
      "type": "function"
    },
    {
      "constant": false,
      "inputs": [
        {
          "internalType": "bytes32",
          "name": "_serviceClaimID",
          "type": "bytes32"
        }
      ],
      "name": "verifyClaim",
      "outputs": [],
      "payable": false,
      "stateMutability": "nonpayable",
      "type": "function"
    },
    {
      "constant": false,
      "inputs": [
        {
          "internalType": "bytes32",
          "name": "_serviceClaimID",
          "type": "bytes32"
        }
      ],
      "name": "payProvider",
      "outputs": [],
      "payable": false,
      "stateMutability": "nonpayable",
      "type": "function"
    },
    {
      "constant": false,
      "inputs": [
        {
          "internalType": "bytes32",
          "name": "_id",
          "type": "bytes32"
        }
      ],
      "name": "patientsOfProvider",
      "outputs": [
        {
          "internalType": "bytes32[]",
          "name": "",
          "type": "bytes32[]"
        }
      ],
      "payable": false,
      "stateMutability": "nonpayable",
      "type": "function"
    },
    {
      "constant": false,
      "inputs": [
        {
          "internalType": "bytes32",
          "name": "_id",
          "type": "bytes32"
        }
      ],
      "name": "providersOfInsurer",
      "outputs": [
        {
          "internalType": "bytes32[]",
          "name": "",
          "type": "bytes32[]"
        }
      ],
      "payable": false,
      "stateMutability": "nonpayable",
      "type": "function"
    },
    {
      "constant": false,
      "inputs": [
        {
          "internalType": "bytes32",
          "name": "_id",
          "type": "bytes32"
        }
      ],
      "name": "patientUnverifiedServices",
      "outputs": [
        {
          "internalType": "address[]",
          "name": "",
          "type": "address[]"
        }
      ],
      "payable": false,
      "stateMutability": "nonpayable",
      "type": "function"
    },
    {
      "constant": false,
      "inputs": [
        {
          "internalType": "bytes32",
          "name": "_id",
          "type": "bytes32"
        }
      ],
      "name": "patientVerifiedServices",
      "outputs": [
        {
          "internalType": "address[]",
          "name": "",
          "type": "address[]"
        }
      ],
      "payable": false,
      "stateMutability": "nonpayable",
      "type": "function"
    },
    {
      "constant": false,
      "inputs": [
        {
          "internalType": "uint256",
          "name": "_num",
          "type": "uint256"
        }
      ],
      "name": "setAdmin",
      "outputs": [],
      "payable": false,
      "stateMutability": "nonpayable",
      "type": "function"
    },
    {
      "constant": true,
      "inputs": [],
      "name": "getAdmin",
      "outputs": [
        {
          "internalType": "uint256",
          "name": "",
          "type": "uint256"
        }
      ],
      "payable": false,
      "stateMutability": "view",
      "type": "function"
    }
  ],
  "bytecode": "0x60806040523480156200001157600080fd5b50620000256001600160e01b036200002b16565b620007b3565b6000620000736040518060400160405280600381526020017f434d530000000000000000000000000000000000000000000000000000000000815250620001a060201b60201c565b90506000620000be6040518060400160405280600c81526020017f55435344204d65646963616c0000000000000000000000000000000000000000815250836200028a60201b60201c565b9050620001076040518060400160405280600381526020017f4b656e000000000000000000000000000000000000000000000000000000000081525082620003a160201b60201c565b5060408051808201909152600581527f44616e6e7900000000000000000000000000000000000000000000000000000060208201526200015190826001600160e01b03620003a116565b5060408051808201909152600781527f416e746f6e696f0000000000000000000000000000000000000000000000000060208201526200019b90826001600160e01b03620003a116565b505050565b60008082604051602001620001b6919062000723565b6040516020818303038152906040528051906020012090506060620001da620004df565b506040805160608101825283815260208082018781528284018590526000868152600583529390932082518155925180519293849390926200022492600185019291019062000503565b50604082015180516200024291600284019160209091019062000588565b509050507ff73cee28a98c20f23a903356ab57dc8c514e66b0488c994b09dec06f978c839b83866040516200027992919062000738565b60405180910390a150909392505050565b60008083604051602001620002a0919062000723565b6040516020818303038152906040528051906020012090506060620002c4620004df565b506040805160608101825283815260208082018881528284018590526000868152600483529390932082518155925180519293849390926200030e92600185019291019062000503565b50604082015180516200032c91600284019160209091019062000588565b50505060008581526005602090815260408083208451600290910180546001810182559085529290932090910191909155517f7dd222c7de5c7ba42d121aa7e2acc9d5d4a47c2eb31f55385cf51cbe459c5c9b906200038f908590899062000738565b60405180910390a15090949350505050565b60008083604051602001620003b7919062000723565b604051602081830303815290604052805190602001209050606080620003dc620005c5565b50604080516080810182528481526020808201898152828401869052606083018590526000878152600383529390932082518155925180519293849390926200042d92600185019291019062000503565b50604082015180516200044b916002840191602090910190620005f0565b506060820151805162000469916003840191602090910190620005f0565b50505060008681526004602090815260408083208451600290910180546001810182559085529290932090910191909155517f86ec8adc6f97da0327b3e1dcc24fa25aea5eb7afcf6af08792e4b2d4d799fad890620004cc9086908a9062000738565b60405180910390a1509195945050505050565b60405180606001604052806000801916815260200160608152602001606081525090565b828054600181600116156101000203166002900490600052602060002090601f016020900481019282601f106200054657805160ff191683800117855562000576565b8280016001018555821562000576579182015b828111156200057657825182559160200191906001019062000559565b506200058492915062000656565b5090565b8280548282559060005260206000209081019282156200057657916020028201828111156200057657825182559160200191906001019062000559565b6040518060800160405280600080191681526020016060815260200160608152602001606081525090565b82805482825590600052602060002090810192821562000648579160200282015b828111156200064857825182546001600160a01b0319166001600160a01b0390911617825560209092019160019091019062000611565b506200058492915062000676565b6200067391905b808211156200058457600081556001016200065d565b90565b6200067391905b80821115620005845780546001600160a01b03191681556001016200067d565b620006a88162000673565b82525050565b6000620006bb8262000764565b620006c7818562000768565b9350620006d981856020860162000776565b620006e481620007a9565b9093019392505050565b6000620006fb8262000764565b62000707818562000771565b93506200071981856020860162000776565b9290920192915050565b6000620007318284620006ee565b9392505050565b604081016200074882856200069d565b81810360208301526200075c8184620006ae565b949350505050565b5190565b90815260200190565b919050565b60005b838110156200079357818101518382015260200162000779565b83811115620007a3576000848401525b50505050565b601f01601f191690565b611b0580620007c36000396000f3fe60806040523480156200001157600080fd5b5060043610620001305760003560e01c8063740044b411620000b1578063dd238925116200007b578063dd238925146200028e578063e0e87b1a14620002a5578063ebc3a05b14620002bc578063ee3d52b314620002e2578063ef5bff9e14620002f95762000130565b8063740044b4146200022357806392398fbb146200023a5780639c860b8a1462000251578063a46bfff914620002775762000130565b806339160aa711620000ff57806339160aa714620001ca5780633e7e072e14620001e15780633f1e172d14620001f857806340f1065314620002025780636e9960c314620002195762000130565b8063085683ff14620001355780632470d25e14620001645780632bde2a86146200018a57806335b7351014620001b1575b600080fd5b6200014c6200014636600462001195565b62000310565b6040516200015b919062001540565b60405180910390f35b6200017b62000175366004620010c2565b62000450565b6040516200015b9190620014e4565b620001a16200019b366004620010c2565b6200046b565b6040516200015b929190620015bb565b620001c8620001c2366004620010c2565b62000516565b005b620001a1620001db366004620010c2565b620005aa565b6200014c620001f23660046200115b565b6200061f565b620001c862000738565b6200014c62000213366004620010e3565b62000813565b6200014c620008f0565b6200014c620002343660046200115b565b620008f7565b620001a16200024b366004620010c2565b62000a35565b6200026862000262366004620010c2565b62000aaa565b6040516200015b91906200151a565b6200026862000288366004620010c2565b62000b57565b6200014c6200029f36600462001122565b62000b9f565b620001c8620002b6366004620010c2565b62000c89565b620002d3620002cd366004620010c2565b62000cdd565b6040516200015b9190620014f4565b620001c8620002f3366004620010c2565b62000d93565b620002d36200030a366004620010c2565b62000d98565b6000808484846040516020016200032a93929190620014ab565b604051602081830303815290604052805190602001209050600084848388604051620003569062000e4d565b6200036594939291906200156f565b604051809103906000f08015801562000382573d6000803e3d6000fd5b5090506000816040516020016200039a919062001486565b60408051601f19818403018152828252805160209182012060008181526006835283812080546001600160a01b0389166001600160a01b031991821681179092558b835260038552948220600281018054600181018255908452949092209093018054909416909217909255909250907f2cdb195d7226065901c0e37d742237ac3e30d6dc0ce7faf49701f6ec9f0bd1ed906200043b908490869062001550565b60405180910390a150925050505b9392505050565b6006602052600090815260409020546001600160a01b031681565b6004602090815260009182526040918290208054600180830180548651600293821615610100026000190190911692909204601f8101869004860283018601909652858252919492939092908301828280156200050c5780601f10620004e0576101008083540402835291602001916200050c565b820191906000526020600020905b815481529060010190602001808311620004ee57829003601f168201915b5050505050905082565b600081815260066020908152604080832054815163844cdf0960e01b815291516001600160a01b0390911693849363844cdf09936004808201949293918390030190829087803b1580156200056a57600080fd5b505af11580156200057f573d6000803e3d6000fd5b505050506040513d601f19601f82011682018060405250620005a5919081019062001099565b505050565b6005602090815260009182526040918290208054600180830180548651600293821615610100026000190190911692909204601f8101869004860283018601909652858252919492939092908301828280156200050c5780601f10620004e0576101008083540402835291602001916200050c565b600080836040516020016200063591906200149d565b60405160208183030381529060405280519060200120905060606200065962000e5b565b50604080516060810182528381526020808201888152828401859052600086815260048352939093208251815592518051929384939092620006a392600185019291019062000e7f565b5060408201518051620006c191600284019160209091019062000f04565b50505060008581526005602090815260408083208451600290910180546001810182559085529290932090910191909155517f7dd222c7de5c7ba42d121aa7e2acc9d5d4a47c2eb31f55385cf51cbe459c5c9b90620007249085908990620015bb565b60405180910390a150909150505b92915050565b60006200076060405180604001604052806003815260200162434d5360e81b81525062000b9f565b90506000620007946040518060400160405280600c81526020016b1550d4d1081359591a58d85b60a21b815250836200061f565b9050620007bd6040518060400160405280600381526020016225b2b760e91b81525082620008f7565b50620007e76040518060400160405280600581526020016444616e6e7960d81b81525082620008f7565b50620005a560405180604001604052806007815260200166416e746f6e696f60c81b81525082620008f7565b60008281526006602052604080822054905163d61909f960e01b81526001600160a01b03909116908290829063d61909f9906200085590879060040162001540565b602060405180830381600087803b1580156200087057600080fd5b505af115801562000885573d6000803e3d6000fd5b505050506040513d601f19601f82011682018060405250620008ab919081019062001201565b90507f96e3875898071e5d91932eb150a3914f9fe70e473f6faeaad697e99a48937c9c8185604051620008e0929190620015df565b60405180910390a1949350505050565b6000545b90565b600080836040516020016200090d91906200149d565b6040516020818303038152906040528051906020012090506060806200093262000f41565b50604080516080810182528481526020808201898152828401869052606083018590526000878152600383529390932082518155925180519293849390926200098392600185019291019062000e7f565b5060408201518051620009a191600284019160209091019062000f6c565b5060608201518051620009bf91600384019160209091019062000f6c565b50505060008681526004602090815260408083208451600290910180546001810182559085529290932090910191909155517f86ec8adc6f97da0327b3e1dcc24fa25aea5eb7afcf6af08792e4b2d4d799fad89062000a229086908a90620015bb565b60405180910390a1509195945050505050565b6003602090815260009182526040918290208054600180830180548651600293821615610100026000190190911692909204601f8101869004860283018601909652858252919492939092908301828280156200050c5780601f10620004e0576101008083540402835291602001916200050c565b600081815260056020526040908190209051606091907f1c7aaf504355c6134470b4070ca50bf276d45d0205aa86ef6bd15c684ae710c49062000af29060028401906200152d565b60405180910390a18060020180548060200260200160405190810160405280929190818152602001828054801562000b4a57602002820191906000526020600020905b81548152602001906001019080831162000b35575b5050505050915050919050565b600081815260046020526040908190209051606091907f1c7aaf504355c6134470b4070ca50bf276d45d0205aa86ef6bd15c684ae710c49062000af29060028401906200152d565b6000808260405160200162000bb591906200149d565b604051602081830303815290604052805190602001209050606062000bd962000e5b565b5060408051606081018252838152602080820187815282840185905260008681526005835293909320825181559251805192938493909262000c2392600185019291019062000e7f565b506040820151805162000c4191600284019160209091019062000f04565b509050507ff73cee28a98c20f23a903356ab57dc8c514e66b0488c994b09dec06f978c839b838660405162000c78929190620015bb565b60405180910390a150909392505050565b60008181526006602090815260408083205481516398d6a37360e01b815291516001600160a01b039091169384936398d6a373936004808201949293918390030190829087803b1580156200056a57600080fd5b6000818152600360208190526040918290209151606092917fa1c275d9147cd4bbf3a6fc6b01df2bdad7272d62a5bea8ea5f90e20e7c3f48e99162000d259184019062001507565b60405180910390a18060030180548060200260200160405190810160405280929190818152602001828054801562000b4a57602002820191906000526020600020905b81546001600160a01b0316815260019091019060200180831162000d68575050505050915050919050565b600055565b600081815260036020526040908190209051606091907fa1c275d9147cd4bbf3a6fc6b01df2bdad7272d62a5bea8ea5f90e20e7c3f48e99062000de090600284019062001507565b60405180910390a18060020180548060200260200160405190810160405280929190818152602001828054801562000b4a576020028201919060005260206000209081546001600160a01b0316815260019091019060200180831162000d68575050505050915050919050565b61035b806200176883390190565b60405180606001604052806000801916815260200160608152602001606081525090565b828054600181600116156101000203166002900490600052602060002090601f016020900481019282601f1062000ec257805160ff191683800117855562000ef2565b8280016001018555821562000ef2579182015b8281111562000ef257825182559160200191906001019062000ed5565b5062000f0092915062000fd2565b5090565b82805482825590600052602060002090810192821562000ef2579160200282018281111562000ef257825182559160200191906001019062000ed5565b6040518060800160405280600080191681526020016060815260200160608152602001606081525090565b82805482825590600052602060002090810192821562000fc4579160200282015b8281111562000fc457825182546001600160a01b0319166001600160a01b0390911617825560209092019160019091019062000f8d565b5062000f0092915062000fef565b620008f491905b8082111562000f00576000815560010162000fd9565b620008f491905b8082111562000f005780546001600160a01b031916815560010162000ff6565b8051620007328162001742565b803562000732816200175c565b600082601f8301126200104257600080fd5b813562001059620010538262001626565b620015fe565b915080825260208301602083018583830111156200107657600080fd5b620010838382846200169b565b50505092915050565b805162000732816200175c565b600060208284031215620010ac57600080fd5b6000620010ba848462001016565b949350505050565b600060208284031215620010d557600080fd5b6000620010ba848462001023565b60008060408385031215620010f757600080fd5b600062001105858562001023565b9250506020620011188582860162001023565b9150509250929050565b6000602082840312156200113557600080fd5b813567ffffffffffffffff8111156200114d57600080fd5b620010ba8482850162001030565b600080604083850312156200116f57600080fd5b823567ffffffffffffffff8111156200118757600080fd5b620011058582860162001030565b600080600060608486031215620011ab57600080fd5b833567ffffffffffffffff811115620011c357600080fd5b620011d18682870162001030565b9350506020620011e48682870162001023565b9250506040620011f78682870162001023565b9150509250925092565b6000602082840312156200121457600080fd5b6000620010ba84846200108c565b600062001230838362001246565b505060200190565b6000620012308383620013f1565b620012518162001689565b82525050565b62001251620012668262001689565b62001702565b6000620012798262001661565b6200128581856200166f565b935062001292836200164f565b8060005b83811015620012c6578151620012ad888262001222565b9750620012ba836200164f565b92505060010162001296565b509495945050505050565b6000620012de8262001665565b620012ea81856200166f565b9350620012f78362001655565b8060005b83811015620012c6576200130f8262001716565b6200131b888262001222565b9750620013288362001669565b925050600101620012fb565b6000620013418262001661565b6200134d81856200166f565b93506200135a836200164f565b8060005b83811015620012c657815162001375888262001238565b975062001382836200164f565b9250506001016200135e565b60006200139b8262001665565b620013a781856200166f565b9350620013b48362001655565b8060005b83811015620012c657620013cc8262001724565b620013d8888262001238565b9750620013e58362001669565b925050600101620013b8565b6200125181620008f4565b620012516200140b82620008f4565b620008f4565b60006200141e8262001661565b6200142a81856200166f565b93506200143c818560208601620016a7565b620014478162001732565b9093019392505050565b60006200145e8262001661565b6200146a818562001678565b93506200147c818560208601620016a7565b9290920192915050565b600062001494828462001257565b50601401919050565b600062000449828462001451565b6000620014b9828662001451565b9150620014c78285620013fc565b602082019150620014d98284620013fc565b506020019392505050565b6020810162000732828462001246565b602080825281016200044981846200126c565b60208082528101620004498184620012d1565b6020808252810162000449818462001334565b602080825281016200044981846200138e565b60208101620007328284620013f1565b60408101620015608285620013f1565b62000449602083018462001246565b608081016200157f8287620013f1565b6200158e6020830186620013f1565b6200159d6040830185620013f1565b8181036060830152620015b1818462001411565b9695505050505050565b60408101620015cb8285620013f1565b8181036020830152620010ba818462001411565b60408101620015ef8285620013f1565b620004496020830184620013f1565b60405181810167ffffffffffffffff811182821017156200161e57600080fd5b604052919050565b600067ffffffffffffffff8211156200163e57600080fd5b506020601f91909101601f19160190565b60200190565b60009081526020902090565b5190565b5490565b60010190565b90815260200190565b919050565b6001600160a01b031690565b600062000732826200167d565b151590565b82818337506000910152565b60005b83811015620016c4578181015183820152602001620016aa565b83811115620016d4576000848401525b50505050565b600062000732620016eb83620008f4565b6200167d565b6000620007326200140b83620008f4565b60006200073282600062000732826200173c565b6000620007328254620016da565b6000620007328254620016f1565b601f01601f191690565b60601b90565b6200174d8162001696565b81146200175957600080fd5b50565b6200174d81620008f456fe608060405234801561001057600080fd5b5060405161035b38038061035b8339818101604052608081101561003357600080fd5b81516020830151604080850151606086018051925194969395919493918201928464010000000082111561006657600080fd5b90830190602082018581111561007b57600080fd5b825164010000000081118282018810171561009557600080fd5b82525081516020918201929091019080838360005b838110156100c25781810151838201526020016100aa565b50505050905090810190601f1680156100ef5780820380516001836020036101000a031916815260200191505b506040525050506001849055600283905560038290558051610118906004906020840190610122565b50505050506101bd565b828054600181600116156101000203166002900490600052602060002090601f016020900481019282601f1061016357805160ff1916838001178555610190565b82800160010185558215610190579182015b82811115610190578251825591602001919060010190610175565b5061019c9291506101a0565b5090565b6101ba91905b8082111561019c57600081556001016101a6565b90565b61018f806101cc6000396000f3fe608060405234801561001057600080fd5b50600436106100625760003560e01c8063209ebc081461006757806380007e8314610083578063844cdf091461008b57806398d6a37314610093578063d321fe291461009b578063d61909f9146100b5575b600080fd5b61006f6100d2565b604080519115158252519081900360200190f35b61006f6100e0565b61006f6100e9565b61006f6100fc565b6100a3610110565b60408051918252519081900360200190f35b6100a3600480360360208110156100cb57600080fd5b5035610116565b600654610100900460ff1690565b60065460ff1690565b6006805460ff1916600190811790915590565b6006805461ff001916610100179055600190565b60055490565b60058190556040805182815290516000917f7da274c7907a6e3fe48918a914c8a93c400713daffcd99eaa4a9ae6e99322204919081900360200190a150506005549056fea265627a7a72315820cdcc1e8fad5e540780b4604abf05ab2cbb71e1639726c7f38b08228e8535745264736f6c634300050b0032a365627a7a723158204d9f172357fb87bb1dcb8859f85d402502b42de629e3eb931202ee23920121046c6578706572696d656e74616cf564736f6c634300050b0040",
  "source": "pragma solidity ^0.5.0;\npragma experimental ABIEncoderV2;\n\n\nimport \"./SafeMath.sol\";\nimport \"./ServiceClaim.sol\";\n\ncontract Organizations {\n\n    uint admin;\n\n\n    uint256 claimId; //Max value of the number of claims made\n    uint storedData; //Miscellaneous data\n\n    mapping (bytes32=>Patient) public patientMap; //ID of patient to specific provider -\n    mapping (bytes32=>Provider) public providerMap; //ID of provider to specific provider -\n    mapping (bytes32=>Insurer) public insurerMap; //ID of insurance provider to specific insurer\n    mapping (bytes32=>address) public serviceClaimsMap; //ID of serviceClaim to the specific ServiceClaim contract instance\n\n    //Events for organization creation    event ServiceCreated(address serviceClaimAddr);\n    event SCID(bytes32 ID, address addr);\n    event ClaimCreated(uint256 id, uint256 amount);\n    event PatientCreated(bytes32 id, string name);\n    event ProviderCreated(bytes32 id, string name);\n    event InsurerCreated(bytes32 id, string name);\n\n\n    //event patientList(Patient[] patients);\n    //event providerList(Provider[] providers);\n    //event insurerList(Insurer[] insurers);\n\n    event idList(bytes32[] ids);\n    event serviceList(address[] services);\n\n    struct Patient {\n        bytes32 id;\n        string name;\n        address[] unverifiedClaims;\n        address[] verifiedClaims;\n    }\n\n    struct Provider {\n        bytes32 id;\n        string name;\n        bytes32[] patients;\n    }\n\n    struct Insurer {\n        bytes32 id;\n        string name;\n        bytes32[] providers;\n    }\n\n\n\n    constructor() public {\n        preLoadInfo();\n    }\n\n\n    function preLoadInfo() public{\n        bytes32 insurerID = addInsurer(\"CMS\");\n        bytes32 providerID = addProvider(\"UCSD Medical\", insurerID);\n        addPatient(\"Ken\", providerID);\n        addPatient(\"Danny\", providerID);\n        addPatient(\"Antonio\", providerID);\n    }\n    // ------------------------------ Adds Users to Network --------------------------- //\n\n    /** @dev add a patient to the network\n    @param _name is the name of the patient\n    @param _providerID is the current provider of the patient\n    @return pID is a bytes32 represented id number for the patient\n    */\n    function addPatient(string memory _name, bytes32 _providerID) public returns(bytes32 pID) {\n        bytes32 id = keccak256(abi.encodePacked(_name));\n        address[] memory uClaimList;\n        address[] memory vClaimList;\n        Patient memory newPatient = Patient(id, _name, uClaimList, vClaimList);\n        //bytes32 patientHash = keccak256(abi.encodePacked(newPatient));\n        patientMap[id] = newPatient;\n        providerMap[_providerID].patients.push(newPatient.id);\n        emit PatientCreated(id, _name);\n        return id;\n    }\n\n    /** @dev add a provider to the network\n    @param _name name of the provider\n    @param _insurerID id of insurance provider\n    @return the pID of the health provider -\n     */\n    function addProvider(string memory _name, bytes32 _insurerID) public returns(bytes32 pID) {\n        bytes32 id = keccak256(abi.encodePacked(_name));\n        bytes32[] memory emptyList;\n        Provider memory newProvider = Provider(id, _name, emptyList);\n        //bytes32 providerHash = keccak256(abi.encodePacked(newProvider));\n        providerMap[id] = newProvider;\n        insurerMap[_insurerID].providers.push(newProvider.id);\n        emit ProviderCreated(id, _name);\n        return id;\n    }\n\n    /** @dev add an insurnace provider to the network\n    @param _name the name of the insurance provider\n    @return pID of the insurance provider\n    */\n    function addInsurer(string memory _name) public returns(bytes32 pID) {\n        bytes32 id = keccak256(abi.encodePacked(_name));\n        bytes32[] memory emptyList;\n        Insurer memory newInsurer = Insurer(id, _name, emptyList);\n        //bytes32 insurerHash = keccak256(abi.encodePacked(newInsurer));\n        insurerMap[id] = newInsurer;\n        emit InsurerCreated(id, _name);\n        return id;\n    }\n\n    // ------------------------------ Functionality of the Network --------------------------- //\n\n    /** @dev create an instance of a ServiceClaim contract\n    @param _name name of the service\n    @param _providerID provider ID\n    @param _patientID patient ID\n    @return serviceContractHash is the id of the ServiceClaim contract\n    */\n    function provideService(string memory _name, bytes32 _providerID, bytes32 _patientID) public returns(bytes32 serviceContractHash) {\n        bytes32 id = keccak256(abi.encodePacked(_name, _providerID, _patientID));\n        ServiceClaim serviceClaim = new ServiceClaim(_providerID, _patientID, id, _name);\n        bytes32 serviceClaimID = keccak256(abi.encodePacked(address(serviceClaim)));\n        serviceClaimsMap[serviceClaimID] = address(serviceClaim);\n        Patient storage patient = patientMap[_patientID];\n        patient.unverifiedClaims.push(address(serviceClaim));\n        emit SCID(serviceClaimID, address(serviceClaim));\n        return serviceClaimID;\n    }\n\n    /** @dev add a claim to a ServiceClaim contract i.e. the provider wants to file a claim for a service rendered\n    @param _serviceClaimID the ID of the ServiceClaim contract\n    @param _amount the amount to be claimed by the provider\n    @return ClaimID the ID of the claim\n    */\n    function fileClaim(bytes32 _serviceClaimID, uint256 _amount) public returns(uint256 ClaimID) {\n        //Patient storage cPatient = patientMap[_patient];\n        ServiceClaim myServiceClaim = ServiceClaim(serviceClaimsMap[_serviceClaimID]);\n        uint256 newClaimID = myServiceClaim.fileClaim(_amount);\n        emit ClaimCreated(newClaimID, _amount);\n        return newClaimID;\n    }\n\n    \n    /** @dev invoke the verifyClaim function in the ServiceClaim contract\n    @param _serviceClaimID the id of the ServiceClaim contract\n    */\n    function verifyClaim(bytes32 _serviceClaimID) public {\n        ServiceClaim myServiceClaim = ServiceClaim(serviceClaimsMap[_serviceClaimID]);\n        myServiceClaim.verifyClaim();\n    }\n\n    /** @dev invoke the payProvider function in the ServiceClaim contract\n    @param _serviceClaimID the id of the ServiceClaim contract\n    */\n    function payProvider(bytes32 _serviceClaimID) public {\n        //require(_serviceClaim.claim().verified == true, \"User has not verified service\");\n        ServiceClaim myServiceClaim = ServiceClaim(serviceClaimsMap[_serviceClaimID]);\n        myServiceClaim.payProvider();\n    }\n\n\n\n    // ------------------------------ Getters of Network Data --------------------------- //\n\n\n    function patientsOfProvider(bytes32 _id) public returns (bytes32[] memory) {\n        Provider storage cP = providerMap[_id];\n        emit idList(cP.patients);\n        return(cP.patients);\n    }\n\n    function providersOfInsurer(bytes32 _id) public returns (bytes32[] memory) {\n        Insurer storage cI = insurerMap[_id];\n        emit idList(cI.providers);\n        return(cI.providers);\n    }\n\n\n\n\n    function patientUnverifiedServices(bytes32 _id) public returns (address[] memory){\n        Patient storage cP = patientMap[_id];\n        emit serviceList(cP.unverifiedClaims);\n        return(cP.unverifiedClaims);\n    }\n\n    function patientVerifiedServices(bytes32 _id) public returns (address[] memory){\n        Patient storage cP = patientMap[_id];\n        emit serviceList(cP.verifiedClaims);\n        return(cP.verifiedClaims);\n    }\n\n\n\n    function setAdmin(uint _num) public {\n        admin = _num;\n    }\n\n\n    function getAdmin() public view returns (uint) {\n        return admin;\n    }\n\n\n\n// TODO\n    // function insurerUnpaidClaims(bytes32 _id) public {\n    // }\n\n\n    // function insurerPaidClaims(bytes32 _id) public {\n    // }\n\n    // function providerUnpaidClaims(bytes32 _id) public {\n\n    // }\n\n    //  function providerPaidClaims(bytes32 _id) public {\n    // }\n}\n",
  "sourcePath": "/Users/danny/sdsc-blocklab/Medicare-Claim-Verification/contracts/Organizations.sol",
  "compiler": {
    "name": "solc",
    "version": "0.5.11+commit.c082d0b4.Emscripten.clang"
  },
  "schemaVersion": "3.0.11",
  "updatedAt": "2019-08-16T22:20:08.154Z",
  "devdoc": {
    "methods": {
      "addInsurer(string)": {
        "details": "add an insurnace provider to the network",
        "params": {
          "_name": "the name of the insurance provider"
        },
        "return": "pID of the insurance provider"
      },
      "addPatient(string,bytes32)": {
        "details": "add a patient to the network",
        "params": {
          "_name": "is the name of the patient",
          "_providerID": "is the current provider of the patient"
        },
        "return": "pID is a bytes32 represented id number for the patient"
      },
      "addProvider(string,bytes32)": {
        "details": "add a provider to the network",
        "params": {
          "_insurerID": "id of insurance provider",
          "_name": "name of the provider"
        },
        "return": "the pID of the health provider -"
      },
      "fileClaim(bytes32,uint256)": {
        "details": "add a claim to a ServiceClaim contract i.e. the provider wants to file a claim for a service rendered",
        "params": {
          "_amount": "the amount to be claimed by the provider",
          "_serviceClaimID": "the ID of the ServiceClaim contract"
        },
        "return": "ClaimID the ID of the claim"
      },
      "payProvider(bytes32)": {
        "details": "invoke the payProvider function in the ServiceClaim contract",
        "params": {
          "_serviceClaimID": "the id of the ServiceClaim contract"
        }
      },
      "provideService(string,bytes32,bytes32)": {
        "details": "create an instance of a ServiceClaim contract",
        "params": {
          "_name": "name of the service",
          "_patientID": "patient ID",
          "_providerID": "provider ID"
        },
        "return": "serviceContractHash is the id of the ServiceClaim contract"
      },
      "verifyClaim(bytes32)": {
        "details": "invoke the verifyClaim function in the ServiceClaim contract",
        "params": {
          "_serviceClaimID": "the id of the ServiceClaim contract"
        }
      }
    }
  },
  "userdoc": {
    "methods": {}
  }
}