{
  "contractName": "Organizations",
  "abi": [
    {
      "constant": true,
      "inputs": [
        {
          "internalType": "bytes32",
          "name": "",
          "type": "bytes32"
        }
      ],
      "name": "serviceClaimsMap",
      "outputs": [
        {
          "internalType": "address",
          "name": "",
          "type": "address"
        }
      ],
      "payable": false,
      "stateMutability": "view",
      "type": "function"
    },
    {
      "constant": true,
      "inputs": [
        {
          "internalType": "bytes32",
          "name": "",
          "type": "bytes32"
        }
      ],
      "name": "providerMap",
      "outputs": [
        {
          "internalType": "bytes32",
          "name": "id",
          "type": "bytes32"
        },
        {
          "internalType": "string",
          "name": "name",
          "type": "string"
        }
      ],
      "payable": false,
      "stateMutability": "view",
      "type": "function"
    },
    {
      "constant": true,
      "inputs": [
        {
          "internalType": "bytes32",
          "name": "",
          "type": "bytes32"
        }
      ],
      "name": "insurerMap",
      "outputs": [
        {
          "internalType": "bytes32",
          "name": "id",
          "type": "bytes32"
        },
        {
          "internalType": "string",
          "name": "name",
          "type": "string"
        }
      ],
      "payable": false,
      "stateMutability": "view",
      "type": "function"
    },
    {
      "constant": true,
      "inputs": [
        {
          "internalType": "bytes32",
          "name": "",
          "type": "bytes32"
        }
      ],
      "name": "patientMap",
      "outputs": [
        {
          "internalType": "bytes32",
          "name": "id",
          "type": "bytes32"
        },
        {
          "internalType": "string",
          "name": "name",
          "type": "string"
        }
      ],
      "payable": false,
      "stateMutability": "view",
      "type": "function"
    },
    {
      "inputs": [],
      "payable": false,
      "stateMutability": "nonpayable",
      "type": "constructor"
    },
    {
      "anonymous": false,
      "inputs": [
        {
          "indexed": false,
          "internalType": "bytes32",
          "name": "ID",
          "type": "bytes32"
        },
        {
          "indexed": false,
          "internalType": "address",
          "name": "addr",
          "type": "address"
        }
      ],
      "name": "SCID",
      "type": "event"
    },
    {
      "anonymous": false,
      "inputs": [
        {
          "indexed": false,
          "internalType": "uint256",
          "name": "id",
          "type": "uint256"
        },
        {
          "indexed": false,
          "internalType": "string",
          "name": "name",
          "type": "string"
        },
        {
          "indexed": false,
          "internalType": "uint256",
          "name": "amount",
          "type": "uint256"
        }
      ],
      "name": "ClaimCreated",
      "type": "event"
    },
    {
      "anonymous": false,
      "inputs": [
        {
          "indexed": false,
          "internalType": "bytes32",
          "name": "id",
          "type": "bytes32"
        }
      ],
      "name": "ClaimVerified",
      "type": "event"
    },
    {
      "anonymous": false,
      "inputs": [
        {
          "indexed": false,
          "internalType": "bytes32",
          "name": "id",
          "type": "bytes32"
        },
        {
          "indexed": false,
          "internalType": "string",
          "name": "name",
          "type": "string"
        }
      ],
      "name": "PatientCreated",
      "type": "event"
    },
    {
      "anonymous": false,
      "inputs": [
        {
          "indexed": false,
          "internalType": "bytes32",
          "name": "id",
          "type": "bytes32"
        },
        {
          "indexed": false,
          "internalType": "string",
          "name": "name",
          "type": "string"
        }
      ],
      "name": "ProviderCreated",
      "type": "event"
    },
    {
      "anonymous": false,
      "inputs": [
        {
          "indexed": false,
          "internalType": "bytes32",
          "name": "id",
          "type": "bytes32"
        },
        {
          "indexed": false,
          "internalType": "string",
          "name": "name",
          "type": "string"
        }
      ],
      "name": "InsurerCreated",
      "type": "event"
    },
    {
      "anonymous": false,
      "inputs": [
        {
          "components": [
            {
              "internalType": "bytes32",
              "name": "id",
              "type": "bytes32"
            },
            {
              "internalType": "string",
              "name": "name",
              "type": "string"
            },
            {
              "internalType": "address[]",
              "name": "unclaimedServices",
              "type": "address[]"
            },
            {
              "internalType": "address[]",
              "name": "unverifiedClaims",
              "type": "address[]"
            },
            {
              "internalType": "address[]",
              "name": "verifiedClaims",
              "type": "address[]"
            }
          ],
          "indexed": false,
          "internalType": "struct Organizations.Patient",
          "name": "patient",
          "type": "tuple"
        }
      ],
      "name": "PatientRetrieval",
      "type": "event"
    },
    {
      "anonymous": false,
      "inputs": [
        {
          "components": [
            {
              "internalType": "bytes32",
              "name": "id",
              "type": "bytes32"
            },
            {
              "internalType": "string",
              "name": "name",
              "type": "string"
            },
            {
              "internalType": "bytes32[]",
              "name": "patients",
              "type": "bytes32[]"
            }
          ],
          "indexed": false,
          "internalType": "struct Organizations.Provider",
          "name": "provider",
          "type": "tuple"
        }
      ],
      "name": "ProviderRetrieval",
      "type": "event"
    },
    {
      "anonymous": false,
      "inputs": [
        {
          "indexed": false,
          "internalType": "bytes32[]",
          "name": "ids",
          "type": "bytes32[]"
        }
      ],
      "name": "idList",
      "type": "event"
    },
    {
      "anonymous": false,
      "inputs": [
        {
          "indexed": false,
          "internalType": "address[]",
          "name": "services",
          "type": "address[]"
        }
      ],
      "name": "serviceList",
      "type": "event"
    },
    {
      "constant": false,
      "inputs": [],
      "name": "preLoadInfo",
      "outputs": [],
      "payable": false,
      "stateMutability": "nonpayable",
      "type": "function"
    },
    {
      "constant": false,
      "inputs": [
        {
          "internalType": "string",
          "name": "_name",
          "type": "string"
        },
        {
          "internalType": "bytes32",
          "name": "_providerID",
          "type": "bytes32"
        }
      ],
      "name": "addPatient",
      "outputs": [
        {
          "internalType": "bytes32",
          "name": "pID",
          "type": "bytes32"
        }
      ],
      "payable": false,
      "stateMutability": "nonpayable",
      "type": "function"
    },
    {
      "constant": false,
      "inputs": [
        {
          "internalType": "string",
          "name": "_name",
          "type": "string"
        },
        {
          "internalType": "bytes32",
          "name": "_insurerID",
          "type": "bytes32"
        }
      ],
      "name": "addProvider",
      "outputs": [
        {
          "internalType": "bytes32",
          "name": "pID",
          "type": "bytes32"
        }
      ],
      "payable": false,
      "stateMutability": "nonpayable",
      "type": "function"
    },
    {
      "constant": false,
      "inputs": [
        {
          "internalType": "string",
          "name": "_name",
          "type": "string"
        }
      ],
      "name": "addInsurer",
      "outputs": [
        {
          "internalType": "bytes32",
          "name": "pID",
          "type": "bytes32"
        }
      ],
      "payable": false,
      "stateMutability": "nonpayable",
      "type": "function"
    },
    {
      "constant": false,
      "inputs": [
        {
          "internalType": "string",
          "name": "_name",
          "type": "string"
        },
        {
          "internalType": "bytes32",
          "name": "_providerID",
          "type": "bytes32"
        },
        {
          "internalType": "bytes32",
          "name": "_patientID",
          "type": "bytes32"
        }
      ],
      "name": "provideService",
      "outputs": [
        {
          "internalType": "bytes32",
          "name": "serviceContractHash",
          "type": "bytes32"
        }
      ],
      "payable": false,
      "stateMutability": "nonpayable",
      "type": "function"
    },
    {
      "constant": false,
      "inputs": [
        {
          "internalType": "bytes32",
          "name": "_serviceClaimID",
          "type": "bytes32"
        },
        {
          "internalType": "uint256",
          "name": "_amount",
          "type": "uint256"
        }
      ],
      "name": "fileClaim",
      "outputs": [
        {
          "internalType": "uint256",
          "name": "ClaimID",
          "type": "uint256"
        }
      ],
      "payable": false,
      "stateMutability": "nonpayable",
      "type": "function"
    },
    {
      "constant": false,
      "inputs": [
        {
          "internalType": "bytes32",
          "name": "_serviceClaimID",
          "type": "bytes32"
        }
      ],
      "name": "verifyClaim",
      "outputs": [],
      "payable": false,
      "stateMutability": "nonpayable",
      "type": "function"
    },
    {
      "constant": false,
      "inputs": [
        {
          "internalType": "bytes32",
          "name": "_serviceClaimID",
          "type": "bytes32"
        }
      ],
      "name": "payProvider",
      "outputs": [],
      "payable": false,
      "stateMutability": "nonpayable",
      "type": "function"
    },
    {
      "constant": false,
      "inputs": [
        {
          "internalType": "bytes32",
          "name": "_id",
          "type": "bytes32"
        }
      ],
      "name": "patientsOfProvider",
      "outputs": [
        {
          "internalType": "bytes32[]",
          "name": "",
          "type": "bytes32[]"
        }
      ],
      "payable": false,
      "stateMutability": "nonpayable",
      "type": "function"
    },
    {
      "constant": false,
      "inputs": [
        {
          "internalType": "bytes32",
          "name": "_id",
          "type": "bytes32"
        }
      ],
      "name": "providersOfInsurer",
      "outputs": [
        {
          "internalType": "bytes32[]",
          "name": "",
          "type": "bytes32[]"
        }
      ],
      "payable": false,
      "stateMutability": "nonpayable",
      "type": "function"
    },
    {
      "constant": false,
      "inputs": [
        {
          "internalType": "bytes32",
          "name": "_id",
          "type": "bytes32"
        }
      ],
      "name": "getPatient",
      "outputs": [
        {
          "components": [
            {
              "internalType": "bytes32",
              "name": "id",
              "type": "bytes32"
            },
            {
              "internalType": "string",
              "name": "name",
              "type": "string"
            },
            {
              "internalType": "address[]",
              "name": "unclaimedServices",
              "type": "address[]"
            },
            {
              "internalType": "address[]",
              "name": "unverifiedClaims",
              "type": "address[]"
            },
            {
              "internalType": "address[]",
              "name": "verifiedClaims",
              "type": "address[]"
            }
          ],
          "internalType": "struct Organizations.Patient",
          "name": "",
          "type": "tuple"
        }
      ],
      "payable": false,
      "stateMutability": "nonpayable",
      "type": "function"
    },
    {
      "constant": false,
      "inputs": [
        {
          "internalType": "bytes32",
          "name": "_id",
          "type": "bytes32"
        }
      ],
      "name": "getProvider",
      "outputs": [
        {
          "components": [
            {
              "internalType": "bytes32",
              "name": "id",
              "type": "bytes32"
            },
            {
              "internalType": "string",
              "name": "name",
              "type": "string"
            },
            {
              "internalType": "bytes32[]",
              "name": "patients",
              "type": "bytes32[]"
            }
          ],
          "internalType": "struct Organizations.Provider",
          "name": "",
          "type": "tuple"
        }
      ],
      "payable": false,
      "stateMutability": "nonpayable",
      "type": "function"
    },
    {
      "constant": false,
      "inputs": [
        {
          "internalType": "bytes32",
          "name": "_id",
          "type": "bytes32"
        }
      ],
      "name": "patientUnclaimedServices",
      "outputs": [
        {
          "internalType": "address[]",
          "name": "",
          "type": "address[]"
        }
      ],
      "payable": false,
      "stateMutability": "nonpayable",
      "type": "function"
    },
    {
      "constant": false,
      "inputs": [
        {
          "internalType": "bytes32",
          "name": "_id",
          "type": "bytes32"
        }
      ],
      "name": "patientUnverifiedClaims",
      "outputs": [
        {
          "internalType": "address[]",
          "name": "",
          "type": "address[]"
        }
      ],
      "payable": false,
      "stateMutability": "nonpayable",
      "type": "function"
    },
    {
      "constant": false,
      "inputs": [
        {
          "internalType": "bytes32",
          "name": "_id",
          "type": "bytes32"
        }
      ],
      "name": "patientVerifiedClaims",
      "outputs": [
        {
          "internalType": "address[]",
          "name": "",
          "type": "address[]"
        }
      ],
      "payable": false,
      "stateMutability": "nonpayable",
      "type": "function"
    },
    {
      "constant": false,
      "inputs": [
        {
          "internalType": "uint256",
          "name": "_num",
          "type": "uint256"
        }
      ],
      "name": "setAdmin",
      "outputs": [],
      "payable": false,
      "stateMutability": "nonpayable",
      "type": "function"
    },
    {
      "constant": true,
      "inputs": [],
      "name": "getAdmin",
      "outputs": [
        {
          "internalType": "uint256",
          "name": "",
          "type": "uint256"
        }
      ],
      "payable": false,
      "stateMutability": "view",
      "type": "function"
    }
  ],
  "bytecode": "0x60806040523480156200001157600080fd5b50620000256001600160e01b036200002b16565b620007e2565b6000620000736040518060400160405280600381526020017f434d530000000000000000000000000000000000000000000000000000000000815250620001a060201b60201c565b90506000620000be6040518060400160405280600c81526020017f55435344204d65646963616c0000000000000000000000000000000000000000815250836200028a60201b60201c565b9050620001076040518060400160405280600381526020017f4b656e000000000000000000000000000000000000000000000000000000000081525082620003a160201b60201c565b5060408051808201909152600581527f44616e6e7900000000000000000000000000000000000000000000000000000060208201526200015190826001600160e01b03620003a116565b5060408051808201909152600781527f416e746f6e696f0000000000000000000000000000000000000000000000000060208201526200019b90826001600160e01b03620003a116565b505050565b60008082604051602001620001b6919062000752565b6040516020818303038152906040528051906020012090506060620001da62000507565b50604080516060810182528381526020808201878152828401859052600086815260058352939093208251815592518051929384939092620002249260018501929101906200052b565b506040820151805162000242916002840191602090910190620005b0565b509050507ff73cee28a98c20f23a903356ab57dc8c514e66b0488c994b09dec06f978c839b83866040516200027992919062000767565b60405180910390a150909392505050565b60008083604051602001620002a0919062000752565b6040516020818303038152906040528051906020012090506060620002c462000507565b506040805160608101825283815260208082018881528284018590526000868152600483529390932082518155925180519293849390926200030e9260018501929101906200052b565b50604082015180516200032c916002840191602090910190620005b0565b50505060008581526005602090815260408083208451600290910180546001810182559085529290932090910191909155517f7dd222c7de5c7ba42d121aa7e2acc9d5d4a47c2eb31f55385cf51cbe459c5c9b906200038f908590899062000767565b60405180910390a15090949350505050565b60008083604051602001620003b7919062000752565b6040516020818303038152906040528051906020012090506060806060620003de620005ed565b506040805160a08101825285815260208082018a81528284018790526060830186905260808301859052600088815260038352939093208251815592518051929384939092620004369260018501929101906200052b565b5060408201518051620004549160028401916020909101906200061f565b5060608201518051620004729160038401916020909101906200061f565b5060808201518051620004909160048401916020909101906200061f565b50505060008781526004602090815260408083208451600290910180546001810182559085529290932090910191909155517f86ec8adc6f97da0327b3e1dcc24fa25aea5eb7afcf6af08792e4b2d4d799fad890620004f39087908b9062000767565b60405180910390a150929695505050505050565b60405180606001604052806000801916815260200160608152602001606081525090565b828054600181600116156101000203166002900490600052602060002090601f016020900481019282601f106200056e57805160ff19168380011785556200059e565b828001600101855582156200059e579182015b828111156200059e57825182559160200191906001019062000581565b50620005ac92915062000685565b5090565b8280548282559060005260206000209081019282156200059e57916020028201828111156200059e57825182559160200191906001019062000581565b6040518060a0016040528060008019168152602001606081526020016060815260200160608152602001606081525090565b82805482825590600052602060002090810192821562000677579160200282015b828111156200067757825182546001600160a01b0319166001600160a01b0390911617825560209092019160019091019062000640565b50620005ac929150620006a5565b620006a291905b80821115620005ac57600081556001016200068c565b90565b620006a291905b80821115620005ac5780546001600160a01b0319168155600101620006ac565b620006d781620006a2565b82525050565b6000620006ea8262000793565b620006f6818562000797565b935062000708818560208601620007a5565b6200071381620007d8565b9093019392505050565b60006200072a8262000793565b620007368185620007a0565b935062000748818560208601620007a5565b9290920192915050565b60006200076082846200071d565b9392505050565b60408101620007778285620006cc565b81810360208301526200078b8184620006dd565b949350505050565b5190565b90815260200190565b919050565b60005b83811015620007c2578181015183820152602001620007a8565b83811115620007d2576000848401525b50505050565b601f01601f191690565b6129de80620007f26000396000f3fe60806040523480156200001157600080fd5b5060043610620001545760003560e01c80636e9960c311620000c95780639c860b8a11620000875780639c860b8a14620002fe578063a46bfff91462000324578063dd238925146200033b578063e0e87b1a1462000352578063ece7ac2b1462000369578063ee3d52b314620003805762000154565b80636e9960c31462000289578063740044b414620002935780637899a34e14620002aa57806392398fbb14620002d05780639594c99e14620002e75762000154565b806335b73510116200011757806335b73510146200022157806339160aa7146200023a5780633e7e072e14620002515780633f1e172d146200026857806340f1065314620002725762000154565b8063085683ff146200015957806321dd828514620001885780632470d25e14620001ae5780632bde2a8614620001d457806333c0950a14620001fb575b600080fd5b620001706200016a36600462001c2f565b62000397565b6040516200017f91906200217a565b60405180910390f35b6200019f6200019936600462001b02565b620004d7565b6040516200017f91906200212e565b620001c5620001bf36600462001b02565b6200058e565b6040516200017f91906200211e565b620001eb620001e536600462001b02565b620005a9565b6040516200017f929190620021f5565b620002126200020c36600462001b02565b62000654565b6040516200017f91906200223e565b620002386200023236600462001b02565b620008fb565b005b620001eb6200024b36600462001b02565b62000b27565b620001706200026236600462001bf5565b62000b9c565b6200023862000cb5565b620001706200028336600462001b44565b62000d95565b620001706200102c565b62000170620002a436600462001bf5565b62001033565b620002c1620002bb36600462001b02565b62001199565b6040516200017f91906200222b565b620001eb620002e136600462001b02565b620013e8565b6200019f620002f836600462001b02565b6200145d565b620003156200030f36600462001b02565b62001512565b6040516200017f919062002154565b620003156200033536600462001b02565b620015be565b620001706200034c36600462001bbc565b62001606565b620002386200036336600462001b02565b620016f0565b6200019f6200037a36600462001b02565b6200177f565b620002386200039136600462001b02565b62001834565b600080848484604051602001620003b193929190620020e5565b604051602081830303815290604052805190602001209050600084848388604051620003dd9062001839565b620003ec9493929190620021a9565b604051809103906000f08015801562000409573d6000803e3d6000fd5b509050600081604051602001620004219190620020c0565b60408051601f19818403018152828252805160209182012060008181526006835283812080546001600160a01b0389166001600160a01b031991821681179092558b835260038552948220600281018054600181018255908452949092209093018054909416909217909255909250907f2cdb195d7226065901c0e37d742237ac3e30d6dc0ce7faf49701f6ec9f0bd1ed90620004c290849086906200218a565b60405180910390a150925050505b9392505050565b6000818152600360208190526040918290209151606092917fa1c275d9147cd4bbf3a6fc6b01df2bdad7272d62a5bea8ea5f90e20e7c3f48e9916200051f9184019062002141565b60405180910390a1806003018054806020026020016040519081016040528092919081815260200182805480156200058157602002820191906000526020600020905b81546001600160a01b0316815260019091019060200180831162000562575b5050505050915050919050565b6006602052600090815260409020546001600160a01b031681565b6004602090815260009182526040918290208054600180830180548651600293821615610100026000190190911692909204601f8101869004860283018601909652858252919492939092908301828280156200064a5780601f106200061e576101008083540402835291602001916200064a565b820191906000526020600020905b8154815290600101906020018083116200062c57829003601f168201915b5050505050905082565b6200065e62001847565b6200066862001847565b6004600084815260200190815260200160002060405180606001604052908160008201548152602001600182018054600181600116156101000203166002900480601f0160208091040260200160405190810160405280929190818152602001828054600181600116156101000203166002900480156200072d5780601f1062000701576101008083540402835291602001916200072d565b820191906000526020600020905b8154815290600101906020018083116200070f57829003601f168201915b50505050508152602001600282018054806020026020016040519081016040528092919081815260200182805480156200078757602002820191906000526020600020905b81548152602001906001019080831162000772575b50505050508152505090507f8c6b3078bf6d713aeae5b1ccc2dfea387cbb876de1a5c9d81a4e22d4e832c54681604051620007c391906200223e565b60405180910390a16004600084815260200190815260200160002060405180606001604052908160008201548152602001600182018054600181600116156101000203166002900480601f016020809104026020016040519081016040528092919081815260200182805460018160011615610100020316600290048015620008905780601f10620008645761010080835404028352916020019162000890565b820191906000526020600020905b8154815290600101906020018083116200087257829003601f168201915b5050505050815260200160028201805480602002602001604051908101604052809291908181526020018280548015620008ea57602002820191906000526020600020905b815481526020019060010190808311620008d5575b505050505081525050915050919050565b600081815260066020908152604080832054815163844cdf0960e01b815291516001600160a01b0390911693849363844cdf09936004808201949293918390030190829087803b1580156200094f57600080fd5b505af115801562000964573d6000803e3d6000fd5b505050506040513d601f19601f820116820180604052506200098a919081019062001ad9565b620009b25760405162461bcd60e51b8152600401620009a99062002219565b60405180910390fd5b6000816001600160a01b031663f680a7bd6040518163ffffffff1660e01b815260040160206040518083038186803b158015620009ee57600080fd5b505afa15801562000a03573d6000803e3d6000fd5b505050506040513d601f19601f8201168201806040525062000a29919081019062001b23565b60008181526003602052604081209192505b600382015481101562000ab657836001600160a01b031682600301828154811062000a6257fe5b6000918252602090912001546001600160a01b0316141562000aad5781600301818154811062000a8e57fe5b600091825260209091200180546001600160a01b031916905562000ab6565b60010162000a3b565b50600481018054600181018255600091825260209091200180546001600160a01b0319166001600160a01b0385161790556040517fbb7f69e49157b8f7bbfd20ddd9be754be60972bae5723181eca78ea390fdf8569062000b199086906200217a565b60405180910390a150505050565b6005602090815260009182526040918290208054600180830180548651600293821615610100026000190190911692909204601f8101869004860283018601909652858252919492939092908301828280156200064a5780601f106200061e576101008083540402835291602001916200064a565b6000808360405160200162000bb29190620020d7565b604051602081830303815290604052805190602001209050606062000bd662001847565b5060408051606081018252838152602080820188815282840185905260008681526004835293909320825181559251805192938493909262000c209260018501929101906200186b565b506040820151805162000c3e916002840191602090910190620018f0565b50505060008581526005602090815260408083208451600290910180546001810182559085529290932090910191909155517f7dd222c7de5c7ba42d121aa7e2acc9d5d4a47c2eb31f55385cf51cbe459c5c9b9062000ca19085908990620021f5565b60405180910390a150909150505b92915050565b600062000cdd60405180604001604052806003815260200162434d5360e81b81525062001606565b9050600062000d116040518060400160405280600c81526020016b1550d4d1081359591a58d85b60a21b8152508362000b9c565b905062000d3a6040518060400160405280600381526020016225b2b760e91b8152508262001033565b5062000d646040518060400160405280600581526020016444616e6e7960d81b8152508262001033565b5062000d9060405180604001604052806007815260200166416e746f6e696f60c81b8152508262001033565b505050565b60008281526006602052604080822054905163d61909f960e01b81526001600160a01b03909116908290829063d61909f99062000dd79087906004016200217a565b602060405180830381600087803b15801562000df257600080fd5b505af115801562000e07573d6000803e3d6000fd5b505050506040513d601f19601f8201168201806040525062000e2d919081019062001b23565b90506000826001600160a01b031663f680a7bd6040518163ffffffff1660e01b815260040160206040518083038186803b15801562000e6b57600080fd5b505afa15801562000e80573d6000803e3d6000fd5b505050506040513d601f19601f8201168201806040525062000ea6919081019062001b23565b60008181526003602052604081209192505b600282015481101562000f3357846001600160a01b031682600201828154811062000edf57fe5b6000918252602090912001546001600160a01b0316141562000f2a5781600201818154811062000f0b57fe5b600091825260209091200180546001600160a01b031916905562000f33565b60010162000eb8565b506060846001600160a01b03166306fdde036040518163ffffffff1660e01b815260040160006040518083038186803b15801562000f7057600080fd5b505afa15801562000f85573d6000803e3d6000fd5b505050506040513d6000823e601f3d908101601f1916820160405262000faf919081019062001b83565b600383018054600181018255600091825260209091200180546001600160a01b0319166001600160a01b0388161790556040519091507fafa26db9850c78f6631501bad719bc300947f37781a3e2dc4389d945ab6630c7906200101890869084908b9062002251565b60405180910390a150919695505050505050565b6000545b90565b60008083604051602001620010499190620020d7565b6040516020818303038152906040528051906020012090506060806060620010706200192d565b506040805160a08101825285815260208082018a81528284018790526060830186905260808301859052600088815260038352939093208251815592518051929384939092620010c89260018501929101906200186b565b5060408201518051620010e69160028401916020909101906200195f565b5060608201518051620011049160038401916020909101906200195f565b5060808201518051620011229160048401916020909101906200195f565b50505060008781526004602090815260408083208451600290910180546001810182559085529290932090910191909155517f86ec8adc6f97da0327b3e1dcc24fa25aea5eb7afcf6af08792e4b2d4d799fad890620011859087908b90620021f5565b60405180910390a150929695505050505050565b620011a36200192d565b620011ad6200192d565b600360008481526020019081526020016000206040518060a001604052908160008201548152602001600182018054600181600116156101000203166002900480601f016020809104026020016040519081016040528092919081815260200182805460018160011615610100020316600290048015620012725780601f10620012465761010080835404028352916020019162001272565b820191906000526020600020905b8154815290600101906020018083116200125457829003601f168201915b5050505050815260200160028201805480602002602001604051908101604052809291908181526020018280548015620012d657602002820191906000526020600020905b81546001600160a01b03168152600190910190602001808311620012b7575b50505050508152602001600382018054806020026020016040519081016040528092919081815260200182805480156200133a57602002820191906000526020600020905b81546001600160a01b031681526001909101906020018083116200131b575b50505050508152602001600482018054806020026020016040519081016040528092919081815260200182805480156200139e57602002820191906000526020600020905b81546001600160a01b031681526001909101906020018083116200137f575b50505050508152505090507f7822df68ea6ba88fa17a55a6c6fe1f7207c1653493392725ce9da7f61f8b601d81604051620013da91906200222b565b60405180910390a192915050565b6003602090815260009182526040918290208054600180830180548651600293821615610100026000190190911692909204601f8101869004860283018601909652858252919492939092908301828280156200064a5780601f106200061e576101008083540402835291602001916200064a565b600081815260036020526040908190209051606091907fa1c275d9147cd4bbf3a6fc6b01df2bdad7272d62a5bea8ea5f90e20e7c3f48e990620014a590600284019062002141565b60405180910390a18060020180548060200260200160405190810160405280929190818152602001828054801562000581576020028201919060005260206000209081546001600160a01b0316815260019091019060200180831162000562575050505050915050919050565b600081815260056020526040908190209051606091907f1c7aaf504355c6134470b4070ca50bf276d45d0205aa86ef6bd15c684ae710c4906200155a90600284019062002167565b60405180910390a1806002018054806020026020016040519081016040528092919081815260200182805480156200058157602002820191906000526020600020905b8154815260200190600101908083116200159d575050505050915050919050565b600081815260046020526040908190209051606091907f1c7aaf504355c6134470b4070ca50bf276d45d0205aa86ef6bd15c684ae710c4906200155a90600284019062002167565b600080826040516020016200161c9190620020d7565b60405160208183030381529060405280519060200120905060606200164062001847565b506040805160608101825283815260208082018781528284018590526000868152600583529390932082518155925180519293849390926200168a9260018501929101906200186b565b5060408201518051620016a8916002840191602090910190620018f0565b509050507ff73cee28a98c20f23a903356ab57dc8c514e66b0488c994b09dec06f978c839b8386604051620016df929190620021f5565b60405180910390a150909392505050565b60008181526006602090815260408083205481516398d6a37360e01b815291516001600160a01b039091169384936398d6a373936004808201949293918390030190829087803b1580156200174457600080fd5b505af115801562001759573d6000803e3d6000fd5b505050506040513d601f19601f8201168201806040525062000d90919081019062001ad9565b600081815260036020526040908190209051606091907fa1c275d9147cd4bbf3a6fc6b01df2bdad7272d62a5bea8ea5f90e20e7c3f48e990620017c790600484019062002141565b60405180910390a18060040180548060200260200160405190810160405280929190818152602001828054801562000581576020028201919060005260206000209081546001600160a01b0316815260019091019060200180831162000562575050505050915050919050565b600055565b6105ac80620023f083390190565b60405180606001604052806000801916815260200160608152602001606081525090565b828054600181600116156101000203166002900490600052602060002090601f016020900481019282601f10620018ae57805160ff1916838001178555620018de565b82800160010185558215620018de579182015b82811115620018de578251825591602001919060010190620018c1565b50620018ec929150620019c5565b5090565b828054828255906000526020600020908101928215620018de5791602002820182811115620018de578251825591602001919060010190620018c1565b6040518060a0016040528060008019168152602001606081526020016060815260200160608152602001606081525090565b828054828255906000526020600020908101928215620019b7579160200282015b82811115620019b757825182546001600160a01b0319166001600160a01b0390911617825560209092019160019091019062001980565b50620018ec929150620019e2565b6200103091905b80821115620018ec5760008155600101620019cc565b6200103091905b80821115620018ec5780546001600160a01b0319168155600101620019e9565b805162000caf81620023ca565b803562000caf81620023e4565b805162000caf81620023e4565b600082601f83011262001a4257600080fd5b815162001a5962001a5382620022ae565b62002286565b9150808252602083016020830185838301111562001a7657600080fd5b62001a838382846200232f565b50505092915050565b600082601f83011262001a9e57600080fd5b813562001aaf62001a5382620022ae565b9150808252602083016020830185838301111562001acc57600080fd5b62001a8383828462002323565b60006020828403121562001aec57600080fd5b600062001afa848462001a09565b949350505050565b60006020828403121562001b1557600080fd5b600062001afa848462001a16565b60006020828403121562001b3657600080fd5b600062001afa848462001a23565b6000806040838503121562001b5857600080fd5b600062001b66858562001a16565b925050602062001b798582860162001a16565b9150509250929050565b60006020828403121562001b9657600080fd5b815167ffffffffffffffff81111562001bae57600080fd5b62001afa8482850162001a30565b60006020828403121562001bcf57600080fd5b813567ffffffffffffffff81111562001be757600080fd5b62001afa8482850162001a8c565b6000806040838503121562001c0957600080fd5b823567ffffffffffffffff81111562001c2157600080fd5b62001b668582860162001a8c565b60008060006060848603121562001c4557600080fd5b833567ffffffffffffffff81111562001c5d57600080fd5b62001c6b8682870162001a8c565b935050602062001c7e8682870162001a16565b925050604062001c918682870162001a16565b9150509250925092565b600062001ca9838362001cbf565b505060200190565b600062001ca9838362001f1e565b62001cca8162002311565b82525050565b62001cca62001cdf8262002311565b6200238a565b600062001cf282620022e9565b62001cfe8185620022f7565b935062001d0b83620022d7565b8060005b8381101562001d3f57815162001d26888262001c9b565b975062001d3383620022d7565b92505060010162001d0f565b509495945050505050565b600062001d5782620022e9565b62001d638185620022f7565b935062001d7083620022d7565b8060005b8381101562001d3f57815162001d8b888262001c9b565b975062001d9883620022d7565b92505060010162001d74565b600062001db182620022ed565b62001dbd8185620022f7565b935062001dca83620022dd565b8060005b8381101562001d3f5762001de2826200239e565b62001dee888262001c9b565b975062001dfb83620022f1565b92505060010162001dce565b600062001e1482620022e9565b62001e208185620022f7565b935062001e2d83620022d7565b8060005b8381101562001d3f57815162001e48888262001cb1565b975062001e5583620022d7565b92505060010162001e31565b600062001e6e82620022e9565b62001e7a8185620022f7565b935062001e8783620022d7565b8060005b8381101562001d3f57815162001ea2888262001cb1565b975062001eaf83620022d7565b92505060010162001e8b565b600062001ec882620022ed565b62001ed48185620022f7565b935062001ee183620022dd565b8060005b8381101562001d3f5762001ef982620023ac565b62001f05888262001cb1565b975062001f1283620022f1565b92505060010162001ee5565b62001cca8162001030565b62001cca62001f388262001030565b62001030565b600062001f4b82620022e9565b62001f578185620022f7565b935062001f698185602086016200232f565b62001f7481620023ba565b9093019392505050565b600062001f8b82620022e9565b62001f97818562002300565b935062001fa98185602086016200232f565b9290920192915050565b600062001fc2601683620022f7565b7510db185a5b481dd85cc81b9bdd0815995c9a599a595960521b815260200192915050565b805160009060a084019062001ffd858262001f1e565b506020830151848203602086015262002017828262001f3e565b9150506040830151848203604086015262002033828262001d4a565b915050606083015184820360608601526200204f828262001d4a565b915050608083015184820360808601526200206b828262001d4a565b95945050505050565b805160009060608401906200208a858262001f1e565b5060208301518482036020860152620020a4828262001f3e565b915050604083015184820360408601526200206b828262001e61565b6000620020ce828462001cd0565b50601401919050565b6000620004d0828462001f7e565b6000620020f3828662001f7e565b915062002101828562001f29565b60208201915062002113828462001f29565b506020019392505050565b6020810162000caf828462001cbf565b60208082528101620004d0818462001ce5565b60208082528101620004d0818462001da4565b60208082528101620004d0818462001e07565b60208082528101620004d0818462001ebb565b6020810162000caf828462001f1e565b604081016200219a828562001f1e565b620004d0602083018462001cbf565b60808101620021b9828762001f1e565b620021c8602083018662001f1e565b620021d7604083018562001f1e565b8181036060830152620021eb818462001f3e565b9695505050505050565b6040810162002205828562001f1e565b818103602083015262001afa818462001f3e565b6020808252810162000caf8162001fb3565b60208082528101620004d0818462001fe7565b60208082528101620004d0818462002074565b6060810162002261828662001f1e565b818103602083015262002275818562001f3e565b905062001afa604083018462001f1e565b60405181810167ffffffffffffffff81118282101715620022a657600080fd5b604052919050565b600067ffffffffffffffff821115620022c657600080fd5b506020601f91909101601f19160190565b60200190565b60009081526020902090565b5190565b5490565b60010190565b90815260200190565b919050565b6001600160a01b031690565b600062000caf8262002305565b151590565b82818337506000910152565b60005b838110156200234c57818101518382015260200162002332565b838111156200235c576000848401525b50505050565b600062000caf620023738362001030565b62002305565b600062000caf62001f388362001030565b600062000caf82600062000caf82620023c4565b600062000caf825462002362565b600062000caf825462002379565b601f01601f191690565b60601b90565b620023d5816200231e565b8114620023e157600080fd5b50565b620023d5816200103056fe608060405234801561001057600080fd5b506040516105ac3803806105ac8339818101604052608081101561003357600080fd5b81516020830151604080850151606086018051925194969395919493918201928464010000000082111561006657600080fd5b90830190602082018581111561007b57600080fd5b825164010000000081118282018810171561009557600080fd5b82525081516020918201929091019080838360005b838110156100c25781810151838201526020016100aa565b50505050905090810190601f1680156100ef5780820380516001836020036101000a031916815260200191505b506040525050506001849055600283905560038290558051610118906004906020840190610122565b50505050506101bd565b828054600181600116156101000203166002900490600052602060002090601f016020900481019282601f1061016357805160ff1916838001178555610190565b82800160010185558215610190579182015b82811115610190578251825591602001919060010190610175565b5061019c9291506101a0565b5090565b6101ba91905b8082111561019c57600081556001016101a6565b90565b6103e0806101cc6000396000f3fe608060405234801561001057600080fd5b50600436106100ea5760003560e01c8063844cdf091161008c578063cdb73ac011610066578063cdb73ac014610219578063d321fe2914610236578063d61909f91461023e578063f680a7bd1461025b576100ea565b8063844cdf091461020157806398d6a37314610209578063b95e216c14610211576100ea565b80633a50ed13116100c85780633a50ed13146101b75780633f02907a146101d4578063596ada67146101f157806380007e83146101f9576100ea565b806306fdde03146100ef578063209ebc081461016c57806334d6093d14610188575b600080fd5b6100f7610263565b6040805160208082528351818301528351919283929083019185019080838360005b83811015610131578181015183820152602001610119565b50505050905090810190601f16801561015e5780820380516001836020036101000a031916815260200191505b509250505060405180910390f35b6101746102f1565b604080519115158252519081900360200190f35b6101a56004803603602081101561019e57600080fd5b50356102ff565b60408051918252519081900360200190f35b6101a5600480360360208110156101cd57600080fd5b5035610307565b6101a5600480360360208110156101ea57600080fd5b503561030f565b6101a5610317565b61017461031d565b610174610326565b610174610339565b6101a561034d565b6101a56004803603602081101561022f57600080fd5b5035610353565b6101a561035b565b6101a56004803603602081101561025457600080fd5b5035610361565b6101a56103a5565b6004805460408051602060026001851615610100026000190190941693909304601f810184900484028201840190925281815292918301828280156102e95780601f106102be576101008083540402835291602001916102e9565b820191906000526020600020905b8154815290600101906020018083116102cc57829003601f168201915b505050505081565b600654610100900460ff1690565b600581905590565b600081905590565b600181905590565b60015481565b60065460ff1690565b6006805460ff1916600190811790915590565b6006805461ff001916610100179055600190565b60005481565b600281905590565b60055490565b60058190556040805182815290516000917f7da274c7907a6e3fe48918a914c8a93c400713daffcd99eaa4a9ae6e99322204919081900360200190a1505060055490565b6002548156fea265627a7a723158201f6b3084745d72815e3f87a6dbdd1c1da60820caa25d7c654e8d848e720456af64736f6c634300050b0032a365627a7a72315820c42e9d88bfdbf5c08fe6e3150b850a87f397d755291af391a895cd5c0c71b87d6c6578706572696d656e74616cf564736f6c634300050b0040",
  "source": "pragma solidity ^0.5.0;\npragma experimental ABIEncoderV2;\n\n\nimport \"./SafeMath.sol\";\nimport \"./ServiceClaim.sol\";\n\ncontract Organizations {\n\n    uint admin;\n\n\n    uint256 claimId; //Max value of the number of claims made\n    uint storedData; //Miscellaneous data\n\n    mapping (bytes32=>Patient) public patientMap; //ID of patient to specific provider -\n    mapping (bytes32=>Provider) public providerMap; //ID of provider to specific provider -\n    mapping (bytes32=>Insurer) public insurerMap; //ID of insurance provider to specific insurer\n    mapping (bytes32=>address) public serviceClaimsMap; //ID of serviceClaim to the specific ServiceClaim contract instance\n\n    //Events for organization creation    event ServiceCreated(address serviceClaimAddr);\n    event SCID(bytes32 ID, address addr);\n    event ClaimCreated(uint256 id, string name, uint256 amount);\n    event ClaimVerified(bytes32 id);\n    event PatientCreated(bytes32 id, string name);\n    event ProviderCreated(bytes32 id, string name);\n    event InsurerCreated(bytes32 id, string name);\n    event PatientRetrieval(Patient patient);\n    event ProviderRetrieval(Provider provider);\n\n    //event patientList(Patient[] patients);\n    //event providerList(Provider[] providers);\n    //event insurerList(Insurer[] insurers);\n\n    event idList(bytes32[] ids);\n    event serviceList(address[] services);\n\n    struct Patient {\n        bytes32 id;\n        string name;\n        address[] unclaimedServices;\n        address[] unverifiedClaims;\n        address[] verifiedClaims;\n    }\n\n    struct Provider {\n        bytes32 id;\n        string name;\n        bytes32[] patients;\n    }\n\n    struct Insurer {\n        bytes32 id;\n        string name;\n        bytes32[] providers;\n    }\n\n\n\n    constructor() public {\n        preLoadInfo();\n    }\n\n\n    function preLoadInfo() public{\n        bytes32 insurerID = addInsurer(\"CMS\");\n        bytes32 providerID = addProvider(\"UCSD Medical\", insurerID);\n        addPatient(\"Ken\", providerID);\n        addPatient(\"Danny\", providerID);\n        addPatient(\"Antonio\", providerID);\n    }\n    // ------------------------------ Adds Users to Network --------------------------- //\n\n    /** @dev add a patient to the network\n    @param _name is the name of the patient\n    @param _providerID is the current provider of the patient\n    @return pID is a bytes32 represented id number for the patient\n    */\n    function addPatient(string memory _name, bytes32 _providerID) public returns(bytes32 pID) {\n        bytes32 id = keccak256(abi.encodePacked(_name));\n        address[] memory uServiceList;\n        address[] memory uClaimList;\n        address[] memory vClaimList;\n        Patient memory newPatient = Patient(id, _name, uServiceList, uClaimList, vClaimList);\n        //bytes32 patientHash = keccak256(abi.encodePacked(newPatient));\n        patientMap[id] = newPatient;\n        providerMap[_providerID].patients.push(newPatient.id);\n        emit PatientCreated(id, _name);\n        return id;\n    }\n\n    /** @dev add a provider to the network\n    @param _name name of the provider\n    @param _insurerID id of insurance provider\n    @return the pID of the health provider -\n     */\n    function addProvider(string memory _name, bytes32 _insurerID) public returns(bytes32 pID) {\n        bytes32 id = keccak256(abi.encodePacked(_name));\n        bytes32[] memory emptyList;\n        Provider memory newProvider = Provider(id, _name, emptyList);\n        //bytes32 providerHash = keccak256(abi.encodePacked(newProvider));\n        providerMap[id] = newProvider;\n        insurerMap[_insurerID].providers.push(newProvider.id);\n        emit ProviderCreated(id, _name);\n        return id;\n    }\n\n    /** @dev add an insurnace provider to the network\n    @param _name the name of the insurance provider\n    @return pID of the insurance provider\n    */\n    function addInsurer(string memory _name) public returns(bytes32 pID) {\n        bytes32 id = keccak256(abi.encodePacked(_name));\n        bytes32[] memory emptyList;\n        Insurer memory newInsurer = Insurer(id, _name, emptyList);\n        //bytes32 insurerHash = keccak256(abi.encodePacked(newInsurer));\n        insurerMap[id] = newInsurer;\n        emit InsurerCreated(id, _name);\n        return id;\n    }\n\n    // ------------------------------ Functionality of the Network --------------------------- //\n\n    /** @dev create an instance of a ServiceClaim contract\n    @param _name name of the service\n    @param _providerID provider ID\n    @param _patientID patient ID\n    @return serviceContractHash is the id of the ServiceClaim contract\n    */\n    function provideService(string memory _name, bytes32 _providerID, bytes32 _patientID) public returns(bytes32 serviceContractHash) {\n        bytes32 id = keccak256(abi.encodePacked(_name, _providerID, _patientID));\n        ServiceClaim serviceClaim = new ServiceClaim(_providerID, _patientID, id, _name);\n        bytes32 serviceClaimID = keccak256(abi.encodePacked(address(serviceClaim)));\n        serviceClaimsMap[serviceClaimID] = address(serviceClaim);\n        Patient storage patient = patientMap[_patientID];\n        //patient.unverifiedClaims.push(address(serviceClaim));\n        patient.unclaimedServices.push(address(serviceClaim));\n        emit SCID(serviceClaimID, address(serviceClaim));\n        return serviceClaimID;\n    }\n\n    /** @dev add a claim to a ServiceClaim contract i.e. the provider wants to file a claim for a service rendered\n    @param _serviceClaimID the ID of the ServiceClaim contract\n    @param _amount the amount to be claimed by the provider\n    @return ClaimID the ID of the claim\n    */\n    function fileClaim(bytes32 _serviceClaimID, uint256 _amount) public returns(uint256 ClaimID) {\n        //Patient storage cPatient = patientMap[_patient];\n        ServiceClaim myServiceClaim = ServiceClaim(serviceClaimsMap[_serviceClaimID]);\n        uint256 newClaimID = myServiceClaim.fileClaim(_amount);\n\n        bytes32 patID = myServiceClaim.patientID();\n        Patient storage cP = patientMap[patID];\n\n        for(uint i = 0; i < cP.unclaimedServices.length; i++){\n            if(cP.unclaimedServices[i] == address(myServiceClaim)){\n                delete(cP.unclaimedServices[i]);\n                break;\n            }\n        }\n        string memory name = myServiceClaim.name();\n        cP.unverifiedClaims.push(address(myServiceClaim));\n        emit ClaimCreated(newClaimID, name, _amount);\n        return newClaimID;\n    }\n\n    \n    /** @dev invoke the verifyClaim function in the ServiceClaim contract\n    @param _serviceClaimID the id of the ServiceClaim contract\n    */\n    /** @dev invoke the verifyClaim function in the ServiceClaim contract\n    @param _serviceClaimID the id of the ServiceClaim contract\n    */\n    function verifyClaim(bytes32 _serviceClaimID) public {\n        ServiceClaim myServiceClaim = ServiceClaim(serviceClaimsMap[_serviceClaimID]);\n        require(myServiceClaim.verifyClaim(), \"Claim was not Verified\");\n        // Add the claim address to verified list\n        // Delete the claim address from unverified list\n        bytes32 patID = myServiceClaim.patientID();\n        Patient storage cP = patientMap[patID];\n\n        for(uint i = 0; i < cP.unverifiedClaims.length; i++){\n            if(cP.unverifiedClaims[i] == address(myServiceClaim)){\n                delete(cP.unverifiedClaims[i]);\n                break;\n            }\n        }\n        cP.verifiedClaims.push(address(myServiceClaim));\n        emit ClaimVerified(_serviceClaimID);\n    }\n\n    /** @dev invoke the payProvider function in the ServiceClaim contract\n    @param _serviceClaimID the id of the ServiceClaim contract\n    */\n    function payProvider(bytes32 _serviceClaimID) public {\n        //require(_serviceClaim.claim().verified == true, \"User has not verified service\");\n        ServiceClaim myServiceClaim = ServiceClaim(serviceClaimsMap[_serviceClaimID]);\n        myServiceClaim.payProvider();\n    }\n\n\n\n    // ------------------------------ Getters of Network Data --------------------------- //\n\n\n    function patientsOfProvider(bytes32 _id) public returns (bytes32[] memory) {\n        Provider storage cP = providerMap[_id];\n        emit idList(cP.patients);\n        return(cP.patients);\n    }\n\n    function providersOfInsurer(bytes32 _id) public returns (bytes32[] memory) {\n        Insurer storage cI = insurerMap[_id];\n        emit idList(cI.providers);\n        return(cI.providers);\n    }\n\n    function getPatient(bytes32 _id) public returns (Patient memory){\n        Patient memory patient = patientMap[_id];\n        emit PatientRetrieval(patient);\n        return patient;\n    }\n\n    function getProvider(bytes32 _id) public returns (Provider memory){\n        Provider memory provider = providerMap[_id];\n        emit ProviderRetrieval(provider);\n        return providerMap[_id];\n    }\n\n\n    function patientUnclaimedServices(bytes32 _id) public returns (address[] memory){\n        Patient storage cP = patientMap[_id];\n        emit serviceList(cP.unclaimedServices);\n        return(cP.unclaimedServices);\n    }\n\n    function patientUnverifiedClaims(bytes32 _id) public returns (address[] memory){\n        Patient storage cP = patientMap[_id];\n        emit serviceList(cP.unverifiedClaims);\n        return(cP.unverifiedClaims);\n    }\n\n    function patientVerifiedClaims(bytes32 _id) public returns (address[] memory){\n        Patient storage cP = patientMap[_id];\n        emit serviceList(cP.verifiedClaims);\n        return(cP.verifiedClaims);\n    }\n\n\n\n    function setAdmin(uint _num) public {\n        admin = _num;\n    }\n\n\n    function getAdmin() public view returns (uint) {\n        return admin;\n    }\n\n\n\n// TODO\n    // function insurerUnpaidClaims(bytes32 _id) public {\n    // }\n    // function insurerPaidClaims(bytes32 _id) public {\n\n    // }\n\n    // function providerUnpaidClaims(bytes32 _id) public {\n\n    // }\n\n    //  function providerPaidClaims(bytes32 _id) public {\n    // }\n}\n",
  "sourcePath": "/Users/danny/sdsc-blocklab/Medicare-Claim-Verification/contracts/Organizations.sol",
  "compiler": {
    "name": "solc",
    "version": "0.5.11+commit.c082d0b4.Emscripten.clang"
  },
  "schemaVersion": "3.0.11",
  "updatedAt": "2019-09-06T22:41:39.615Z",
  "devdoc": {
    "methods": {
      "addInsurer(string)": {
        "details": "add an insurnace provider to the network",
        "params": {
          "_name": "the name of the insurance provider"
        },
        "return": "pID of the insurance provider"
      },
      "addPatient(string,bytes32)": {
        "details": "add a patient to the network",
        "params": {
          "_name": "is the name of the patient",
          "_providerID": "is the current provider of the patient"
        },
        "return": "pID is a bytes32 represented id number for the patient"
      },
      "addProvider(string,bytes32)": {
        "details": "add a provider to the network",
        "params": {
          "_insurerID": "id of insurance provider",
          "_name": "name of the provider"
        },
        "return": "the pID of the health provider -"
      },
      "fileClaim(bytes32,uint256)": {
        "details": "add a claim to a ServiceClaim contract i.e. the provider wants to file a claim for a service rendered",
        "params": {
          "_amount": "the amount to be claimed by the provider",
          "_serviceClaimID": "the ID of the ServiceClaim contract"
        },
        "return": "ClaimID the ID of the claim"
      },
      "payProvider(bytes32)": {
        "details": "invoke the payProvider function in the ServiceClaim contract",
        "params": {
          "_serviceClaimID": "the id of the ServiceClaim contract"
        }
      },
      "provideService(string,bytes32,bytes32)": {
        "details": "create an instance of a ServiceClaim contract",
        "params": {
          "_name": "name of the service",
          "_patientID": "patient ID",
          "_providerID": "provider ID"
        },
        "return": "serviceContractHash is the id of the ServiceClaim contract"
      },
      "verifyClaim(bytes32)": {
        "details": "invoke the verifyClaim function in the ServiceClaim contract",
        "params": {
          "_serviceClaimID": "the id of the ServiceClaim contract"
        }
      }
    }
  },
  "userdoc": {
    "methods": {}
  }
}