{
  "contractName": "Organizations",
  "abi": [
    {
      "constant": true,
      "inputs": [
        {
          "internalType": "bytes32",
          "name": "",
          "type": "bytes32"
        }
      ],
      "name": "serviceClaimsMap",
      "outputs": [
        {
          "internalType": "address",
          "name": "",
          "type": "address"
        }
      ],
      "payable": false,
      "stateMutability": "view",
      "type": "function"
    },
    {
      "constant": true,
      "inputs": [
        {
          "internalType": "bytes32",
          "name": "",
          "type": "bytes32"
        }
      ],
      "name": "providerMap",
      "outputs": [
        {
          "internalType": "bytes32",
          "name": "id",
          "type": "bytes32"
        },
        {
          "internalType": "string",
          "name": "name",
          "type": "string"
        }
      ],
      "payable": false,
      "stateMutability": "view",
      "type": "function"
    },
    {
      "constant": true,
      "inputs": [
        {
          "internalType": "address",
          "name": "",
          "type": "address"
        }
      ],
      "name": "serviceName",
      "outputs": [
        {
          "internalType": "string",
          "name": "",
          "type": "string"
        }
      ],
      "payable": false,
      "stateMutability": "view",
      "type": "function"
    },
    {
      "constant": true,
      "inputs": [
        {
          "internalType": "bytes32",
          "name": "",
          "type": "bytes32"
        }
      ],
      "name": "insurerMap",
      "outputs": [
        {
          "internalType": "bytes32",
          "name": "id",
          "type": "bytes32"
        },
        {
          "internalType": "string",
          "name": "name",
          "type": "string"
        }
      ],
      "payable": false,
      "stateMutability": "view",
      "type": "function"
    },
    {
      "constant": true,
      "inputs": [
        {
          "internalType": "bytes32",
          "name": "",
          "type": "bytes32"
        }
      ],
      "name": "patientMap",
      "outputs": [
        {
          "internalType": "bytes32",
          "name": "id",
          "type": "bytes32"
        },
        {
          "internalType": "string",
          "name": "name",
          "type": "string"
        }
      ],
      "payable": false,
      "stateMutability": "view",
      "type": "function"
    },
    {
      "inputs": [],
      "payable": false,
      "stateMutability": "nonpayable",
      "type": "constructor"
    },
    {
      "anonymous": false,
      "inputs": [
        {
          "indexed": false,
          "internalType": "bytes32",
          "name": "ID",
          "type": "bytes32"
        },
        {
          "indexed": false,
          "internalType": "address",
          "name": "addr",
          "type": "address"
        }
      ],
      "name": "SCID",
      "type": "event"
    },
    {
      "anonymous": false,
      "inputs": [
        {
          "indexed": false,
          "internalType": "uint256",
          "name": "id",
          "type": "uint256"
        },
        {
          "indexed": false,
          "internalType": "uint256",
          "name": "amount",
          "type": "uint256"
        }
      ],
      "name": "ClaimCreated",
      "type": "event"
    },
    {
      "anonymous": false,
      "inputs": [
        {
          "indexed": false,
          "internalType": "address",
          "name": "addr",
          "type": "address"
        }
      ],
      "name": "ClaimVerified",
      "type": "event"
    },
    {
      "anonymous": false,
      "inputs": [
        {
          "indexed": false,
          "internalType": "bytes32",
          "name": "id",
          "type": "bytes32"
        },
        {
          "indexed": false,
          "internalType": "string",
          "name": "name",
          "type": "string"
        }
      ],
      "name": "PatientCreated",
      "type": "event"
    },
    {
      "anonymous": false,
      "inputs": [
        {
          "indexed": false,
          "internalType": "bytes32",
          "name": "id",
          "type": "bytes32"
        },
        {
          "indexed": false,
          "internalType": "string",
          "name": "name",
          "type": "string"
        }
      ],
      "name": "ProviderCreated",
      "type": "event"
    },
    {
      "anonymous": false,
      "inputs": [
        {
          "indexed": false,
          "internalType": "bytes32",
          "name": "id",
          "type": "bytes32"
        },
        {
          "indexed": false,
          "internalType": "string",
          "name": "name",
          "type": "string"
        }
      ],
      "name": "InsurerCreated",
      "type": "event"
    },
    {
      "anonymous": false,
      "inputs": [
        {
          "components": [
            {
              "internalType": "bytes32",
              "name": "id",
              "type": "bytes32"
            },
            {
              "internalType": "string",
              "name": "name",
              "type": "string"
            },
            {
              "internalType": "address[]",
              "name": "unclaimedServices",
              "type": "address[]"
            },
            {
              "internalType": "address[]",
              "name": "unverifiedClaims",
              "type": "address[]"
            },
            {
              "internalType": "address[]",
              "name": "verifiedClaims",
              "type": "address[]"
            }
          ],
          "indexed": false,
          "internalType": "struct Organizations.Patient",
          "name": "patient",
          "type": "tuple"
        }
      ],
      "name": "PatientRetrieval",
      "type": "event"
    },
    {
      "anonymous": false,
      "inputs": [
        {
          "components": [
            {
              "internalType": "bytes32",
              "name": "id",
              "type": "bytes32"
            },
            {
              "internalType": "string",
              "name": "name",
              "type": "string"
            },
            {
              "internalType": "bytes32[]",
              "name": "patients",
              "type": "bytes32[]"
            }
          ],
          "indexed": false,
          "internalType": "struct Organizations.Provider",
          "name": "provider",
          "type": "tuple"
        }
      ],
      "name": "ProviderRetrieval",
      "type": "event"
    },
    {
      "anonymous": false,
      "inputs": [
        {
          "indexed": false,
          "internalType": "address",
          "name": "addr",
          "type": "address"
        },
        {
          "indexed": false,
          "internalType": "bytes32",
          "name": "id",
          "type": "bytes32"
        },
        {
          "indexed": false,
          "internalType": "bytes32",
          "name": "provider",
          "type": "bytes32"
        },
        {
          "indexed": false,
          "internalType": "bytes32",
          "name": "patient",
          "type": "bytes32"
        },
        {
          "indexed": false,
          "internalType": "uint256",
          "name": "amount",
          "type": "uint256"
        },
        {
          "indexed": false,
          "internalType": "bool",
          "name": "verified",
          "type": "bool"
        },
        {
          "indexed": false,
          "internalType": "bool",
          "name": "payed",
          "type": "bool"
        }
      ],
      "name": "ServiceClaimInfo",
      "type": "event"
    },
    {
      "anonymous": false,
      "inputs": [
        {
          "indexed": false,
          "internalType": "bytes32[]",
          "name": "ids",
          "type": "bytes32[]"
        }
      ],
      "name": "idList",
      "type": "event"
    },
    {
      "anonymous": false,
      "inputs": [
        {
          "indexed": false,
          "internalType": "address[]",
          "name": "services",
          "type": "address[]"
        }
      ],
      "name": "serviceList",
      "type": "event"
    },
    {
      "anonymous": false,
      "inputs": [
        {
          "indexed": false,
          "internalType": "string",
          "name": "name",
          "type": "string"
        }
      ],
      "name": "SCName",
      "type": "event"
    },
    {
      "anonymous": false,
      "inputs": [
        {
          "components": [
            {
              "internalType": "address",
              "name": "scAddr",
              "type": "address"
            },
            {
              "internalType": "bytes32",
              "name": "id",
              "type": "bytes32"
            },
            {
              "internalType": "bytes32",
              "name": "insurerID",
              "type": "bytes32"
            },
            {
              "internalType": "bytes32",
              "name": "providerID",
              "type": "bytes32"
            },
            {
              "internalType": "bytes32",
              "name": "patientID",
              "type": "bytes32"
            },
            {
              "internalType": "string",
              "name": "name",
              "type": "string"
            },
            {
              "internalType": "uint256",
              "name": "amount",
              "type": "uint256"
            },
            {
              "internalType": "bool",
              "name": "verified",
              "type": "bool"
            },
            {
              "internalType": "bool",
              "name": "paid",
              "type": "bool"
            }
          ],
          "indexed": false,
          "internalType": "struct Organizations.SC",
          "name": "",
          "type": "tuple"
        }
      ],
      "name": "SCEvent",
      "type": "event"
    },
    {
      "constant": false,
      "inputs": [],
      "name": "preLoadInfo",
      "outputs": [],
      "payable": false,
      "stateMutability": "nonpayable",
      "type": "function"
    },
    {
      "constant": false,
      "inputs": [
        {
          "internalType": "string",
          "name": "_name",
          "type": "string"
        },
        {
          "internalType": "bytes32",
          "name": "_providerID",
          "type": "bytes32"
        }
      ],
      "name": "addPatient",
      "outputs": [
        {
          "internalType": "bytes32",
          "name": "pID",
          "type": "bytes32"
        }
      ],
      "payable": false,
      "stateMutability": "nonpayable",
      "type": "function"
    },
    {
      "constant": false,
      "inputs": [
        {
          "internalType": "string",
          "name": "_name",
          "type": "string"
        },
        {
          "internalType": "bytes32",
          "name": "_insurerID",
          "type": "bytes32"
        }
      ],
      "name": "addProvider",
      "outputs": [
        {
          "internalType": "bytes32",
          "name": "pID",
          "type": "bytes32"
        }
      ],
      "payable": false,
      "stateMutability": "nonpayable",
      "type": "function"
    },
    {
      "constant": false,
      "inputs": [
        {
          "internalType": "string",
          "name": "_name",
          "type": "string"
        }
      ],
      "name": "addInsurer",
      "outputs": [
        {
          "internalType": "bytes32",
          "name": "pID",
          "type": "bytes32"
        }
      ],
      "payable": false,
      "stateMutability": "nonpayable",
      "type": "function"
    },
    {
      "constant": false,
      "inputs": [
        {
          "internalType": "string",
          "name": "_name",
          "type": "string"
        },
        {
          "internalType": "bytes32",
          "name": "_providerID",
          "type": "bytes32"
        },
        {
          "internalType": "bytes32",
          "name": "_patientID",
          "type": "bytes32"
        }
      ],
      "name": "provideService",
      "outputs": [
        {
          "internalType": "bytes32",
          "name": "serviceContractHash",
          "type": "bytes32"
        }
      ],
      "payable": false,
      "stateMutability": "nonpayable",
      "type": "function"
    },
    {
      "constant": false,
      "inputs": [
        {
          "internalType": "bytes32",
          "name": "_serviceClaimID",
          "type": "bytes32"
        },
        {
          "internalType": "uint256",
          "name": "_amount",
          "type": "uint256"
        }
      ],
      "name": "fileClaim",
      "outputs": [
        {
          "internalType": "uint256",
          "name": "ClaimID",
          "type": "uint256"
        }
      ],
      "payable": false,
      "stateMutability": "nonpayable",
      "type": "function"
    },
    {
      "constant": false,
      "inputs": [
        {
          "internalType": "address",
          "name": "_serviceClaimAddress",
          "type": "address"
        }
      ],
      "name": "verifyClaim",
      "outputs": [],
      "payable": false,
      "stateMutability": "nonpayable",
      "type": "function"
    },
    {
      "constant": false,
      "inputs": [
        {
          "internalType": "bytes32",
          "name": "_serviceClaimID",
          "type": "bytes32"
        }
      ],
      "name": "payProvider",
      "outputs": [],
      "payable": false,
      "stateMutability": "nonpayable",
      "type": "function"
    },
    {
      "constant": false,
      "inputs": [
        {
          "internalType": "bytes32",
          "name": "_id",
          "type": "bytes32"
        }
      ],
      "name": "patientsOfProvider",
      "outputs": [
        {
          "internalType": "bytes32[]",
          "name": "",
          "type": "bytes32[]"
        }
      ],
      "payable": false,
      "stateMutability": "nonpayable",
      "type": "function"
    },
    {
      "constant": false,
      "inputs": [
        {
          "internalType": "bytes32",
          "name": "_id",
          "type": "bytes32"
        }
      ],
      "name": "providersOfInsurer",
      "outputs": [
        {
          "internalType": "bytes32[]",
          "name": "",
          "type": "bytes32[]"
        }
      ],
      "payable": false,
      "stateMutability": "nonpayable",
      "type": "function"
    },
    {
      "constant": false,
      "inputs": [
        {
          "internalType": "bytes32",
          "name": "_id",
          "type": "bytes32"
        }
      ],
      "name": "getPatient",
      "outputs": [
        {
          "internalType": "bool",
          "name": "",
          "type": "bool"
        }
      ],
      "payable": false,
      "stateMutability": "nonpayable",
      "type": "function"
    },
    {
      "constant": false,
      "inputs": [
        {
          "internalType": "bytes32",
          "name": "_id",
          "type": "bytes32"
        }
      ],
      "name": "getProvider",
      "outputs": [
        {
          "components": [
            {
              "internalType": "bytes32",
              "name": "id",
              "type": "bytes32"
            },
            {
              "internalType": "string",
              "name": "name",
              "type": "string"
            },
            {
              "internalType": "bytes32[]",
              "name": "patients",
              "type": "bytes32[]"
            }
          ],
          "internalType": "struct Organizations.Provider",
          "name": "",
          "type": "tuple"
        }
      ],
      "payable": false,
      "stateMutability": "nonpayable",
      "type": "function"
    },
    {
      "constant": false,
      "inputs": [
        {
          "internalType": "bytes32",
          "name": "_id",
          "type": "bytes32"
        }
      ],
      "name": "patientUnclaimedServices",
      "outputs": [
        {
          "internalType": "address[]",
          "name": "",
          "type": "address[]"
        }
      ],
      "payable": false,
      "stateMutability": "nonpayable",
      "type": "function"
    },
    {
      "constant": false,
      "inputs": [
        {
          "internalType": "bytes32",
          "name": "_id",
          "type": "bytes32"
        }
      ],
      "name": "patientUnverifiedClaims",
      "outputs": [
        {
          "internalType": "address[]",
          "name": "",
          "type": "address[]"
        }
      ],
      "payable": false,
      "stateMutability": "nonpayable",
      "type": "function"
    },
    {
      "constant": false,
      "inputs": [
        {
          "internalType": "bytes32",
          "name": "_id",
          "type": "bytes32"
        }
      ],
      "name": "patientVerifiedClaims",
      "outputs": [
        {
          "internalType": "address[]",
          "name": "",
          "type": "address[]"
        }
      ],
      "payable": false,
      "stateMutability": "nonpayable",
      "type": "function"
    },
    {
      "constant": false,
      "inputs": [
        {
          "internalType": "uint256",
          "name": "_num",
          "type": "uint256"
        }
      ],
      "name": "setAdmin",
      "outputs": [],
      "payable": false,
      "stateMutability": "nonpayable",
      "type": "function"
    },
    {
      "constant": true,
      "inputs": [],
      "name": "getAdmin",
      "outputs": [
        {
          "internalType": "uint256",
          "name": "",
          "type": "uint256"
        }
      ],
      "payable": false,
      "stateMutability": "view",
      "type": "function"
    },
    {
      "constant": false,
      "inputs": [],
      "name": "getAllServices",
      "outputs": [],
      "payable": false,
      "stateMutability": "nonpayable",
      "type": "function"
    },
    {
      "constant": false,
      "inputs": [],
      "name": "getAllVerifiedServices",
      "outputs": [],
      "payable": false,
      "stateMutability": "nonpayable",
      "type": "function"
    },
    {
      "constant": false,
      "inputs": [],
      "name": "getAllUnverifiedServices",
      "outputs": [],
      "payable": false,
      "stateMutability": "nonpayable",
      "type": "function"
    }
  ],
  "bytecode": "0x60806040523480156200001157600080fd5b50620000256001600160e01b036200002b16565b620007e2565b6000620000736040518060400160405280600381526020017f434d530000000000000000000000000000000000000000000000000000000000815250620001a060201b60201c565b90506000620000be6040518060400160405280600c81526020017f55435344204d65646963616c0000000000000000000000000000000000000000815250836200028a60201b60201c565b9050620001076040518060400160405280600381526020017f4b656e000000000000000000000000000000000000000000000000000000000081525082620003a160201b60201c565b5060408051808201909152600581527f44616e6e7900000000000000000000000000000000000000000000000000000060208201526200015190826001600160e01b03620003a116565b5060408051808201909152600781527f416e746f6e696f0000000000000000000000000000000000000000000000000060208201526200019b90826001600160e01b03620003a116565b505050565b60008082604051602001620001b6919062000752565b6040516020818303038152906040528051906020012090506060620001da62000507565b50604080516060810182528381526020808201878152828401859052600086815260058352939093208251815592518051929384939092620002249260018501929101906200052b565b506040820151805162000242916002840191602090910190620005b0565b509050507ff73cee28a98c20f23a903356ab57dc8c514e66b0488c994b09dec06f978c839b83866040516200027992919062000767565b60405180910390a150909392505050565b60008083604051602001620002a0919062000752565b6040516020818303038152906040528051906020012090506060620002c462000507565b506040805160608101825283815260208082018881528284018590526000868152600483529390932082518155925180519293849390926200030e9260018501929101906200052b565b50604082015180516200032c916002840191602090910190620005b0565b50505060008581526005602090815260408083208451600290910180546001810182559085529290932090910191909155517f7dd222c7de5c7ba42d121aa7e2acc9d5d4a47c2eb31f55385cf51cbe459c5c9b906200038f908590899062000767565b60405180910390a15090949350505050565b60008083604051602001620003b7919062000752565b6040516020818303038152906040528051906020012090506060806060620003de620005ed565b506040805160a08101825285815260208082018a81528284018790526060830186905260808301859052600088815260038352939093208251815592518051929384939092620004369260018501929101906200052b565b5060408201518051620004549160028401916020909101906200061f565b5060608201518051620004729160038401916020909101906200061f565b5060808201518051620004909160048401916020909101906200061f565b50505060008781526004602090815260408083208451600290910180546001810182559085529290932090910191909155517f86ec8adc6f97da0327b3e1dcc24fa25aea5eb7afcf6af08792e4b2d4d799fad890620004f39087908b9062000767565b60405180910390a150929695505050505050565b60405180606001604052806000801916815260200160608152602001606081525090565b828054600181600116156101000203166002900490600052602060002090601f016020900481019282601f106200056e57805160ff19168380011785556200059e565b828001600101855582156200059e579182015b828111156200059e57825182559160200191906001019062000581565b50620005ac92915062000685565b5090565b8280548282559060005260206000209081019282156200059e57916020028201828111156200059e57825182559160200191906001019062000581565b6040518060a0016040528060008019168152602001606081526020016060815260200160608152602001606081525090565b82805482825590600052602060002090810192821562000677579160200282015b828111156200067757825182546001600160a01b0319166001600160a01b0390911617825560209092019160019091019062000640565b50620005ac929150620006a5565b620006a291905b80821115620005ac57600081556001016200068c565b90565b620006a291905b80821115620005ac5780546001600160a01b0319168155600101620006ac565b620006d781620006a2565b82525050565b6000620006ea8262000793565b620006f6818562000797565b935062000708818560208601620007a5565b6200071381620007d8565b9093019392505050565b60006200072a8262000793565b620007368185620007a0565b935062000748818560208601620007a5565b9290920192915050565b60006200076082846200071d565b9392505050565b60408101620007778285620006cc565b81810360208301526200078b8184620006dd565b949350505050565b5190565b90815260200190565b919050565b60005b83811015620007c2578181015183820152602001620007a8565b83811115620007d2576000848401525b50505050565b601f01601f191690565b613bba80620007f26000396000f3fe60806040523480156200001157600080fd5b5060043610620001965760003560e01c80636e9960c311620000f3578063a46bfff911620000a5578063e0e87b1a116200007b578063e0e87b1a14620003ce578063e459593614620003e5578063ece7ac2b14620003ef578063ee3d52b314620004065762000196565b8063a46bfff91462000389578063a80d520c14620003a0578063dd23892514620003b75762000196565b80636e9960c314620002ee578063740044b414620002f85780637899a34e146200030f57806392398fbb14620003355780639594c99e146200034c5780639c860b8a14620003635762000196565b806333c0950a116200014d57806333c0950a146200025357806333fc83f7146200027957806339160aa7146200029f5780633e7e072e14620002b65780633f1e172d14620002cd57806340f1065314620002d75762000196565b8063085683ff146200019b5780631bf78b3514620001ca57806321dd828514620001d657806321fe0f3014620001fc5780632470d25e14620002065780632bde2a86146200022c575b600080fd5b620001b2620001ac36600462002c5d565b6200041d565b604051620001c19190620032cf565b60405180910390f35b620001d4620007b4565b005b620001ed620001e736600462002b30565b62000b6a565b604051620001c1919062003273565b620001d462000ca8565b6200021d6200021736600462002b30565b62000fed565b604051620001c19190620031ed565b620002436200023d36600462002b30565b62001008565b604051620001c19291906200334a565b6200026a6200026436600462002b30565b620010b3565b604051620001c19190620033b9565b620002906200028a36600462002ae6565b6200135a565b604051620001c191906200336e565b62000243620002b036600462002b30565b620013f9565b620001b2620002c736600462002c23565b6200146e565b620001d462001587565b620001b2620002e836600462002b72565b62001667565b620001b2620018fc565b620001b26200030936600462002c23565b62001903565b620003266200032036600462002b30565b62001a69565b604051620001c19190620032bf565b620002436200034636600462002b30565b62001cb3565b620001ed6200035d36600462002b30565b62001d28565b6200037a6200037436600462002b30565b62001e69565b604051620001c1919062003299565b6200037a6200039a36600462002b30565b62001f15565b620001d4620003b136600462002ae6565b62001f5d565b620001b2620003c836600462002bea565b62002176565b620001d4620003df36600462002b30565b62002260565b620001d4620022ef565b620001ed6200040036600462002b30565b620026a8565b620001d46200041736600462002b30565b620027e9565b6000808484846040516020016200043793929190620031b4565b6040516020818303038152906040528051906020012090506000848483886040516200046390620027ee565b620004729493929190620032fe565b604051809103906000f0801580156200048f573d6000803e3d6000fd5b509050600081604051602001620004a791906200318f565b604051602081830303815290604052805190602001209050620004c9620027fc565b5060408051610120810182526001600160a01b038481168252602080830185815260088054958501958652606085018c8152608086018c815260a087018f8152600060c0890181905260e08901819052610100890181905260098054600181018083559190925289517f6e1540171b6c0c960b71a7020d9f60077f6af931a8bbf590da0223dacf75c7af9290960291820180546001600160a01b0319169690991695909517885594517f6e1540171b6c0c960b71a7020d9f60077f6af931a8bbf590da0223dacf75c7b086015597517f6e1540171b6c0c960b71a7020d9f60077f6af931a8bbf590da0223dacf75c7b185015590517f6e1540171b6c0c960b71a7020d9f60077f6af931a8bbf590da0223dacf75c7b2840155517f6e1540171b6c0c960b71a7020d9f60077f6af931a8bbf590da0223dacf75c7b38301559451805194959486949362000641937f6e1540171b6c0c960b71a7020d9f60077f6af931a8bbf590da0223dacf75c7b40192019062002847565b5060c082015160068281019190915560e0830151600792830180546101009586015160ff199091169215159290921761ff0019169115159094021790925560008581526020928352604080822080546001600160a01b03199081166001600160a01b038b169081179092558c845260038652828420600281018054600181018255908652878620018054909216831790915590835292845290208b51919350620006f1929091908c019062002847565b506001600160a01b0384166000908152600a602090815260409091208a516200071d928c019062002847565b50600b80546001810182556000919091527f0175b7a638427703f0dbe7bb9bbf987a2551717b34e79f33b5b1008d1fa01db90180546001600160a01b0319166001600160a01b0386161790556040517f2cdb195d7226065901c0e37d742237ac3e30d6dc0ce7faf49701f6ec9f0bd1ed906200079d9085908790620032df565b60405180910390a1509093505050505b9392505050565b60005b600b5481101562000b67576000600b8281548110620007d257fe5b600091825260209182902001546040805163bbb82d8960e01b815290516001600160a01b039092169350839263bbb82d8992600480840193829003018186803b1580156200081f57600080fd5b505afa15801562000834573d6000803e3d6000fd5b505050506040513d601f19601f820116820180604052506200085a919081019062002b0f565b62000b5d577f41f04373d035d93a7e9a48697ed8b5b868d8dae03bec33da84c5f5235bbe3dfa81826001600160a01b0316631be37f406040518163ffffffff1660e01b815260040160206040518083038186803b158015620008bb57600080fd5b505afa158015620008d0573d6000803e3d6000fd5b505050506040513d601f19601f82011682018060405250620008f6919081019062002b51565b836001600160a01b031663596ada676040518163ffffffff1660e01b815260040160206040518083038186803b1580156200093057600080fd5b505afa15801562000945573d6000803e3d6000fd5b505050506040513d601f19601f820116820180604052506200096b919081019062002b51565b846001600160a01b031663f680a7bd6040518163ffffffff1660e01b815260040160206040518083038186803b158015620009a557600080fd5b505afa158015620009ba573d6000803e3d6000fd5b505050506040513d601f19601f82011682018060405250620009e0919081019062002b51565b856001600160a01b031663aa8c217c6040518163ffffffff1660e01b815260040160206040518083038186803b15801562000a1a57600080fd5b505afa15801562000a2f573d6000803e3d6000fd5b505050506040513d601f19601f8201168201806040525062000a55919081019062002b51565b866001600160a01b031663bbb82d896040518163ffffffff1660e01b815260040160206040518083038186803b15801562000a8f57600080fd5b505afa15801562000aa4573d6000803e3d6000fd5b505050506040513d601f19601f8201168201806040525062000aca919081019062002b0f565b876001600160a01b031663295b4e176040518163ffffffff1660e01b815260040160206040518083038186803b15801562000b0457600080fd5b505afa15801562000b19573d6000803e3d6000fd5b505050506040513d601f19601f8201168201806040525062000b3f919081019062002b0f565b60405162000b549796959493929190620031fd565b60405180910390a15b50600101620007b7565b50565b60008181526003602052604081206060915b600382015481101562000c04577f35b7f39ce99df9443c69ab69269e1ae96c0add252abdcce625838b4c386c6236600a600084600301848154811062000bbe57fe5b60009182526020808320909101546001600160a01b031683528201929092526040908101909120905162000bf3919062003381565b60405180910390a160010162000b7c565b507fa1c275d9147cd4bbf3a6fc6b01df2bdad7272d62a5bea8ea5f90e20e7c3f48e98160030160405162000c39919062003286565b60405180910390a18060030180548060200260200160405190810160405280929190818152602001828054801562000c9b57602002820191906000526020600020905b81546001600160a01b0316815260019091019060200180831162000c7c575b5050505050915050919050565b60005b600b5481101562000b67576000600b828154811062000cc657fe5b9060005260206000200160009054906101000a90046001600160a01b031690507f41f04373d035d93a7e9a48697ed8b5b868d8dae03bec33da84c5f5235bbe3dfa81826001600160a01b0316631be37f406040518163ffffffff1660e01b815260040160206040518083038186803b15801562000d4257600080fd5b505afa15801562000d57573d6000803e3d6000fd5b505050506040513d601f19601f8201168201806040525062000d7d919081019062002b51565b836001600160a01b031663596ada676040518163ffffffff1660e01b815260040160206040518083038186803b15801562000db757600080fd5b505afa15801562000dcc573d6000803e3d6000fd5b505050506040513d601f19601f8201168201806040525062000df2919081019062002b51565b846001600160a01b031663f680a7bd6040518163ffffffff1660e01b815260040160206040518083038186803b15801562000e2c57600080fd5b505afa15801562000e41573d6000803e3d6000fd5b505050506040513d601f19601f8201168201806040525062000e67919081019062002b51565b856001600160a01b031663aa8c217c6040518163ffffffff1660e01b815260040160206040518083038186803b15801562000ea157600080fd5b505afa15801562000eb6573d6000803e3d6000fd5b505050506040513d601f19601f8201168201806040525062000edc919081019062002b51565b866001600160a01b031663bbb82d896040518163ffffffff1660e01b815260040160206040518083038186803b15801562000f1657600080fd5b505afa15801562000f2b573d6000803e3d6000fd5b505050506040513d601f19601f8201168201806040525062000f51919081019062002b0f565b876001600160a01b031663295b4e176040518163ffffffff1660e01b815260040160206040518083038186803b15801562000f8b57600080fd5b505afa15801562000fa0573d6000803e3d6000fd5b505050506040513d601f19601f8201168201806040525062000fc6919081019062002b0f565b60405162000fdb9796959493929190620031fd565b60405180910390a15060010162000cab565b6006602052600090815260409020546001600160a01b031681565b6004602090815260009182526040918290208054600180830180548651600293821615610100026000190190911692909204601f810186900486028301860190965285825291949293909290830182828015620010a95780601f106200107d57610100808354040283529160200191620010a9565b820191906000526020600020905b8154815290600101906020018083116200108b57829003601f168201915b5050505050905082565b620010bd620028cc565b620010c7620028cc565b6004600084815260200190815260200160002060405180606001604052908160008201548152602001600182018054600181600116156101000203166002900480601f0160208091040260200160405190810160405280929190818152602001828054600181600116156101000203166002900480156200118c5780601f1062001160576101008083540402835291602001916200118c565b820191906000526020600020905b8154815290600101906020018083116200116e57829003601f168201915b5050505050815260200160028201805480602002602001604051908101604052809291908181526020018280548015620011e657602002820191906000526020600020905b815481526020019060010190808311620011d1575b50505050508152505090507f8c6b3078bf6d713aeae5b1ccc2dfea387cbb876de1a5c9d81a4e22d4e832c54681604051620012229190620033b9565b60405180910390a16004600084815260200190815260200160002060405180606001604052908160008201548152602001600182018054600181600116156101000203166002900480601f016020809104026020016040519081016040528092919081815260200182805460018160011615610100020316600290048015620012ef5780601f10620012c357610100808354040283529160200191620012ef565b820191906000526020600020905b815481529060010190602001808311620012d157829003601f168201915b50505050508152602001600282018054806020026020016040519081016040528092919081815260200182805480156200134957602002820191906000526020600020905b81548152602001906001019080831162001334575b505050505081525050915050919050565b60076020908152600091825260409182902080548351601f600260001961010060018616150201909316929092049182018490048402810184019094528084529091830182828015620013f15780601f10620013c557610100808354040283529160200191620013f1565b820191906000526020600020905b815481529060010190602001808311620013d357829003601f168201915b505050505081565b6005602090815260009182526040918290208054600180830180548651600293821615610100026000190190911692909204601f810186900486028301860190965285825291949293909290830182828015620010a95780601f106200107d57610100808354040283529160200191620010a9565b60008083604051602001620014849190620031a6565b6040516020818303038152906040528051906020012090506060620014a8620028cc565b50604080516060810182528381526020808201888152828401859052600086815260048352939093208251815592518051929384939092620014f292600185019291019062002847565b506040820151805162001510916002840191602090910190620028f0565b50505060008581526005602090815260408083208451600290910180546001810182559085529290932090910191909155517f7dd222c7de5c7ba42d121aa7e2acc9d5d4a47c2eb31f55385cf51cbe459c5c9b906200157390859089906200334a565b60405180910390a150909150505b92915050565b6000620015af60405180604001604052806003815260200162434d5360e81b81525062002176565b90506000620015e36040518060400160405280600c81526020016b1550d4d1081359591a58d85b60a21b815250836200146e565b90506200160c6040518060400160405280600381526020016225b2b760e91b8152508262001903565b50620016366040518060400160405280600581526020016444616e6e7960d81b8152508262001903565b506200166260405180604001604052806007815260200166416e746f6e696f60c81b8152508262001903565b505050565b60008281526006602052604080822054905163d61909f960e01b81526001600160a01b03909116908290829063d61909f990620016a9908790600401620032cf565b602060405180830381600087803b158015620016c457600080fd5b505af1158015620016d9573d6000803e3d6000fd5b505050506040513d601f19601f82011682018060405250620016ff919081019062002b51565b90506000826001600160a01b031663f680a7bd6040518163ffffffff1660e01b815260040160206040518083038186803b1580156200173d57600080fd5b505afa15801562001752573d6000803e3d6000fd5b505050506040513d601f19601f8201168201806040525062001778919081019062002b51565b60008181526003602052604081209192505b60028201548110156200180557846001600160a01b0316826002018281548110620017b157fe5b6000918252602090912001546001600160a01b03161415620017fc57816002018181548110620017dd57fe5b600091825260209091200180546001600160a01b031916905562001805565b6001016200178a565b506060846001600160a01b03166306fdde036040518163ffffffff1660e01b815260040160006040518083038186803b1580156200184257600080fd5b505afa15801562001857573d6000803e3d6000fd5b505050506040513d6000823e601f3d908101601f1916820160405262001881919081019062002bb1565b600383018054600181018255600091825260209091200180546001600160a01b0319166001600160a01b0388161790556040519091507f96e3875898071e5d91932eb150a3914f9fe70e473f6faeaad697e99a48937c9c90620018e89086908a90620033cc565b60405180910390a150919695505050505050565b6000545b90565b60008083604051602001620019199190620031a6565b6040516020818303038152906040528051906020012090506060806060620019406200292d565b506040805160a08101825285815260208082018a815282840187905260608301869052608083018590526000888152600383529390932082518155925180519293849390926200199892600185019291019062002847565b5060408201518051620019b69160028401916020909101906200295f565b5060608201518051620019d49160038401916020909101906200295f565b5060808201518051620019f29160048401916020909101906200295f565b50505060008781526004602090815260408083208451600290910180546001810182559085529290932090910191909155517f86ec8adc6f97da0327b3e1dcc24fa25aea5eb7afcf6af08792e4b2d4d799fad89062001a559087908b906200334a565b60405180910390a150929695505050505050565b600062001a756200292d565b600360008481526020019081526020016000206040518060a001604052908160008201548152602001600182018054600181600116156101000203166002900480601f01602080910402602001604051908101604052809291908181526020018280546001816001161561010002031660029004801562001b3a5780601f1062001b0e5761010080835404028352916020019162001b3a565b820191906000526020600020905b81548152906001019060200180831162001b1c57829003601f168201915b505050505081526020016002820180548060200260200160405190810160405280929190818152602001828054801562001b9e57602002820191906000526020600020905b81546001600160a01b0316815260019091019060200180831162001b7f575b505050505081526020016003820180548060200260200160405190810160405280929190818152602001828054801562001c0257602002820191906000526020600020905b81546001600160a01b0316815260019091019060200180831162001be3575b505050505081526020016004820180548060200260200160405190810160405280929190818152602001828054801562001c6657602002820191906000526020600020905b81546001600160a01b0316815260019091019060200180831162001c47575b50505050508152505090507f7822df68ea6ba88fa17a55a6c6fe1f7207c1653493392725ce9da7f61f8b601d8160405162001ca29190620033a6565b60405180910390a150600192915050565b6003602090815260009182526040918290208054600180830180548651600293821615610100026000190190911692909204601f810186900486028301860190965285825291949293909290830182828015620010a95780601f106200107d57610100808354040283529160200191620010a9565b600081815260036020526040908190209051606091907fa1c275d9147cd4bbf3a6fc6b01df2bdad7272d62a5bea8ea5f90e20e7c3f48e99062001d7090600284019062003286565b60405180910390a160005b600282015481101562001e03577f35b7f39ce99df9443c69ab69269e1ae96c0add252abdcce625838b4c386c6236600a600084600201848154811062001dbd57fe5b60009182526020808320909101546001600160a01b031683528201929092526040908101909120905162001df2919062003381565b60405180910390a160010162001d7b565b508060020180548060200260200160405190810160405280929190818152602001828054801562000c9b576020028201919060005260206000209081546001600160a01b0316815260019091019060200180831162000c7c575050505050915050919050565b600081815260056020526040908190209051606091907f1c7aaf504355c6134470b4070ca50bf276d45d0205aa86ef6bd15c684ae710c49062001eb1906002840190620032ac565b60405180910390a18060020180548060200260200160405190810160405280929190818152602001828054801562000c9b57602002820191906000526020600020905b81548152602001906001019080831162001ef4575050505050915050919050565b600081815260046020526040908190209051606091907f1c7aaf504355c6134470b4070ca50bf276d45d0205aa86ef6bd15c684ae710c49062001eb1906002840190620032ac565b6000819050806001600160a01b031663844cdf096040518163ffffffff1660e01b8152600401602060405180830381600087803b15801562001f9e57600080fd5b505af115801562001fb3573d6000803e3d6000fd5b505050506040513d601f19601f8201168201806040525062001fd9919081019062002b0f565b620020015760405162461bcd60e51b815260040162001ff89062003394565b60405180910390fd5b6000816001600160a01b031663f680a7bd6040518163ffffffff1660e01b815260040160206040518083038186803b1580156200203d57600080fd5b505afa15801562002052573d6000803e3d6000fd5b505050506040513d601f19601f8201168201806040525062002078919081019062002b51565b60008181526003602052604081209192505b60038201548110156200210557836001600160a01b0316826003018281548110620020b157fe5b6000918252602090912001546001600160a01b03161415620020fc57816003018181548110620020dd57fe5b600091825260209091200180546001600160a01b031916905562002105565b6001016200208a565b50600481018054600181018255600091825260209091200180546001600160a01b0319166001600160a01b0385161790556040517fc03c381479e74431d2e456b259238f87292a5a827091c7386e197457ad47e19e9062002168908690620031ed565b60405180910390a150505050565b600080826040516020016200218c9190620031a6565b6040516020818303038152906040528051906020012090506060620021b0620028cc565b50604080516060810182528381526020808201878152828401859052600086815260058352939093208251815592518051929384939092620021fa92600185019291019062002847565b506040820151805162002218916002840191602090910190620028f0565b509050507ff73cee28a98c20f23a903356ab57dc8c514e66b0488c994b09dec06f978c839b83866040516200224f9291906200334a565b60405180910390a150909392505050565b60008181526006602090815260408083205481516398d6a37360e01b815291516001600160a01b039091169384936398d6a373936004808201949293918390030190829087803b158015620022b457600080fd5b505af1158015620022c9573d6000803e3d6000fd5b505050506040513d601f19601f8201168201806040525062001662919081019062002b0f565b60005b600b5481101562000b67576000600b82815481106200230d57fe5b600091825260209182902001546040805163bbb82d8960e01b815290516001600160a01b039092169350839263bbb82d8992600480840193829003018186803b1580156200235a57600080fd5b505afa1580156200236f573d6000803e3d6000fd5b505050506040513d601f19601f8201168201806040525062002395919081019062002b0f565b1515600114156200269e577f41f04373d035d93a7e9a48697ed8b5b868d8dae03bec33da84c5f5235bbe3dfa81826001600160a01b0316631be37f406040518163ffffffff1660e01b815260040160206040518083038186803b158015620023fc57600080fd5b505afa15801562002411573d6000803e3d6000fd5b505050506040513d601f19601f8201168201806040525062002437919081019062002b51565b836001600160a01b031663596ada676040518163ffffffff1660e01b815260040160206040518083038186803b1580156200247157600080fd5b505afa15801562002486573d6000803e3d6000fd5b505050506040513d601f19601f82011682018060405250620024ac919081019062002b51565b846001600160a01b031663f680a7bd6040518163ffffffff1660e01b815260040160206040518083038186803b158015620024e657600080fd5b505afa158015620024fb573d6000803e3d6000fd5b505050506040513d601f19601f8201168201806040525062002521919081019062002b51565b856001600160a01b031663aa8c217c6040518163ffffffff1660e01b815260040160206040518083038186803b1580156200255b57600080fd5b505afa15801562002570573d6000803e3d6000fd5b505050506040513d601f19601f8201168201806040525062002596919081019062002b51565b866001600160a01b031663bbb82d896040518163ffffffff1660e01b815260040160206040518083038186803b158015620025d057600080fd5b505afa158015620025e5573d6000803e3d6000fd5b505050506040513d601f19601f820116820180604052506200260b919081019062002b0f565b876001600160a01b031663295b4e176040518163ffffffff1660e01b815260040160206040518083038186803b1580156200264557600080fd5b505afa1580156200265a573d6000803e3d6000fd5b505050506040513d601f19601f8201168201806040525062002680919081019062002b0f565b604051620026959796959493929190620031fd565b60405180910390a15b50600101620022f2565b600081815260036020526040908190209051606091907fa1c275d9147cd4bbf3a6fc6b01df2bdad7272d62a5bea8ea5f90e20e7c3f48e990620026f090600484019062003286565b60405180910390a160005b600482015481101562002783577f35b7f39ce99df9443c69ab69269e1ae96c0add252abdcce625838b4c386c6236600a60008460040184815481106200273d57fe5b60009182526020808320909101546001600160a01b031683528201929092526040908101909120905162002772919062003381565b60405180910390a1600101620026fb565b508060040180548060200260200160405190810160405280929190818152602001828054801562000c9b576020028201919060005260206000209081546001600160a01b0316815260019091019060200180831162000c7c575050505050915050919050565b600055565b61061b806200355d83390190565b604080516101208101825260008082526020820181905291810182905260608082018390526080820183905260a082015260c0810182905260e0810182905261010081019190915290565b828054600181600116156101000203166002900490600052602060002090601f016020900481019282601f106200288a57805160ff1916838001178555620028ba565b82800160010185558215620028ba579182015b82811115620028ba5782518255916020019190600101906200289d565b50620028c8929150620029c5565b5090565b60405180606001604052806000801916815260200160608152602001606081525090565b828054828255906000526020600020908101928215620028ba5791602002820182811115620028ba5782518255916020019190600101906200289d565b6040518060a0016040528060008019168152602001606081526020016060815260200160608152602001606081525090565b828054828255906000526020600020908101928215620029b7579160200282015b82811115620029b757825182546001600160a01b0319166001600160a01b0390911617825560209092019160019091019062002980565b50620028c8929150620029e2565b6200190091905b80821115620028c85760008155600101620029cc565b6200190091905b80821115620028c85780546001600160a01b0319168155600101620029e9565b803562001581816200352f565b8051620015818162003546565b8035620015818162003551565b8051620015818162003551565b600082601f83011262002a4f57600080fd5b815162002a6662002a608262003413565b620033eb565b9150808252602083016020830185838301111562002a8357600080fd5b62002a9083828462003494565b50505092915050565b600082601f83011262002aab57600080fd5b813562002abc62002a608262003413565b9150808252602083016020830185838301111562002ad957600080fd5b62002a9083828462003488565b60006020828403121562002af957600080fd5b600062002b07848462002a09565b949350505050565b60006020828403121562002b2257600080fd5b600062002b07848462002a16565b60006020828403121562002b4357600080fd5b600062002b07848462002a23565b60006020828403121562002b6457600080fd5b600062002b07848462002a30565b6000806040838503121562002b8657600080fd5b600062002b94858562002a23565b925050602062002ba78582860162002a23565b9150509250929050565b60006020828403121562002bc457600080fd5b815167ffffffffffffffff81111562002bdc57600080fd5b62002b078482850162002a3d565b60006020828403121562002bfd57600080fd5b813567ffffffffffffffff81111562002c1557600080fd5b62002b078482850162002a99565b6000806040838503121562002c3757600080fd5b823567ffffffffffffffff81111562002c4f57600080fd5b62002b948582860162002a99565b60008060006060848603121562002c7357600080fd5b833567ffffffffffffffff81111562002c8b57600080fd5b62002c998682870162002a99565b935050602062002cac8682870162002a23565b925050604062002cbf8682870162002a23565b9150509250925092565b600062002cd7838362002ced565b505060200190565b600062002cd7838362002f57565b62002cf88162003476565b82525050565b62002cf862002d0d8262003476565b620034ef565b600062002d20826200344e565b62002d2c81856200345c565b935062002d39836200343c565b8060005b8381101562002d6d57815162002d54888262002cc9565b975062002d61836200343c565b92505060010162002d3d565b509495945050505050565b600062002d85826200344e565b62002d9181856200345c565b935062002d9e836200343c565b8060005b8381101562002d6d57815162002db9888262002cc9565b975062002dc6836200343c565b92505060010162002da2565b600062002ddf8262003452565b62002deb81856200345c565b935062002df88362003442565b8060005b8381101562002d6d5762002e108262003503565b62002e1c888262002cc9565b975062002e298362003456565b92505060010162002dfc565b600062002e42826200344e565b62002e4e81856200345c565b935062002e5b836200343c565b8060005b8381101562002d6d57815162002e76888262002cdf565b975062002e83836200343c565b92505060010162002e5f565b600062002e9c826200344e565b62002ea881856200345c565b935062002eb5836200343c565b8060005b8381101562002d6d57815162002ed0888262002cdf565b975062002edd836200343c565b92505060010162002eb9565b600062002ef68262003452565b62002f0281856200345c565b935062002f0f8362003442565b8060005b8381101562002d6d5762002f278262003511565b62002f33888262002cdf565b975062002f408362003456565b92505060010162002f13565b62002cf88162003483565b62002cf88162001900565b62002cf862002f718262001900565b62001900565b600062002f84826200344e565b62002f9081856200345c565b935062002fa281856020860162003494565b62002fad816200351f565b9093019392505050565b600062002fc4826200344e565b62002fd0818562003465565b935062002fe281856020860162003494565b9290920192915050565b6000815460018116600081146200300c576001811462003035576200307a565b607f60028304166200301f81876200345c565b60ff19841681529550506020850192506200307a565b600282046200304581876200345c565b9550620030528562003442565b60005b82811015620030735781548882015260019091019060200162003055565b8701945050505b505092915050565b6000620030916016836200345c565b7510db185a5b481dd85cc81b9bdd0815995c9a599a595960521b815260200192915050565b805160009060a0840190620030cc858262002f57565b5060208301518482036020860152620030e6828262002f77565b9150506040830151848203604086015262003102828262002d78565b915050606083015184820360608601526200311e828262002d78565b915050608083015184820360808601526200313a828262002d78565b95945050505050565b8051600090606084019062003159858262002f57565b506020830151848203602086015262003173828262002f77565b915050604083015184820360408601526200313a828262002e8f565b60006200319d828462002cfe565b50601401919050565b6000620007ad828462002fb7565b6000620031c2828662002fb7565b9150620031d0828562002f62565b602082019150620031e2828462002f62565b506020019392505050565b6020810162001581828462002ced565b60e081016200320d828a62002ced565b6200321c602083018962002f57565b6200322b604083018862002f57565b6200323a606083018762002f57565b62003249608083018662002f57565b6200325860a083018562002f4c565b6200326760c083018462002f4c565b98975050505050505050565b60208082528101620007ad818462002d13565b60208082528101620007ad818462002dd2565b60208082528101620007ad818462002e35565b60208082528101620007ad818462002ee9565b6020810162001581828462002f4c565b6020810162001581828462002f57565b60408101620032ef828562002f57565b620007ad602083018462002ced565b608081016200330e828762002f57565b6200331d602083018662002f57565b6200332c604083018562002f57565b818103606083015262003340818462002f77565b9695505050505050565b604081016200335a828562002f57565b818103602083015262002b07818462002f77565b60208082528101620007ad818462002f77565b60208082528101620007ad818462002fec565b60208082528101620015818162003082565b60208082528101620007ad8184620030b6565b60208082528101620007ad818462003143565b60408101620033dc828562002f57565b620007ad602083018462002f57565b60405181810167ffffffffffffffff811182821017156200340b57600080fd5b604052919050565b600067ffffffffffffffff8211156200342b57600080fd5b506020601f91909101601f19160190565b60200190565b60009081526020902090565b5190565b5490565b60010190565b90815260200190565b919050565b6001600160a01b031690565b600062001581826200346a565b151590565b82818337506000910152565b60005b83811015620034b157818101518382015260200162003497565b83811115620034c1576000848401525b50505050565b600062001581620034d88362001900565b6200346a565b60006200158162002f718362001900565b600062001581826000620015818262003529565b6000620015818254620034c7565b6000620015818254620034de565b601f01601f191690565b60601b90565b6200353a8162003476565b811462000b6757600080fd5b6200353a8162003483565b6200353a816200190056fe608060405234801561001057600080fd5b5060405161061b38038061061b8339818101604052608081101561003357600080fd5b81516020830151604080850151606086018051925194969395919493918201928464010000000082111561006657600080fd5b90830190602082018581111561007b57600080fd5b825164010000000081118282018810171561009557600080fd5b82525081516020918201929091019080838360005b838110156100c25781810151838201526020016100aa565b50505050905090810190601f1680156100ef5780820380516001836020036101000a031916815260200191505b506040525050506001849055600283905560038290558051610118906004906020840190610122565b50505050506101bd565b828054600181600116156101000203166002900490600052602060002090601f016020900481019282601f1061016357805160ff1916838001178555610190565b82800160010185558215610190579182015b82811115610190578251825591602001919060010190610175565b5061019c9291506101a0565b5090565b6101ba91905b8082111561019c57600081556001016101a6565b90565b61044f806101cc6000396000f3fe608060405234801561001057600080fd5b50600436106101165760003560e01c8063844cdf09116100a2578063bbb82d8911610071578063bbb82d891461025d578063cdb73ac014610265578063d321fe2914610282578063d61909f91461028a578063f680a7bd146102a757610116565b8063844cdf091461023d57806398d6a37314610245578063aa8c217c1461024d578063b95e216c1461025557610116565b806334d6093d116100e957806334d6093d146101d65780633a50ed13146101f35780633f02907a14610210578063596ada671461022d57806380007e831461023557610116565b806306fdde031461011b5780631be37f4014610198578063209ebc08146101b2578063295b4e17146101ce575b600080fd5b6101236102af565b6040805160208082528351818301528351919283929083019185019080838360005b8381101561015d578181015183820152602001610145565b50505050905090810190601f16801561018a5780820380516001836020036101000a031916815260200191505b509250505060405180910390f35b6101a061033d565b60408051918252519081900360200190f35b6101ba610343565b604080519115158252519081900360200190f35b6101ba610351565b6101a0600480360360208110156101ec57600080fd5b503561035f565b6101a06004803603602081101561020957600080fd5b5035610367565b6101a06004803603602081101561022657600080fd5b503561036f565b6101a0610377565b6101ba61037d565b6101ba610386565b6101ba610399565b6101a06103ad565b6101a06103b3565b6101ba6103b9565b6101a06004803603602081101561027b57600080fd5b50356103c2565b6101a06103ca565b6101a0600480360360208110156102a057600080fd5b50356103d0565b6101a0610414565b6004805460408051602060026001851615610100026000190190941693909304601f810184900484028201840190925281815292918301828280156103355780601f1061030a57610100808354040283529160200191610335565b820191906000526020600020905b81548152906001019060200180831161031857829003601f168201915b505050505081565b60035481565b600654610100900460ff1690565b600654610100900460ff1681565b600581905590565b600081905590565b600181905590565b60015481565b60065460ff1690565b6006805460ff1916600190811790915590565b6006805461ff001916610100179055600190565b60055481565b60005481565b60065460ff1681565b600281905590565b60055490565b60058190556040805182815290516000917f7da274c7907a6e3fe48918a914c8a93c400713daffcd99eaa4a9ae6e99322204919081900360200190a1505060055490565b6002548156fea265627a7a7231582007fa9d076e3e3044c38c572713cb55f6055acb650b599c75a7707a7f2049c1ba64736f6c634300050b0032a365627a7a723158207bf7d2eb820a8684afcc155ecd22127c752bb5248a4eec120e63755cfcc7c2c36c6578706572696d656e74616cf564736f6c634300050b0040",
  "source": "pragma solidity ^0.5.0;\npragma experimental ABIEncoderV2;\n\n\nimport \"./SafeMath.sol\";\nimport \"./ServiceClaim.sol\";\n\ncontract Organizations {\n\n    uint admin;\n\n\n    uint256 claimId; //Max value of the number of claims made\n    uint storedData; //Miscellaneous data\n\n    mapping (bytes32=>Patient) public patientMap; //ID of patient to specific provider -\n    mapping (bytes32=>Provider) public providerMap; //ID of provider to specific provider -\n    mapping (bytes32=>Insurer) public insurerMap; //ID of insurance provider to specific insurer\n    mapping (bytes32=>address) public serviceClaimsMap; //ID of serviceClaim to the specific ServiceClaim contract instance\n    mapping (address=>string) public serviceName;\n\n    //Events for organization creation    event ServiceCreated(address serviceClaimAddr);\n    event SCID(bytes32 ID, address addr);\n    event ClaimCreated(uint256 id, uint256 amount);\n    event ClaimVerified(address addr);\n    event PatientCreated(bytes32 id, string name);\n    event ProviderCreated(bytes32 id, string name);\n    event InsurerCreated(bytes32 id, string name);\n    event PatientRetrieval(Patient patient);\n    event ProviderRetrieval(Provider provider);\n    event ServiceClaimInfo(address addr, bytes32 id, bytes32 provider, bytes32 patient, uint256 amount, bool verified, bool payed);\n\n    //event patientList(Patient[] patients);\n    //event providerList(Provider[] providers);\n    //event insurerList(Insurer[] insurers);\n\n    event idList(bytes32[] ids);\n    event serviceList(address[] services);\n    event SCName(string name);\n    event SCEvent(SC);\n\n    struct SC {\n        address scAddr;\n        bytes32 id;\n        bytes32 insurerID;\n        bytes32 providerID;\n        bytes32 patientID;\n        string name;\n        uint256 amount;\n        bool verified;\n        bool paid;\n    }\n\n    bytes32 globalInsurerID;\n  \n    SC[] scs;\n\n    mapping (address=>string) SCMap;\n    address[] SCList;\n\n\n    struct Patient {\n        bytes32 id;\n        string name;\n        //mapping (address=>string) SCMap;\n        address[] unclaimedServices;\n        address[] unverifiedClaims;\n        address[] verifiedClaims;\n    }\n\n    struct Provider {\n        bytes32 id;\n        string name;\n        bytes32[] patients;\n    }\n\n    struct Insurer {\n        bytes32 id;\n        string name;\n        bytes32[] providers;\n    }\n\n    constructor() public {\n        preLoadInfo();\n    }\n\n    // function stringToBytes32(string memory source) public returns (bytes32 result) {\n    //     bytes memory tempEmptyStringTest = bytes(source);\n    //     if (tempEmptyStringTest.length == 0) {\n    //         return 0x0;\n    //     }\n\n    //     assembly {\n    //         result := mload(add(source, 32))\n    //     }\n    // }\n\n\n\n    function preLoadInfo() public{\n        bytes32 insurerID = addInsurer(\"CMS\");\n        bytes32 providerID = addProvider(\"UCSD Medical\", insurerID);\n        addPatient(\"Ken\", providerID);\n        addPatient(\"Danny\", providerID);\n        addPatient(\"Antonio\", providerID);\n    }\n    // ------------------------------ Adds Users to Network --------------------------- //\n\n    /** @dev add a patient to the network\n    @param _name is the name of the patient\n    @param _providerID is the current provider of the patient\n    @return pID is a bytes32 represented id number for the patient\n    */\n    function addPatient(string memory _name, bytes32 _providerID) public returns(bytes32 pID) {\n        bytes32 id = keccak256(abi.encodePacked(_name));\n        address[] memory uServiceList;\n        address[] memory uClaimList;\n        address[] memory vClaimList;\n        Patient memory newPatient = Patient(id, _name, uServiceList, uClaimList, vClaimList);\n        //bytes32 patientHash = keccak256(abi.encodePacked(newPatient));\n        patientMap[id] = newPatient;\n        providerMap[_providerID].patients.push(newPatient.id);\n        emit PatientCreated(id, _name);\n        return id;\n    }\n\n    /** @dev add a provider to the network\n    @param _name name of the provider\n    @param _insurerID id of insurance provider\n    @return the pID of the health provider -\n     */\n    function addProvider(string memory _name, bytes32 _insurerID) public returns(bytes32 pID) {\n        bytes32 id = keccak256(abi.encodePacked(_name));\n        bytes32[] memory emptyList;\n        Provider memory newProvider = Provider(id, _name, emptyList);\n        //bytes32 providerHash = keccak256(abi.encodePacked(newProvider));\n        providerMap[id] = newProvider;\n        insurerMap[_insurerID].providers.push(newProvider.id);\n        emit ProviderCreated(id, _name);\n        return id;\n    }\n\n    /** @dev add an insurnace provider to the network\n    @param _name the name of the insurance provider\n    @return pID of the insurance provider\n    */\n    function addInsurer(string memory _name) public returns(bytes32 pID) {\n        bytes32 id = keccak256(abi.encodePacked(_name));\n        bytes32[] memory emptyList;\n        Insurer memory newInsurer = Insurer(id, _name, emptyList);\n        //bytes32 insurerHash = keccak256(abi.encodePacked(newInsurer));\n        insurerMap[id] = newInsurer;\n        emit InsurerCreated(id, _name);\n        return id;\n    }\n\n    // ------------------------------ Functionality of the Network --------------------------- //\n\n    /** @dev create an instance of a ServiceClaim contract\n    @param _name name of the service\n    @param _providerID provider ID\n    @param _patientID patient ID\n    @return serviceContractHash is the id of the ServiceClaim contract\n    */\n    function provideService(string memory _name, bytes32 _providerID, bytes32 _patientID) public returns(bytes32 serviceContractHash) {\n        bytes32 id = keccak256(abi.encodePacked(_name, _providerID, _patientID));\n        ServiceClaim serviceClaim = new ServiceClaim(_providerID, _patientID, id, _name);\n        bytes32 serviceClaimID = keccak256(abi.encodePacked(address(serviceClaim)));\n        SC memory scObj = SC(address(serviceClaim), serviceClaimID, globalInsurerID, _providerID, _patientID, _name, 0, false, false);\n        scs.push(scObj);\n        serviceClaimsMap[serviceClaimID] = address(serviceClaim);\n        Patient storage patient = patientMap[_patientID];\n        //patient.unverifiedClaims.push(address(serviceClaim));\n        //SC memory newSC = SC(_name, address(serviceClaim));\n        patient.unclaimedServices.push(address(serviceClaim));\n        serviceName[address(serviceClaim)] = _name;\n        SCMap[address(serviceClaim)] = _name;\n        SCList.push(address(serviceClaim));\n        emit SCID(serviceClaimID, address(serviceClaim));\n        return serviceClaimID;\n    }\n\n    /** @dev add a claim to a ServiceClaim contract i.e. the provider wants to file a claim for a service rendered\n    @param _serviceClaimID the ID of the ServiceClaim contract\n    @param _amount the amount to be claimed by the provider\n    @return ClaimID the ID of the claim\n    */\n    function fileClaim(bytes32 _serviceClaimID, uint256 _amount) public returns(uint256 ClaimID) {\n        //Patient storage cPatient = patientMap[_patient];\n        ServiceClaim myServiceClaim = ServiceClaim(serviceClaimsMap[_serviceClaimID]);\n        uint256 newClaimID = myServiceClaim.fileClaim(_amount);\n\n        bytes32 patID = myServiceClaim.patientID();\n        Patient storage cP = patientMap[patID];\n\n        for(uint i = 0; i < cP.unclaimedServices.length; i++){\n            if(cP.unclaimedServices[i] == address(myServiceClaim)){\n                delete(cP.unclaimedServices[i]);\n                break;\n            }\n        }\n        string memory name = myServiceClaim.name();\n        //SC memory newSC = SC(name, address(myServiceClaim));\n        cP.unverifiedClaims.push(address(myServiceClaim));\n        emit ClaimCreated(newClaimID, _amount);\n        //emit SCEvent(newSC);\n        return newClaimID;\n    }\n \n    /** @dev invoke the verifyClaim function in the ServiceClaim contract\n    @param _serviceClaimID the id of the ServiceClaim contract\n    */\n    /** @dev invoke the verifyClaim function in the ServiceClaim contract\n    @param _serviceClaimAddress the address of the ServiceClaim contract\n    */\n    function verifyClaim(address _serviceClaimAddress) public {\n        ServiceClaim myServiceClaim = ServiceClaim(_serviceClaimAddress);\n        require(myServiceClaim.verifyClaim(), \"Claim was not Verified\");\n        // Add the claim address to verified list\n        // Delete the claim address from unverified list\n        bytes32 patID = myServiceClaim.patientID();\n        Patient storage cP = patientMap[patID];\n\n        for(uint i = 0; i < cP.unverifiedClaims.length; i++){\n            if(cP.unverifiedClaims[i] == address(myServiceClaim)){\n                delete(cP.unverifiedClaims[i]);\n                break;\n            }\n        }\n        //string memory name = myServiceClaim.name();\n        //SC memory newSC = SC(name, address(myServiceClaim));\n        cP.verifiedClaims.push(address(myServiceClaim));\n        emit ClaimVerified(_serviceClaimAddress);\n    }\n\n    /** @dev invoke the payProvider function in the ServiceClaim contract\n    @param _serviceClaimID the id of the ServiceClaim contract\n    */\n    function payProvider(bytes32 _serviceClaimID) public {\n        //require(_serviceClaim.claim().verified == true, \"User has not verified service\");\n        ServiceClaim myServiceClaim = ServiceClaim(serviceClaimsMap[_serviceClaimID]);\n        myServiceClaim.payProvider();\n    }\n\n\n\n    // ------------------------------ Getters of Network Data --------------------------- //\n\n\n    function patientsOfProvider(bytes32 _id) public returns (bytes32[] memory) {\n        Provider storage cP = providerMap[_id];\n        emit idList(cP.patients);\n        return(cP.patients);\n    }\n\n    function providersOfInsurer(bytes32 _id) public returns (bytes32[] memory) {\n        Insurer storage cI = insurerMap[_id];\n        emit idList(cI.providers);\n        return(cI.providers);\n    }\n\n    function getPatient(bytes32 _id) public returns (bool){\n        Patient memory patient = patientMap[_id];\n        emit PatientRetrieval(patient);\n        return true;\n    }\n\n    function getProvider(bytes32 _id) public returns (Provider memory){\n        Provider memory provider = providerMap[_id];\n        emit ProviderRetrieval(provider);\n        return providerMap[_id];\n    }\n\n\n    function patientUnclaimedServices(bytes32 _id) public returns (address[] memory){\n        Patient storage cP = patientMap[_id];\n        emit serviceList(cP.unclaimedServices);\n        for(uint i = 0; i < cP.unclaimedServices.length; i++){\n            emit SCName(SCMap[cP.unclaimedServices[i]]);\n        }\n        return(cP.unclaimedServices);\n        // address[] memory a;\n        // return a;\n    }\n\n    function patientUnverifiedClaims(bytes32 _id) public returns (address[] memory){\n        Patient storage cP = patientMap[_id];\n        //bytes32[] memory claimNames = new bytes32[](cP.unverifiedClaims.length);\n        for(uint i = 0; i < cP.unverifiedClaims.length; i++){\n            emit SCName(SCMap[cP.unverifiedClaims[i]]);\n        }\n        emit serviceList(cP.unverifiedClaims);\n        return(cP.unverifiedClaims);\n        // address[] memory a;\n        // return a;\n\n    }\n\n    function patientVerifiedClaims(bytes32 _id) public returns (address[] memory){\n        Patient storage cP = patientMap[_id];\n        emit serviceList(cP.verifiedClaims);\n\n        for(uint i = 0; i < cP.verifiedClaims.length; i++){\n            emit SCName(SCMap[cP.verifiedClaims[i]]);\n        }\n        return(cP.verifiedClaims);\n        // address[] memory a;\n        // return a;\n    }\n\n\n\n    function setAdmin(uint _num) public {\n        admin = _num;\n    }\n\n\n    function getAdmin() public view returns (uint) {\n        return admin;\n    }\n\n\n    //   event ServiceClaimInfo(address addr, bytes32 id, bytes32 provider, bytes32 patient, uint256 amount, bool verified, bool payed);\n\n    function getAllServices() public {\n        for (uint i = 0; i < SCList.length; i++) {\n            ServiceClaim sc = ServiceClaim(SCList[i]);\n            emit ServiceClaimInfo(address(sc), sc.serviceClaimID(), sc.providerID(), sc.patientID(), sc.amount(), sc.verified(), sc.paid());\n        }\n    }\n\n\n    function getAllVerifiedServices() public {\n        for (uint i = 0; i < SCList.length; i++) {\n            ServiceClaim sc = ServiceClaim(SCList[i]);\n            if (sc.verified() == true) {\n                emit ServiceClaimInfo(address(sc), sc.serviceClaimID(), sc.providerID(), sc.patientID(), sc.amount(), sc.verified(), sc.paid());\n            }\n        }\n    }\n\n    function getAllUnverifiedServices() public {\n        for (uint i = 0; i < SCList.length; i++) {\n            ServiceClaim sc = ServiceClaim(SCList[i]);\n            if (sc.verified() == false) {\n                emit ServiceClaimInfo(address(sc), sc.serviceClaimID(), sc.providerID(), sc.patientID(), sc.amount(), sc.verified(), sc.paid());\n            }\n        }\n    }\n\n\n\n// TODO\n    // function insurerUnpaidClaims(bytes32 _id) public {\n    // }\n    // function insurerPaidClaims(bytes32 _id) public {\n\n    // }\n\n    // function providerUnpaidClaims(bytes32 _id) public {\n\n    // }\n\n    //  function providerPaidClaims(bytes32 _id) public {\n    // }\n}\n",
  "sourcePath": "/Users/kenmiyachi/BlockLAB/Medicare-Claim-Verification/contracts/Organizations.sol",
  "compiler": {
    "name": "solc",
    "version": "0.5.11+commit.c082d0b4.Emscripten.clang"
  },
  "schemaVersion": "3.0.12",
  "updatedAt": "2019-09-13T22:22:11.081Z",
  "devdoc": {
    "methods": {
      "addInsurer(string)": {
        "details": "add an insurnace provider to the network",
        "params": {
          "_name": "the name of the insurance provider"
        },
        "return": "pID of the insurance provider"
      },
      "addPatient(string,bytes32)": {
        "details": "add a patient to the network",
        "params": {
          "_name": "is the name of the patient",
          "_providerID": "is the current provider of the patient"
        },
        "return": "pID is a bytes32 represented id number for the patient"
      },
      "addProvider(string,bytes32)": {
        "details": "add a provider to the network",
        "params": {
          "_insurerID": "id of insurance provider",
          "_name": "name of the provider"
        },
        "return": "the pID of the health provider -"
      },
      "fileClaim(bytes32,uint256)": {
        "details": "add a claim to a ServiceClaim contract i.e. the provider wants to file a claim for a service rendered",
        "params": {
          "_amount": "the amount to be claimed by the provider",
          "_serviceClaimID": "the ID of the ServiceClaim contract"
        },
        "return": "ClaimID the ID of the claim"
      },
      "payProvider(bytes32)": {
        "details": "invoke the payProvider function in the ServiceClaim contract",
        "params": {
          "_serviceClaimID": "the id of the ServiceClaim contract"
        }
      },
      "provideService(string,bytes32,bytes32)": {
        "details": "create an instance of a ServiceClaim contract",
        "params": {
          "_name": "name of the service",
          "_patientID": "patient ID",
          "_providerID": "provider ID"
        },
        "return": "serviceContractHash is the id of the ServiceClaim contract"
      },
      "verifyClaim(address)": {
        "details": "invoke the verifyClaim function in the ServiceClaim contract",
        "params": {
          "_serviceClaimAddress": "the address of the ServiceClaim contract"
        }
      }
    }
  },
  "userdoc": {
    "methods": {}
  }
}