{
  "contractName": "Organizations",
  "abi": [
    {
      "constant": true,
      "inputs": [
        {
          "internalType": "bytes32",
          "name": "",
          "type": "bytes32"
        }
      ],
      "name": "serviceClaimsMap",
      "outputs": [
        {
          "internalType": "address",
          "name": "",
          "type": "address"
        }
      ],
      "payable": false,
      "stateMutability": "view",
      "type": "function"
    },
    {
      "constant": true,
      "inputs": [
        {
          "internalType": "bytes32",
          "name": "",
          "type": "bytes32"
        }
      ],
      "name": "providerMap",
      "outputs": [
        {
          "internalType": "bytes32",
          "name": "id",
          "type": "bytes32"
        },
        {
          "internalType": "string",
          "name": "name",
          "type": "string"
        }
      ],
      "payable": false,
      "stateMutability": "view",
      "type": "function"
    },
    {
      "constant": true,
      "inputs": [
        {
          "internalType": "address",
          "name": "",
          "type": "address"
        }
      ],
      "name": "serviceName",
      "outputs": [
        {
          "internalType": "string",
          "name": "",
          "type": "string"
        }
      ],
      "payable": false,
      "stateMutability": "view",
      "type": "function"
    },
    {
      "constant": true,
      "inputs": [
        {
          "internalType": "bytes32",
          "name": "",
          "type": "bytes32"
        }
      ],
      "name": "insurerMap",
      "outputs": [
        {
          "internalType": "bytes32",
          "name": "id",
          "type": "bytes32"
        },
        {
          "internalType": "string",
          "name": "name",
          "type": "string"
        }
      ],
      "payable": false,
      "stateMutability": "view",
      "type": "function"
    },
    {
      "constant": true,
      "inputs": [
        {
          "internalType": "bytes32",
          "name": "",
          "type": "bytes32"
        }
      ],
      "name": "patientMap",
      "outputs": [
        {
          "internalType": "bytes32",
          "name": "id",
          "type": "bytes32"
        },
        {
          "internalType": "string",
          "name": "name",
          "type": "string"
        }
      ],
      "payable": false,
      "stateMutability": "view",
      "type": "function"
    },
    {
      "inputs": [],
      "payable": false,
      "stateMutability": "nonpayable",
      "type": "constructor"
    },
    {
      "anonymous": false,
      "inputs": [
        {
          "indexed": false,
          "internalType": "bytes32",
          "name": "ID",
          "type": "bytes32"
        },
        {
          "indexed": false,
          "internalType": "address",
          "name": "addr",
          "type": "address"
        }
      ],
      "name": "SCID",
      "type": "event"
    },
    {
      "anonymous": false,
      "inputs": [
        {
          "indexed": false,
          "internalType": "uint256",
          "name": "id",
          "type": "uint256"
        },
        {
          "indexed": false,
          "internalType": "uint256",
          "name": "amount",
          "type": "uint256"
        }
      ],
      "name": "ClaimCreated",
      "type": "event"
    },
    {
      "anonymous": false,
      "inputs": [
        {
          "indexed": false,
          "internalType": "bytes32",
          "name": "id",
          "type": "bytes32"
        }
      ],
      "name": "ClaimVerified",
      "type": "event"
    },
    {
      "anonymous": false,
      "inputs": [
        {
          "indexed": false,
          "internalType": "bytes32",
          "name": "id",
          "type": "bytes32"
        },
        {
          "indexed": false,
          "internalType": "string",
          "name": "name",
          "type": "string"
        }
      ],
      "name": "PatientCreated",
      "type": "event"
    },
    {
      "anonymous": false,
      "inputs": [
        {
          "indexed": false,
          "internalType": "bytes32",
          "name": "id",
          "type": "bytes32"
        },
        {
          "indexed": false,
          "internalType": "string",
          "name": "name",
          "type": "string"
        }
      ],
      "name": "ProviderCreated",
      "type": "event"
    },
    {
      "anonymous": false,
      "inputs": [
        {
          "indexed": false,
          "internalType": "bytes32",
          "name": "id",
          "type": "bytes32"
        },
        {
          "indexed": false,
          "internalType": "string",
          "name": "name",
          "type": "string"
        }
      ],
      "name": "InsurerCreated",
      "type": "event"
    },
    {
      "anonymous": false,
      "inputs": [
        {
          "components": [
            {
              "internalType": "bytes32",
              "name": "id",
              "type": "bytes32"
            },
            {
              "internalType": "string",
              "name": "name",
              "type": "string"
            },
            {
              "internalType": "address[]",
              "name": "unclaimedServices",
              "type": "address[]"
            },
            {
              "internalType": "address[]",
              "name": "unverifiedClaims",
              "type": "address[]"
            },
            {
              "internalType": "address[]",
              "name": "verifiedClaims",
              "type": "address[]"
            }
          ],
          "indexed": false,
          "internalType": "struct Organizations.Patient",
          "name": "patient",
          "type": "tuple"
        }
      ],
      "name": "PatientRetrieval",
      "type": "event"
    },
    {
      "anonymous": false,
      "inputs": [
        {
          "components": [
            {
              "internalType": "bytes32",
              "name": "id",
              "type": "bytes32"
            },
            {
              "internalType": "string",
              "name": "name",
              "type": "string"
            },
            {
              "internalType": "bytes32[]",
              "name": "patients",
              "type": "bytes32[]"
            }
          ],
          "indexed": false,
          "internalType": "struct Organizations.Provider",
          "name": "provider",
          "type": "tuple"
        }
      ],
      "name": "ProviderRetrieval",
      "type": "event"
    },
    {
      "anonymous": false,
      "inputs": [
        {
          "indexed": false,
          "internalType": "bytes32[]",
          "name": "ids",
          "type": "bytes32[]"
        }
      ],
      "name": "idList",
      "type": "event"
    },
    {
      "anonymous": false,
      "inputs": [
        {
          "indexed": false,
          "internalType": "address[]",
          "name": "services",
          "type": "address[]"
        }
      ],
      "name": "serviceList",
      "type": "event"
    },
    {
      "anonymous": false,
      "inputs": [
        {
          "components": [
            {
              "internalType": "string",
              "name": "name",
              "type": "string"
            },
            {
              "internalType": "address",
              "name": "addr",
              "type": "address"
            }
          ],
          "indexed": false,
          "internalType": "struct Organizations.SC",
          "name": "",
          "type": "tuple"
        }
      ],
      "name": "SCEvent",
      "type": "event"
    },
    {
      "constant": false,
      "inputs": [
        {
          "internalType": "string",
          "name": "_name",
          "type": "string"
        },
        {
          "internalType": "address",
          "name": "_addr",
          "type": "address"
        }
      ],
      "name": "pushSC",
      "outputs": [],
      "payable": false,
      "stateMutability": "nonpayable",
      "type": "function"
    },
    {
      "constant": false,
      "inputs": [],
      "name": "preLoadInfo",
      "outputs": [],
      "payable": false,
      "stateMutability": "nonpayable",
      "type": "function"
    },
    {
      "constant": false,
      "inputs": [
        {
          "internalType": "string",
          "name": "_name",
          "type": "string"
        },
        {
          "internalType": "bytes32",
          "name": "_providerID",
          "type": "bytes32"
        }
      ],
      "name": "addPatient",
      "outputs": [
        {
          "internalType": "bytes32",
          "name": "pID",
          "type": "bytes32"
        }
      ],
      "payable": false,
      "stateMutability": "nonpayable",
      "type": "function"
    },
    {
      "constant": false,
      "inputs": [
        {
          "internalType": "string",
          "name": "_name",
          "type": "string"
        },
        {
          "internalType": "bytes32",
          "name": "_insurerID",
          "type": "bytes32"
        }
      ],
      "name": "addProvider",
      "outputs": [
        {
          "internalType": "bytes32",
          "name": "pID",
          "type": "bytes32"
        }
      ],
      "payable": false,
      "stateMutability": "nonpayable",
      "type": "function"
    },
    {
      "constant": false,
      "inputs": [
        {
          "internalType": "string",
          "name": "_name",
          "type": "string"
        }
      ],
      "name": "addInsurer",
      "outputs": [
        {
          "internalType": "bytes32",
          "name": "pID",
          "type": "bytes32"
        }
      ],
      "payable": false,
      "stateMutability": "nonpayable",
      "type": "function"
    },
    {
      "constant": false,
      "inputs": [
        {
          "internalType": "string",
          "name": "_name",
          "type": "string"
        },
        {
          "internalType": "bytes32",
          "name": "_providerID",
          "type": "bytes32"
        },
        {
          "internalType": "bytes32",
          "name": "_patientID",
          "type": "bytes32"
        }
      ],
      "name": "provideService",
      "outputs": [
        {
          "internalType": "bytes32",
          "name": "serviceContractHash",
          "type": "bytes32"
        }
      ],
      "payable": false,
      "stateMutability": "nonpayable",
      "type": "function"
    },
    {
      "constant": false,
      "inputs": [
        {
          "internalType": "bytes32",
          "name": "_serviceClaimID",
          "type": "bytes32"
        },
        {
          "internalType": "uint256",
          "name": "_amount",
          "type": "uint256"
        }
      ],
      "name": "fileClaim",
      "outputs": [
        {
          "internalType": "uint256",
          "name": "ClaimID",
          "type": "uint256"
        }
      ],
      "payable": false,
      "stateMutability": "nonpayable",
      "type": "function"
    },
    {
      "constant": false,
      "inputs": [
        {
          "internalType": "bytes32",
          "name": "_serviceClaimID",
          "type": "bytes32"
        }
      ],
      "name": "verifyClaim",
      "outputs": [],
      "payable": false,
      "stateMutability": "nonpayable",
      "type": "function"
    },
    {
      "constant": false,
      "inputs": [
        {
          "internalType": "bytes32",
          "name": "_serviceClaimID",
          "type": "bytes32"
        }
      ],
      "name": "payProvider",
      "outputs": [],
      "payable": false,
      "stateMutability": "nonpayable",
      "type": "function"
    },
    {
      "constant": false,
      "inputs": [
        {
          "internalType": "bytes32",
          "name": "_id",
          "type": "bytes32"
        }
      ],
      "name": "patientsOfProvider",
      "outputs": [
        {
          "internalType": "bytes32[]",
          "name": "",
          "type": "bytes32[]"
        }
      ],
      "payable": false,
      "stateMutability": "nonpayable",
      "type": "function"
    },
    {
      "constant": false,
      "inputs": [
        {
          "internalType": "bytes32",
          "name": "_id",
          "type": "bytes32"
        }
      ],
      "name": "providersOfInsurer",
      "outputs": [
        {
          "internalType": "bytes32[]",
          "name": "",
          "type": "bytes32[]"
        }
      ],
      "payable": false,
      "stateMutability": "nonpayable",
      "type": "function"
    },
    {
      "constant": false,
      "inputs": [
        {
          "internalType": "bytes32",
          "name": "_id",
          "type": "bytes32"
        }
      ],
      "name": "getPatient",
      "outputs": [
        {
          "components": [
            {
              "internalType": "bytes32",
              "name": "id",
              "type": "bytes32"
            },
            {
              "internalType": "string",
              "name": "name",
              "type": "string"
            },
            {
              "internalType": "address[]",
              "name": "unclaimedServices",
              "type": "address[]"
            },
            {
              "internalType": "address[]",
              "name": "unverifiedClaims",
              "type": "address[]"
            },
            {
              "internalType": "address[]",
              "name": "verifiedClaims",
              "type": "address[]"
            }
          ],
          "internalType": "struct Organizations.Patient",
          "name": "",
          "type": "tuple"
        }
      ],
      "payable": false,
      "stateMutability": "nonpayable",
      "type": "function"
    },
    {
      "constant": false,
      "inputs": [
        {
          "internalType": "bytes32",
          "name": "_id",
          "type": "bytes32"
        }
      ],
      "name": "getProvider",
      "outputs": [
        {
          "components": [
            {
              "internalType": "bytes32",
              "name": "id",
              "type": "bytes32"
            },
            {
              "internalType": "string",
              "name": "name",
              "type": "string"
            },
            {
              "internalType": "bytes32[]",
              "name": "patients",
              "type": "bytes32[]"
            }
          ],
          "internalType": "struct Organizations.Provider",
          "name": "",
          "type": "tuple"
        }
      ],
      "payable": false,
      "stateMutability": "nonpayable",
      "type": "function"
    },
    {
      "constant": false,
      "inputs": [
        {
          "internalType": "bytes32",
          "name": "_id",
          "type": "bytes32"
        }
      ],
      "name": "patientUnclaimedServices",
      "outputs": [
        {
          "internalType": "address[]",
          "name": "",
          "type": "address[]"
        }
      ],
      "payable": false,
      "stateMutability": "nonpayable",
      "type": "function"
    },
    {
      "constant": false,
      "inputs": [
        {
          "internalType": "bytes32",
          "name": "_id",
          "type": "bytes32"
        }
      ],
      "name": "patientUnverifiedClaims",
      "outputs": [
        {
          "internalType": "address[]",
          "name": "",
          "type": "address[]"
        }
      ],
      "payable": false,
      "stateMutability": "nonpayable",
      "type": "function"
    },
    {
      "constant": false,
      "inputs": [
        {
          "internalType": "bytes32",
          "name": "_id",
          "type": "bytes32"
        }
      ],
      "name": "patientVerifiedClaims",
      "outputs": [
        {
          "internalType": "address[]",
          "name": "",
          "type": "address[]"
        }
      ],
      "payable": false,
      "stateMutability": "nonpayable",
      "type": "function"
    },
    {
      "constant": false,
      "inputs": [
        {
          "internalType": "uint256",
          "name": "_num",
          "type": "uint256"
        }
      ],
      "name": "setAdmin",
      "outputs": [],
      "payable": false,
      "stateMutability": "nonpayable",
      "type": "function"
    },
    {
      "constant": true,
      "inputs": [],
      "name": "getAdmin",
      "outputs": [
        {
          "internalType": "uint256",
          "name": "",
          "type": "uint256"
        }
      ],
      "payable": false,
      "stateMutability": "view",
      "type": "function"
    }
  ],
  "bytecode": "0x60806040523480156200001157600080fd5b50620000256001600160e01b036200002b16565b620007e2565b6000620000736040518060400160405280600381526020017f434d530000000000000000000000000000000000000000000000000000000000815250620001a060201b60201c565b90506000620000be6040518060400160405280600c81526020017f55435344204d65646963616c0000000000000000000000000000000000000000815250836200028a60201b60201c565b9050620001076040518060400160405280600381526020017f4b656e000000000000000000000000000000000000000000000000000000000081525082620003a160201b60201c565b5060408051808201909152600581527f44616e6e7900000000000000000000000000000000000000000000000000000060208201526200015190826001600160e01b03620003a116565b5060408051808201909152600781527f416e746f6e696f0000000000000000000000000000000000000000000000000060208201526200019b90826001600160e01b03620003a116565b505050565b60008082604051602001620001b6919062000752565b6040516020818303038152906040528051906020012090506060620001da62000507565b50604080516060810182528381526020808201878152828401859052600086815260058352939093208251815592518051929384939092620002249260018501929101906200052b565b506040820151805162000242916002840191602090910190620005b0565b509050507ff73cee28a98c20f23a903356ab57dc8c514e66b0488c994b09dec06f978c839b83866040516200027992919062000767565b60405180910390a150909392505050565b60008083604051602001620002a0919062000752565b6040516020818303038152906040528051906020012090506060620002c462000507565b506040805160608101825283815260208082018881528284018590526000868152600483529390932082518155925180519293849390926200030e9260018501929101906200052b565b50604082015180516200032c916002840191602090910190620005b0565b50505060008581526005602090815260408083208451600290910180546001810182559085529290932090910191909155517f7dd222c7de5c7ba42d121aa7e2acc9d5d4a47c2eb31f55385cf51cbe459c5c9b906200038f908590899062000767565b60405180910390a15090949350505050565b60008083604051602001620003b7919062000752565b6040516020818303038152906040528051906020012090506060806060620003de620005ed565b506040805160a08101825285815260208082018a81528284018790526060830186905260808301859052600088815260038352939093208251815592518051929384939092620004369260018501929101906200052b565b5060408201518051620004549160028401916020909101906200061f565b5060608201518051620004729160038401916020909101906200061f565b5060808201518051620004909160048401916020909101906200061f565b50505060008781526004602090815260408083208451600290910180546001810182559085529290932090910191909155517f86ec8adc6f97da0327b3e1dcc24fa25aea5eb7afcf6af08792e4b2d4d799fad890620004f39087908b9062000767565b60405180910390a150929695505050505050565b60405180606001604052806000801916815260200160608152602001606081525090565b828054600181600116156101000203166002900490600052602060002090601f016020900481019282601f106200056e57805160ff19168380011785556200059e565b828001600101855582156200059e579182015b828111156200059e57825182559160200191906001019062000581565b50620005ac92915062000685565b5090565b8280548282559060005260206000209081019282156200059e57916020028201828111156200059e57825182559160200191906001019062000581565b6040518060a0016040528060008019168152602001606081526020016060815260200160608152602001606081525090565b82805482825590600052602060002090810192821562000677579160200282015b828111156200067757825182546001600160a01b0319166001600160a01b0390911617825560209092019160019091019062000640565b50620005ac929150620006a5565b620006a291905b80821115620005ac57600081556001016200068c565b90565b620006a291905b80821115620005ac5780546001600160a01b0319168155600101620006ac565b620006d781620006a2565b82525050565b6000620006ea8262000793565b620006f6818562000797565b935062000708818560208601620007a5565b6200071381620007d8565b9093019392505050565b60006200072a8262000793565b620007368185620007a0565b935062000748818560208601620007a5565b9290920192915050565b60006200076082846200071d565b9392505050565b60408101620007778285620006cc565b81810360208301526200078b8184620006dd565b949350505050565b5190565b90815260200190565b919050565b60005b83811015620007c2578181015183820152602001620007a8565b83811115620007d2576000848401525b50505050565b601f01601f191690565b612bb380620007f26000396000f3fe60806040523480156200001157600080fd5b50600436106200016c5760003560e01c80634711f58611620000d55780639c860b8a11620000875780639c860b8a1462000353578063a46bfff91462000379578063dd2389251462000390578063e0e87b1a14620003a7578063ece7ac2b14620003be578063ee3d52b314620003d5576200016c565b80634711f58614620002c75780636e9960c314620002de578063740044b414620002e85780637899a34e14620002ff57806392398fbb14620003255780639594c99e146200033c576200016c565b806333fc83f7116200012f57806333fc83f7146200023957806335b73510146200025f57806339160aa714620002785780633e7e072e146200028f5780633f1e172d14620002a657806340f1065314620002b0576200016c565b8063085683ff146200017157806321dd828514620001a05780632470d25e14620001c65780632bde2a8614620001ec57806333c0950a1462000213575b600080fd5b620001886200018236600462001db0565b620003ec565b60405162000197919062002334565b60405180910390f35b620001b7620001b136600462001c6f565b62000548565b604051620001979190620022e8565b620001dd620001d736600462001c6f565b620005ff565b604051620001979190620022d8565b62000203620001fd36600462001c6f565b6200061a565b60405162000197929190620023af565b6200022a6200022436600462001c6f565b620006c5565b6040516200019791906200240b565b620002506200024a36600462001c25565b6200096c565b604051620001979190620023d3565b620002766200027036600462001c6f565b62000a0b565b005b620002036200028936600462001c6f565b62000c37565b62000188620002a036600462001d76565b62000cac565b6200027662000dc5565b62000188620002c136600462001cb1565b62000ea5565b62000276620002d836600462001d29565b620010bb565b62000188620011a0565b62000188620002f936600462001d76565b620011a7565b620003166200031036600462001c6f565b6200130d565b604051620001979190620023f8565b620002036200033636600462001c6f565b6200155c565b620001b76200034d36600462001c6f565b620015d1565b6200036a6200036436600462001c6f565b62001686565b6040516200019791906200230e565b6200036a6200038a36600462001c6f565b62001732565b62000188620003a136600462001cf0565b6200177a565b62000276620003b836600462001c6f565b62001864565b620001b7620003cf36600462001c6f565b620018f3565b62000276620003e636600462001c6f565b620019a8565b60008084848460405160200162000406939291906200229f565b6040516020818303038152906040528051906020012090506000848483886040516200043290620019ad565b62000441949392919062002363565b604051809103906000f0801580156200045e573d6000803e3d6000fd5b5090506000816040516020016200047691906200227a565b60408051601f19818403018152918152815160209283012060008181526006845282812080546001600160a01b0388166001600160a01b031991821681179092558a8352600386528483206002810180546001810182559085528785200180549092168317909155908252600785529290208a519194509192620004ff9291908b0190620019bb565b507f2cdb195d7226065901c0e37d742237ac3e30d6dc0ce7faf49701f6ec9f0bd1ed82846040516200053392919062002344565b60405180910390a150925050505b9392505050565b6000818152600360208190526040918290209151606092917fa1c275d9147cd4bbf3a6fc6b01df2bdad7272d62a5bea8ea5f90e20e7c3f48e9916200059091840190620022fb565b60405180910390a180600301805480602002602001604051908101604052809291908181526020018280548015620005f257602002820191906000526020600020905b81546001600160a01b03168152600190910190602001808311620005d3575b5050505050915050919050565b6006602052600090815260409020546001600160a01b031681565b6004602090815260009182526040918290208054600180830180548651600293821615610100026000190190911692909204601f810186900486028301860190965285825291949293909290830182828015620006bb5780601f106200068f57610100808354040283529160200191620006bb565b820191906000526020600020905b8154815290600101906020018083116200069d57829003601f168201915b5050505050905082565b620006cf62001a40565b620006d962001a40565b6004600084815260200190815260200160002060405180606001604052908160008201548152602001600182018054600181600116156101000203166002900480601f0160208091040260200160405190810160405280929190818152602001828054600181600116156101000203166002900480156200079e5780601f1062000772576101008083540402835291602001916200079e565b820191906000526020600020905b8154815290600101906020018083116200078057829003601f168201915b5050505050815260200160028201805480602002602001604051908101604052809291908181526020018280548015620007f857602002820191906000526020600020905b815481526020019060010190808311620007e3575b50505050508152505090507f8c6b3078bf6d713aeae5b1ccc2dfea387cbb876de1a5c9d81a4e22d4e832c546816040516200083491906200240b565b60405180910390a16004600084815260200190815260200160002060405180606001604052908160008201548152602001600182018054600181600116156101000203166002900480601f016020809104026020016040519081016040528092919081815260200182805460018160011615610100020316600290048015620009015780601f10620008d55761010080835404028352916020019162000901565b820191906000526020600020905b815481529060010190602001808311620008e357829003601f168201915b50505050508152602001600282018054806020026020016040519081016040528092919081815260200182805480156200095b57602002820191906000526020600020905b81548152602001906001019080831162000946575b505050505081525050915050919050565b60076020908152600091825260409182902080548351601f60026000196101006001861615020190931692909204918201849004840281018401909452808452909183018282801562000a035780601f10620009d75761010080835404028352916020019162000a03565b820191906000526020600020905b815481529060010190602001808311620009e557829003601f168201915b505050505081565b600081815260066020908152604080832054815163844cdf0960e01b815291516001600160a01b0390911693849363844cdf09936004808201949293918390030190829087803b15801562000a5f57600080fd5b505af115801562000a74573d6000803e3d6000fd5b505050506040513d601f19601f8201168201806040525062000a9a919081019062001c4e565b62000ac25760405162461bcd60e51b815260040162000ab990620023e6565b60405180910390fd5b6000816001600160a01b031663f680a7bd6040518163ffffffff1660e01b815260040160206040518083038186803b15801562000afe57600080fd5b505afa15801562000b13573d6000803e3d6000fd5b505050506040513d601f19601f8201168201806040525062000b39919081019062001c90565b60008181526003602052604081209192505b600382015481101562000bc657836001600160a01b031682600301828154811062000b7257fe5b6000918252602090912001546001600160a01b0316141562000bbd5781600301818154811062000b9e57fe5b600091825260209091200180546001600160a01b031916905562000bc6565b60010162000b4b565b50600481018054600181018255600091825260209091200180546001600160a01b0319166001600160a01b0385161790556040517fbb7f69e49157b8f7bbfd20ddd9be754be60972bae5723181eca78ea390fdf8569062000c2990869062002334565b60405180910390a150505050565b6005602090815260009182526040918290208054600180830180548651600293821615610100026000190190911692909204601f810186900486028301860190965285825291949293909290830182828015620006bb5780601f106200068f57610100808354040283529160200191620006bb565b6000808360405160200162000cc2919062002291565b604051602081830303815290604052805190602001209050606062000ce662001a40565b5060408051606081018252838152602080820188815282840185905260008681526004835293909320825181559251805192938493909262000d30926001850192910190620019bb565b506040820151805162000d4e91600284019160209091019062001a64565b50505060008581526005602090815260408083208451600290910180546001810182559085529290932090910191909155517f7dd222c7de5c7ba42d121aa7e2acc9d5d4a47c2eb31f55385cf51cbe459c5c9b9062000db19085908990620023af565b60405180910390a150909150505b92915050565b600062000ded60405180604001604052806003815260200162434d5360e81b8152506200177a565b9050600062000e216040518060400160405280600c81526020016b1550d4d1081359591a58d85b60a21b8152508362000cac565b905062000e4a6040518060400160405280600381526020016225b2b760e91b81525082620011a7565b5062000e746040518060400160405280600581526020016444616e6e7960d81b81525082620011a7565b5062000ea060405180604001604052806007815260200166416e746f6e696f60c81b81525082620011a7565b505050565b60008281526006602052604080822054905163d61909f960e01b81526001600160a01b03909116908290829063d61909f99062000ee790879060040162002334565b602060405180830381600087803b15801562000f0257600080fd5b505af115801562000f17573d6000803e3d6000fd5b505050506040513d601f19601f8201168201806040525062000f3d919081019062001c90565b90506000826001600160a01b031663f680a7bd6040518163ffffffff1660e01b815260040160206040518083038186803b15801562000f7b57600080fd5b505afa15801562000f90573d6000803e3d6000fd5b505050506040513d601f19601f8201168201806040525062000fb6919081019062001c90565b60008181526003602052604081209192505b60028201548110156200104357846001600160a01b031682600201828154811062000fef57fe5b6000918252602090912001546001600160a01b031614156200103a578160020181815481106200101b57fe5b600091825260209091200180546001600160a01b031916905562001043565b60010162000fc8565b50600381018054600181018255600091825260209091200180546001600160a01b0319166001600160a01b0386161790556040517f96e3875898071e5d91932eb150a3914f9fe70e473f6faeaad697e99a48937c9c90620010a8908590899062002431565b60405180910390a1509095945050505050565b620010c562001aa1565b50604080518082019091528281526001600160a01b0382166020808301919091526008805460018101808355600092909252835180519293859360029093027ff3f7a9fe364faab93b216da50a3214154f22a0a2b415b23a84c8169e8b636ee30192620011369284920190620019bb565b5060209190910151600190910180546001600160a01b0319166001600160a01b03909216919091179055506040517f12b7ce9c57b47c4ab35611c984f59c4e4fd30a5c7420199ed37fe1f6b8d3292390620011939083906200241e565b60405180910390a1505050565b6000545b90565b60008083604051602001620011bd919062002291565b6040516020818303038152906040528051906020012090506060806060620011e462001ab9565b506040805160a08101825285815260208082018a815282840187905260608301869052608083018590526000888152600383529390932082518155925180519293849390926200123c926001850192910190620019bb565b50604082015180516200125a91600284019160209091019062001aeb565b50606082015180516200127891600384019160209091019062001aeb565b50608082015180516200129691600484019160209091019062001aeb565b50505060008781526004602090815260408083208451600290910180546001810182559085529290932090910191909155517f86ec8adc6f97da0327b3e1dcc24fa25aea5eb7afcf6af08792e4b2d4d799fad890620012f99087908b90620023af565b60405180910390a150929695505050505050565b6200131762001ab9565b6200132162001ab9565b600360008481526020019081526020016000206040518060a001604052908160008201548152602001600182018054600181600116156101000203166002900480601f016020809104026020016040519081016040528092919081815260200182805460018160011615610100020316600290048015620013e65780601f10620013ba57610100808354040283529160200191620013e6565b820191906000526020600020905b815481529060010190602001808311620013c857829003601f168201915b50505050508152602001600282018054806020026020016040519081016040528092919081815260200182805480156200144a57602002820191906000526020600020905b81546001600160a01b031681526001909101906020018083116200142b575b5050505050815260200160038201805480602002602001604051908101604052809291908181526020018280548015620014ae57602002820191906000526020600020905b81546001600160a01b031681526001909101906020018083116200148f575b50505050508152602001600482018054806020026020016040519081016040528092919081815260200182805480156200151257602002820191906000526020600020905b81546001600160a01b03168152600190910190602001808311620014f3575b50505050508152505090507f7822df68ea6ba88fa17a55a6c6fe1f7207c1653493392725ce9da7f61f8b601d816040516200154e9190620023f8565b60405180910390a192915050565b6003602090815260009182526040918290208054600180830180548651600293821615610100026000190190911692909204601f810186900486028301860190965285825291949293909290830182828015620006bb5780601f106200068f57610100808354040283529160200191620006bb565b600081815260036020526040908190209051606091907fa1c275d9147cd4bbf3a6fc6b01df2bdad7272d62a5bea8ea5f90e20e7c3f48e99062001619906002840190620022fb565b60405180910390a180600201805480602002602001604051908101604052809291908181526020018280548015620005f2576020028201919060005260206000209081546001600160a01b03168152600190910190602001808311620005d3575050505050915050919050565b600081815260056020526040908190209051606091907f1c7aaf504355c6134470b4070ca50bf276d45d0205aa86ef6bd15c684ae710c490620016ce90600284019062002321565b60405180910390a180600201805480602002602001604051908101604052809291908181526020018280548015620005f257602002820191906000526020600020905b81548152602001906001019080831162001711575050505050915050919050565b600081815260046020526040908190209051606091907f1c7aaf504355c6134470b4070ca50bf276d45d0205aa86ef6bd15c684ae710c490620016ce90600284019062002321565b6000808260405160200162001790919062002291565b6040516020818303038152906040528051906020012090506060620017b462001a40565b50604080516060810182528381526020808201878152828401859052600086815260058352939093208251815592518051929384939092620017fe926001850192910190620019bb565b50604082015180516200181c91600284019160209091019062001a64565b509050507ff73cee28a98c20f23a903356ab57dc8c514e66b0488c994b09dec06f978c839b838660405162001853929190620023af565b60405180910390a150909392505050565b60008181526006602090815260408083205481516398d6a37360e01b815291516001600160a01b039091169384936398d6a373936004808201949293918390030190829087803b158015620018b857600080fd5b505af1158015620018cd573d6000803e3d6000fd5b505050506040513d601f19601f8201168201806040525062000ea0919081019062001c4e565b600081815260036020526040908190209051606091907fa1c275d9147cd4bbf3a6fc6b01df2bdad7272d62a5bea8ea5f90e20e7c3f48e9906200193b906004840190620022fb565b60405180910390a180600401805480602002602001604051908101604052809291908181526020018280548015620005f2576020028201919060005260206000209081546001600160a01b03168152600190910190602001808311620005d3575050505050915050919050565b600055565b6105ac80620025c583390190565b828054600181600116156101000203166002900490600052602060002090601f016020900481019282601f10620019fe57805160ff191683800117855562001a2e565b8280016001018555821562001a2e579182015b8281111562001a2e57825182559160200191906001019062001a11565b5062001a3c92915062001b51565b5090565b60405180606001604052806000801916815260200160608152602001606081525090565b82805482825590600052602060002090810192821562001a2e579160200282018281111562001a2e57825182559160200191906001019062001a11565b60408051808201909152606081526000602082015290565b6040518060a0016040528060008019168152602001606081526020016060815260200160608152602001606081525090565b82805482825590600052602060002090810192821562001b43579160200282015b8281111562001b4357825182546001600160a01b0319166001600160a01b0390911617825560209092019160019091019062001b0c565b5062001a3c92915062001b6e565b620011a491905b8082111562001a3c576000815560010162001b58565b620011a491905b8082111562001a3c5780546001600160a01b031916815560010162001b75565b803562000dbf8162002594565b805162000dbf81620025ae565b803562000dbf81620025b9565b805162000dbf81620025b9565b600082601f83011262001bdb57600080fd5b813562001bf262001bec8262002478565b62002450565b9150808252602083016020830185838301111562001c0f57600080fd5b62001c1c838284620024ed565b50505092915050565b60006020828403121562001c3857600080fd5b600062001c46848462001b95565b949350505050565b60006020828403121562001c6157600080fd5b600062001c46848462001ba2565b60006020828403121562001c8257600080fd5b600062001c46848462001baf565b60006020828403121562001ca357600080fd5b600062001c46848462001bbc565b6000806040838503121562001cc557600080fd5b600062001cd3858562001baf565b925050602062001ce68582860162001baf565b9150509250929050565b60006020828403121562001d0357600080fd5b813567ffffffffffffffff81111562001d1b57600080fd5b62001c468482850162001bc9565b6000806040838503121562001d3d57600080fd5b823567ffffffffffffffff81111562001d5557600080fd5b62001d638582860162001bc9565b925050602062001ce68582860162001b95565b6000806040838503121562001d8a57600080fd5b823567ffffffffffffffff81111562001da257600080fd5b62001cd38582860162001bc9565b60008060006060848603121562001dc657600080fd5b833567ffffffffffffffff81111562001dde57600080fd5b62001dec8682870162001bc9565b935050602062001dff8682870162001baf565b925050604062001e128682870162001baf565b9150509250925092565b600062001e2a838362001e40565b505060200190565b600062001e2a83836200209f565b62001e4b81620024db565b82525050565b62001e4b62001e6082620024db565b62002554565b600062001e7382620024b3565b62001e7f8185620024c1565b935062001e8c83620024a1565b8060005b8381101562001ec057815162001ea7888262001e1c565b975062001eb483620024a1565b92505060010162001e90565b509495945050505050565b600062001ed882620024b3565b62001ee48185620024c1565b935062001ef183620024a1565b8060005b8381101562001ec057815162001f0c888262001e1c565b975062001f1983620024a1565b92505060010162001ef5565b600062001f3282620024b7565b62001f3e8185620024c1565b935062001f4b83620024a7565b8060005b8381101562001ec05762001f638262002568565b62001f6f888262001e1c565b975062001f7c83620024bb565b92505060010162001f4f565b600062001f9582620024b3565b62001fa18185620024c1565b935062001fae83620024a1565b8060005b8381101562001ec057815162001fc9888262001e32565b975062001fd683620024a1565b92505060010162001fb2565b600062001fef82620024b3565b62001ffb8185620024c1565b93506200200883620024a1565b8060005b8381101562001ec057815162002023888262001e32565b97506200203083620024a1565b9250506001016200200c565b60006200204982620024b7565b620020558185620024c1565b93506200206283620024a7565b8060005b8381101562001ec0576200207a8262002576565b62002086888262001e32565b97506200209383620024bb565b92505060010162002066565b62001e4b81620011a4565b62001e4b620020b982620011a4565b620011a4565b6000620020cc82620024b3565b620020d88185620024c1565b9350620020ea818560208601620024f9565b620020f58162002584565b9093019392505050565b60006200210c82620024b3565b620021188185620024ca565b93506200212a818560208601620024f9565b9290920192915050565b600062002143601683620024c1565b7510db185a5b481dd85cc81b9bdd0815995c9a599a595960521b815260200192915050565b805160009060a08401906200217e85826200209f565b5060208301518482036020860152620021988282620020bf565b91505060408301518482036040860152620021b4828262001ecb565b91505060608301518482036060860152620021d0828262001ecb565b91505060808301518482036080860152620021ec828262001ecb565b95945050505050565b805160009060608401906200220b85826200209f565b5060208301518482036020860152620022258282620020bf565b91505060408301518482036040860152620021ec828262001fe2565b80516040808452600091908401906200225b8282620020bf565b915050602083015162002272602086018262001e40565b509392505050565b600062002288828462001e51565b50601401919050565b6000620005418284620020ff565b6000620022ad8286620020ff565b9150620022bb8285620020aa565b602082019150620022cd8284620020aa565b506020019392505050565b6020810162000dbf828462001e40565b6020808252810162000541818462001e66565b6020808252810162000541818462001f25565b6020808252810162000541818462001f88565b602080825281016200054181846200203c565b6020810162000dbf82846200209f565b604081016200235482856200209f565b62000541602083018462001e40565b608081016200237382876200209f565b6200238260208301866200209f565b6200239160408301856200209f565b8181036060830152620023a58184620020bf565b9695505050505050565b60408101620023bf82856200209f565b818103602083015262001c468184620020bf565b60208082528101620005418184620020bf565b6020808252810162000dbf8162002134565b6020808252810162000541818462002168565b60208082528101620005418184620021f5565b6020808252810162000541818462002241565b604081016200244182856200209f565b6200054160208301846200209f565b60405181810167ffffffffffffffff811182821017156200247057600080fd5b604052919050565b600067ffffffffffffffff8211156200249057600080fd5b506020601f91909101601f19160190565b60200190565b60009081526020902090565b5190565b5490565b60010190565b90815260200190565b919050565b6001600160a01b031690565b600062000dbf82620024cf565b151590565b82818337506000910152565b60005b8381101562002516578181015183820152602001620024fc565b8381111562002526576000848401525b50505050565b600062000dbf6200253d83620011a4565b620024cf565b600062000dbf620020b983620011a4565b600062000dbf82600062000dbf826200258e565b600062000dbf82546200252c565b600062000dbf825462002543565b601f01601f191690565b60601b90565b6200259f81620024db565b8114620025ab57600080fd5b50565b6200259f81620024e8565b6200259f81620011a456fe608060405234801561001057600080fd5b506040516105ac3803806105ac8339818101604052608081101561003357600080fd5b81516020830151604080850151606086018051925194969395919493918201928464010000000082111561006657600080fd5b90830190602082018581111561007b57600080fd5b825164010000000081118282018810171561009557600080fd5b82525081516020918201929091019080838360005b838110156100c25781810151838201526020016100aa565b50505050905090810190601f1680156100ef5780820380516001836020036101000a031916815260200191505b506040525050506001849055600283905560038290558051610118906004906020840190610122565b50505050506101bd565b828054600181600116156101000203166002900490600052602060002090601f016020900481019282601f1061016357805160ff1916838001178555610190565b82800160010185558215610190579182015b82811115610190578251825591602001919060010190610175565b5061019c9291506101a0565b5090565b6101ba91905b8082111561019c57600081556001016101a6565b90565b6103e0806101cc6000396000f3fe608060405234801561001057600080fd5b50600436106100ea5760003560e01c8063844cdf091161008c578063cdb73ac011610066578063cdb73ac014610219578063d321fe2914610236578063d61909f91461023e578063f680a7bd1461025b576100ea565b8063844cdf091461020157806398d6a37314610209578063b95e216c14610211576100ea565b80633a50ed13116100c85780633a50ed13146101b75780633f02907a146101d4578063596ada67146101f157806380007e83146101f9576100ea565b806306fdde03146100ef578063209ebc081461016c57806334d6093d14610188575b600080fd5b6100f7610263565b6040805160208082528351818301528351919283929083019185019080838360005b83811015610131578181015183820152602001610119565b50505050905090810190601f16801561015e5780820380516001836020036101000a031916815260200191505b509250505060405180910390f35b6101746102f1565b604080519115158252519081900360200190f35b6101a56004803603602081101561019e57600080fd5b50356102ff565b60408051918252519081900360200190f35b6101a5600480360360208110156101cd57600080fd5b5035610307565b6101a5600480360360208110156101ea57600080fd5b503561030f565b6101a5610317565b61017461031d565b610174610326565b610174610339565b6101a561034d565b6101a56004803603602081101561022f57600080fd5b5035610353565b6101a561035b565b6101a56004803603602081101561025457600080fd5b5035610361565b6101a56103a5565b6004805460408051602060026001851615610100026000190190941693909304601f810184900484028201840190925281815292918301828280156102e95780601f106102be576101008083540402835291602001916102e9565b820191906000526020600020905b8154815290600101906020018083116102cc57829003601f168201915b505050505081565b600654610100900460ff1690565b600581905590565b600081905590565b600181905590565b60015481565b60065460ff1690565b6006805460ff1916600190811790915590565b6006805461ff001916610100179055600190565b60005481565b600281905590565b60055490565b60058190556040805182815290516000917f7da274c7907a6e3fe48918a914c8a93c400713daffcd99eaa4a9ae6e99322204919081900360200190a1505060055490565b6002548156fea265627a7a72315820d8e0334b44eb6de19207d1d8a1eadd841b54226cbf6e0d40434031b91633829564736f6c634300050b0032a365627a7a723158205311077470fc7a72cfea3cb5442bba8536c95d0e29e6113ede7ac6209dcbe1096c6578706572696d656e74616cf564736f6c634300050b0040",
  "source": "pragma solidity ^0.5.0;\npragma experimental ABIEncoderV2;\n\n\nimport \"./SafeMath.sol\";\nimport \"./ServiceClaim.sol\";\n\ncontract Organizations {\n\n    uint admin;\n\n\n    uint256 claimId; //Max value of the number of claims made\n    uint storedData; //Miscellaneous data\n\n    mapping (bytes32=>Patient) public patientMap; //ID of patient to specific provider -\n    mapping (bytes32=>Provider) public providerMap; //ID of provider to specific provider -\n    mapping (bytes32=>Insurer) public insurerMap; //ID of insurance provider to specific insurer\n    mapping (bytes32=>address) public serviceClaimsMap; //ID of serviceClaim to the specific ServiceClaim contract instance\n    mapping (address=>string) public serviceName;\n\n    //Events for organization creation    event ServiceCreated(address serviceClaimAddr);\n    event SCID(bytes32 ID, address addr);\n    event ClaimCreated(uint256 id, uint256 amount);\n    event ClaimVerified(bytes32 id);\n    event PatientCreated(bytes32 id, string name);\n    event ProviderCreated(bytes32 id, string name);\n    event InsurerCreated(bytes32 id, string name);\n    event PatientRetrieval(Patient patient);\n    event ProviderRetrieval(Provider provider);\n\n    //event patientList(Patient[] patients);\n    //event providerList(Provider[] providers);\n    //event insurerList(Insurer[] insurers);\n\n    event idList(bytes32[] ids);\n    event serviceList(address[] services);\n    event SCEvent(SC);\n\n    struct SC {\n        string name;\n        address addr;\n    }\n\n    SC[] SCList;\n\n    struct Patient {\n        bytes32 id;\n        string name;\n        address[] unclaimedServices;\n        address[] unverifiedClaims;\n        address[] verifiedClaims;\n    }\n\n    struct Provider {\n        bytes32 id;\n        string name;\n        bytes32[] patients;\n    }\n\n    struct Insurer {\n        bytes32 id;\n        string name;\n        bytes32[] providers;\n    }\n\n    constructor() public {\n        preLoadInfo();\n    }\n\n    // function stringToBytes32(string memory source) public returns (bytes32 result) {\n    //     bytes memory tempEmptyStringTest = bytes(source);\n    //     if (tempEmptyStringTest.length == 0) {\n    //         return 0x0;\n    //     }\n\n    //     assembly {\n    //         result := mload(add(source, 32))\n    //     }\n    // }\n\n\n    function pushSC(string memory _name, address _addr) public {\n        SC memory newSC = SC(_name, _addr);\n        SCList.push(newSC);\n        emit SCEvent(newSC);\n    }\n    function preLoadInfo() public{\n        bytes32 insurerID = addInsurer(\"CMS\");\n        bytes32 providerID = addProvider(\"UCSD Medical\", insurerID);\n        addPatient(\"Ken\", providerID);\n        addPatient(\"Danny\", providerID);\n        addPatient(\"Antonio\", providerID);\n    }\n    // ------------------------------ Adds Users to Network --------------------------- //\n\n    /** @dev add a patient to the network\n    @param _name is the name of the patient\n    @param _providerID is the current provider of the patient\n    @return pID is a bytes32 represented id number for the patient\n    */\n    function addPatient(string memory _name, bytes32 _providerID) public returns(bytes32 pID) {\n        bytes32 id = keccak256(abi.encodePacked(_name));\n        address[] memory uServiceList;\n        address[] memory uClaimList;\n        address[] memory vClaimList;\n        Patient memory newPatient = Patient(id, _name, uServiceList, uClaimList, vClaimList);\n        //bytes32 patientHash = keccak256(abi.encodePacked(newPatient));\n        patientMap[id] = newPatient;\n        providerMap[_providerID].patients.push(newPatient.id);\n        emit PatientCreated(id, _name);\n        return id;\n    }\n\n    /** @dev add a provider to the network\n    @param _name name of the provider\n    @param _insurerID id of insurance provider\n    @return the pID of the health provider -\n     */\n    function addProvider(string memory _name, bytes32 _insurerID) public returns(bytes32 pID) {\n        bytes32 id = keccak256(abi.encodePacked(_name));\n        bytes32[] memory emptyList;\n        Provider memory newProvider = Provider(id, _name, emptyList);\n        //bytes32 providerHash = keccak256(abi.encodePacked(newProvider));\n        providerMap[id] = newProvider;\n        insurerMap[_insurerID].providers.push(newProvider.id);\n        emit ProviderCreated(id, _name);\n        return id;\n    }\n\n    /** @dev add an insurnace provider to the network\n    @param _name the name of the insurance provider\n    @return pID of the insurance provider\n    */\n    function addInsurer(string memory _name) public returns(bytes32 pID) {\n        bytes32 id = keccak256(abi.encodePacked(_name));\n        bytes32[] memory emptyList;\n        Insurer memory newInsurer = Insurer(id, _name, emptyList);\n        //bytes32 insurerHash = keccak256(abi.encodePacked(newInsurer));\n        insurerMap[id] = newInsurer;\n        emit InsurerCreated(id, _name);\n        return id;\n    }\n\n    // ------------------------------ Functionality of the Network --------------------------- //\n\n    /** @dev create an instance of a ServiceClaim contract\n    @param _name name of the service\n    @param _providerID provider ID\n    @param _patientID patient ID\n    @return serviceContractHash is the id of the ServiceClaim contract\n    */\n    function provideService(string memory _name, bytes32 _providerID, bytes32 _patientID) public returns(bytes32 serviceContractHash) {\n        bytes32 id = keccak256(abi.encodePacked(_name, _providerID, _patientID));\n        ServiceClaim serviceClaim = new ServiceClaim(_providerID, _patientID, id, _name);\n        bytes32 serviceClaimID = keccak256(abi.encodePacked(address(serviceClaim)));\n        serviceClaimsMap[serviceClaimID] = address(serviceClaim);\n        Patient storage patient = patientMap[_patientID];\n        //patient.unverifiedClaims.push(address(serviceClaim));\n        // SC memory newSC = SC(stringToBytes32(_name), address(serviceClaim));\n        patient.unclaimedServices.push(address(serviceClaim));\n        serviceName[address(serviceClaim)] = _name;\n        emit SCID(serviceClaimID, address(serviceClaim));\n        return serviceClaimID;\n    }\n\n    /** @dev add a claim to a ServiceClaim contract i.e. the provider wants to file a claim for a service rendered\n    @param _serviceClaimID the ID of the ServiceClaim contract\n    @param _amount the amount to be claimed by the provider\n    @return ClaimID the ID of the claim\n    */\n    function fileClaim(bytes32 _serviceClaimID, uint256 _amount) public returns(uint256 ClaimID) {\n        //Patient storage cPatient = patientMap[_patient];\n        ServiceClaim myServiceClaim = ServiceClaim(serviceClaimsMap[_serviceClaimID]);\n        uint256 newClaimID = myServiceClaim.fileClaim(_amount);\n\n        bytes32 patID = myServiceClaim.patientID();\n        Patient storage cP = patientMap[patID];\n\n        for(uint i = 0; i < cP.unclaimedServices.length; i++){\n            if(cP.unclaimedServices[i] == address(myServiceClaim)){\n                delete(cP.unclaimedServices[i]);\n                break;\n            }\n        }\n        // string memory name = myServiceClaim.name();\n        // SC memory newSC = SC(stringToBytes32(name), address(myServiceClaim));\n        cP.unverifiedClaims.push(address(myServiceClaim));\n        emit ClaimCreated(newClaimID, _amount);\n        return newClaimID;\n    }\n \n    /** @dev invoke the verifyClaim function in the ServiceClaim contract\n    @param _serviceClaimID the id of the ServiceClaim contract\n    */\n    /** @dev invoke the verifyClaim function in the ServiceClaim contract\n    @param _serviceClaimID the id of the ServiceClaim contract\n    */\n    function verifyClaim(bytes32 _serviceClaimID) public {\n        ServiceClaim myServiceClaim = ServiceClaim(serviceClaimsMap[_serviceClaimID]);\n        require(myServiceClaim.verifyClaim(), \"Claim was not Verified\");\n        // Add the claim address to verified list\n        // Delete the claim address from unverified list\n        bytes32 patID = myServiceClaim.patientID();\n        Patient storage cP = patientMap[patID];\n\n        for(uint i = 0; i < cP.unverifiedClaims.length; i++){\n            if(cP.unverifiedClaims[i] == address(myServiceClaim)){\n                delete(cP.unverifiedClaims[i]);\n                break;\n            }\n        }\n        // string memory name = myServiceClaim.name();\n        // SC memory newSC = SC(stringToBytes32(name), address(myServiceClaim));\n        cP.verifiedClaims.push(address(myServiceClaim));\n        emit ClaimVerified(_serviceClaimID);\n    }\n\n    /** @dev invoke the payProvider function in the ServiceClaim contract\n    @param _serviceClaimID the id of the ServiceClaim contract\n    */\n    function payProvider(bytes32 _serviceClaimID) public {\n        //require(_serviceClaim.claim().verified == true, \"User has not verified service\");\n        ServiceClaim myServiceClaim = ServiceClaim(serviceClaimsMap[_serviceClaimID]);\n        myServiceClaim.payProvider();\n    }\n\n\n\n    // ------------------------------ Getters of Network Data --------------------------- //\n\n\n    function patientsOfProvider(bytes32 _id) public returns (bytes32[] memory) {\n        Provider storage cP = providerMap[_id];\n        emit idList(cP.patients);\n        return(cP.patients);\n    }\n\n    function providersOfInsurer(bytes32 _id) public returns (bytes32[] memory) {\n        Insurer storage cI = insurerMap[_id];\n        emit idList(cI.providers);\n        return(cI.providers);\n    }\n\n    function getPatient(bytes32 _id) public returns (Patient memory){\n        Patient memory patient = patientMap[_id];\n        emit PatientRetrieval(patient);\n        return patient;\n    }\n\n    function getProvider(bytes32 _id) public returns (Provider memory){\n        Provider memory provider = providerMap[_id];\n        emit ProviderRetrieval(provider);\n        return providerMap[_id];\n    }\n\n\n    function patientUnclaimedServices(bytes32 _id) public returns (address[] memory){\n        Patient storage cP = patientMap[_id];\n        emit serviceList(cP.unclaimedServices);\n        return(cP.unclaimedServices);\n    }\n\n    function patientUnverifiedClaims(bytes32 _id) public returns (address[] memory){\n        Patient storage cP = patientMap[_id];\n        emit serviceList(cP.unverifiedClaims);\n        return(cP.unverifiedClaims);\n    }\n\n    function patientVerifiedClaims(bytes32 _id) public returns (address[] memory){\n        Patient storage cP = patientMap[_id];\n        emit serviceList(cP.verifiedClaims);\n        return(cP.verifiedClaims);\n    }\n\n\n\n    function setAdmin(uint _num) public {\n        admin = _num;\n    }\n\n\n    function getAdmin() public view returns (uint) {\n        return admin;\n    }\n\n\n\n// TODO\n    // function insurerUnpaidClaims(bytes32 _id) public {\n    // }\n    // function insurerPaidClaims(bytes32 _id) public {\n\n    // }\n\n    // function providerUnpaidClaims(bytes32 _id) public {\n\n    // }\n\n    //  function providerPaidClaims(bytes32 _id) public {\n    // }\n}\n",
  "sourcePath": "/Users/kenmiyachi/BlockLAB/Medicare-Claim-Verification/contracts/Organizations.sol",
  "compiler": {
    "name": "solc",
    "version": "0.5.11+commit.c082d0b4.Emscripten.clang"
  },
  "schemaVersion": "3.0.12",
  "updatedAt": "2019-09-06T23:34:36.221Z",
  "devdoc": {
    "methods": {
      "addInsurer(string)": {
        "details": "add an insurnace provider to the network",
        "params": {
          "_name": "the name of the insurance provider"
        },
        "return": "pID of the insurance provider"
      },
      "addPatient(string,bytes32)": {
        "details": "add a patient to the network",
        "params": {
          "_name": "is the name of the patient",
          "_providerID": "is the current provider of the patient"
        },
        "return": "pID is a bytes32 represented id number for the patient"
      },
      "addProvider(string,bytes32)": {
        "details": "add a provider to the network",
        "params": {
          "_insurerID": "id of insurance provider",
          "_name": "name of the provider"
        },
        "return": "the pID of the health provider -"
      },
      "fileClaim(bytes32,uint256)": {
        "details": "add a claim to a ServiceClaim contract i.e. the provider wants to file a claim for a service rendered",
        "params": {
          "_amount": "the amount to be claimed by the provider",
          "_serviceClaimID": "the ID of the ServiceClaim contract"
        },
        "return": "ClaimID the ID of the claim"
      },
      "payProvider(bytes32)": {
        "details": "invoke the payProvider function in the ServiceClaim contract",
        "params": {
          "_serviceClaimID": "the id of the ServiceClaim contract"
        }
      },
      "provideService(string,bytes32,bytes32)": {
        "details": "create an instance of a ServiceClaim contract",
        "params": {
          "_name": "name of the service",
          "_patientID": "patient ID",
          "_providerID": "provider ID"
        },
        "return": "serviceContractHash is the id of the ServiceClaim contract"
      },
      "verifyClaim(bytes32)": {
        "details": "invoke the verifyClaim function in the ServiceClaim contract",
        "params": {
          "_serviceClaimID": "the id of the ServiceClaim contract"
        }
      }
    }
  },
  "userdoc": {
    "methods": {}
  }
}