{
  "contractName": "Organizations",
  "abi": [
    {
      "constant": true,
      "inputs": [
        {
          "name": "",
          "type": "bytes32"
        }
      ],
      "name": "serviceClaimsMap",
      "outputs": [
        {
          "name": "",
          "type": "address"
        }
      ],
      "payable": false,
      "stateMutability": "view",
      "type": "function",
      "signature": "0x2470d25e"
    },
    {
      "constant": true,
      "inputs": [
        {
          "name": "",
          "type": "bytes32"
        }
      ],
      "name": "providerMap",
      "outputs": [
        {
          "name": "id",
          "type": "bytes32"
        },
        {
          "name": "name",
          "type": "string"
        }
      ],
      "payable": false,
      "stateMutability": "view",
      "type": "function",
      "signature": "0x2bde2a86"
    },
    {
      "constant": true,
      "inputs": [
        {
          "name": "",
          "type": "bytes32"
        }
      ],
      "name": "insurerMap",
      "outputs": [
        {
          "name": "id",
          "type": "bytes32"
        },
        {
          "name": "name",
          "type": "string"
        }
      ],
      "payable": false,
      "stateMutability": "view",
      "type": "function",
      "signature": "0x39160aa7"
    },
    {
      "constant": true,
      "inputs": [
        {
          "name": "",
          "type": "bytes32"
        }
      ],
      "name": "patientMap",
      "outputs": [
        {
          "name": "id",
          "type": "bytes32"
        },
        {
          "name": "name",
          "type": "string"
        }
      ],
      "payable": false,
      "stateMutability": "view",
      "type": "function",
      "signature": "0x92398fbb"
    },
    {
      "anonymous": false,
      "inputs": [
        {
          "indexed": false,
          "name": "ID",
          "type": "bytes32"
        },
        {
          "indexed": false,
          "name": "addr",
          "type": "address"
        }
      ],
      "name": "SCID",
      "type": "event",
      "signature": "0x2cdb195d7226065901c0e37d742237ac3e30d6dc0ce7faf49701f6ec9f0bd1ed"
    },
    {
      "anonymous": false,
      "inputs": [
        {
          "indexed": false,
          "name": "id",
          "type": "uint256"
        },
        {
          "indexed": false,
          "name": "amount",
          "type": "uint256"
        }
      ],
      "name": "ClaimCreated",
      "type": "event",
      "signature": "0x96e3875898071e5d91932eb150a3914f9fe70e473f6faeaad697e99a48937c9c"
    },
    {
      "anonymous": false,
      "inputs": [
        {
          "indexed": false,
          "name": "id",
          "type": "bytes32"
        },
        {
          "indexed": false,
          "name": "name",
          "type": "string"
        }
      ],
      "name": "PatientCreated",
      "type": "event",
      "signature": "0x86ec8adc6f97da0327b3e1dcc24fa25aea5eb7afcf6af08792e4b2d4d799fad8"
    },
    {
      "anonymous": false,
      "inputs": [
        {
          "indexed": false,
          "name": "id",
          "type": "bytes32"
        },
        {
          "indexed": false,
          "name": "name",
          "type": "string"
        }
      ],
      "name": "ProviderCreated",
      "type": "event",
      "signature": "0x7dd222c7de5c7ba42d121aa7e2acc9d5d4a47c2eb31f55385cf51cbe459c5c9b"
    },
    {
      "anonymous": false,
      "inputs": [
        {
          "indexed": false,
          "name": "id",
          "type": "bytes32"
        },
        {
          "indexed": false,
          "name": "name",
          "type": "string"
        }
      ],
      "name": "InsurerCreated",
      "type": "event",
      "signature": "0xf73cee28a98c20f23a903356ab57dc8c514e66b0488c994b09dec06f978c839b"
    },
    {
      "anonymous": false,
      "inputs": [
        {
          "indexed": false,
          "name": "ids",
          "type": "bytes32[]"
        }
      ],
      "name": "idList",
      "type": "event",
      "signature": "0x1c7aaf504355c6134470b4070ca50bf276d45d0205aa86ef6bd15c684ae710c4"
    },
    {
      "anonymous": false,
      "inputs": [
        {
          "indexed": false,
          "name": "services",
          "type": "address[]"
        }
      ],
      "name": "serviceList",
      "type": "event",
      "signature": "0xa1c275d9147cd4bbf3a6fc6b01df2bdad7272d62a5bea8ea5f90e20e7c3f48e9"
    },
    {
      "constant": false,
      "inputs": [
        {
          "name": "_name",
          "type": "string"
        },
        {
          "name": "_providerID",
          "type": "bytes32"
        }
      ],
      "name": "addPatient",
      "outputs": [
        {
          "name": "pID",
          "type": "bytes32"
        }
      ],
      "payable": false,
      "stateMutability": "nonpayable",
      "type": "function",
      "signature": "0x740044b4"
    },
    {
      "constant": false,
      "inputs": [
        {
          "name": "_name",
          "type": "string"
        },
        {
          "name": "_insurerID",
          "type": "bytes32"
        }
      ],
      "name": "addProvider",
      "outputs": [
        {
          "name": "pID",
          "type": "bytes32"
        }
      ],
      "payable": false,
      "stateMutability": "nonpayable",
      "type": "function",
      "signature": "0x3e7e072e"
    },
    {
      "constant": false,
      "inputs": [
        {
          "name": "_name",
          "type": "string"
        }
      ],
      "name": "addInsurer",
      "outputs": [
        {
          "name": "pID",
          "type": "bytes32"
        }
      ],
      "payable": false,
      "stateMutability": "nonpayable",
      "type": "function",
      "signature": "0xdd238925"
    },
    {
      "constant": false,
      "inputs": [
        {
          "name": "_name",
          "type": "string"
        },
        {
          "name": "_providerID",
          "type": "bytes32"
        },
        {
          "name": "_patientID",
          "type": "bytes32"
        }
      ],
      "name": "newServiceClaim",
      "outputs": [
        {
          "name": "serviceContractHash",
          "type": "bytes32"
        }
      ],
      "payable": false,
      "stateMutability": "nonpayable",
      "type": "function",
      "signature": "0xd23c7c5d"
    },
    {
      "constant": false,
      "inputs": [
        {
          "name": "_serviceClaimID",
          "type": "bytes32"
        },
        {
          "name": "_amount",
          "type": "uint256"
        }
      ],
      "name": "addClaim",
      "outputs": [
        {
          "name": "ClaimID",
          "type": "uint256"
        }
      ],
      "payable": false,
      "stateMutability": "nonpayable",
      "type": "function",
      "signature": "0x01f92fc9"
    },
    {
      "constant": false,
      "inputs": [
        {
          "name": "_serviceClaimID",
          "type": "bytes32"
        }
      ],
      "name": "verifyClaim",
      "outputs": [],
      "payable": false,
      "stateMutability": "nonpayable",
      "type": "function",
      "signature": "0x35b73510"
    },
    {
      "constant": false,
      "inputs": [
        {
          "name": "_id",
          "type": "bytes32"
        }
      ],
      "name": "insurerUnpaidClaims",
      "outputs": [],
      "payable": false,
      "stateMutability": "nonpayable",
      "type": "function",
      "signature": "0x34340858"
    },
    {
      "constant": false,
      "inputs": [
        {
          "name": "_id",
          "type": "bytes32"
        }
      ],
      "name": "providerUnpaidClaims",
      "outputs": [],
      "payable": false,
      "stateMutability": "nonpayable",
      "type": "function",
      "signature": "0xde46d100"
    },
    {
      "constant": false,
      "inputs": [
        {
          "name": "_id",
          "type": "bytes32"
        }
      ],
      "name": "providerPaidClaims",
      "outputs": [],
      "payable": false,
      "stateMutability": "nonpayable",
      "type": "function",
      "signature": "0x4c222039"
    },
    {
      "constant": false,
      "inputs": [
        {
          "name": "_id",
          "type": "bytes32"
        }
      ],
      "name": "patientsOfProvider",
      "outputs": [
        {
          "name": "",
          "type": "bytes32[]"
        }
      ],
      "payable": false,
      "stateMutability": "nonpayable",
      "type": "function",
      "signature": "0xa46bfff9"
    },
    {
      "constant": false,
      "inputs": [
        {
          "name": "_id",
          "type": "bytes32"
        }
      ],
      "name": "providersOfInsurer",
      "outputs": [
        {
          "name": "",
          "type": "bytes32[]"
        }
      ],
      "payable": false,
      "stateMutability": "nonpayable",
      "type": "function",
      "signature": "0x9c860b8a"
    },
    {
      "constant": false,
      "inputs": [
        {
          "name": "_id",
          "type": "bytes32"
        }
      ],
      "name": "patientUnverifiedServices",
      "outputs": [
        {
          "name": "",
          "type": "address[]"
        }
      ],
      "payable": false,
      "stateMutability": "nonpayable",
      "type": "function",
      "signature": "0xef5bff9e"
    },
    {
      "constant": false,
      "inputs": [
        {
          "name": "_id",
          "type": "bytes32"
        }
      ],
      "name": "patientVerifiedServices",
      "outputs": [
        {
          "name": "",
          "type": "address[]"
        }
      ],
      "payable": false,
      "stateMutability": "nonpayable",
      "type": "function",
      "signature": "0xebc3a05b"
    },
    {
      "constant": false,
      "inputs": [
        {
          "name": "_num",
          "type": "uint256"
        }
      ],
      "name": "setAdmin",
      "outputs": [],
      "payable": false,
      "stateMutability": "nonpayable",
      "type": "function",
      "signature": "0xee3d52b3"
    },
    {
      "constant": true,
      "inputs": [],
      "name": "getAdmin",
      "outputs": [
        {
          "name": "",
          "type": "uint256"
        }
      ],
      "payable": false,
      "stateMutability": "view",
      "type": "function",
      "signature": "0x6e9960c3"
    }
  ],
  "bytecode": "0x608060405234801561001057600080fd5b50611aba806100206000396000f3fe60806040523480156200001157600080fd5b506004361062000159576000357c010000000000000000000000000000000000000000000000000000000090048063740044b411620000da578063dd2389251162000098578063dd23892514620002c4578063de46d10014620001da578063ebc3a05b14620002db578063ee3d52b31462000301578063ef5bff9e14620003185762000159565b8063740044b4146200024257806392398fbb14620002595780639c860b8a1462000270578063a46bfff91462000296578063d23c7c5d14620002ad5762000159565b806335b73510116200012857806335b7351014620001f357806339160aa7146200020a5780633e7e072e14620002215780634c22203914620001da5780636e9960c314620002385762000159565b806301f92fc9146200015e5780632470d25e146200018d5780632bde2a8614620001b35780633434085814620001da575b600080fd5b620001756200016f3660046200110e565b6200032f565b604051620001849190620015a6565b60405180910390f35b620001a46200019e366004620010ed565b62000427565b6040516200018491906200154a565b620001ca620001c4366004620010ed565b62000442565b6040516200018492919062001621565b620001f1620001eb366004620010ed565b620004ed565b005b620001f162000204366004620010ed565b620004f0565b620001ca6200021b366004620010ed565b620005e9565b620001756200023236600462001186565b6200065e565b6200017562000775565b620001756200025336600462001186565b6200077c565b620001ca6200026a366004620010ed565b620008ba565b6200028762000281366004620010ed565b6200092f565b60405162000184919062001580565b62000287620002a7366004620010ed565b620009dc565b62000175620002be366004620011c0565b62000a24565b62000175620002d53660046200114d565b62000b71565b620002f2620002ec366004620010ed565b62000c5b565b6040516200018491906200155a565b620001f162000312366004620010ed565b62000d11565b620002f262000329366004620010ed565b62000d16565b6000828152600660205260408082205490517f745c25f6000000000000000000000000000000000000000000000000000000008152600160a060020a03909116908290829063745c25f6906200038a908790600401620015a6565b602060405180830381600087803b158015620003a557600080fd5b505af1158015620003ba573d6000803e3d6000fd5b505050506040513d601f19601f82011682018060405250620003e091908101906200122c565b90507f96e3875898071e5d91932eb150a3914f9fe70e473f6faeaad697e99a48937c9c81856040516200041592919062001657565b60405180910390a19150505b92915050565b600660205260009081526040902054600160a060020a031681565b6004602090815260009182526040918290208054600180830180548651600293821615610100026000190190911692909204601f810186900486028301860190965285825291949293909290830182828015620004e35780601f10620004b757610100808354040283529160200191620004e3565b820191906000526020600020905b815481529060010190602001808311620004c557829003601f168201915b5050505050905082565b50565b60008181526006602090815260408083205481517f844cdf090000000000000000000000000000000000000000000000000000000081529151600160a060020a0390911693849363844cdf09936004808201949293918390030190829087803b1580156200055d57600080fd5b505af115801562000572573d6000803e3d6000fd5b505050506040513d601f19601f82011682018060405250620005989190810190620010c4565b620005da576040517f08c379a0000000000000000000000000000000000000000000000000000000008152600401620005d19062001645565b60405180910390fd5b620005e58162000dcb565b5050565b6005602090815260009182526040918290208054600180830180548651600293821615610100026000190190911692909204601f810186900486028301860190965285825291949293909290830182828015620004e35780601f10620004b757610100808354040283529160200191620004e3565b6000808360405160200162000674919062001503565b60405160208183030381529060405280519060200120905060606200069862000e5e565b50604080516060810182528381526020808201888152828401859052600086815260048352939093208251815592518051929384939092620006e292600185019291019062000e82565b50604082015180516200070091600284019160209091019062000f07565b50505060008581526005602090815260408083208451600290910180546001810182559085529290932090910191909155517f7dd222c7de5c7ba42d121aa7e2acc9d5d4a47c2eb31f55385cf51cbe459c5c9b9062000763908590899062001621565b60405180910390a15090949350505050565b6000545b90565b6000808360405160200162000792919062001503565b604051602081830303815290604052805190602001209050606080620007b762000f44565b50604080516080810182528481526020808201898152828401869052606083018590526000878152600383529390932082518155925180519293849390926200080892600185019291019062000e82565b50604082015180516200082691600284019160209091019062000f6f565b50606082015180516200084491600384019160209091019062000f6f565b50505060008681526004602090815260408083208451600290910180546001810182559085529290932090910191909155517f86ec8adc6f97da0327b3e1dcc24fa25aea5eb7afcf6af08792e4b2d4d799fad890620008a79086908a9062001621565b60405180910390a1509195945050505050565b6003602090815260009182526040918290208054600180830180548651600293821615610100026000190190911692909204601f810186900486028301860190965285825291949293909290830182828015620004e35780601f10620004b757610100808354040283529160200191620004e3565b600081815260056020526040908190209051606091907f1c7aaf504355c6134470b4070ca50bf276d45d0205aa86ef6bd15c684ae710c4906200097790600284019062001593565b60405180910390a180600201805480602002602001604051908101604052809291908181526020018280548015620009cf57602002820191906000526020600020905b815481526020019060010190808311620009ba575b5050505050915050919050565b600081815260046020526040908190209051606091907f1c7aaf504355c6134470b4070ca50bf276d45d0205aa86ef6bd15c684ae710c4906200097790600284019062001593565b60008084848460405160200162000a3e9392919062001511565b60405160208183030381529060405280519060200120905060008484838860405162000a6a9062000fe2565b62000a799493929190620015d5565b604051809103906000f08015801562000a96573d6000803e3d6000fd5b50905060008160405160200162000aae9190620014ec565b60408051601f1981840301815282825280516020918201206000818152600683528381208054600160a060020a03891673ffffffffffffffffffffffffffffffffffffffff1991821681179092558b835260038552948220600281018054600181018255908452949092209093018054909416909217909255909250907f2cdb195d7226065901c0e37d742237ac3e30d6dc0ce7faf49701f6ec9f0bd1ed9062000b5c9084908690620015b6565b60405180910390a150925050505b9392505050565b6000808260405160200162000b87919062001503565b604051602081830303815290604052805190602001209050606062000bab62000e5e565b5060408051606081018252838152602080820187815282840185905260008681526005835293909320825181559251805192938493909262000bf592600185019291019062000e82565b506040820151805162000c1391600284019160209091019062000f07565b509050507ff73cee28a98c20f23a903356ab57dc8c514e66b0488c994b09dec06f978c839b838660405162000c4a92919062001621565b60405180910390a150909392505050565b6000818152600360208190526040918290209151606092917fa1c275d9147cd4bbf3a6fc6b01df2bdad7272d62a5bea8ea5f90e20e7c3f48e99162000ca3918401906200156d565b60405180910390a180600301805480602002602001604051908101604052809291908181526020018280548015620009cf57602002820191906000526020600020905b8154600160a060020a0316815260019091019060200180831162000ce6575050505050915050919050565b600055565b600081815260036020526040908190209051606091907fa1c275d9147cd4bbf3a6fc6b01df2bdad7272d62a5bea8ea5f90e20e7c3f48e99062000d5e9060028401906200156d565b60405180910390a180600201805480602002602001604051908101604052809291908181526020018280548015620009cf57602002820191906000526020600020908154600160a060020a0316815260019091019060200180831162000ce6575050505050915050919050565b80600160a060020a03166398d6a3736040518163ffffffff167c0100000000000000000000000000000000000000000000000000000000028152600401602060405180830381600087803b15801562000e2357600080fd5b505af115801562000e38573d6000803e3d6000fd5b505050506040513d601f19601f82011682018060405250620005e59190810190620010c4565b60405180606001604052806000801916815260200160608152602001606081525090565b828054600181600116156101000203166002900490600052602060002090601f016020900481019282601f1062000ec557805160ff191683800117855562000ef5565b8280016001018555821562000ef5579182015b8281111562000ef557825182559160200191906001019062000ed8565b5062000f0392915062000ff0565b5090565b82805482825590600052602060002090810192821562000ef5579160200282018281111562000ef557825182559160200191906001019062000ed8565b6040518060800160405280600080191681526020016060815260200160608152602001606081525090565b82805482825590600052602060002090810192821562000fd4579160200282015b8281111562000fd4578251825473ffffffffffffffffffffffffffffffffffffffff1916600160a060020a0390911617825560209092019160019091019062000f90565b5062000f039291506200100d565b61028f80620017e983390190565b6200077991905b8082111562000f03576000815560010162000ff7565b6200077991905b8082111562000f0357805473ffffffffffffffffffffffffffffffffffffffff1916815560010162001014565b80516200042181620017c6565b80356200042181620017dd565b600082601f8301126200106d57600080fd5b8135620010846200107e826200169e565b62001676565b91508082526020830160208301858383011115620010a157600080fd5b620010ae83828462001713565b50505092915050565b80516200042181620017dd565b600060208284031215620010d757600080fd5b6000620010e5848462001041565b949350505050565b6000602082840312156200110057600080fd5b6000620010e584846200104e565b600080604083850312156200112257600080fd5b60006200113085856200104e565b925050602062001143858286016200104e565b9150509250929050565b6000602082840312156200116057600080fd5b813567ffffffffffffffff8111156200117857600080fd5b620010e5848285016200105b565b600080604083850312156200119a57600080fd5b823567ffffffffffffffff811115620011b257600080fd5b62001130858286016200105b565b600080600060608486031215620011d657600080fd5b833567ffffffffffffffff811115620011ee57600080fd5b620011fc868287016200105b565b93505060206200120f868287016200104e565b925050604062001222868287016200104e565b9150509250925092565b6000602082840312156200123f57600080fd5b6000620010e58484620010b7565b60006200125b838362001271565b505060200190565b60006200125b83836200141c565b6200127c8162001701565b82525050565b6200127c620012918262001701565b6200177a565b6000620012a482620016d9565b620012b08185620016e7565b9350620012bd83620016c7565b8060005b83811015620012f1578151620012d888826200124d565b9750620012e583620016c7565b925050600101620012c1565b509495945050505050565b60006200130982620016dd565b620013158185620016e7565b93506200132283620016cd565b8060005b83811015620012f1576200133a826200178e565b6200134688826200124d565b97506200135383620016e1565b92505060010162001326565b60006200136c82620016d9565b620013788185620016e7565b93506200138583620016c7565b8060005b83811015620012f1578151620013a0888262001263565b9750620013ad83620016c7565b92505060010162001389565b6000620013c682620016dd565b620013d28185620016e7565b9350620013df83620016cd565b8060005b83811015620012f157620013f7826200179c565b62001403888262001263565b97506200141083620016e1565b925050600101620013e3565b6200127c8162000779565b6200127c620014368262000779565b62000779565b60006200144982620016d9565b620014558185620016e7565b9350620014678185602086016200171f565b6200147281620017aa565b9093019392505050565b60006200148982620016d9565b620014958185620016f0565b9350620014a78185602086016200171f565b9290920192915050565b6000620014c0601683620016e7565b7f436c61696d20776173206e6f7420766572696669656400000000000000000000815260200192915050565b6000620014fa828462001282565b50601401919050565b600062000b6a82846200147c565b60006200151f82866200147c565b91506200152d828562001427565b6020820191506200153f828462001427565b506020019392505050565b6020810162000421828462001271565b6020808252810162000b6a818462001297565b6020808252810162000b6a8184620012fc565b6020808252810162000b6a81846200135f565b6020808252810162000b6a8184620013b9565b602081016200042182846200141c565b60408101620015c682856200141c565b62000b6a602083018462001271565b60808101620015e582876200141c565b620015f460208301866200141c565b6200160360408301856200141c565b81810360608301526200161781846200143c565b9695505050505050565b604081016200163182856200141c565b8181036020830152620010e581846200143c565b602080825281016200042181620014b1565b604081016200166782856200141c565b62000b6a60208301846200141c565b60405181810167ffffffffffffffff811182821017156200169657600080fd5b604052919050565b600067ffffffffffffffff821115620016b657600080fd5b506020601f91909101601f19160190565b60200190565b60009081526020902090565b5190565b5490565b60010190565b90815260200190565b919050565b600160a060020a031690565b60006200042182620016f5565b151590565b82818337506000910152565b60005b838110156200173c57818101518382015260200162001722565b838111156200174c576000848401525b50505050565b600062000421620017638362000779565b620016f5565b600062000421620014368362000779565b6000620004218260006200042182620017b4565b600062000421825462001752565b600062000421825462001769565b601f01601f191690565b6c010000000000000000000000000290565b620017d1816200170e565b8114620004ed57600080fd5b620017d1816200077956fe608060405234801561001057600080fd5b5060405161028f38038061028f8339818101604052608081101561003357600080fd5b815160208301516040840151606085018051939592949193918301929164010000000081111561006257600080fd5b8201602081018481111561007557600080fd5b815164010000000081118282018710171561008f57600080fd5b505060018790556002869055600385905580519093506100b892506004915060208401906100c2565b505050505061015d565b828054600181600116156101000203166002900490600052602060002090601f016020900481019282601f1061010357805160ff1916838001178555610130565b82800160010185558215610130579182015b82811115610130578251825591602001919060010190610115565b5061013c929150610140565b5090565b61015a91905b8082111561013c5760008155600101610146565b90565b6101238061016c6000396000f3fe6080604052348015600f57600080fd5b50600436106062577c01000000000000000000000000000000000000000000000000000000006000350463745c25f681146067578063844cdf0914609357806398d6a3731460ad578063d321fe291460b3575b600080fd5b608160048036036020811015607b57600080fd5b503560b9565b60408051918252519081900360200190f35b609960c1565b604080519115158252519081900360200190f35b609960d4565b608160e8565b600581905590565b6006805460ff1916600190811790915590565b6006805461ff001916610100179055600190565b6005549056fea265627a7a72305820fe544445c0fec3026afe1a2aaa4e0f1262e7ec5c75f98cca5ba3061b85a5b1ac64736f6c634300050a0032a365627a7a723058201f102596d1c490b9d1c9085d79b0a6ba5451e401cb98a6133ef3b6e7430245726c6578706572696d656e74616cf564736f6c634300050a0040",
  "source": "pragma solidity ^0.5.0;\npragma experimental ABIEncoderV2;\n\n\nimport \"./SafeMath.sol\";\nimport \"./ServiceClaim.sol\";\n\ncontract Organizations {\n\n    uint admin;\n\n\n    uint256 claimId; //Max value of the number of claims made\n    uint storedData; //Miscellaneous data\n\n    mapping (bytes32=>Patient) public patientMap; //ID of patient to specific provider -\n    mapping (bytes32=>Provider) public providerMap; //ID of provider to specific provider -\n    mapping (bytes32=>Insurer) public insurerMap; //ID of insurance provider to specific insurer\n    mapping (bytes32=>address) public serviceClaimsMap; //ID of serviceClaim to the specific ServiceClaim contract instance\n\n    //Events for organization creation    event ServiceCreated(address serviceClaimAddr);\n    event SCID(bytes32 ID, address addr);\n    event ClaimCreated(uint256 id, uint256 amount);\n    event PatientCreated(bytes32 id, string name);\n    event ProviderCreated(bytes32 id, string name);\n    event InsurerCreated(bytes32 id, string name);\n\n\n    //event patientList(Patient[] patients);\n    //event providerList(Provider[] providers);\n    //event insurerList(Insurer[] insurers);\n\n    event idList(bytes32[] ids);\n    event serviceList(address[] services);\n\n    struct Patient {\n        bytes32 id;\n        string name;\n        address[] unverifiedServiceClaims;\n        address[] verifiedServiceClaims;\n    }\n\n    struct Provider {\n        bytes32 id;\n        string name;\n        bytes32[] patients;\n    }\n\n    struct Insurer {\n        bytes32 id;\n        string name;\n        bytes32[] providers;\n    }\n\n    // ------------------------------ Adds Users to Network --------------------------- //\n\n    /** @dev add a patient to the network\n    @param _name is the name of the patient\n    @param _providerID is the current provider of the patient\n    @return pID is a bytes32 represented id number for the patient\n    */\n    function addPatient(string memory _name, bytes32 _providerID) public returns(bytes32 pID) {\n        bytes32 id = keccak256(abi.encodePacked(_name));\n        address[] memory uClaimList;\n        address[] memory vClaimList;\n        Patient memory newPatient = Patient(id, _name, uClaimList, vClaimList);\n        //bytes32 patientHash = keccak256(abi.encodePacked(newPatient));\n        patientMap[id] = newPatient;\n        providerMap[_providerID].patients.push(newPatient.id);\n        emit PatientCreated(id, _name);\n        return id;\n    }\n\n    /** @dev add a provider to the network\n    @param _name name of the provider\n    @param _insurerID id of insurance provider\n    @return the pID of the health provider -\n     */\n    function addProvider(string memory _name, bytes32 _insurerID) public returns(bytes32 pID) {\n        bytes32 id = keccak256(abi.encodePacked(_name));\n        bytes32[] memory emptyList;\n        Provider memory newProvider = Provider(id, _name, emptyList);\n        //bytes32 providerHash = keccak256(abi.encodePacked(newProvider));\n        providerMap[id] = newProvider;\n        insurerMap[_insurerID].providers.push(newProvider.id);\n        emit ProviderCreated(id, _name);\n        return id;\n    }\n\n    /** @dev add an insurnace provider to the network\n    @param _name the name of the insurance provider\n    @return pID of the insurance provider\n    */\n    function addInsurer(string memory _name) public returns(bytes32 pID) {\n        bytes32 id = keccak256(abi.encodePacked(_name));\n        bytes32[] memory emptyList;\n        Insurer memory newInsurer = Insurer(id, _name, emptyList);\n        //bytes32 insurerHash = keccak256(abi.encodePacked(newInsurer));\n        insurerMap[id] = newInsurer;\n        emit InsurerCreated(id, _name);\n        return id;\n    }\n\n    // ------------------------------ Functionality of the Network --------------------------- //\n\n    /** @dev create an instance of a ServiceClaim contract\n    @param _name name of the service\n    @param _providerID provider ID\n    @param _patientID patient ID\n    @return serviceContractHash is the id of the ServiceClaim contract\n    */\n    function newServiceClaim(string memory _name, bytes32 _providerID, bytes32 _patientID) public returns(bytes32 serviceContractHash) {\n        bytes32 id = keccak256(abi.encodePacked(_name, _providerID, _patientID));\n        ServiceClaim serviceClaim = new ServiceClaim(_providerID, _patientID, id, _name);\n        bytes32 serviceClaimID = keccak256(abi.encodePacked(address(serviceClaim)));\n        serviceClaimsMap[serviceClaimID] = address(serviceClaim);\n        Patient storage patient = patientMap[_patientID];\n        patient.unverifiedServiceClaims.push(address(serviceClaim));\n        emit SCID(serviceClaimID, address(serviceClaim));\n        return serviceClaimID;\n    }\n\n    /** @dev add a claim to a ServiceClaim contract i.e. the provider wants to file a claim for a service rendered\n    @param _serviceClaimID the ID of the ServiceClaim contract\n    @param _amount the amount to be claimed by the provider\n    @return ClaimID the ID of the claim\n    */\n    function addClaim(bytes32 _serviceClaimID, uint256 _amount) public returns(uint256 ClaimID) {\n        //Patient storage cPatient = patientMap[_patient];\n        ServiceClaim myServiceClaim = ServiceClaim(serviceClaimsMap[_serviceClaimID]);\n        uint256 newClaimID = myServiceClaim.addClaim(_amount);\n        emit ClaimCreated(newClaimID, _amount);\n        return newClaimID;\n    }\n\n    \n    /** @dev invoke the verifyClaim function in the ServiceClaim contract\n    @param _serviceClaimID the id of the ServiceClaim contract\n    */\n    function verifyClaim(bytes32 _serviceClaimID) public {\n        ServiceClaim myServiceClaim = ServiceClaim(serviceClaimsMap[_serviceClaimID]);\n        require(myServiceClaim.verifyClaim(), \"Claim was not verified\");\n        payProvider(myServiceClaim);\n    }\n\n    /** @dev invoke the payProvider function in the ServiceClaim contract, may only be called from within Organizations.sol\n    @param _serviceClaim an instance of the ServiceClaim contract\n    */\n    function payProvider(ServiceClaim _serviceClaim) internal {\n        //require(_serviceClaim.claim().verified == true, \"User has not verified service\");\n        _serviceClaim.payProvider();\n    }\n\n\n\n    // ------------------------------ Getters of Network Data --------------------------- //\n\n    function insurerUnpaidClaims(bytes32 _id) public {\n\n    }\n\n    function providerUnpaidClaims(bytes32 _id) public {\n\n    }\n\n     function providerPaidClaims(bytes32 _id) public {\n        \n    }\n\n    function patientsOfProvider(bytes32 _id) public returns (bytes32[] memory) {\n        Provider storage cP = providerMap[_id];\n        emit idList(cP.patients);\n        return(cP.patients);\n    }\n\n    function providersOfInsurer(bytes32 _id) public returns (bytes32[] memory) {\n        Insurer storage cI = insurerMap[_id];\n        emit idList(cI.providers);\n        return(cI.providers);\n    }\n\n    function patientUnverifiedServices(bytes32 _id) public returns (address[] memory){\n        Patient storage cP = patientMap[_id];\n        emit serviceList(cP.unverifiedServiceClaims);\n        return(cP.unverifiedServiceClaims);\n    }\n\n    function patientVerifiedServices(bytes32 _id) public returns (address[] memory){\n        Patient storage cP = patientMap[_id];\n        emit serviceList(cP.verifiedServiceClaims);\n        return(cP.verifiedServiceClaims);\n    }\n\n\n\n    function setAdmin(uint _num) public {\n        admin = _num;\n    }\n\n\n    function getAdmin() public view returns (uint) {\n        return admin;\n    }\n}",
  "sourcePath": "/Users/kenmiyachi/BlockLAB/Medicare-Claim-Verification/contracts/Organizations.sol",
  "compiler": {
    "name": "solc",
    "version": "0.5.10+commit.5a6ea5b1.Emscripten.clang"
  },
  "schemaVersion": "3.0.8",
  "updatedAt": "2019-07-26T22:33:19.661Z",
  "devdoc": {
    "methods": {
      "addClaim(bytes32,uint256)": {
        "details": "add a claim to a ServiceClaim contract i.e. the provider wants to file a claim for a service rendered",
        "params": {
          "_amount": "the amount to be claimed by the provider",
          "_serviceClaimID": "the ID of the ServiceClaim contract"
        },
        "return": "ClaimID the ID of the claim"
      },
      "addInsurer(string)": {
        "details": "add an insurnace provider to the network",
        "params": {
          "_name": "the name of the insurance provider"
        },
        "return": "pID of the insurance provider"
      },
      "addPatient(string,bytes32)": {
        "details": "add a patient to the network",
        "params": {
          "_name": "is the name of the patient",
          "_providerID": "is the current provider of the patient"
        },
        "return": "pID is a bytes32 represented id number for the patient"
      },
      "addProvider(string,bytes32)": {
        "details": "add a provider to the network",
        "params": {
          "_insurerID": "id of insurance provider",
          "_name": "name of the provider"
        },
        "return": "the pID of the health provider -"
      },
      "newServiceClaim(string,bytes32,bytes32)": {
        "details": "create an instance of a ServiceClaim contract",
        "params": {
          "_name": "name of the service",
          "_patientID": "patient ID",
          "_providerID": "provider ID"
        },
        "return": "serviceContractHash is the id of the ServiceClaim contract"
      },
      "verifyClaim(bytes32)": {
        "details": "invoke the verifyClaim function in the ServiceClaim contract",
        "params": {
          "_serviceClaimID": "the id of the ServiceClaim contract"
        }
      }
    }
  },
  "userdoc": {
    "methods": {}
  }
}