{
  "contractName": "Organizations",
  "abi": [
    {
      "constant": true,
      "inputs": [
        {
          "name": "",
          "type": "bytes32"
        }
      ],
      "name": "serviceClaimsMap",
      "outputs": [
        {
          "name": "",
          "type": "address"
        }
      ],
      "payable": false,
      "stateMutability": "view",
      "type": "function"
    },
    {
      "constant": true,
      "inputs": [
        {
          "name": "",
          "type": "bytes32"
        }
      ],
      "name": "providerMap",
      "outputs": [
        {
          "name": "id",
          "type": "bytes32"
        },
        {
          "name": "name",
          "type": "string"
        }
      ],
      "payable": false,
      "stateMutability": "view",
      "type": "function"
    },
    {
      "constant": true,
      "inputs": [
        {
          "name": "",
          "type": "bytes32"
        }
      ],
      "name": "insurerMap",
      "outputs": [
        {
          "name": "id",
          "type": "bytes32"
        },
        {
          "name": "name",
          "type": "string"
        }
      ],
      "payable": false,
      "stateMutability": "view",
      "type": "function"
    },
    {
      "constant": true,
      "inputs": [
        {
          "name": "",
          "type": "bytes32"
        }
      ],
      "name": "patientMap",
      "outputs": [
        {
          "name": "id",
          "type": "bytes32"
        },
        {
          "name": "name",
          "type": "string"
        }
      ],
      "payable": false,
      "stateMutability": "view",
      "type": "function"
    },
    {
      "anonymous": false,
      "inputs": [
        {
          "indexed": false,
          "name": "ID",
          "type": "bytes32"
        },
        {
          "indexed": false,
          "name": "addr",
          "type": "address"
        }
      ],
      "name": "SCID",
      "type": "event"
    },
    {
      "anonymous": false,
      "inputs": [
        {
          "indexed": false,
          "name": "id",
          "type": "uint256"
        },
        {
          "indexed": false,
          "name": "amount",
          "type": "uint256"
        }
      ],
      "name": "ClaimCreated",
      "type": "event"
    },
    {
      "anonymous": false,
      "inputs": [
        {
          "indexed": false,
          "name": "id",
          "type": "bytes32"
        },
        {
          "indexed": false,
          "name": "name",
          "type": "string"
        }
      ],
      "name": "PatientCreated",
      "type": "event"
    },
    {
      "anonymous": false,
      "inputs": [
        {
          "indexed": false,
          "name": "id",
          "type": "bytes32"
        },
        {
          "indexed": false,
          "name": "name",
          "type": "string"
        }
      ],
      "name": "ProviderCreated",
      "type": "event"
    },
    {
      "anonymous": false,
      "inputs": [
        {
          "indexed": false,
          "name": "id",
          "type": "bytes32"
        },
        {
          "indexed": false,
          "name": "name",
          "type": "string"
        }
      ],
      "name": "InsurerCreated",
      "type": "event"
    },
    {
      "anonymous": false,
      "inputs": [
        {
          "indexed": false,
          "name": "ids",
          "type": "bytes32[]"
        }
      ],
      "name": "idList",
      "type": "event"
    },
    {
      "anonymous": false,
      "inputs": [
        {
          "indexed": false,
          "name": "services",
          "type": "address[]"
        }
      ],
      "name": "serviceList",
      "type": "event"
    },
    {
      "constant": false,
      "inputs": [
        {
          "name": "_name",
          "type": "string"
        },
        {
          "name": "_providerID",
          "type": "bytes32"
        }
      ],
      "name": "addPatient",
      "outputs": [
        {
          "name": "pID",
          "type": "bytes32"
        }
      ],
      "payable": false,
      "stateMutability": "nonpayable",
      "type": "function"
    },
    {
      "constant": false,
      "inputs": [
        {
          "name": "_name",
          "type": "string"
        },
        {
          "name": "_insurerID",
          "type": "bytes32"
        }
      ],
      "name": "addProvider",
      "outputs": [
        {
          "name": "pID",
          "type": "bytes32"
        }
      ],
      "payable": false,
      "stateMutability": "nonpayable",
      "type": "function"
    },
    {
      "constant": false,
      "inputs": [
        {
          "name": "_name",
          "type": "string"
        }
      ],
      "name": "addInsurer",
      "outputs": [
        {
          "name": "pID",
          "type": "bytes32"
        }
      ],
      "payable": false,
      "stateMutability": "nonpayable",
      "type": "function"
    },
    {
      "constant": false,
      "inputs": [
        {
          "name": "_name",
          "type": "string"
        },
        {
          "name": "_providerID",
          "type": "bytes32"
        },
        {
          "name": "_patientID",
          "type": "bytes32"
        }
      ],
      "name": "newServiceClaim",
      "outputs": [
        {
          "name": "serviceContractHash",
          "type": "bytes32"
        }
      ],
      "payable": false,
      "stateMutability": "nonpayable",
      "type": "function"
    },
    {
      "constant": false,
      "inputs": [
        {
          "name": "_serviceClaimID",
          "type": "bytes32"
        },
        {
          "name": "_amount",
          "type": "uint256"
        }
      ],
      "name": "addClaim",
      "outputs": [
        {
          "name": "ClaimID",
          "type": "uint256"
        }
      ],
      "payable": false,
      "stateMutability": "nonpayable",
      "type": "function"
    },
    {
      "constant": false,
      "inputs": [
        {
          "name": "_serviceClaimID",
          "type": "bytes32"
        }
      ],
      "name": "verifyClaim",
      "outputs": [],
      "payable": false,
      "stateMutability": "nonpayable",
      "type": "function"
    },
    {
      "constant": false,
      "inputs": [
        {
          "name": "_id",
          "type": "bytes32"
        }
      ],
      "name": "insurerUnpaidClaims",
      "outputs": [],
      "payable": false,
      "stateMutability": "nonpayable",
      "type": "function"
    },
    {
      "constant": false,
      "inputs": [
        {
          "name": "_id",
          "type": "bytes32"
        }
      ],
      "name": "providerUnpaidClaims",
      "outputs": [],
      "payable": false,
      "stateMutability": "nonpayable",
      "type": "function"
    },
    {
      "constant": false,
      "inputs": [
        {
          "name": "_id",
          "type": "bytes32"
        }
      ],
      "name": "providerPaidClaims",
      "outputs": [],
      "payable": false,
      "stateMutability": "nonpayable",
      "type": "function"
    },
    {
      "constant": false,
      "inputs": [
        {
          "name": "_id",
          "type": "bytes32"
        }
      ],
      "name": "patientsOfProvider",
      "outputs": [
        {
          "name": "",
          "type": "bytes32[]"
        }
      ],
      "payable": false,
      "stateMutability": "nonpayable",
      "type": "function"
    },
    {
      "constant": false,
      "inputs": [
        {
          "name": "_id",
          "type": "bytes32"
        }
      ],
      "name": "providersOfInsurer",
      "outputs": [
        {
          "name": "",
          "type": "bytes32[]"
        }
      ],
      "payable": false,
      "stateMutability": "nonpayable",
      "type": "function"
    },
    {
      "constant": false,
      "inputs": [
        {
          "name": "_id",
          "type": "bytes32"
        }
      ],
      "name": "patientUnverifiedServices",
      "outputs": [
        {
          "name": "",
          "type": "address[]"
        }
      ],
      "payable": false,
      "stateMutability": "nonpayable",
      "type": "function"
    },
    {
      "constant": false,
      "inputs": [
        {
          "name": "_id",
          "type": "bytes32"
        }
      ],
      "name": "patientVerifiedServices",
      "outputs": [
        {
          "name": "",
          "type": "address[]"
        }
      ],
      "payable": false,
      "stateMutability": "nonpayable",
      "type": "function"
    },
    {
      "constant": false,
      "inputs": [
        {
          "name": "_num",
          "type": "uint256"
        }
      ],
      "name": "setAdmin",
      "outputs": [],
      "payable": false,
      "stateMutability": "nonpayable",
      "type": "function"
    },
    {
      "constant": true,
      "inputs": [],
      "name": "getAdmin",
      "outputs": [
        {
          "name": "",
          "type": "uint256"
        }
      ],
      "payable": false,
      "stateMutability": "view",
      "type": "function"
    }
  ],
  "bytecode": "0x608060405234801561001057600080fd5b506119df806100206000396000f3fe60806040523480156200001157600080fd5b50600436106200013c5760003560e01c8063740044b411620000bd578063dd238925116200007b578063dd23892514620002a7578063de46d10014620001bd578063ebc3a05b14620002be578063ee3d52b314620002e4578063ef5bff9e14620002fb576200013c565b8063740044b4146200022557806392398fbb146200023c5780639c860b8a1462000253578063a46bfff91462000279578063d23c7c5d1462000290576200013c565b806335b73510116200010b57806335b7351014620001d657806339160aa714620001ed5780633e7e072e14620002045780634c22203914620001bd5780636e9960c3146200021b576200013c565b806301f92fc914620001415780632470d25e14620001705780632bde2a8614620001965780633434085814620001bd575b600080fd5b620001586200015236600462001062565b62000312565b604051620001679190620014f3565b60405180910390f35b620001876200018136600462001041565b620003f1565b60405162000167919062001497565b620001ad620001a736600462001041565b6200040c565b604051620001679291906200156e565b620001d4620001ce36600462001041565b620004b7565b005b620001d4620001e736600462001041565b620004ba565b620001ad620001fe36600462001041565b62000580565b6200015862000215366004620010da565b620005f5565b620001586200070c565b6200015862000236366004620010da565b62000713565b620001ad6200024d36600462001041565b62000851565b6200026a6200026436600462001041565b620008c6565b604051620001679190620014cd565b6200026a6200028a36600462001041565b62000973565b62000158620002a136600462001114565b620009bb565b62000158620002b8366004620010a1565b62000afb565b620002d5620002cf36600462001041565b62000be5565b604051620001679190620014a7565b620001d4620002f536600462001041565b62000c9b565b620002d56200030c36600462001041565b62000ca0565b600082815260066020526040808220549051633a2e12fb60e11b81526001600160a01b03909116908290829063745c25f69062000354908790600401620014f3565b602060405180830381600087803b1580156200036f57600080fd5b505af115801562000384573d6000803e3d6000fd5b505050506040513d601f19601f82011682018060405250620003aa919081019062001180565b90507f96e3875898071e5d91932eb150a3914f9fe70e473f6faeaad697e99a48937c9c8185604051620003df929190620015a4565b60405180910390a19150505b92915050565b6006602052600090815260409020546001600160a01b031681565b6004602090815260009182526040918290208054600180830180548651600293821615610100026000190190911692909204601f810186900486028301860190965285825291949293909290830182828015620004ad5780601f106200048157610100808354040283529160200191620004ad565b820191906000526020600020905b8154815290600101906020018083116200048f57829003601f168201915b5050505050905082565b50565b600081815260066020908152604080832054815163844cdf0960e01b815291516001600160a01b0390911693849363844cdf09936004808201949293918390030190829087803b1580156200050e57600080fd5b505af115801562000523573d6000803e3d6000fd5b505050506040513d601f19601f8201168201806040525062000549919081019062001018565b620005715760405162461bcd60e51b8152600401620005689062001592565b60405180910390fd5b6200057c8162000d55565b5050565b6005602090815260009182526040918290208054600180830180548651600293821615610100026000190190911692909204601f810186900486028301860190965285825291949293909290830182828015620004ad5780601f106200048157610100808354040283529160200191620004ad565b600080836040516020016200060b919062001450565b60405160208183030381529060405280519060200120905060606200062f62000dcc565b506040805160608101825283815260208082018881528284018590526000868152600483529390932082518155925180519293849390926200067992600185019291019062000df0565b50604082015180516200069791600284019160209091019062000e75565b50505060008581526005602090815260408083208451600290910180546001810182559085529290932090910191909155517f7dd222c7de5c7ba42d121aa7e2acc9d5d4a47c2eb31f55385cf51cbe459c5c9b90620006fa90859089906200156e565b60405180910390a15090949350505050565b6000545b90565b6000808360405160200162000729919062001450565b6040516020818303038152906040528051906020012090506060806200074e62000eb2565b50604080516080810182528481526020808201898152828401869052606083018590526000878152600383529390932082518155925180519293849390926200079f92600185019291019062000df0565b5060408201518051620007bd91600284019160209091019062000edd565b5060608201518051620007db91600384019160209091019062000edd565b50505060008681526004602090815260408083208451600290910180546001810182559085529290932090910191909155517f86ec8adc6f97da0327b3e1dcc24fa25aea5eb7afcf6af08792e4b2d4d799fad8906200083e9086908a906200156e565b60405180910390a1509195945050505050565b6003602090815260009182526040918290208054600180830180548651600293821615610100026000190190911692909204601f810186900486028301860190965285825291949293909290830182828015620004ad5780601f106200048157610100808354040283529160200191620004ad565b600081815260056020526040908190209051606091907f1c7aaf504355c6134470b4070ca50bf276d45d0205aa86ef6bd15c684ae710c4906200090e906002840190620014e0565b60405180910390a1806002018054806020026020016040519081016040528092919081815260200182805480156200096657602002820191906000526020600020905b81548152602001906001019080831162000951575b5050505050915050919050565b600081815260046020526040908190209051606091907f1c7aaf504355c6134470b4070ca50bf276d45d0205aa86ef6bd15c684ae710c4906200090e906002840190620014e0565b600080848484604051602001620009d5939291906200145e565b60405160208183030381529060405280519060200120905060008484838860405162000a019062000f43565b62000a10949392919062001522565b604051809103906000f08015801562000a2d573d6000803e3d6000fd5b50905060008160405160200162000a45919062001439565b60408051601f19818403018152828252805160209182012060008181526006835283812080546001600160a01b0389166001600160a01b031991821681179092558b835260038552948220600281018054600181018255908452949092209093018054909416909217909255909250907f2cdb195d7226065901c0e37d742237ac3e30d6dc0ce7faf49701f6ec9f0bd1ed9062000ae6908490869062001503565b60405180910390a150925050505b9392505050565b6000808260405160200162000b11919062001450565b604051602081830303815290604052805190602001209050606062000b3562000dcc565b5060408051606081018252838152602080820187815282840185905260008681526005835293909320825181559251805192938493909262000b7f92600185019291019062000df0565b506040820151805162000b9d91600284019160209091019062000e75565b509050507ff73cee28a98c20f23a903356ab57dc8c514e66b0488c994b09dec06f978c839b838660405162000bd49291906200156e565b60405180910390a150909392505050565b6000818152600360208190526040918290209151606092917fa1c275d9147cd4bbf3a6fc6b01df2bdad7272d62a5bea8ea5f90e20e7c3f48e99162000c2d91840190620014ba565b60405180910390a1806003018054806020026020016040519081016040528092919081815260200182805480156200096657602002820191906000526020600020905b81546001600160a01b0316815260019091019060200180831162000c70575050505050915050919050565b600055565b600081815260036020526040908190209051606091907fa1c275d9147cd4bbf3a6fc6b01df2bdad7272d62a5bea8ea5f90e20e7c3f48e99062000ce8906002840190620014ba565b60405180910390a18060020180548060200260200160405190810160405280929190818152602001828054801562000966576020028201919060005260206000209081546001600160a01b0316815260019091019060200180831162000c70575050505050915050919050565b806001600160a01b03166398d6a3736040518163ffffffff1660e01b8152600401602060405180830381600087803b15801562000d9157600080fd5b505af115801562000da6573d6000803e3d6000fd5b505050506040513d601f19601f820116820180604052506200057c919081019062001018565b60405180606001604052806000801916815260200160608152602001606081525090565b828054600181600116156101000203166002900490600052602060002090601f016020900481019282601f1062000e3357805160ff191683800117855562000e63565b8280016001018555821562000e63579182015b8281111562000e6357825182559160200191906001019062000e46565b5062000e7192915062000f51565b5090565b82805482825590600052602060002090810192821562000e63579160200282018281111562000e6357825182559160200191906001019062000e46565b6040518060800160405280600080191681526020016060815260200160608152602001606081525090565b82805482825590600052602060002090810192821562000f35579160200282015b8281111562000f3557825182546001600160a01b0319166001600160a01b0390911617825560209092019160019091019062000efe565b5062000e7192915062000f6e565b610273806200172a83390190565b6200071091905b8082111562000e71576000815560010162000f58565b6200071091905b8082111562000e715780546001600160a01b031916815560010162000f75565b8051620003eb8162001707565b8035620003eb816200171e565b600082601f83011262000fc157600080fd5b813562000fd862000fd282620015eb565b620015c3565b9150808252602083016020830185838301111562000ff557600080fd5b6200100283828462001660565b50505092915050565b8051620003eb816200171e565b6000602082840312156200102b57600080fd5b600062001039848462000f95565b949350505050565b6000602082840312156200105457600080fd5b600062001039848462000fa2565b600080604083850312156200107657600080fd5b600062001084858562000fa2565b9250506020620010978582860162000fa2565b9150509250929050565b600060208284031215620010b457600080fd5b813567ffffffffffffffff811115620010cc57600080fd5b620010398482850162000faf565b60008060408385031215620010ee57600080fd5b823567ffffffffffffffff8111156200110657600080fd5b620010848582860162000faf565b6000806000606084860312156200112a57600080fd5b833567ffffffffffffffff8111156200114257600080fd5b620011508682870162000faf565b9350506020620011638682870162000fa2565b9250506040620011768682870162000fa2565b9150509250925092565b6000602082840312156200119357600080fd5b60006200103984846200100b565b6000620011af8383620011c5565b505060200190565b6000620011af838362001370565b620011d0816200164e565b82525050565b620011d0620011e5826200164e565b620016c7565b6000620011f88262001626565b62001204818562001634565b9350620012118362001614565b8060005b83811015620012455781516200122c8882620011a1565b9750620012398362001614565b92505060010162001215565b509495945050505050565b60006200125d826200162a565b62001269818562001634565b935062001276836200161a565b8060005b8381101562001245576200128e82620016db565b6200129a8882620011a1565b9750620012a7836200162e565b9250506001016200127a565b6000620012c08262001626565b620012cc818562001634565b9350620012d98362001614565b8060005b8381101562001245578151620012f48882620011b7565b9750620013018362001614565b925050600101620012dd565b60006200131a826200162a565b62001326818562001634565b935062001333836200161a565b8060005b8381101562001245576200134b82620016e9565b620013578882620011b7565b975062001364836200162e565b92505060010162001337565b620011d08162000710565b620011d06200138a8262000710565b62000710565b60006200139d8262001626565b620013a9818562001634565b9350620013bb8185602086016200166c565b620013c681620016f7565b9093019392505050565b6000620013dd8262001626565b620013e981856200163d565b9350620013fb8185602086016200166c565b9290920192915050565b60006200141460168362001634565b7510db185a5b481dd85cc81b9bdd081d995c9a599a595960521b815260200192915050565b6000620014478284620011d6565b50601401919050565b600062000af48284620013d0565b60006200146c8286620013d0565b91506200147a82856200137b565b6020820191506200148c82846200137b565b506020019392505050565b60208101620003eb8284620011c5565b6020808252810162000af48184620011eb565b6020808252810162000af4818462001250565b6020808252810162000af48184620012b3565b6020808252810162000af481846200130d565b60208101620003eb828462001370565b6040810162001513828562001370565b62000af46020830184620011c5565b6080810162001532828762001370565b62001541602083018662001370565b62001550604083018562001370565b818103606083015262001564818462001390565b9695505050505050565b604081016200157e828562001370565b818103602083015262001039818462001390565b60208082528101620003eb8162001405565b60408101620015b4828562001370565b62000af4602083018462001370565b60405181810167ffffffffffffffff81118282101715620015e357600080fd5b604052919050565b600067ffffffffffffffff8211156200160357600080fd5b506020601f91909101601f19160190565b60200190565b60009081526020902090565b5190565b5490565b60010190565b90815260200190565b919050565b6001600160a01b031690565b6000620003eb8262001642565b151590565b82818337506000910152565b60005b83811015620016895781810151838201526020016200166f565b8381111562001699576000848401525b50505050565b6000620003eb620016b08362000710565b62001642565b6000620003eb6200138a8362000710565b6000620003eb826000620003eb8262001701565b6000620003eb82546200169f565b6000620003eb8254620016b6565b601f01601f191690565b60601b90565b62001712816200165b565b8114620004b757600080fd5b62001712816200071056fe608060405234801561001057600080fd5b506040516102733803806102738339818101604052608081101561003357600080fd5b815160208301516040840151606085018051939592949193918301929164010000000081111561006257600080fd5b8201602081018481111561007557600080fd5b815164010000000081118282018710171561008f57600080fd5b505060018790556002869055600385905580519093506100b892506004915060208401906100c2565b505050505061015d565b828054600181600116156101000203166002900490600052602060002090601f016020900481019282601f1061010357805160ff1916838001178555610130565b82800160010185558215610130579182015b82811115610130578251825591602001919060010190610115565b5061013c929150610140565b5090565b61015a91905b8082111561013c5760008155600101610146565b90565b6101078061016c6000396000f3fe6080604052348015600f57600080fd5b506004361060465760003560e01c8063745c25f614604b578063844cdf0914607757806398d6a373146091578063d321fe29146097575b600080fd5b606560048036036020811015605f57600080fd5b5035609d565b60408051918252519081900360200190f35b607d60a5565b604080519115158252519081900360200190f35b607d60b8565b606560cc565b600581905590565b6006805460ff1916600190811790915590565b6006805461ff001916610100179055600190565b6005549056fea265627a7a723058207e49b77312390e6e2ff5395602e4041907f194769219f10a727cc30df444ceec64736f6c634300050a0032a365627a7a7230582022d5e97fa12ee5e0080a5cfc23e6da26f02197c6b55c432028bfbff2007c74e56c6578706572696d656e74616cf564736f6c634300050a0040",
  "source": "pragma solidity ^0.5.0;\npragma experimental ABIEncoderV2;\n\n\nimport \"./SafeMath.sol\";\nimport \"./ServiceClaim.sol\";\n\ncontract Organizations {\n\n    uint admin;\n\n\n    uint256 claimId; //Max value of the number of claims made\n    uint storedData; //Miscellaneous data\n\n    mapping (bytes32=>Patient) public patientMap; //ID of patient to specific provider -\n    mapping (bytes32=>Provider) public providerMap; //ID of provider to specific provider -\n    mapping (bytes32=>Insurer) public insurerMap; //ID of insurance provider to specific insurer\n    mapping (bytes32=>address) public serviceClaimsMap; //ID of serviceClaim to the specific ServiceClaim contract instance\n\n    //Events for organization creation    event ServiceCreated(address serviceClaimAddr);\n    event SCID(bytes32 ID, address addr);\n    event ClaimCreated(uint256 id, uint256 amount);\n    event PatientCreated(bytes32 id, string name);\n    event ProviderCreated(bytes32 id, string name);\n    event InsurerCreated(bytes32 id, string name);\n\n\n    //event patientList(Patient[] patients);\n    //event providerList(Provider[] providers);\n    //event insurerList(Insurer[] insurers);\n\n    event idList(bytes32[] ids);\n    event serviceList(address[] services);\n\n    struct Patient {\n        bytes32 id;\n        string name;\n        address[] unverifiedServiceClaims;\n        address[] verifiedServiceClaims;\n    }\n\n    struct Provider {\n        bytes32 id;\n        string name;\n        bytes32[] patients;\n    }\n\n    struct Insurer {\n        bytes32 id;\n        string name;\n        bytes32[] providers;\n    }\n\n    // ------------------------------ Adds Users to Network --------------------------- //\n\n    /** @dev add a patient to the network\n    @param _name is the name of the patient\n    @param _providerID is the current provider of the patient\n    @return pID is a bytes32 represented id number for the patient\n    */\n    function addPatient(string memory _name, bytes32 _providerID) public returns(bytes32 pID) {\n        bytes32 id = keccak256(abi.encodePacked(_name));\n        address[] memory uClaimList;\n        address[] memory vClaimList;\n        Patient memory newPatient = Patient(id, _name, uClaimList, vClaimList);\n        //bytes32 patientHash = keccak256(abi.encodePacked(newPatient));\n        patientMap[id] = newPatient;\n        providerMap[_providerID].patients.push(newPatient.id);\n        emit PatientCreated(id, _name);\n        return id;\n    }\n\n    /** @dev add a provider to the network\n    @param _name name of the provider\n    @param _insurerID id of insurance provider\n    @return the pID of the health provider -\n     */\n    function addProvider(string memory _name, bytes32 _insurerID) public returns(bytes32 pID) {\n        bytes32 id = keccak256(abi.encodePacked(_name));\n        bytes32[] memory emptyList;\n        Provider memory newProvider = Provider(id, _name, emptyList);\n        //bytes32 providerHash = keccak256(abi.encodePacked(newProvider));\n        providerMap[id] = newProvider;\n        insurerMap[_insurerID].providers.push(newProvider.id);\n        emit ProviderCreated(id, _name);\n        return id;\n    }\n\n    /** @dev add an insurnace provider to the network\n    @param _name the name of the insurance provider\n    @return pID of the insurance provider\n    */\n    function addInsurer(string memory _name) public returns(bytes32 pID) {\n        bytes32 id = keccak256(abi.encodePacked(_name));\n        bytes32[] memory emptyList;\n        Insurer memory newInsurer = Insurer(id, _name, emptyList);\n        //bytes32 insurerHash = keccak256(abi.encodePacked(newInsurer));\n        insurerMap[id] = newInsurer;\n        emit InsurerCreated(id, _name);\n        return id;\n    }\n\n    // ------------------------------ Functionality of the Network --------------------------- //\n\n    /** @dev create an instance of a ServiceClaim contract\n    @param _name name of the service\n    @param _providerID provider ID\n    @param _patientID patient ID\n    @return serviceContractHash is the id of the ServiceClaim contract\n    */\n    function newServiceClaim(string memory _name, bytes32 _providerID, bytes32 _patientID) public returns(bytes32 serviceContractHash) {\n        bytes32 id = keccak256(abi.encodePacked(_name, _providerID, _patientID));\n        ServiceClaim serviceClaim = new ServiceClaim(_providerID, _patientID, id, _name);\n        bytes32 serviceClaimID = keccak256(abi.encodePacked(address(serviceClaim)));\n        serviceClaimsMap[serviceClaimID] = address(serviceClaim);\n        Patient storage patient = patientMap[_patientID];\n        patient.unverifiedServiceClaims.push(address(serviceClaim));\n        emit SCID(serviceClaimID, address(serviceClaim));\n        return serviceClaimID;\n    }\n\n    /** @dev add a claim to a ServiceClaim contract i.e. the provider wants to file a claim for a service rendered\n    @param _serviceClaimID the ID of the ServiceClaim contract\n    @param _amount the amount to be claimed by the provider\n    @return ClaimID the ID of the claim\n    */\n    function addClaim(bytes32 _serviceClaimID, uint256 _amount) public returns(uint256 ClaimID) {\n        //Patient storage cPatient = patientMap[_patient];\n        ServiceClaim myServiceClaim = ServiceClaim(serviceClaimsMap[_serviceClaimID]);\n        uint256 newClaimID = myServiceClaim.addClaim(_amount);\n        emit ClaimCreated(newClaimID, _amount);\n        return newClaimID;\n    }\n\n    \n    /** @dev invoke the verifyClaim function in the ServiceClaim contract\n    @param _serviceClaimID the id of the ServiceClaim contract\n    */\n    function verifyClaim(bytes32 _serviceClaimID) public {\n        ServiceClaim myServiceClaim = ServiceClaim(serviceClaimsMap[_serviceClaimID]);\n        require(myServiceClaim.verifyClaim(), \"Claim was not verified\");\n        payProvider(myServiceClaim);\n    }\n\n    /** @dev invoke the payProvider function in the ServiceClaim contract, may only be called from within Organizations.sol\n    @param _serviceClaim an instance of the ServiceClaim contract\n    */\n    function payProvider(ServiceClaim _serviceClaim) internal {\n        //require(_serviceClaim.claim().verified == true, \"User has not verified service\");\n        _serviceClaim.payProvider();\n    }\n\n\n\n    // ------------------------------ Getters of Network Data --------------------------- //\n\n    function insurerUnpaidClaims(bytes32 _id) public {\n\n    }\n\n    function providerUnpaidClaims(bytes32 _id) public {\n\n    }\n\n     function providerPaidClaims(bytes32 _id) public {\n        \n    }\n\n    function patientsOfProvider(bytes32 _id) public returns (bytes32[] memory) {\n        Provider storage cP = providerMap[_id];\n        emit idList(cP.patients);\n        return(cP.patients);\n    }\n\n    function providersOfInsurer(bytes32 _id) public returns (bytes32[] memory) {\n        Insurer storage cI = insurerMap[_id];\n        emit idList(cI.providers);\n        return(cI.providers);\n    }\n\n    function patientUnverifiedServices(bytes32 _id) public returns (address[] memory){\n        Patient storage cP = patientMap[_id];\n        emit serviceList(cP.unverifiedServiceClaims);\n        return(cP.unverifiedServiceClaims);\n    }\n\n    function patientVerifiedServices(bytes32 _id) public returns (address[] memory){\n        Patient storage cP = patientMap[_id];\n        emit serviceList(cP.verifiedServiceClaims);\n        return(cP.verifiedServiceClaims);\n    }\n\n\n\n    function setAdmin(uint _num) public {\n        admin = _num;\n    }\n\n\n    function getAdmin() public view returns (uint) {\n        return admin;\n    }\n}",
  "sourcePath": "/Users/danny/sdsc-blocklab/Medicare-Claim-Verification/contracts/Organizations.sol",
  "compiler": {
    "name": "solc",
    "version": "0.5.10+commit.5a6ea5b1.Emscripten.clang"
  },
  "schemaVersion": "3.0.11",
  "updatedAt": "2019-07-27T00:51:12.087Z",
  "devdoc": {
    "methods": {
      "addClaim(bytes32,uint256)": {
        "details": "add a claim to a ServiceClaim contract i.e. the provider wants to file a claim for a service rendered",
        "params": {
          "_amount": "the amount to be claimed by the provider",
          "_serviceClaimID": "the ID of the ServiceClaim contract"
        },
        "return": "ClaimID the ID of the claim"
      },
      "addInsurer(string)": {
        "details": "add an insurnace provider to the network",
        "params": {
          "_name": "the name of the insurance provider"
        },
        "return": "pID of the insurance provider"
      },
      "addPatient(string,bytes32)": {
        "details": "add a patient to the network",
        "params": {
          "_name": "is the name of the patient",
          "_providerID": "is the current provider of the patient"
        },
        "return": "pID is a bytes32 represented id number for the patient"
      },
      "addProvider(string,bytes32)": {
        "details": "add a provider to the network",
        "params": {
          "_insurerID": "id of insurance provider",
          "_name": "name of the provider"
        },
        "return": "the pID of the health provider -"
      },
      "newServiceClaim(string,bytes32,bytes32)": {
        "details": "create an instance of a ServiceClaim contract",
        "params": {
          "_name": "name of the service",
          "_patientID": "patient ID",
          "_providerID": "provider ID"
        },
        "return": "serviceContractHash is the id of the ServiceClaim contract"
      },
      "verifyClaim(bytes32)": {
        "details": "invoke the verifyClaim function in the ServiceClaim contract",
        "params": {
          "_serviceClaimID": "the id of the ServiceClaim contract"
        }
      }
    }
  },
  "userdoc": {
    "methods": {}
  }
}