{
  "contractName": "Organizations",
  "abi": [
    {
      "constant": true,
      "inputs": [
        {
          "internalType": "bytes32",
          "name": "",
          "type": "bytes32"
        }
      ],
      "name": "serviceClaimsMap",
      "outputs": [
        {
          "internalType": "address",
          "name": "",
          "type": "address"
        }
      ],
      "payable": false,
      "stateMutability": "view",
      "type": "function"
    },
    {
      "constant": true,
      "inputs": [
        {
          "internalType": "bytes32",
          "name": "",
          "type": "bytes32"
        }
      ],
      "name": "providerMap",
      "outputs": [
        {
          "internalType": "bytes32",
          "name": "id",
          "type": "bytes32"
        },
        {
          "internalType": "string",
          "name": "name",
          "type": "string"
        }
      ],
      "payable": false,
      "stateMutability": "view",
      "type": "function"
    },
    {
      "constant": true,
      "inputs": [
        {
          "internalType": "bytes32",
          "name": "",
          "type": "bytes32"
        }
      ],
      "name": "insurerMap",
      "outputs": [
        {
          "internalType": "bytes32",
          "name": "id",
          "type": "bytes32"
        },
        {
          "internalType": "string",
          "name": "name",
          "type": "string"
        }
      ],
      "payable": false,
      "stateMutability": "view",
      "type": "function"
    },
    {
      "constant": true,
      "inputs": [
        {
          "internalType": "bytes32",
          "name": "",
          "type": "bytes32"
        }
      ],
      "name": "patientMap",
      "outputs": [
        {
          "internalType": "bytes32",
          "name": "id",
          "type": "bytes32"
        },
        {
          "internalType": "string",
          "name": "name",
          "type": "string"
        }
      ],
      "payable": false,
      "stateMutability": "view",
      "type": "function"
    },
    {
      "inputs": [],
      "payable": false,
      "stateMutability": "nonpayable",
      "type": "constructor"
    },
    {
      "anonymous": false,
      "inputs": [
        {
          "indexed": false,
          "internalType": "bytes32",
          "name": "ID",
          "type": "bytes32"
        },
        {
          "indexed": false,
          "internalType": "address",
          "name": "addr",
          "type": "address"
        }
      ],
      "name": "SCID",
      "type": "event"
    },
    {
      "anonymous": false,
      "inputs": [
        {
          "indexed": false,
          "internalType": "uint256",
          "name": "id",
          "type": "uint256"
        },
        {
          "indexed": false,
          "internalType": "uint256",
          "name": "amount",
          "type": "uint256"
        }
      ],
      "name": "ClaimCreated",
      "type": "event"
    },
    {
      "anonymous": false,
      "inputs": [
        {
          "indexed": false,
          "internalType": "bytes32",
          "name": "id",
          "type": "bytes32"
        },
        {
          "indexed": false,
          "internalType": "string",
          "name": "name",
          "type": "string"
        }
      ],
      "name": "PatientCreated",
      "type": "event"
    },
    {
      "anonymous": false,
      "inputs": [
        {
          "indexed": false,
          "internalType": "bytes32",
          "name": "id",
          "type": "bytes32"
        },
        {
          "indexed": false,
          "internalType": "string",
          "name": "name",
          "type": "string"
        }
      ],
      "name": "ProviderCreated",
      "type": "event"
    },
    {
      "anonymous": false,
      "inputs": [
        {
          "indexed": false,
          "internalType": "bytes32",
          "name": "id",
          "type": "bytes32"
        },
        {
          "indexed": false,
          "internalType": "string",
          "name": "name",
          "type": "string"
        }
      ],
      "name": "InsurerCreated",
      "type": "event"
    },
    {
      "anonymous": false,
      "inputs": [
        {
          "components": [
            {
              "internalType": "bytes32",
              "name": "id",
              "type": "bytes32"
            },
            {
              "internalType": "string",
              "name": "name",
              "type": "string"
            },
            {
              "internalType": "address[]",
              "name": "unverifiedClaims",
              "type": "address[]"
            },
            {
              "internalType": "address[]",
              "name": "verifiedClaims",
              "type": "address[]"
            }
          ],
          "indexed": false,
          "internalType": "struct Organizations.Patient",
          "name": "patient",
          "type": "tuple"
        }
      ],
      "name": "PatientRetrieval",
      "type": "event"
    },
    {
      "anonymous": false,
      "inputs": [
        {
          "components": [
            {
              "internalType": "bytes32",
              "name": "id",
              "type": "bytes32"
            },
            {
              "internalType": "string",
              "name": "name",
              "type": "string"
            },
            {
              "internalType": "bytes32[]",
              "name": "patients",
              "type": "bytes32[]"
            }
          ],
          "indexed": false,
          "internalType": "struct Organizations.Provider",
          "name": "provider",
          "type": "tuple"
        }
      ],
      "name": "ProviderRetrieval",
      "type": "event"
    },
    {
      "anonymous": false,
      "inputs": [
        {
          "indexed": false,
          "internalType": "bytes32[]",
          "name": "ids",
          "type": "bytes32[]"
        }
      ],
      "name": "idList",
      "type": "event"
    },
    {
      "anonymous": false,
      "inputs": [
        {
          "indexed": false,
          "internalType": "address[]",
          "name": "services",
          "type": "address[]"
        }
      ],
      "name": "serviceList",
      "type": "event"
    },
    {
      "constant": false,
      "inputs": [],
      "name": "preLoadInfo",
      "outputs": [],
      "payable": false,
      "stateMutability": "nonpayable",
      "type": "function"
    },
    {
      "constant": false,
      "inputs": [
        {
          "internalType": "string",
          "name": "_name",
          "type": "string"
        },
        {
          "internalType": "bytes32",
          "name": "_providerID",
          "type": "bytes32"
        }
      ],
      "name": "addPatient",
      "outputs": [
        {
          "internalType": "bytes32",
          "name": "pID",
          "type": "bytes32"
        }
      ],
      "payable": false,
      "stateMutability": "nonpayable",
      "type": "function"
    },
    {
      "constant": false,
      "inputs": [
        {
          "internalType": "string",
          "name": "_name",
          "type": "string"
        },
        {
          "internalType": "bytes32",
          "name": "_insurerID",
          "type": "bytes32"
        }
      ],
      "name": "addProvider",
      "outputs": [
        {
          "internalType": "bytes32",
          "name": "pID",
          "type": "bytes32"
        }
      ],
      "payable": false,
      "stateMutability": "nonpayable",
      "type": "function"
    },
    {
      "constant": false,
      "inputs": [
        {
          "internalType": "string",
          "name": "_name",
          "type": "string"
        }
      ],
      "name": "addInsurer",
      "outputs": [
        {
          "internalType": "bytes32",
          "name": "pID",
          "type": "bytes32"
        }
      ],
      "payable": false,
      "stateMutability": "nonpayable",
      "type": "function"
    },
    {
      "constant": false,
      "inputs": [
        {
          "internalType": "string",
          "name": "_name",
          "type": "string"
        },
        {
          "internalType": "bytes32",
          "name": "_providerID",
          "type": "bytes32"
        },
        {
          "internalType": "bytes32",
          "name": "_patientID",
          "type": "bytes32"
        }
      ],
      "name": "provideService",
      "outputs": [
        {
          "internalType": "bytes32",
          "name": "serviceContractHash",
          "type": "bytes32"
        }
      ],
      "payable": false,
      "stateMutability": "nonpayable",
      "type": "function"
    },
    {
      "constant": false,
      "inputs": [
        {
          "internalType": "bytes32",
          "name": "_serviceClaimID",
          "type": "bytes32"
        },
        {
          "internalType": "uint256",
          "name": "_amount",
          "type": "uint256"
        }
      ],
      "name": "fileClaim",
      "outputs": [
        {
          "internalType": "uint256",
          "name": "ClaimID",
          "type": "uint256"
        }
      ],
      "payable": false,
      "stateMutability": "nonpayable",
      "type": "function"
    },
    {
      "constant": false,
      "inputs": [
        {
          "internalType": "bytes32",
          "name": "_serviceClaimID",
          "type": "bytes32"
        }
      ],
      "name": "verifyClaim",
      "outputs": [],
      "payable": false,
      "stateMutability": "nonpayable",
      "type": "function"
    },
    {
      "constant": false,
      "inputs": [
        {
          "internalType": "bytes32",
          "name": "_serviceClaimID",
          "type": "bytes32"
        }
      ],
      "name": "payProvider",
      "outputs": [],
      "payable": false,
      "stateMutability": "nonpayable",
      "type": "function"
    },
    {
      "constant": false,
      "inputs": [
        {
          "internalType": "bytes32",
          "name": "_id",
          "type": "bytes32"
        }
      ],
      "name": "patientsOfProvider",
      "outputs": [
        {
          "internalType": "bytes32[]",
          "name": "",
          "type": "bytes32[]"
        }
      ],
      "payable": false,
      "stateMutability": "nonpayable",
      "type": "function"
    },
    {
      "constant": false,
      "inputs": [
        {
          "internalType": "bytes32",
          "name": "_id",
          "type": "bytes32"
        }
      ],
      "name": "providersOfInsurer",
      "outputs": [
        {
          "internalType": "bytes32[]",
          "name": "",
          "type": "bytes32[]"
        }
      ],
      "payable": false,
      "stateMutability": "nonpayable",
      "type": "function"
    },
    {
      "constant": false,
      "inputs": [
        {
          "internalType": "bytes32",
          "name": "_id",
          "type": "bytes32"
        }
      ],
      "name": "getPatient",
      "outputs": [
        {
          "components": [
            {
              "internalType": "bytes32",
              "name": "id",
              "type": "bytes32"
            },
            {
              "internalType": "string",
              "name": "name",
              "type": "string"
            },
            {
              "internalType": "address[]",
              "name": "unverifiedClaims",
              "type": "address[]"
            },
            {
              "internalType": "address[]",
              "name": "verifiedClaims",
              "type": "address[]"
            }
          ],
          "internalType": "struct Organizations.Patient",
          "name": "",
          "type": "tuple"
        }
      ],
      "payable": false,
      "stateMutability": "nonpayable",
      "type": "function"
    },
    {
      "constant": false,
      "inputs": [
        {
          "internalType": "bytes32",
          "name": "_id",
          "type": "bytes32"
        }
      ],
      "name": "getProvider",
      "outputs": [
        {
          "components": [
            {
              "internalType": "bytes32",
              "name": "id",
              "type": "bytes32"
            },
            {
              "internalType": "string",
              "name": "name",
              "type": "string"
            },
            {
              "internalType": "bytes32[]",
              "name": "patients",
              "type": "bytes32[]"
            }
          ],
          "internalType": "struct Organizations.Provider",
          "name": "",
          "type": "tuple"
        }
      ],
      "payable": false,
      "stateMutability": "nonpayable",
      "type": "function"
    },
    {
      "constant": false,
      "inputs": [
        {
          "internalType": "bytes32",
          "name": "_id",
          "type": "bytes32"
        }
      ],
      "name": "patientUnverifiedServices",
      "outputs": [
        {
          "internalType": "address[]",
          "name": "",
          "type": "address[]"
        }
      ],
      "payable": false,
      "stateMutability": "nonpayable",
      "type": "function"
    },
    {
      "constant": false,
      "inputs": [
        {
          "internalType": "bytes32",
          "name": "_id",
          "type": "bytes32"
        }
      ],
      "name": "patientVerifiedServices",
      "outputs": [
        {
          "internalType": "address[]",
          "name": "",
          "type": "address[]"
        }
      ],
      "payable": false,
      "stateMutability": "nonpayable",
      "type": "function"
    },
    {
      "constant": false,
      "inputs": [
        {
          "internalType": "uint256",
          "name": "_num",
          "type": "uint256"
        }
      ],
      "name": "setAdmin",
      "outputs": [],
      "payable": false,
      "stateMutability": "nonpayable",
      "type": "function"
    },
    {
      "constant": true,
      "inputs": [],
      "name": "getAdmin",
      "outputs": [
        {
          "internalType": "uint256",
          "name": "",
          "type": "uint256"
        }
      ],
      "payable": false,
      "stateMutability": "view",
      "type": "function"
    }
  ],
  "bytecode": "0x60806040523480156200001157600080fd5b50620000256001600160e01b036200002b16565b620007b3565b6000620000736040518060400160405280600381526020017f434d530000000000000000000000000000000000000000000000000000000000815250620001a060201b60201c565b90506000620000be6040518060400160405280600c81526020017f55435344204d65646963616c0000000000000000000000000000000000000000815250836200028a60201b60201c565b9050620001076040518060400160405280600381526020017f4b656e000000000000000000000000000000000000000000000000000000000081525082620003a160201b60201c565b5060408051808201909152600581527f44616e6e7900000000000000000000000000000000000000000000000000000060208201526200015190826001600160e01b03620003a116565b5060408051808201909152600781527f416e746f6e696f0000000000000000000000000000000000000000000000000060208201526200019b90826001600160e01b03620003a116565b505050565b60008082604051602001620001b6919062000723565b6040516020818303038152906040528051906020012090506060620001da620004df565b506040805160608101825283815260208082018781528284018590526000868152600583529390932082518155925180519293849390926200022492600185019291019062000503565b50604082015180516200024291600284019160209091019062000588565b509050507ff73cee28a98c20f23a903356ab57dc8c514e66b0488c994b09dec06f978c839b83866040516200027992919062000738565b60405180910390a150909392505050565b60008083604051602001620002a0919062000723565b6040516020818303038152906040528051906020012090506060620002c4620004df565b506040805160608101825283815260208082018881528284018590526000868152600483529390932082518155925180519293849390926200030e92600185019291019062000503565b50604082015180516200032c91600284019160209091019062000588565b50505060008581526005602090815260408083208451600290910180546001810182559085529290932090910191909155517f7dd222c7de5c7ba42d121aa7e2acc9d5d4a47c2eb31f55385cf51cbe459c5c9b906200038f908590899062000738565b60405180910390a15090949350505050565b60008083604051602001620003b7919062000723565b604051602081830303815290604052805190602001209050606080620003dc620005c5565b50604080516080810182528481526020808201898152828401869052606083018590526000878152600383529390932082518155925180519293849390926200042d92600185019291019062000503565b50604082015180516200044b916002840191602090910190620005f0565b506060820151805162000469916003840191602090910190620005f0565b50505060008681526004602090815260408083208451600290910180546001810182559085529290932090910191909155517f86ec8adc6f97da0327b3e1dcc24fa25aea5eb7afcf6af08792e4b2d4d799fad890620004cc9086908a9062000738565b60405180910390a1509195945050505050565b60405180606001604052806000801916815260200160608152602001606081525090565b828054600181600116156101000203166002900490600052602060002090601f016020900481019282601f106200054657805160ff191683800117855562000576565b8280016001018555821562000576579182015b828111156200057657825182559160200191906001019062000559565b506200058492915062000656565b5090565b8280548282559060005260206000209081019282156200057657916020028201828111156200057657825182559160200191906001019062000559565b6040518060800160405280600080191681526020016060815260200160608152602001606081525090565b82805482825590600052602060002090810192821562000648579160200282015b828111156200064857825182546001600160a01b0319166001600160a01b0390911617825560209092019160019091019062000611565b506200058492915062000676565b6200067391905b808211156200058457600081556001016200065d565b90565b6200067391905b80821115620005845780546001600160a01b03191681556001016200067d565b620006a88162000673565b82525050565b6000620006bb8262000764565b620006c7818562000768565b9350620006d981856020860162000776565b620006e481620007a9565b9093019392505050565b6000620006fb8262000764565b62000707818562000771565b93506200071981856020860162000776565b9290920192915050565b6000620007318284620006ee565b9392505050565b604081016200074882856200069d565b81810360208301526200075c8184620006ae565b949350505050565b5190565b90815260200190565b919050565b60005b838110156200079357818101518382015260200162000779565b83811115620007a3576000848401525b50505050565b601f01601f191690565b61249e80620007c36000396000f3fe60806040523480156200001157600080fd5b5060043610620001485760003560e01c8063740044b411620000bd578063dd238925116200007b578063dd23892514620002f2578063e0e87b1a1462000309578063ebc3a05b1462000320578063ee3d52b31462000346578063ef5bff9e146200035d5762000148565b8063740044b414620002615780637899a34e146200027857806392398fbb146200029e5780639c860b8a14620002b5578063a46bfff914620002db5762000148565b806339160aa7116200010b57806339160aa714620002085780633e7e072e146200021f5780633f1e172d146200023657806340f1065314620002405780636e9960c314620002575762000148565b8063085683ff146200014d5780632470d25e146200017c5780632bde2a8614620001a257806333c0950a14620001c957806335b7351014620001ef575b600080fd5b620001646200015e36600462001847565b62000374565b60405162000173919062001d76565b60405180910390f35b620001936200018d36600462001753565b620004b4565b60405162000173919062001d1a565b620001b9620001b336600462001753565b620004cf565b6040516200017392919062001df1565b620001e0620001da36600462001753565b6200057a565b60405162000173919062001e3a565b620002066200020036600462001753565b62000821565b005b620001b96200021936600462001753565b62000a10565b62000164620002303660046200180d565b62000a85565b6200020662000b9e565b620001646200025136600462001795565b62000c7e565b6200016462000d5b565b62000164620002723660046200180d565b62000d62565b6200028f6200028936600462001753565b62000ea0565b60405162000173919062001e27565b620001b9620002af36600462001753565b6200108b565b620002cc620002c636600462001753565b62001100565b60405162000173919062001d50565b620002cc620002ec36600462001753565b620011ad565b6200016462000303366004620017d4565b620011f5565b620002066200031a36600462001753565b620012df565b620003376200033136600462001753565b6200136e565b60405162000173919062001d2a565b620002066200035736600462001753565b62001424565b620003376200036e36600462001753565b62001429565b6000808484846040516020016200038e9392919062001ce1565b604051602081830303815290604052805190602001209050600084848388604051620003ba90620014de565b620003c9949392919062001da5565b604051809103906000f080158015620003e6573d6000803e3d6000fd5b509050600081604051602001620003fe919062001cbc565b60408051601f19818403018152828252805160209182012060008181526006835283812080546001600160a01b0389166001600160a01b031991821681179092558b835260038552948220600281018054600181018255908452949092209093018054909416909217909255909250907f2cdb195d7226065901c0e37d742237ac3e30d6dc0ce7faf49701f6ec9f0bd1ed906200049f908490869062001d86565b60405180910390a150925050505b9392505050565b6006602052600090815260409020546001600160a01b031681565b6004602090815260009182526040918290208054600180830180548651600293821615610100026000190190911692909204601f810186900486028301860190965285825291949293909290830182828015620005705780601f10620005445761010080835404028352916020019162000570565b820191906000526020600020905b8154815290600101906020018083116200055257829003601f168201915b5050505050905082565b62000584620014ec565b6200058e620014ec565b6004600084815260200190815260200160002060405180606001604052908160008201548152602001600182018054600181600116156101000203166002900480601f016020809104026020016040519081016040528092919081815260200182805460018160011615610100020316600290048015620006535780601f10620006275761010080835404028352916020019162000653565b820191906000526020600020905b8154815290600101906020018083116200063557829003601f168201915b5050505050815260200160028201805480602002602001604051908101604052809291908181526020018280548015620006ad57602002820191906000526020600020905b81548152602001906001019080831162000698575b50505050508152505090507f8c6b3078bf6d713aeae5b1ccc2dfea387cbb876de1a5c9d81a4e22d4e832c54681604051620006e9919062001e3a565b60405180910390a16004600084815260200190815260200160002060405180606001604052908160008201548152602001600182018054600181600116156101000203166002900480601f016020809104026020016040519081016040528092919081815260200182805460018160011615610100020316600290048015620007b65780601f106200078a57610100808354040283529160200191620007b6565b820191906000526020600020905b8154815290600101906020018083116200079857829003601f168201915b50505050508152602001600282018054806020026020016040519081016040528092919081815260200182805480156200081057602002820191906000526020600020905b815481526020019060010190808311620007fb575b505050505081525050915050919050565b600081815260066020908152604080832054815163844cdf0960e01b815291516001600160a01b0390911693849363844cdf09936004808201949293918390030190829087803b1580156200087557600080fd5b505af11580156200088a573d6000803e3d6000fd5b505050506040513d601f19601f82011682018060405250620008b091908101906200172a565b620008d85760405162461bcd60e51b8152600401620008cf9062001e15565b60405180910390fd5b6000816001600160a01b031663f680a7bd6040518163ffffffff1660e01b815260040160206040518083038186803b1580156200091457600080fd5b505afa15801562000929573d6000803e3d6000fd5b505050506040513d601f19601f820116820180604052506200094f919081019062001774565b6000818152600360208181526040832091820180546001810182559084529083200180546001600160a01b0319166001600160a01b0387161790559192505b600282015481101562000a0957836001600160a01b0316826002018281548110620009b557fe5b6000918252602090912001546001600160a01b0316141562000a0057816002018181548110620009e157fe5b600091825260209091200180546001600160a01b031916905562000a09565b6001016200098e565b5050505050565b6005602090815260009182526040918290208054600180830180548651600293821615610100026000190190911692909204601f810186900486028301860190965285825291949293909290830182828015620005705780601f10620005445761010080835404028352916020019162000570565b6000808360405160200162000a9b919062001cd3565b604051602081830303815290604052805190602001209050606062000abf620014ec565b5060408051606081018252838152602080820188815282840185905260008681526004835293909320825181559251805192938493909262000b0992600185019291019062001510565b506040820151805162000b2791600284019160209091019062001595565b50505060008581526005602090815260408083208451600290910180546001810182559085529290932090910191909155517f7dd222c7de5c7ba42d121aa7e2acc9d5d4a47c2eb31f55385cf51cbe459c5c9b9062000b8a908590899062001df1565b60405180910390a150909150505b92915050565b600062000bc660405180604001604052806003815260200162434d5360e81b815250620011f5565b9050600062000bfa6040518060400160405280600c81526020016b1550d4d1081359591a58d85b60a21b8152508362000a85565b905062000c236040518060400160405280600381526020016225b2b760e91b8152508262000d62565b5062000c4d6040518060400160405280600581526020016444616e6e7960d81b8152508262000d62565b5062000c7960405180604001604052806007815260200166416e746f6e696f60c81b8152508262000d62565b505050565b60008281526006602052604080822054905163d61909f960e01b81526001600160a01b03909116908290829063d61909f99062000cc090879060040162001d76565b602060405180830381600087803b15801562000cdb57600080fd5b505af115801562000cf0573d6000803e3d6000fd5b505050506040513d601f19601f8201168201806040525062000d16919081019062001774565b90507f96e3875898071e5d91932eb150a3914f9fe70e473f6faeaad697e99a48937c9c818560405162000d4b92919062001e4d565b60405180910390a1949350505050565b6000545b90565b6000808360405160200162000d78919062001cd3565b60405160208183030381529060405280519060200120905060608062000d9d620015d2565b506040805160808101825284815260208082018981528284018690526060830185905260008781526003835293909320825181559251805192938493909262000dee92600185019291019062001510565b506040820151805162000e0c916002840191602090910190620015fd565b506060820151805162000e2a916003840191602090910190620015fd565b50505060008681526004602090815260408083208451600290910180546001810182559085529290932090910191909155517f86ec8adc6f97da0327b3e1dcc24fa25aea5eb7afcf6af08792e4b2d4d799fad89062000e8d9086908a9062001df1565b60405180910390a1509195945050505050565b62000eaa620015d2565b62000eb4620015d2565b6003600084815260200190815260200160002060405180608001604052908160008201548152602001600182018054600181600116156101000203166002900480601f01602080910402602001604051908101604052809291908181526020018280546001816001161561010002031660029004801562000f795780601f1062000f4d5761010080835404028352916020019162000f79565b820191906000526020600020905b81548152906001019060200180831162000f5b57829003601f168201915b505050505081526020016002820180548060200260200160405190810160405280929190818152602001828054801562000fdd57602002820191906000526020600020905b81546001600160a01b0316815260019091019060200180831162000fbe575b50505050508152602001600382018054806020026020016040519081016040528092919081815260200182805480156200104157602002820191906000526020600020905b81546001600160a01b0316815260019091019060200180831162001022575b50505050508152505090507f28dbeb13423346955d81586f0e3c9ab3d84bdebaf6458b98595b0a7bf1fc0c5d816040516200107d919062001e27565b60405180910390a192915050565b6003602090815260009182526040918290208054600180830180548651600293821615610100026000190190911692909204601f810186900486028301860190965285825291949293909290830182828015620005705780601f10620005445761010080835404028352916020019162000570565b600081815260056020526040908190209051606091907f1c7aaf504355c6134470b4070ca50bf276d45d0205aa86ef6bd15c684ae710c4906200114890600284019062001d63565b60405180910390a180600201805480602002602001604051908101604052809291908181526020018280548015620011a057602002820191906000526020600020905b8154815260200190600101908083116200118b575b5050505050915050919050565b600081815260046020526040908190209051606091907f1c7aaf504355c6134470b4070ca50bf276d45d0205aa86ef6bd15c684ae710c4906200114890600284019062001d63565b600080826040516020016200120b919062001cd3565b60405160208183030381529060405280519060200120905060606200122f620014ec565b506040805160608101825283815260208082018781528284018590526000868152600583529390932082518155925180519293849390926200127992600185019291019062001510565b50604082015180516200129791600284019160209091019062001595565b509050507ff73cee28a98c20f23a903356ab57dc8c514e66b0488c994b09dec06f978c839b8386604051620012ce92919062001df1565b60405180910390a150909392505050565b60008181526006602090815260408083205481516398d6a37360e01b815291516001600160a01b039091169384936398d6a373936004808201949293918390030190829087803b1580156200133357600080fd5b505af115801562001348573d6000803e3d6000fd5b505050506040513d601f19601f8201168201806040525062000c7991908101906200172a565b6000818152600360208190526040918290209151606092917fa1c275d9147cd4bbf3a6fc6b01df2bdad7272d62a5bea8ea5f90e20e7c3f48e991620013b69184019062001d3d565b60405180910390a180600301805480602002602001604051908101604052809291908181526020018280548015620011a057602002820191906000526020600020905b81546001600160a01b03168152600190910190602001808311620013f9575050505050915050919050565b600055565b600081815260036020526040908190209051606091907fa1c275d9147cd4bbf3a6fc6b01df2bdad7272d62a5bea8ea5f90e20e7c3f48e9906200147190600284019062001d3d565b60405180910390a180600201805480602002602001604051908101604052809291908181526020018280548015620011a0576020028201919060005260206000209081546001600160a01b03168152600190910190602001808311620013f9575050505050915050919050565b6104868062001fd683390190565b60405180606001604052806000801916815260200160608152602001606081525090565b828054600181600116156101000203166002900490600052602060002090601f016020900481019282601f106200155357805160ff191683800117855562001583565b8280016001018555821562001583579182015b828111156200158357825182559160200191906001019062001566565b506200159192915062001663565b5090565b8280548282559060005260206000209081019282156200158357916020028201828111156200158357825182559160200191906001019062001566565b6040518060800160405280600080191681526020016060815260200160608152602001606081525090565b82805482825590600052602060002090810192821562001655579160200282015b828111156200165557825182546001600160a01b0319166001600160a01b039091161782556020909201916001909101906200161e565b506200159192915062001680565b62000d5f91905b808211156200159157600081556001016200166a565b62000d5f91905b80821115620015915780546001600160a01b031916815560010162001687565b805162000b988162001fb0565b803562000b988162001fca565b805162000b988162001fca565b600082601f830112620016e057600080fd5b8135620016f7620016f18262001e94565b62001e6c565b915080825260208301602083018583830111156200171457600080fd5b6200172183828462001f09565b50505092915050565b6000602082840312156200173d57600080fd5b60006200174b8484620016a7565b949350505050565b6000602082840312156200176657600080fd5b60006200174b8484620016b4565b6000602082840312156200178757600080fd5b60006200174b8484620016c1565b60008060408385031215620017a957600080fd5b6000620017b78585620016b4565b9250506020620017ca85828601620016b4565b9150509250929050565b600060208284031215620017e757600080fd5b813567ffffffffffffffff811115620017ff57600080fd5b6200174b84828501620016ce565b600080604083850312156200182157600080fd5b823567ffffffffffffffff8111156200183957600080fd5b620017b785828601620016ce565b6000806000606084860312156200185d57600080fd5b833567ffffffffffffffff8111156200187557600080fd5b6200188386828701620016ce565b93505060206200189686828701620016b4565b9250506040620018a986828701620016b4565b9150509250925092565b6000620018c18383620018d7565b505060200190565b6000620018c1838362001b36565b620018e28162001ef7565b82525050565b620018e2620018f78262001ef7565b62001f70565b60006200190a8262001ecf565b62001916818562001edd565b9350620019238362001ebd565b8060005b83811015620019575781516200193e8882620018b3565b97506200194b8362001ebd565b92505060010162001927565b509495945050505050565b60006200196f8262001ecf565b6200197b818562001edd565b9350620019888362001ebd565b8060005b8381101562001957578151620019a38882620018b3565b9750620019b08362001ebd565b9250506001016200198c565b6000620019c98262001ed3565b620019d5818562001edd565b9350620019e28362001ec3565b8060005b838110156200195757620019fa8262001f84565b62001a068882620018b3565b975062001a138362001ed7565b925050600101620019e6565b600062001a2c8262001ecf565b62001a38818562001edd565b935062001a458362001ebd565b8060005b838110156200195757815162001a608882620018c9565b975062001a6d8362001ebd565b92505060010162001a49565b600062001a868262001ecf565b62001a92818562001edd565b935062001a9f8362001ebd565b8060005b838110156200195757815162001aba8882620018c9565b975062001ac78362001ebd565b92505060010162001aa3565b600062001ae08262001ed3565b62001aec818562001edd565b935062001af98362001ec3565b8060005b83811015620019575762001b118262001f92565b62001b1d8882620018c9565b975062001b2a8362001ed7565b92505060010162001afd565b620018e28162000d5f565b620018e262001b508262000d5f565b62000d5f565b600062001b638262001ecf565b62001b6f818562001edd565b935062001b8181856020860162001f15565b62001b8c8162001fa0565b9093019392505050565b600062001ba38262001ecf565b62001baf818562001ee6565b935062001bc181856020860162001f15565b9290920192915050565b600062001bda60168362001edd565b7510db185a5b481dd85cc81b9bdd0815995c9a599a595960521b815260200192915050565b8051600090608084019062001c15858262001b36565b506020830151848203602086015262001c2f828262001b56565b9150506040830151848203604086015262001c4b828262001962565b9150506060830151848203606086015262001c67828262001962565b95945050505050565b8051600090606084019062001c86858262001b36565b506020830151848203602086015262001ca0828262001b56565b9150506040830151848203604086015262001c67828262001a79565b600062001cca8284620018e8565b50601401919050565b6000620004ad828462001b96565b600062001cef828662001b96565b915062001cfd828562001b41565b60208201915062001d0f828462001b41565b506020019392505050565b6020810162000b988284620018d7565b60208082528101620004ad8184620018fd565b60208082528101620004ad8184620019bc565b60208082528101620004ad818462001a1f565b60208082528101620004ad818462001ad3565b6020810162000b98828462001b36565b6040810162001d96828562001b36565b620004ad6020830184620018d7565b6080810162001db5828762001b36565b62001dc4602083018662001b36565b62001dd3604083018562001b36565b818103606083015262001de7818462001b56565b9695505050505050565b6040810162001e01828562001b36565b81810360208301526200174b818462001b56565b6020808252810162000b988162001bcb565b60208082528101620004ad818462001bff565b60208082528101620004ad818462001c70565b6040810162001e5d828562001b36565b620004ad602083018462001b36565b60405181810167ffffffffffffffff8111828210171562001e8c57600080fd5b604052919050565b600067ffffffffffffffff82111562001eac57600080fd5b506020601f91909101601f19160190565b60200190565b60009081526020902090565b5190565b5490565b60010190565b90815260200190565b919050565b6001600160a01b031690565b600062000b988262001eeb565b151590565b82818337506000910152565b60005b8381101562001f3257818101518382015260200162001f18565b8381111562001f42576000848401525b50505050565b600062000b9862001f598362000d5f565b62001eeb565b600062000b9862001b508362000d5f565b600062000b9882600062000b988262001faa565b600062000b98825462001f48565b600062000b98825462001f5f565b601f01601f191690565b60601b90565b62001fbb8162001f04565b811462001fc757600080fd5b50565b62001fbb8162000d5f56fe608060405234801561001057600080fd5b506040516104863803806104868339818101604052608081101561003357600080fd5b81516020830151604080850151606086018051925194969395919493918201928464010000000082111561006657600080fd5b90830190602082018581111561007b57600080fd5b825164010000000081118282018810171561009557600080fd5b82525081516020918201929091019080838360005b838110156100c25781810151838201526020016100aa565b50505050905090810190601f1680156100ef5780820380516001836020036101000a031916815260200191505b506040525050506001849055600283905560038290558051610118906004906020840190610122565b50505050506101bd565b828054600181600116156101000203166002900490600052602060002090601f016020900481019282601f1061016357805160ff1916838001178555610190565b82800160010185558215610190579182015b82811115610190578251825591602001919060010190610175565b5061019c9291506101a0565b5090565b6101ba91905b8082111561019c57600081556001016101a6565b90565b6102ba806101cc6000396000f3fe608060405234801561001057600080fd5b50600436106100cf5760003560e01c8063844cdf091161008c578063cdb73ac011610066578063cdb73ac014610181578063d321fe291461019e578063d61909f9146101a6578063f680a7bd146101c3576100cf565b8063844cdf091461016957806398d6a37314610171578063b95e216c14610179576100cf565b8063209ebc08146100d457806334d6093d146100f05780633a50ed131461011f5780633f02907a1461013c578063596ada671461015957806380007e8314610161575b600080fd5b6100dc6101cb565b604080519115158252519081900360200190f35b61010d6004803603602081101561010657600080fd5b50356101d9565b60408051918252519081900360200190f35b61010d6004803603602081101561013557600080fd5b50356101e1565b61010d6004803603602081101561015257600080fd5b50356101e9565b61010d6101f1565b6100dc6101f7565b6100dc610200565b6100dc610213565b61010d610227565b61010d6004803603602081101561019757600080fd5b503561022d565b61010d610235565b61010d600480360360208110156101bc57600080fd5b503561023b565b61010d61027f565b600654610100900460ff1690565b600581905590565b600081905590565b600181905590565b60015481565b60065460ff1690565b6006805460ff1916600190811790915590565b6006805461ff001916610100179055600190565b60005481565b600281905590565b60055490565b60058190556040805182815290516000917f7da274c7907a6e3fe48918a914c8a93c400713daffcd99eaa4a9ae6e99322204919081900360200190a1505060055490565b6002548156fea265627a7a72315820ee66068e266bf7846567f430b30ccb8cf06f1eca052abcddf90f57a2f315815d64736f6c634300050b0032a365627a7a72315820c4686c680770a8e7d9848f042a230ec437f17b4e3df016e5f27cfc24914854036c6578706572696d656e74616cf564736f6c634300050b0040",
  "source": "pragma solidity ^0.5.0;\npragma experimental ABIEncoderV2;\n\n\nimport \"./SafeMath.sol\";\nimport \"./ServiceClaim.sol\";\n\ncontract Organizations {\n\n    uint admin;\n\n\n    uint256 claimId; //Max value of the number of claims made\n    uint storedData; //Miscellaneous data\n\n    mapping (bytes32=>Patient) public patientMap; //ID of patient to specific provider -\n    mapping (bytes32=>Provider) public providerMap; //ID of provider to specific provider -\n    mapping (bytes32=>Insurer) public insurerMap; //ID of insurance provider to specific insurer\n    mapping (bytes32=>address) public serviceClaimsMap; //ID of serviceClaim to the specific ServiceClaim contract instance\n\n    //Events for organization creation    event ServiceCreated(address serviceClaimAddr);\n    event SCID(bytes32 ID, address addr);\n    event ClaimCreated(uint256 id, uint256 amount);\n    event PatientCreated(bytes32 id, string name);\n    event ProviderCreated(bytes32 id, string name);\n    event InsurerCreated(bytes32 id, string name);\n    event PatientRetrieval(Patient patient);\n    event ProviderRetrieval(Provider provider);\n\n    //event patientList(Patient[] patients);\n    //event providerList(Provider[] providers);\n    //event insurerList(Insurer[] insurers);\n\n    event idList(bytes32[] ids);\n    event serviceList(address[] services);\n\n    struct Patient {\n        bytes32 id;\n        string name;\n        address[] unverifiedClaims;\n        address[] verifiedClaims;\n    }\n\n    struct Provider {\n        bytes32 id;\n        string name;\n        bytes32[] patients;\n    }\n\n    struct Insurer {\n        bytes32 id;\n        string name;\n        bytes32[] providers;\n    }\n\n\n\n    constructor() public {\n        preLoadInfo();\n    }\n\n\n    function preLoadInfo() public{\n        bytes32 insurerID = addInsurer(\"CMS\");\n        bytes32 providerID = addProvider(\"UCSD Medical\", insurerID);\n        addPatient(\"Ken\", providerID);\n        addPatient(\"Danny\", providerID);\n        addPatient(\"Antonio\", providerID);\n    }\n    // ------------------------------ Adds Users to Network --------------------------- //\n\n    /** @dev add a patient to the network\n    @param _name is the name of the patient\n    @param _providerID is the current provider of the patient\n    @return pID is a bytes32 represented id number for the patient\n    */\n    function addPatient(string memory _name, bytes32 _providerID) public returns(bytes32 pID) {\n        bytes32 id = keccak256(abi.encodePacked(_name));\n        address[] memory uClaimList;\n        address[] memory vClaimList;\n        Patient memory newPatient = Patient(id, _name, uClaimList, vClaimList);\n        //bytes32 patientHash = keccak256(abi.encodePacked(newPatient));\n        patientMap[id] = newPatient;\n        providerMap[_providerID].patients.push(newPatient.id);\n        emit PatientCreated(id, _name);\n        return id;\n    }\n\n    /** @dev add a provider to the network\n    @param _name name of the provider\n    @param _insurerID id of insurance provider\n    @return the pID of the health provider -\n     */\n    function addProvider(string memory _name, bytes32 _insurerID) public returns(bytes32 pID) {\n        bytes32 id = keccak256(abi.encodePacked(_name));\n        bytes32[] memory emptyList;\n        Provider memory newProvider = Provider(id, _name, emptyList);\n        //bytes32 providerHash = keccak256(abi.encodePacked(newProvider));\n        providerMap[id] = newProvider;\n        insurerMap[_insurerID].providers.push(newProvider.id);\n        emit ProviderCreated(id, _name);\n        return id;\n    }\n\n    /** @dev add an insurnace provider to the network\n    @param _name the name of the insurance provider\n    @return pID of the insurance provider\n    */\n    function addInsurer(string memory _name) public returns(bytes32 pID) {\n        bytes32 id = keccak256(abi.encodePacked(_name));\n        bytes32[] memory emptyList;\n        Insurer memory newInsurer = Insurer(id, _name, emptyList);\n        //bytes32 insurerHash = keccak256(abi.encodePacked(newInsurer));\n        insurerMap[id] = newInsurer;\n        emit InsurerCreated(id, _name);\n        return id;\n    }\n\n    // ------------------------------ Functionality of the Network --------------------------- //\n\n    /** @dev create an instance of a ServiceClaim contract\n    @param _name name of the service\n    @param _providerID provider ID\n    @param _patientID patient ID\n    @return serviceContractHash is the id of the ServiceClaim contract\n    */\n    function provideService(string memory _name, bytes32 _providerID, bytes32 _patientID) public returns(bytes32 serviceContractHash) {\n        bytes32 id = keccak256(abi.encodePacked(_name, _providerID, _patientID));\n        ServiceClaim serviceClaim = new ServiceClaim(_providerID, _patientID, id, _name);\n        bytes32 serviceClaimID = keccak256(abi.encodePacked(address(serviceClaim)));\n        serviceClaimsMap[serviceClaimID] = address(serviceClaim);\n        Patient storage patient = patientMap[_patientID];\n        patient.unverifiedClaims.push(address(serviceClaim));\n        emit SCID(serviceClaimID, address(serviceClaim));\n        return serviceClaimID;\n    }\n\n    /** @dev add a claim to a ServiceClaim contract i.e. the provider wants to file a claim for a service rendered\n    @param _serviceClaimID the ID of the ServiceClaim contract\n    @param _amount the amount to be claimed by the provider\n    @return ClaimID the ID of the claim\n    */\n    function fileClaim(bytes32 _serviceClaimID, uint256 _amount) public returns(uint256 ClaimID) {\n        //Patient storage cPatient = patientMap[_patient];\n        ServiceClaim myServiceClaim = ServiceClaim(serviceClaimsMap[_serviceClaimID]);\n        uint256 newClaimID = myServiceClaim.fileClaim(_amount);\n        emit ClaimCreated(newClaimID, _amount);\n        return newClaimID;\n    }\n\n    \n    /** @dev invoke the verifyClaim function in the ServiceClaim contract\n    @param _serviceClaimID the id of the ServiceClaim contract\n    */\n    /** @dev invoke the verifyClaim function in the ServiceClaim contract\n    @param _serviceClaimID the id of the ServiceClaim contract\n    */\n    function verifyClaim(bytes32 _serviceClaimID) public {\n        ServiceClaim myServiceClaim = ServiceClaim(serviceClaimsMap[_serviceClaimID]);\n        require(myServiceClaim.verifyClaim(), \"Claim was not Verified\");\n        // Add the claim address to verified list\n        // Delete the claim address from unverified list\n        bytes32 patID = myServiceClaim.patientID();\n        Patient storage cP = patientMap[patID];\n\n        cP.verifiedClaims.push(address(myServiceClaim));\n        for(uint i = 0; i < cP.unverifiedClaims.length; i++){\n            if(cP.unverifiedClaims[i] == address(myServiceClaim)){\n                delete(cP.unverifiedClaims[i]);\n                break;\n            }\n        }\n    }\n\n    /** @dev invoke the payProvider function in the ServiceClaim contract\n    @param _serviceClaimID the id of the ServiceClaim contract\n    */\n    function payProvider(bytes32 _serviceClaimID) public {\n        //require(_serviceClaim.claim().verified == true, \"User has not verified service\");\n        ServiceClaim myServiceClaim = ServiceClaim(serviceClaimsMap[_serviceClaimID]);\n        myServiceClaim.payProvider();\n    }\n\n\n\n    // ------------------------------ Getters of Network Data --------------------------- //\n\n\n    function patientsOfProvider(bytes32 _id) public returns (bytes32[] memory) {\n        Provider storage cP = providerMap[_id];\n        emit idList(cP.patients);\n        return(cP.patients);\n    }\n\n    function providersOfInsurer(bytes32 _id) public returns (bytes32[] memory) {\n        Insurer storage cI = insurerMap[_id];\n        emit idList(cI.providers);\n        return(cI.providers);\n    }\n\n    function getPatient(bytes32 _id) public returns (Patient memory){\n        Patient memory patient = patientMap[_id];\n        emit PatientRetrieval(patient);\n        return patient;\n    }\n\n    function getProvider(bytes32 _id) public returns (Provider memory){\n        Provider memory provider = providerMap[_id];\n        emit ProviderRetrieval(provider);\n        return providerMap[_id];\n    }\n\n    function patientUnverifiedServices(bytes32 _id) public returns (address[] memory){\n        Patient storage cP = patientMap[_id];\n        emit serviceList(cP.unverifiedClaims);\n        return(cP.unverifiedClaims);\n    }\n\n    function patientVerifiedServices(bytes32 _id) public returns (address[] memory){\n        Patient storage cP = patientMap[_id];\n        emit serviceList(cP.verifiedClaims);\n        return(cP.verifiedClaims);\n    }\n\n\n\n    function setAdmin(uint _num) public {\n        admin = _num;\n    }\n\n\n    function getAdmin() public view returns (uint) {\n        return admin;\n    }\n\n\n\n// TODO\n    // function insurerUnpaidClaims(bytes32 _id) public {\n    // }\n    // function insurerPaidClaims(bytes32 _id) public {\n\n    // }\n\n    // function providerUnpaidClaims(bytes32 _id) public {\n\n    // }\n\n    //  function providerPaidClaims(bytes32 _id) public {\n    // }\n}\n",
  "sourcePath": "/Users/danny/sdsc-blocklab/Medicare-Claim-Verification/contracts/Organizations.sol",
  "compiler": {
    "name": "solc",
    "version": "0.5.11+commit.c082d0b4.Emscripten.clang"
  },
  "schemaVersion": "3.0.11",
  "updatedAt": "2019-09-06T00:10:08.438Z",
  "devdoc": {
    "methods": {
      "addInsurer(string)": {
        "details": "add an insurnace provider to the network",
        "params": {
          "_name": "the name of the insurance provider"
        },
        "return": "pID of the insurance provider"
      },
      "addPatient(string,bytes32)": {
        "details": "add a patient to the network",
        "params": {
          "_name": "is the name of the patient",
          "_providerID": "is the current provider of the patient"
        },
        "return": "pID is a bytes32 represented id number for the patient"
      },
      "addProvider(string,bytes32)": {
        "details": "add a provider to the network",
        "params": {
          "_insurerID": "id of insurance provider",
          "_name": "name of the provider"
        },
        "return": "the pID of the health provider -"
      },
      "fileClaim(bytes32,uint256)": {
        "details": "add a claim to a ServiceClaim contract i.e. the provider wants to file a claim for a service rendered",
        "params": {
          "_amount": "the amount to be claimed by the provider",
          "_serviceClaimID": "the ID of the ServiceClaim contract"
        },
        "return": "ClaimID the ID of the claim"
      },
      "payProvider(bytes32)": {
        "details": "invoke the payProvider function in the ServiceClaim contract",
        "params": {
          "_serviceClaimID": "the id of the ServiceClaim contract"
        }
      },
      "provideService(string,bytes32,bytes32)": {
        "details": "create an instance of a ServiceClaim contract",
        "params": {
          "_name": "name of the service",
          "_patientID": "patient ID",
          "_providerID": "provider ID"
        },
        "return": "serviceContractHash is the id of the ServiceClaim contract"
      },
      "verifyClaim(bytes32)": {
        "details": "invoke the verifyClaim function in the ServiceClaim contract",
        "params": {
          "_serviceClaimID": "the id of the ServiceClaim contract"
        }
      }
    }
  },
  "userdoc": {
    "methods": {}
  }
}