{
  "contractName": "Organizations",
  "abi": [
    {
      "constant": true,
      "inputs": [
        {
          "internalType": "bytes32",
          "name": "",
          "type": "bytes32"
        }
      ],
      "name": "serviceClaimsMap",
      "outputs": [
        {
          "internalType": "address",
          "name": "",
          "type": "address"
        }
      ],
      "payable": false,
      "stateMutability": "view",
      "type": "function"
    },
    {
      "constant": true,
      "inputs": [
        {
          "internalType": "bytes32",
          "name": "",
          "type": "bytes32"
        }
      ],
      "name": "providerMap",
      "outputs": [
        {
          "internalType": "bytes32",
          "name": "id",
          "type": "bytes32"
        },
        {
          "internalType": "string",
          "name": "name",
          "type": "string"
        }
      ],
      "payable": false,
      "stateMutability": "view",
      "type": "function"
    },
    {
      "constant": true,
      "inputs": [
        {
          "internalType": "address",
          "name": "",
          "type": "address"
        }
      ],
      "name": "serviceName",
      "outputs": [
        {
          "internalType": "string",
          "name": "",
          "type": "string"
        }
      ],
      "payable": false,
      "stateMutability": "view",
      "type": "function"
    },
    {
      "constant": true,
      "inputs": [
        {
          "internalType": "bytes32",
          "name": "",
          "type": "bytes32"
        }
      ],
      "name": "insurerMap",
      "outputs": [
        {
          "internalType": "bytes32",
          "name": "id",
          "type": "bytes32"
        },
        {
          "internalType": "string",
          "name": "name",
          "type": "string"
        }
      ],
      "payable": false,
      "stateMutability": "view",
      "type": "function"
    },
    {
      "constant": true,
      "inputs": [
        {
          "internalType": "bytes32",
          "name": "",
          "type": "bytes32"
        }
      ],
      "name": "patientMap",
      "outputs": [
        {
          "internalType": "bytes32",
          "name": "id",
          "type": "bytes32"
        },
        {
          "internalType": "string",
          "name": "name",
          "type": "string"
        }
      ],
      "payable": false,
      "stateMutability": "view",
      "type": "function"
    },
    {
      "inputs": [],
      "payable": false,
      "stateMutability": "nonpayable",
      "type": "constructor"
    },
    {
      "anonymous": false,
      "inputs": [
        {
          "indexed": false,
          "internalType": "bytes32",
          "name": "ID",
          "type": "bytes32"
        },
        {
          "indexed": false,
          "internalType": "address",
          "name": "addr",
          "type": "address"
        }
      ],
      "name": "SCID",
      "type": "event"
    },
    {
      "anonymous": false,
      "inputs": [
        {
          "indexed": false,
          "internalType": "uint256",
          "name": "id",
          "type": "uint256"
        },
        {
          "indexed": false,
          "internalType": "uint256",
          "name": "amount",
          "type": "uint256"
        }
      ],
      "name": "ClaimCreated",
      "type": "event"
    },
    {
      "anonymous": false,
      "inputs": [
        {
          "indexed": false,
          "internalType": "address",
          "name": "addr",
          "type": "address"
        }
      ],
      "name": "ClaimVerified",
      "type": "event"
    },
    {
      "anonymous": false,
      "inputs": [
        {
          "indexed": false,
          "internalType": "bytes32",
          "name": "id",
          "type": "bytes32"
        },
        {
          "indexed": false,
          "internalType": "string",
          "name": "name",
          "type": "string"
        }
      ],
      "name": "PatientCreated",
      "type": "event"
    },
    {
      "anonymous": false,
      "inputs": [
        {
          "indexed": false,
          "internalType": "bytes32",
          "name": "id",
          "type": "bytes32"
        },
        {
          "indexed": false,
          "internalType": "string",
          "name": "name",
          "type": "string"
        }
      ],
      "name": "ProviderCreated",
      "type": "event"
    },
    {
      "anonymous": false,
      "inputs": [
        {
          "indexed": false,
          "internalType": "bytes32",
          "name": "id",
          "type": "bytes32"
        },
        {
          "indexed": false,
          "internalType": "string",
          "name": "name",
          "type": "string"
        }
      ],
      "name": "InsurerCreated",
      "type": "event"
    },
    {
      "anonymous": false,
      "inputs": [
        {
          "components": [
            {
              "internalType": "bytes32",
              "name": "id",
              "type": "bytes32"
            },
            {
              "internalType": "string",
              "name": "name",
              "type": "string"
            },
            {
              "internalType": "address[]",
              "name": "unclaimedServices",
              "type": "address[]"
            },
            {
              "internalType": "address[]",
              "name": "unverifiedClaims",
              "type": "address[]"
            },
            {
              "internalType": "address[]",
              "name": "verifiedClaims",
              "type": "address[]"
            }
          ],
          "indexed": false,
          "internalType": "struct Organizations.Patient",
          "name": "patient",
          "type": "tuple"
        }
      ],
      "name": "PatientRetrieval",
      "type": "event"
    },
    {
      "anonymous": false,
      "inputs": [
        {
          "components": [
            {
              "internalType": "bytes32",
              "name": "id",
              "type": "bytes32"
            },
            {
              "internalType": "string",
              "name": "name",
              "type": "string"
            },
            {
              "internalType": "bytes32[]",
              "name": "patients",
              "type": "bytes32[]"
            }
          ],
          "indexed": false,
          "internalType": "struct Organizations.Provider",
          "name": "provider",
          "type": "tuple"
        }
      ],
      "name": "ProviderRetrieval",
      "type": "event"
    },
    {
      "anonymous": false,
      "inputs": [
        {
          "indexed": false,
          "internalType": "address",
          "name": "addr",
          "type": "address"
        },
        {
          "indexed": false,
          "internalType": "string",
          "name": "patientname",
          "type": "string"
        },
        {
          "indexed": false,
          "internalType": "string",
          "name": "providername",
          "type": "string"
        },
        {
          "indexed": false,
          "internalType": "string",
          "name": "claimname",
          "type": "string"
        },
        {
          "indexed": false,
          "internalType": "bytes32",
          "name": "id",
          "type": "bytes32"
        },
        {
          "indexed": false,
          "internalType": "bytes32",
          "name": "provider",
          "type": "bytes32"
        },
        {
          "indexed": false,
          "internalType": "bytes32",
          "name": "patient",
          "type": "bytes32"
        },
        {
          "indexed": false,
          "internalType": "uint256",
          "name": "amount",
          "type": "uint256"
        },
        {
          "indexed": false,
          "internalType": "bool",
          "name": "verified",
          "type": "bool"
        },
        {
          "indexed": false,
          "internalType": "bool",
          "name": "payed",
          "type": "bool"
        }
      ],
      "name": "ServiceClaimInfo",
      "type": "event"
    },
    {
      "anonymous": false,
      "inputs": [
        {
          "indexed": false,
          "internalType": "bytes32[]",
          "name": "ids",
          "type": "bytes32[]"
        }
      ],
      "name": "idList",
      "type": "event"
    },
    {
      "anonymous": false,
      "inputs": [
        {
          "indexed": false,
          "internalType": "address[]",
          "name": "services",
          "type": "address[]"
        }
      ],
      "name": "serviceList",
      "type": "event"
    },
    {
      "anonymous": false,
      "inputs": [
        {
          "indexed": false,
          "internalType": "string",
          "name": "name",
          "type": "string"
        }
      ],
      "name": "SCName",
      "type": "event"
    },
    {
      "anonymous": false,
      "inputs": [
        {
          "components": [
            {
              "internalType": "address",
              "name": "scAddr",
              "type": "address"
            },
            {
              "internalType": "bytes32",
              "name": "id",
              "type": "bytes32"
            },
            {
              "internalType": "bytes32",
              "name": "insurerID",
              "type": "bytes32"
            },
            {
              "internalType": "bytes32",
              "name": "providerID",
              "type": "bytes32"
            },
            {
              "internalType": "bytes32",
              "name": "patientID",
              "type": "bytes32"
            },
            {
              "internalType": "string",
              "name": "name",
              "type": "string"
            },
            {
              "internalType": "uint256",
              "name": "amount",
              "type": "uint256"
            },
            {
              "internalType": "bool",
              "name": "verified",
              "type": "bool"
            },
            {
              "internalType": "bool",
              "name": "paid",
              "type": "bool"
            }
          ],
          "indexed": false,
          "internalType": "struct Organizations.SC",
          "name": "",
          "type": "tuple"
        }
      ],
      "name": "SCEvent",
      "type": "event"
    },
    {
      "constant": false,
      "inputs": [],
      "name": "preLoadInfo",
      "outputs": [],
      "payable": false,
      "stateMutability": "nonpayable",
      "type": "function"
    },
    {
      "constant": false,
      "inputs": [
        {
          "internalType": "string",
          "name": "_name",
          "type": "string"
        },
        {
          "internalType": "bytes32",
          "name": "_providerID",
          "type": "bytes32"
        }
      ],
      "name": "addPatient",
      "outputs": [
        {
          "internalType": "bytes32",
          "name": "pID",
          "type": "bytes32"
        }
      ],
      "payable": false,
      "stateMutability": "nonpayable",
      "type": "function"
    },
    {
      "constant": true,
      "inputs": [],
      "name": "getPatients",
      "outputs": [
        {
          "internalType": "bytes32[]",
          "name": "nice",
          "type": "bytes32[]"
        }
      ],
      "payable": false,
      "stateMutability": "view",
      "type": "function"
    },
    {
      "constant": false,
      "inputs": [
        {
          "internalType": "string",
          "name": "_name",
          "type": "string"
        },
        {
          "internalType": "bytes32",
          "name": "_insurerID",
          "type": "bytes32"
        }
      ],
      "name": "addProvider",
      "outputs": [
        {
          "internalType": "bytes32",
          "name": "pID",
          "type": "bytes32"
        }
      ],
      "payable": false,
      "stateMutability": "nonpayable",
      "type": "function"
    },
    {
      "constant": true,
      "inputs": [],
      "name": "getProviders",
      "outputs": [
        {
          "internalType": "bytes32[]",
          "name": "nice",
          "type": "bytes32[]"
        }
      ],
      "payable": false,
      "stateMutability": "view",
      "type": "function"
    },
    {
      "constant": false,
      "inputs": [
        {
          "internalType": "string",
          "name": "_name",
          "type": "string"
        }
      ],
      "name": "addInsurer",
      "outputs": [
        {
          "internalType": "bytes32",
          "name": "pID",
          "type": "bytes32"
        }
      ],
      "payable": false,
      "stateMutability": "nonpayable",
      "type": "function"
    },
    {
      "constant": true,
      "inputs": [],
      "name": "getInsurers",
      "outputs": [
        {
          "internalType": "bytes32[]",
          "name": "nice",
          "type": "bytes32[]"
        }
      ],
      "payable": false,
      "stateMutability": "view",
      "type": "function"
    },
    {
      "constant": false,
      "inputs": [
        {
          "internalType": "string",
          "name": "_name",
          "type": "string"
        },
        {
          "internalType": "bytes32",
          "name": "_providerID",
          "type": "bytes32"
        },
        {
          "internalType": "bytes32",
          "name": "_patientID",
          "type": "bytes32"
        }
      ],
      "name": "provideService",
      "outputs": [
        {
          "internalType": "bytes32",
          "name": "serviceContractHash",
          "type": "bytes32"
        }
      ],
      "payable": false,
      "stateMutability": "nonpayable",
      "type": "function"
    },
    {
      "constant": false,
      "inputs": [
        {
          "internalType": "bytes32",
          "name": "_serviceClaimID",
          "type": "bytes32"
        },
        {
          "internalType": "uint256",
          "name": "_amount",
          "type": "uint256"
        }
      ],
      "name": "fileClaim",
      "outputs": [
        {
          "internalType": "uint256",
          "name": "ClaimID",
          "type": "uint256"
        }
      ],
      "payable": false,
      "stateMutability": "nonpayable",
      "type": "function"
    },
    {
      "constant": false,
      "inputs": [
        {
          "internalType": "address",
          "name": "_serviceClaimAddress",
          "type": "address"
        }
      ],
      "name": "verifyClaim",
      "outputs": [],
      "payable": false,
      "stateMutability": "nonpayable",
      "type": "function"
    },
    {
      "constant": false,
      "inputs": [
        {
          "internalType": "bytes32",
          "name": "_serviceClaimID",
          "type": "bytes32"
        }
      ],
      "name": "payProvider",
      "outputs": [],
      "payable": false,
      "stateMutability": "nonpayable",
      "type": "function"
    },
    {
      "constant": false,
      "inputs": [
        {
          "internalType": "bytes32",
          "name": "_id",
          "type": "bytes32"
        }
      ],
      "name": "patientsOfProvider",
      "outputs": [
        {
          "internalType": "bytes32[]",
          "name": "",
          "type": "bytes32[]"
        }
      ],
      "payable": false,
      "stateMutability": "nonpayable",
      "type": "function"
    },
    {
      "constant": false,
      "inputs": [
        {
          "internalType": "bytes32",
          "name": "_id",
          "type": "bytes32"
        }
      ],
      "name": "providersOfInsurer",
      "outputs": [
        {
          "internalType": "bytes32[]",
          "name": "",
          "type": "bytes32[]"
        }
      ],
      "payable": false,
      "stateMutability": "nonpayable",
      "type": "function"
    },
    {
      "constant": false,
      "inputs": [
        {
          "internalType": "bytes32",
          "name": "_id",
          "type": "bytes32"
        }
      ],
      "name": "getPatient",
      "outputs": [
        {
          "internalType": "bool",
          "name": "",
          "type": "bool"
        }
      ],
      "payable": false,
      "stateMutability": "nonpayable",
      "type": "function"
    },
    {
      "constant": false,
      "inputs": [
        {
          "internalType": "bytes32",
          "name": "_id",
          "type": "bytes32"
        }
      ],
      "name": "getProvider",
      "outputs": [
        {
          "components": [
            {
              "internalType": "bytes32",
              "name": "id",
              "type": "bytes32"
            },
            {
              "internalType": "string",
              "name": "name",
              "type": "string"
            },
            {
              "internalType": "bytes32[]",
              "name": "patients",
              "type": "bytes32[]"
            }
          ],
          "internalType": "struct Organizations.Provider",
          "name": "",
          "type": "tuple"
        }
      ],
      "payable": false,
      "stateMutability": "nonpayable",
      "type": "function"
    },
    {
      "constant": false,
      "inputs": [
        {
          "internalType": "bytes32",
          "name": "_id",
          "type": "bytes32"
        }
      ],
      "name": "patientUnclaimedServices",
      "outputs": [
        {
          "internalType": "address[]",
          "name": "",
          "type": "address[]"
        }
      ],
      "payable": false,
      "stateMutability": "nonpayable",
      "type": "function"
    },
    {
      "constant": false,
      "inputs": [
        {
          "internalType": "bytes32",
          "name": "_id",
          "type": "bytes32"
        }
      ],
      "name": "patientUnverifiedClaims",
      "outputs": [
        {
          "internalType": "address[]",
          "name": "",
          "type": "address[]"
        }
      ],
      "payable": false,
      "stateMutability": "nonpayable",
      "type": "function"
    },
    {
      "constant": false,
      "inputs": [
        {
          "internalType": "bytes32",
          "name": "_id",
          "type": "bytes32"
        }
      ],
      "name": "patientVerifiedClaims",
      "outputs": [
        {
          "internalType": "address[]",
          "name": "",
          "type": "address[]"
        }
      ],
      "payable": false,
      "stateMutability": "nonpayable",
      "type": "function"
    },
    {
      "constant": false,
      "inputs": [
        {
          "internalType": "uint256",
          "name": "_num",
          "type": "uint256"
        }
      ],
      "name": "setAdmin",
      "outputs": [],
      "payable": false,
      "stateMutability": "nonpayable",
      "type": "function"
    },
    {
      "constant": true,
      "inputs": [],
      "name": "getAdmin",
      "outputs": [
        {
          "internalType": "uint256",
          "name": "",
          "type": "uint256"
        }
      ],
      "payable": false,
      "stateMutability": "view",
      "type": "function"
    },
    {
      "constant": false,
      "inputs": [],
      "name": "getAllServices",
      "outputs": [],
      "payable": false,
      "stateMutability": "nonpayable",
      "type": "function"
    }
  ],
  "bytecode": "0x60806040523480156200001157600080fd5b50620000256001600160e01b036200002b16565b62000874565b6000620000736040518060400160405280600381526020017f434d530000000000000000000000000000000000000000000000000000000000815250620001a060201b60201c565b90506000620000be6040518060400160405280600c81526020017f55435344204d65646963616c000000000000000000000000000000000000000081525083620002bf60201b60201c565b9050620001076040518060400160405280600381526020017f4b656e0000000000000000000000000000000000000000000000000000000000815250826200040460201b60201c565b5060408051808201909152600581527f44616e6e7900000000000000000000000000000000000000000000000000000060208201526200015190826001600160e01b036200040416565b5060408051808201909152600781527f416e746f6e696f0000000000000000000000000000000000000000000000000060208201526200019b90826001600160e01b036200040416565b505050565b60008082604051602001620001b69190620007e4565b6040516020818303038152906040528051906020012090506060620001da62000599565b5060408051606081018252838152602080820187815282840185905260008681526005835293909320825181559251805192938493909262000224926001850192910190620005bd565b50604082015180516200024291600284019160209091019062000642565b5050600e80546001810182556000919091527fbb7b4a454dc3493923482f07822329ed19e8244eff582cc204f8554c3620c3fd01849055506040517ff73cee28a98c20f23a903356ab57dc8c514e66b0488c994b09dec06f978c839b90620002ae9085908890620007f9565b60405180910390a150909392505050565b60008083604051602001620002d59190620007e4565b6040516020818303038152906040528051906020012090506060620002f962000599565b5060408051606081018252838152602080820188815282840185905260008681526004835293909320825181559251805192938493909262000343926001850192910190620005bd565b50604082015180516200036191600284019160209091019062000642565b50505060008581526005602090815260408083208451600290910180546001818101835591865293852090930155600d805492830181559092527fd7b6990105719101dabeb77144f2a3385c8033acd3af97e9423a695e81ad1eb501849055517f7dd222c7de5c7ba42d121aa7e2acc9d5d4a47c2eb31f55385cf51cbe459c5c9b90620003f29085908990620007f9565b60405180910390a15090949350505050565b600080836040516020016200041a9190620007e4565b6040516020818303038152906040528051906020012090506060806060620004416200067f565b506040805160a08101825285815260208082018a8152828401879052606083018690526080830185905260008881526003835293909320825181559251805192938493909262000499926001850192910190620005bd565b5060408201518051620004b7916002840191602090910190620006b1565b5060608201518051620004d5916003840191602090910190620006b1565b5060808201518051620004f3916004840191602090910190620006b1565b5050600c805460018181019092557fdf6966c971051c3d54ec59162606531493a51404a002842f56009d7e5cf4a8c7018790556000898152600460209081526040808320865160029091018054958601815584529190922090920191909155517f86ec8adc6f97da0327b3e1dcc24fa25aea5eb7afcf6af08792e4b2d4d799fad89150620005859087908b90620007f9565b60405180910390a150929695505050505050565b60405180606001604052806000801916815260200160608152602001606081525090565b828054600181600116156101000203166002900490600052602060002090601f016020900481019282601f106200060057805160ff191683800117855562000630565b8280016001018555821562000630579182015b828111156200063057825182559160200191906001019062000613565b506200063e92915062000717565b5090565b8280548282559060005260206000209081019282156200063057916020028201828111156200063057825182559160200191906001019062000613565b6040518060a0016040528060008019168152602001606081526020016060815260200160608152602001606081525090565b82805482825590600052602060002090810192821562000709579160200282015b828111156200070957825182546001600160a01b0319166001600160a01b03909116178255602090920191600190910190620006d2565b506200063e92915062000737565b6200073491905b808211156200063e57600081556001016200071e565b90565b6200073491905b808211156200063e5780546001600160a01b03191681556001016200073e565b620007698162000734565b82525050565b60006200077c8262000825565b62000788818562000829565b93506200079a81856020860162000837565b620007a5816200086a565b9093019392505050565b6000620007bc8262000825565b620007c8818562000832565b9350620007da81856020860162000837565b9290920192915050565b6000620007f28284620007af565b9392505050565b604081016200080982856200075e565b81810360208301526200081d81846200076f565b949350505050565b5190565b90815260200190565b919050565b60005b83811015620008545781810151838201526020016200083a565b8381111562000864576000848401525b50505050565b601f01601f191690565b6138b180620008846000396000f3fe60806040523480156200001157600080fd5b5060043610620001b45760003560e01c80636e9960c311620000f3578063a46bfff911620000a5578063e0e87b1a116200007b578063e0e87b1a14620003f6578063ece7ac2b146200040d578063edc922a91462000424578063ee3d52b3146200042e57620001b4565b8063a46bfff914620003b1578063a80d520c14620003c8578063dd23892514620003df57620001b4565b80636e9960c31462000325578063740044b4146200032f5780637899a34e146200034657806392398fbb146200036c5780639594c99e14620003835780639c860b8a146200039a57620001b4565b80632bde2a86116200016b57806339160aa7116200014157806339160aa714620002d65780633e7e072e14620002ed5780633f1e172d146200030457806340f10653146200030e57620001b4565b80632bde2a86146200026357806333c0950a146200028a57806333fc83f714620002b057620001b4565b8063085683ff14620001b95780631156958614620001e857806312ad1c37146200020157806321dd8285146200020b57806321fe0f3014620002315780632470d25e146200023d575b600080fd5b620001d0620001ca3660046200290c565b62000445565b604051620001df919062002fc6565b60405180910390f35b620001f2620007dc565b604051620001df919062002f90565b620001f262000837565b620002226200021c366004620027df565b6200088f565b604051620001df919062002f6a565b6200023b620009cd565b005b620002546200024e366004620027df565b62000feb565b604051620001df919062002e9c565b6200027a62000274366004620027df565b62001006565b604051620001df92919062003041565b620002a16200029b366004620027df565b620010b1565b604051620001df9190620030b0565b620002c7620002c136600462002795565b62001358565b604051620001df919062003065565b6200027a620002e7366004620027df565b620013f7565b620001d0620002fe366004620028d2565b6200146c565b6200023b620015b3565b620001d06200031f36600462002821565b62001693565b620001d0620018a9565b620001d062000340366004620028d2565b620018af565b6200035d62000357366004620027df565b62001a44565b604051620001df919062002fb6565b6200027a6200037d366004620027df565b62001c8e565b6200022262000394366004620027df565b62001d03565b620001f2620003ab366004620027df565b62001e44565b620001f2620003c2366004620027df565b62001ef0565b6200023b620003d936600462002795565b62001f38565b620001d0620003f036600462002899565b62002151565b6200023b62000407366004620027df565b62002270565b620002226200041e366004620027df565b620022ff565b620001f262002440565b6200023b6200043f366004620027df565b62002498565b6000808484846040516020016200045f9392919062002e63565b6040516020818303038152906040528051906020012090506000848483886040516200048b906200249d565b6200049a949392919062002ff5565b604051809103906000f080158015620004b7573d6000803e3d6000fd5b509050600081604051602001620004cf919062002e3e565b604051602081830303815290604052805190602001209050620004f1620024ab565b5060408051610120810182526001600160a01b038481168252602080830185815260088054958501958652606085018c8152608086018c815260a087018f8152600060c0890181905260e08901819052610100890181905260098054600181018083559190925289517f6e1540171b6c0c960b71a7020d9f60077f6af931a8bbf590da0223dacf75c7af9290960291820180546001600160a01b0319169690991695909517885594517f6e1540171b6c0c960b71a7020d9f60077f6af931a8bbf590da0223dacf75c7b086015597517f6e1540171b6c0c960b71a7020d9f60077f6af931a8bbf590da0223dacf75c7b185015590517f6e1540171b6c0c960b71a7020d9f60077f6af931a8bbf590da0223dacf75c7b2840155517f6e1540171b6c0c960b71a7020d9f60077f6af931a8bbf590da0223dacf75c7b38301559451805194959486949362000669937f6e1540171b6c0c960b71a7020d9f60077f6af931a8bbf590da0223dacf75c7b401920190620024f6565b5060c082015160068281019190915560e0830151600792830180546101009586015160ff199091169215159290921761ff0019169115159094021790925560008581526020928352604080822080546001600160a01b03199081166001600160a01b038b169081179092558c845260038652828420600281018054600181018255908652878620018054909216831790915590835292845290208b5191935062000719929091908c0190620024f6565b506001600160a01b0384166000908152600a602090815260409091208a5162000745928c0190620024f6565b50600b80546001810182556000919091527f0175b7a638427703f0dbe7bb9bbf987a2551717b34e79f33b5b1008d1fa01db90180546001600160a01b0319166001600160a01b0386161790556040517f2cdb195d7226065901c0e37d742237ac3e30d6dc0ce7faf49701f6ec9f0bd1ed90620007c5908590879062002fd6565b60405180910390a1509093505050505b9392505050565b6060600e8054806020026020016040519081016040528092919081815260200182805480156200082c57602002820191906000526020600020905b81548152602001906001019080831162000817575b505050505090505b90565b6060600c8054806020026020016040519081016040528092919081815260200182805480156200082c576020028201919060005260206000209081548152602001906001019080831162000817575050505050905090565b60008181526003602052604081206060915b600382015481101562000929577f35b7f39ce99df9443c69ab69269e1ae96c0add252abdcce625838b4c386c6236600a6000846003018481548110620008e357fe5b60009182526020808320909101546001600160a01b031683528201929092526040908101909120905162000918919062003078565b60405180910390a1600101620008a1565b507fa1c275d9147cd4bbf3a6fc6b01df2bdad7272d62a5bea8ea5f90e20e7c3f48e9816003016040516200095e919062002f7d565b60405180910390a180600301805480602002602001604051908101604052809291908181526020018280548015620009c057602002820191906000526020600020905b81546001600160a01b03168152600190910190602001808311620009a1575b5050505050915050919050565b60005b600b5481101562000fe8576000600b8281548110620009eb57fe5b9060005260206000200160009054906101000a90046001600160a01b03169050606060036000836001600160a01b031663f680a7bd6040518163ffffffff1660e01b815260040160206040518083038186803b15801562000a4b57600080fd5b505afa15801562000a60573d6000803e3d6000fd5b505050506040513d601f19601f8201168201806040525062000a86919081019062002800565b81526020019081526020016000206001018054600181600116156101000203166002900480601f01602080910402602001604051908101604052809291908181526020018280546001816001161561010002031660029004801562000b2f5780601f1062000b035761010080835404028352916020019162000b2f565b820191906000526020600020905b81548152906001019060200180831162000b1157829003601f168201915b50505050509050606060046000846001600160a01b031663596ada676040518163ffffffff1660e01b815260040160206040518083038186803b15801562000b7657600080fd5b505afa15801562000b8b573d6000803e3d6000fd5b505050506040513d601f19601f8201168201806040525062000bb1919081019062002800565b81526020019081526020016000206001018054600181600116156101000203166002900480601f01602080910402602001604051908101604052809291908181526020018280546001816001161561010002031660029004801562000c5a5780601f1062000c2e5761010080835404028352916020019162000c5a565b820191906000526020600020905b81548152906001019060200180831162000c3c57829003601f168201915b505050505090507f5a19c8b072af63e75cf80eb8c26dd40d951318c4ef9f4f2926bec4caa2da783e838383866001600160a01b03166306fdde036040518163ffffffff1660e01b815260040160006040518083038186803b15801562000cbf57600080fd5b505afa15801562000cd4573d6000803e3d6000fd5b505050506040513d6000823e601f3d908101601f1916820160405262000cfe919081019062002860565b876001600160a01b0316631be37f406040518163ffffffff1660e01b815260040160206040518083038186803b15801562000d3857600080fd5b505afa15801562000d4d573d6000803e3d6000fd5b505050506040513d601f19601f8201168201806040525062000d73919081019062002800565b886001600160a01b031663596ada676040518163ffffffff1660e01b815260040160206040518083038186803b15801562000dad57600080fd5b505afa15801562000dc2573d6000803e3d6000fd5b505050506040513d601f19601f8201168201806040525062000de8919081019062002800565b896001600160a01b031663f680a7bd6040518163ffffffff1660e01b815260040160206040518083038186803b15801562000e2257600080fd5b505afa15801562000e37573d6000803e3d6000fd5b505050506040513d601f19601f8201168201806040525062000e5d919081019062002800565b8a6001600160a01b031663aa8c217c6040518163ffffffff1660e01b815260040160206040518083038186803b15801562000e9757600080fd5b505afa15801562000eac573d6000803e3d6000fd5b505050506040513d601f19601f8201168201806040525062000ed2919081019062002800565b8b6001600160a01b031663bbb82d896040518163ffffffff1660e01b815260040160206040518083038186803b15801562000f0c57600080fd5b505afa15801562000f21573d6000803e3d6000fd5b505050506040513d601f19601f8201168201806040525062000f479190810190620027be565b8c6001600160a01b031663295b4e176040518163ffffffff1660e01b815260040160206040518083038186803b15801562000f8157600080fd5b505afa15801562000f96573d6000803e3d6000fd5b505050506040513d601f19601f8201168201806040525062000fbc9190810190620027be565b60405162000fd49a9998979695949392919062002eac565b60405180910390a1505050600101620009d0565b50565b6006602052600090815260409020546001600160a01b031681565b6004602090815260009182526040918290208054600180830180548651600293821615610100026000190190911692909204601f810186900486028301860190965285825291949293909290830182828015620010a75780601f106200107b57610100808354040283529160200191620010a7565b820191906000526020600020905b8154815290600101906020018083116200108957829003601f168201915b5050505050905082565b620010bb6200257b565b620010c56200257b565b6004600084815260200190815260200160002060405180606001604052908160008201548152602001600182018054600181600116156101000203166002900480601f0160208091040260200160405190810160405280929190818152602001828054600181600116156101000203166002900480156200118a5780601f106200115e576101008083540402835291602001916200118a565b820191906000526020600020905b8154815290600101906020018083116200116c57829003601f168201915b5050505050815260200160028201805480602002602001604051908101604052809291908181526020018280548015620011e457602002820191906000526020600020905b815481526020019060010190808311620011cf575b50505050508152505090507f8c6b3078bf6d713aeae5b1ccc2dfea387cbb876de1a5c9d81a4e22d4e832c54681604051620012209190620030b0565b60405180910390a16004600084815260200190815260200160002060405180606001604052908160008201548152602001600182018054600181600116156101000203166002900480601f016020809104026020016040519081016040528092919081815260200182805460018160011615610100020316600290048015620012ed5780601f10620012c157610100808354040283529160200191620012ed565b820191906000526020600020905b815481529060010190602001808311620012cf57829003601f168201915b50505050508152602001600282018054806020026020016040519081016040528092919081815260200182805480156200134757602002820191906000526020600020905b81548152602001906001019080831162001332575b505050505081525050915050919050565b60076020908152600091825260409182902080548351601f600260001961010060018616150201909316929092049182018490048402810184019094528084529091830182828015620013ef5780601f10620013c357610100808354040283529160200191620013ef565b820191906000526020600020905b815481529060010190602001808311620013d157829003601f168201915b505050505081565b6005602090815260009182526040918290208054600180830180548651600293821615610100026000190190911692909204601f810186900486028301860190965285825291949293909290830182828015620010a75780601f106200107b57610100808354040283529160200191620010a7565b6000808360405160200162001482919062002e55565b6040516020818303038152906040528051906020012090506060620014a66200257b565b50604080516060810182528381526020808201888152828401859052600086815260048352939093208251815592518051929384939092620014f0926001850192910190620024f6565b50604082015180516200150e9160028401916020909101906200259f565b50505060008581526005602090815260408083208451600290910180546001818101835591865293852090930155600d805492830181559092527fd7b6990105719101dabeb77144f2a3385c8033acd3af97e9423a695e81ad1eb501849055517f7dd222c7de5c7ba42d121aa7e2acc9d5d4a47c2eb31f55385cf51cbe459c5c9b906200159f908590899062003041565b60405180910390a150909150505b92915050565b6000620015db60405180604001604052806003815260200162434d5360e81b81525062002151565b905060006200160f6040518060400160405280600c81526020016b1550d4d1081359591a58d85b60a21b815250836200146c565b9050620016386040518060400160405280600381526020016225b2b760e91b81525082620018af565b50620016626040518060400160405280600581526020016444616e6e7960d81b81525082620018af565b506200168e60405180604001604052806007815260200166416e746f6e696f60c81b81525082620018af565b505050565b60008281526006602052604080822054905163d61909f960e01b81526001600160a01b03909116908290829063d61909f990620016d590879060040162002fc6565b602060405180830381600087803b158015620016f057600080fd5b505af115801562001705573d6000803e3d6000fd5b505050506040513d601f19601f820116820180604052506200172b919081019062002800565b90506000826001600160a01b031663f680a7bd6040518163ffffffff1660e01b815260040160206040518083038186803b1580156200176957600080fd5b505afa1580156200177e573d6000803e3d6000fd5b505050506040513d601f19601f82011682018060405250620017a4919081019062002800565b60008181526003602052604081209192505b60028201548110156200183157846001600160a01b0316826002018281548110620017dd57fe5b6000918252602090912001546001600160a01b0316141562001828578160020181815481106200180957fe5b600091825260209091200180546001600160a01b031916905562001831565b600101620017b6565b50600381018054600181018255600091825260209091200180546001600160a01b0319166001600160a01b0386161790556040517f96e3875898071e5d91932eb150a3914f9fe70e473f6faeaad697e99a48937c9c90620018969085908990620030c3565b60405180910390a1509095945050505050565b60005490565b60008083604051602001620018c5919062002e55565b6040516020818303038152906040528051906020012090506060806060620018ec620025dc565b506040805160a08101825285815260208082018a8152828401879052606083018690526080830185905260008881526003835293909320825181559251805192938493909262001944926001850192910190620024f6565b5060408201518051620019629160028401916020909101906200260e565b5060608201518051620019809160038401916020909101906200260e565b50608082015180516200199e9160048401916020909101906200260e565b5050600c805460018181019092557fdf6966c971051c3d54ec59162606531493a51404a002842f56009d7e5cf4a8c7018790556000898152600460209081526040808320865160029091018054958601815584529190922090920191909155517f86ec8adc6f97da0327b3e1dcc24fa25aea5eb7afcf6af08792e4b2d4d799fad8915062001a309087908b9062003041565b60405180910390a150929695505050505050565b600062001a50620025dc565b600360008481526020019081526020016000206040518060a001604052908160008201548152602001600182018054600181600116156101000203166002900480601f01602080910402602001604051908101604052809291908181526020018280546001816001161561010002031660029004801562001b155780601f1062001ae95761010080835404028352916020019162001b15565b820191906000526020600020905b81548152906001019060200180831162001af757829003601f168201915b505050505081526020016002820180548060200260200160405190810160405280929190818152602001828054801562001b7957602002820191906000526020600020905b81546001600160a01b0316815260019091019060200180831162001b5a575b505050505081526020016003820180548060200260200160405190810160405280929190818152602001828054801562001bdd57602002820191906000526020600020905b81546001600160a01b0316815260019091019060200180831162001bbe575b505050505081526020016004820180548060200260200160405190810160405280929190818152602001828054801562001c4157602002820191906000526020600020905b81546001600160a01b0316815260019091019060200180831162001c22575b50505050508152505090507f7822df68ea6ba88fa17a55a6c6fe1f7207c1653493392725ce9da7f61f8b601d8160405162001c7d91906200309d565b60405180910390a150600192915050565b6003602090815260009182526040918290208054600180830180548651600293821615610100026000190190911692909204601f810186900486028301860190965285825291949293909290830182828015620010a75780601f106200107b57610100808354040283529160200191620010a7565b600081815260036020526040908190209051606091907fa1c275d9147cd4bbf3a6fc6b01df2bdad7272d62a5bea8ea5f90e20e7c3f48e99062001d4b90600284019062002f7d565b60405180910390a160005b600282015481101562001dde577f35b7f39ce99df9443c69ab69269e1ae96c0add252abdcce625838b4c386c6236600a600084600201848154811062001d9857fe5b60009182526020808320909101546001600160a01b031683528201929092526040908101909120905162001dcd919062003078565b60405180910390a160010162001d56565b5080600201805480602002602001604051908101604052809291908181526020018280548015620009c0576020028201919060005260206000209081546001600160a01b03168152600190910190602001808311620009a1575050505050915050919050565b600081815260056020526040908190209051606091907f1c7aaf504355c6134470b4070ca50bf276d45d0205aa86ef6bd15c684ae710c49062001e8c90600284019062002fa3565b60405180910390a180600201805480602002602001604051908101604052809291908181526020018280548015620009c057602002820191906000526020600020905b81548152602001906001019080831162001ecf575050505050915050919050565b600081815260046020526040908190209051606091907f1c7aaf504355c6134470b4070ca50bf276d45d0205aa86ef6bd15c684ae710c49062001e8c90600284019062002fa3565b6000819050806001600160a01b031663844cdf096040518163ffffffff1660e01b8152600401602060405180830381600087803b15801562001f7957600080fd5b505af115801562001f8e573d6000803e3d6000fd5b505050506040513d601f19601f8201168201806040525062001fb49190810190620027be565b62001fdc5760405162461bcd60e51b815260040162001fd3906200308b565b60405180910390fd5b6000816001600160a01b031663f680a7bd6040518163ffffffff1660e01b815260040160206040518083038186803b1580156200201857600080fd5b505afa1580156200202d573d6000803e3d6000fd5b505050506040513d601f19601f8201168201806040525062002053919081019062002800565b60008181526003602052604081209192505b6003820154811015620020e057836001600160a01b03168260030182815481106200208c57fe5b6000918252602090912001546001600160a01b03161415620020d757816003018181548110620020b857fe5b600091825260209091200180546001600160a01b0319169055620020e0565b60010162002065565b50600481018054600181018255600091825260209091200180546001600160a01b0319166001600160a01b0385161790556040517fc03c381479e74431d2e456b259238f87292a5a827091c7386e197457ad47e19e906200214390869062002e9c565b60405180910390a150505050565b6000808260405160200162002167919062002e55565b60405160208183030381529060405280519060200120905060606200218b6200257b565b50604080516060810182528381526020808201878152828401859052600086815260058352939093208251815592518051929384939092620021d5926001850192910190620024f6565b5060408201518051620021f39160028401916020909101906200259f565b5050600e80546001810182556000919091527fbb7b4a454dc3493923482f07822329ed19e8244eff582cc204f8554c3620c3fd01849055506040517ff73cee28a98c20f23a903356ab57dc8c514e66b0488c994b09dec06f978c839b906200225f908590889062003041565b60405180910390a150909392505050565b60008181526006602090815260408083205481516398d6a37360e01b815291516001600160a01b039091169384936398d6a373936004808201949293918390030190829087803b158015620022c457600080fd5b505af1158015620022d9573d6000803e3d6000fd5b505050506040513d601f19601f820116820180604052506200168e9190810190620027be565b600081815260036020526040908190209051606091907fa1c275d9147cd4bbf3a6fc6b01df2bdad7272d62a5bea8ea5f90e20e7c3f48e9906200234790600484019062002f7d565b60405180910390a160005b6004820154811015620023da577f35b7f39ce99df9443c69ab69269e1ae96c0add252abdcce625838b4c386c6236600a60008460040184815481106200239457fe5b60009182526020808320909101546001600160a01b0316835282019290925260409081019091209051620023c9919062003078565b60405180910390a160010162002352565b5080600401805480602002602001604051908101604052809291908181526020018280548015620009c0576020028201919060005260206000209081546001600160a01b03168152600190910190602001808311620009a1575050505050915050919050565b6060600d8054806020026020016040519081016040528092919081815260200182805480156200082c576020028201919060005260206000209081548152602001906001019080831162000817575050505050905090565b600055565b61061b806200325483390190565b604080516101208101825260008082526020820181905291810182905260608082018390526080820183905260a082015260c0810182905260e0810182905261010081019190915290565b828054600181600116156101000203166002900490600052602060002090601f016020900481019282601f106200253957805160ff191683800117855562002569565b8280016001018555821562002569579182015b82811115620025695782518255916020019190600101906200254c565b506200257792915062002674565b5090565b60405180606001604052806000801916815260200160608152602001606081525090565b828054828255906000526020600020908101928215620025695791602002820182811115620025695782518255916020019190600101906200254c565b6040518060a0016040528060008019168152602001606081526020016060815260200160608152602001606081525090565b82805482825590600052602060002090810192821562002666579160200282015b828111156200266657825182546001600160a01b0319166001600160a01b039091161782556020909201916001909101906200262f565b506200257792915062002691565b6200083491905b808211156200257757600081556001016200267b565b6200083491905b80821115620025775780546001600160a01b031916815560010162002698565b8035620015ad8162003226565b8051620015ad816200323d565b8035620015ad8162003248565b8051620015ad8162003248565b600082601f830112620026fe57600080fd5b8151620027156200270f826200310a565b620030e2565b915080825260208301602083018583830111156200273257600080fd5b6200273f8382846200318b565b50505092915050565b600082601f8301126200275a57600080fd5b81356200276b6200270f826200310a565b915080825260208301602083018583830111156200278857600080fd5b6200273f8382846200317f565b600060208284031215620027a857600080fd5b6000620027b68484620026b8565b949350505050565b600060208284031215620027d157600080fd5b6000620027b68484620026c5565b600060208284031215620027f257600080fd5b6000620027b68484620026d2565b6000602082840312156200281357600080fd5b6000620027b68484620026df565b600080604083850312156200283557600080fd5b6000620028438585620026d2565b92505060206200285685828601620026d2565b9150509250929050565b6000602082840312156200287357600080fd5b815167ffffffffffffffff8111156200288b57600080fd5b620027b684828501620026ec565b600060208284031215620028ac57600080fd5b813567ffffffffffffffff811115620028c457600080fd5b620027b68482850162002748565b60008060408385031215620028e657600080fd5b823567ffffffffffffffff811115620028fe57600080fd5b620028438582860162002748565b6000806000606084860312156200292257600080fd5b833567ffffffffffffffff8111156200293a57600080fd5b620029488682870162002748565b93505060206200295b86828701620026d2565b92505060406200296e86828701620026d2565b9150509250925092565b60006200298683836200299c565b505060200190565b600062002986838362002c06565b620029a7816200316d565b82525050565b620029a7620029bc826200316d565b620031e6565b6000620029cf8262003145565b620029db818562003153565b9350620029e88362003133565b8060005b8381101562002a1c57815162002a03888262002978565b975062002a108362003133565b925050600101620029ec565b509495945050505050565b600062002a348262003145565b62002a40818562003153565b935062002a4d8362003133565b8060005b8381101562002a1c57815162002a68888262002978565b975062002a758362003133565b92505060010162002a51565b600062002a8e8262003149565b62002a9a818562003153565b935062002aa78362003139565b8060005b8381101562002a1c5762002abf82620031fa565b62002acb888262002978565b975062002ad8836200314d565b92505060010162002aab565b600062002af18262003145565b62002afd818562003153565b935062002b0a8362003133565b8060005b8381101562002a1c57815162002b2588826200298e565b975062002b328362003133565b92505060010162002b0e565b600062002b4b8262003145565b62002b57818562003153565b935062002b648362003133565b8060005b8381101562002a1c57815162002b7f88826200298e565b975062002b8c8362003133565b92505060010162002b68565b600062002ba58262003149565b62002bb1818562003153565b935062002bbe8362003139565b8060005b8381101562002a1c5762002bd68262003208565b62002be288826200298e565b975062002bef836200314d565b92505060010162002bc2565b620029a7816200317a565b620029a78162000834565b620029a762002c208262000834565b62000834565b600062002c338262003145565b62002c3f818562003153565b935062002c518185602086016200318b565b62002c5c8162003216565b9093019392505050565b600062002c738262003145565b62002c7f81856200315c565b935062002c918185602086016200318b565b9290920192915050565b60008154600181166000811462002cbb576001811462002ce45762002d29565b607f600283041662002cce818762003153565b60ff198416815295505060208501925062002d29565b6002820462002cf4818762003153565b955062002d018562003139565b60005b8281101562002d225781548882015260019091019060200162002d04565b8701945050505b505092915050565b600062002d4060168362003153565b7510db185a5b481dd85cc81b9bdd0815995c9a599a595960521b815260200192915050565b805160009060a084019062002d7b858262002c06565b506020830151848203602086015262002d95828262002c26565b9150506040830151848203604086015262002db1828262002a27565b9150506060830151848203606086015262002dcd828262002a27565b9150506080830151848203608086015262002de9828262002a27565b95945050505050565b8051600090606084019062002e08858262002c06565b506020830151848203602086015262002e22828262002c26565b9150506040830151848203604086015262002de9828262002b3e565b600062002e4c8284620029ad565b50601401919050565b6000620007d5828462002c66565b600062002e71828662002c66565b915062002e7f828562002c11565b60208201915062002e91828462002c11565b506020019392505050565b60208101620015ad82846200299c565b610140810162002ebd828d6200299c565b818103602083015262002ed1818c62002c26565b9050818103604083015262002ee7818b62002c26565b9050818103606083015262002efd818a62002c26565b905062002f0e608083018962002c06565b62002f1d60a083018862002c06565b62002f2c60c083018762002c06565b62002f3b60e083018662002c06565b62002f4b61010083018562002bfb565b62002f5b61012083018462002bfb565b9b9a5050505050505050505050565b60208082528101620007d58184620029c2565b60208082528101620007d5818462002a81565b60208082528101620007d5818462002ae4565b60208082528101620007d5818462002b98565b60208101620015ad828462002bfb565b60208101620015ad828462002c06565b6040810162002fe6828562002c06565b620007d560208301846200299c565b6080810162003005828762002c06565b62003014602083018662002c06565b62003023604083018562002c06565b818103606083015262003037818462002c26565b9695505050505050565b6040810162003051828562002c06565b8181036020830152620027b6818462002c26565b60208082528101620007d5818462002c26565b60208082528101620007d5818462002c9b565b60208082528101620015ad8162002d31565b60208082528101620007d5818462002d65565b60208082528101620007d5818462002df2565b60408101620030d3828562002c06565b620007d5602083018462002c06565b60405181810167ffffffffffffffff811182821017156200310257600080fd5b604052919050565b600067ffffffffffffffff8211156200312257600080fd5b506020601f91909101601f19160190565b60200190565b60009081526020902090565b5190565b5490565b60010190565b90815260200190565b919050565b6001600160a01b031690565b6000620015ad8262003161565b151590565b82818337506000910152565b60005b83811015620031a85781810151838201526020016200318e565b83811115620031b8576000848401525b50505050565b6000620015ad620031cf8362000834565b62003161565b6000620015ad62002c208362000834565b6000620015ad826000620015ad8262003220565b6000620015ad8254620031be565b6000620015ad8254620031d5565b601f01601f191690565b60601b90565b62003231816200316d565b811462000fe857600080fd5b62003231816200317a565b62003231816200083456fe608060405234801561001057600080fd5b5060405161061b38038061061b8339818101604052608081101561003357600080fd5b81516020830151604080850151606086018051925194969395919493918201928464010000000082111561006657600080fd5b90830190602082018581111561007b57600080fd5b825164010000000081118282018810171561009557600080fd5b82525081516020918201929091019080838360005b838110156100c25781810151838201526020016100aa565b50505050905090810190601f1680156100ef5780820380516001836020036101000a031916815260200191505b506040525050506001849055600283905560038290558051610118906004906020840190610122565b50505050506101bd565b828054600181600116156101000203166002900490600052602060002090601f016020900481019282601f1061016357805160ff1916838001178555610190565b82800160010185558215610190579182015b82811115610190578251825591602001919060010190610175565b5061019c9291506101a0565b5090565b6101ba91905b8082111561019c57600081556001016101a6565b90565b61044f806101cc6000396000f3fe608060405234801561001057600080fd5b50600436106101165760003560e01c8063844cdf09116100a2578063bbb82d8911610071578063bbb82d891461025d578063cdb73ac014610265578063d321fe2914610282578063d61909f91461028a578063f680a7bd146102a757610116565b8063844cdf091461023d57806398d6a37314610245578063aa8c217c1461024d578063b95e216c1461025557610116565b806334d6093d116100e957806334d6093d146101d65780633a50ed13146101f35780633f02907a14610210578063596ada671461022d57806380007e831461023557610116565b806306fdde031461011b5780631be37f4014610198578063209ebc08146101b2578063295b4e17146101ce575b600080fd5b6101236102af565b6040805160208082528351818301528351919283929083019185019080838360005b8381101561015d578181015183820152602001610145565b50505050905090810190601f16801561018a5780820380516001836020036101000a031916815260200191505b509250505060405180910390f35b6101a061033d565b60408051918252519081900360200190f35b6101ba610343565b604080519115158252519081900360200190f35b6101ba610351565b6101a0600480360360208110156101ec57600080fd5b503561035f565b6101a06004803603602081101561020957600080fd5b5035610367565b6101a06004803603602081101561022657600080fd5b503561036f565b6101a0610377565b6101ba61037d565b6101ba610386565b6101ba610399565b6101a06103ad565b6101a06103b3565b6101ba6103b9565b6101a06004803603602081101561027b57600080fd5b50356103c2565b6101a06103ca565b6101a0600480360360208110156102a057600080fd5b50356103d0565b6101a0610414565b6004805460408051602060026001851615610100026000190190941693909304601f810184900484028201840190925281815292918301828280156103355780601f1061030a57610100808354040283529160200191610335565b820191906000526020600020905b81548152906001019060200180831161031857829003601f168201915b505050505081565b60035481565b600654610100900460ff1690565b600654610100900460ff1681565b600581905590565b600081905590565b600181905590565b60015481565b60065460ff1690565b6006805460ff1916600190811790915590565b6006805461ff001916610100179055600190565b60055481565b60005481565b60065460ff1681565b600281905590565b60055490565b60058190556040805182815290516000917f7da274c7907a6e3fe48918a914c8a93c400713daffcd99eaa4a9ae6e99322204919081900360200190a1505060055490565b6002548156fea265627a7a72315820b1b9a886054b8fdeff770f8b0fb1868c94dc59d229768b35dcb5a92ff9789bac64736f6c634300050b0032a365627a7a723158205cc075466e22db0d6f0fdb775320b0e6d4d5f96e7a1d55c56a9e17ee248572cc6c6578706572696d656e74616cf564736f6c634300050b0040",
  "source": "pragma solidity ^0.5.0;\npragma experimental ABIEncoderV2;\nimport \"./SafeMath.sol\";\nimport \"./ServiceClaim.sol\";\ncontract Organizations {\n    uint admin;\n    uint256 claimId; //Max value of the number of claims made\n    uint storedData; //Miscellaneous data\n    mapping (bytes32=>Patient) public patientMap; //ID of patient to specific provider -\n    mapping (bytes32=>Provider) public providerMap; //ID of provider to specific provider -\n    mapping (bytes32=>Insurer) public insurerMap; //ID of insurance provider to specific insurer\n    mapping (bytes32=>address) public serviceClaimsMap; //ID of serviceClaim to the specific ServiceClaim contract instance\n    mapping (address=>string) public serviceName;\n    //Events for organization creation    event ServiceCreated(address serviceClaimAddr);\n    event SCID(bytes32 ID, address addr);\n    event ClaimCreated(uint256 id, uint256 amount);\n    event ClaimVerified(address addr);\n    event PatientCreated(bytes32 id, string name);\n    event ProviderCreated(bytes32 id, string name);\n    event InsurerCreated(bytes32 id, string name);\n    event PatientRetrieval(Patient patient);\n    event ProviderRetrieval(Provider provider);\n    event ServiceClaimInfo(\n        address addr, string patientname, string providername, string claimname, bytes32 id, bytes32 provider, bytes32 patient, uint256 amount, bool verified, bool payed);\n    //event patientList(Patient[] patients);\n    //event providerList(Provider[] providers);\n    //event insurerList(Insurer[] insurers);\n    event idList(bytes32[] ids);\n    event serviceList(address[] services);\n    event SCName(string name);\n    event SCEvent(SC);\n    struct SC {\n        address scAddr;\n        bytes32 id;\n        bytes32 insurerID;\n        bytes32 providerID;\n        bytes32 patientID;\n        string name;\n        uint256 amount;\n        bool verified;\n        bool paid;\n    }\n    bytes32 globalInsurerID;\n  \n    SC[] scs;\n    mapping (address=>string) SCMap;\n    address[] SCList;\n    bytes32[] patientList;\n    bytes32[] providerList;\n    bytes32[] insurerList;\n    struct Patient {\n        bytes32 id;\n        string name;\n        //mapping (address=>string) SCMap;\n        address[] unclaimedServices;\n        address[] unverifiedClaims;\n        address[] verifiedClaims;\n    }\n    struct Provider {\n        bytes32 id;\n        string name;\n        bytes32[] patients;\n    }\n    struct Insurer {\n        bytes32 id;\n        string name;\n        bytes32[] providers;\n    }\n    constructor() public {\n        preLoadInfo();\n    }\n    function preLoadInfo() public{\n        bytes32 insurerID = addInsurer(\"CMS\");\n        bytes32 providerID = addProvider(\"UCSD Medical\", insurerID);\n        addPatient(\"Ken\", providerID);\n        addPatient(\"Danny\", providerID);\n        addPatient(\"Antonio\", providerID);\n    }\n    // ------------------------------ Adds Users to Network --------------------------- //\n    /** @dev add a patient to the network\n    @param _name is the name of the patient\n    @param _providerID is the current provider of the patient\n    @return pID is a bytes32 represented id number for the patient\n    */\n    function addPatient(string memory _name, bytes32 _providerID) public returns(bytes32 pID) {\n        bytes32 id = keccak256(abi.encodePacked(_name));\n        address[] memory uServiceList;\n        address[] memory uClaimList;\n        address[] memory vClaimList;\n        Patient memory newPatient = Patient(id, _name, uServiceList, uClaimList, vClaimList);\n        //bytes32 patientHash = keccak256(abi.encodePacked(newPatient));\n        patientMap[id] = newPatient;\n        patientList.push(id);\n        providerMap[_providerID].patients.push(newPatient.id);\n        emit PatientCreated(id, _name);\n        return id;\n    }\n    function getPatients() public view returns(bytes32[] memory nice) {\n        return patientList;\n    }\n    /** @dev add a provider to the network\n    @param _name name of the provider\n    @param _insurerID id of insurance provider\n    @return the pID of the health provider -\n     */\n    function addProvider(string memory _name, bytes32 _insurerID) public returns(bytes32 pID) {\n        bytes32 id = keccak256(abi.encodePacked(_name));\n        bytes32[] memory emptyList;\n        Provider memory newProvider = Provider(id, _name, emptyList);\n        //bytes32 providerHash = keccak256(abi.encodePacked(newProvider));\n        providerMap[id] = newProvider;\n        insurerMap[_insurerID].providers.push(newProvider.id);\n        providerList.push(id);\n        emit ProviderCreated(id, _name);\n        return id;\n    }\n    function getProviders() public view returns(bytes32[] memory nice) {\n        return providerList;\n    }\n    /** @dev add an insurnace provider to the network\n    @param _name the name of the insurance provider\n    @return pID of the insurance provider\n    */\n    function addInsurer(string memory _name) public returns(bytes32 pID) {\n        bytes32 id = keccak256(abi.encodePacked(_name));\n        bytes32[] memory emptyList;\n        Insurer memory newInsurer = Insurer(id, _name, emptyList);\n        //bytes32 insurerHash = keccak256(abi.encodePacked(newInsurer));\n        insurerMap[id] = newInsurer;\n        insurerList.push(id);\n        emit InsurerCreated(id, _name);\n        return id;\n    }\n    function getInsurers() public view returns(bytes32[] memory nice) {\n        return insurerList;\n    }\n    // ------------------------------ Functionality of the Network --------------------------- //\n    /** @dev create an instance of a ServiceClaim contract\n    @param _name name of the service\n    @param _providerID provider ID\n    @param _patientID patient ID\n    @return serviceContractHash is the id of the ServiceClaim contract\n    */\n    function provideService(string memory _name, bytes32 _providerID, bytes32 _patientID) public returns(bytes32 serviceContractHash) {\n        bytes32 id = keccak256(abi.encodePacked(_name, _providerID, _patientID));\n        ServiceClaim serviceClaim = new ServiceClaim(_providerID, _patientID, id, _name);\n        bytes32 serviceClaimID = keccak256(abi.encodePacked(address(serviceClaim)));\n        SC memory scObj = SC(address(serviceClaim), serviceClaimID, globalInsurerID, _providerID, _patientID, _name, 0, false, false);\n        scs.push(scObj);\n        serviceClaimsMap[serviceClaimID] = address(serviceClaim);\n        Patient storage patient = patientMap[_patientID];\n        //patient.unverifiedClaims.push(address(serviceClaim));\n        //SC memory newSC = SC(_name, address(serviceClaim));\n        patient.unclaimedServices.push(address(serviceClaim));\n        serviceName[address(serviceClaim)] = _name;\n        SCMap[address(serviceClaim)] = _name;\n        SCList.push(address(serviceClaim));\n        emit SCID(serviceClaimID, address(serviceClaim));\n        return serviceClaimID;\n    }\n    /** @dev add a claim to a ServiceClaim contract i.e. the provider wants to file a claim for a service rendered\n    @param _serviceClaimID the ID of the ServiceClaim contract\n    @param _amount the amount to be claimed by the provider\n    @return ClaimID the ID of the claim\n    */\n    function fileClaim(bytes32 _serviceClaimID, uint256 _amount) public returns(uint256 ClaimID) {\n        //Patient storage cPatient = patientMap[_patient];\n        ServiceClaim myServiceClaim = ServiceClaim(serviceClaimsMap[_serviceClaimID]);\n        uint256 newClaimID = myServiceClaim.fileClaim(_amount);\n        bytes32 patID = myServiceClaim.patientID();\n        Patient storage cP = patientMap[patID];\n        for(uint i = 0; i < cP.unclaimedServices.length; i++){\n            if(cP.unclaimedServices[i] == address(myServiceClaim)){\n                delete(cP.unclaimedServices[i]);\n                break;\n            }\n        }\n        // string memory name = myServiceClaim.name();\n        //SC memory newSC = SC(name, address(myServiceClaim));\n        cP.unverifiedClaims.push(address(myServiceClaim));\n        emit ClaimCreated(newClaimID, _amount);\n        //emit SCEvent(newSC);\n        return newClaimID;\n    }\n \n    /** @dev invoke the verifyClaim function in the ServiceClaim contract\n    @param _serviceClaimID the id of the ServiceClaim contract\n    */\n    /** @dev invoke the verifyClaim function in the ServiceClaim contract\n    @param _serviceClaimAddress the address of the ServiceClaim contract\n    */\n    function verifyClaim(address _serviceClaimAddress) public {\n        ServiceClaim myServiceClaim = ServiceClaim(_serviceClaimAddress);\n        require(myServiceClaim.verifyClaim(), \"Claim was not Verified\");\n        // Add the claim address to verified list\n        // Delete the claim address from unverified list\n        bytes32 patID = myServiceClaim.patientID();\n        Patient storage cP = patientMap[patID];\n        for(uint i = 0; i < cP.unverifiedClaims.length; i++){\n            if(cP.unverifiedClaims[i] == address(myServiceClaim)){\n                delete(cP.unverifiedClaims[i]);\n                break;\n            }\n        }\n        //string memory name = myServiceClaim.name();\n        //SC memory newSC = SC(name, address(myServiceClaim));\n        cP.verifiedClaims.push(address(myServiceClaim));\n        emit ClaimVerified(_serviceClaimAddress);\n    }\n    /** @dev invoke the payProvider function in the ServiceClaim contract\n    @param _serviceClaimID the id of the ServiceClaim contract\n    */\n    function payProvider(bytes32 _serviceClaimID) public {\n        //require(_serviceClaim.claim().verified == true, \"User has not verified service\");\n        ServiceClaim myServiceClaim = ServiceClaim(serviceClaimsMap[_serviceClaimID]);\n        myServiceClaim.payProvider();\n    }\n    // ------------------------------ Getters of Network Data --------------------------- //\n    function patientsOfProvider(bytes32 _id) public returns (bytes32[] memory) {\n        Provider storage cP = providerMap[_id];\n        emit idList(cP.patients);\n        return(cP.patients);\n    }\n    function providersOfInsurer(bytes32 _id) public returns (bytes32[] memory) {\n        Insurer storage cI = insurerMap[_id];\n        emit idList(cI.providers);\n        return(cI.providers);\n    }\n    function getPatient(bytes32 _id) public returns (bool){\n        Patient memory patient = patientMap[_id];\n        emit PatientRetrieval(patient);\n        return true;\n    }\n    function getProvider(bytes32 _id) public returns (Provider memory){\n        Provider memory provider = providerMap[_id];\n        emit ProviderRetrieval(provider);\n        return providerMap[_id];\n    }\n    function patientUnclaimedServices(bytes32 _id) public returns (address[] memory){\n        Patient storage cP = patientMap[_id];\n        emit serviceList(cP.unclaimedServices);\n        for(uint i = 0; i < cP.unclaimedServices.length; i++){\n            emit SCName(SCMap[cP.unclaimedServices[i]]);\n        }\n        return(cP.unclaimedServices);\n        // address[] memory a;\n        // return a;\n    }\n    function patientUnverifiedClaims(bytes32 _id) public returns (address[] memory){\n        Patient storage cP = patientMap[_id];\n        //bytes32[] memory claimNames = new bytes32[](cP.unverifiedClaims.length);\n        for(uint i = 0; i < cP.unverifiedClaims.length; i++){\n            emit SCName(SCMap[cP.unverifiedClaims[i]]);\n        }\n        emit serviceList(cP.unverifiedClaims);\n        return(cP.unverifiedClaims);\n        // address[] memory a;\n        // return a;\n    }\n    function patientVerifiedClaims(bytes32 _id) public returns (address[] memory){\n        Patient storage cP = patientMap[_id];\n        emit serviceList(cP.verifiedClaims);\n        for(uint i = 0; i < cP.verifiedClaims.length; i++){\n            emit SCName(SCMap[cP.verifiedClaims[i]]);\n        }\n        return(cP.verifiedClaims);\n        // address[] memory a;\n        // return a;\n    }\n    function setAdmin(uint _num) public {\n        admin = _num;\n    }\n    function getAdmin() public view returns (uint) {\n        return admin;\n    }\n    //   event ServiceClaimInfo(address addr, bytes32 id, bytes32 provider, bytes32 patient, uint256 amount, bool verified, bool payed);\n    function getAllServices() public {\n        for (uint i = 0; i < SCList.length; i++) {\n            ServiceClaim sc = ServiceClaim(SCList[i]);\n            string memory patientname = patientMap[sc.patientID()].name;\n            string memory providername = providerMap[sc.providerID()].name;\n            emit ServiceClaimInfo(\n                address(sc), patientname, providername, sc.name(), sc.serviceClaimID(), sc.providerID(), sc.patientID(), sc.amount(), sc.verified(), sc.paid());\n        }\n    }\n    // function getAllVerifiedServices() public {\n    //     for (uint i = 0; i < SCList.length; i++) {\n    //         ServiceClaim sc = ServiceClaim(SCList[i]);\n    //         if (sc.verified() == true) {\n    //             emit ServiceClaimInfo(address(sc), sc.serviceClaimID(), sc.providerID(), sc.patientID(), sc.amount(), sc.verified(), sc.paid());\n    //         }\n    //     }\n    // }\n    // function getAllUnverifiedServices() public {\n    //     for (uint i = 0; i < SCList.length; i++) {\n    //         ServiceClaim sc = ServiceClaim(SCList[i]);\n    //         if (sc.verified() == false) {\n    //             emit ServiceClaimInfo(address(sc), sc.serviceClaimID(), sc.providerID(), sc.patientID(), sc.amount(), sc.verified(), sc.paid());\n    //         }\n    //     }\n    // }\n}\n",
  "sourcePath": "/Users/danny/sdsc-blocklab/Medicare-Claim-Verification/contracts/Organizations.sol",
  "compiler": {
    "name": "solc",
    "version": "0.5.11+commit.c082d0b4.Emscripten.clang"
  },
  "schemaVersion": "3.0.16",
  "updatedAt": "2019-09-17T22:42:06.770Z",
  "devdoc": {
    "methods": {
      "addInsurer(string)": {
        "details": "add an insurnace provider to the network",
        "params": {
          "_name": "the name of the insurance provider"
        },
        "return": "pID of the insurance provider"
      },
      "addPatient(string,bytes32)": {
        "details": "add a patient to the network",
        "params": {
          "_name": "is the name of the patient",
          "_providerID": "is the current provider of the patient"
        },
        "return": "pID is a bytes32 represented id number for the patient"
      },
      "addProvider(string,bytes32)": {
        "details": "add a provider to the network",
        "params": {
          "_insurerID": "id of insurance provider",
          "_name": "name of the provider"
        },
        "return": "the pID of the health provider -"
      },
      "fileClaim(bytes32,uint256)": {
        "details": "add a claim to a ServiceClaim contract i.e. the provider wants to file a claim for a service rendered",
        "params": {
          "_amount": "the amount to be claimed by the provider",
          "_serviceClaimID": "the ID of the ServiceClaim contract"
        },
        "return": "ClaimID the ID of the claim"
      },
      "payProvider(bytes32)": {
        "details": "invoke the payProvider function in the ServiceClaim contract",
        "params": {
          "_serviceClaimID": "the id of the ServiceClaim contract"
        }
      },
      "provideService(string,bytes32,bytes32)": {
        "details": "create an instance of a ServiceClaim contract",
        "params": {
          "_name": "name of the service",
          "_patientID": "patient ID",
          "_providerID": "provider ID"
        },
        "return": "serviceContractHash is the id of the ServiceClaim contract"
      },
      "verifyClaim(address)": {
        "details": "invoke the verifyClaim function in the ServiceClaim contract",
        "params": {
          "_serviceClaimAddress": "the address of the ServiceClaim contract"
        }
      }
    }
  },
  "userdoc": {
    "methods": {}
  }
}