{
  "contractName": "Organizations",
  "abi": [
    {
      "anonymous": false,
      "inputs": [
        {
          "indexed": false,
          "name": "ID",
          "type": "bytes32"
        },
        {
          "indexed": false,
          "name": "addr",
          "type": "address"
        }
      ],
      "name": "SCID",
      "type": "event"
    },
    {
      "anonymous": false,
      "inputs": [
        {
          "indexed": false,
          "name": "id",
          "type": "uint256"
        },
        {
          "indexed": false,
          "name": "amount",
          "type": "uint256"
        }
      ],
      "name": "ClaimCreated",
      "type": "event"
    },
    {
      "anonymous": false,
      "inputs": [
        {
          "indexed": false,
          "name": "id",
          "type": "bytes32"
        },
        {
          "indexed": false,
          "name": "name",
          "type": "string"
        }
      ],
      "name": "PatientCreated",
      "type": "event"
    },
    {
      "anonymous": false,
      "inputs": [
        {
          "indexed": false,
          "name": "id",
          "type": "bytes32"
        },
        {
          "indexed": false,
          "name": "name",
          "type": "string"
        }
      ],
      "name": "ProviderCreated",
      "type": "event"
    },
    {
      "anonymous": false,
      "inputs": [
        {
          "indexed": false,
          "name": "id",
          "type": "bytes32"
        },
        {
          "indexed": false,
          "name": "name",
          "type": "string"
        }
      ],
      "name": "InsurerCreated",
      "type": "event"
    },
    {
      "constant": false,
      "inputs": [
        {
          "name": "_name",
          "type": "string"
        },
        {
          "name": "_providerID",
          "type": "bytes32"
        }
      ],
      "name": "addPatient",
      "outputs": [
        {
          "name": "pID",
          "type": "bytes32"
        }
      ],
      "payable": false,
      "stateMutability": "nonpayable",
      "type": "function"
    },
    {
      "constant": false,
      "inputs": [
        {
          "name": "_name",
          "type": "string"
        },
        {
          "name": "_insurerID",
          "type": "bytes32"
        }
      ],
      "name": "addProvider",
      "outputs": [
        {
          "name": "pID",
          "type": "bytes32"
        }
      ],
      "payable": false,
      "stateMutability": "nonpayable",
      "type": "function"
    },
    {
      "constant": false,
      "inputs": [
        {
          "name": "_name",
          "type": "string"
        }
      ],
      "name": "addInsurer",
      "outputs": [
        {
          "name": "pID",
          "type": "bytes32"
        }
      ],
      "payable": false,
      "stateMutability": "nonpayable",
      "type": "function"
    },
    {
      "constant": false,
      "inputs": [
        {
          "name": "_name",
          "type": "string"
        },
        {
          "name": "_providerID",
          "type": "bytes32"
        },
        {
          "name": "_patientID",
          "type": "bytes32"
        }
      ],
      "name": "newServiceClaim",
      "outputs": [
        {
          "name": "serviceContractHash",
          "type": "bytes32"
        }
      ],
      "payable": false,
      "stateMutability": "nonpayable",
      "type": "function"
    },
    {
      "constant": false,
      "inputs": [
        {
          "name": "_serviceClaimID",
          "type": "bytes32"
        },
        {
          "name": "_amount",
          "type": "uint256"
        }
      ],
      "name": "addClaim",
      "outputs": [
        {
          "name": "ClaimID",
          "type": "uint256"
        }
      ],
      "payable": false,
      "stateMutability": "nonpayable",
      "type": "function"
    },
    {
      "constant": false,
      "inputs": [
        {
          "name": "_serviceClaimID",
          "type": "bytes32"
        }
      ],
      "name": "verifyClaim",
      "outputs": [],
      "payable": false,
      "stateMutability": "nonpayable",
      "type": "function"
    }
  ],
  "bytecode": "0x608060405234801561001057600080fd5b50611050806100206000396000f3fe608060405234801561001057600080fd5b50600436106100625760003560e01c806301f92fc91461006757806335b735101461009c5780633e7e072e146100bb578063740044b414610161578063d23c7c5d14610207578063dd238925146102b0575b600080fd5b61008a6004803603604081101561007d57600080fd5b5080359060200135610354565b60408051918252519081900360200190f35b6100b9600480360360208110156100b257600080fd5b5035610421565b005b61008a600480360360408110156100d157600080fd5b810190602081018135600160201b8111156100eb57600080fd5b8201836020820111156100fd57600080fd5b803590602001918460018302840111600160201b8311171561011e57600080fd5b91908080601f01602080910402602001604051908101604052809392919081815260200183838082843760009201919091525092955050913592506104f7915050565b61008a6004803603604081101561017757600080fd5b810190602081018135600160201b81111561019157600080fd5b8201836020820111156101a357600080fd5b803590602001918460018302840111600160201b831117156101c457600080fd5b91908080601f01602080910402602001604051908101604052809392919081815260200183838082843760009201919091525092955050913592506106ad915050565b61008a6004803603606081101561021d57600080fd5b810190602081018135600160201b81111561023757600080fd5b82018360208201111561024957600080fd5b803590602001918460018302840111600160201b8311171561026a57600080fd5b91908080601f016020809104026020016040519081016040528093929190818152602001838380828437600092019190915250929550508235935050506020013561081b565b61008a600480360360208110156102c657600080fd5b810190602081018135600160201b8111156102e057600080fd5b8201836020820111156102f257600080fd5b803590602001918460018302840111600160201b8311171561031357600080fd5b91908080601f016020809104026020016040519081016040528093929190818152602001838380828437600092019190915250929550610a24945050505050565b6000828152600560209081526040808320548151633a2e12fb60e11b81526004810186905291516001600160a01b03909116928492849263745c25f69260248084019391929182900301818787803b1580156103af57600080fd5b505af11580156103c3573d6000803e3d6000fd5b505050506040513d60208110156103d957600080fd5b5051604080518281526020810187905281519293507f96e3875898071e5d91932eb150a3914f9fe70e473f6faeaad697e99a48937c9c929081900390910190a1949350505050565b600081815260056020908152604080832054815163844cdf0960e01b815291516001600160a01b0390911693849363844cdf09936004808201949293918390030190829087803b15801561047457600080fd5b505af1158015610488573d6000803e3d6000fd5b505050506040513d602081101561049e57600080fd5b50516104ea576040805162461bcd60e51b815260206004820152601660248201527510db185a5b481dd85cc81b9bdd081d995c9a599a595960521b604482015290519081900360640190fd5b6104f381610bb3565b5050565b600080836040516020018082805190602001908083835b6020831061052d5780518252601f19909201916020918201910161050e565b6001836020036101000a0380198251168184511680821785525050505050509050019150506040516020818303038152906040528051906020012090506060610574610c1d565b506040805160608101825283815260208082018881528284018590526000868152600383529390932082518155925180519293849390926105bc926001850192910190610c41565b50604082015180516105d8916002840191602090910190610cbf565b5050506000858152600460209081526040808320845160029091018054600181018255908552838520015580518681528083018281528a519282019290925289517f7dd222c7de5c7ba42d121aa7e2acc9d5d4a47c2eb31f55385cf51cbe459c5c9b9488948c94926060850192918601918190849084905b83811015610668578181015183820152602001610650565b50505050905090810190601f1680156106955780820380516001836020036101000a031916815260200191505b50935050505060405180910390a15090949350505050565b600080836040516020018082805190602001908083835b602083106106e35780518252601f1990920191602091820191016106c4565b6001836020036101000a038019825116818451168082178552505050505050905001915050604051602081830303815290604052805190602001209050606061072a610c1d565b50604080516060810182528381526020808201888152828401859052600086815260028352939093208251815592518051929384939092610772926001850192910190610c41565b506040820151805161078e916002840191602090910190610cf9565b5050506000858152600360209081526040808320845160029091018054600181018255908552838520015580518681528083018281528a519282019290925289517f86ec8adc6f97da0327b3e1dcc24fa25aea5eb7afcf6af08792e4b2d4d799fad89488948c94926060850192918601918190849084908315610668578181015183820152602001610650565b6000808484846040516020018084805190602001908083835b602083106108535780518252601f199092019160209182019101610834565b6001836020036101000a03801982511681845116808217855250505050505090500183815260200182815260200193505050506040516020818303038152906040528051906020012090506000848483886040516108b090610d5a565b8085815260200184815260200183815260200180602001828103825283818151815260200191508051906020019080838360005b838110156108fc5781810151838201526020016108e4565b50505050905090810190601f1680156109295780820380516001836020036101000a031916815260200191505b5095505050505050604051809103906000f08015801561094d573d6000803e3d6000fd5b50604080516bffffffffffffffffffffffff19606084901b16602080830191909152825180830360140181526034830180855281519183019190912060008181526005845285812080546001600160a01b03199081166001600160a01b038a169081179092558c83526002808752888420908101805460018101825590855296909320909501805490951681179094559181905260548401929092529251939450927f2cdb195d7226065901c0e37d742237ac3e30d6dc0ce7faf49701f6ec9f0bd1ed9181900360740190a1509695505050505050565b600080826040516020018082805190602001908083835b60208310610a5a5780518252601f199092019160209182019101610a3b565b6001836020036101000a0380198251168184511680821785525050505050509050019150506040516020818303038152906040528051906020012090506060610aa1610c1d565b50604080516060810182528381526020808201878152828401859052600086815260048352939093208251815592518051929384939092610ae9926001850192910190610c41565b5060408201518051610b05916002840191602090910190610cbf565b509050507ff73cee28a98c20f23a903356ab57dc8c514e66b0488c994b09dec06f978c839b83866040518083815260200180602001828103825283818151815260200191508051906020019080838360005b83811015610b6f578181015183820152602001610b57565b50505050905090810190601f168015610b9c5780820380516001836020036101000a031916815260200191505b50935050505060405180910390a150909392505050565b806001600160a01b03166398d6a3736040518163ffffffff1660e01b8152600401602060405180830381600087803b158015610bee57600080fd5b505af1158015610c02573d6000803e3d6000fd5b505050506040513d6020811015610c1857600080fd5b505050565b60405180606001604052806000801916815260200160608152602001606081525090565b828054600181600116156101000203166002900490600052602060002090601f016020900481019282601f10610c8257805160ff1916838001178555610caf565b82800160010185558215610caf579182015b82811115610caf578251825591602001919060010190610c94565b50610cbb929150610d67565b5090565b828054828255906000526020600020908101928215610caf5791602002820182811115610caf578251825591602001919060010190610c94565b828054828255906000526020600020908101928215610d4e579160200282015b82811115610d4e57825182546001600160a01b0319166001600160a01b03909116178255602090920191600190910190610d19565b50610cbb929150610d84565b61027380610da983390190565b610d8191905b80821115610cbb5760008155600101610d6d565b90565b610d8191905b80821115610cbb5780546001600160a01b0319168155600101610d8a56fe608060405234801561001057600080fd5b506040516102733803806102738339818101604052608081101561003357600080fd5b815160208301516040840151606085018051939592949193918301929164010000000081111561006257600080fd5b8201602081018481111561007557600080fd5b815164010000000081118282018710171561008f57600080fd5b505060018790556002869055600385905580519093506100b892506004915060208401906100c2565b505050505061015d565b828054600181600116156101000203166002900490600052602060002090601f016020900481019282601f1061010357805160ff1916838001178555610130565b82800160010185558215610130579182015b82811115610130578251825591602001919060010190610115565b5061013c929150610140565b5090565b61015a91905b8082111561013c5760008155600101610146565b90565b6101078061016c6000396000f3fe6080604052348015600f57600080fd5b506004361060465760003560e01c8063745c25f614604b578063844cdf0914607757806398d6a373146091578063d321fe29146097575b600080fd5b606560048036036020811015605f57600080fd5b5035609d565b60408051918252519081900360200190f35b607d60a5565b604080519115158252519081900360200190f35b607d60b8565b606560cc565b600581905590565b6006805460ff1916600190811790915590565b6006805461ff001916610100179055600190565b6005549056fea265627a7a723058200b8cdf68fb2e55e127abd2925d80e0cc8ffb7714a158067a0bca73be7449b62464736f6c634300050a0032a265627a7a72305820a3351144ac676a5300c248566d230c3e6149ff9468130f4c56d1e1ecbc5e84ad64736f6c634300050a0032",
  "source": "pragma solidity ^0.5.0;\n\nimport \"./SafeMath.sol\";\nimport \"./ServiceClaim.sol\";\n\ncontract Organizations {\n\n    uint256 claimId; //Max value of the number of claims made\n    uint storedData; //Miscellaneous data\n\n    mapping (bytes32=>Patient) patientMap; //ID of patient to specific provider -\n    mapping (bytes32=>Provider) providerMap; //ID of provider to specific provider -\n    mapping (bytes32=>Insurer) insurerMap; //ID of insurance provider to specific insurer\n    mapping (bytes32=>address) serviceClaimsMap; //ID of serviceClaim to the specific ServiceClaim contract instance\n\n    //Events for organization creation    event ServiceCreated(address serviceClaimAddr);\n    event SCID(bytes32 ID, address addr);\n    event ClaimCreated(uint256 id, uint256 amount);\n    event PatientCreated(bytes32 id, string name);\n    event ProviderCreated(bytes32 id, string name);\n    event InsurerCreated(bytes32 id, string name);\n\n    struct Patient {\n        bytes32 id;\n        string name;\n        address[] serviceClaimsList;\n    }\n\n    struct Provider {\n        bytes32 id;\n        string name;\n        bytes32[] patients;\n    }\n\n    struct Insurer {\n        bytes32 id;\n        string name;\n        bytes32[] providers;\n    }\n\n    // ------------------------------ Adds Users to Network --------------------------- //\n\n    /** @dev add a patient to the network\n    @param _name is the name of the patient\n    @param _providerID is the current provider of the patient\n    @return pID is a bytes32 represented id number for the patient\n    */\n    function addPatient(string memory _name, bytes32 _providerID) public returns(bytes32 pID) {\n        bytes32 id = keccak256(abi.encodePacked(_name));\n        address[] memory claimList;\n        Patient memory newPatient = Patient(id, _name, claimList);\n        //bytes32 patientHash = keccak256(abi.encodePacked(newPatient));\n        patientMap[id] = newPatient;\n        providerMap[_providerID].patients.push(newPatient.id);\n        emit PatientCreated(id, _name);\n        return id;\n    }\n\n    /** @dev add a provider to the network\n    @param _name name of the provider\n    @param _insurerID id of insurance provider\n    @return the pID of the health provider -\n     */\n    function addProvider(string memory _name, bytes32 _insurerID) public returns(bytes32 pID) {\n        bytes32 id = keccak256(abi.encodePacked(_name));\n        bytes32[] memory emptyList;\n        Provider memory newProvider = Provider(id, _name, emptyList);\n        //bytes32 providerHash = keccak256(abi.encodePacked(newProvider));\n        providerMap[id] = newProvider;\n        insurerMap[_insurerID].providers.push(newProvider.id);\n        emit ProviderCreated(id, _name);\n        return id;\n    }\n\n    /** @dev add an insurnace provider to the network\n    @param _name the name of the insurance provider\n    @return the pID of the insurance provider\n    */\n    function addInsurer(string memory _name) public returns(bytes32 pID) {\n        bytes32 id = keccak256(abi.encodePacked(_name));\n        bytes32[] memory emptyList;\n        Insurer memory newInsurer = Insurer(id, _name, emptyList);\n        //bytes32 insurerHash = keccak256(abi.encodePacked(newInsurer));\n        insurerMap[id] = newInsurer;\n        emit InsurerCreated(id, _name);\n        return id;\n    }\n\n    // ------------------------------ Functionality of the Network --------------------------- //\n\n    /** @dev create an instance of a ServiceClaim contract\nC    @param _name name of the service\n    @param _providerID provider ID\n    @param _patientID patient ID\n    @return serviceContractHash is the id of the ServiceClaim contract\n    */\n    function newServiceClaim(string memory _name, bytes32 _providerID, bytes32 _patientID) public returns(bytes32 serviceContractHash) {\n        bytes32 id = keccak256(abi.encodePacked(_name, _providerID, _patientID));\n        ServiceClaim serviceClaim = new ServiceClaim(_providerID, _patientID, id, _name);\n        bytes32 serviceClaimID = keccak256(abi.encodePacked(address(serviceClaim)));\n        serviceClaimsMap[serviceClaimID] = address(serviceClaim);\n        Patient storage patient = patientMap[_patientID];\n        patient.serviceClaimsList.push(address(serviceClaim));\n        emit SCID(serviceClaimID, address(serviceClaim));\n        return serviceClaimID;\n    }\n\n    /** @dev add a claim to a ServiceClaim contract i.e. the provider wants to file a claim for a service rendered\n    @param _serviceClaimID the ID of the ServiceClaim contract\n    @param _amount the amount to be claimed by the provider\n    @return ClaimID the ID of the claim\n    */\n    function addClaim(bytes32 _serviceClaimID, uint256 _amount) public returns(uint256 ClaimID) {\n        //Patient storage cPatient = patientMap[_patient];\n        ServiceClaim myServiceClaim = ServiceClaim(serviceClaimsMap[_serviceClaimID]);\n        uint256 newClaimID = myServiceClaim.addClaim(_amount);\n        emit ClaimCreated(newClaimID, _amount);\n        return newClaimID;\n    }\n\n    \n    /** @dev invoke the verifyClaim function in the ServiceClaim contract\n    @param _serviceClaimID the id of the ServiceClaim contract\n    */\n    function verifyClaim(bytes32 _serviceClaimID) public {\n        ServiceClaim myServiceClaim = ServiceClaim(serviceClaimsMap[_serviceClaimID]);\n        require(myServiceClaim.verifyClaim(), \"Claim was not verified\");\n        payProvider(myServiceClaim);\n    }\n\n    /** @dev invoke the payProvider function in the ServiceClaim contract, may only be called from within Organizations.sol\n    @param _serviceClaim an instance of the ServiceClaim contract\n    */\n    function payProvider(ServiceClaim _serviceClaim) internal {\n        //require(_serviceClaim.claim().verified == true, \"User has not verified service\");\n        _serviceClaim.payProvider();\n    }\n    \n}",
  "sourcePath": "/Users/mantonio/Documents/TheLaboratory/Classified/SDSC/Medicare-Claim-Verification/contracts/Organizations.sol",
  "compiler": {
    "name": "solc",
    "version": "0.5.10+commit.5a6ea5b1.Emscripten.clang"
  },
  "schemaVersion": "3.0.11",
  "updatedAt": "2019-07-25T23:35:44.481Z",
  "devdoc": {
    "methods": {
      "addClaim(bytes32,uint256)": {
        "details": "add a claim to a ServiceClaim contract i.e. the provider wants to file a claim for a service rendered",
        "params": {
          "_amount": "the amount to be claimed by the provider",
          "_serviceClaimID": "the ID of the ServiceClaim contract"
        },
        "return": "ClaimID the ID of the claim"
      },
      "addInsurer(string)": {
        "details": "add an insurnace provider to the network",
        "params": {
          "_name": "the name of the insurance provider"
        },
        "return": "the pID of the insurance provider"
      },
      "addPatient(string,bytes32)": {
        "details": "add a patient to the network",
        "params": {
          "_name": "is the name of the patient",
          "_providerID": "is the current provider of the patient"
        },
        "return": "pID is a bytes32 represented id number for the patient"
      },
      "addProvider(string,bytes32)": {
        "details": "add a provider to the network",
        "params": {
          "_insurerID": "id of insurance provider",
          "_name": "name of the provider"
        },
        "return": "the pID of the health provider -"
      },
      "newServiceClaim(string,bytes32,bytes32)": {
        "details": "create an instance of a ServiceClaim contract",
        "params": {
          "_name": "name of the service",
          "_patientID": "patient ID",
          "_providerID": "provider ID"
        },
        "return": "serviceContractHash is the id of the ServiceClaim contract"
      },
      "verifyClaim(bytes32)": {
        "details": "invoke the verifyClaim function in the ServiceClaim contract",
        "params": {
          "_serviceClaimID": "the id of the ServiceClaim contract"
        }
      }
    }
  },
  "userdoc": {
    "methods": {}
  }
}