{
  "contractName": "Organizations",
  "abi": [
    {
      "constant": true,
      "inputs": [
        {
          "internalType": "bytes32",
          "name": "",
          "type": "bytes32"
        }
      ],
      "name": "serviceClaimsMap",
      "outputs": [
        {
          "internalType": "address",
          "name": "",
          "type": "address"
        }
      ],
      "payable": false,
      "stateMutability": "view",
      "type": "function"
    },
    {
      "constant": true,
      "inputs": [
        {
          "internalType": "bytes32",
          "name": "",
          "type": "bytes32"
        }
      ],
      "name": "providerMap",
      "outputs": [
        {
          "internalType": "bytes32",
          "name": "id",
          "type": "bytes32"
        },
        {
          "internalType": "string",
          "name": "name",
          "type": "string"
        }
      ],
      "payable": false,
      "stateMutability": "view",
      "type": "function"
    },
    {
      "constant": true,
      "inputs": [
        {
          "internalType": "address",
          "name": "",
          "type": "address"
        }
      ],
      "name": "serviceName",
      "outputs": [
        {
          "internalType": "string",
          "name": "",
          "type": "string"
        }
      ],
      "payable": false,
      "stateMutability": "view",
      "type": "function"
    },
    {
      "constant": true,
      "inputs": [
        {
          "internalType": "bytes32",
          "name": "",
          "type": "bytes32"
        }
      ],
      "name": "insurerMap",
      "outputs": [
        {
          "internalType": "bytes32",
          "name": "id",
          "type": "bytes32"
        },
        {
          "internalType": "string",
          "name": "name",
          "type": "string"
        }
      ],
      "payable": false,
      "stateMutability": "view",
      "type": "function"
    },
    {
      "constant": true,
      "inputs": [
        {
          "internalType": "bytes32",
          "name": "",
          "type": "bytes32"
        }
      ],
      "name": "patientMap",
      "outputs": [
        {
          "internalType": "bytes32",
          "name": "id",
          "type": "bytes32"
        },
        {
          "internalType": "string",
          "name": "name",
          "type": "string"
        }
      ],
      "payable": false,
      "stateMutability": "view",
      "type": "function"
    },
    {
      "inputs": [],
      "payable": false,
      "stateMutability": "nonpayable",
      "type": "constructor"
    },
    {
      "anonymous": false,
      "inputs": [
        {
          "indexed": false,
          "internalType": "bytes32",
          "name": "ID",
          "type": "bytes32"
        },
        {
          "indexed": false,
          "internalType": "address",
          "name": "addr",
          "type": "address"
        }
      ],
      "name": "SCID",
      "type": "event"
    },
    {
      "anonymous": false,
      "inputs": [
        {
          "indexed": false,
          "internalType": "uint256",
          "name": "id",
          "type": "uint256"
        },
        {
          "indexed": false,
          "internalType": "uint256",
          "name": "amount",
          "type": "uint256"
        }
      ],
      "name": "ClaimCreated",
      "type": "event"
    },
    {
      "anonymous": false,
      "inputs": [
        {
          "indexed": false,
          "internalType": "address",
          "name": "addr",
          "type": "address"
        }
      ],
      "name": "ClaimVerified",
      "type": "event"
    },
    {
      "anonymous": false,
      "inputs": [
        {
          "indexed": false,
          "internalType": "bytes32",
          "name": "id",
          "type": "bytes32"
        },
        {
          "indexed": false,
          "internalType": "string",
          "name": "name",
          "type": "string"
        }
      ],
      "name": "PatientCreated",
      "type": "event"
    },
    {
      "anonymous": false,
      "inputs": [
        {
          "indexed": false,
          "internalType": "bytes32",
          "name": "id",
          "type": "bytes32"
        },
        {
          "indexed": false,
          "internalType": "string",
          "name": "name",
          "type": "string"
        }
      ],
      "name": "ProviderCreated",
      "type": "event"
    },
    {
      "anonymous": false,
      "inputs": [
        {
          "indexed": false,
          "internalType": "bytes32",
          "name": "id",
          "type": "bytes32"
        },
        {
          "indexed": false,
          "internalType": "string",
          "name": "name",
          "type": "string"
        }
      ],
      "name": "InsurerCreated",
      "type": "event"
    },
    {
      "anonymous": false,
      "inputs": [
        {
          "components": [
            {
              "internalType": "bytes32",
              "name": "id",
              "type": "bytes32"
            },
            {
              "internalType": "string",
              "name": "name",
              "type": "string"
            },
            {
              "internalType": "address[]",
              "name": "unclaimedServices",
              "type": "address[]"
            },
            {
              "internalType": "address[]",
              "name": "unverifiedClaims",
              "type": "address[]"
            },
            {
              "internalType": "address[]",
              "name": "verifiedClaims",
              "type": "address[]"
            }
          ],
          "indexed": false,
          "internalType": "struct Organizations.Patient",
          "name": "patient",
          "type": "tuple"
        }
      ],
      "name": "PatientRetrieval",
      "type": "event"
    },
    {
      "anonymous": false,
      "inputs": [
        {
          "components": [
            {
              "internalType": "bytes32",
              "name": "id",
              "type": "bytes32"
            },
            {
              "internalType": "string",
              "name": "name",
              "type": "string"
            },
            {
              "internalType": "bytes32[]",
              "name": "patients",
              "type": "bytes32[]"
            }
          ],
          "indexed": false,
          "internalType": "struct Organizations.Provider",
          "name": "provider",
          "type": "tuple"
        }
      ],
      "name": "ProviderRetrieval",
      "type": "event"
    },
    {
      "anonymous": false,
      "inputs": [
        {
          "indexed": false,
          "internalType": "address",
          "name": "addr",
          "type": "address"
        },
        {
          "indexed": false,
          "internalType": "string",
          "name": "patientname",
          "type": "string"
        },
        {
          "indexed": false,
          "internalType": "string",
          "name": "providername",
          "type": "string"
        },
        {
          "indexed": false,
          "internalType": "string",
          "name": "claimname",
          "type": "string"
        },
        {
          "indexed": false,
          "internalType": "bytes32",
          "name": "id",
          "type": "bytes32"
        },
        {
          "indexed": false,
          "internalType": "bytes32",
          "name": "provider",
          "type": "bytes32"
        },
        {
          "indexed": false,
          "internalType": "bytes32",
          "name": "patient",
          "type": "bytes32"
        },
        {
          "indexed": false,
          "internalType": "uint256",
          "name": "amount",
          "type": "uint256"
        },
        {
          "indexed": false,
          "internalType": "bool",
          "name": "payed",
          "type": "bool"
        },
        {
          "indexed": false,
          "internalType": "uint256",
          "name": "timeProvided",
          "type": "uint256"
        },
        {
          "indexed": false,
          "internalType": "uint256",
          "name": "timeFiled",
          "type": "uint256"
        },
        {
          "indexed": false,
          "internalType": "uint256",
          "name": "timeVerified",
          "type": "uint256"
        }
      ],
      "name": "ServiceClaimInfo",
      "type": "event"
    },
    {
      "anonymous": false,
      "inputs": [
        {
          "indexed": false,
          "internalType": "bytes32[]",
          "name": "ids",
          "type": "bytes32[]"
        }
      ],
      "name": "idList",
      "type": "event"
    },
    {
      "anonymous": false,
      "inputs": [
        {
          "indexed": false,
          "internalType": "address[]",
          "name": "services",
          "type": "address[]"
        }
      ],
      "name": "serviceList",
      "type": "event"
    },
    {
      "anonymous": false,
      "inputs": [
        {
          "indexed": false,
          "internalType": "string",
          "name": "name",
          "type": "string"
        }
      ],
      "name": "SCName",
      "type": "event"
    },
    {
      "anonymous": false,
      "inputs": [
        {
          "components": [
            {
              "internalType": "address",
              "name": "scAddr",
              "type": "address"
            },
            {
              "internalType": "bytes32",
              "name": "id",
              "type": "bytes32"
            },
            {
              "internalType": "bytes32",
              "name": "insurerID",
              "type": "bytes32"
            },
            {
              "internalType": "bytes32",
              "name": "providerID",
              "type": "bytes32"
            },
            {
              "internalType": "bytes32",
              "name": "patientID",
              "type": "bytes32"
            },
            {
              "internalType": "string",
              "name": "name",
              "type": "string"
            },
            {
              "internalType": "uint256",
              "name": "amount",
              "type": "uint256"
            },
            {
              "internalType": "bool",
              "name": "verified",
              "type": "bool"
            },
            {
              "internalType": "bool",
              "name": "paid",
              "type": "bool"
            }
          ],
          "indexed": false,
          "internalType": "struct Organizations.SC",
          "name": "",
          "type": "tuple"
        }
      ],
      "name": "SCEvent",
      "type": "event"
    },
    {
      "constant": false,
      "inputs": [],
      "name": "preLoadInfo",
      "outputs": [],
      "payable": false,
      "stateMutability": "nonpayable",
      "type": "function"
    },
    {
      "constant": false,
      "inputs": [
        {
          "internalType": "string",
          "name": "_name",
          "type": "string"
        },
        {
          "internalType": "bytes32",
          "name": "_providerID",
          "type": "bytes32"
        }
      ],
      "name": "addPatient",
      "outputs": [
        {
          "internalType": "bytes32",
          "name": "pID",
          "type": "bytes32"
        }
      ],
      "payable": false,
      "stateMutability": "nonpayable",
      "type": "function"
    },
    {
      "constant": true,
      "inputs": [],
      "name": "getPatients",
      "outputs": [
        {
          "internalType": "bytes32[]",
          "name": "nice",
          "type": "bytes32[]"
        }
      ],
      "payable": false,
      "stateMutability": "view",
      "type": "function"
    },
    {
      "constant": false,
      "inputs": [
        {
          "internalType": "string",
          "name": "_name",
          "type": "string"
        },
        {
          "internalType": "bytes32",
          "name": "_insurerID",
          "type": "bytes32"
        }
      ],
      "name": "addProvider",
      "outputs": [
        {
          "internalType": "bytes32",
          "name": "pID",
          "type": "bytes32"
        }
      ],
      "payable": false,
      "stateMutability": "nonpayable",
      "type": "function"
    },
    {
      "constant": true,
      "inputs": [],
      "name": "getProviders",
      "outputs": [
        {
          "internalType": "bytes32[]",
          "name": "nice",
          "type": "bytes32[]"
        }
      ],
      "payable": false,
      "stateMutability": "view",
      "type": "function"
    },
    {
      "constant": false,
      "inputs": [
        {
          "internalType": "string",
          "name": "_name",
          "type": "string"
        }
      ],
      "name": "addInsurer",
      "outputs": [
        {
          "internalType": "bytes32",
          "name": "pID",
          "type": "bytes32"
        }
      ],
      "payable": false,
      "stateMutability": "nonpayable",
      "type": "function"
    },
    {
      "constant": true,
      "inputs": [],
      "name": "getInsurers",
      "outputs": [
        {
          "internalType": "bytes32[]",
          "name": "nice",
          "type": "bytes32[]"
        }
      ],
      "payable": false,
      "stateMutability": "view",
      "type": "function"
    },
    {
      "constant": false,
      "inputs": [
        {
          "internalType": "string",
          "name": "_name",
          "type": "string"
        },
        {
          "internalType": "bytes32",
          "name": "_providerID",
          "type": "bytes32"
        },
        {
          "internalType": "bytes32",
          "name": "_patientID",
          "type": "bytes32"
        },
        {
          "internalType": "uint256",
          "name": "_timeProvided",
          "type": "uint256"
        }
      ],
      "name": "provideService",
      "outputs": [
        {
          "internalType": "bytes32",
          "name": "serviceContractHash",
          "type": "bytes32"
        }
      ],
      "payable": false,
      "stateMutability": "nonpayable",
      "type": "function"
    },
    {
      "constant": false,
      "inputs": [
        {
          "internalType": "bytes32",
          "name": "_serviceClaimID",
          "type": "bytes32"
        },
        {
          "internalType": "uint256",
          "name": "_amount",
          "type": "uint256"
        },
        {
          "internalType": "uint256",
          "name": "_timeProvided",
          "type": "uint256"
        }
      ],
      "name": "fileClaim",
      "outputs": [
        {
          "internalType": "uint256",
          "name": "ClaimID",
          "type": "uint256"
        }
      ],
      "payable": false,
      "stateMutability": "nonpayable",
      "type": "function"
    },
    {
      "constant": false,
      "inputs": [
        {
          "internalType": "address",
          "name": "_serviceClaimAddress",
          "type": "address"
        },
        {
          "internalType": "uint256",
          "name": "_timeVerified",
          "type": "uint256"
        }
      ],
      "name": "verifyClaim",
      "outputs": [],
      "payable": false,
      "stateMutability": "nonpayable",
      "type": "function"
    },
    {
      "constant": false,
      "inputs": [
        {
          "internalType": "bytes32",
          "name": "_serviceClaimID",
          "type": "bytes32"
        }
      ],
      "name": "payProvider",
      "outputs": [],
      "payable": false,
      "stateMutability": "nonpayable",
      "type": "function"
    },
    {
      "constant": false,
      "inputs": [
        {
          "internalType": "bytes32",
          "name": "_id",
          "type": "bytes32"
        }
      ],
      "name": "patientsOfProvider",
      "outputs": [
        {
          "internalType": "bytes32[]",
          "name": "",
          "type": "bytes32[]"
        }
      ],
      "payable": false,
      "stateMutability": "nonpayable",
      "type": "function"
    },
    {
      "constant": false,
      "inputs": [
        {
          "internalType": "bytes32",
          "name": "_id",
          "type": "bytes32"
        }
      ],
      "name": "providersOfInsurer",
      "outputs": [
        {
          "internalType": "bytes32[]",
          "name": "",
          "type": "bytes32[]"
        }
      ],
      "payable": false,
      "stateMutability": "nonpayable",
      "type": "function"
    },
    {
      "constant": false,
      "inputs": [
        {
          "internalType": "bytes32",
          "name": "_id",
          "type": "bytes32"
        }
      ],
      "name": "getPatient",
      "outputs": [
        {
          "internalType": "bool",
          "name": "",
          "type": "bool"
        }
      ],
      "payable": false,
      "stateMutability": "nonpayable",
      "type": "function"
    },
    {
      "constant": false,
      "inputs": [
        {
          "internalType": "bytes32",
          "name": "_id",
          "type": "bytes32"
        }
      ],
      "name": "getProvider",
      "outputs": [
        {
          "components": [
            {
              "internalType": "bytes32",
              "name": "id",
              "type": "bytes32"
            },
            {
              "internalType": "string",
              "name": "name",
              "type": "string"
            },
            {
              "internalType": "bytes32[]",
              "name": "patients",
              "type": "bytes32[]"
            }
          ],
          "internalType": "struct Organizations.Provider",
          "name": "",
          "type": "tuple"
        }
      ],
      "payable": false,
      "stateMutability": "nonpayable",
      "type": "function"
    },
    {
      "constant": false,
      "inputs": [
        {
          "internalType": "bytes32",
          "name": "_id",
          "type": "bytes32"
        }
      ],
      "name": "patientUnclaimedServices",
      "outputs": [
        {
          "internalType": "address[]",
          "name": "",
          "type": "address[]"
        }
      ],
      "payable": false,
      "stateMutability": "nonpayable",
      "type": "function"
    },
    {
      "constant": false,
      "inputs": [
        {
          "internalType": "bytes32",
          "name": "_id",
          "type": "bytes32"
        }
      ],
      "name": "patientUnverifiedClaims",
      "outputs": [
        {
          "internalType": "address[]",
          "name": "",
          "type": "address[]"
        }
      ],
      "payable": false,
      "stateMutability": "nonpayable",
      "type": "function"
    },
    {
      "constant": false,
      "inputs": [
        {
          "internalType": "bytes32",
          "name": "_id",
          "type": "bytes32"
        }
      ],
      "name": "patientVerifiedClaims",
      "outputs": [
        {
          "internalType": "address[]",
          "name": "",
          "type": "address[]"
        }
      ],
      "payable": false,
      "stateMutability": "nonpayable",
      "type": "function"
    },
    {
      "constant": false,
      "inputs": [
        {
          "internalType": "uint256",
          "name": "_num",
          "type": "uint256"
        }
      ],
      "name": "setAdmin",
      "outputs": [],
      "payable": false,
      "stateMutability": "nonpayable",
      "type": "function"
    },
    {
      "constant": true,
      "inputs": [],
      "name": "getAdmin",
      "outputs": [
        {
          "internalType": "uint256",
          "name": "",
          "type": "uint256"
        }
      ],
      "payable": false,
      "stateMutability": "view",
      "type": "function"
    },
    {
      "constant": false,
      "inputs": [],
      "name": "getAllServices",
      "outputs": [],
      "payable": false,
      "stateMutability": "nonpayable",
      "type": "function"
    },
    {
      "constant": false,
      "inputs": [],
      "name": "getAllVerifiedServices",
      "outputs": [],
      "payable": false,
      "stateMutability": "nonpayable",
      "type": "function"
    },
    {
      "constant": false,
      "inputs": [],
      "name": "getAllUnverifiedServices",
      "outputs": [],
      "payable": false,
      "stateMutability": "nonpayable",
      "type": "function"
    }
  ],
  "bytecode": "0x60806040523480156200001157600080fd5b50620000256001600160e01b036200002b16565b62000874565b6000620000736040518060400160405280600381526020017f434d530000000000000000000000000000000000000000000000000000000000815250620001a060201b60201c565b90506000620000be6040518060400160405280600c81526020017f55435344204d65646963616c000000000000000000000000000000000000000081525083620002bf60201b60201c565b9050620001076040518060400160405280600381526020017f4b656e0000000000000000000000000000000000000000000000000000000000815250826200040460201b60201c565b5060408051808201909152600581527f44616e6e7900000000000000000000000000000000000000000000000000000060208201526200015190826001600160e01b036200040416565b5060408051808201909152600781527f416e746f6e696f0000000000000000000000000000000000000000000000000060208201526200019b90826001600160e01b036200040416565b505050565b60008082604051602001620001b69190620007e4565b6040516020818303038152906040528051906020012090506060620001da62000599565b5060408051606081018252838152602080820187815282840185905260008681526005835293909320825181559251805192938493909262000224926001850192910190620005bd565b50604082015180516200024291600284019160209091019062000642565b5050600e80546001810182556000919091527fbb7b4a454dc3493923482f07822329ed19e8244eff582cc204f8554c3620c3fd01849055506040517ff73cee28a98c20f23a903356ab57dc8c514e66b0488c994b09dec06f978c839b90620002ae9085908890620007f9565b60405180910390a150909392505050565b60008083604051602001620002d59190620007e4565b6040516020818303038152906040528051906020012090506060620002f962000599565b5060408051606081018252838152602080820188815282840185905260008681526004835293909320825181559251805192938493909262000343926001850192910190620005bd565b50604082015180516200036191600284019160209091019062000642565b50505060008581526005602090815260408083208451600290910180546001818101835591865293852090930155600d805492830181559092527fd7b6990105719101dabeb77144f2a3385c8033acd3af97e9423a695e81ad1eb501849055517f7dd222c7de5c7ba42d121aa7e2acc9d5d4a47c2eb31f55385cf51cbe459c5c9b90620003f29085908990620007f9565b60405180910390a15090949350505050565b600080836040516020016200041a9190620007e4565b6040516020818303038152906040528051906020012090506060806060620004416200067f565b506040805160a08101825285815260208082018a8152828401879052606083018690526080830185905260008881526003835293909320825181559251805192938493909262000499926001850192910190620005bd565b5060408201518051620004b7916002840191602090910190620006b1565b5060608201518051620004d5916003840191602090910190620006b1565b5060808201518051620004f3916004840191602090910190620006b1565b5050600c805460018181019092557fdf6966c971051c3d54ec59162606531493a51404a002842f56009d7e5cf4a8c7018790556000898152600460209081526040808320865160029091018054958601815584529190922090920191909155517f86ec8adc6f97da0327b3e1dcc24fa25aea5eb7afcf6af08792e4b2d4d799fad89150620005859087908b90620007f9565b60405180910390a150929695505050505050565b60405180606001604052806000801916815260200160608152602001606081525090565b828054600181600116156101000203166002900490600052602060002090601f016020900481019282601f106200060057805160ff191683800117855562000630565b8280016001018555821562000630579182015b828111156200063057825182559160200191906001019062000613565b506200063e92915062000717565b5090565b8280548282559060005260206000209081019282156200063057916020028201828111156200063057825182559160200191906001019062000613565b6040518060a0016040528060008019168152602001606081526020016060815260200160608152602001606081525090565b82805482825590600052602060002090810192821562000709579160200282015b828111156200070957825182546001600160a01b0319166001600160a01b03909116178255602090920191600190910190620006d2565b506200063e92915062000737565b6200073491905b808211156200063e57600081556001016200071e565b90565b6200073491905b808211156200063e5780546001600160a01b03191681556001016200073e565b620007698162000734565b82525050565b60006200077c8262000825565b62000788818562000829565b93506200079a81856020860162000837565b620007a5816200086a565b9093019392505050565b6000620007bc8262000825565b620007c8818562000832565b9350620007da81856020860162000837565b9290920192915050565b6000620007f28284620007af565b9392505050565b604081016200080982856200075e565b81810360208301526200081d81846200076f565b949350505050565b5190565b90815260200190565b919050565b60005b83811015620008545781810151838201526020016200083a565b8381111562000864576000848401525b50505050565b601f01601f191690565b614a8280620008846000396000f3fe60806040523480156200001157600080fd5b5060043610620001f05760003560e01c80636e9960c31162000111578063a46bfff911620000a5578063e4595936116200007b578063e45959361462000453578063ece7ac2b146200045d578063edc922a91462000474578063ee3d52b3146200047e57620001f0565b8063a46bfff9146200040e578063dd2389251462000425578063e0e87b1a146200043c57620001f0565b80637899a34e11620000e75780637899a34e14620003a357806392398fbb14620003c95780639594c99e14620003e05780639c860b8a14620003f757620001f0565b80636e9960c3146200036b57806373b1b2bf1462000375578063740044b4146200038c57620001f0565b80632bde2a86116200018957806333fc83f7116200015f57806333fc83f7146200030d57806339160aa714620003335780633e7e072e146200034a5780633f1e172d146200036157620001f0565b80632bde2a8614620002a95780632f92023a14620002d057806333c0950a14620002e757620001f0565b806321dd828511620001cb57806321dd8285146200022d57806321fe0f3014620002535780632470d25e146200025d578063291d7cdb146200028357620001f0565b80631156958614620001f557806312ad1c3714620002175780631bf78b351462000221575b600080fd5b620001ff62000495565b6040516200020e919062004124565b60405180910390f35b620001ff620004f0565b6200022b62000548565b005b620002446200023e36600462003926565b62000d52565b6040516200020e9190620040fe565b6200022b62000e90565b620002746200026e36600462003926565b62001616565b6040516200020e91906200400e565b6200029a6200029436600462003a68565b62001631565b6040516200020e91906200415a565b620002c0620002ba36600462003926565b62001946565b6040516200020e929190620041e6565b6200022b620002e1366004620038c6565b620019f1565b620002fe620002f836600462003926565b62001c15565b6040516200020e919062004255565b620003246200031e3660046200389d565b62001ebc565b6040516200020e91906200420a565b620002c06200034436600462003926565b62001f5b565b6200029a6200035b36600462003a2e565b62001fd0565b6200022b62002117565b6200029a620021f7565b6200029a6200038636600462003968565b620021fd565b6200029a6200039d36600462003a2e565b6200244a565b620003ba620003b436600462003926565b620025df565b6040516200020e91906200414a565b620002c0620003da36600462003926565b62002829565b62000244620003f136600462003926565b6200289e565b620001ff6200040836600462003926565b620029df565b620001ff6200041f36600462003926565b62002a8b565b6200029a62000436366004620039f5565b62002ad3565b6200022b6200044d36600462003926565b62002bf2565b6200022b62002c81565b620002446200046e36600462003926565b62003407565b620001ff62003548565b6200022b6200048f36600462003926565b620035a0565b6060600e805480602002602001604051908101604052809291908181526020018280548015620004e557602002820191906000526020600020905b815481526020019060010190808311620004d0575b505050505090505b90565b6060600c805480602002602001604051908101604052809291908181526020018280548015620004e55760200282019190600052602060002090815481526020019060010190808311620004d0575050505050905090565b60005b600b5481101562000d4f576000600b82815481106200056657fe5b9060005260206000200160009054906101000a90046001600160a01b03169050606060036000836001600160a01b031663f680a7bd6040518163ffffffff1660e01b815260040160206040518083038186803b158015620005c657600080fd5b505afa158015620005db573d6000803e3d6000fd5b505050506040513d601f19601f8201168201806040525062000601919081019062003947565b81526020019081526020016000206001018054600181600116156101000203166002900480601f016020809104026020016040519081016040528092919081815260200182805460018160011615610100020316600290048015620006aa5780601f106200067e57610100808354040283529160200191620006aa565b820191906000526020600020905b8154815290600101906020018083116200068c57829003601f168201915b50505050509050606060046000846001600160a01b031663596ada676040518163ffffffff1660e01b815260040160206040518083038186803b158015620006f157600080fd5b505afa15801562000706573d6000803e3d6000fd5b505050506040513d601f19601f820116820180604052506200072c919081019062003947565b81526020019081526020016000206001018054600181600116156101000203166002900480601f016020809104026020016040519081016040528092919081815260200182805460018160011615610100020316600290048015620007d55780601f10620007a957610100808354040283529160200191620007d5565b820191906000526020600020905b815481529060010190602001808311620007b757829003601f168201915b505050505090506000836001600160a01b031663bb90ebac6040518163ffffffff1660e01b815260040160206040518083038186803b1580156200081857600080fd5b505afa1580156200082d573d6000803e3d6000fd5b505050506040513d601f19601f8201168201806040525062000853919081019062003947565b118015620008d557506000836001600160a01b0316634a86d8c56040518163ffffffff1660e01b815260040160206040518083038186803b1580156200089857600080fd5b505afa158015620008ad573d6000803e3d6000fd5b505050506040513d601f19601f82011682018060405250620008d3919081019062003947565b115b1562000d43577f04653ea398522e1f547b141c4f7c0274d3527ae0b221c0cebf77651997c809e1838383866001600160a01b03166306fdde036040518163ffffffff1660e01b815260040160006040518083038186803b1580156200093957600080fd5b505afa1580156200094e573d6000803e3d6000fd5b505050506040513d6000823e601f3d908101601f19168201604052620009789190810190620039bc565b876001600160a01b0316631be37f406040518163ffffffff1660e01b815260040160206040518083038186803b158015620009b257600080fd5b505afa158015620009c7573d6000803e3d6000fd5b505050506040513d601f19601f82011682018060405250620009ed919081019062003947565b886001600160a01b031663596ada676040518163ffffffff1660e01b815260040160206040518083038186803b15801562000a2757600080fd5b505afa15801562000a3c573d6000803e3d6000fd5b505050506040513d601f19601f8201168201806040525062000a62919081019062003947565b896001600160a01b031663f680a7bd6040518163ffffffff1660e01b815260040160206040518083038186803b15801562000a9c57600080fd5b505afa15801562000ab1573d6000803e3d6000fd5b505050506040513d601f19601f8201168201806040525062000ad7919081019062003947565b8a6001600160a01b031663aa8c217c6040518163ffffffff1660e01b815260040160206040518083038186803b15801562000b1157600080fd5b505afa15801562000b26573d6000803e3d6000fd5b505050506040513d601f19601f8201168201806040525062000b4c919081019062003947565b8b6001600160a01b031663295b4e176040518163ffffffff1660e01b815260040160206040518083038186803b15801562000b8657600080fd5b505afa15801562000b9b573d6000803e3d6000fd5b505050506040513d601f19601f8201168201806040525062000bc1919081019062003905565b8c6001600160a01b0316634a86d8c56040518163ffffffff1660e01b815260040160206040518083038186803b15801562000bfb57600080fd5b505afa15801562000c10573d6000803e3d6000fd5b505050506040513d601f19601f8201168201806040525062000c36919081019062003947565b8d6001600160a01b031663bb90ebac6040518163ffffffff1660e01b815260040160206040518083038186803b15801562000c7057600080fd5b505afa15801562000c85573d6000803e3d6000fd5b505050506040513d601f19601f8201168201806040525062000cab919081019062003947565b8e6001600160a01b031663763032896040518163ffffffff1660e01b815260040160206040518083038186803b15801562000ce557600080fd5b505afa15801562000cfa573d6000803e3d6000fd5b505050506040513d601f19601f8201168201806040525062000d20919081019062003947565b60405162000d3a9c9b9a999897969594939291906200401e565b60405180910390a15b5050506001016200054b565b50565b60008181526003602052604081206060915b600382015481101562000dec577f35b7f39ce99df9443c69ab69269e1ae96c0add252abdcce625838b4c386c6236600a600084600301848154811062000da657fe5b60009182526020808320909101546001600160a01b031683528201929092526040908101909120905162000ddb91906200421d565b60405180910390a160010162000d64565b507fa1c275d9147cd4bbf3a6fc6b01df2bdad7272d62a5bea8ea5f90e20e7c3f48e98160030160405162000e21919062004111565b60405180910390a18060030180548060200260200160405190810160405280929190818152602001828054801562000e8357602002820191906000526020600020905b81546001600160a01b0316815260019091019060200180831162000e64575b5050505050915050919050565b60005b600b5481101562000d4f576000600b828154811062000eae57fe5b9060005260206000200160009054906101000a90046001600160a01b03169050606060036000836001600160a01b031663f680a7bd6040518163ffffffff1660e01b815260040160206040518083038186803b15801562000f0e57600080fd5b505afa15801562000f23573d6000803e3d6000fd5b505050506040513d601f19601f8201168201806040525062000f49919081019062003947565b81526020019081526020016000206001018054600181600116156101000203166002900480601f01602080910402602001604051908101604052809291908181526020018280546001816001161561010002031660029004801562000ff25780601f1062000fc65761010080835404028352916020019162000ff2565b820191906000526020600020905b81548152906001019060200180831162000fd457829003601f168201915b50505050509050606060046000846001600160a01b031663596ada676040518163ffffffff1660e01b815260040160206040518083038186803b1580156200103957600080fd5b505afa1580156200104e573d6000803e3d6000fd5b505050506040513d601f19601f8201168201806040525062001074919081019062003947565b81526020019081526020016000206001018054600181600116156101000203166002900480601f0160208091040260200160405190810160405280929190818152602001828054600181600116156101000203166002900480156200111d5780601f10620010f1576101008083540402835291602001916200111d565b820191906000526020600020905b815481529060010190602001808311620010ff57829003601f168201915b505050505090506000836001600160a01b0316634a86d8c56040518163ffffffff1660e01b815260040160206040518083038186803b1580156200116057600080fd5b505afa15801562001175573d6000803e3d6000fd5b505050506040513d601f19601f820116820180604052506200119b919081019062003947565b11156200160a577f04653ea398522e1f547b141c4f7c0274d3527ae0b221c0cebf77651997c809e1838383866001600160a01b03166306fdde036040518163ffffffff1660e01b815260040160006040518083038186803b1580156200120057600080fd5b505afa15801562001215573d6000803e3d6000fd5b505050506040513d6000823e601f3d908101601f191682016040526200123f9190810190620039bc565b876001600160a01b0316631be37f406040518163ffffffff1660e01b815260040160206040518083038186803b1580156200127957600080fd5b505afa1580156200128e573d6000803e3d6000fd5b505050506040513d601f19601f82011682018060405250620012b4919081019062003947565b886001600160a01b031663596ada676040518163ffffffff1660e01b815260040160206040518083038186803b158015620012ee57600080fd5b505afa15801562001303573d6000803e3d6000fd5b505050506040513d601f19601f8201168201806040525062001329919081019062003947565b896001600160a01b031663f680a7bd6040518163ffffffff1660e01b815260040160206040518083038186803b1580156200136357600080fd5b505afa15801562001378573d6000803e3d6000fd5b505050506040513d601f19601f820116820180604052506200139e919081019062003947565b8a6001600160a01b031663aa8c217c6040518163ffffffff1660e01b815260040160206040518083038186803b158015620013d857600080fd5b505afa158015620013ed573d6000803e3d6000fd5b505050506040513d601f19601f8201168201806040525062001413919081019062003947565b8b6001600160a01b031663295b4e176040518163ffffffff1660e01b815260040160206040518083038186803b1580156200144d57600080fd5b505afa15801562001462573d6000803e3d6000fd5b505050506040513d601f19601f8201168201806040525062001488919081019062003905565b8c6001600160a01b0316634a86d8c56040518163ffffffff1660e01b815260040160206040518083038186803b158015620014c257600080fd5b505afa158015620014d7573d6000803e3d6000fd5b505050506040513d601f19601f82011682018060405250620014fd919081019062003947565b8d6001600160a01b031663bb90ebac6040518163ffffffff1660e01b815260040160206040518083038186803b1580156200153757600080fd5b505afa1580156200154c573d6000803e3d6000fd5b505050506040513d601f19601f8201168201806040525062001572919081019062003947565b8e6001600160a01b031663763032896040518163ffffffff1660e01b815260040160206040518083038186803b158015620015ac57600080fd5b505afa158015620015c1573d6000803e3d6000fd5b505050506040513d601f19601f82011682018060405250620015e7919081019062003947565b604051620016019c9b9a999897969594939291906200401e565b60405180910390a15b50505060010162000e93565b6006602052600090815260409020546001600160a01b031681565b6000808585856040516020016200164b9392919062003fd5565b604051602081830303815290604052805190602001209050600085858389876040516200167890620035a5565b6200168895949392919062004189565b604051809103906000f080158015620016a5573d6000803e3d6000fd5b509050600081604051602001620016bd919062003fb0565b604051602081830303815290604052805190602001209050620016df620035b3565b604051806101200160405280846001600160a01b0316815260200183815260200160085481526020018981526020018881526020018a8152602001600081526020016000151581526020016000151581525090506009819080600181540180825580915050906001820390600052602060002090600802016000909192909190915060008201518160000160006101000a8154816001600160a01b0302191690836001600160a01b031602179055506020820151816001015560408201518160020155606082015181600301556080820151816004015560a0820151816005019080519060200190620017d4929190620035fe565b5060c082015160068281019190915560e0830151600792830180546101009586015160ff199091169215159290921761ff0019169115159094021790925560008581526020928352604080822080546001600160a01b03199081166001600160a01b038b169081179092558d845260038652828420600281018054600181018255908652878620018054909216831790915590835292845290208c5191935062001884929091908d0190620035fe565b506001600160a01b0384166000908152600a602090815260409091208b51620018b0928d0190620035fe565b50600b80546001810182556000919091527f0175b7a638427703f0dbe7bb9bbf987a2551717b34e79f33b5b1008d1fa01db90180546001600160a01b0319166001600160a01b0386161790556040517f2cdb195d7226065901c0e37d742237ac3e30d6dc0ce7faf49701f6ec9f0bd1ed906200193090859087906200416a565b60405180910390a1509098975050505050505050565b6004602090815260009182526040918290208054600180830180548651600293821615610100026000190190911692909204601f810186900486028301860190965285825291949293909290830182828015620019e75780601f10620019bb57610100808354040283529160200191620019e7565b820191906000526020600020905b815481529060010190602001808311620019c957829003601f168201915b5050505050905082565b60405163606bf15b60e11b815282906001600160a01b0382169063c0d7e2b69062001a219085906004016200415a565b602060405180830381600087803b15801562001a3c57600080fd5b505af115801562001a51573d6000803e3d6000fd5b505050506040513d601f19601f8201168201806040525062001a77919081019062003905565b62001a9f5760405162461bcd60e51b815260040162001a969062004230565b60405180910390fd5b6000816001600160a01b031663f680a7bd6040518163ffffffff1660e01b815260040160206040518083038186803b15801562001adb57600080fd5b505afa15801562001af0573d6000803e3d6000fd5b505050506040513d601f19601f8201168201806040525062001b16919081019062003947565b60008181526003602052604081209192505b600382015481101562001ba357836001600160a01b031682600301828154811062001b4f57fe5b6000918252602090912001546001600160a01b0316141562001b9a5781600301818154811062001b7b57fe5b600091825260209091200180546001600160a01b031916905562001ba3565b60010162001b28565b50600481018054600181018255600091825260209091200180546001600160a01b0319166001600160a01b0385161790556040517fc03c381479e74431d2e456b259238f87292a5a827091c7386e197457ad47e19e9062001c069087906200400e565b60405180910390a15050505050565b62001c1f62003683565b62001c2962003683565b6004600084815260200190815260200160002060405180606001604052908160008201548152602001600182018054600181600116156101000203166002900480601f01602080910402602001604051908101604052809291908181526020018280546001816001161561010002031660029004801562001cee5780601f1062001cc25761010080835404028352916020019162001cee565b820191906000526020600020905b81548152906001019060200180831162001cd057829003601f168201915b505050505081526020016002820180548060200260200160405190810160405280929190818152602001828054801562001d4857602002820191906000526020600020905b81548152602001906001019080831162001d33575b50505050508152505090507f8c6b3078bf6d713aeae5b1ccc2dfea387cbb876de1a5c9d81a4e22d4e832c5468160405162001d84919062004255565b60405180910390a16004600084815260200190815260200160002060405180606001604052908160008201548152602001600182018054600181600116156101000203166002900480601f01602080910402602001604051908101604052809291908181526020018280546001816001161561010002031660029004801562001e515780601f1062001e255761010080835404028352916020019162001e51565b820191906000526020600020905b81548152906001019060200180831162001e3357829003601f168201915b505050505081526020016002820180548060200260200160405190810160405280929190818152602001828054801562001eab57602002820191906000526020600020905b81548152602001906001019080831162001e96575b505050505081525050915050919050565b60076020908152600091825260409182902080548351601f60026000196101006001861615020190931692909204918201849004840281018401909452808452909183018282801562001f535780601f1062001f275761010080835404028352916020019162001f53565b820191906000526020600020905b81548152906001019060200180831162001f3557829003601f168201915b505050505081565b6005602090815260009182526040918290208054600180830180548651600293821615610100026000190190911692909204601f810186900486028301860190965285825291949293909290830182828015620019e75780601f10620019bb57610100808354040283529160200191620019e7565b6000808360405160200162001fe6919062003fc7565b60405160208183030381529060405280519060200120905060606200200a62003683565b5060408051606081018252838152602080820188815282840185905260008681526004835293909320825181559251805192938493909262002054926001850192910190620035fe565b506040820151805162002072916002840191602090910190620036a7565b50505060008581526005602090815260408083208451600290910180546001818101835591865293852090930155600d805492830181559092527fd7b6990105719101dabeb77144f2a3385c8033acd3af97e9423a695e81ad1eb501849055517f7dd222c7de5c7ba42d121aa7e2acc9d5d4a47c2eb31f55385cf51cbe459c5c9b90620021039085908990620041e6565b60405180910390a150909150505b92915050565b60006200213f60405180604001604052806003815260200162434d5360e81b81525062002ad3565b90506000620021736040518060400160405280600c81526020016b1550d4d1081359591a58d85b60a21b8152508362001fd0565b90506200219c6040518060400160405280600381526020016225b2b760e91b815250826200244a565b50620021c66040518060400160405280600581526020016444616e6e7960d81b815250826200244a565b50620021f260405180604001604052806007815260200166416e746f6e696f60c81b815250826200244a565b505050565b60005490565b600083815260066020526040808220549051631bf4a39360e11b81526001600160a01b0390911690829082906337e947269062002241908890889060040162004268565b602060405180830381600087803b1580156200225c57600080fd5b505af115801562002271573d6000803e3d6000fd5b505050506040513d601f19601f8201168201806040525062002297919081019062003947565b90506000826001600160a01b031663f680a7bd6040518163ffffffff1660e01b815260040160206040518083038186803b158015620022d557600080fd5b505afa158015620022ea573d6000803e3d6000fd5b505050506040513d601f19601f8201168201806040525062002310919081019062003947565b6000818152600360205260408120600f80546001810182559083527f8d1108e10bcb7c27dddfc02ed9d693a074039d026cf4ea4240b40f7d581ac802018a90559192505b6002820154811015620023cf57846001600160a01b03168260020182815481106200237b57fe5b6000918252602090912001546001600160a01b03161415620023c657816002018181548110620023a757fe5b600091825260209091200180546001600160a01b0319169055620023cf565b60010162002354565b50600381018054600181018255600091825260209091200180546001600160a01b0319166001600160a01b0386161790556040517f96e3875898071e5d91932eb150a3914f9fe70e473f6faeaad697e99a48937c9c90620024349085908a9062004268565b60405180910390a15090925050505b9392505050565b6000808360405160200162002460919062003fc7565b604051602081830303815290604052805190602001209050606080606062002487620036e4565b506040805160a08101825285815260208082018a81528284018790526060830186905260808301859052600088815260038352939093208251815592518051929384939092620024df926001850192910190620035fe565b5060408201518051620024fd91600284019160209091019062003716565b50606082015180516200251b91600384019160209091019062003716565b50608082015180516200253991600484019160209091019062003716565b5050600c805460018181019092557fdf6966c971051c3d54ec59162606531493a51404a002842f56009d7e5cf4a8c7018790556000898152600460209081526040808320865160029091018054958601815584529190922090920191909155517f86ec8adc6f97da0327b3e1dcc24fa25aea5eb7afcf6af08792e4b2d4d799fad89150620025cb9087908b90620041e6565b60405180910390a150929695505050505050565b6000620025eb620036e4565b600360008481526020019081526020016000206040518060a001604052908160008201548152602001600182018054600181600116156101000203166002900480601f016020809104026020016040519081016040528092919081815260200182805460018160011615610100020316600290048015620026b05780601f106200268457610100808354040283529160200191620026b0565b820191906000526020600020905b8154815290600101906020018083116200269257829003601f168201915b50505050508152602001600282018054806020026020016040519081016040528092919081815260200182805480156200271457602002820191906000526020600020905b81546001600160a01b03168152600190910190602001808311620026f5575b50505050508152602001600382018054806020026020016040519081016040528092919081815260200182805480156200277857602002820191906000526020600020905b81546001600160a01b0316815260019091019060200180831162002759575b5050505050815260200160048201805480602002602001604051908101604052809291908181526020018280548015620027dc57602002820191906000526020600020905b81546001600160a01b03168152600190910190602001808311620027bd575b50505050508152505090507f7822df68ea6ba88fa17a55a6c6fe1f7207c1653493392725ce9da7f61f8b601d8160405162002818919062004242565b60405180910390a150600192915050565b6003602090815260009182526040918290208054600180830180548651600293821615610100026000190190911692909204601f810186900486028301860190965285825291949293909290830182828015620019e75780601f10620019bb57610100808354040283529160200191620019e7565b600081815260036020526040908190209051606091907fa1c275d9147cd4bbf3a6fc6b01df2bdad7272d62a5bea8ea5f90e20e7c3f48e990620028e690600284019062004111565b60405180910390a160005b600282015481101562002979577f35b7f39ce99df9443c69ab69269e1ae96c0add252abdcce625838b4c386c6236600a60008460020184815481106200293357fe5b60009182526020808320909101546001600160a01b03168352820192909252604090810190912090516200296891906200421d565b60405180910390a1600101620028f1565b508060020180548060200260200160405190810160405280929190818152602001828054801562000e83576020028201919060005260206000209081546001600160a01b0316815260019091019060200180831162000e64575050505050915050919050565b600081815260056020526040908190209051606091907f1c7aaf504355c6134470b4070ca50bf276d45d0205aa86ef6bd15c684ae710c49062002a2790600284019062004137565b60405180910390a18060020180548060200260200160405190810160405280929190818152602001828054801562000e8357602002820191906000526020600020905b81548152602001906001019080831162002a6a575050505050915050919050565b600081815260046020526040908190209051606091907f1c7aaf504355c6134470b4070ca50bf276d45d0205aa86ef6bd15c684ae710c49062002a2790600284019062004137565b6000808260405160200162002ae9919062003fc7565b604051602081830303815290604052805190602001209050606062002b0d62003683565b5060408051606081018252838152602080820187815282840185905260008681526005835293909320825181559251805192938493909262002b57926001850192910190620035fe565b506040820151805162002b75916002840191602090910190620036a7565b5050600e80546001810182556000919091527fbb7b4a454dc3493923482f07822329ed19e8244eff582cc204f8554c3620c3fd01849055506040517ff73cee28a98c20f23a903356ab57dc8c514e66b0488c994b09dec06f978c839b9062002be19085908890620041e6565b60405180910390a150909392505050565b60008181526006602090815260408083205481516398d6a37360e01b815291516001600160a01b039091169384936398d6a373936004808201949293918390030190829087803b15801562002c4657600080fd5b505af115801562002c5b573d6000803e3d6000fd5b505050506040513d601f19601f82011682018060405250620021f2919081019062003905565b60005b600b5481101562000d4f576000600b828154811062002c9f57fe5b9060005260206000200160009054906101000a90046001600160a01b03169050606060036000836001600160a01b031663f680a7bd6040518163ffffffff1660e01b815260040160206040518083038186803b15801562002cff57600080fd5b505afa15801562002d14573d6000803e3d6000fd5b505050506040513d601f19601f8201168201806040525062002d3a919081019062003947565b81526020019081526020016000206001018054600181600116156101000203166002900480601f01602080910402602001604051908101604052809291908181526020018280546001816001161561010002031660029004801562002de35780601f1062002db75761010080835404028352916020019162002de3565b820191906000526020600020905b81548152906001019060200180831162002dc557829003601f168201915b50505050509050606060046000846001600160a01b031663596ada676040518163ffffffff1660e01b815260040160206040518083038186803b15801562002e2a57600080fd5b505afa15801562002e3f573d6000803e3d6000fd5b505050506040513d601f19601f8201168201806040525062002e65919081019062003947565b81526020019081526020016000206001018054600181600116156101000203166002900480601f01602080910402602001604051908101604052809291908181526020018280546001816001161561010002031660029004801562002f0e5780601f1062002ee25761010080835404028352916020019162002f0e565b820191906000526020600020905b81548152906001019060200180831162002ef057829003601f168201915b505050505090506000836001600160a01b031663763032896040518163ffffffff1660e01b815260040160206040518083038186803b15801562002f5157600080fd5b505afa15801562002f66573d6000803e3d6000fd5b505050506040513d601f19601f8201168201806040525062002f8c919081019062003947565b1115620033fb577f04653ea398522e1f547b141c4f7c0274d3527ae0b221c0cebf77651997c809e1838383866001600160a01b03166306fdde036040518163ffffffff1660e01b815260040160006040518083038186803b15801562002ff157600080fd5b505afa15801562003006573d6000803e3d6000fd5b505050506040513d6000823e601f3d908101601f19168201604052620030309190810190620039bc565b876001600160a01b0316631be37f406040518163ffffffff1660e01b815260040160206040518083038186803b1580156200306a57600080fd5b505afa1580156200307f573d6000803e3d6000fd5b505050506040513d601f19601f82011682018060405250620030a5919081019062003947565b886001600160a01b031663596ada676040518163ffffffff1660e01b815260040160206040518083038186803b158015620030df57600080fd5b505afa158015620030f4573d6000803e3d6000fd5b505050506040513d601f19601f820116820180604052506200311a919081019062003947565b896001600160a01b031663f680a7bd6040518163ffffffff1660e01b815260040160206040518083038186803b1580156200315457600080fd5b505afa15801562003169573d6000803e3d6000fd5b505050506040513d601f19601f820116820180604052506200318f919081019062003947565b8a6001600160a01b031663aa8c217c6040518163ffffffff1660e01b815260040160206040518083038186803b158015620031c957600080fd5b505afa158015620031de573d6000803e3d6000fd5b505050506040513d601f19601f8201168201806040525062003204919081019062003947565b8b6001600160a01b031663295b4e176040518163ffffffff1660e01b815260040160206040518083038186803b1580156200323e57600080fd5b505afa15801562003253573d6000803e3d6000fd5b505050506040513d601f19601f8201168201806040525062003279919081019062003905565b8c6001600160a01b0316634a86d8c56040518163ffffffff1660e01b815260040160206040518083038186803b158015620032b357600080fd5b505afa158015620032c8573d6000803e3d6000fd5b505050506040513d601f19601f82011682018060405250620032ee919081019062003947565b8d6001600160a01b031663bb90ebac6040518163ffffffff1660e01b815260040160206040518083038186803b1580156200332857600080fd5b505afa1580156200333d573d6000803e3d6000fd5b505050506040513d601f19601f8201168201806040525062003363919081019062003947565b8e6001600160a01b031663763032896040518163ffffffff1660e01b815260040160206040518083038186803b1580156200339d57600080fd5b505afa158015620033b2573d6000803e3d6000fd5b505050506040513d601f19601f82011682018060405250620033d8919081019062003947565b604051620033f29c9b9a999897969594939291906200401e565b60405180910390a15b50505060010162002c84565b600081815260036020526040908190209051606091907fa1c275d9147cd4bbf3a6fc6b01df2bdad7272d62a5bea8ea5f90e20e7c3f48e9906200344f90600484019062004111565b60405180910390a160005b6004820154811015620034e2577f35b7f39ce99df9443c69ab69269e1ae96c0add252abdcce625838b4c386c6236600a60008460040184815481106200349c57fe5b60009182526020808320909101546001600160a01b0316835282019290925260409081019091209051620034d191906200421d565b60405180910390a16001016200345a565b508060040180548060200260200160405190810160405280929190818152602001828054801562000e83576020028201919060005260206000209081546001600160a01b0316815260019091019060200180831162000e64575050505050915050919050565b6060600d805480602002602001604051908101604052809291908181526020018280548015620004e55760200282019190600052602060002090815481526020019060010190808311620004d0575050505050905090565b600055565b61064780620043f983390190565b604080516101208101825260008082526020820181905291810182905260608082018390526080820183905260a082015260c0810182905260e0810182905261010081019190915290565b828054600181600116156101000203166002900490600052602060002090601f016020900481019282601f106200364157805160ff191683800117855562003671565b8280016001018555821562003671579182015b828111156200367157825182559160200191906001019062003654565b506200367f9291506200377c565b5090565b60405180606001604052806000801916815260200160608152602001606081525090565b8280548282559060005260206000209081019282156200367157916020028201828111156200367157825182559160200191906001019062003654565b6040518060a0016040528060008019168152602001606081526020016060815260200160608152602001606081525090565b8280548282559060005260206000209081019282156200376e579160200282015b828111156200376e57825182546001600160a01b0319166001600160a01b0390911617825560209092019160019091019062003737565b506200367f92915062003799565b620004ed91905b808211156200367f576000815560010162003783565b620004ed91905b808211156200367f5780546001600160a01b0319168155600101620037a0565b80356200211181620043cb565b80516200211181620043e2565b80356200211181620043ed565b80516200211181620043ed565b600082601f8301126200380657600080fd5b81516200381d6200381782620042af565b62004287565b915080825260208301602083018583830111156200383a57600080fd5b6200384783828462004330565b50505092915050565b600082601f8301126200386257600080fd5b8135620038736200381782620042af565b915080825260208301602083018583830111156200389057600080fd5b6200384783828462004324565b600060208284031215620038b057600080fd5b6000620038be8484620037c0565b949350505050565b60008060408385031215620038da57600080fd5b6000620038e88585620037c0565b9250506020620038fb85828601620037da565b9150509250929050565b6000602082840312156200391857600080fd5b6000620038be8484620037cd565b6000602082840312156200393957600080fd5b6000620038be8484620037da565b6000602082840312156200395a57600080fd5b6000620038be8484620037e7565b6000806000606084860312156200397e57600080fd5b60006200398c8686620037da565b93505060206200399f86828701620037da565b9250506040620039b286828701620037da565b9150509250925092565b600060208284031215620039cf57600080fd5b815167ffffffffffffffff811115620039e757600080fd5b620038be84828501620037f4565b60006020828403121562003a0857600080fd5b813567ffffffffffffffff81111562003a2057600080fd5b620038be8482850162003850565b6000806040838503121562003a4257600080fd5b823567ffffffffffffffff81111562003a5a57600080fd5b620038e88582860162003850565b6000806000806080858703121562003a7f57600080fd5b843567ffffffffffffffff81111562003a9757600080fd5b62003aa58782880162003850565b945050602062003ab887828801620037da565b935050604062003acb87828801620037da565b925050606062003ade87828801620037da565b91505092959194509250565b600062003af8838362003b0e565b505060200190565b600062003af8838362003d78565b62003b198162004312565b82525050565b62003b1962003b2e8262004312565b6200438b565b600062003b4182620042ea565b62003b4d8185620042f8565b935062003b5a83620042d8565b8060005b8381101562003b8e57815162003b75888262003aea565b975062003b8283620042d8565b92505060010162003b5e565b509495945050505050565b600062003ba682620042ea565b62003bb28185620042f8565b935062003bbf83620042d8565b8060005b8381101562003b8e57815162003bda888262003aea565b975062003be783620042d8565b92505060010162003bc3565b600062003c0082620042ee565b62003c0c8185620042f8565b935062003c1983620042de565b8060005b8381101562003b8e5762003c31826200439f565b62003c3d888262003aea565b975062003c4a83620042f2565b92505060010162003c1d565b600062003c6382620042ea565b62003c6f8185620042f8565b935062003c7c83620042d8565b8060005b8381101562003b8e57815162003c97888262003b00565b975062003ca483620042d8565b92505060010162003c80565b600062003cbd82620042ea565b62003cc98185620042f8565b935062003cd683620042d8565b8060005b8381101562003b8e57815162003cf1888262003b00565b975062003cfe83620042d8565b92505060010162003cda565b600062003d1782620042ee565b62003d238185620042f8565b935062003d3083620042de565b8060005b8381101562003b8e5762003d4882620043ad565b62003d54888262003b00565b975062003d6183620042f2565b92505060010162003d34565b62003b19816200431f565b62003b1981620004ed565b62003b1962003d9282620004ed565b620004ed565b600062003da582620042ea565b62003db18185620042f8565b935062003dc381856020860162004330565b62003dce81620043bb565b9093019392505050565b600062003de582620042ea565b62003df1818562004301565b935062003e0381856020860162004330565b9290920192915050565b60008154600181166000811462003e2d576001811462003e565762003e9b565b607f600283041662003e408187620042f8565b60ff198416815295505060208501925062003e9b565b6002820462003e668187620042f8565b955062003e7385620042de565b60005b8281101562003e945781548882015260019091019060200162003e76565b8701945050505b505092915050565b600062003eb2601683620042f8565b7510db185a5b481dd85cc81b9bdd0815995c9a599a595960521b815260200192915050565b805160009060a084019062003eed858262003d78565b506020830151848203602086015262003f07828262003d98565b9150506040830151848203604086015262003f23828262003b99565b9150506060830151848203606086015262003f3f828262003b99565b9150506080830151848203608086015262003f5b828262003b99565b95945050505050565b8051600090606084019062003f7a858262003d78565b506020830151848203602086015262003f94828262003d98565b9150506040830151848203604086015262003f5b828262003cb0565b600062003fbe828462003b1f565b50601401919050565b600062002443828462003dd8565b600062003fe3828662003dd8565b915062003ff1828562003d83565b60208201915062004003828462003d83565b506020019392505050565b6020810162002111828462003b0e565b61018081016200402f828f62003b0e565b818103602083015262004043818e62003d98565b9050818103604083015262004059818d62003d98565b905081810360608301526200406f818c62003d98565b905062004080608083018b62003d78565b6200408f60a083018a62003d78565b6200409e60c083018962003d78565b620040ad60e083018862003d78565b620040bd61010083018762003d6d565b620040cd61012083018662003d78565b620040dd61014083018562003d78565b620040ed61016083018462003d78565b9d9c50505050505050505050505050565b6020808252810162002443818462003b34565b6020808252810162002443818462003bf3565b6020808252810162002443818462003c56565b6020808252810162002443818462003d0a565b6020810162002111828462003d6d565b6020810162002111828462003d78565b604081016200417a828562003d78565b62002443602083018462003b0e565b60a0810162004199828862003d78565b620041a8602083018762003d78565b620041b7604083018662003d78565b8181036060830152620041cb818562003d98565b9050620041dc608083018462003d78565b9695505050505050565b60408101620041f6828562003d78565b8181036020830152620038be818462003d98565b6020808252810162002443818462003d98565b6020808252810162002443818462003e0d565b60208082528101620021118162003ea3565b6020808252810162002443818462003ed7565b6020808252810162002443818462003f64565b6040810162004278828562003d78565b62002443602083018462003d78565b60405181810167ffffffffffffffff81118282101715620042a757600080fd5b604052919050565b600067ffffffffffffffff821115620042c757600080fd5b506020601f91909101601f19160190565b60200190565b60009081526020902090565b5190565b5490565b60010190565b90815260200190565b919050565b6001600160a01b031690565b6000620021118262004306565b151590565b82818337506000910152565b60005b838110156200434d57818101518382015260200162004333565b838111156200435d576000848401525b50505050565b6000620021116200437483620004ed565b62004306565b60006200211162003d9283620004ed565b6000620021118260006200211182620043c5565b600062002111825462004363565b60006200211182546200437a565b601f01601f191690565b60601b90565b620043d68162004312565b811462000d4f57600080fd5b620043d6816200431f565b620043d681620004ed56fe608060405234801561001057600080fd5b50604051610647380380610647833981810160405260a081101561003357600080fd5b81516020830151604080850151606086018051925194969395919493918201928464010000000082111561006657600080fd5b90830190602082018581111561007b57600080fd5b825164010000000081118282018810171561009557600080fd5b82525081516020918201929091019080838360005b838110156100c25781810151838201526020016100aa565b50505050905090810190601f1680156100ef5780820380516001836020036101000a031916815260200191505b50604052602090810151600188905560028790556003869055845190935061011d925060049185019061012b565b50600755506101c692505050565b828054600181600116156101000203166002900490600052602060002090601f016020900481019282601f1061016c57805160ff1916838001178555610199565b82800160010185558215610199579182015b8281111561019957825182559160200191906001019061017e565b506101a59291506101a9565b5090565b6101c391905b808211156101a557600081556001016101af565b90565b610472806101d56000396000f3fe608060405234801561001057600080fd5b50600436106101215760003560e01c8063596ada67116100ad578063bb90ebac11610071578063bb90ebac1461028b578063c0d7e2b614610293578063cdb73ac0146102b0578063d321fe29146102cd578063f680a7bd146102d557610121565b8063596ada6714610263578063763032891461026b57806398d6a37314610273578063aa8c217c1461027b578063b95e216c1461028357610121565b806334d6093d116100f457806334d6093d146101e157806337e94726146101fe5780633a50ed13146102215780633f02907a1461023e5780634a86d8c51461025b57610121565b806306fdde03146101265780631be37f40146101a3578063209ebc08146101bd578063295b4e17146101d9575b600080fd5b61012e6102dd565b6040805160208082528351818301528351919283929083019185019080838360005b83811015610168578181015183820152602001610150565b50505050905090810190601f1680156101955780820380516001836020036101000a031916815260200191505b509250505060405180910390f35b6101ab61036b565b60408051918252519081900360200190f35b6101c5610371565b604080519115158252519081900360200190f35b6101c561037a565b6101ab600480360360208110156101f757600080fd5b5035610383565b6101ab6004803603604081101561021457600080fd5b508035906020013561038b565b6101ab6004803603602081101561023757600080fd5b50356103da565b6101ab6004803603602081101561025457600080fd5b50356103e2565b6101ab6103ea565b6101ab6103f0565b6101ab6103f6565b6101c56103fc565b6101ab61040f565b6101ab610415565b6101ab61041b565b6101c5600480360360208110156102a957600080fd5b5035610421565b6101ab600480360360208110156102c657600080fd5b5035610429565b6101ab610431565b6101ab610437565b6004805460408051602060026001851615610100026000190190941693909304601f810184900484028201840190925281815292918301828280156103635780601f1061033857610100808354040283529160200191610363565b820191906000526020600020905b81548152906001019060200180831161034657829003601f168201915b505050505081565b60035481565b60065460ff1690565b60065460ff1681565b600581905590565b60088190556005829055604080518381526020810183905281516000927fb8a98a6fb70ae0797c19a04e7cdbbb481db2c659e5a075550c85bbff58c12935928290030190a15060055492915050565b600081905590565b600181905590565b60075481565b60015481565b60095481565b6006805460ff1916600190811790915590565b60055481565b60005481565b60085481565b600955600190565b600281905590565b60055490565b6002548156fea265627a7a723158204271a2dc1ef4a8c50b2922c4b47956601bc0de7d98a6c54fe069294b0619a6b264736f6c634300050b0032a365627a7a723158201c6d079942b60bbb8d45e0cdef3bc948b5b32440910821f258f171c5367051346c6578706572696d656e74616cf564736f6c634300050b0040",
  "source": "pragma solidity ^0.5.0;\npragma experimental ABIEncoderV2;\nimport \"./SafeMath.sol\";\nimport \"./ServiceClaim.sol\";\ncontract Organizations {\n    uint admin;\n    uint256 claimId; //Max value of the number of claims made\n    uint storedData; //Miscellaneous data\n    mapping (bytes32=>Patient) public patientMap; //ID of patient to specific provider -\n    mapping (bytes32=>Provider) public providerMap; //ID of provider to specific provider -\n    mapping (bytes32=>Insurer) public insurerMap; //ID of insurance provider to specific insurer\n    mapping (bytes32=>address) public serviceClaimsMap; //ID of serviceClaim to the specific ServiceClaim contract instance\n    mapping (address=>string) public serviceName;\n    //Events for organization creation    event ServiceCreated(address serviceClaimAddr);\n    event SCID(bytes32 ID, address addr);\n    event ClaimCreated(uint256 id, uint256 amount);\n    event ClaimVerified(address addr);\n    event PatientCreated(bytes32 id, string name);\n    event ProviderCreated(bytes32 id, string name);\n    event InsurerCreated(bytes32 id, string name);\n    event PatientRetrieval(Patient patient);\n    event ProviderRetrieval(Provider provider);\n    event ServiceClaimInfo(\n        address addr, string patientname, string providername, string claimname, bytes32 id,\n        bytes32 provider, bytes32 patient, uint256 amount, bool payed, uint256 timeProvided, uint256 timeFiled, uint256 timeVerified);\n    //event patientList(Patient[] patients);\n    //event providerList(Provider[] providers);\n    //event insurerList(Insurer[] insurers);\n    event idList(bytes32[] ids);\n    event serviceList(address[] services);\n    event SCName(string name);\n    event SCEvent(SC);\n    struct SC {\n        address scAddr;\n        bytes32 id;\n        bytes32 insurerID;\n        bytes32 providerID;\n        bytes32 patientID;\n        string name;\n        uint256 amount;\n        bool verified;\n        bool paid;\n    }\n    bytes32 globalInsurerID;\n  \n    SC[] scs;\n    mapping (address=>string) SCMap;\n    address[] SCList;\n    bytes32[] patientList;\n    bytes32[] providerList;\n    bytes32[] insurerList;\n    bytes32[] claimList;\n\n    struct Patient {\n        bytes32 id;\n        string name;\n        //mapping (address=>string) SCMap;\n        address[] unclaimedServices;\n        address[] unverifiedClaims;\n        address[] verifiedClaims;\n    }\n    struct Provider {\n        bytes32 id;\n        string name;\n        bytes32[] patients;\n    }\n    struct Insurer {\n        bytes32 id;\n        string name;\n        bytes32[] providers;\n    }\n    constructor() public {\n        preLoadInfo();\n    }\n    function preLoadInfo() public{\n        bytes32 insurerID = addInsurer(\"CMS\");\n        bytes32 providerID = addProvider(\"UCSD Medical\", insurerID);\n        addPatient(\"Ken\", providerID);\n        addPatient(\"Danny\", providerID);\n        addPatient(\"Antonio\", providerID);\n    }\n    // ------------------------------ Adds Users to Network --------------------------- //\n    /** @dev add a patient to the network\n    @param _name is the name of the patient\n    @param _providerID is the current provider of the patient\n    @return pID is a bytes32 represented id number for the patient\n    */\n    function addPatient(string memory _name, bytes32 _providerID) public returns(bytes32 pID) {\n        bytes32 id = keccak256(abi.encodePacked(_name));\n        address[] memory uServiceList;\n        address[] memory uClaimList;\n        address[] memory vClaimList;\n        Patient memory newPatient = Patient(id, _name, uServiceList, uClaimList, vClaimList);\n        //bytes32 patientHash = keccak256(abi.encodePacked(newPatient));\n        patientMap[id] = newPatient;\n        patientList.push(id);\n        providerMap[_providerID].patients.push(newPatient.id);\n        emit PatientCreated(id, _name);\n        return id;\n    }\n    function getPatients() public view returns(bytes32[] memory nice) {\n        return patientList;\n    }\n    /** @dev add a provider to the network\n    @param _name name of the provider\n    @param _insurerID id of insurance provider\n    @return the pID of the health provider -\n     */\n    function addProvider(string memory _name, bytes32 _insurerID) public returns(bytes32 pID) {\n        bytes32 id = keccak256(abi.encodePacked(_name));\n        bytes32[] memory emptyList;\n        Provider memory newProvider = Provider(id, _name, emptyList);\n        //bytes32 providerHash = keccak256(abi.encodePacked(newProvider));\n        providerMap[id] = newProvider;\n        insurerMap[_insurerID].providers.push(newProvider.id);\n        providerList.push(id);\n        emit ProviderCreated(id, _name);\n        return id;\n    }\n    function getProviders() public view returns(bytes32[] memory nice) {\n        return providerList;\n    }\n    /** @dev add an insurnace provider to the network\n    @param _name the name of the insurance provider\n    @return pID of the insurance provider\n    */\n    function addInsurer(string memory _name) public returns(bytes32 pID) {\n        bytes32 id = keccak256(abi.encodePacked(_name));\n        bytes32[] memory emptyList;\n        Insurer memory newInsurer = Insurer(id, _name, emptyList);\n        //bytes32 insurerHash = keccak256(abi.encodePacked(newInsurer));\n        insurerMap[id] = newInsurer;\n        insurerList.push(id);\n        emit InsurerCreated(id, _name);\n        return id;\n    }\n    function getInsurers() public view returns(bytes32[] memory nice) {\n        return insurerList;\n    }\n    // ------------------------------ Functionality of the Network --------------------------- //\n    /** @dev create an instance of a ServiceClaim contract\n    @param _name name of the service\n    @param _providerID provider ID\n    @param _patientID patient ID\n    @return serviceContractHash is the id of the ServiceClaim contract\n    */\n    function provideService(string memory _name, bytes32 _providerID, bytes32 _patientID, uint256 _timeProvided) public \n    returns(bytes32 serviceContractHash) {\n        bytes32 id = keccak256(abi.encodePacked(_name, _providerID, _patientID));\n        ServiceClaim serviceClaim = new ServiceClaim(_providerID, _patientID, id, _name, _timeProvided);\n        bytes32 serviceClaimID = keccak256(abi.encodePacked(address(serviceClaim)));\n        SC memory scObj = SC(address(serviceClaim), serviceClaimID, globalInsurerID, _providerID, _patientID, _name, 0, false, false);\n        scs.push(scObj);\n        serviceClaimsMap[serviceClaimID] = address(serviceClaim);\n        Patient storage patient = patientMap[_patientID];\n        //patient.unverifiedClaims.push(address(serviceClaim));\n        //SC memory newSC = SC(_name, address(serviceClaim));\n        patient.unclaimedServices.push(address(serviceClaim));\n        serviceName[address(serviceClaim)] = _name;\n        SCMap[address(serviceClaim)] = _name;\n        SCList.push(address(serviceClaim));\n        emit SCID(serviceClaimID, address(serviceClaim));\n        return serviceClaimID;\n    }\n    /** @dev add a claim to a ServiceClaim contract i.e. the provider wants to file a claim for a service rendered\n    @param _serviceClaimID the ID of the ServiceClaim contract\n    @param _amount the amount to be claimed by the provider\n    @return ClaimID the ID of the claim\n    */\n    function fileClaim(bytes32 _serviceClaimID, uint256 _amount, uint256 _timeProvided) public returns(uint256 ClaimID) {\n        //Patient storage cPatient = patientMap[_patient];\n        ServiceClaim myServiceClaim = ServiceClaim(serviceClaimsMap[_serviceClaimID]);\n        uint256 newClaimID = myServiceClaim.fileClaim(_amount, _timeProvided);\n        bytes32 patID = myServiceClaim.patientID();\n        Patient storage cP = patientMap[patID];\n        claimList.push(_serviceClaimID);\n        for(uint i = 0; i < cP.unclaimedServices.length; i++){\n            if(cP.unclaimedServices[i] == address(myServiceClaim)){\n                delete(cP.unclaimedServices[i]);\n                break;\n            }\n        }\n        // string memory name = myServiceClaim.name();\n        //SC memory newSC = SC(name, address(myServiceClaim));\n        cP.unverifiedClaims.push(address(myServiceClaim));\n        emit ClaimCreated(newClaimID, _amount);\n        //emit SCEvent(newSC);\n        return newClaimID;\n    }\n \n    /** @dev invoke the verifyClaim function in the ServiceClaim contract\n    @param _serviceClaimID the id of the ServiceClaim contract\n    */\n    /** @dev invoke the verifyClaim function in the ServiceClaim contract\n    @param _serviceClaimAddress the address of the ServiceClaim contract\n    */\n    function verifyClaim(address _serviceClaimAddress, uint256 _timeVerified) public {\n        ServiceClaim myServiceClaim = ServiceClaim(_serviceClaimAddress);\n        require(myServiceClaim.verifyClaim(_timeVerified), \"Claim was not Verified\");\n        // Add the claim address to verified list\n        // Delete the claim address from unverified list\n        bytes32 patID = myServiceClaim.patientID();\n        Patient storage cP = patientMap[patID];\n        for(uint i = 0; i < cP.unverifiedClaims.length; i++){\n            if(cP.unverifiedClaims[i] == address(myServiceClaim)){\n                delete(cP.unverifiedClaims[i]);\n                break;\n            }\n        }\n        //string memory name = myServiceClaim.name();\n        //SC memory newSC = SC(name, address(myServiceClaim));\n        cP.verifiedClaims.push(address(myServiceClaim));\n        emit ClaimVerified(_serviceClaimAddress);\n    }\n    /** @dev invoke the payProvider function in the ServiceClaim contract\n    @param _serviceClaimID the id of the ServiceClaim contract\n    */\n    function payProvider(bytes32 _serviceClaimID) public {\n        //require(_serviceClaim.claim().verified == true, \"User has not verified service\");\n        ServiceClaim myServiceClaim = ServiceClaim(serviceClaimsMap[_serviceClaimID]);\n        myServiceClaim.payProvider();\n    }\n    // ------------------------------ Getters of Network Data --------------------------- //\n    function patientsOfProvider(bytes32 _id) public returns (bytes32[] memory) {\n        Provider storage cP = providerMap[_id];\n        emit idList(cP.patients);\n        return(cP.patients);\n    }\n    function providersOfInsurer(bytes32 _id) public returns (bytes32[] memory) {\n        Insurer storage cI = insurerMap[_id];\n        emit idList(cI.providers);\n        return(cI.providers);\n    }\n    function getPatient(bytes32 _id) public returns (bool){\n        Patient memory patient = patientMap[_id];\n        emit PatientRetrieval(patient);\n        return true;\n    }\n    function getProvider(bytes32 _id) public returns (Provider memory){\n        Provider memory provider = providerMap[_id];\n        emit ProviderRetrieval(provider);\n        return providerMap[_id];\n    }\n    function patientUnclaimedServices(bytes32 _id) public returns (address[] memory){\n        Patient storage cP = patientMap[_id];\n        emit serviceList(cP.unclaimedServices);\n        for(uint i = 0; i < cP.unclaimedServices.length; i++){\n            emit SCName(SCMap[cP.unclaimedServices[i]]);\n        }\n        return(cP.unclaimedServices);\n        // address[] memory a;\n        // return a;\n    }\n    function patientUnverifiedClaims(bytes32 _id) public returns (address[] memory){\n        Patient storage cP = patientMap[_id];\n        //bytes32[] memory claimNames = new bytes32[](cP.unverifiedClaims.length);\n        for(uint i = 0; i < cP.unverifiedClaims.length; i++){\n            emit SCName(SCMap[cP.unverifiedClaims[i]]);\n        }\n        emit serviceList(cP.unverifiedClaims);\n        return(cP.unverifiedClaims);\n        // address[] memory a;\n        // return a;\n    }\n    function patientVerifiedClaims(bytes32 _id) public returns (address[] memory){\n        Patient storage cP = patientMap[_id];\n        emit serviceList(cP.verifiedClaims);\n        for(uint i = 0; i < cP.verifiedClaims.length; i++){\n            emit SCName(SCMap[cP.verifiedClaims[i]]);\n        }\n        return(cP.verifiedClaims);\n        // address[] memory a;\n        // return a;\n    }\n    function setAdmin(uint _num) public {\n        admin = _num;\n    }\n    function getAdmin() public view returns (uint) {\n        return admin;\n    }\n    //   event ServiceClaimInfo(address addr, bytes32 id, bytes32 provider, bytes32 patient, uint256 amount, bool verified, bool payed);\n    function getAllServices() public {\n        for (uint i = 0; i < SCList.length; i++) {\n            ServiceClaim sc = ServiceClaim(SCList[i]);\n            string memory patientname = patientMap[sc.patientID()].name;\n            string memory providername = providerMap[sc.providerID()].name;\n            if(sc.timeProvided() > 0){\n                emit ServiceClaimInfo(\n                address(sc), patientname, providername, sc.name(), sc.serviceClaimID(), sc.providerID(), sc.patientID(), sc.amount(), sc.paid(), sc.timeProvided(), sc.timeFiled(), sc.timeVerified());\n            }\n        }\n    }\n    function getAllVerifiedServices() public {\n        for (uint i = 0; i < SCList.length; i++) {\n            ServiceClaim sc = ServiceClaim(SCList[i]);\n            string memory patientname = patientMap[sc.patientID()].name;\n            string memory providername = providerMap[sc.providerID()].name;\n            if (sc.timeVerified() > 0) {\n                emit ServiceClaimInfo(address(sc), patientname, providername, sc.name(), sc.serviceClaimID(), sc.providerID(), sc.patientID(), sc.amount(), sc.paid(), sc.timeProvided(), sc.timeFiled(), sc.timeVerified());\n            }\n        }\n    }\n    function getAllUnverifiedServices() public {\n        for (uint i = 0; i < SCList.length; i++) {\n            ServiceClaim sc = ServiceClaim(SCList[i]);\n            string memory patientname = patientMap[sc.patientID()].name;\n            string memory providername = providerMap[sc.providerID()].name;\n            if (sc.timeFiled() > 0 && sc.timeProvided() > 0) {\n                emit ServiceClaimInfo(address(sc), patientname, providername, sc.name(), sc.serviceClaimID(), sc.providerID(), sc.patientID(), sc.amount(), sc.paid(), sc.timeProvided(), sc.timeFiled(), sc.timeVerified());\n            }\n        }\n    }\n}\n",
  "sourcePath": "/Users/danny/sdsc-blocklab/Medicare-Claim-Verification/contracts/Organizations.sol",
  "compiler": {
    "name": "solc",
    "version": "0.5.11+commit.c082d0b4.Emscripten.clang"
  },
  "schemaVersion": "3.0.16",
  "updatedAt": "2019-09-19T05:20:49.608Z",
  "devdoc": {
    "methods": {
      "addInsurer(string)": {
        "details": "add an insurnace provider to the network",
        "params": {
          "_name": "the name of the insurance provider"
        },
        "return": "pID of the insurance provider"
      },
      "addPatient(string,bytes32)": {
        "details": "add a patient to the network",
        "params": {
          "_name": "is the name of the patient",
          "_providerID": "is the current provider of the patient"
        },
        "return": "pID is a bytes32 represented id number for the patient"
      },
      "addProvider(string,bytes32)": {
        "details": "add a provider to the network",
        "params": {
          "_insurerID": "id of insurance provider",
          "_name": "name of the provider"
        },
        "return": "the pID of the health provider -"
      },
      "fileClaim(bytes32,uint256,uint256)": {
        "details": "add a claim to a ServiceClaim contract i.e. the provider wants to file a claim for a service rendered",
        "params": {
          "_amount": "the amount to be claimed by the provider",
          "_serviceClaimID": "the ID of the ServiceClaim contract"
        },
        "return": "ClaimID the ID of the claim"
      },
      "payProvider(bytes32)": {
        "details": "invoke the payProvider function in the ServiceClaim contract",
        "params": {
          "_serviceClaimID": "the id of the ServiceClaim contract"
        }
      },
      "provideService(string,bytes32,bytes32,uint256)": {
        "details": "create an instance of a ServiceClaim contract",
        "params": {
          "_name": "name of the service",
          "_patientID": "patient ID",
          "_providerID": "provider ID"
        },
        "return": "serviceContractHash is the id of the ServiceClaim contract"
      },
      "verifyClaim(address,uint256)": {
        "details": "invoke the verifyClaim function in the ServiceClaim contract",
        "params": {
          "_serviceClaimAddress": "the address of the ServiceClaim contract"
        }
      }
    }
  },
  "userdoc": {
    "methods": {}
  }
}