{
  "contractName": "Organizations",
  "abi": [
    {
      "inputs": [
        {
          "internalType": "address",
          "name": "_tokenAddr",
          "type": "address"
        }
      ],
      "payable": false,
      "stateMutability": "nonpayable",
      "type": "constructor"
    },
    {
      "anonymous": false,
      "inputs": [
        {
          "indexed": false,
          "internalType": "uint256",
          "name": "id",
          "type": "uint256"
        },
        {
          "indexed": false,
          "internalType": "uint256",
          "name": "amount",
          "type": "uint256"
        }
      ],
      "name": "ClaimCreated",
      "type": "event"
    },
    {
      "anonymous": false,
      "inputs": [
        {
          "indexed": false,
          "internalType": "bytes32",
          "name": "id",
          "type": "bytes32"
        }
      ],
      "name": "ClaimVerified",
      "type": "event"
    },
    {
      "anonymous": false,
      "inputs": [
        {
          "indexed": false,
          "internalType": "bytes32",
          "name": "id",
          "type": "bytes32"
        },
        {
          "indexed": false,
          "internalType": "string",
          "name": "name",
          "type": "string"
        }
      ],
      "name": "InsurerCreated",
      "type": "event"
    },
    {
      "anonymous": false,
      "inputs": [
        {
          "indexed": false,
          "internalType": "bytes32",
          "name": "id",
          "type": "bytes32"
        },
        {
          "indexed": false,
          "internalType": "string",
          "name": "name",
          "type": "string"
        }
      ],
      "name": "PatientCreated",
      "type": "event"
    },
    {
      "anonymous": false,
      "inputs": [
        {
          "components": [
            {
              "internalType": "bytes32",
              "name": "id",
              "type": "bytes32"
            },
            {
              "internalType": "string",
              "name": "name",
              "type": "string"
            },
            {
              "internalType": "address[]",
              "name": "unclaimedServices",
              "type": "address[]"
            },
            {
              "internalType": "address[]",
              "name": "unverifiedClaims",
              "type": "address[]"
            },
            {
              "internalType": "address[]",
              "name": "verifiedClaims",
              "type": "address[]"
            }
          ],
          "indexed": false,
          "internalType": "struct Organizations.Patient",
          "name": "patient",
          "type": "tuple"
        }
      ],
      "name": "PatientRetrieval",
      "type": "event"
    },
    {
      "anonymous": false,
      "inputs": [
        {
          "indexed": false,
          "internalType": "bytes32",
          "name": "id",
          "type": "bytes32"
        },
        {
          "indexed": false,
          "internalType": "string",
          "name": "name",
          "type": "string"
        }
      ],
      "name": "ProviderCreated",
      "type": "event"
    },
    {
      "anonymous": false,
      "inputs": [
        {
          "components": [
            {
              "internalType": "bytes32",
              "name": "id",
              "type": "bytes32"
            },
            {
              "internalType": "string",
              "name": "name",
              "type": "string"
            },
            {
              "internalType": "bytes32[]",
              "name": "patients",
              "type": "bytes32[]"
            }
          ],
          "indexed": false,
          "internalType": "struct Organizations.Provider",
          "name": "provider",
          "type": "tuple"
        }
      ],
      "name": "ProviderRetrieval",
      "type": "event"
    },
    {
      "anonymous": false,
      "inputs": [
        {
          "indexed": false,
          "internalType": "bytes32",
          "name": "ID",
          "type": "bytes32"
        },
        {
          "indexed": false,
          "internalType": "address",
          "name": "addr",
          "type": "address"
        }
      ],
      "name": "SCID",
      "type": "event"
    },
    {
      "anonymous": false,
      "inputs": [
        {
          "indexed": false,
          "internalType": "bytes32[]",
          "name": "ids",
          "type": "bytes32[]"
        }
      ],
      "name": "idList",
      "type": "event"
    },
    {
      "anonymous": false,
      "inputs": [
        {
          "indexed": false,
          "internalType": "address[]",
          "name": "services",
          "type": "address[]"
        }
      ],
      "name": "serviceList",
      "type": "event"
    },
    {
      "constant": true,
      "inputs": [
        {
          "internalType": "bytes32",
          "name": "",
          "type": "bytes32"
        }
      ],
      "name": "insurerMap",
      "outputs": [
        {
          "internalType": "bytes32",
          "name": "id",
          "type": "bytes32"
        },
        {
          "internalType": "string",
          "name": "name",
          "type": "string"
        }
      ],
      "payable": false,
      "stateMutability": "view",
      "type": "function"
    },
    {
      "constant": true,
      "inputs": [
        {
          "internalType": "bytes32",
          "name": "",
          "type": "bytes32"
        }
      ],
      "name": "patientMap",
      "outputs": [
        {
          "internalType": "bytes32",
          "name": "id",
          "type": "bytes32"
        },
        {
          "internalType": "string",
          "name": "name",
          "type": "string"
        }
      ],
      "payable": false,
      "stateMutability": "view",
      "type": "function"
    },
    {
      "constant": true,
      "inputs": [
        {
          "internalType": "bytes32",
          "name": "",
          "type": "bytes32"
        }
      ],
      "name": "providerMap",
      "outputs": [
        {
          "internalType": "bytes32",
          "name": "id",
          "type": "bytes32"
        },
        {
          "internalType": "string",
          "name": "name",
          "type": "string"
        }
      ],
      "payable": false,
      "stateMutability": "view",
      "type": "function"
    },
    {
      "constant": true,
      "inputs": [
        {
          "internalType": "bytes32",
          "name": "",
          "type": "bytes32"
        }
      ],
      "name": "serviceClaimsMap",
      "outputs": [
        {
          "internalType": "address",
          "name": "",
          "type": "address"
        }
      ],
      "payable": false,
      "stateMutability": "view",
      "type": "function"
    },
    {
      "constant": true,
      "inputs": [],
      "name": "token",
      "outputs": [
        {
          "internalType": "contract AEECToken",
          "name": "",
          "type": "address"
        }
      ],
      "payable": false,
      "stateMutability": "view",
      "type": "function"
    },
    {
      "constant": false,
      "inputs": [],
      "name": "preLoadInfo",
      "outputs": [],
      "payable": false,
      "stateMutability": "nonpayable",
      "type": "function"
    },
    {
      "constant": false,
      "inputs": [
        {
          "internalType": "string",
          "name": "_name",
          "type": "string"
        },
        {
          "internalType": "bytes32",
          "name": "_providerID",
          "type": "bytes32"
        }
      ],
      "name": "addPatient",
      "outputs": [
        {
          "internalType": "bytes32",
          "name": "pID",
          "type": "bytes32"
        }
      ],
      "payable": false,
      "stateMutability": "nonpayable",
      "type": "function"
    },
    {
      "constant": false,
      "inputs": [
        {
          "internalType": "string",
          "name": "_name",
          "type": "string"
        },
        {
          "internalType": "bytes32",
          "name": "_insurerID",
          "type": "bytes32"
        }
      ],
      "name": "addProvider",
      "outputs": [
        {
          "internalType": "bytes32",
          "name": "pID",
          "type": "bytes32"
        }
      ],
      "payable": false,
      "stateMutability": "nonpayable",
      "type": "function"
    },
    {
      "constant": false,
      "inputs": [
        {
          "internalType": "string",
          "name": "_name",
          "type": "string"
        }
      ],
      "name": "addInsurer",
      "outputs": [
        {
          "internalType": "bytes32",
          "name": "pID",
          "type": "bytes32"
        }
      ],
      "payable": false,
      "stateMutability": "nonpayable",
      "type": "function"
    },
    {
      "constant": false,
      "inputs": [
        {
          "internalType": "string",
          "name": "_name",
          "type": "string"
        },
        {
          "internalType": "bytes32",
          "name": "_providerID",
          "type": "bytes32"
        },
        {
          "internalType": "bytes32",
          "name": "_patientID",
          "type": "bytes32"
        }
      ],
      "name": "provideService",
      "outputs": [
        {
          "internalType": "bytes32",
          "name": "serviceContractHash",
          "type": "bytes32"
        }
      ],
      "payable": false,
      "stateMutability": "nonpayable",
      "type": "function"
    },
    {
      "constant": false,
      "inputs": [
        {
          "internalType": "bytes32",
          "name": "_serviceClaimID",
          "type": "bytes32"
        },
        {
          "internalType": "uint256",
          "name": "_amount",
          "type": "uint256"
        }
      ],
      "name": "fileClaim",
      "outputs": [
        {
          "internalType": "uint256",
          "name": "ClaimID",
          "type": "uint256"
        }
      ],
      "payable": false,
      "stateMutability": "nonpayable",
      "type": "function"
    },
    {
      "constant": false,
      "inputs": [
        {
          "internalType": "bytes32",
          "name": "_serviceClaimID",
          "type": "bytes32"
        }
      ],
      "name": "verifyClaim",
      "outputs": [],
      "payable": false,
      "stateMutability": "nonpayable",
      "type": "function"
    },
    {
      "constant": false,
      "inputs": [
        {
          "internalType": "bytes32",
          "name": "_serviceClaimID",
          "type": "bytes32"
        }
      ],
      "name": "payProvider",
      "outputs": [],
      "payable": false,
      "stateMutability": "nonpayable",
      "type": "function"
    },
    {
      "constant": false,
      "inputs": [
        {
          "internalType": "bytes32",
          "name": "_id",
          "type": "bytes32"
        }
      ],
      "name": "patientsOfProvider",
      "outputs": [
        {
          "internalType": "bytes32[]",
          "name": "",
          "type": "bytes32[]"
        }
      ],
      "payable": false,
      "stateMutability": "nonpayable",
      "type": "function"
    },
    {
      "constant": false,
      "inputs": [
        {
          "internalType": "bytes32",
          "name": "_id",
          "type": "bytes32"
        }
      ],
      "name": "providersOfInsurer",
      "outputs": [
        {
          "internalType": "bytes32[]",
          "name": "",
          "type": "bytes32[]"
        }
      ],
      "payable": false,
      "stateMutability": "nonpayable",
      "type": "function"
    },
    {
      "constant": false,
      "inputs": [
        {
          "internalType": "bytes32",
          "name": "_id",
          "type": "bytes32"
        }
      ],
      "name": "getPatient",
      "outputs": [
        {
          "components": [
            {
              "internalType": "bytes32",
              "name": "id",
              "type": "bytes32"
            },
            {
              "internalType": "string",
              "name": "name",
              "type": "string"
            },
            {
              "internalType": "address[]",
              "name": "unclaimedServices",
              "type": "address[]"
            },
            {
              "internalType": "address[]",
              "name": "unverifiedClaims",
              "type": "address[]"
            },
            {
              "internalType": "address[]",
              "name": "verifiedClaims",
              "type": "address[]"
            }
          ],
          "internalType": "struct Organizations.Patient",
          "name": "",
          "type": "tuple"
        }
      ],
      "payable": false,
      "stateMutability": "nonpayable",
      "type": "function"
    },
    {
      "constant": false,
      "inputs": [
        {
          "internalType": "bytes32",
          "name": "_id",
          "type": "bytes32"
        }
      ],
      "name": "getProvider",
      "outputs": [
        {
          "components": [
            {
              "internalType": "bytes32",
              "name": "id",
              "type": "bytes32"
            },
            {
              "internalType": "string",
              "name": "name",
              "type": "string"
            },
            {
              "internalType": "bytes32[]",
              "name": "patients",
              "type": "bytes32[]"
            }
          ],
          "internalType": "struct Organizations.Provider",
          "name": "",
          "type": "tuple"
        }
      ],
      "payable": false,
      "stateMutability": "nonpayable",
      "type": "function"
    },
    {
      "constant": false,
      "inputs": [
        {
          "internalType": "bytes32",
          "name": "_id",
          "type": "bytes32"
        }
      ],
      "name": "patientUnclaimedServices",
      "outputs": [
        {
          "internalType": "address[]",
          "name": "",
          "type": "address[]"
        }
      ],
      "payable": false,
      "stateMutability": "nonpayable",
      "type": "function"
    },
    {
      "constant": false,
      "inputs": [
        {
          "internalType": "bytes32",
          "name": "_id",
          "type": "bytes32"
        }
      ],
      "name": "patientUnverifiedClaims",
      "outputs": [
        {
          "internalType": "address[]",
          "name": "",
          "type": "address[]"
        }
      ],
      "payable": false,
      "stateMutability": "nonpayable",
      "type": "function"
    },
    {
      "constant": false,
      "inputs": [
        {
          "internalType": "bytes32",
          "name": "_id",
          "type": "bytes32"
        }
      ],
      "name": "patientVerifiedClaims",
      "outputs": [
        {
          "internalType": "address[]",
          "name": "",
          "type": "address[]"
        }
      ],
      "payable": false,
      "stateMutability": "nonpayable",
      "type": "function"
    },
    {
      "constant": true,
      "inputs": [],
      "name": "getToken",
      "outputs": [
        {
          "internalType": "address",
          "name": "",
          "type": "address"
        }
      ],
      "payable": false,
      "stateMutability": "view",
      "type": "function"
    },
    {
      "constant": false,
      "inputs": [
        {
          "internalType": "uint256",
          "name": "_num",
          "type": "uint256"
        }
      ],
      "name": "setAdmin",
      "outputs": [],
      "payable": false,
      "stateMutability": "nonpayable",
      "type": "function"
    },
    {
      "constant": true,
      "inputs": [],
      "name": "getAdmin",
      "outputs": [
        {
          "internalType": "uint256",
          "name": "",
          "type": "uint256"
        }
      ],
      "payable": false,
      "stateMutability": "view",
      "type": "function"
    }
  ],
  "bytecode": "0x60806040523480156200001157600080fd5b506040516200316838038062003168833981016040819052620000349162000797565b620000476001600160e01b03620000e716565b600180546001600160a01b0319166001600160a01b0383811691909117918290556040517f4e6ec247000000000000000000000000000000000000000000000000000000008152911690634e6ec24790620000ac903090620f42409060040162000871565b600060405180830381600087803b158015620000c757600080fd5b505af1158015620000dc573d6000803e3d6000fd5b50505050506200093c565b60006200012f6040518060400160405280600381526020017f434d5300000000000000000000000000000000000000000000000000000000008152506200025c60201b60201c565b905060006200017a6040518060400160405280600c81526020017f55435344204d65646963616c0000000000000000000000000000000000000000815250836200034660201b60201c565b9050620001c36040518060400160405280600381526020017f4b656e0000000000000000000000000000000000000000000000000000000000815250826200045f60201b60201c565b5060408051808201909152600581527f44616e6e7900000000000000000000000000000000000000000000000000000060208201526200020d90826001600160e01b036200045f16565b5060408051808201909152600781527f416e746f6e696f0000000000000000000000000000000000000000000000000060208201526200025790826001600160e01b036200045f16565b505050565b600080826040516020016200027291906200085c565b604051602081830303815290604052805190602001209050606062000296620005c5565b50604080516060810182528381526020808201878152828401859052600086815260068352939093208251815592518051929384939092620002e0926001850192910190620005e9565b5060408201518051620002fe9160028401916020909101906200066e565b509050507ff73cee28a98c20f23a903356ab57dc8c514e66b0488c994b09dec06f978c839b83866040516200033592919062000890565b60405180910390a150909392505050565b600080836040516020016200035c91906200085c565b604051602081830303815290604052805190602001209050606062000380620005c5565b50604080516060810182528381526020808201888152828401859052600086815260058352939093208251815592518051929384939092620003ca926001850192910190620005e9565b5060408201518051620003e89160028401916020909101906200066e565b50505060008581526006602090815260408083208451600290910180546001810182559085529290932090910191909155517f7dd222c7de5c7ba42d121aa7e2acc9d5d4a47c2eb31f55385cf51cbe459c5c9b906200044b908590899062000890565b60405180910390a150909150505b92915050565b600080836040516020016200047591906200085c565b60405160208183030381529060405280519060200120905060608060606200049c620006ab565b506040805160a08101825285815260208082018a81528284018790526060830186905260808301859052600088815260048352939093208251815592518051929384939092620004f4926001850192910190620005e9565b506040820151805162000512916002840191602090910190620006dd565b506060820151805162000530916003840191602090910190620006dd565b50608082015180516200054e916004840191602090910190620006dd565b50505060008781526005602090815260408083208451600290910180546001810182559085529290932090910191909155517f86ec8adc6f97da0327b3e1dcc24fa25aea5eb7afcf6af08792e4b2d4d799fad890620005b19087908b9062000890565b60405180910390a150929695505050505050565b60405180606001604052806000801916815260200160608152602001606081525090565b828054600181600116156101000203166002900490600052602060002090601f016020900481019282601f106200062c57805160ff19168380011785556200065c565b828001600101855582156200065c579182015b828111156200065c5782518255916020019190600101906200063f565b506200066a92915062000743565b5090565b8280548282559060005260206000209081019282156200065c57916020028201828111156200065c5782518255916020019190600101906200063f565b6040518060a0016040528060008019168152602001606081526020016060815260200160608152602001606081525090565b82805482825590600052602060002090810192821562000735579160200282015b828111156200073557825182546001600160a01b0319166001600160a01b03909116178255602090920191600190910190620006fe565b506200066a92915062000763565b6200076091905b808211156200066a57600081556001016200074a565b90565b6200076091905b808211156200066a5780546001600160a01b03191681556001016200076a565b8051620004598162000922565b600060208284031215620007aa57600080fd5b6000620007b884846200078a565b949350505050565b620007cb81620008c6565b82525050565b620007cb8162000760565b620007cb81620008d8565b6000620007f482620008b4565b620008008185620008b8565b935062000812818560208601620008e5565b6200081d8162000918565b9093019392505050565b60006200083482620008b4565b620008408185620008c1565b935062000852818560208601620008e5565b9290920192915050565b60006200086a828462000827565b9392505050565b60408101620008818285620007c0565b6200086a6020830184620007dc565b60408101620008a08285620007d1565b8181036020830152620007b88184620007e7565b5190565b90815260200190565b919050565b60006001600160a01b03821662000459565b6000620004598262000760565b60005b8381101562000902578181015183820152602001620008e8565b8381111562000912576000848401525b50505050565b601f01601f191690565b6200092d81620008c6565b81146200093957600080fd5b50565b61281c806200094c6000396000f3fe60806040523480156200001157600080fd5b50600436106200016c5760003560e01c80636e9960c311620000d5578063a46bfff91162000087578063a46bfff91462000346578063dd238925146200035d578063e0e87b1a1462000374578063ece7ac2b146200038b578063ee3d52b314620003a2578063fc0c546a14620003b9576200016c565b80636e9960c314620002ab578063740044b414620002b55780637899a34e14620002cc57806392398fbb14620002f25780639594c99e14620003095780639c860b8a1462000320576200016c565b806333c0950a116200012f57806333c0950a146200021d57806335b73510146200024357806339160aa7146200025c5780633e7e072e14620002735780633f1e172d146200028a57806340f106531462000294576200016c565b8063085683ff146200017157806321dd828514620001a057806321df0da714620001c65780632470d25e14620001df5780632bde2a8614620001f6575b600080fd5b620001886200018236600462001b81565b620003d2565b604051620001979190620020d7565b60405180910390f35b620001b7620001b136600462001a8d565b62000512565b6040516200019791906200208b565b620001d0620005c9565b6040516200019791906200207b565b620001d0620001f036600462001a8d565b620005d9565b6200020d6200020736600462001a8d565b620005f4565b6040516200019792919062002152565b620002346200022e36600462001a8d565b6200069f565b604051620001979190620021ab565b6200025a6200025436600462001a8d565b62000946565b005b6200020d6200026d36600462001a8d565b62000b72565b620001886200028436600462001b47565b62000be7565b6200025a62000d00565b62000188620002a536600462001acf565b62000de0565b6200018862000ff6565b62000188620002c636600462001b47565b62000ffc565b620002e3620002dd36600462001a8d565b62001162565b60405162000197919062002198565b6200020d6200030336600462001a8d565b620013b1565b620001b76200031a36600462001a8d565b62001426565b620003376200033136600462001a8d565b620014db565b604051620001979190620020b1565b620003376200035736600462001a8d565b62001587565b620001886200036e36600462001b0e565b620015cf565b6200025a6200038536600462001a8d565b620016b9565b620001b76200039c36600462001a8d565b62001748565b6200025a620003b336600462001a8d565b620017fd565b620003c362001802565b60405162000197919062002176565b600080848484604051602001620003ec9392919062002042565b604051602081830303815290604052805190602001209050600084848388604051620004189062001811565b62000427949392919062002106565b604051809103906000f08015801562000444573d6000803e3d6000fd5b5090506000816040516020016200045c91906200201d565b60408051601f19818403018152828252805160209182012060008181526007835283812080546001600160a01b0389166001600160a01b031991821681179092558b835260048552948220600281018054600181018255908452949092209093018054909416909217909255909250907f2cdb195d7226065901c0e37d742237ac3e30d6dc0ce7faf49701f6ec9f0bd1ed90620004fd9084908690620020e7565b60405180910390a150925050505b9392505050565b600081815260046020526040908190209051606091907fa1c275d9147cd4bbf3a6fc6b01df2bdad7272d62a5bea8ea5f90e20e7c3f48e9906200055a9060038401906200209e565b60405180910390a180600301805480602002602001604051908101604052809291908181526020018280548015620005bc57602002820191906000526020600020905b81546001600160a01b031681526001909101906020018083116200059d575b5050505050915050919050565b6001546001600160a01b03165b90565b6007602052600090815260409020546001600160a01b031681565b6005602090815260009182526040918290208054600180830180548651600293821615610100026000190190911692909204601f810186900486028301860190965285825291949293909290830182828015620006955780601f10620006695761010080835404028352916020019162000695565b820191906000526020600020905b8154815290600101906020018083116200067757829003601f168201915b5050505050905082565b620006a96200181f565b620006b36200181f565b6005600084815260200190815260200160002060405180606001604052908160008201548152602001600182018054600181600116156101000203166002900480601f016020809104026020016040519081016040528092919081815260200182805460018160011615610100020316600290048015620007785780601f106200074c5761010080835404028352916020019162000778565b820191906000526020600020905b8154815290600101906020018083116200075a57829003601f168201915b5050505050815260200160028201805480602002602001604051908101604052809291908181526020018280548015620007d257602002820191906000526020600020905b815481526020019060010190808311620007bd575b50505050508152505090507f8c6b3078bf6d713aeae5b1ccc2dfea387cbb876de1a5c9d81a4e22d4e832c546816040516200080e9190620021ab565b60405180910390a16005600084815260200190815260200160002060405180606001604052908160008201548152602001600182018054600181600116156101000203166002900480601f016020809104026020016040519081016040528092919081815260200182805460018160011615610100020316600290048015620008db5780601f10620008af57610100808354040283529160200191620008db565b820191906000526020600020905b815481529060010190602001808311620008bd57829003601f168201915b50505050508152602001600282018054806020026020016040519081016040528092919081815260200182805480156200093557602002820191906000526020600020905b81548152602001906001019080831162000920575b505050505081525050915050919050565b600081815260076020908152604080832054815163844cdf0960e01b815291516001600160a01b0390911693849363844cdf09936004808201949293918390030190829087803b1580156200099a57600080fd5b505af1158015620009af573d6000803e3d6000fd5b505050506040513d601f19601f82011682018060405250620009d5919081019062001a64565b620009fd5760405162461bcd60e51b8152600401620009f49062002186565b60405180910390fd5b6000816001600160a01b031663f680a7bd6040518163ffffffff1660e01b815260040160206040518083038186803b15801562000a3957600080fd5b505afa15801562000a4e573d6000803e3d6000fd5b505050506040513d601f19601f8201168201806040525062000a74919081019062001aae565b60008181526004602052604081209192505b600382015481101562000b0157836001600160a01b031682600301828154811062000aad57fe5b6000918252602090912001546001600160a01b0316141562000af85781600301818154811062000ad957fe5b600091825260209091200180546001600160a01b031916905562000b01565b60010162000a86565b50600481018054600181018255600091825260209091200180546001600160a01b0319166001600160a01b0385161790556040517fbb7f69e49157b8f7bbfd20ddd9be754be60972bae5723181eca78ea390fdf8569062000b64908690620020d7565b60405180910390a150505050565b6006602090815260009182526040918290208054600180830180548651600293821615610100026000190190911692909204601f810186900486028301860190965285825291949293909290830182828015620006955780601f10620006695761010080835404028352916020019162000695565b6000808360405160200162000bfd919062002034565b604051602081830303815290604052805190602001209050606062000c216200181f565b5060408051606081018252838152602080820188815282840185905260008681526005835293909320825181559251805192938493909262000c6b92600185019291019062001843565b506040820151805162000c89916002840191602090910190620018c8565b50505060008581526006602090815260408083208451600290910180546001810182559085529290932090910191909155517f7dd222c7de5c7ba42d121aa7e2acc9d5d4a47c2eb31f55385cf51cbe459c5c9b9062000cec908590899062002152565b60405180910390a150909150505b92915050565b600062000d2860405180604001604052806003815260200162434d5360e81b815250620015cf565b9050600062000d5c6040518060400160405280600c81526020016b1550d4d1081359591a58d85b60a21b8152508362000be7565b905062000d856040518060400160405280600381526020016225b2b760e91b8152508262000ffc565b5062000daf6040518060400160405280600581526020016444616e6e7960d81b8152508262000ffc565b5062000ddb60405180604001604052806007815260200166416e746f6e696f60c81b8152508262000ffc565b505050565b60008281526007602052604080822054905163d61909f960e01b81526001600160a01b03909116908290829063d61909f99062000e22908790600401620020d7565b602060405180830381600087803b15801562000e3d57600080fd5b505af115801562000e52573d6000803e3d6000fd5b505050506040513d601f19601f8201168201806040525062000e78919081019062001aae565b90506000826001600160a01b031663f680a7bd6040518163ffffffff1660e01b815260040160206040518083038186803b15801562000eb657600080fd5b505afa15801562000ecb573d6000803e3d6000fd5b505050506040513d601f19601f8201168201806040525062000ef1919081019062001aae565b60008181526004602052604081209192505b600282015481101562000f7e57846001600160a01b031682600201828154811062000f2a57fe5b6000918252602090912001546001600160a01b0316141562000f755781600201818154811062000f5657fe5b600091825260209091200180546001600160a01b031916905562000f7e565b60010162000f03565b50600381018054600181018255600091825260209091200180546001600160a01b0319166001600160a01b0386161790556040517f96e3875898071e5d91932eb150a3914f9fe70e473f6faeaad697e99a48937c9c9062000fe39085908990620021be565b60405180910390a1509095945050505050565b60005490565b6000808360405160200162001012919062002034565b60405160208183030381529060405280519060200120905060608060606200103962001905565b506040805160a08101825285815260208082018a815282840187905260608301869052608083018590526000888152600483529390932082518155925180519293849390926200109192600185019291019062001843565b5060408201518051620010af91600284019160209091019062001937565b5060608201518051620010cd91600384019160209091019062001937565b5060808201518051620010eb91600484019160209091019062001937565b50505060008781526005602090815260408083208451600290910180546001810182559085529290932090910191909155517f86ec8adc6f97da0327b3e1dcc24fa25aea5eb7afcf6af08792e4b2d4d799fad8906200114e9087908b9062002152565b60405180910390a150929695505050505050565b6200116c62001905565b6200117662001905565b600460008481526020019081526020016000206040518060a001604052908160008201548152602001600182018054600181600116156101000203166002900480601f0160208091040260200160405190810160405280929190818152602001828054600181600116156101000203166002900480156200123b5780601f106200120f576101008083540402835291602001916200123b565b820191906000526020600020905b8154815290600101906020018083116200121d57829003601f168201915b50505050508152602001600282018054806020026020016040519081016040528092919081815260200182805480156200129f57602002820191906000526020600020905b81546001600160a01b0316815260019091019060200180831162001280575b50505050508152602001600382018054806020026020016040519081016040528092919081815260200182805480156200130357602002820191906000526020600020905b81546001600160a01b03168152600190910190602001808311620012e4575b50505050508152602001600482018054806020026020016040519081016040528092919081815260200182805480156200136757602002820191906000526020600020905b81546001600160a01b0316815260019091019060200180831162001348575b50505050508152505090507f7822df68ea6ba88fa17a55a6c6fe1f7207c1653493392725ce9da7f61f8b601d81604051620013a3919062002198565b60405180910390a192915050565b6004602090815260009182526040918290208054600180830180548651600293821615610100026000190190911692909204601f810186900486028301860190965285825291949293909290830182828015620006955780601f10620006695761010080835404028352916020019162000695565b600081815260046020526040908190209051606091907fa1c275d9147cd4bbf3a6fc6b01df2bdad7272d62a5bea8ea5f90e20e7c3f48e9906200146e9060028401906200209e565b60405180910390a180600201805480602002602001604051908101604052809291908181526020018280548015620005bc576020028201919060005260206000209081546001600160a01b031681526001909101906020018083116200059d575050505050915050919050565b600081815260066020526040908190209051606091907f1c7aaf504355c6134470b4070ca50bf276d45d0205aa86ef6bd15c684ae710c49062001523906002840190620020c4565b60405180910390a180600201805480602002602001604051908101604052809291908181526020018280548015620005bc57602002820191906000526020600020905b81548152602001906001019080831162001566575050505050915050919050565b600081815260056020526040908190209051606091907f1c7aaf504355c6134470b4070ca50bf276d45d0205aa86ef6bd15c684ae710c49062001523906002840190620020c4565b60008082604051602001620015e5919062002034565b6040516020818303038152906040528051906020012090506060620016096200181f565b506040805160608101825283815260208082018781528284018590526000868152600683529390932082518155925180519293849390926200165392600185019291019062001843565b506040820151805162001671916002840191602090910190620018c8565b509050507ff73cee28a98c20f23a903356ab57dc8c514e66b0488c994b09dec06f978c839b8386604051620016a892919062002152565b60405180910390a150909392505050565b60008181526007602090815260408083205481516398d6a37360e01b815291516001600160a01b039091169384936398d6a373936004808201949293918390030190829087803b1580156200170d57600080fd5b505af115801562001722573d6000803e3d6000fd5b505050506040513d601f19601f8201168201806040525062000ddb919081019062001a64565b6000818152600460208190526040918290209151606092917fa1c275d9147cd4bbf3a6fc6b01df2bdad7272d62a5bea8ea5f90e20e7c3f48e99162001790918401906200209e565b60405180910390a180600401805480602002602001604051908101604052809291908181526020018280548015620005bc576020028201919060005260206000209081546001600160a01b031681526001909101906020018083116200059d575050505050915050919050565b600055565b6001546001600160a01b031681565b610486806200235483390190565b60405180606001604052806000801916815260200160608152602001606081525090565b828054600181600116156101000203166002900490600052602060002090601f016020900481019282601f106200188657805160ff1916838001178555620018b6565b82800160010185558215620018b6579182015b82811115620018b657825182559160200191906001019062001899565b50620018c49291506200199d565b5090565b828054828255906000526020600020908101928215620018b65791602002820182811115620018b657825182559160200191906001019062001899565b6040518060a0016040528060008019168152602001606081526020016060815260200160608152602001606081525090565b8280548282559060005260206000209081019282156200198f579160200282015b828111156200198f57825182546001600160a01b0319166001600160a01b0390911617825560209092019160019091019062001958565b50620018c4929150620019ba565b620005d691905b80821115620018c45760008155600101620019a4565b620005d691905b80821115620018c45780546001600160a01b0319168155600101620019c1565b805162000cfa816200232e565b803562000cfa8162002348565b805162000cfa8162002348565b600082601f83011262001a1a57600080fd5b813562001a3162001a2b8262002205565b620021dd565b9150808252602083016020830185838301111562001a4e57600080fd5b62001a5b83828462002287565b50505092915050565b60006020828403121562001a7757600080fd5b600062001a858484620019e1565b949350505050565b60006020828403121562001aa057600080fd5b600062001a858484620019ee565b60006020828403121562001ac157600080fd5b600062001a858484620019fb565b6000806040838503121562001ae357600080fd5b600062001af18585620019ee565b925050602062001b0485828601620019ee565b9150509250929050565b60006020828403121562001b2157600080fd5b813567ffffffffffffffff81111562001b3957600080fd5b62001a858482850162001a08565b6000806040838503121562001b5b57600080fd5b823567ffffffffffffffff81111562001b7357600080fd5b62001af18582860162001a08565b60008060006060848603121562001b9757600080fd5b833567ffffffffffffffff81111562001baf57600080fd5b62001bbd8682870162001a08565b935050602062001bd086828701620019ee565b925050604062001be386828701620019ee565b9150509250925092565b600062001bfb838362001c11565b505060200190565b600062001bfb838362001e70565b62001c1c8162002268565b82525050565b62001c1c62001c318262002268565b620022ee565b600062001c448262002240565b62001c5081856200224e565b935062001c5d836200222e565b8060005b8381101562001c9157815162001c78888262001bed565b975062001c85836200222e565b92505060010162001c61565b509495945050505050565b600062001ca98262002240565b62001cb581856200224e565b935062001cc2836200222e565b8060005b8381101562001c9157815162001cdd888262001bed565b975062001cea836200222e565b92505060010162001cc6565b600062001d038262002244565b62001d0f81856200224e565b935062001d1c8362002234565b8060005b8381101562001c915762001d348262002302565b62001d40888262001bed565b975062001d4d8362002248565b92505060010162001d20565b600062001d668262002240565b62001d7281856200224e565b935062001d7f836200222e565b8060005b8381101562001c9157815162001d9a888262001c03565b975062001da7836200222e565b92505060010162001d83565b600062001dc08262002240565b62001dcc81856200224e565b935062001dd9836200222e565b8060005b8381101562001c9157815162001df4888262001c03565b975062001e01836200222e565b92505060010162001ddd565b600062001e1a8262002244565b62001e2681856200224e565b935062001e338362002234565b8060005b8381101562001c915762001e4b8262002310565b62001e57888262001c03565b975062001e648362002248565b92505060010162001e37565b62001c1c81620005d6565b62001c1c62001e8a82620005d6565b620005d6565b62001c1c816200227a565b600062001ea88262002240565b62001eb481856200224e565b935062001ec681856020860162002293565b62001ed1816200231e565b9093019392505050565b600062001ee88262002240565b62001ef4818562002257565b935062001f0681856020860162002293565b9290920192915050565b600062001f1f6016836200224e565b7510db185a5b481dd85cc81b9bdd0815995c9a599a595960521b815260200192915050565b805160009060a084019062001f5a858262001e70565b506020830151848203602086015262001f74828262001e9b565b9150506040830151848203604086015262001f90828262001c9c565b9150506060830151848203606086015262001fac828262001c9c565b9150506080830151848203608086015262001fc8828262001c9c565b95945050505050565b8051600090606084019062001fe7858262001e70565b506020830151848203602086015262002001828262001e9b565b9150506040830151848203604086015262001fc8828262001db3565b60006200202b828462001c22565b50601401919050565b60006200050b828462001edb565b600062002050828662001edb565b91506200205e828562001e7b565b60208201915062002070828462001e7b565b506020019392505050565b6020810162000cfa828462001c11565b602080825281016200050b818462001c37565b602080825281016200050b818462001cf6565b602080825281016200050b818462001d59565b602080825281016200050b818462001e0d565b6020810162000cfa828462001e70565b60408101620020f7828562001e70565b6200050b602083018462001c11565b6080810162002116828762001e70565b62002125602083018662001e70565b62002134604083018562001e70565b818103606083015262002148818462001e9b565b9695505050505050565b6040810162002162828562001e70565b818103602083015262001a85818462001e9b565b6020810162000cfa828462001e90565b6020808252810162000cfa8162001f10565b602080825281016200050b818462001f44565b602080825281016200050b818462001fd1565b60408101620021ce828562001e70565b6200050b602083018462001e70565b60405181810167ffffffffffffffff81118282101715620021fd57600080fd5b604052919050565b600067ffffffffffffffff8211156200221d57600080fd5b506020601f91909101601f19160190565b60200190565b60009081526020902090565b5190565b5490565b60010190565b90815260200190565b919050565b6001600160a01b031690565b600062000cfa826200225c565b151590565b600062000cfa8262002268565b82818337506000910152565b60005b83811015620022b057818101518382015260200162002296565b83811115620022c0576000848401525b50505050565b600062000cfa620022d783620005d6565b6200225c565b600062000cfa62001e8a83620005d6565b600062000cfa82600062000cfa8262002328565b600062000cfa8254620022c6565b600062000cfa8254620022dd565b601f01601f191690565b60601b90565b620023398162002275565b81146200234557600080fd5b50565b6200233981620005d656fe608060405234801561001057600080fd5b506040516104863803806104868339818101604052608081101561003357600080fd5b81516020830151604080850151606086018051925194969395919493918201928464010000000082111561006657600080fd5b90830190602082018581111561007b57600080fd5b825164010000000081118282018810171561009557600080fd5b82525081516020918201929091019080838360005b838110156100c25781810151838201526020016100aa565b50505050905090810190601f1680156100ef5780820380516001836020036101000a031916815260200191505b506040525050506001849055600283905560038290558051610118906004906020840190610122565b50505050506101bd565b828054600181600116156101000203166002900490600052602060002090601f016020900481019282601f1061016357805160ff1916838001178555610190565b82800160010185558215610190579182015b82811115610190578251825591602001919060010190610175565b5061019c9291506101a0565b5090565b6101ba91905b8082111561019c57600081556001016101a6565b90565b6102ba806101cc6000396000f3fe608060405234801561001057600080fd5b50600436106100cf5760003560e01c8063844cdf091161008c578063cdb73ac011610066578063cdb73ac014610181578063d321fe291461019e578063d61909f9146101a6578063f680a7bd146101c3576100cf565b8063844cdf091461016957806398d6a37314610171578063b95e216c14610179576100cf565b8063209ebc08146100d457806334d6093d146100f05780633a50ed131461011f5780633f02907a1461013c578063596ada671461015957806380007e8314610161575b600080fd5b6100dc6101cb565b604080519115158252519081900360200190f35b61010d6004803603602081101561010657600080fd5b50356101d9565b60408051918252519081900360200190f35b61010d6004803603602081101561013557600080fd5b50356101e1565b61010d6004803603602081101561015257600080fd5b50356101e9565b61010d6101f1565b6100dc6101f7565b6100dc610200565b6100dc610213565b61010d610227565b61010d6004803603602081101561019757600080fd5b503561022d565b61010d610235565b61010d600480360360208110156101bc57600080fd5b503561023b565b61010d61027f565b600654610100900460ff1690565b600581905590565b600081905590565b600181905590565b60015481565b60065460ff1690565b6006805460ff1916600190811790915590565b6006805461ff001916610100179055600190565b60005481565b600281905590565b60055490565b60058190556040805182815290516000917f7da274c7907a6e3fe48918a914c8a93c400713daffcd99eaa4a9ae6e99322204919081900360200190a1505060055490565b6002548156fea265627a7a72315820ad4f1a7aa98df01aa9c08e54ad6584875ac8ebba6fdfc9fdb690947070ca273a64736f6c634300050c0032a365627a7a7231582013b3ea2fa3dc0305f99b798dace8fe61489e72e8d4fc75edd7cf4380c9a6a5516c6578706572696d656e74616cf564736f6c634300050c0040",
  "source": "pragma solidity ^0.5.0;\npragma experimental ABIEncoderV2;\n\nimport \"./SafeMath.sol\";\nimport \"./ServiceClaim.sol\";\nimport \"./AEECToken.sol\";\n\ncontract Organizations {\n    uint admin;\n\n    AEECToken public token;\n\n    uint256 claimId; //Max value of the number of claims made\n    uint storedData; //Miscellaneous data\n\n    mapping (bytes32=>Patient) public patientMap; //ID of patient to specific provider -\n    mapping (bytes32=>Provider) public providerMap; //ID of provider to specific provider -\n    mapping (bytes32=>Insurer) public insurerMap; //ID of insurance provider to specific insurer\n    mapping (bytes32=>address) public serviceClaimsMap; //ID of serviceClaim to the specific ServiceClaim contract instance\n\n    //Events for organization creation    event ServiceCreated(address serviceClaimAddr);\n    event SCID(bytes32 ID, address addr);\n    event ClaimCreated(uint256 id, uint256 amount);\n    event ClaimVerified(bytes32 id);\n    event PatientCreated(bytes32 id, string name);\n    event ProviderCreated(bytes32 id, string name);\n    event InsurerCreated(bytes32 id, string name);\n    event PatientRetrieval(Patient patient);\n    event ProviderRetrieval(Provider provider);\n\n    //event patientList(Patient[] patients);\n    //event providerList(Provider[] providers);\n    //event insurerList(Insurer[] insurers);\n\n    event idList(bytes32[] ids);\n    event serviceList(address[] services);\n\n    struct Patient {\n        bytes32 id;\n        string name;\n        address[] unclaimedServices;\n        address[] unverifiedClaims;\n        address[] verifiedClaims;\n    }\n\n    struct Provider {\n        bytes32 id;\n        string name;\n        bytes32[] patients;\n    }\n\n    struct Insurer {\n        bytes32 id;\n        string name;\n        bytes32[] providers;\n    }\n\n\n\n    constructor(address _tokenAddr) public {\n        preLoadInfo();\n        token = AEECToken(_tokenAddr);\n        token._mint(address(this),1000000);\n    }\n\n\n    function preLoadInfo() public{\n        bytes32 insurerID = addInsurer(\"CMS\");\n        bytes32 providerID = addProvider(\"UCSD Medical\", insurerID);\n        addPatient(\"Ken\", providerID);\n        addPatient(\"Danny\", providerID);\n        addPatient(\"Antonio\", providerID);\n    }\n    // ------------------------------ Adds Users to Network --------------------------- //\n\n    /** @dev add a patient to the network\n    @param _name is the name of the patient\n    @param _providerID is the current provider of the patient\n    @return pID is a bytes32 represented id number for the patient\n    */\n    function addPatient(string memory _name, bytes32 _providerID) public returns(bytes32 pID) {\n        bytes32 id = keccak256(abi.encodePacked(_name));\n        address[] memory uServiceList;\n        address[] memory uClaimList;\n        address[] memory vClaimList;\n        Patient memory newPatient = Patient(id, _name, uServiceList, uClaimList, vClaimList);\n        //bytes32 patientHash = keccak256(abi.encodePacked(newPatient));\n        patientMap[id] = newPatient;\n        providerMap[_providerID].patients.push(newPatient.id);\n        emit PatientCreated(id, _name);\n        return id;\n    }\n\n    /** @dev add a provider to the network\n    @param _name name of the provider\n    @param _insurerID id of insurance provider\n    @return the pID of the health provider -\n     */\n    function addProvider(string memory _name, bytes32 _insurerID) public returns(bytes32 pID) {\n        bytes32 id = keccak256(abi.encodePacked(_name));\n        bytes32[] memory emptyList;\n        Provider memory newProvider = Provider(id, _name, emptyList);\n        //bytes32 providerHash = keccak256(abi.encodePacked(newProvider));\n        providerMap[id] = newProvider;\n        insurerMap[_insurerID].providers.push(newProvider.id);\n        emit ProviderCreated(id, _name);\n        return id;\n    }\n\n    /** @dev add an insurnace provider to the network\n    @param _name the name of the insurance provider\n    @return pID of the insurance provider\n    */\n    function addInsurer(string memory _name) public returns(bytes32 pID) {\n        bytes32 id = keccak256(abi.encodePacked(_name));\n        bytes32[] memory emptyList;\n        Insurer memory newInsurer = Insurer(id, _name, emptyList);\n        //bytes32 insurerHash = keccak256(abi.encodePacked(newInsurer));\n        insurerMap[id] = newInsurer;\n        emit InsurerCreated(id, _name);\n        return id;\n    }\n\n    // ------------------------------ Functionality of the Network --------------------------- //\n\n    /** @dev create an instance of a ServiceClaim contract\n    @param _name name of the service\n    @param _providerID provider ID\n    @param _patientID patient ID\n    @return serviceContractHash is the id of the ServiceClaim contract\n    */\n    function provideService(string memory _name, bytes32 _providerID, bytes32 _patientID) public returns(bytes32 serviceContractHash) {\n        bytes32 id = keccak256(abi.encodePacked(_name, _providerID, _patientID));\n        ServiceClaim serviceClaim = new ServiceClaim(_providerID, _patientID, id, _name);\n        bytes32 serviceClaimID = keccak256(abi.encodePacked(address(serviceClaim)));\n        serviceClaimsMap[serviceClaimID] = address(serviceClaim);\n        Patient storage patient = patientMap[_patientID];\n        //patient.unverifiedClaims.push(address(serviceClaim));\n        patient.unclaimedServices.push(address(serviceClaim));\n        emit SCID(serviceClaimID, address(serviceClaim));\n        return serviceClaimID;\n    }\n\n    /** @dev add a claim to a ServiceClaim contract i.e. the provider wants to file a claim for a service rendered\n    @param _serviceClaimID the ID of the ServiceClaim contract\n    @param _amount the amount to be claimed by the provider\n    @return ClaimID the ID of the claim\n    */\n    function fileClaim(bytes32 _serviceClaimID, uint256 _amount) public returns(uint256 ClaimID) {\n        //Patient storage cPatient = patientMap[_patient];\n        ServiceClaim myServiceClaim = ServiceClaim(serviceClaimsMap[_serviceClaimID]);\n        uint256 newClaimID = myServiceClaim.fileClaim(_amount);\n\n        bytes32 patID = myServiceClaim.patientID();\n        Patient storage cP = patientMap[patID];\n\n        for(uint i = 0; i < cP.unclaimedServices.length; i++){\n            if(cP.unclaimedServices[i] == address(myServiceClaim)){\n                delete(cP.unclaimedServices[i]);\n                break;\n            }\n        }\n\n        cP.unverifiedClaims.push(address(myServiceClaim));\n        emit ClaimCreated(newClaimID, _amount);\n        return newClaimID;\n    }\n\n    \n    /** @dev invoke the verifyClaim function in the ServiceClaim contract\n    @param _serviceClaimID the id of the ServiceClaim contract\n    */\n    /** @dev invoke the verifyClaim function in the ServiceClaim contract\n    @param _serviceClaimID the id of the ServiceClaim contract\n    */\n    function verifyClaim(bytes32 _serviceClaimID) public {\n        ServiceClaim myServiceClaim = ServiceClaim(serviceClaimsMap[_serviceClaimID]);\n        require(myServiceClaim.verifyClaim(), \"Claim was not Verified\");\n        // Add the claim address to verified list\n        // Delete the claim address from unverified list\n        bytes32 patID = myServiceClaim.patientID();\n        Patient storage cP = patientMap[patID];\n\n        for(uint i = 0; i < cP.unverifiedClaims.length; i++){\n            if(cP.unverifiedClaims[i] == address(myServiceClaim)){\n                delete(cP.unverifiedClaims[i]);\n                break;\n            }\n        }\n        cP.verifiedClaims.push(address(myServiceClaim));\n        emit ClaimVerified(_serviceClaimID);\n    }\n\n    /** @dev invoke the payProvider function in the ServiceClaim contract\n    @param _serviceClaimID the id of the ServiceClaim contract\n    */\n    function payProvider(bytes32 _serviceClaimID) public {\n        //require(_serviceClaim.claim().verified == true, \"User has not verified service\");\n        ServiceClaim myServiceClaim = ServiceClaim(serviceClaimsMap[_serviceClaimID]);\n        myServiceClaim.payProvider();\n    }\n\n\n\n    // ------------------------------ Getters of Network Data --------------------------- //\n\n\n    function patientsOfProvider(bytes32 _id) public returns (bytes32[] memory) {\n        Provider storage cP = providerMap[_id];\n        emit idList(cP.patients);\n        return(cP.patients);\n    }\n\n    function providersOfInsurer(bytes32 _id) public returns (bytes32[] memory) {\n        Insurer storage cI = insurerMap[_id];\n        emit idList(cI.providers);\n        return(cI.providers);\n    }\n\n    function getPatient(bytes32 _id) public returns (Patient memory){\n        Patient memory patient = patientMap[_id];\n        emit PatientRetrieval(patient);\n        return patient;\n    }\n\n    function getProvider(bytes32 _id) public returns (Provider memory){\n        Provider memory provider = providerMap[_id];\n        emit ProviderRetrieval(provider);\n        return providerMap[_id];\n    }\n\n\n    function patientUnclaimedServices(bytes32 _id) public returns (address[] memory){\n        Patient storage cP = patientMap[_id];\n        emit serviceList(cP.unclaimedServices);\n        return(cP.unclaimedServices);\n    }\n\n    function patientUnverifiedClaims(bytes32 _id) public returns (address[] memory){\n        Patient storage cP = patientMap[_id];\n        emit serviceList(cP.unverifiedClaims);\n        return(cP.unverifiedClaims);\n    }\n\n    function patientVerifiedClaims(bytes32 _id) public returns (address[] memory){\n        Patient storage cP = patientMap[_id];\n        emit serviceList(cP.verifiedClaims);\n        return(cP.verifiedClaims);\n    }\n\n    function getToken() public view returns(address){\n        return address(token);\n    }\n\n    function setAdmin(uint _num) public {\n        admin = _num;\n    }\n\n\n    function getAdmin() public view returns (uint) {\n        return admin;\n    }\n\n\n\n// TODO\n    // function insurerUnpaidClaims(bytes32 _id) public {\n    // }\n    // function insurerPaidClaims(bytes32 _id) public {\n\n    // }\n\n    // function providerUnpaidClaims(bytes32 _id) public {\n\n    // }\n\n    //  function providerPaidClaims(bytes32 _id) public {\n    // }\n}\n",
  "sourcePath": "/Users/mantonio/Documents/TheLaboratory/Classified/SDSC/Medicare-Claim-Verification/contracts/Organizations.sol",
  "compiler": {
    "name": "solc",
    "version": "0.5.12+commit.7709ece9.Emscripten.clang"
  },
  "schemaVersion": "3.0.11",
  "updatedAt": "2019-10-11T22:35:37.292Z",
  "devdoc": {
    "methods": {
      "addInsurer(string)": {
        "details": "add an insurnace provider to the network",
        "params": {
          "_name": "the name of the insurance provider"
        },
        "return": "pID of the insurance provider"
      },
      "addPatient(string,bytes32)": {
        "details": "add a patient to the network",
        "params": {
          "_name": "is the name of the patient",
          "_providerID": "is the current provider of the patient"
        },
        "return": "pID is a bytes32 represented id number for the patient"
      },
      "addProvider(string,bytes32)": {
        "details": "add a provider to the network",
        "params": {
          "_insurerID": "id of insurance provider",
          "_name": "name of the provider"
        },
        "return": "the pID of the health provider -"
      },
      "fileClaim(bytes32,uint256)": {
        "details": "add a claim to a ServiceClaim contract i.e. the provider wants to file a claim for a service rendered",
        "params": {
          "_amount": "the amount to be claimed by the provider",
          "_serviceClaimID": "the ID of the ServiceClaim contract"
        },
        "return": "ClaimID the ID of the claim"
      },
      "payProvider(bytes32)": {
        "details": "invoke the payProvider function in the ServiceClaim contract",
        "params": {
          "_serviceClaimID": "the id of the ServiceClaim contract"
        }
      },
      "provideService(string,bytes32,bytes32)": {
        "details": "create an instance of a ServiceClaim contract",
        "params": {
          "_name": "name of the service",
          "_patientID": "patient ID",
          "_providerID": "provider ID"
        },
        "return": "serviceContractHash is the id of the ServiceClaim contract"
      },
      "verifyClaim(bytes32)": {
        "details": "invoke the verifyClaim function in the ServiceClaim contract",
        "params": {
          "_serviceClaimID": "the id of the ServiceClaim contract"
        }
      }
    }
  },
  "userdoc": {
    "methods": {}
  }
}