{
  "contractName": "Organizations",
  "abi": [
    {
      "constant": true,
      "inputs": [
        {
          "internalType": "bytes32",
          "name": "",
          "type": "bytes32"
        }
      ],
      "name": "serviceClaimsMap",
      "outputs": [
        {
          "internalType": "address",
          "name": "",
          "type": "address"
        }
      ],
      "payable": false,
      "stateMutability": "view",
      "type": "function"
    },
    {
      "constant": true,
      "inputs": [
        {
          "internalType": "bytes32",
          "name": "",
          "type": "bytes32"
        }
      ],
      "name": "providerMap",
      "outputs": [
        {
          "internalType": "bytes32",
          "name": "id",
          "type": "bytes32"
        },
        {
          "internalType": "string",
          "name": "name",
          "type": "string"
        }
      ],
      "payable": false,
      "stateMutability": "view",
      "type": "function"
    },
    {
      "constant": true,
      "inputs": [
        {
          "internalType": "bytes32",
          "name": "",
          "type": "bytes32"
        }
      ],
      "name": "insurerMap",
      "outputs": [
        {
          "internalType": "bytes32",
          "name": "id",
          "type": "bytes32"
        },
        {
          "internalType": "string",
          "name": "name",
          "type": "string"
        }
      ],
      "payable": false,
      "stateMutability": "view",
      "type": "function"
    },
    {
      "constant": true,
      "inputs": [
        {
          "internalType": "bytes32",
          "name": "",
          "type": "bytes32"
        }
      ],
      "name": "patientMap",
      "outputs": [
        {
          "internalType": "bytes32",
          "name": "id",
          "type": "bytes32"
        },
        {
          "internalType": "string",
          "name": "name",
          "type": "string"
        }
      ],
      "payable": false,
      "stateMutability": "view",
      "type": "function"
    },
    {
      "inputs": [],
      "payable": false,
      "stateMutability": "nonpayable",
      "type": "constructor"
    },
    {
      "anonymous": false,
      "inputs": [
        {
          "indexed": false,
          "internalType": "bytes32",
          "name": "ID",
          "type": "bytes32"
        },
        {
          "indexed": false,
          "internalType": "address",
          "name": "addr",
          "type": "address"
        }
      ],
      "name": "SCID",
      "type": "event"
    },
    {
      "anonymous": false,
      "inputs": [
        {
          "indexed": false,
          "internalType": "uint256",
          "name": "id",
          "type": "uint256"
        },
        {
          "indexed": false,
          "internalType": "uint256",
          "name": "amount",
          "type": "uint256"
        }
      ],
      "name": "ClaimCreated",
      "type": "event"
    },
    {
      "anonymous": false,
      "inputs": [
        {
          "indexed": false,
          "internalType": "bytes32",
          "name": "id",
          "type": "bytes32"
        },
        {
          "indexed": false,
          "internalType": "string",
          "name": "name",
          "type": "string"
        }
      ],
      "name": "PatientCreated",
      "type": "event"
    },
    {
      "anonymous": false,
      "inputs": [
        {
          "indexed": false,
          "internalType": "bytes32",
          "name": "id",
          "type": "bytes32"
        },
        {
          "indexed": false,
          "internalType": "string",
          "name": "name",
          "type": "string"
        }
      ],
      "name": "ProviderCreated",
      "type": "event"
    },
    {
      "anonymous": false,
      "inputs": [
        {
          "indexed": false,
          "internalType": "bytes32",
          "name": "id",
          "type": "bytes32"
        },
        {
          "indexed": false,
          "internalType": "string",
          "name": "name",
          "type": "string"
        }
      ],
      "name": "InsurerCreated",
      "type": "event"
    },
    {
      "anonymous": false,
      "inputs": [
        {
          "indexed": false,
          "internalType": "bytes32[]",
          "name": "ids",
          "type": "bytes32[]"
        }
      ],
      "name": "idList",
      "type": "event"
    },
    {
      "anonymous": false,
      "inputs": [
        {
          "indexed": false,
          "internalType": "address[]",
          "name": "services",
          "type": "address[]"
        }
      ],
      "name": "serviceList",
      "type": "event"
    },
    {
      "constant": false,
      "inputs": [],
      "name": "preLoadInfo",
      "outputs": [],
      "payable": false,
      "stateMutability": "nonpayable",
      "type": "function"
    },
    {
      "constant": false,
      "inputs": [
        {
          "internalType": "string",
          "name": "_name",
          "type": "string"
        },
        {
          "internalType": "bytes32",
          "name": "_providerID",
          "type": "bytes32"
        }
      ],
      "name": "addPatient",
      "outputs": [
        {
          "internalType": "bytes32",
          "name": "pID",
          "type": "bytes32"
        }
      ],
      "payable": false,
      "stateMutability": "nonpayable",
      "type": "function"
    },
    {
      "constant": false,
      "inputs": [
        {
          "internalType": "string",
          "name": "_name",
          "type": "string"
        },
        {
          "internalType": "bytes32",
          "name": "_insurerID",
          "type": "bytes32"
        }
      ],
      "name": "addProvider",
      "outputs": [
        {
          "internalType": "bytes32",
          "name": "pID",
          "type": "bytes32"
        }
      ],
      "payable": false,
      "stateMutability": "nonpayable",
      "type": "function"
    },
    {
      "constant": false,
      "inputs": [
        {
          "internalType": "string",
          "name": "_name",
          "type": "string"
        }
      ],
      "name": "addInsurer",
      "outputs": [
        {
          "internalType": "bytes32",
          "name": "pID",
          "type": "bytes32"
        }
      ],
      "payable": false,
      "stateMutability": "nonpayable",
      "type": "function"
    },
    {
      "constant": false,
      "inputs": [
        {
          "internalType": "string",
          "name": "_name",
          "type": "string"
        },
        {
          "internalType": "bytes32",
          "name": "_providerID",
          "type": "bytes32"
        },
        {
          "internalType": "bytes32",
          "name": "_patientID",
          "type": "bytes32"
        }
      ],
      "name": "provideService",
      "outputs": [
        {
          "internalType": "bytes32",
          "name": "serviceContractHash",
          "type": "bytes32"
        }
      ],
      "payable": false,
      "stateMutability": "nonpayable",
      "type": "function"
    },
    {
      "constant": false,
      "inputs": [
        {
          "internalType": "bytes32",
          "name": "_serviceClaimID",
          "type": "bytes32"
        },
        {
          "internalType": "uint256",
          "name": "_amount",
          "type": "uint256"
        }
      ],
      "name": "fileClaim",
      "outputs": [
        {
          "internalType": "uint256",
          "name": "ClaimID",
          "type": "uint256"
        }
      ],
      "payable": false,
      "stateMutability": "nonpayable",
      "type": "function"
    },
    {
      "constant": false,
      "inputs": [
        {
          "internalType": "bytes32",
          "name": "_serviceClaimID",
          "type": "bytes32"
        }
      ],
      "name": "verifyClaim",
      "outputs": [],
      "payable": false,
      "stateMutability": "nonpayable",
      "type": "function"
    },
    {
      "constant": false,
      "inputs": [
        {
          "internalType": "bytes32",
          "name": "_serviceClaimID",
          "type": "bytes32"
        }
      ],
      "name": "payProvider",
      "outputs": [],
      "payable": false,
      "stateMutability": "nonpayable",
      "type": "function"
    },
    {
      "constant": false,
      "inputs": [
        {
          "internalType": "bytes32",
          "name": "_id",
          "type": "bytes32"
        }
      ],
      "name": "patientsOfProvider",
      "outputs": [
        {
          "internalType": "bytes32[]",
          "name": "",
          "type": "bytes32[]"
        }
      ],
      "payable": false,
      "stateMutability": "nonpayable",
      "type": "function"
    },
    {
      "constant": false,
      "inputs": [
        {
          "internalType": "bytes32",
          "name": "_id",
          "type": "bytes32"
        }
      ],
      "name": "providersOfInsurer",
      "outputs": [
        {
          "internalType": "bytes32[]",
          "name": "",
          "type": "bytes32[]"
        }
      ],
      "payable": false,
      "stateMutability": "nonpayable",
      "type": "function"
    },
    {
      "constant": false,
      "inputs": [
        {
          "internalType": "bytes32",
          "name": "_id",
          "type": "bytes32"
        }
      ],
      "name": "patientUnverifiedServices",
      "outputs": [
        {
          "internalType": "address[]",
          "name": "",
          "type": "address[]"
        }
      ],
      "payable": false,
      "stateMutability": "nonpayable",
      "type": "function"
    },
    {
      "constant": false,
      "inputs": [
        {
          "internalType": "bytes32",
          "name": "_id",
          "type": "bytes32"
        }
      ],
      "name": "patientVerifiedServices",
      "outputs": [
        {
          "internalType": "address[]",
          "name": "",
          "type": "address[]"
        }
      ],
      "payable": false,
      "stateMutability": "nonpayable",
      "type": "function"
    },
    {
      "constant": false,
      "inputs": [
        {
          "internalType": "uint256",
          "name": "_num",
          "type": "uint256"
        }
      ],
      "name": "setAdmin",
      "outputs": [],
      "payable": false,
      "stateMutability": "nonpayable",
      "type": "function"
    },
    {
      "constant": true,
      "inputs": [],
      "name": "getAdmin",
      "outputs": [
        {
          "internalType": "uint256",
          "name": "",
          "type": "uint256"
        }
      ],
      "payable": false,
      "stateMutability": "view",
      "type": "function"
    }
  ],
  "bytecode": "0x60806040523480156200001157600080fd5b50620000256001600160e01b036200002b16565b620007b3565b6000620000736040518060400160405280600381526020017f434d530000000000000000000000000000000000000000000000000000000000815250620001a060201b60201c565b90506000620000be6040518060400160405280600c81526020017f55435344204d65646963616c0000000000000000000000000000000000000000815250836200028a60201b60201c565b9050620001076040518060400160405280600381526020017f4b656e000000000000000000000000000000000000000000000000000000000081525082620003a160201b60201c565b5060408051808201909152600581527f44616e6e7900000000000000000000000000000000000000000000000000000060208201526200015190826001600160e01b03620003a116565b5060408051808201909152600781527f416e746f6e696f0000000000000000000000000000000000000000000000000060208201526200019b90826001600160e01b03620003a116565b505050565b60008082604051602001620001b6919062000723565b6040516020818303038152906040528051906020012090506060620001da620004df565b506040805160608101825283815260208082018781528284018590526000868152600583529390932082518155925180519293849390926200022492600185019291019062000503565b50604082015180516200024291600284019160209091019062000588565b509050507ff73cee28a98c20f23a903356ab57dc8c514e66b0488c994b09dec06f978c839b83866040516200027992919062000738565b60405180910390a150909392505050565b60008083604051602001620002a0919062000723565b6040516020818303038152906040528051906020012090506060620002c4620004df565b506040805160608101825283815260208082018881528284018590526000868152600483529390932082518155925180519293849390926200030e92600185019291019062000503565b50604082015180516200032c91600284019160209091019062000588565b50505060008581526005602090815260408083208451600290910180546001810182559085529290932090910191909155517f7dd222c7de5c7ba42d121aa7e2acc9d5d4a47c2eb31f55385cf51cbe459c5c9b906200038f908590899062000738565b60405180910390a15090949350505050565b60008083604051602001620003b7919062000723565b604051602081830303815290604052805190602001209050606080620003dc620005c5565b50604080516080810182528481526020808201898152828401869052606083018590526000878152600383529390932082518155925180519293849390926200042d92600185019291019062000503565b50604082015180516200044b916002840191602090910190620005f0565b506060820151805162000469916003840191602090910190620005f0565b50505060008681526004602090815260408083208451600290910180546001810182559085529290932090910191909155517f86ec8adc6f97da0327b3e1dcc24fa25aea5eb7afcf6af08792e4b2d4d799fad890620004cc9086908a9062000738565b60405180910390a1509195945050505050565b60405180606001604052806000801916815260200160608152602001606081525090565b828054600181600116156101000203166002900490600052602060002090601f016020900481019282601f106200054657805160ff191683800117855562000576565b8280016001018555821562000576579182015b828111156200057657825182559160200191906001019062000559565b506200058492915062000656565b5090565b8280548282559060005260206000209081019282156200057657916020028201828111156200057657825182559160200191906001019062000559565b6040518060800160405280600080191681526020016060815260200160608152602001606081525090565b82805482825590600052602060002090810192821562000648579160200282015b828111156200064857825182546001600160a01b0319166001600160a01b0390911617825560209092019160019091019062000611565b506200058492915062000676565b6200067391905b808211156200058457600081556001016200065d565b90565b6200067391905b80821115620005845780546001600160a01b03191681556001016200067d565b620006a88162000673565b82525050565b6000620006bb8262000764565b620006c7818562000768565b9350620006d981856020860162000776565b620006e481620007a9565b9093019392505050565b6000620006fb8262000764565b62000707818562000771565b93506200071981856020860162000776565b9290920192915050565b6000620007318284620006ee565b9392505050565b604081016200074882856200069d565b81810360208301526200075c8184620006ae565b949350505050565b5190565b90815260200190565b919050565b60005b838110156200079357818101518382015260200162000779565b83811115620007a3576000848401525b50505050565b601f01601f191690565b611e1180620007c36000396000f3fe60806040523480156200001157600080fd5b5060043610620001305760003560e01c8063740044b411620000b1578063dd238925116200007b578063dd238925146200028e578063e0e87b1a14620002a5578063ebc3a05b14620002bc578063ee3d52b314620002e2578063ef5bff9e14620002f95762000130565b8063740044b4146200022357806392398fbb146200023a5780639c860b8a1462000251578063a46bfff914620002775762000130565b806339160aa711620000ff57806339160aa714620001ca5780633e7e072e14620001e15780633f1e172d14620001f857806340f1065314620002025780636e9960c314620002195762000130565b8063085683ff14620001355780632470d25e14620001645780632bde2a86146200018a57806335b7351014620001b1575b600080fd5b6200014c6200014636600462001351565b62000310565b6040516200015b91906200170f565b60405180910390f35b6200017b620001753660046200125d565b62000450565b6040516200015b9190620016b3565b620001a16200019b3660046200125d565b6200046b565b6040516200015b9291906200178a565b620001c8620001c23660046200125d565b62000516565b005b620001a1620001db3660046200125d565b62000705565b6200014c620001f236600462001317565b6200077a565b620001c862000893565b6200014c620002133660046200129f565b62000973565b6200014c62000a50565b6200014c6200023436600462001317565b62000a57565b620001a16200024b3660046200125d565b62000b95565b62000268620002623660046200125d565b62000c0a565b6040516200015b9190620016e9565b62000268620002883660046200125d565b62000cb7565b6200014c6200029f366004620012de565b62000cff565b620001c8620002b63660046200125d565b62000de9565b620002d3620002cd3660046200125d565b62000e78565b6040516200015b9190620016c3565b620001c8620002f33660046200125d565b62000f2e565b620002d36200030a3660046200125d565b62000f33565b6000808484846040516020016200032a939291906200167a565b604051602081830303815290604052805190602001209050600084848388604051620003569062000fe8565b6200036594939291906200173e565b604051809103906000f08015801562000382573d6000803e3d6000fd5b5090506000816040516020016200039a919062001655565b60408051601f19818403018152828252805160209182012060008181526006835283812080546001600160a01b0389166001600160a01b031991821681179092558b835260038552948220600281018054600181018255908452949092209093018054909416909217909255909250907f2cdb195d7226065901c0e37d742237ac3e30d6dc0ce7faf49701f6ec9f0bd1ed906200043b90849086906200171f565b60405180910390a150925050505b9392505050565b6006602052600090815260409020546001600160a01b031681565b6004602090815260009182526040918290208054600180830180548651600293821615610100026000190190911692909204601f8101869004860283018601909652858252919492939092908301828280156200050c5780601f10620004e0576101008083540402835291602001916200050c565b820191906000526020600020905b815481529060010190602001808311620004ee57829003601f168201915b5050505050905082565b600081815260066020908152604080832054815163844cdf0960e01b815291516001600160a01b0390911693849363844cdf09936004808201949293918390030190829087803b1580156200056a57600080fd5b505af11580156200057f573d6000803e3d6000fd5b505050506040513d601f19601f82011682018060405250620005a5919081019062001234565b620005cd5760405162461bcd60e51b8152600401620005c490620017ae565b60405180910390fd5b6000816001600160a01b031663f680a7bd6040518163ffffffff1660e01b815260040160206040518083038186803b1580156200060957600080fd5b505afa1580156200061e573d6000803e3d6000fd5b505050506040513d601f19601f820116820180604052506200064491908101906200127e565b6000818152600360208181526040832091820180546001810182559084529083200180546001600160a01b0319166001600160a01b0387161790559192505b6002820154811015620006fe57836001600160a01b0316826002018281548110620006aa57fe5b6000918252602090912001546001600160a01b03161415620006f557816002018181548110620006d657fe5b600091825260209091200180546001600160a01b0319169055620006fe565b60010162000683565b5050505050565b6005602090815260009182526040918290208054600180830180548651600293821615610100026000190190911692909204601f8101869004860283018601909652858252919492939092908301828280156200050c5780601f10620004e0576101008083540402835291602001916200050c565b600080836040516020016200079091906200166c565b6040516020818303038152906040528051906020012090506060620007b462000ff6565b50604080516060810182528381526020808201888152828401859052600086815260048352939093208251815592518051929384939092620007fe9260018501929101906200101a565b50604082015180516200081c9160028401916020909101906200109f565b50505060008581526005602090815260408083208451600290910180546001810182559085529290932090910191909155517f7dd222c7de5c7ba42d121aa7e2acc9d5d4a47c2eb31f55385cf51cbe459c5c9b906200087f90859089906200178a565b60405180910390a150909150505b92915050565b6000620008bb60405180604001604052806003815260200162434d5360e81b81525062000cff565b90506000620008ef6040518060400160405280600c81526020016b1550d4d1081359591a58d85b60a21b815250836200077a565b9050620009186040518060400160405280600381526020016225b2b760e91b8152508262000a57565b50620009426040518060400160405280600581526020016444616e6e7960d81b8152508262000a57565b506200096e60405180604001604052806007815260200166416e746f6e696f60c81b8152508262000a57565b505050565b60008281526006602052604080822054905163d61909f960e01b81526001600160a01b03909116908290829063d61909f990620009b59087906004016200170f565b602060405180830381600087803b158015620009d057600080fd5b505af1158015620009e5573d6000803e3d6000fd5b505050506040513d601f19601f8201168201806040525062000a0b91908101906200127e565b90507f96e3875898071e5d91932eb150a3914f9fe70e473f6faeaad697e99a48937c9c818560405162000a40929190620017c0565b60405180910390a1949350505050565b6000545b90565b6000808360405160200162000a6d91906200166c565b60405160208183030381529060405280519060200120905060608062000a92620010dc565b506040805160808101825284815260208082018981528284018690526060830185905260008781526003835293909320825181559251805192938493909262000ae39260018501929101906200101a565b506040820151805162000b0191600284019160209091019062001107565b506060820151805162000b1f91600384019160209091019062001107565b50505060008681526004602090815260408083208451600290910180546001810182559085529290932090910191909155517f86ec8adc6f97da0327b3e1dcc24fa25aea5eb7afcf6af08792e4b2d4d799fad89062000b829086908a906200178a565b60405180910390a1509195945050505050565b6003602090815260009182526040918290208054600180830180548651600293821615610100026000190190911692909204601f8101869004860283018601909652858252919492939092908301828280156200050c5780601f10620004e0576101008083540402835291602001916200050c565b600081815260056020526040908190209051606091907f1c7aaf504355c6134470b4070ca50bf276d45d0205aa86ef6bd15c684ae710c49062000c52906002840190620016fc565b60405180910390a18060020180548060200260200160405190810160405280929190818152602001828054801562000caa57602002820191906000526020600020905b81548152602001906001019080831162000c95575b5050505050915050919050565b600081815260046020526040908190209051606091907f1c7aaf504355c6134470b4070ca50bf276d45d0205aa86ef6bd15c684ae710c49062000c52906002840190620016fc565b6000808260405160200162000d1591906200166c565b604051602081830303815290604052805190602001209050606062000d3962000ff6565b5060408051606081018252838152602080820187815282840185905260008681526005835293909320825181559251805192938493909262000d839260018501929101906200101a565b506040820151805162000da19160028401916020909101906200109f565b509050507ff73cee28a98c20f23a903356ab57dc8c514e66b0488c994b09dec06f978c839b838660405162000dd89291906200178a565b60405180910390a150909392505050565b60008181526006602090815260408083205481516398d6a37360e01b815291516001600160a01b039091169384936398d6a373936004808201949293918390030190829087803b15801562000e3d57600080fd5b505af115801562000e52573d6000803e3d6000fd5b505050506040513d601f19601f820116820180604052506200096e919081019062001234565b6000818152600360208190526040918290209151606092917fa1c275d9147cd4bbf3a6fc6b01df2bdad7272d62a5bea8ea5f90e20e7c3f48e99162000ec091840190620016d6565b60405180910390a18060030180548060200260200160405190810160405280929190818152602001828054801562000caa57602002820191906000526020600020905b81546001600160a01b0316815260019091019060200180831162000f03575050505050915050919050565b600055565b600081815260036020526040908190209051606091907fa1c275d9147cd4bbf3a6fc6b01df2bdad7272d62a5bea8ea5f90e20e7c3f48e99062000f7b906002840190620016d6565b60405180910390a18060020180548060200260200160405190810160405280929190818152602001828054801562000caa576020028201919060005260206000209081546001600160a01b0316815260019091019060200180831162000f03575050505050915050919050565b610486806200194983390190565b60405180606001604052806000801916815260200160608152602001606081525090565b828054600181600116156101000203166002900490600052602060002090601f016020900481019282601f106200105d57805160ff19168380011785556200108d565b828001600101855582156200108d579182015b828111156200108d57825182559160200191906001019062001070565b506200109b9291506200116d565b5090565b8280548282559060005260206000209081019282156200108d57916020028201828111156200108d57825182559160200191906001019062001070565b6040518060800160405280600080191681526020016060815260200160608152602001606081525090565b8280548282559060005260206000209081019282156200115f579160200282015b828111156200115f57825182546001600160a01b0319166001600160a01b0390911617825560209092019160019091019062001128565b506200109b9291506200118a565b62000a5491905b808211156200109b576000815560010162001174565b62000a5491905b808211156200109b5780546001600160a01b031916815560010162001191565b80516200088d8162001923565b80356200088d816200193d565b80516200088d816200193d565b600082601f830112620011ea57600080fd5b813562001201620011fb8262001807565b620017df565b915080825260208301602083018583830111156200121e57600080fd5b6200122b8382846200187c565b50505092915050565b6000602082840312156200124757600080fd5b6000620012558484620011b1565b949350505050565b6000602082840312156200127057600080fd5b6000620012558484620011be565b6000602082840312156200129157600080fd5b6000620012558484620011cb565b60008060408385031215620012b357600080fd5b6000620012c18585620011be565b9250506020620012d485828601620011be565b9150509250929050565b600060208284031215620012f157600080fd5b813567ffffffffffffffff8111156200130957600080fd5b6200125584828501620011d8565b600080604083850312156200132b57600080fd5b823567ffffffffffffffff8111156200134357600080fd5b620012c185828601620011d8565b6000806000606084860312156200136757600080fd5b833567ffffffffffffffff8111156200137f57600080fd5b6200138d86828701620011d8565b9350506020620013a086828701620011be565b9250506040620013b386828701620011be565b9150509250925092565b6000620013cb8383620013e1565b505060200190565b6000620013cb83836200158c565b620013ec816200186a565b82525050565b620013ec62001401826200186a565b620018e3565b6000620014148262001842565b62001420818562001850565b93506200142d8362001830565b8060005b8381101562001461578151620014488882620013bd565b9750620014558362001830565b92505060010162001431565b509495945050505050565b6000620014798262001846565b62001485818562001850565b9350620014928362001836565b8060005b838110156200146157620014aa82620018f7565b620014b68882620013bd565b9750620014c3836200184a565b92505060010162001496565b6000620014dc8262001842565b620014e8818562001850565b9350620014f58362001830565b8060005b8381101562001461578151620015108882620013d3565b97506200151d8362001830565b925050600101620014f9565b6000620015368262001846565b62001542818562001850565b93506200154f8362001836565b8060005b838110156200146157620015678262001905565b620015738882620013d3565b975062001580836200184a565b92505060010162001553565b620013ec8162000a54565b620013ec620015a68262000a54565b62000a54565b6000620015b98262001842565b620015c5818562001850565b9350620015d781856020860162001888565b620015e28162001913565b9093019392505050565b6000620015f98262001842565b62001605818562001859565b93506200161781856020860162001888565b9290920192915050565b60006200163060168362001850565b7510db185a5b481dd85cc81b9bdd0815995c9a599a595960521b815260200192915050565b6000620016638284620013f2565b50601401919050565b6000620004498284620015ec565b6000620016888286620015ec565b915062001696828562001597565b602082019150620016a8828462001597565b506020019392505050565b602081016200088d8284620013e1565b6020808252810162000449818462001407565b602080825281016200044981846200146c565b60208082528101620004498184620014cf565b6020808252810162000449818462001529565b602081016200088d82846200158c565b604081016200172f82856200158c565b620004496020830184620013e1565b608081016200174e82876200158c565b6200175d60208301866200158c565b6200176c60408301856200158c565b8181036060830152620017808184620015ac565b9695505050505050565b604081016200179a82856200158c565b8181036020830152620012558184620015ac565b602080825281016200088d8162001621565b60408101620017d082856200158c565b6200044960208301846200158c565b60405181810167ffffffffffffffff81118282101715620017ff57600080fd5b604052919050565b600067ffffffffffffffff8211156200181f57600080fd5b506020601f91909101601f19160190565b60200190565b60009081526020902090565b5190565b5490565b60010190565b90815260200190565b919050565b6001600160a01b031690565b60006200088d826200185e565b151590565b82818337506000910152565b60005b83811015620018a55781810151838201526020016200188b565b83811115620018b5576000848401525b50505050565b60006200088d620018cc8362000a54565b6200185e565b60006200088d620015a68362000a54565b60006200088d8260006200088d826200191d565b60006200088d8254620018bb565b60006200088d8254620018d2565b601f01601f191690565b60601b90565b6200192e8162001877565b81146200193a57600080fd5b50565b6200192e8162000a5456fe608060405234801561001057600080fd5b506040516104863803806104868339818101604052608081101561003357600080fd5b81516020830151604080850151606086018051925194969395919493918201928464010000000082111561006657600080fd5b90830190602082018581111561007b57600080fd5b825164010000000081118282018810171561009557600080fd5b82525081516020918201929091019080838360005b838110156100c25781810151838201526020016100aa565b50505050905090810190601f1680156100ef5780820380516001836020036101000a031916815260200191505b506040525050506001849055600283905560038290558051610118906004906020840190610122565b50505050506101bd565b828054600181600116156101000203166002900490600052602060002090601f016020900481019282601f1061016357805160ff1916838001178555610190565b82800160010185558215610190579182015b82811115610190578251825591602001919060010190610175565b5061019c9291506101a0565b5090565b6101ba91905b8082111561019c57600081556001016101a6565b90565b6102ba806101cc6000396000f3fe608060405234801561001057600080fd5b50600436106100cf5760003560e01c8063844cdf091161008c578063cdb73ac011610066578063cdb73ac014610181578063d321fe291461019e578063d61909f9146101a6578063f680a7bd146101c3576100cf565b8063844cdf091461016957806398d6a37314610171578063b95e216c14610179576100cf565b8063209ebc08146100d457806334d6093d146100f05780633a50ed131461011f5780633f02907a1461013c578063596ada671461015957806380007e8314610161575b600080fd5b6100dc6101cb565b604080519115158252519081900360200190f35b61010d6004803603602081101561010657600080fd5b50356101d9565b60408051918252519081900360200190f35b61010d6004803603602081101561013557600080fd5b50356101e1565b61010d6004803603602081101561015257600080fd5b50356101e9565b61010d6101f1565b6100dc6101f7565b6100dc610200565b6100dc610213565b61010d610227565b61010d6004803603602081101561019757600080fd5b503561022d565b61010d610235565b61010d600480360360208110156101bc57600080fd5b503561023b565b61010d61027f565b600654610100900460ff1690565b600581905590565b600081905590565b600181905590565b60015481565b60065460ff1690565b6006805460ff1916600190811790915590565b6006805461ff001916610100179055600190565b60005481565b600281905590565b60055490565b60058190556040805182815290516000917f7da274c7907a6e3fe48918a914c8a93c400713daffcd99eaa4a9ae6e99322204919081900360200190a1505060055490565b6002548156fea265627a7a7231582055cc44a247781d5f68b92099b67cf85f98c904266f338ee251c15512cbd1de6164736f6c634300050b0032a365627a7a7231582079d6c96d7ae62eb94f2e4ad2294880fa9a7781f467f018ab6de95da5e54e596c6c6578706572696d656e74616cf564736f6c634300050b0040",
  "source": "pragma solidity ^0.5.0;\npragma experimental ABIEncoderV2;\n\n\nimport \"./SafeMath.sol\";\nimport \"./ServiceClaim.sol\";\n\ncontract Organizations {\n\n    uint admin;\n\n\n    uint256 claimId; //Max value of the number of claims made\n    uint storedData; //Miscellaneous data\n\n    mapping (bytes32=>Patient) public patientMap; //ID of patient to specific provider -\n    mapping (bytes32=>Provider) public providerMap; //ID of provider to specific provider -\n    mapping (bytes32=>Insurer) public insurerMap; //ID of insurance provider to specific insurer\n    mapping (bytes32=>address) public serviceClaimsMap; //ID of serviceClaim to the specific ServiceClaim contract instance\n\n    //Events for organization creation    event ServiceCreated(address serviceClaimAddr);\n    event SCID(bytes32 ID, address addr);\n    event ClaimCreated(uint256 id, uint256 amount);\n    event PatientCreated(bytes32 id, string name);\n    event ProviderCreated(bytes32 id, string name);\n    event InsurerCreated(bytes32 id, string name);\n\n\n    //event patientList(Patient[] patients);\n    //event providerList(Provider[] providers);\n    //event insurerList(Insurer[] insurers);\n\n    event idList(bytes32[] ids);\n    event serviceList(address[] services);\n\n    struct Patient {\n        bytes32 id;\n        string name;\n        address[] unverifiedClaims;\n        address[] verifiedClaims;\n    }\n\n    struct Provider {\n        bytes32 id;\n        string name;\n        bytes32[] patients;\n    }\n\n    struct Insurer {\n        bytes32 id;\n        string name;\n        bytes32[] providers;\n    }\n\n\n\n    constructor() public {\n        preLoadInfo();\n    }\n\n\n    function preLoadInfo() public{\n        bytes32 insurerID = addInsurer(\"CMS\");\n        bytes32 providerID = addProvider(\"UCSD Medical\", insurerID);\n        addPatient(\"Ken\", providerID);\n        addPatient(\"Danny\", providerID);\n        addPatient(\"Antonio\", providerID);\n    }\n    // ------------------------------ Adds Users to Network --------------------------- //\n\n    /** @dev add a patient to the network\n    @param _name is the name of the patient\n    @param _providerID is the current provider of the patient\n    @return pID is a bytes32 represented id number for the patient\n    */\n    function addPatient(string memory _name, bytes32 _providerID) public returns(bytes32 pID) {\n        bytes32 id = keccak256(abi.encodePacked(_name));\n        address[] memory uClaimList;\n        address[] memory vClaimList;\n        Patient memory newPatient = Patient(id, _name, uClaimList, vClaimList);\n        //bytes32 patientHash = keccak256(abi.encodePacked(newPatient));\n        patientMap[id] = newPatient;\n        providerMap[_providerID].patients.push(newPatient.id);\n        emit PatientCreated(id, _name);\n        return id;\n    }\n\n    /** @dev add a provider to the network\n    @param _name name of the provider\n    @param _insurerID id of insurance provider\n    @return the pID of the health provider -\n     */\n    function addProvider(string memory _name, bytes32 _insurerID) public returns(bytes32 pID) {\n        bytes32 id = keccak256(abi.encodePacked(_name));\n        bytes32[] memory emptyList;\n        Provider memory newProvider = Provider(id, _name, emptyList);\n        //bytes32 providerHash = keccak256(abi.encodePacked(newProvider));\n        providerMap[id] = newProvider;\n        insurerMap[_insurerID].providers.push(newProvider.id);\n        emit ProviderCreated(id, _name);\n        return id;\n    }\n\n    /** @dev add an insurnace provider to the network\n    @param _name the name of the insurance provider\n    @return pID of the insurance provider\n    */\n    function addInsurer(string memory _name) public returns(bytes32 pID) {\n        bytes32 id = keccak256(abi.encodePacked(_name));\n        bytes32[] memory emptyList;\n        Insurer memory newInsurer = Insurer(id, _name, emptyList);\n        //bytes32 insurerHash = keccak256(abi.encodePacked(newInsurer));\n        insurerMap[id] = newInsurer;\n        emit InsurerCreated(id, _name);\n        return id;\n    }\n\n    // ------------------------------ Functionality of the Network --------------------------- //\n\n    /** @dev create an instance of a ServiceClaim contract\n    @param _name name of the service\n    @param _providerID provider ID\n    @param _patientID patient ID\n    @return serviceContractHash is the id of the ServiceClaim contract\n    */\n    function provideService(string memory _name, bytes32 _providerID, bytes32 _patientID) public returns(bytes32 serviceContractHash) {\n        bytes32 id = keccak256(abi.encodePacked(_name, _providerID, _patientID));\n        ServiceClaim serviceClaim = new ServiceClaim(_providerID, _patientID, id, _name);\n        bytes32 serviceClaimID = keccak256(abi.encodePacked(address(serviceClaim)));\n        serviceClaimsMap[serviceClaimID] = address(serviceClaim);\n        Patient storage patient = patientMap[_patientID];\n        patient.unverifiedClaims.push(address(serviceClaim));\n        emit SCID(serviceClaimID, address(serviceClaim));\n        return serviceClaimID;\n    }\n\n    /** @dev add a claim to a ServiceClaim contract i.e. the provider wants to file a claim for a service rendered\n    @param _serviceClaimID the ID of the ServiceClaim contract\n    @param _amount the amount to be claimed by the provider\n    @return ClaimID the ID of the claim\n    */\n    function fileClaim(bytes32 _serviceClaimID, uint256 _amount) public returns(uint256 ClaimID) {\n        //Patient storage cPatient = patientMap[_patient];\n        ServiceClaim myServiceClaim = ServiceClaim(serviceClaimsMap[_serviceClaimID]);\n        uint256 newClaimID = myServiceClaim.fileClaim(_amount);\n        emit ClaimCreated(newClaimID, _amount);\n        return newClaimID;\n    }\n\n    \n    /** @dev invoke the verifyClaim function in the ServiceClaim contract\n    @param _serviceClaimID the id of the ServiceClaim contract\n    */\n    /** @dev invoke the verifyClaim function in the ServiceClaim contract\n    @param _serviceClaimID the id of the ServiceClaim contract\n    */\n    function verifyClaim(bytes32 _serviceClaimID) public {\n        ServiceClaim myServiceClaim = ServiceClaim(serviceClaimsMap[_serviceClaimID]);\n        require(myServiceClaim.verifyClaim(), \"Claim was not Verified\");\n        // Add the claim address to verified list\n        // Delete the claim address from unverified list\n        bytes32 patID = myServiceClaim.patientID();\n        Patient storage cP = patientMap[patID];\n\n        cP.verifiedClaims.push(address(myServiceClaim));\n        for(uint i = 0; i < cP.unverifiedClaims.length; i++){\n            if(cP.unverifiedClaims[i] == address(myServiceClaim)){\n                delete(cP.unverifiedClaims[i]);\n                break;\n            }\n        }\n    }\n\n    /** @dev invoke the payProvider function in the ServiceClaim contract\n    @param _serviceClaimID the id of the ServiceClaim contract\n    */\n    function payProvider(bytes32 _serviceClaimID) public {\n        //require(_serviceClaim.claim().verified == true, \"User has not verified service\");\n        ServiceClaim myServiceClaim = ServiceClaim(serviceClaimsMap[_serviceClaimID]);\n        myServiceClaim.payProvider();\n    }\n\n\n\n    // ------------------------------ Getters of Network Data --------------------------- //\n\n\n    function patientsOfProvider(bytes32 _id) public returns (bytes32[] memory) {\n        Provider storage cP = providerMap[_id];\n        emit idList(cP.patients);\n        return(cP.patients);\n    }\n\n    function providersOfInsurer(bytes32 _id) public returns (bytes32[] memory) {\n        Insurer storage cI = insurerMap[_id];\n        emit idList(cI.providers);\n        return(cI.providers);\n    }\n\n\n\n\n    function patientUnverifiedServices(bytes32 _id) public returns (address[] memory){\n        Patient storage cP = patientMap[_id];\n        emit serviceList(cP.unverifiedClaims);\n        return(cP.unverifiedClaims);\n    }\n\n    function patientVerifiedServices(bytes32 _id) public returns (address[] memory){\n        Patient storage cP = patientMap[_id];\n        emit serviceList(cP.verifiedClaims);\n        return(cP.verifiedClaims);\n    }\n\n\n\n    function setAdmin(uint _num) public {\n        admin = _num;\n    }\n\n\n    function getAdmin() public view returns (uint) {\n        return admin;\n    }\n\n\n\n// TODO\n    // function insurerUnpaidClaims(bytes32 _id) public {\n    // }\n    // function insurerPaidClaims(bytes32 _id) public {\n\n    // }\n\n    // function providerUnpaidClaims(bytes32 _id) public {\n\n    // }\n\n    //  function providerPaidClaims(bytes32 _id) public {\n    // }\n}\n",
  "sourcePath": "/Users/mantonio/Documents/TheLaboratory/Classified/SDSC/Medicare-Claim-Verification/contracts/Organizations.sol",
  "compiler": {
    "name": "solc",
    "version": "0.5.11+commit.c082d0b4.Emscripten.clang"
  },
  "schemaVersion": "3.0.11",
  "updatedAt": "2019-08-21T23:04:33.846Z",
  "devdoc": {
    "methods": {
      "addInsurer(string)": {
        "details": "add an insurnace provider to the network",
        "params": {
          "_name": "the name of the insurance provider"
        },
        "return": "pID of the insurance provider"
      },
      "addPatient(string,bytes32)": {
        "details": "add a patient to the network",
        "params": {
          "_name": "is the name of the patient",
          "_providerID": "is the current provider of the patient"
        },
        "return": "pID is a bytes32 represented id number for the patient"
      },
      "addProvider(string,bytes32)": {
        "details": "add a provider to the network",
        "params": {
          "_insurerID": "id of insurance provider",
          "_name": "name of the provider"
        },
        "return": "the pID of the health provider -"
      },
      "fileClaim(bytes32,uint256)": {
        "details": "add a claim to a ServiceClaim contract i.e. the provider wants to file a claim for a service rendered",
        "params": {
          "_amount": "the amount to be claimed by the provider",
          "_serviceClaimID": "the ID of the ServiceClaim contract"
        },
        "return": "ClaimID the ID of the claim"
      },
      "payProvider(bytes32)": {
        "details": "invoke the payProvider function in the ServiceClaim contract",
        "params": {
          "_serviceClaimID": "the id of the ServiceClaim contract"
        }
      },
      "provideService(string,bytes32,bytes32)": {
        "details": "create an instance of a ServiceClaim contract",
        "params": {
          "_name": "name of the service",
          "_patientID": "patient ID",
          "_providerID": "provider ID"
        },
        "return": "serviceContractHash is the id of the ServiceClaim contract"
      },
      "verifyClaim(bytes32)": {
        "details": "invoke the verifyClaim function in the ServiceClaim contract",
        "params": {
          "_serviceClaimID": "the id of the ServiceClaim contract"
        }
      }
    }
  },
  "userdoc": {
    "methods": {}
  }
}