{
  "contractName": "ServiceClaim",
  "abi": [
    {
      "constant": true,
      "inputs": [],
      "name": "providerID",
      "outputs": [
        {
          "internalType": "bytes32",
          "name": "",
          "type": "bytes32"
        }
      ],
      "payable": false,
      "stateMutability": "view",
      "type": "function"
    },
    {
      "constant": true,
      "inputs": [],
      "name": "insurerID",
      "outputs": [
        {
          "internalType": "bytes32",
          "name": "",
          "type": "bytes32"
        }
      ],
      "payable": false,
      "stateMutability": "view",
      "type": "function"
    },
    {
      "constant": true,
      "inputs": [],
      "name": "patientID",
      "outputs": [
        {
          "internalType": "bytes32",
          "name": "",
          "type": "bytes32"
        }
      ],
      "payable": false,
      "stateMutability": "view",
      "type": "function"
    },
    {
      "inputs": [
        {
          "internalType": "bytes32",
          "name": "_proID",
          "type": "bytes32"
        },
        {
          "internalType": "bytes32",
          "name": "_patID",
          "type": "bytes32"
        },
        {
          "internalType": "bytes32",
          "name": "_id",
          "type": "bytes32"
        },
        {
          "internalType": "string",
          "name": "_name",
          "type": "string"
        }
      ],
      "payable": false,
      "stateMutability": "nonpayable",
      "type": "constructor"
    },
    {
      "anonymous": false,
      "inputs": [
        {
          "indexed": false,
          "internalType": "uint256",
          "name": "amount",
          "type": "uint256"
        }
      ],
      "name": "ClaimAdded",
      "type": "event"
    },
    {
      "constant": false,
      "inputs": [
        {
          "internalType": "uint256",
          "name": "_amount",
          "type": "uint256"
        }
      ],
      "name": "fileClaim",
      "outputs": [
        {
          "internalType": "uint256",
          "name": "",
          "type": "uint256"
        }
      ],
      "payable": false,
      "stateMutability": "nonpayable",
      "type": "function"
    },
    {
      "constant": false,
      "inputs": [],
      "name": "verifyClaim",
      "outputs": [
        {
          "internalType": "bool",
          "name": "verifySuccess",
          "type": "bool"
        }
      ],
      "payable": false,
      "stateMutability": "nonpayable",
      "type": "function"
    },
    {
      "constant": false,
      "inputs": [],
      "name": "payProvider",
      "outputs": [
        {
          "internalType": "bool",
          "name": "paySuccess",
          "type": "bool"
        }
      ],
      "payable": false,
      "stateMutability": "nonpayable",
      "type": "function"
    },
    {
      "constant": true,
      "inputs": [],
      "name": "getAmount",
      "outputs": [
        {
          "internalType": "uint256",
          "name": "",
          "type": "uint256"
        }
      ],
      "payable": false,
      "stateMutability": "view",
      "type": "function"
    },
    {
      "constant": true,
      "inputs": [],
      "name": "isVerified",
      "outputs": [
        {
          "internalType": "bool",
          "name": "",
          "type": "bool"
        }
      ],
      "payable": false,
      "stateMutability": "view",
      "type": "function"
    },
    {
      "constant": true,
      "inputs": [],
      "name": "isPaid",
      "outputs": [
        {
          "internalType": "bool",
          "name": "",
          "type": "bool"
        }
      ],
      "payable": false,
      "stateMutability": "view",
      "type": "function"
    },
    {
      "constant": false,
      "inputs": [
        {
          "internalType": "uint256",
          "name": "_amount",
          "type": "uint256"
        }
      ],
      "name": "updateAmount",
      "outputs": [
        {
          "internalType": "uint256",
          "name": "",
          "type": "uint256"
        }
      ],
      "payable": false,
      "stateMutability": "nonpayable",
      "type": "function"
    },
    {
      "constant": false,
      "inputs": [
        {
          "internalType": "bytes32",
          "name": "_id",
          "type": "bytes32"
        }
      ],
      "name": "updateInsurer",
      "outputs": [
        {
          "internalType": "bytes32",
          "name": "",
          "type": "bytes32"
        }
      ],
      "payable": false,
      "stateMutability": "nonpayable",
      "type": "function"
    },
    {
      "constant": false,
      "inputs": [
        {
          "internalType": "bytes32",
          "name": "_id",
          "type": "bytes32"
        }
      ],
      "name": "updateProvider",
      "outputs": [
        {
          "internalType": "bytes32",
          "name": "",
          "type": "bytes32"
        }
      ],
      "payable": false,
      "stateMutability": "nonpayable",
      "type": "function"
    },
    {
      "constant": false,
      "inputs": [
        {
          "internalType": "bytes32",
          "name": "_id",
          "type": "bytes32"
        }
      ],
      "name": "updatePatient",
      "outputs": [
        {
          "internalType": "bytes32",
          "name": "",
          "type": "bytes32"
        }
      ],
      "payable": false,
      "stateMutability": "nonpayable",
      "type": "function"
    }
  ],
  "bytecode": "0x608060405234801561001057600080fd5b506040516104863803806104868339818101604052608081101561003357600080fd5b81516020830151604080850151606086018051925194969395919493918201928464010000000082111561006657600080fd5b90830190602082018581111561007b57600080fd5b825164010000000081118282018810171561009557600080fd5b82525081516020918201929091019080838360005b838110156100c25781810151838201526020016100aa565b50505050905090810190601f1680156100ef5780820380516001836020036101000a031916815260200191505b506040525050506001849055600283905560038290558051610118906004906020840190610122565b50505050506101bd565b828054600181600116156101000203166002900490600052602060002090601f016020900481019282601f1061016357805160ff1916838001178555610190565b82800160010185558215610190579182015b82811115610190578251825591602001919060010190610175565b5061019c9291506101a0565b5090565b6101ba91905b8082111561019c57600081556001016101a6565b90565b6102ba806101cc6000396000f3fe608060405234801561001057600080fd5b50600436106100cf5760003560e01c8063844cdf091161008c578063cdb73ac011610066578063cdb73ac014610181578063d321fe291461019e578063d61909f9146101a6578063f680a7bd146101c3576100cf565b8063844cdf091461016957806398d6a37314610171578063b95e216c14610179576100cf565b8063209ebc08146100d457806334d6093d146100f05780633a50ed131461011f5780633f02907a1461013c578063596ada671461015957806380007e8314610161575b600080fd5b6100dc6101cb565b604080519115158252519081900360200190f35b61010d6004803603602081101561010657600080fd5b50356101d9565b60408051918252519081900360200190f35b61010d6004803603602081101561013557600080fd5b50356101e1565b61010d6004803603602081101561015257600080fd5b50356101e9565b61010d6101f1565b6100dc6101f7565b6100dc610200565b6100dc610213565b61010d610227565b61010d6004803603602081101561019757600080fd5b503561022d565b61010d610235565b61010d600480360360208110156101bc57600080fd5b503561023b565b61010d61027f565b600654610100900460ff1690565b600581905590565b600081905590565b600181905590565b60015481565b60065460ff1690565b6006805460ff1916600190811790915590565b6006805461ff001916610100179055600190565b60005481565b600281905590565b60055490565b60058190556040805182815290516000917f7da274c7907a6e3fe48918a914c8a93c400713daffcd99eaa4a9ae6e99322204919081900360200190a1505060055490565b6002548156fea265627a7a7231582055cc44a247781d5f68b92099b67cf85f98c904266f338ee251c15512cbd1de6164736f6c634300050b0032",
  "source": "pragma solidity ^0.5.0;\n\nimport \"./SafeMath.sol\";\n\ncontract ServiceClaim {\n\n    // Entity Information\n    bytes32 public insurerID;\n    bytes32 public providerID;\n    bytes32 public patientID;\n\n    // ServiceClaim Information\n    bytes32 serviceClaimID;\n    string name;\n    uint256 amount;\n    bool verified;\n    bool paid;\n\n\n    event ClaimAdded(uint256 amount);\n\n\n    constructor(bytes32 _proID, bytes32 _patID, bytes32 _id, string memory _name) public {\n        providerID = _proID;\n        patientID = _patID;\n        serviceClaimID = _id;\n        name = _name;\n    }\n\n    // ------------------------------ Functionality of the Network --------------------------- //\n\n    function fileClaim(uint256 _amount) public returns(uint256) {\n        amount = _amount;\n        emit ClaimAdded(amount);\n        return amount;\n    }\n\n    function verifyClaim() public returns(bool verifySuccess) {\n        verified = true;\n        return true;\n    }\n\n    function payProvider() public returns(bool paySuccess) {\n        paid = true;\n        return true;\n    }\n\n\n    // -------------------------------- Getters ----------------------------------------- //\n    function getAmount() public view returns (uint256){\n        return amount;\n    }\n\n    function isVerified() public view returns (bool){\n        return verified;\n    }\n\n    function isPaid() public view returns (bool){\n        return paid;\n    }\n\n\n    // -------------------------------- Update ----------------------------------------- //\n    function updateAmount(uint256 _amount) public returns (uint256) {\n        amount = _amount;\n        return amount;\n    }\n\n    function updateInsurer(bytes32 _id) public returns (bytes32) {\n        insurerID = _id;\n        return insurerID;\n    }\n    function updateProvider(bytes32 _id) public returns (bytes32) {\n        providerID = _id;\n        return providerID;\n    }\n    function updatePatient(bytes32 _id) public returns (bytes32) {\n        patientID = _id;\n        return patientID;\n    }\n}\n",
  "sourcePath": "/Users/mantonio/Documents/TheLaboratory/Classified/SDSC/Medicare-Claim-Verification/contracts/ServiceClaim.sol",
  "compiler": {
    "name": "solc",
    "version": "0.5.11+commit.c082d0b4.Emscripten.clang"
  },
  "schemaVersion": "3.0.11",
  "updatedAt": "2019-08-21T23:04:33.854Z",
  "devdoc": {
    "methods": {}
  },
  "userdoc": {
    "methods": {}
  }
}