{
  "contractName": "ServiceClaim",
  "abi": [
    {
      "inputs": [
        {
          "internalType": "address",
          "name": "_proAddr",
          "type": "address"
        },
        {
          "internalType": "address",
          "name": "_patAddr",
          "type": "address"
        },
        {
          "internalType": "bytes32",
          "name": "_id",
          "type": "bytes32"
        },
        {
          "internalType": "string",
          "name": "_name",
          "type": "string"
        },
        {
          "internalType": "uint256",
          "name": "_timeProvided",
          "type": "uint256"
        }
      ],
      "payable": false,
      "stateMutability": "nonpayable",
      "type": "constructor"
    },
    {
      "anonymous": false,
      "inputs": [
        {
          "indexed": false,
          "internalType": "uint256",
          "name": "amount",
          "type": "uint256"
        },
        {
          "indexed": false,
          "internalType": "uint256",
          "name": "_timeFiled",
          "type": "uint256"
        }
      ],
      "name": "ClaimAdded",
      "type": "event"
    },
    {
      "anonymous": false,
      "inputs": [
        {
          "indexed": false,
          "internalType": "bool",
          "name": "",
          "type": "bool"
        }
      ],
      "name": "Instantiated",
      "type": "event"
    },
    {
      "constant": true,
      "inputs": [],
      "name": "amount",
      "outputs": [
        {
          "internalType": "uint256",
          "name": "",
          "type": "uint256"
        }
      ],
      "payable": false,
      "stateMutability": "view",
      "type": "function"
    },
    {
      "constant": true,
      "inputs": [],
      "name": "confirmed",
      "outputs": [
        {
          "internalType": "bool",
          "name": "",
          "type": "bool"
        }
      ],
      "payable": false,
      "stateMutability": "view",
      "type": "function"
    },
    {
      "constant": true,
      "inputs": [],
      "name": "insurerAddr",
      "outputs": [
        {
          "internalType": "address",
          "name": "",
          "type": "address"
        }
      ],
      "payable": false,
      "stateMutability": "view",
      "type": "function"
    },
    {
      "constant": true,
      "inputs": [],
      "name": "name",
      "outputs": [
        {
          "internalType": "string",
          "name": "",
          "type": "string"
        }
      ],
      "payable": false,
      "stateMutability": "view",
      "type": "function"
    },
    {
      "constant": true,
      "inputs": [],
      "name": "patientAddr",
      "outputs": [
        {
          "internalType": "address",
          "name": "",
          "type": "address"
        }
      ],
      "payable": false,
      "stateMutability": "view",
      "type": "function"
    },
    {
      "constant": true,
      "inputs": [],
      "name": "providerAddr",
      "outputs": [
        {
          "internalType": "address",
          "name": "",
          "type": "address"
        }
      ],
      "payable": false,
      "stateMutability": "view",
      "type": "function"
    },
    {
      "constant": true,
      "inputs": [],
      "name": "serviceClaimID",
      "outputs": [
        {
          "internalType": "bytes32",
          "name": "",
          "type": "bytes32"
        }
      ],
      "payable": false,
      "stateMutability": "view",
      "type": "function"
    },
    {
      "constant": true,
      "inputs": [],
      "name": "timeFiled",
      "outputs": [
        {
          "internalType": "uint256",
          "name": "",
          "type": "uint256"
        }
      ],
      "payable": false,
      "stateMutability": "view",
      "type": "function"
    },
    {
      "constant": true,
      "inputs": [],
      "name": "timeProvided",
      "outputs": [
        {
          "internalType": "uint256",
          "name": "",
          "type": "uint256"
        }
      ],
      "payable": false,
      "stateMutability": "view",
      "type": "function"
    },
    {
      "constant": true,
      "inputs": [],
      "name": "timeVerified",
      "outputs": [
        {
          "internalType": "uint256",
          "name": "",
          "type": "uint256"
        }
      ],
      "payable": false,
      "stateMutability": "view",
      "type": "function"
    },
    {
      "constant": false,
      "inputs": [
        {
          "internalType": "uint256",
          "name": "_amount",
          "type": "uint256"
        },
        {
          "internalType": "uint256",
          "name": "_timeFiled",
          "type": "uint256"
        }
      ],
      "name": "file",
      "outputs": [
        {
          "internalType": "uint256",
          "name": "",
          "type": "uint256"
        }
      ],
      "payable": false,
      "stateMutability": "nonpayable",
      "type": "function"
    },
    {
      "constant": false,
      "inputs": [
        {
          "internalType": "uint256",
          "name": "_timeVerified",
          "type": "uint256"
        },
        {
          "internalType": "bool",
          "name": "_confirmed",
          "type": "bool"
        }
      ],
      "name": "verify",
      "outputs": [
        {
          "internalType": "bool",
          "name": "verifySuccess",
          "type": "bool"
        }
      ],
      "payable": false,
      "stateMutability": "nonpayable",
      "type": "function"
    },
    {
      "constant": true,
      "inputs": [],
      "name": "getAmount",
      "outputs": [
        {
          "internalType": "uint256",
          "name": "",
          "type": "uint256"
        }
      ],
      "payable": false,
      "stateMutability": "view",
      "type": "function"
    },
    {
      "constant": true,
      "inputs": [],
      "name": "isVerified",
      "outputs": [
        {
          "internalType": "bool",
          "name": "",
          "type": "bool"
        }
      ],
      "payable": false,
      "stateMutability": "view",
      "type": "function"
    },
    {
      "constant": true,
      "inputs": [],
      "name": "getPatientAddress",
      "outputs": [
        {
          "internalType": "address",
          "name": "",
          "type": "address"
        }
      ],
      "payable": false,
      "stateMutability": "view",
      "type": "function"
    }
  ],
  "bytecode": "0x608060405234801561001057600080fd5b50604051610630380380610630833981810160405260a081101561003357600080fd5b81516020830151604080850151606086018051925194969395919493918201928464010000000082111561006657600080fd5b90830190602082018581111561007b57600080fd5b825164010000000081118282018810171561009557600080fd5b82525081516020918201929091019080838360005b838110156100c25781810151838201526020016100aa565b50505050905090810190601f1680156100ef5780820380516001836020036101000a031916815260200191505b50604052602090810151600180546001600160a01b03808b166001600160a01b03199283161790925560028054928a1692909116919091179055600386905584519093506101439250600491850190610185565b50604080516001815290517faa3dd72c359d7a5699706cc9115d3a58aa12fe0bef6afcd6e39f6aa47f0d7ee59181900360200190a16007555061022092505050565b828054600181600116156101000203166002900490600052602060002090601f016020900481019282601f106101c657805160ff19168380011785556101f3565b828001600101855582156101f3579182015b828111156101f35782518255916020019190600101906101d8565b506101ff929150610203565b5090565b61021d91905b808211156101ff5760008155600101610209565b90565b6104018061022f6000396000f3fe608060405234801561001057600080fd5b50600436106100f55760003560e01c80637290738b11610097578063aa8c217c11610066578063aa8c217c14610241578063bb90ebac14610249578063d321fe2914610251578063db36ddfa14610259576100f5565b80637290738b14610206578063763032891461022957806380007e8314610231578063a968991b14610239576100f5565b8063231505bd116100d3578063231505bd146101b55780633ac93dcc146101bd5780633e7cb0d3146101c55780634a86d8c5146101fe576100f5565b806306fdde03146100fa57806309a0ea5c146101775780631be37f401461019b575b600080fd5b610102610261565b6040805160208082528351818301528351919283929083019185019080838360005b8381101561013c578181015183820152602001610124565b50505050905090810190601f1680156101695780820380516001836020036101000a031916815260200191505b509250505060405180910390f35b61017f6102ef565b604080516001600160a01b039092168252519081900360200190f35b6101a36102fe565b60408051918252519081900360200190f35b61017f610304565b61017f610313565b6101ea600480360360408110156101db57600080fd5b50803590602001351515610322565b604080519115158252519081900360200190f35b6101a361033e565b6101a36004803603604081101561021c57600080fd5b5080359060200135610344565b6101a3610393565b6101ea610399565b6101ea6103a2565b6101a36103ab565b6101a36103b1565b6101a36103b7565b61017f6103bd565b6004805460408051602060026001851615610100026000190190941693909304601f810184900484028201840190925281815292918301828280156102e75780601f106102bc576101008083540402835291602001916102e7565b820191906000526020600020905b8154815290600101906020018083116102ca57829003601f168201915b505050505081565b6000546001600160a01b031681565b60035481565b6001546001600160a01b031681565b6002546001600160a01b031690565b6009919091556006805460ff1916911515919091179055600190565b60075481565b60088190556005829055604080518381526020810183905281516000927fb8a98a6fb70ae0797c19a04e7cdbbb481db2c659e5a075550c85bbff58c12935928290030190a15060055492915050565b60095481565b60065460ff1690565b60065460ff1681565b60055481565b60085481565b60055490565b6002546001600160a01b03168156fea265627a7a72315820ae6e6c78f9325f642684625f9a3b6ea1c2b1339c460419920a5284937279265f64736f6c63430005100032",
  "source": "pragma solidity ^0.5.0;\n\nimport \"./SafeMath.sol\";\n\ncontract ServiceClaim {\n\n    // Entity Information\n    address public insurerAddr;\n    address public providerAddr;\n    address public patientAddr;\n\n    // ServiceClaim Information\n    bytes32 public serviceClaimID;\n    string public name;\n    uint256 public amount;\n    bool public confirmed;\n    // bool public paid;\n    uint256 public timeProvided;\n    uint256 public timeFiled;\n    uint256 public timeVerified;\n\n    event Instantiated(bool);\n\n\n    event ClaimAdded(uint256 amount, uint256 _timeFiled);\n\n\n    constructor(address _proAddr, address _patAddr, bytes32 _id, string memory _name, uint256 _timeProvided) public {\n        providerAddr = _proAddr;\n        patientAddr = _patAddr;\n        serviceClaimID = _id;\n        name = _name;\n        emit Instantiated(true);\n        timeProvided = _timeProvided;\n    }\n\n    // ------------------------------ Functionality of the Network --------------------------- //\n\n    function file(uint256 _amount, uint256 _timeFiled) public returns(uint256) {\n        timeFiled = _timeFiled;\n        amount = _amount;\n        emit ClaimAdded(amount, timeFiled);\n        return amount;\n    }\n\n    function verify(uint256 _timeVerified, bool _confirmed) public returns(bool verifySuccess) {\n        timeVerified = _timeVerified;\n        confirmed = _confirmed;\n        return true;\n    }\n\n    // function payProvider() public returns(bool paySuccess) {\n    //     paid = true;\n    //     return true;\n    // }\n\n\n    // -------------------------------- Getters ----------------------------------------- //\n    function getAmount() public view returns (uint256){\n        return amount;\n    }\n\n    function isVerified() public view returns (bool) {\n        return confirmed;\n    }\n\n    function getPatientAddress() public view returns (address) {\n        return patientAddr;\n    }\n\n    // function isVerified() public view returns (bool){\n    //     return verified;\n    // }\n\n    // function isPaid() public view returns (bool){\n    //     return paid;\n    // }\n\n\n    // -------------------------------- Update ----------------------------------------- //\n    // function updateAmount(uint256 _amount) public returns (uint256) {\n    //     amount = _amount;\n    //     return amount;\n    // }\n\n    // function updateInsurer(bytes32 _id) public returns (bytes32) {\n    //     insurerID = _id;\n    //     return insurerID;\n    // }\n    // function updateProvider(bytes32 _id) public returns (bytes32) {\n    //     providerID = _id;\n    //     return providerID;\n    // }\n    // function updatePatient(bytes32 _id) public returns (bytes32) {\n    //     patientID = _id;\n    //     return patientID;\n    // }\n}",
  "sourcePath": "/Users/danny/sdsc-blocklab/Medicare-Claim-Verification/contracts/ServiceClaim.sol",
  "compiler": {
    "name": "solc",
    "version": "0.5.16+commit.9c3226ce.Emscripten.clang"
  },
  "schemaVersion": "3.0.22",
  "updatedAt": "2020-03-04T03:12:17.750Z",
  "networkType": "ethereum",
  "devdoc": {
    "methods": {}
  },
  "userdoc": {
    "methods": {}
  }
}