{
  "contractName": "ServiceClaim",
  "abi": [
    {
      "constant": true,
      "inputs": [],
      "name": "name",
      "outputs": [
        {
          "internalType": "string",
          "name": "",
          "type": "string"
        }
      ],
      "payable": false,
      "stateMutability": "view",
      "type": "function"
    },
    {
      "constant": true,
      "inputs": [],
      "name": "serviceClaimID",
      "outputs": [
        {
          "internalType": "bytes32",
          "name": "",
          "type": "bytes32"
        }
      ],
      "payable": false,
      "stateMutability": "view",
      "type": "function"
    },
    {
      "constant": true,
      "inputs": [],
      "name": "paid",
      "outputs": [
        {
          "internalType": "bool",
          "name": "",
          "type": "bool"
        }
      ],
      "payable": false,
      "stateMutability": "view",
      "type": "function"
    },
    {
      "constant": true,
      "inputs": [],
      "name": "timeProvided",
      "outputs": [
        {
          "internalType": "uint256",
          "name": "",
          "type": "uint256"
        }
      ],
      "payable": false,
      "stateMutability": "view",
      "type": "function"
    },
    {
      "constant": true,
      "inputs": [],
      "name": "providerID",
      "outputs": [
        {
          "internalType": "bytes32",
          "name": "",
          "type": "bytes32"
        }
      ],
      "payable": false,
      "stateMutability": "view",
      "type": "function"
    },
    {
      "constant": true,
      "inputs": [],
      "name": "timeVerified",
      "outputs": [
        {
          "internalType": "uint256",
          "name": "",
          "type": "uint256"
        }
      ],
      "payable": false,
      "stateMutability": "view",
      "type": "function"
    },
    {
      "constant": true,
      "inputs": [],
      "name": "amount",
      "outputs": [
        {
          "internalType": "uint256",
          "name": "",
          "type": "uint256"
        }
      ],
      "payable": false,
      "stateMutability": "view",
      "type": "function"
    },
    {
      "constant": true,
      "inputs": [],
      "name": "insurerID",
      "outputs": [
        {
          "internalType": "bytes32",
          "name": "",
          "type": "bytes32"
        }
      ],
      "payable": false,
      "stateMutability": "view",
      "type": "function"
    },
    {
      "constant": true,
      "inputs": [],
      "name": "timeFiled",
      "outputs": [
        {
          "internalType": "uint256",
          "name": "",
          "type": "uint256"
        }
      ],
      "payable": false,
      "stateMutability": "view",
      "type": "function"
    },
    {
      "constant": true,
      "inputs": [],
      "name": "patientID",
      "outputs": [
        {
          "internalType": "bytes32",
          "name": "",
          "type": "bytes32"
        }
      ],
      "payable": false,
      "stateMutability": "view",
      "type": "function"
    },
    {
      "inputs": [
        {
          "internalType": "bytes32",
          "name": "_proID",
          "type": "bytes32"
        },
        {
          "internalType": "bytes32",
          "name": "_patID",
          "type": "bytes32"
        },
        {
          "internalType": "bytes32",
          "name": "_id",
          "type": "bytes32"
        },
        {
          "internalType": "string",
          "name": "_name",
          "type": "string"
        },
        {
          "internalType": "uint256",
          "name": "_timeProvided",
          "type": "uint256"
        }
      ],
      "payable": false,
      "stateMutability": "nonpayable",
      "type": "constructor"
    },
    {
      "anonymous": false,
      "inputs": [
        {
          "indexed": false,
          "internalType": "uint256",
          "name": "amount",
          "type": "uint256"
        },
        {
          "indexed": false,
          "internalType": "uint256",
          "name": "_timeProvided",
          "type": "uint256"
        }
      ],
      "name": "ClaimAdded",
      "type": "event"
    },
    {
      "constant": false,
      "inputs": [
        {
          "internalType": "uint256",
          "name": "_amount",
          "type": "uint256"
        },
        {
          "internalType": "uint256",
          "name": "_timeFiled",
          "type": "uint256"
        }
      ],
      "name": "fileClaim",
      "outputs": [
        {
          "internalType": "uint256",
          "name": "",
          "type": "uint256"
        }
      ],
      "payable": false,
      "stateMutability": "nonpayable",
      "type": "function"
    },
    {
      "constant": false,
      "inputs": [
        {
          "internalType": "uint256",
          "name": "_timeVerified",
          "type": "uint256"
        }
      ],
      "name": "verifyClaim",
      "outputs": [
        {
          "internalType": "bool",
          "name": "verifySuccess",
          "type": "bool"
        }
      ],
      "payable": false,
      "stateMutability": "nonpayable",
      "type": "function"
    },
    {
      "constant": false,
      "inputs": [],
      "name": "payProvider",
      "outputs": [
        {
          "internalType": "bool",
          "name": "paySuccess",
          "type": "bool"
        }
      ],
      "payable": false,
      "stateMutability": "nonpayable",
      "type": "function"
    },
    {
      "constant": true,
      "inputs": [],
      "name": "getAmount",
      "outputs": [
        {
          "internalType": "uint256",
          "name": "",
          "type": "uint256"
        }
      ],
      "payable": false,
      "stateMutability": "view",
      "type": "function"
    },
    {
      "constant": true,
      "inputs": [],
      "name": "isPaid",
      "outputs": [
        {
          "internalType": "bool",
          "name": "",
          "type": "bool"
        }
      ],
      "payable": false,
      "stateMutability": "view",
      "type": "function"
    },
    {
      "constant": false,
      "inputs": [
        {
          "internalType": "uint256",
          "name": "_amount",
          "type": "uint256"
        }
      ],
      "name": "updateAmount",
      "outputs": [
        {
          "internalType": "uint256",
          "name": "",
          "type": "uint256"
        }
      ],
      "payable": false,
      "stateMutability": "nonpayable",
      "type": "function"
    },
    {
      "constant": false,
      "inputs": [
        {
          "internalType": "bytes32",
          "name": "_id",
          "type": "bytes32"
        }
      ],
      "name": "updateInsurer",
      "outputs": [
        {
          "internalType": "bytes32",
          "name": "",
          "type": "bytes32"
        }
      ],
      "payable": false,
      "stateMutability": "nonpayable",
      "type": "function"
    },
    {
      "constant": false,
      "inputs": [
        {
          "internalType": "bytes32",
          "name": "_id",
          "type": "bytes32"
        }
      ],
      "name": "updateProvider",
      "outputs": [
        {
          "internalType": "bytes32",
          "name": "",
          "type": "bytes32"
        }
      ],
      "payable": false,
      "stateMutability": "nonpayable",
      "type": "function"
    },
    {
      "constant": false,
      "inputs": [
        {
          "internalType": "bytes32",
          "name": "_id",
          "type": "bytes32"
        }
      ],
      "name": "updatePatient",
      "outputs": [
        {
          "internalType": "bytes32",
          "name": "",
          "type": "bytes32"
        }
      ],
      "payable": false,
      "stateMutability": "nonpayable",
      "type": "function"
    }
  ],
  "bytecode": "0x608060405234801561001057600080fd5b50604051610647380380610647833981810160405260a081101561003357600080fd5b81516020830151604080850151606086018051925194969395919493918201928464010000000082111561006657600080fd5b90830190602082018581111561007b57600080fd5b825164010000000081118282018810171561009557600080fd5b82525081516020918201929091019080838360005b838110156100c25781810151838201526020016100aa565b50505050905090810190601f1680156100ef5780820380516001836020036101000a031916815260200191505b50604052602090810151600188905560028790556003869055845190935061011d925060049185019061012b565b50600755506101c692505050565b828054600181600116156101000203166002900490600052602060002090601f016020900481019282601f1061016c57805160ff1916838001178555610199565b82800160010185558215610199579182015b8281111561019957825182559160200191906001019061017e565b506101a59291506101a9565b5090565b6101c391905b808211156101a557600081556001016101af565b90565b610472806101d56000396000f3fe608060405234801561001057600080fd5b50600436106101215760003560e01c8063596ada67116100ad578063bb90ebac11610071578063bb90ebac1461028b578063c0d7e2b614610293578063cdb73ac0146102b0578063d321fe29146102cd578063f680a7bd146102d557610121565b8063596ada6714610263578063763032891461026b57806398d6a37314610273578063aa8c217c1461027b578063b95e216c1461028357610121565b806334d6093d116100f457806334d6093d146101e157806337e94726146101fe5780633a50ed13146102215780633f02907a1461023e5780634a86d8c51461025b57610121565b806306fdde03146101265780631be37f40146101a3578063209ebc08146101bd578063295b4e17146101d9575b600080fd5b61012e6102dd565b6040805160208082528351818301528351919283929083019185019080838360005b83811015610168578181015183820152602001610150565b50505050905090810190601f1680156101955780820380516001836020036101000a031916815260200191505b509250505060405180910390f35b6101ab61036b565b60408051918252519081900360200190f35b6101c5610371565b604080519115158252519081900360200190f35b6101c561037a565b6101ab600480360360208110156101f757600080fd5b5035610383565b6101ab6004803603604081101561021457600080fd5b508035906020013561038b565b6101ab6004803603602081101561023757600080fd5b50356103da565b6101ab6004803603602081101561025457600080fd5b50356103e2565b6101ab6103ea565b6101ab6103f0565b6101ab6103f6565b6101c56103fc565b6101ab61040f565b6101ab610415565b6101ab61041b565b6101c5600480360360208110156102a957600080fd5b5035610421565b6101ab600480360360208110156102c657600080fd5b5035610429565b6101ab610431565b6101ab610437565b6004805460408051602060026001851615610100026000190190941693909304601f810184900484028201840190925281815292918301828280156103635780601f1061033857610100808354040283529160200191610363565b820191906000526020600020905b81548152906001019060200180831161034657829003601f168201915b505050505081565b60035481565b60065460ff1690565b60065460ff1681565b600581905590565b60088190556005829055604080518381526020810183905281516000927fb8a98a6fb70ae0797c19a04e7cdbbb481db2c659e5a075550c85bbff58c12935928290030190a15060055492915050565b600081905590565b600181905590565b60075481565b60015481565b60095481565b6006805460ff1916600190811790915590565b60055481565b60005481565b60085481565b600955600190565b600281905590565b60055490565b6002548156fea265627a7a723158204271a2dc1ef4a8c50b2922c4b47956601bc0de7d98a6c54fe069294b0619a6b264736f6c634300050b0032",
  "source": "pragma solidity ^0.5.0;\n\nimport \"./SafeMath.sol\";\n\ncontract ServiceClaim {\n\n    // Entity Information\n    bytes32 public insurerID;\n    bytes32 public providerID;\n    bytes32 public patientID;\n\n    // ServiceClaim Information\n    bytes32 public serviceClaimID;\n    string public name;\n    uint256 public amount;\n    bool public paid;\n    uint256 public timeProvided;\n    uint256 public timeFiled;\n    uint256 public timeVerified;\n\n\n    event ClaimAdded(uint256 amount, uint256 _timeProvided);\n\n\n    constructor(bytes32 _proID, bytes32 _patID, bytes32 _id, string memory _name, uint256 _timeProvided) public {\n        providerID = _proID;\n        patientID = _patID;\n        serviceClaimID = _id;\n        name = _name;\n        timeProvided = _timeProvided;\n    }\n\n    // ------------------------------ Functionality of the Network --------------------------- //\n\n    function fileClaim(uint256 _amount, uint256 _timeFiled) public returns(uint256) {\n        timeFiled = _timeFiled;\n        amount = _amount;\n        emit ClaimAdded(amount, timeFiled);\n        return amount;\n    }\n\n    function verifyClaim(uint256 _timeVerified) public returns(bool verifySuccess) {\n        timeVerified = _timeVerified;\n        return true;\n    }\n\n    function payProvider() public returns(bool paySuccess) {\n        paid = true;\n        return true;\n    }\n\n\n    // -------------------------------- Getters ----------------------------------------- //\n    function getAmount() public view returns (uint256){\n        return amount;\n    }\n\n    // function isVerified() public view returns (bool){\n    //     return verified;\n    // }\n\n    function isPaid() public view returns (bool){\n        return paid;\n    }\n\n\n    // -------------------------------- Update ----------------------------------------- //\n    function updateAmount(uint256 _amount) public returns (uint256) {\n        amount = _amount;\n        return amount;\n    }\n\n    function updateInsurer(bytes32 _id) public returns (bytes32) {\n        insurerID = _id;\n        return insurerID;\n    }\n    function updateProvider(bytes32 _id) public returns (bytes32) {\n        providerID = _id;\n        return providerID;\n    }\n    function updatePatient(bytes32 _id) public returns (bytes32) {\n        patientID = _id;\n        return patientID;\n    }\n}\n",
  "sourcePath": "/Users/danny/sdsc-blocklab/Medicare-Claim-Verification/contracts/ServiceClaim.sol",
  "compiler": {
    "name": "solc",
    "version": "0.5.11+commit.c082d0b4.Emscripten.clang"
  },
  "schemaVersion": "3.0.16",
  "updatedAt": "2019-09-19T05:03:41.146Z",
  "devdoc": {
    "methods": {}
  },
  "userdoc": {
    "methods": {}
  }
}