{
  "contractName": "ServiceClaim",
  "abi": [
    {
      "inputs": [
        {
          "internalType": "bytes32",
          "name": "_proID",
          "type": "bytes32"
        },
        {
          "internalType": "bytes32",
          "name": "_patID",
          "type": "bytes32"
        },
        {
          "internalType": "bytes32",
          "name": "_id",
          "type": "bytes32"
        },
        {
          "internalType": "string",
          "name": "_name",
          "type": "string"
        }
      ],
      "payable": false,
      "stateMutability": "nonpayable",
      "type": "constructor"
    },
    {
      "anonymous": false,
      "inputs": [
        {
          "indexed": false,
          "internalType": "uint256",
          "name": "amount",
          "type": "uint256"
        }
      ],
      "name": "ClaimAdded",
      "type": "event"
    },
    {
      "constant": false,
      "inputs": [
        {
          "internalType": "uint256",
          "name": "_amount",
          "type": "uint256"
        }
      ],
      "name": "fileClaim",
      "outputs": [
        {
          "internalType": "uint256",
          "name": "",
          "type": "uint256"
        }
      ],
      "payable": false,
      "stateMutability": "nonpayable",
      "type": "function"
    },
    {
      "constant": false,
      "inputs": [],
      "name": "verifyClaim",
      "outputs": [
        {
          "internalType": "bool",
          "name": "verifySuccess",
          "type": "bool"
        }
      ],
      "payable": false,
      "stateMutability": "nonpayable",
      "type": "function"
    },
    {
      "constant": false,
      "inputs": [],
      "name": "payProvider",
      "outputs": [
        {
          "internalType": "bool",
          "name": "paySuccess",
          "type": "bool"
        }
      ],
      "payable": false,
      "stateMutability": "nonpayable",
      "type": "function"
    },
    {
      "constant": true,
      "inputs": [],
      "name": "getAmount",
      "outputs": [
        {
          "internalType": "uint256",
          "name": "",
          "type": "uint256"
        }
      ],
      "payable": false,
      "stateMutability": "view",
      "type": "function"
    },
    {
      "constant": true,
      "inputs": [],
      "name": "isVerified",
      "outputs": [
        {
          "internalType": "bool",
          "name": "",
          "type": "bool"
        }
      ],
      "payable": false,
      "stateMutability": "view",
      "type": "function"
    },
    {
      "constant": true,
      "inputs": [],
      "name": "isPaid",
      "outputs": [
        {
          "internalType": "bool",
          "name": "",
          "type": "bool"
        }
      ],
      "payable": false,
      "stateMutability": "view",
      "type": "function"
    }
  ],
  "bytecode": "0x608060405234801561001057600080fd5b5060405161035b38038061035b8339818101604052608081101561003357600080fd5b81516020830151604080850151606086018051925194969395919493918201928464010000000082111561006657600080fd5b90830190602082018581111561007b57600080fd5b825164010000000081118282018810171561009557600080fd5b82525081516020918201929091019080838360005b838110156100c25781810151838201526020016100aa565b50505050905090810190601f1680156100ef5780820380516001836020036101000a031916815260200191505b506040525050506001849055600283905560038290558051610118906004906020840190610122565b50505050506101bd565b828054600181600116156101000203166002900490600052602060002090601f016020900481019282601f1061016357805160ff1916838001178555610190565b82800160010185558215610190579182015b82811115610190578251825591602001919060010190610175565b5061019c9291506101a0565b5090565b6101ba91905b8082111561019c57600081556001016101a6565b90565b61018f806101cc6000396000f3fe608060405234801561001057600080fd5b50600436106100625760003560e01c8063209ebc081461006757806380007e8314610083578063844cdf091461008b57806398d6a37314610093578063d321fe291461009b578063d61909f9146100b5575b600080fd5b61006f6100d2565b604080519115158252519081900360200190f35b61006f6100e0565b61006f6100e9565b61006f6100fc565b6100a3610110565b60408051918252519081900360200190f35b6100a3600480360360208110156100cb57600080fd5b5035610116565b600654610100900460ff1690565b60065460ff1690565b6006805460ff1916600190811790915590565b6006805461ff001916610100179055600190565b60055490565b60058190556040805182815290516000917f7da274c7907a6e3fe48918a914c8a93c400713daffcd99eaa4a9ae6e99322204919081900360200190a150506005549056fea265627a7a72315820cdcc1e8fad5e540780b4604abf05ab2cbb71e1639726c7f38b08228e8535745264736f6c634300050b0032",
  "source": "pragma solidity ^0.5.0;\n\nimport \"./SafeMath.sol\";\n\ncontract ServiceClaim {\n\n    // Entity Information\n    bytes32 insurerID;\n    bytes32 providerID;\n    bytes32 patientID;\n\n    // ServiceClaim Information\n    bytes32 serviceClaimID;\n    string name;\n    uint256 amount;\n    bool verified;\n    bool paid;\n\n\n    event ClaimAdded(uint256 amount);\n\n\n    constructor(bytes32 _proID, bytes32 _patID, bytes32 _id, string memory _name) public {\n        providerID = _proID;\n        patientID = _patID;\n        serviceClaimID = _id;\n        name = _name;\n    }\n\n    // ------------------------------ Functionality of the Network --------------------------- //\n\n    function fileClaim(uint256 _amount) public returns(uint256) {\n        amount = _amount;\n        emit ClaimAdded(amount);\n        return amount;\n    }\n\n    function verifyClaim() public returns(bool verifySuccess) {\n        verified = true;\n        return true;\n    }\n\n    function payProvider() public returns(bool paySuccess) {\n        paid = true;\n        return true;\n    }\n\n\n    // -------------------------------- Getters ----------------------------------------- //\n    function getAmount() public view returns (uint256){\n        return amount;\n    }\n\n    function isVerified() public view returns (bool){\n        return verified;\n    }\n\n    function isPaid() public view returns (bool){\n        return paid;\n    }\n}\n",
  "sourcePath": "/Users/danny/sdsc-blocklab/Medicare-Claim-Verification/contracts/ServiceClaim.sol",
  "compiler": {
    "name": "solc",
    "version": "0.5.11+commit.c082d0b4.Emscripten.clang"
  },
  "schemaVersion": "3.0.11",
  "updatedAt": "2019-08-16T22:20:08.159Z",
  "devdoc": {
    "methods": {}
  },
  "userdoc": {
    "methods": {}
  }
}