{
  "contractName": "ServiceClaim",
  "abi": [
    {
      "inputs": [
        {
          "internalType": "address",
          "name": "_insAddr",
          "type": "address"
        },
        {
          "internalType": "address",
          "name": "_proAddr",
          "type": "address"
        },
        {
          "internalType": "address",
          "name": "_patAddr",
          "type": "address"
        },
        {
          "internalType": "bytes32",
          "name": "_id",
          "type": "bytes32"
        },
        {
          "internalType": "string",
          "name": "_name",
          "type": "string"
        },
        {
          "internalType": "uint256",
          "name": "_timeProvided",
          "type": "uint256"
        }
      ],
      "payable": false,
      "stateMutability": "nonpayable",
      "type": "constructor"
    },
    {
      "anonymous": false,
      "inputs": [
        {
          "indexed": false,
          "internalType": "uint256",
          "name": "amount",
          "type": "uint256"
        },
        {
          "indexed": false,
          "internalType": "uint256",
          "name": "_timeFiled",
          "type": "uint256"
        }
      ],
      "name": "ClaimAdded",
      "type": "event"
    },
    {
      "anonymous": false,
      "inputs": [
        {
          "indexed": false,
          "internalType": "bool",
          "name": "",
          "type": "bool"
        }
      ],
      "name": "Instantiated",
      "type": "event"
    },
    {
      "constant": true,
      "inputs": [],
      "name": "amount",
      "outputs": [
        {
          "internalType": "uint256",
          "name": "",
          "type": "uint256"
        }
      ],
      "payable": false,
      "stateMutability": "view",
      "type": "function"
    },
    {
      "constant": true,
      "inputs": [],
      "name": "confirmed",
      "outputs": [
        {
          "internalType": "bool",
          "name": "",
          "type": "bool"
        }
      ],
      "payable": false,
      "stateMutability": "view",
      "type": "function"
    },
    {
      "constant": true,
      "inputs": [],
      "name": "insurerAddr",
      "outputs": [
        {
          "internalType": "address",
          "name": "",
          "type": "address"
        }
      ],
      "payable": false,
      "stateMutability": "view",
      "type": "function"
    },
    {
      "constant": true,
      "inputs": [],
      "name": "name",
      "outputs": [
        {
          "internalType": "string",
          "name": "",
          "type": "string"
        }
      ],
      "payable": false,
      "stateMutability": "view",
      "type": "function"
    },
    {
      "constant": true,
      "inputs": [],
      "name": "patientAddr",
      "outputs": [
        {
          "internalType": "address",
          "name": "",
          "type": "address"
        }
      ],
      "payable": false,
      "stateMutability": "view",
      "type": "function"
    },
    {
      "constant": true,
      "inputs": [],
      "name": "providerAddr",
      "outputs": [
        {
          "internalType": "address",
          "name": "",
          "type": "address"
        }
      ],
      "payable": false,
      "stateMutability": "view",
      "type": "function"
    },
    {
      "constant": true,
      "inputs": [],
      "name": "serviceClaimID",
      "outputs": [
        {
          "internalType": "bytes32",
          "name": "",
          "type": "bytes32"
        }
      ],
      "payable": false,
      "stateMutability": "view",
      "type": "function"
    },
    {
      "constant": true,
      "inputs": [],
      "name": "timeFiled",
      "outputs": [
        {
          "internalType": "uint256",
          "name": "",
          "type": "uint256"
        }
      ],
      "payable": false,
      "stateMutability": "view",
      "type": "function"
    },
    {
      "constant": true,
      "inputs": [],
      "name": "timeProvided",
      "outputs": [
        {
          "internalType": "uint256",
          "name": "",
          "type": "uint256"
        }
      ],
      "payable": false,
      "stateMutability": "view",
      "type": "function"
    },
    {
      "constant": true,
      "inputs": [],
      "name": "timeVerified",
      "outputs": [
        {
          "internalType": "uint256",
          "name": "",
          "type": "uint256"
        }
      ],
      "payable": false,
      "stateMutability": "view",
      "type": "function"
    },
    {
      "constant": false,
      "inputs": [
        {
          "internalType": "uint256",
          "name": "_amount",
          "type": "uint256"
        },
        {
          "internalType": "uint256",
          "name": "_timeFiled",
          "type": "uint256"
        }
      ],
      "name": "file",
      "outputs": [
        {
          "internalType": "uint256",
          "name": "",
          "type": "uint256"
        }
      ],
      "payable": false,
      "stateMutability": "nonpayable",
      "type": "function"
    },
    {
      "constant": false,
      "inputs": [
        {
          "internalType": "uint256",
          "name": "_timeVerified",
          "type": "uint256"
        },
        {
          "internalType": "bool",
          "name": "_confirmed",
          "type": "bool"
        }
      ],
      "name": "verify",
      "outputs": [
        {
          "internalType": "bool",
          "name": "verifySuccess",
          "type": "bool"
        }
      ],
      "payable": false,
      "stateMutability": "nonpayable",
      "type": "function"
    },
    {
      "constant": true,
      "inputs": [],
      "name": "getAmount",
      "outputs": [
        {
          "internalType": "uint256",
          "name": "",
          "type": "uint256"
        }
      ],
      "payable": false,
      "stateMutability": "view",
      "type": "function"
    },
    {
      "constant": true,
      "inputs": [],
      "name": "isVerified",
      "outputs": [
        {
          "internalType": "bool",
          "name": "",
          "type": "bool"
        }
      ],
      "payable": false,
      "stateMutability": "view",
      "type": "function"
    },
    {
      "constant": true,
      "inputs": [],
      "name": "getPatientAddress",
      "outputs": [
        {
          "internalType": "address",
          "name": "",
          "type": "address"
        }
      ],
      "payable": false,
      "stateMutability": "view",
      "type": "function"
    },
    {
      "constant": true,
      "inputs": [],
      "name": "getProv",
      "outputs": [
        {
          "internalType": "address",
          "name": "",
          "type": "address"
        }
      ],
      "payable": false,
      "stateMutability": "view",
      "type": "function"
    },
    {
      "constant": true,
      "inputs": [],
      "name": "getPat",
      "outputs": [
        {
          "internalType": "address",
          "name": "",
          "type": "address"
        }
      ],
      "payable": false,
      "stateMutability": "view",
      "type": "function"
    },
    {
      "constant": true,
      "inputs": [],
      "name": "getIns",
      "outputs": [
        {
          "internalType": "address",
          "name": "",
          "type": "address"
        }
      ],
      "payable": false,
      "stateMutability": "view",
      "type": "function"
    },
    {
      "constant": true,
      "inputs": [],
      "name": "getName",
      "outputs": [
        {
          "internalType": "string",
          "name": "",
          "type": "string"
        }
      ],
      "payable": false,
      "stateMutability": "view",
      "type": "function"
    },
    {
      "constant": true,
      "inputs": [],
      "name": "getPatName",
      "outputs": [
        {
          "internalType": "string",
          "name": "",
          "type": "string"
        }
      ],
      "payable": false,
      "stateMutability": "view",
      "type": "function"
    }
  ],
  "bytecode": "0x608060405234801561001057600080fd5b506040516108e83803806108e8833981810160405260c081101561003357600080fd5b815160208301516040808501516060860151608087018051935195979496929591949193928201928464010000000082111561006e57600080fd5b90830190602082018581111561008357600080fd5b825164010000000081118282018810171561009d57600080fd5b82525081516020918201929091019080838360005b838110156100ca5781810151838201526020016100b2565b50505050905090810190601f1680156100f75780820380516001836020036101000a031916815260200191505b50604052602090810151600080546001600160a01b03808c166001600160a01b031992831617909255600180548b841690831617905560028054928a169290911691909117905560038690558451909350610158925060049185019061019b565b50604080516001815290517faa3dd72c359d7a5699706cc9115d3a58aa12fe0bef6afcd6e39f6aa47f0d7ee59181900360200190a1600755506102369350505050565b828054600181600116156101000203166002900490600052602060002090601f016020900481019282601f106101dc57805160ff1916838001178555610209565b82800160010185558215610209579182015b828111156102095782518255916020019190600101906101ee565b50610215929150610219565b5090565b61023391905b80821115610215576000815560010161021f565b90565b6106a3806102456000396000f3fe608060405234801561001057600080fd5b506004361061016c5760003560e01c806376303289116100cd578063ae7ea0ed11610081578063bb90ebac11610066578063bb90ebac146102e0578063d321fe29146102e8578063db36ddfa146102f05761016c565b8063ae7ea0ed146102d8578063b4bb03f51461023c5761016c565b8063a968991b116100b2578063a968991b146102c0578063aa8c217c146102c8578063ad76348d146102d05761016c565b806376303289146102b057806380007e83146102b85761016c565b80633ac93dcc1161012457806340ca28b11161010957806340ca28b11461027d5780634a86d8c5146102855780637290738b1461028d5761016c565b80633ac93dcc1461023c5780633e7cb0d3146102445761016c565b806317d7de7c1161015557806317d7de7c146102125780631be37f401461021a578063231505bd146102345761016c565b806306fdde031461017157806309a0ea5c146101ee575b600080fd5b6101796102f8565b6040805160208082528351818301528351919283929083019185019080838360005b838110156101b357818101518382015260200161019b565b50505050905090810190601f1680156101e05780820380516001836020036101000a031916815260200191505b509250505060405180910390f35b6101f6610386565b604080516001600160a01b039092168252519081900360200190f35b610179610395565b61022261042b565b60408051918252519081900360200190f35b6101f6610431565b6101f6610440565b6102696004803603604081101561025a57600080fd5b5080359060200135151561044f565b604080519115158252519081900360200190f35b61017961046b565b6102226105c2565b610222600480360360408110156102a357600080fd5b50803590602001356105c8565b610222610617565b61026961061d565b610269610626565b61022261062f565b6101f6610635565b6101f6610644565b610222610653565b610222610659565b6101f661065f565b6004805460408051602060026001851615610100026000190190941693909304601f8101849004840282018401909252818152929183018282801561037e5780601f106103535761010080835404028352916020019161037e565b820191906000526020600020905b81548152906001019060200180831161036157829003601f168201915b505050505081565b6000546001600160a01b031681565b60048054604080516020601f60026000196101006001881615020190951694909404938401819004810282018101909252828152606093909290918301828280156104215780601f106103f657610100808354040283529160200191610421565b820191906000526020600020905b81548152906001019060200180831161040457829003601f168201915b5050505050905090565b60035481565b6001546001600160a01b031681565b6002546001600160a01b031690565b6009919091556006805460ff1916911515919091179055600190565b600254604080517f17d7de7c00000000000000000000000000000000000000000000000000000000815290516060926001600160a01b031691839183916317d7de7c916004808301926000929190829003018186803b1580156104cd57600080fd5b505afa1580156104e1573d6000803e3d6000fd5b505050506040513d6000823e601f3d908101601f19168201604052602081101561050a57600080fd5b810190808051604051939291908464010000000082111561052a57600080fd5b90830190602082018581111561053f57600080fd5b825164010000000081118282018810171561055957600080fd5b82525081516020918201929091019080838360005b8381101561058657818101518382015260200161056e565b50505050905090810190601f1680156105b35780820380516001836020036101000a031916815260200191505b50604052509194505050505090565b60075481565b60088190556005829055604080518381526020810183905281516000927fb8a98a6fb70ae0797c19a04e7cdbbb481db2c659e5a075550c85bbff58c12935928290030190a15060055492915050565b60095481565b60065460ff1690565b60065460ff1681565b60055481565b6001546001600160a01b031690565b6000546001600160a01b031690565b60085481565b60055490565b6002546001600160a01b03168156fea265627a7a7231582002311c3599712dd1d30040b0faca7e469d7687961c9a023a9d9035e35e5cae9364736f6c63430005100032",
  "source": "pragma solidity ^0.5.0;\n\nimport \"./SafeMath.sol\";\nimport \"./Patient.sol\";\n\ncontract ServiceClaim {\n\n    // Entity Information\n    address public insurerAddr;\n    address public providerAddr;\n    address public patientAddr;\n\n    // ServiceClaim Information\n    bytes32 public serviceClaimID;\n    string public name;\n    uint256 public amount;\n    bool public confirmed;\n    // bool public paid;\n    uint256 public timeProvided;\n    uint256 public timeFiled;\n    uint256 public timeVerified;\n\n    event Instantiated(bool);\n\n\n    event ClaimAdded(uint256 amount, uint256 _timeFiled);\n\n\n    constructor(address _insAddr, address _proAddr, address _patAddr, bytes32 _id, string memory _name, uint256 _timeProvided) public {\n        insurerAddr = _insAddr;\n        providerAddr = _proAddr;\n        patientAddr = _patAddr;\n        serviceClaimID = _id;\n        name = _name;\n        emit Instantiated(true);\n        timeProvided = _timeProvided;\n    }\n\n    // ------------------------------ Functionality of the Network --------------------------- //\n\n    function file(uint256 _amount, uint256 _timeFiled) public returns(uint256) {\n        timeFiled = _timeFiled;\n        amount = _amount;\n        emit ClaimAdded(amount, timeFiled);\n        return amount;\n    }\n\n    function verify(uint256 _timeVerified, bool _confirmed) public returns(bool verifySuccess) {\n        timeVerified = _timeVerified;\n        confirmed = _confirmed;\n        return true;\n    }\n\n    // function payProvider() public returns(bool paySuccess) {\n    //     paid = true;\n    //     return true;\n    // }\n\n\n    // -------------------------------- Getters ----------------------------------------- //\n    function getAmount() public view returns (uint256){\n        return amount;\n    }\n\n    function isVerified() public view returns (bool) {\n        return confirmed;\n    }\n\n    function getPatientAddress() public view returns (address) {\n        return patientAddr;\n    }\n\n    function getProv() public view returns (address){\n        return providerAddr;\n    }\n\n    function getPat() public view returns (address){\n        return patientAddr;\n    }\n    function getIns() public view returns (address){\n        return insurerAddr;\n    }\n    function getName() public view returns (string memory){\n        return name;\n    }\n\n    function getPatName() public view returns(string memory) {\n        Patient p = Patient(patientAddr);\n        string memory n = p.getName();\n        return n;\n    }\n\n    // function isVerified() public view returns (bool){\n    //     return verified;\n    // }\n\n    // function isPaid() public view returns (bool){\n    //     return paid;\n    // }\n\n\n    // -------------------------------- Update ----------------------------------------- //\n    // function updateAmount(uint256 _amount) public returns (uint256) {\n    //     amount = _amount;\n    //     return amount;\n    // }\n\n    // function updateInsurer(bytes32 _id) public returns (bytes32) {\n    //     insurerID = _id;\n    //     return insurerID;\n    // }\n    // function updateProvider(bytes32 _id) public returns (bytes32) {\n    //     providerID = _id;\n    //     return providerID;\n    // }\n    // function updatePatient(bytes32 _id) public returns (bytes32) {\n    //     patientID = _id;\n    //     return patientID;\n    // }\n}",
  "sourcePath": "/Users/danny/sdsc-blocklab/Medicare-Claim-Verification/contracts/ServiceClaim.sol",
  "compiler": {
    "name": "solc",
    "version": "0.5.16+commit.9c3226ce.Emscripten.clang"
  },
  "schemaVersion": "3.0.22",
  "updatedAt": "2020-03-07T03:34:40.364Z",
  "networkType": "ethereum",
  "devdoc": {
    "methods": {}
  },
  "userdoc": {
    "methods": {}
  }
}