{
  "contractName": "ServiceClaim",
  "abi": [
    {
      "inputs": [
        {
          "name": "_proID",
          "type": "bytes32"
        },
        {
          "name": "_patID",
          "type": "bytes32"
        },
        {
          "name": "_id",
          "type": "bytes32"
        },
        {
          "name": "_name",
          "type": "string"
        }
      ],
      "payable": false,
      "stateMutability": "nonpayable",
      "type": "constructor"
    },
    {
      "anonymous": false,
      "inputs": [
        {
          "indexed": false,
          "name": "amount",
          "type": "uint256"
        }
      ],
      "name": "ClaimAdded",
      "type": "event"
    },
    {
      "constant": false,
      "inputs": [
        {
          "name": "_amount",
          "type": "uint256"
        }
      ],
      "name": "addClaim",
      "outputs": [
        {
          "name": "",
          "type": "uint256"
        }
      ],
      "payable": false,
      "stateMutability": "nonpayable",
      "type": "function"
    },
    {
      "constant": false,
      "inputs": [],
      "name": "verifyClaim",
      "outputs": [
        {
          "name": "verifySuccess",
          "type": "bool"
        }
      ],
      "payable": false,
      "stateMutability": "nonpayable",
      "type": "function"
    },
    {
      "constant": false,
      "inputs": [],
      "name": "payProvider",
      "outputs": [
        {
          "name": "paySuccess",
          "type": "bool"
        }
      ],
      "payable": false,
      "stateMutability": "nonpayable",
      "type": "function"
    },
    {
      "constant": true,
      "inputs": [],
      "name": "getAmount",
      "outputs": [
        {
          "name": "",
          "type": "uint256"
        }
      ],
      "payable": false,
      "stateMutability": "view",
      "type": "function"
    },
    {
      "constant": true,
      "inputs": [],
      "name": "isVerified",
      "outputs": [
        {
          "name": "",
          "type": "bool"
        }
      ],
      "payable": false,
      "stateMutability": "view",
      "type": "function"
    },
    {
      "constant": true,
      "inputs": [],
      "name": "isPaid",
      "outputs": [
        {
          "name": "",
          "type": "bool"
        }
      ],
      "payable": false,
      "stateMutability": "view",
      "type": "function"
    }
  ],
  "bytecode": "0x608060405234801561001057600080fd5b506040516102fb3803806102fb8339818101604052608081101561003357600080fd5b815160208301516040840151606085018051939592949193918301929164010000000081111561006257600080fd5b8201602081018481111561007557600080fd5b815164010000000081118282018710171561008f57600080fd5b505060018790556002869055600385905580519093506100b892506004915060208401906100c2565b505050505061015d565b828054600181600116156101000203166002900490600052602060002090601f016020900481019282601f1061010357805160ff1916838001178555610130565b82800160010185558215610130579182015b82811115610130578251825591602001919060010190610115565b5061013c929150610140565b5090565b61015a91905b8082111561013c5760008155600101610146565b90565b61018f8061016c6000396000f3fe608060405234801561001057600080fd5b50600436106100625760003560e01c8063209ebc0814610067578063745c25f61461008357806380007e83146100b2578063844cdf09146100ba57806398d6a373146100c2578063d321fe29146100ca575b600080fd5b61006f6100d2565b604080519115158252519081900360200190f35b6100a06004803603602081101561009957600080fd5b50356100e0565b60408051918252519081900360200190f35b61006f610124565b61006f61012d565b61006f610140565b6100a0610154565b600654610100900460ff1690565b60058190556040805182815290516000917f7da274c7907a6e3fe48918a914c8a93c400713daffcd99eaa4a9ae6e99322204919081900360200190a1505060055490565b60065460ff1690565b6006805460ff1916600190811790915590565b6006805461ff001916610100179055600190565b6005549056fea265627a7a72305820ed3d29d1194289a83b792d6545c04a57fc45182e6a41eab0ea51e5344c35b82964736f6c634300050a0032",
  "source": "pragma solidity ^0.5.0;\n\nimport \"./SafeMath.sol\";\n\ncontract ServiceClaim {\n\n    // Entity Information\n    bytes32 insurerID;\n    bytes32 providerID;\n    bytes32 patientID;\n\n    // ServiceClaim Information\n    bytes32 serviceClaimID;\n    string name;\n    uint256 amount;\n    bool verified;\n    bool paid;\n\n\n    event ClaimAdded(uint256 amount);\n\n\n    constructor(bytes32 _proID, bytes32 _patID, bytes32 _id, string memory _name) public {\n        providerID = _proID;\n        patientID = _patID;\n        serviceClaimID = _id;\n        name = _name;\n    }\n\n    // ------------------------------ Functionality of the Network --------------------------- //\n\n    function addClaim(uint256 _amount) public returns(uint256) {\n        amount = _amount;\n        emit ClaimAdded(amount);\n        return amount;\n    }\n\n    function verifyClaim() public returns(bool verifySuccess) {\n        verified = true;\n        return true;\n    }\n\n    function payProvider() public returns(bool paySuccess) {\n        paid = true;\n        return true;\n    }\n\n\n    // -------------------------------- Getters ----------------------------------------- //\n    function getAmount() public view returns (uint256){\n        return amount;\n    }\n\n    function isVerified() public view returns (bool){\n        return verified;\n    }\n\n    function isPaid() public view returns (bool){\n        return paid;\n    }\n}\n",
  "sourcePath": "/Users/danny/sdsc-blocklab/Medicare-Claim-Verification/contracts/ServiceClaim.sol",
  "compiler": {
    "name": "solc",
    "version": "0.5.10+commit.5a6ea5b1.Emscripten.clang"
  },
  "schemaVersion": "3.0.11",
  "updatedAt": "2019-07-30T00:49:45.501Z",
  "devdoc": {
    "methods": {}
  },
  "userdoc": {
    "methods": {}
  }
}